{
  "contractName": "NPXSXEMigration",
  "abi": [
    {
      "inputs": [
        {
          "internalType": "address",
          "name": "_npxsxemToken",
          "type": "address"
        },
        {
          "internalType": "contract PurseTokenUpgradable",
          "name": "_purseToken",
          "type": "address"
        }
      ],
      "stateMutability": "nonpayable",
      "type": "constructor"
    },
    {
      "anonymous": false,
      "inputs": [
        {
          "indexed": false,
          "internalType": "uint256",
          "name": "migrateIndex",
          "type": "uint256"
        },
        {
          "indexed": true,
          "internalType": "address",
          "name": "_from",
          "type": "address"
        },
        {
          "indexed": false,
          "internalType": "address",
          "name": "_to",
          "type": "address"
        },
        {
          "indexed": false,
          "internalType": "uint256",
          "name": "value",
          "type": "uint256"
        }
      ],
      "name": "Migrate",
      "type": "event"
    },
    {
      "inputs": [],
      "name": "endMigration",
      "outputs": [
        {
          "internalType": "uint256",
          "name": "",
          "type": "uint256"
        }
      ],
      "stateMutability": "view",
      "type": "function",
      "constant": true
    },
    {
      "inputs": [
        {
          "internalType": "uint256",
          "name": "",
          "type": "uint256"
        },
        {
          "internalType": "uint256",
          "name": "",
          "type": "uint256"
        }
      ],
      "name": "isAirdrop",
      "outputs": [
        {
          "internalType": "bool",
          "name": "",
          "type": "bool"
        }
      ],
      "stateMutability": "view",
      "type": "function",
      "constant": true
    },
    {
      "inputs": [],
      "name": "isMigrationStart",
      "outputs": [
        {
          "internalType": "bool",
          "name": "",
          "type": "bool"
        }
      ],
      "stateMutability": "view",
      "type": "function",
      "constant": true
    },
    {
      "inputs": [
        {
          "internalType": "address",
          "name": "",
          "type": "address"
        }
      ],
      "name": "isOwner",
      "outputs": [
        {
          "internalType": "bool",
          "name": "",
          "type": "bool"
        }
      ],
      "stateMutability": "view",
      "type": "function",
      "constant": true
    },
    {
      "inputs": [],
      "name": "migrateIndex",
      "outputs": [
        {
          "internalType": "uint256",
          "name": "",
          "type": "uint256"
        }
      ],
      "stateMutability": "view",
      "type": "function",
      "constant": true
    },
    {
      "inputs": [
        {
          "internalType": "uint256",
          "name": "",
          "type": "uint256"
        }
      ],
      "name": "migration",
      "outputs": [
        {
          "internalType": "uint256",
          "name": "migrateIndex",
          "type": "uint256"
        },
        {
          "internalType": "address",
          "name": "migrator",
          "type": "address"
        },
        {
          "internalType": "address",
          "name": "to",
          "type": "address"
        },
        {
          "internalType": "uint256",
          "name": "migrateBalance",
          "type": "uint256"
        }
      ],
      "stateMutability": "view",
      "type": "function",
      "constant": true
    },
    {
      "inputs": [],
      "name": "name",
      "outputs": [
        {
          "internalType": "string",
          "name": "",
          "type": "string"
        }
      ],
      "stateMutability": "view",
      "type": "function",
      "constant": true
    },
    {
      "inputs": [],
      "name": "npxsxemToken",
      "outputs": [
        {
          "internalType": "address",
          "name": "",
          "type": "address"
        }
      ],
      "stateMutability": "view",
      "type": "function",
      "constant": true
    },
    {
      "inputs": [],
      "name": "owner",
      "outputs": [
        {
          "internalType": "address",
          "name": "",
          "type": "address"
        }
      ],
      "stateMutability": "view",
      "type": "function",
      "constant": true
    },
    {
      "inputs": [],
      "name": "purseToken",
      "outputs": [
        {
          "internalType": "contract PurseTokenUpgradable",
          "name": "",
          "type": "address"
        }
      ],
      "stateMutability": "view",
      "type": "function",
      "constant": true
    },
    {
      "inputs": [],
      "name": "validDuration",
      "outputs": [
        {
          "internalType": "uint256",
          "name": "",
          "type": "uint256"
        }
      ],
      "stateMutability": "view",
      "type": "function",
      "constant": true
    },
    {
      "inputs": [
        {
          "internalType": "address",
          "name": "_to",
          "type": "address"
        },
        {
          "internalType": "uint256",
          "name": "_amount",
          "type": "uint256"
        }
      ],
      "name": "migrateNPXSXEM",
      "outputs": [],
      "stateMutability": "nonpayable",
      "type": "function"
    },
    {
      "inputs": [
        {
          "internalType": "bool",
          "name": "check",
          "type": "bool"
        }
      ],
      "name": "startMigration",
      "outputs": [],
      "stateMutability": "nonpayable",
      "type": "function"
    },
    {
      "inputs": [
        {
          "internalType": "uint256",
          "name": "start",
          "type": "uint256"
        },
        {
          "internalType": "uint256",
          "name": "end",
          "type": "uint256"
        },
        {
          "internalType": "uint256",
          "name": "airdropIndex",
          "type": "uint256"
        }
      ],
      "name": "airDrop",
      "outputs": [],
      "stateMutability": "nonpayable",
      "type": "function"
    },
    {
      "inputs": [
        {
          "internalType": "address",
          "name": "_to",
          "type": "address"
        }
      ],
      "name": "returnPurseToken",
      "outputs": [],
      "stateMutability": "nonpayable",
      "type": "function"
    },
    {
      "inputs": [
        {
          "internalType": "address",
          "name": "token",
          "type": "address"
        },
        {
          "internalType": "uint256",
          "name": "amount",
          "type": "uint256"
        },
        {
          "internalType": "address",
          "name": "_to",
          "type": "address"
        }
      ],
      "name": "returnAnyToken",
      "outputs": [],
      "stateMutability": "nonpayable",
      "type": "function"
    },
    {
      "inputs": [
        {
          "internalType": "address",
          "name": "_owner",
          "type": "address"
        }
      ],
      "name": "updateOwner",
      "outputs": [],
      "stateMutability": "nonpayable",
      "type": "function"
    }
  ],
  "bytecode": "0x60806040526040518060400160405280601181526020017f4e50585358454d204d6967726174696f6e0000000000000000000000000000008152506000908051906020019062000051929190620001af565b503480156200005f57600080fd5b50604051620020e7380380620020e783398181016040528101906200008591906200028d565b6001600860003373ffffffffffffffffffffffffffffffffffffffff1673ffffffffffffffffffffffffffffffffffffffff16815260200190815260200160002060006101000a81548160ff02191690831515021790555033600560006101000a81548173ffffffffffffffffffffffffffffffffffffffff021916908373ffffffffffffffffffffffffffffffffffffffff16021790555081600160006101000a81548173ffffffffffffffffffffffffffffffffffffffff021916908373ffffffffffffffffffffffffffffffffffffffff16021790555080600260006101000a81548173ffffffffffffffffffffffffffffffffffffffff021916908373ffffffffffffffffffffffffffffffffffffffff160217905550426003819055505050620003ba565b828054620001bd906200031c565b90600052602060002090601f016020900481019282620001e157600085556200022d565b82601f10620001fc57805160ff19168380011785556200022d565b828001600101855582156200022d579182015b828111156200022c5782518255916020019190600101906200020f565b5b5090506200023c919062000240565b5090565b5b808211156200025b57600081600090555060010162000241565b5090565b600081519050620002708162000386565b92915050565b6000815190506200028781620003a0565b92915050565b60008060408385031215620002a757620002a662000381565b5b6000620002b7858286016200025f565b9250506020620002ca8582860162000276565b9150509250929050565b6000620002e182620002fc565b9050919050565b6000620002f582620002d4565b9050919050565b600073ffffffffffffffffffffffffffffffffffffffff82169050919050565b600060028204905060018216806200033557607f821691505b602082108114156200034c576200034b62000352565b5b50919050565b7f4e487b7100000000000000000000000000000000000000000000000000000000600052602260045260246000fd5b600080fd5b6200039181620002d4565b81146200039d57600080fd5b50565b620003ab81620002e8565b8114620003b757600080fd5b50565b611d1d80620003ca6000396000f3fe608060405234801561001057600080fd5b506004361061010b5760003560e01c8063880cdc31116100a2578063c237e32611610071578063c237e32614610298578063e640d862146102b4578063f09de43f146102e7578063f393972314610303578063fee9866c1461031f5761010b565b8063880cdc31146102105780638da5cb5b1461022c578063a286f8e11461024a578063b2d374701461027a5761010b565b80632f54bf6e116100de5780632f54bf6e1461018857806351bf16ef146101b857806359f77296146101d65780636c525d04146101f25761010b565b806306fdde03146101105780630713f1b61461012e578063244828581461014c5780632948ff411461016a575b600080fd5b61011861033b565b60405161012591906117b0565b60405180910390f35b6101366103c9565b604051610143919061177a565b60405180910390f35b6101546103dc565b60405161016191906116ff565b60405180910390f35b610172610402565b60405161017f9190611872565b60405180910390f35b6101a2600480360381019061019d91906113d4565b610409565b6040516101af919061177a565b60405180910390f35b6101c0610429565b6040516101cd9190611795565b60405180910390f35b6101f060048036038101906101eb9190611494565b61044f565b005b6101fa610535565b6040516102079190611872565b60405180910390f35b61022a600480360381019061022591906113d4565b61053b565b005b610234610764565b60405161024191906116ff565b60405180910390f35b610264600480360381019061025f9190611548565b61078a565b604051610271919061177a565b60405180910390f35b6102826107b9565b60405161028f9190611872565b60405180910390f35b6102b260048036038101906102ad9190611441565b6107bf565b005b6102ce60048036038101906102c991906114ee565b61094e565b6040516102de949392919061188d565b60405180910390f35b61030160048036038101906102fc91906113d4565b6109be565b005b61031d60048036038101906103189190611401565b610c1d565b005b61033960048036038101906103349190611588565b6110a6565b005b6000805461034890611ab7565b80601f016020809104026020016040519081016040528092919081815260200182805461037490611ab7565b80156103c15780601f10610396576101008083540402835291602001916103c1565b820191906000526020600020905b8154815290600101906020018083116103a457829003601f168201915b505050505081565b600560149054906101000a900460ff1681565b600160009054906101000a900473ffffffffffffffffffffffffffffffffffffffff1681565b6277f88081565b60086020528060005260406000206000915054906101000a900460ff1681565b600260009054906101000a900473ffffffffffffffffffffffffffffffffffffffff1681565b600860003373ffffffffffffffffffffffffffffffffffffffff1673ffffffffffffffffffffffffffffffffffffffff16815260200190815260200160002060009054906101000a900460ff166104db576040517f08c379a00000000000000000000000000000000000000000000000000000000081526004016104d290611852565b60405180910390fd5b8015610516576277f880426104f09190611925565b6004819055506001600560146101000a81548160ff021916908315150217905550610532565b6000600560146101000a81548160ff0219169083151502179055505b50565b60045481565b600860003373ffffffffffffffffffffffffffffffffffffffff1673ffffffffffffffffffffffffffffffffffffffff16815260200190815260200160002060009054906101000a900460ff166105c7576040517f08c379a00000000000000000000000000000000000000000000000000000000081526004016105be90611852565b60405180910390fd5b600073ffffffffffffffffffffffffffffffffffffffff168173ffffffffffffffffffffffffffffffffffffffff161415610637576040517f08c379a000000000000000000000000000000000000000000000000000000000815260040161062e906117f2565b60405180910390fd5b600560009054906101000a900473ffffffffffffffffffffffffffffffffffffffff1673ffffffffffffffffffffffffffffffffffffffff168173ffffffffffffffffffffffffffffffffffffffff1614156106c8576040517f08c379a00000000000000000000000000000000000000000000000000000000081526004016106bf906117d2565b60405180910390fd5b6001600860008373ffffffffffffffffffffffffffffffffffffffff1673ffffffffffffffffffffffffffffffffffffffff16815260200190815260200160002060006101000a81548160ff02191690831515021790555080600560006101000a81548173ffffffffffffffffffffffffffffffffffffffff021916908373ffffffffffffffffffffffffffffffffffffffff16021790555050565b600560009054906101000a900473ffffffffffffffffffffffffffffffffffffffff1681565b60096020528160005260406000206020528060005260406000206000915091509054906101000a900460ff1681565b60065481565b600860003373ffffffffffffffffffffffffffffffffffffffff1673ffffffffffffffffffffffffffffffffffffffff16815260200190815260200160002060009054906101000a900460ff1661084b576040517f08c379a000000000000000000000000000000000000000000000000000000000815260040161084290611852565b60405180910390fd5b600073ffffffffffffffffffffffffffffffffffffffff168173ffffffffffffffffffffffffffffffffffffffff1614156108bb576040517f08c379a00000000000000000000000000000000000000000000000000000000081526004016108b290611812565b60405180910390fd5b8273ffffffffffffffffffffffffffffffffffffffff1663a9059cbb82846040518363ffffffff1660e01b81526004016108f6929190611751565b602060405180830381600087803b15801561091057600080fd5b505af1158015610924573d6000803e3d6000fd5b505050506040513d601f19601f8201168201806040525081019061094891906114c1565b50505050565b60076020528060005260406000206000915090508060000154908060010160009054906101000a900473ffffffffffffffffffffffffffffffffffffffff16908060020160009054906101000a900473ffffffffffffffffffffffffffffffffffffffff16908060030154905084565b600860003373ffffffffffffffffffffffffffffffffffffffff1673ffffffffffffffffffffffffffffffffffffffff16815260200190815260200160002060009054906101000a900460ff16610a4a576040517f08c379a0000000000000000000000000000000000000000000000000000000008152600401610a4190611852565b60405180910390fd5b600073ffffffffffffffffffffffffffffffffffffffff168173ffffffffffffffffffffffffffffffffffffffff161415610aba576040517f08c379a0000000000000000000000000000000000000000000000000000000008152600401610ab190611812565b60405180910390fd5b6000600260009054906101000a900473ffffffffffffffffffffffffffffffffffffffff1673ffffffffffffffffffffffffffffffffffffffff166370a08231306040518263ffffffff1660e01b8152600401610b1791906116ff565b60206040518083038186803b158015610b2f57600080fd5b505afa158015610b43573d6000803e3d6000fd5b505050506040513d601f19601f82011682018060405250810190610b67919061151b565b9050600260009054906101000a900473ffffffffffffffffffffffffffffffffffffffff1673ffffffffffffffffffffffffffffffffffffffff1663a9059cbb83836040518363ffffffff1660e01b8152600401610bc6929190611751565b602060405180830381600087803b158015610be057600080fd5b505af1158015610bf4573d6000803e3d6000fd5b505050506040513d601f19601f82011682018060405250810190610c1891906114c1565b505050565b60011515600560149054906101000a900460ff16151514610c3d57600080fd5b6000600260009054906101000a900473ffffffffffffffffffffffffffffffffffffffff1673ffffffffffffffffffffffffffffffffffffffff166370a08231306040518263ffffffff1660e01b8152600401610c9a91906116ff565b60206040518083038186803b158015610cb257600080fd5b505afa158015610cc6573d6000803e3d6000fd5b505050506040513d601f19601f82011682018060405250810190610cea919061151b565b9050600454421115610d31576040517f08c379a0000000000000000000000000000000000000000000000000000000008152600401610d2890611832565b60405180910390fd5b60008211610d3e57600080fd5b81811015610d4b57600080fd5b60006064600c84610d5c91906119ac565b610d66919061197b565b9050600160009054906101000a900473ffffffffffffffffffffffffffffffffffffffff1673ffffffffffffffffffffffffffffffffffffffff166323b872dd3330866040518463ffffffff1660e01b8152600401610dc79392919061171a565b602060405180830381600087803b158015610de157600080fd5b505af1158015610df5573d6000803e3d6000fd5b505050506040513d601f19601f82011682018060405250810190610e1991906114c1565b50604051806080016040528060065481526020013373ffffffffffffffffffffffffffffffffffffffff1681526020018573ffffffffffffffffffffffffffffffffffffffff168152602001848152506007600060065481526020019081526020016000206000820151816000015560208201518160010160006101000a81548173ffffffffffffffffffffffffffffffffffffffff021916908373ffffffffffffffffffffffffffffffffffffffff16021790555060408201518160020160006101000a81548173ffffffffffffffffffffffffffffffffffffffff021916908373ffffffffffffffffffffffffffffffffffffffff1602179055506060820151816003015590505060005b600b811015610f81576000600960006006548152602001908152602001600020600083815260200190815260200160002060006101000a81548160ff0219169083151502179055508080610f7990611ae9565b915050610f26565b50600260009054906101000a900473ffffffffffffffffffffffffffffffffffffffff1673ffffffffffffffffffffffffffffffffffffffff1663a9059cbb85836040518363ffffffff1660e01b8152600401610fdf929190611751565b602060405180830381600087803b158015610ff957600080fd5b505af115801561100d573d6000803e3d6000fd5b505050506040513d601f19601f8201168201806040525081019061103191906114c1565b503373ffffffffffffffffffffffffffffffffffffffff167f53a871c29c111546fa4a56d438d4db74ce48762942459053889518f7f573309e600654868660405161107e939291906118d2565b60405180910390a26001600660008282546110999190611925565b9250508190555050505050565b600860003373ffffffffffffffffffffffffffffffffffffffff1673ffffffffffffffffffffffffffffffffffffffff16815260200190815260200160002060009054906101000a900460ff16611132576040517f08c379a000000000000000000000000000000000000000000000000000000000815260040161112990611852565b60405180910390fd5b818310801561114357506006548211155b61114c57600080fd5b600b8110801561115d575060008110155b61116657600080fd5b60008390505b82811015611365576000151560096000838152602001908152602001600020600084815260200190815260200160002060009054906101000a900460ff1615151415611352576000151560096000838152602001908152602001600020600084815260200190815260200160002060009054906101000a900460ff161515146111f457600080fd5b60006007600083815260200190815260200160002060020160009054906101000a900473ffffffffffffffffffffffffffffffffffffffff169050600060646008600760008681526020019081526020016000206003015461125691906119ac565b611260919061197b565b9050600160096000858152602001908152602001600020600086815260200190815260200160002060006101000a81548160ff021916908315150217905550600260009054906101000a900473ffffffffffffffffffffffffffffffffffffffff1673ffffffffffffffffffffffffffffffffffffffff1663a9059cbb83836040518363ffffffff1660e01b81526004016112fc929190611751565b602060405180830381600087803b15801561131657600080fd5b505af115801561132a573d6000803e3d6000fd5b505050506040513d601f19601f8201168201806040525081019061134e91906114c1565b5050505b808061135d90611ae9565b91505061116c565b50505050565b60008135905061137a81611ca2565b92915050565b60008135905061138f81611cb9565b92915050565b6000815190506113a481611cb9565b92915050565b6000813590506113b981611cd0565b92915050565b6000815190506113ce81611cd0565b92915050565b6000602082840312156113ea576113e9611bbf565b5b60006113f88482850161136b565b91505092915050565b6000806040838503121561141857611417611bbf565b5b60006114268582860161136b565b9250506020611437858286016113aa565b9150509250929050565b60008060006060848603121561145a57611459611bbf565b5b60006114688682870161136b565b9350506020611479868287016113aa565b925050604061148a8682870161136b565b9150509250925092565b6000602082840312156114aa576114a9611bbf565b5b60006114b884828501611380565b91505092915050565b6000602082840312156114d7576114d6611bbf565b5b60006114e584828501611395565b91505092915050565b60006020828403121561150457611503611bbf565b5b6000611512848285016113aa565b91505092915050565b60006020828403121561153157611530611bbf565b5b600061153f848285016113bf565b91505092915050565b6000806040838503121561155f5761155e611bbf565b5b600061156d858286016113aa565b925050602061157e858286016113aa565b9150509250929050565b6000806000606084860312156115a1576115a0611bbf565b5b60006115af868287016113aa565b93505060206115c0868287016113aa565b92505060406115d1868287016113aa565b9150509250925092565b6115e481611a06565b82525050565b6115f381611a18565b82525050565b61160281611a4e565b82525050565b600061161382611909565b61161d8185611914565b935061162d818560208601611a84565b61163681611bc4565b840191505092915050565b600061164e601283611914565b915061165982611bd5565b602082019050919050565b6000611671601183611914565b915061167c82611bfe565b602082019050919050565b6000611694601883611914565b915061169f82611c27565b602082019050919050565b60006116b7601583611914565b91506116c282611c50565b602082019050919050565b60006116da600983611914565b91506116e582611c79565b602082019050919050565b6116f981611a44565b82525050565b600060208201905061171460008301846115db565b92915050565b600060608201905061172f60008301866115db565b61173c60208301856115db565b61174960408301846116f0565b949350505050565b600060408201905061176660008301856115db565b61177360208301846116f0565b9392505050565b600060208201905061178f60008301846115ea565b92915050565b60006020820190506117aa60008301846115f9565b92915050565b600060208201905081810360008301526117ca8184611608565b905092915050565b600060208201905081810360008301526117eb81611641565b9050919050565b6000602082019050818103600083015261180b81611664565b9050919050565b6000602082019050818103600083015261182b81611687565b9050919050565b6000602082019050818103600083015261184b816116aa565b9050919050565b6000602082019050818103600083015261186b816116cd565b9050919050565b600060208201905061188760008301846116f0565b92915050565b60006080820190506118a260008301876116f0565b6118af60208301866115db565b6118bc60408301856115db565b6118c960608301846116f0565b95945050505050565b60006060820190506118e760008301866116f0565b6118f460208301856115db565b61190160408301846116f0565b949350505050565b600081519050919050565b600082825260208201905092915050565b600061193082611a44565b915061193b83611a44565b9250827fffffffffffffffffffffffffffffffffffffffffffffffffffffffffffffffff038211156119705761196f611b32565b5b828201905092915050565b600061198682611a44565b915061199183611a44565b9250826119a1576119a0611b61565b5b828204905092915050565b60006119b782611a44565b91506119c283611a44565b9250817fffffffffffffffffffffffffffffffffffffffffffffffffffffffffffffffff04831182151516156119fb576119fa611b32565b5b828202905092915050565b6000611a1182611a24565b9050919050565b60008115159050919050565b600073ffffffffffffffffffffffffffffffffffffffff82169050919050565b6000819050919050565b6000611a5982611a60565b9050919050565b6000611a6b82611a72565b9050919050565b6000611a7d82611a24565b9050919050565b60005b83811015611aa2578082015181840152602081019050611a87565b83811115611ab1576000848401525b50505050565b60006002820490506001821680611acf57607f821691505b60208210811415611ae357611ae2611b90565b5b50919050565b6000611af482611a44565b91507fffffffffffffffffffffffffffffffffffffffffffffffffffffffffffffffff821415611b2757611b26611b32565b5b600182019050919050565b7f4e487b7100000000000000000000000000000000000000000000000000000000600052601160045260246000fd5b7f4e487b7100000000000000000000000000000000000000000000000000000000600052601260045260246000fd5b7f4e487b7100000000000000000000000000000000000000000000000000000000600052602260045260246000fd5b600080fd5b6000601f19601f8301169050919050565b7f73616d65206f776e657220616464726573730000000000000000000000000000600082015250565b7f6e6f742076616c69642061646472657373000000000000000000000000000000600082015250565b7f73656e6420746f20746865207a65726f20616464726573730000000000000000600082015250565b7f4d6967726174696f6e2077696e646f77206f7665720000000000000000000000600082015250565b7f6e6f74206f776e65720000000000000000000000000000000000000000000000600082015250565b611cab81611a06565b8114611cb657600080fd5b50565b611cc281611a18565b8114611ccd57600080fd5b50565b611cd981611a44565b8114611ce457600080fd5b5056fea2646970667358221220ed1c9ffdb566eca52df1153481e1bd02b8c4ad8d45035c93de4052c33c111efb64736f6c63430008070033",
  "immutableReferences": {},
  "source": "// SPDX-License-Identifier: UNLICENSED\r\n\r\npragma solidity ^0.8.0;\r\n\r\nimport \"./PurseTokenUpgradable.sol\";\r\n\r\n\r\ncontract NPXSXEMigration {\r\n    event Migrate (uint256 migrateIndex, address indexed _from, address _to,  uint256 value);\r\n\r\n    string public name = \"NPXSXEM Migration\";\r\n    address public npxsxemToken;\r\n    PurseTokenUpgradable public purseToken;\r\n    uint256 public constant validDuration = 91 days;\r\n    uint256 internal migrationStart;\r\n    uint256 public endMigration;\r\n    address public owner;\r\n    bool public isMigrationStart;\r\n\r\n    uint256 public migrateIndex;\r\n    mapping(uint256 => MigratorInfo) public migration;  //index->times   \r\n    mapping(address => bool) public isOwner;\r\n    mapping(uint256 => mapping(uint256 => bool)) public isAirdrop;\r\n\r\n    struct MigratorInfo {\r\n        uint256 migrateIndex;\r\n        address migrator;\r\n        address to;\r\n        uint256 migrateBalance;\r\n    }\r\n\r\n    modifier onlyOwner() {\r\n        require(isOwner[msg.sender], \"not owner\");\r\n        _;\r\n    }\r\n\r\n    constructor(address _npxsxemToken, PurseTokenUpgradable _purseToken) {\r\n        isOwner[msg.sender] = true;\r\n        owner = msg.sender;\r\n        npxsxemToken = _npxsxemToken;\r\n        purseToken = _purseToken;\r\n        migrationStart = block.timestamp;\r\n    }\r\n\r\n    function migrateNPXSXEM(address _to, uint256 _amount) public {    \r\n        require (isMigrationStart == true);\r\n        uint256 remainingAmount = purseToken.balanceOf(address(this)); \r\n        require(block.timestamp <= endMigration, \"Migration window over\");\r\n        require(_amount > 0);\r\n        require(remainingAmount >=_amount);\r\n\r\n        uint256 transferAmount = (_amount * 12) / 100;\r\n        ERC20Interface(npxsxemToken).transferFrom(msg.sender, address(this), _amount);\r\n        // npxsxemToken.transferFrom(msg.sender, address(this), _amount);      // Migrate npxsxem token   \r\n\r\n        migration[migrateIndex] = MigratorInfo(migrateIndex, msg.sender, _to, _amount);\r\n        for (uint256 i = 0; i < 11; i++) {\r\n            isAirdrop[migrateIndex][i] = false;\r\n        }\r\n        purseToken.transfer(_to, transferAmount);\r\n\r\n        emit Migrate(migrateIndex, msg.sender, _to, _amount);\r\n        migrateIndex += 1;\r\n    }\r\n    \r\n    function startMigration(bool check) public onlyOwner {\r\n        if (check) {\r\n            endMigration = block.timestamp + validDuration;\r\n            isMigrationStart = true;\r\n        } else {\r\n            isMigrationStart = false;\r\n        }\r\n    }\r\n\r\n    function airDrop(uint256 start, uint256 end, uint256 airdropIndex) public onlyOwner {\r\n        require(start < end && end <= migrateIndex );\r\n        require(airdropIndex < 11 && airdropIndex >= 0) ;\r\n        for (uint256 i = start; i < end; i++) {\r\n            if (isAirdrop[i][airdropIndex] == false) {\r\n                require(isAirdrop[i][airdropIndex] == false);\r\n                address recipient = migration[i].to;\r\n                uint256 amount = migration[i].migrateBalance * 8 / 100;\r\n                isAirdrop[i][airdropIndex] = true;\r\n                purseToken.transfer(recipient, amount);                \r\n            }\r\n        }\r\n    }\r\n\r\n    function returnPurseToken(address _to) public onlyOwner {\r\n        require(_to != address(0), \"send to the zero address\");\r\n        uint256 remainingAmount = purseToken.balanceOf(address(this));\r\n        purseToken.transfer(_to, remainingAmount);\r\n    }\r\n    \r\n    function returnAnyToken(address token, uint256 amount, address _to) public onlyOwner {\r\n        require(_to != address(0), \"send to the zero address\");\r\n        ERC20Interface(token).transfer(_to, amount);\r\n    }\r\n\r\n    function updateOwner(address _owner) public onlyOwner{\r\n        require(_owner != address(0), \"not valid address\");\r\n        require(_owner != owner, \"same owner address\");\r\n        isOwner[_owner] = true;\r\n        owner = _owner;\r\n    } \r\n}\r\n",
  "sourcePath": "C:/Users/cheek/Desktop/Developer doc/Visual Studio Code/PundiX/YieldFarm_BridgeEthBsc/src/contracts/NPXSXEMigration.sol",
  "compiler": {
    "name": "solc",
    "version": "0.8.7+commit.e28d00a7.Emscripten.clang"
  },
  "schemaVersion": "3.2.3",
  "updatedAt": "2021-09-18T02:26:37.933Z",
  "networkType": "ethereum",
  "devdoc": {
    "kind": "dev",
    "methods": {},
    "version": 1
  },
  "userdoc": {
    "kind": "user",
    "methods": {},
    "version": 1
  }
}