{
  "contractName": "NPXSXEMigration",
  "abi": [
    {
      "inputs": [
        {
          "internalType": "address",
          "name": "_npxsxemToken",
          "type": "address"
        },
        {
          "internalType": "contract PurseTokenUpgradable",
          "name": "_purseToken",
          "type": "address"
        }
      ],
      "stateMutability": "nonpayable",
      "type": "constructor"
    },
    {
      "anonymous": false,
      "inputs": [
        {
          "indexed": false,
          "internalType": "uint32",
          "name": "migrateIndex",
          "type": "uint32"
        },
        {
          "indexed": true,
          "internalType": "address",
          "name": "_from",
          "type": "address"
        },
        {
          "indexed": false,
          "internalType": "address",
          "name": "_to",
          "type": "address"
        },
        {
          "indexed": false,
          "internalType": "uint256",
          "name": "value",
          "type": "uint256"
        }
      ],
      "name": "Migrate",
      "type": "event"
    },
    {
      "inputs": [
        {
          "internalType": "address",
          "name": "",
          "type": "address"
        }
      ],
      "name": "isOwner",
      "outputs": [
        {
          "internalType": "bool",
          "name": "",
          "type": "bool"
        }
      ],
      "stateMutability": "view",
      "type": "function",
      "constant": true
    },
    {
      "inputs": [],
      "name": "migrateIndex",
      "outputs": [
        {
          "internalType": "uint32",
          "name": "",
          "type": "uint32"
        }
      ],
      "stateMutability": "view",
      "type": "function",
      "constant": true
    },
    {
      "inputs": [
        {
          "internalType": "uint32",
          "name": "",
          "type": "uint32"
        }
      ],
      "name": "migration",
      "outputs": [
        {
          "internalType": "uint32",
          "name": "migrateIndex",
          "type": "uint32"
        },
        {
          "internalType": "address",
          "name": "migrator",
          "type": "address"
        },
        {
          "internalType": "address",
          "name": "to",
          "type": "address"
        },
        {
          "internalType": "uint256",
          "name": "migrateBalance",
          "type": "uint256"
        }
      ],
      "stateMutability": "view",
      "type": "function",
      "constant": true
    },
    {
      "inputs": [],
      "name": "name",
      "outputs": [
        {
          "internalType": "string",
          "name": "",
          "type": "string"
        }
      ],
      "stateMutability": "view",
      "type": "function",
      "constant": true
    },
    {
      "inputs": [],
      "name": "npxsxemToken",
      "outputs": [
        {
          "internalType": "address",
          "name": "",
          "type": "address"
        }
      ],
      "stateMutability": "view",
      "type": "function",
      "constant": true
    },
    {
      "inputs": [],
      "name": "owner",
      "outputs": [
        {
          "internalType": "address",
          "name": "",
          "type": "address"
        }
      ],
      "stateMutability": "view",
      "type": "function",
      "constant": true
    },
    {
      "inputs": [],
      "name": "purseToken",
      "outputs": [
        {
          "internalType": "contract PurseTokenUpgradable",
          "name": "",
          "type": "address"
        }
      ],
      "stateMutability": "view",
      "type": "function",
      "constant": true
    },
    {
      "inputs": [],
      "name": "validDuration",
      "outputs": [
        {
          "internalType": "uint256",
          "name": "",
          "type": "uint256"
        }
      ],
      "stateMutability": "view",
      "type": "function",
      "constant": true
    },
    {
      "inputs": [
        {
          "internalType": "address",
          "name": "_to",
          "type": "address"
        },
        {
          "internalType": "uint256",
          "name": "_amount",
          "type": "uint256"
        }
      ],
      "name": "migrateNPXSXEM",
      "outputs": [],
      "stateMutability": "nonpayable",
      "type": "function"
    },
    {
      "inputs": [
        {
          "internalType": "uint32",
          "name": "start",
          "type": "uint32"
        },
        {
          "internalType": "uint32",
          "name": "end",
          "type": "uint32"
        }
      ],
      "name": "airDrop",
      "outputs": [],
      "stateMutability": "nonpayable",
      "type": "function"
    },
    {
      "inputs": [
        {
          "internalType": "address",
          "name": "_to",
          "type": "address"
        }
      ],
      "name": "returnPurseToken",
      "outputs": [],
      "stateMutability": "nonpayable",
      "type": "function"
    },
    {
      "inputs": [
        {
          "internalType": "address",
          "name": "token",
          "type": "address"
        },
        {
          "internalType": "uint256",
          "name": "amount",
          "type": "uint256"
        },
        {
          "internalType": "address",
          "name": "_to",
          "type": "address"
        }
      ],
      "name": "returnAnyToken",
      "outputs": [],
      "stateMutability": "nonpayable",
      "type": "function"
    },
    {
      "inputs": [
        {
          "internalType": "address",
          "name": "_owner",
          "type": "address"
        }
      ],
      "name": "updateOwner",
      "outputs": [],
      "stateMutability": "nonpayable",
      "type": "function"
    }
  ],
  "bytecode": "0x60806040526040518060400160405280601181526020017f4e50585358454d204d6967726174696f6e0000000000000000000000000000008152506000908051906020019062000051929190620001af565b503480156200005f57600080fd5b5060405162001e4e38038062001e4e83398181016040528101906200008591906200028d565b6001600660003373ffffffffffffffffffffffffffffffffffffffff1673ffffffffffffffffffffffffffffffffffffffff16815260200190815260200160002060006101000a81548160ff02191690831515021790555033600460006101000a81548173ffffffffffffffffffffffffffffffffffffffff021916908373ffffffffffffffffffffffffffffffffffffffff16021790555081600160006101000a81548173ffffffffffffffffffffffffffffffffffffffff021916908373ffffffffffffffffffffffffffffffffffffffff16021790555080600260006101000a81548173ffffffffffffffffffffffffffffffffffffffff021916908373ffffffffffffffffffffffffffffffffffffffff160217905550426003819055505050620003ba565b828054620001bd906200031c565b90600052602060002090601f016020900481019282620001e157600085556200022d565b82601f10620001fc57805160ff19168380011785556200022d565b828001600101855582156200022d579182015b828111156200022c5782518255916020019190600101906200020f565b5b5090506200023c919062000240565b5090565b5b808211156200025b57600081600090555060010162000241565b5090565b600081519050620002708162000386565b92915050565b6000815190506200028781620003a0565b92915050565b60008060408385031215620002a757620002a662000381565b5b6000620002b7858286016200025f565b9250506020620002ca8582860162000276565b9150509250929050565b6000620002e182620002fc565b9050919050565b6000620002f582620002d4565b9050919050565b600073ffffffffffffffffffffffffffffffffffffffff82169050919050565b600060028204905060018216806200033557607f821691505b602082108114156200034c576200034b62000352565b5b50919050565b7f4e487b7100000000000000000000000000000000000000000000000000000000600052602260045260246000fd5b600080fd5b6200039181620002d4565b81146200039d57600080fd5b50565b620003ab81620002e8565b8114620003b757600080fd5b50565b611a8480620003ca6000396000f3fe608060405234801561001057600080fd5b50600436106100cf5760003560e01c80638b4d8e0d1161008c578063c237e32611610066578063c237e326146101f0578063d4279ded1461020c578063f09de43f1461023f578063f39397231461025b576100cf565b80638b4d8e0d146101985780638da5cb5b146101b4578063b2d37470146101d2576100cf565b806306fdde03146100d457806324482858146100f25780632948ff41146101105780632f54bf6e1461012e57806351bf16ef1461015e578063880cdc311461017c575b600080fd5b6100dc610277565b6040516100e991906114b7565b60405180910390f35b6100fa610305565b6040516101079190611406565b60405180910390f35b61011861032b565b6040516101259190611579565b60405180910390f35b6101486004803603810190610143919061114c565b610332565b6040516101559190611481565b60405180910390f35b610166610352565b604051610173919061149c565b60405180910390f35b6101966004803603810190610191919061114c565b610378565b005b6101b260048036038101906101ad9190611293565b6105a1565b005b6101bc610796565b6040516101c99190611406565b60405180910390f35b6101da6107bc565b6040516101e79190611594565b60405180910390f35b61020a600480360381019061020591906111b9565b6107d2565b005b61022660048036038101906102219190611266565b610961565b60405161023694939291906115af565b60405180910390f35b6102596004803603810190610254919061114c565b6109e1565b005b61027560048036038101906102709190611179565b610c40565b005b6000805461028490611823565b80601f01602080910402602001604051908101604052809291908181526020018280546102b090611823565b80156102fd5780601f106102d2576101008083540402835291602001916102fd565b820191906000526020600020905b8154815290600101906020018083116102e057829003601f168201915b505050505081565b600160009054906101000a900473ffffffffffffffffffffffffffffffffffffffff1681565b6277f88081565b60066020528060005260406000206000915054906101000a900460ff1681565b600260009054906101000a900473ffffffffffffffffffffffffffffffffffffffff1681565b600660003373ffffffffffffffffffffffffffffffffffffffff1673ffffffffffffffffffffffffffffffffffffffff16815260200190815260200160002060009054906101000a900460ff16610404576040517f08c379a00000000000000000000000000000000000000000000000000000000081526004016103fb90611559565b60405180910390fd5b600073ffffffffffffffffffffffffffffffffffffffff168173ffffffffffffffffffffffffffffffffffffffff161415610474576040517f08c379a000000000000000000000000000000000000000000000000000000000815260040161046b906114f9565b60405180910390fd5b600460009054906101000a900473ffffffffffffffffffffffffffffffffffffffff1673ffffffffffffffffffffffffffffffffffffffff168173ffffffffffffffffffffffffffffffffffffffff161415610505576040517f08c379a00000000000000000000000000000000000000000000000000000000081526004016104fc906114d9565b60405180910390fd5b6001600660008373ffffffffffffffffffffffffffffffffffffffff1673ffffffffffffffffffffffffffffffffffffffff16815260200190815260200160002060006101000a81548160ff02191690831515021790555080600460006101000a81548173ffffffffffffffffffffffffffffffffffffffff021916908373ffffffffffffffffffffffffffffffffffffffff16021790555050565b600660003373ffffffffffffffffffffffffffffffffffffffff1673ffffffffffffffffffffffffffffffffffffffff16815260200190815260200160002060009054906101000a900460ff1661062d576040517f08c379a000000000000000000000000000000000000000000000000000000000815260040161062490611559565b60405180910390fd5b60008290505b8163ffffffff168163ffffffff1611610791576000600560008363ffffffff1663ffffffff16815260200190815260200160002060010160009054906101000a900473ffffffffffffffffffffffffffffffffffffffff169050600060646008600560008663ffffffff1663ffffffff168152602001908152602001600020600201546106c09190611708565b6106ca91906116d7565b9050600260009054906101000a900473ffffffffffffffffffffffffffffffffffffffff1673ffffffffffffffffffffffffffffffffffffffff1663a9059cbb83836040518363ffffffff1660e01b8152600401610729929190611458565b602060405180830381600087803b15801561074357600080fd5b505af1158015610757573d6000803e3d6000fd5b505050506040513d601f19601f8201168201806040525081019061077b919061120c565b505050808061078990611855565b915050610633565b505050565b600460009054906101000a900473ffffffffffffffffffffffffffffffffffffffff1681565b600460149054906101000a900463ffffffff1681565b600660003373ffffffffffffffffffffffffffffffffffffffff1673ffffffffffffffffffffffffffffffffffffffff16815260200190815260200160002060009054906101000a900460ff1661085e576040517f08c379a000000000000000000000000000000000000000000000000000000000815260040161085590611559565b60405180910390fd5b600073ffffffffffffffffffffffffffffffffffffffff168173ffffffffffffffffffffffffffffffffffffffff1614156108ce576040517f08c379a00000000000000000000000000000000000000000000000000000000081526004016108c590611519565b60405180910390fd5b8273ffffffffffffffffffffffffffffffffffffffff1663a9059cbb82846040518363ffffffff1660e01b8152600401610909929190611458565b602060405180830381600087803b15801561092357600080fd5b505af1158015610937573d6000803e3d6000fd5b505050506040513d601f19601f8201168201806040525081019061095b919061120c565b50505050565b60056020528060005260406000206000915090508060000160009054906101000a900463ffffffff16908060000160049054906101000a900473ffffffffffffffffffffffffffffffffffffffff16908060010160009054906101000a900473ffffffffffffffffffffffffffffffffffffffff16908060020154905084565b600660003373ffffffffffffffffffffffffffffffffffffffff1673ffffffffffffffffffffffffffffffffffffffff16815260200190815260200160002060009054906101000a900460ff16610a6d576040517f08c379a0000000000000000000000000000000000000000000000000000000008152600401610a6490611559565b60405180910390fd5b600073ffffffffffffffffffffffffffffffffffffffff168173ffffffffffffffffffffffffffffffffffffffff161415610add576040517f08c379a0000000000000000000000000000000000000000000000000000000008152600401610ad490611519565b60405180910390fd5b6000600260009054906101000a900473ffffffffffffffffffffffffffffffffffffffff1673ffffffffffffffffffffffffffffffffffffffff166370a08231306040518263ffffffff1660e01b8152600401610b3a9190611406565b60206040518083038186803b158015610b5257600080fd5b505afa158015610b66573d6000803e3d6000fd5b505050506040513d601f19601f82011682018060405250810190610b8a9190611239565b9050600260009054906101000a900473ffffffffffffffffffffffffffffffffffffffff1673ffffffffffffffffffffffffffffffffffffffff1663a9059cbb83836040518363ffffffff1660e01b8152600401610be9929190611458565b602060405180830381600087803b158015610c0357600080fd5b505af1158015610c17573d6000803e3d6000fd5b505050506040513d601f19601f82011682018060405250810190610c3b919061120c565b505050565b6000600260009054906101000a900473ffffffffffffffffffffffffffffffffffffffff1673ffffffffffffffffffffffffffffffffffffffff166370a08231306040518263ffffffff1660e01b8152600401610c9d9190611406565b60206040518083038186803b158015610cb557600080fd5b505afa158015610cc9573d6000803e3d6000fd5b505050506040513d601f19601f82011682018060405250810190610ced9190611239565b905060006277f880600354610d029190611647565b905080421115610d47576040517f08c379a0000000000000000000000000000000000000000000000000000000008152600401610d3e90611539565b60405180910390fd5b60008311610d5457600080fd5b82821015610d6157600080fd5b60006064600c85610d729190611708565b610d7c91906116d7565b9050600160009054906101000a900473ffffffffffffffffffffffffffffffffffffffff1673ffffffffffffffffffffffffffffffffffffffff166323b872dd3330876040518463ffffffff1660e01b8152600401610ddd93929190611421565b602060405180830381600087803b158015610df757600080fd5b505af1158015610e0b573d6000803e3d6000fd5b505050506040513d601f19601f82011682018060405250810190610e2f919061120c565b50600260009054906101000a900473ffffffffffffffffffffffffffffffffffffffff1673ffffffffffffffffffffffffffffffffffffffff1663a9059cbb86836040518363ffffffff1660e01b8152600401610e8d929190611458565b602060405180830381600087803b158015610ea757600080fd5b505af1158015610ebb573d6000803e3d6000fd5b505050506040513d601f19601f82011682018060405250810190610edf919061120c565b506040518060800160405280600460149054906101000a900463ffffffff1663ffffffff1681526020013373ffffffffffffffffffffffffffffffffffffffff1681526020018673ffffffffffffffffffffffffffffffffffffffff1681526020018581525060056000600460149054906101000a900463ffffffff1663ffffffff1663ffffffff16815260200190815260200160002060008201518160000160006101000a81548163ffffffff021916908363ffffffff16021790555060208201518160000160046101000a81548173ffffffffffffffffffffffffffffffffffffffff021916908373ffffffffffffffffffffffffffffffffffffffff16021790555060408201518160010160006101000a81548173ffffffffffffffffffffffffffffffffffffffff021916908373ffffffffffffffffffffffffffffffffffffffff160217905550606082015181600201559050503373ffffffffffffffffffffffffffffffffffffffff167fc987bcbe8875cdfb55cfb90c11b71b7852d0ef2d852fdaade294faad955de3bf600460149054906101000a900463ffffffff168787604051611094939291906115f4565b60405180910390a26001600460148282829054906101000a900463ffffffff166110be919061169d565b92506101000a81548163ffffffff021916908363ffffffff1602179055505050505050565b6000813590506110f2816119f2565b92915050565b60008151905061110781611a09565b92915050565b60008135905061111c81611a20565b92915050565b60008151905061113181611a20565b92915050565b60008135905061114681611a37565b92915050565b6000602082840312156111625761116161190f565b5b6000611170848285016110e3565b91505092915050565b600080604083850312156111905761118f61190f565b5b600061119e858286016110e3565b92505060206111af8582860161110d565b9150509250929050565b6000806000606084860312156111d2576111d161190f565b5b60006111e0868287016110e3565b93505060206111f18682870161110d565b9250506040611202868287016110e3565b9150509250925092565b6000602082840312156112225761122161190f565b5b6000611230848285016110f8565b91505092915050565b60006020828403121561124f5761124e61190f565b5b600061125d84828501611122565b91505092915050565b60006020828403121561127c5761127b61190f565b5b600061128a84828501611137565b91505092915050565b600080604083850312156112aa576112a961190f565b5b60006112b885828601611137565b92505060206112c985828601611137565b9150509250929050565b6112dc81611762565b82525050565b6112eb81611774565b82525050565b6112fa816117ba565b82525050565b600061130b8261162b565b6113158185611636565b93506113258185602086016117f0565b61132e81611914565b840191505092915050565b6000611346601283611636565b915061135182611925565b602082019050919050565b6000611369601183611636565b91506113748261194e565b602082019050919050565b600061138c601883611636565b915061139782611977565b602082019050919050565b60006113af601583611636565b91506113ba826119a0565b602082019050919050565b60006113d2600983611636565b91506113dd826119c9565b602082019050919050565b6113f1816117a0565b82525050565b611400816117aa565b82525050565b600060208201905061141b60008301846112d3565b92915050565b600060608201905061143660008301866112d3565b61144360208301856112d3565b61145060408301846113e8565b949350505050565b600060408201905061146d60008301856112d3565b61147a60208301846113e8565b9392505050565b600060208201905061149660008301846112e2565b92915050565b60006020820190506114b160008301846112f1565b92915050565b600060208201905081810360008301526114d18184611300565b905092915050565b600060208201905081810360008301526114f281611339565b9050919050565b600060208201905081810360008301526115128161135c565b9050919050565b600060208201905081810360008301526115328161137f565b9050919050565b60006020820190508181036000830152611552816113a2565b9050919050565b60006020820190508181036000830152611572816113c5565b9050919050565b600060208201905061158e60008301846113e8565b92915050565b60006020820190506115a960008301846113f7565b92915050565b60006080820190506115c460008301876113f7565b6115d160208301866112d3565b6115de60408301856112d3565b6115eb60608301846113e8565b95945050505050565b600060608201905061160960008301866113f7565b61161660208301856112d3565b61162360408301846113e8565b949350505050565b600081519050919050565b600082825260208201905092915050565b6000611652826117a0565b915061165d836117a0565b9250827fffffffffffffffffffffffffffffffffffffffffffffffffffffffffffffffff0382111561169257611691611882565b5b828201905092915050565b60006116a8826117aa565b91506116b3836117aa565b92508263ffffffff038211156116cc576116cb611882565b5b828201905092915050565b60006116e2826117a0565b91506116ed836117a0565b9250826116fd576116fc6118b1565b5b828204905092915050565b6000611713826117a0565b915061171e836117a0565b9250817fffffffffffffffffffffffffffffffffffffffffffffffffffffffffffffffff048311821515161561175757611756611882565b5b828202905092915050565b600061176d82611780565b9050919050565b60008115159050919050565b600073ffffffffffffffffffffffffffffffffffffffff82169050919050565b6000819050919050565b600063ffffffff82169050919050565b60006117c5826117cc565b9050919050565b60006117d7826117de565b9050919050565b60006117e982611780565b9050919050565b60005b8381101561180e5780820151818401526020810190506117f3565b8381111561181d576000848401525b50505050565b6000600282049050600182168061183b57607f821691505b6020821081141561184f5761184e6118e0565b5b50919050565b6000611860826117aa565b915063ffffffff82141561187757611876611882565b5b600182019050919050565b7f4e487b7100000000000000000000000000000000000000000000000000000000600052601160045260246000fd5b7f4e487b7100000000000000000000000000000000000000000000000000000000600052601260045260246000fd5b7f4e487b7100000000000000000000000000000000000000000000000000000000600052602260045260246000fd5b600080fd5b6000601f19601f8301169050919050565b7f73616d65206f776e657220616464726573730000000000000000000000000000600082015250565b7f6e6f742076616c69642061646472657373000000000000000000000000000000600082015250565b7f73656e6420746f20746865207a65726f20616464726573730000000000000000600082015250565b7f4d6967726174696f6e2077696e646f77206f7665720000000000000000000000600082015250565b7f6e6f74206f776e65720000000000000000000000000000000000000000000000600082015250565b6119fb81611762565b8114611a0657600080fd5b50565b611a1281611774565b8114611a1d57600080fd5b50565b611a29816117a0565b8114611a3457600080fd5b50565b611a40816117aa565b8114611a4b57600080fd5b5056fea2646970667358221220794380a4e6b9a6b68110db9ca40c4d906ee432faeba4eb8d5296a64b1998855a64736f6c63430008070033",
  "immutableReferences": {},
  "source": "// SPDX-License-Identifier: UNLICENSED\r\n\r\npragma solidity ^0.8.0;\r\n\r\nimport \"./PurseTokenUpgradable.sol\";\r\n\r\n\r\ncontract NPXSXEMigration {\r\n    event Migrate (uint32 migrateIndex, address indexed _from, address _to,  uint256 value);\r\n\r\n    string public name = \"NPXSXEM Migration\";\r\n    address public npxsxemToken;\r\n    PurseTokenUpgradable public purseToken;\r\n    uint256 public constant validDuration = 91 days;\r\n    uint256 internal migrationStart;\r\n    address public owner;\r\n\r\n    uint32 public migrateIndex;\r\n    mapping(uint32 => MigratorInfo) public migration;  //index->times   \r\n    mapping(address => bool) public isOwner;    \r\n\r\n    struct MigratorInfo {\r\n        uint32 migrateIndex;\r\n        address migrator;\r\n        address to;\r\n        uint256 migrateBalance;\r\n    }\r\n\r\n    modifier onlyOwner() {\r\n        require(isOwner[msg.sender], \"not owner\");\r\n        _;\r\n    }\r\n\r\n    constructor(address _npxsxemToken, PurseTokenUpgradable _purseToken) {\r\n        isOwner[msg.sender] = true;\r\n        owner = msg.sender;\r\n        npxsxemToken = _npxsxemToken;\r\n        purseToken = _purseToken;\r\n        migrationStart = block.timestamp;\r\n    }\r\n\r\n    function migrateNPXSXEM(address _to, uint256 _amount) public {     \r\n        uint256 remainingAmount = purseToken.balanceOf(address(this)); \r\n        uint256 end = migrationStart + validDuration;\r\n        require(block.timestamp <= end, \"Migration window over\");\r\n        require(_amount > 0);\r\n        require(remainingAmount >=_amount);\r\n\r\n        uint256 transferAmount = (_amount * 12) / 100;\r\n        ERC20Interface(npxsxemToken).transferFrom(msg.sender, address(this), _amount);\r\n        // npxsxemToken.transferFrom(msg.sender, address(this), _amount);      // Migrate npxsxem token   \r\n        purseToken.transfer(_to, transferAmount);\r\n        migration[migrateIndex] = MigratorInfo(migrateIndex, msg.sender, _to, _amount );\r\n        \r\n        emit Migrate(migrateIndex, msg.sender, _to, _amount);\r\n        migrateIndex += 1;\r\n    }\r\n\r\n    function airDrop(uint32 start, uint32 end) public onlyOwner {\r\n        for (uint32 i = start; i <= end; i++) {\r\n            address recipient = migration[i].to;\r\n            uint256 amount = migration[i].migrateBalance * 8 / 100;\r\n            purseToken.transfer(recipient, amount);\r\n        }\r\n    }\r\n\r\n    function returnPurseToken(address _to) public onlyOwner {\r\n        require(_to != address(0), \"send to the zero address\");\r\n        uint256 remainingAmount = purseToken.balanceOf(address(this));\r\n        purseToken.transfer(_to, remainingAmount);\r\n    }\r\n    \r\n    function returnAnyToken(address token, uint256 amount, address _to) public onlyOwner {\r\n        require(_to != address(0), \"send to the zero address\");\r\n        ERC20Interface(token).transfer(_to, amount);\r\n    }\r\n\r\n    function updateOwner(address _owner) public onlyOwner{\r\n        require(_owner != address(0), \"not valid address\");\r\n        require(_owner != owner, \"same owner address\");\r\n        isOwner[_owner] = true;\r\n        owner = _owner;\r\n    } \r\n}\r\n",
  "sourcePath": "C:/Users/cheek/Desktop/Developer doc/Visual Studio Code/PundiX/YieldFarm_BridgeEthBsc/src/contracts/NPXSXEMigration.sol",
  "compiler": {
    "name": "solc",
    "version": "0.8.7+commit.e28d00a7.Emscripten.clang"
  },
  "schemaVersion": "3.2.3",
  "updatedAt": "2021-09-14T08:34:53.095Z",
  "networkType": "ethereum",
  "devdoc": {
    "kind": "dev",
    "methods": {},
    "version": 1
  },
  "userdoc": {
    "kind": "user",
    "methods": {},
    "version": 1
  }
}