{
  "contractName": "NPXSXEMigration",
  "abi": [
    {
      "inputs": [
        {
          "internalType": "address",
          "name": "_npxsxemToken",
          "type": "address"
        },
        {
          "internalType": "contract PurseTokenUpgradable",
          "name": "_purseToken",
          "type": "address"
        }
      ],
      "stateMutability": "nonpayable",
      "type": "constructor"
    },
    {
      "anonymous": false,
      "inputs": [
        {
          "indexed": false,
          "internalType": "uint256",
          "name": "migrateIndex",
          "type": "uint256"
        },
        {
          "indexed": true,
          "internalType": "address",
          "name": "_from",
          "type": "address"
        },
        {
          "indexed": false,
          "internalType": "address",
          "name": "_to",
          "type": "address"
        },
        {
          "indexed": false,
          "internalType": "uint256",
          "name": "value",
          "type": "uint256"
        }
      ],
      "name": "Migrate",
      "type": "event"
    },
    {
      "inputs": [],
      "name": "endMigration",
      "outputs": [
        {
          "internalType": "uint256",
          "name": "",
          "type": "uint256"
        }
      ],
      "stateMutability": "view",
      "type": "function",
      "constant": true
    },
    {
      "inputs": [
        {
          "internalType": "uint256",
          "name": "",
          "type": "uint256"
        },
        {
          "internalType": "uint256",
          "name": "",
          "type": "uint256"
        }
      ],
      "name": "isAirdrop",
      "outputs": [
        {
          "internalType": "bool",
          "name": "",
          "type": "bool"
        }
      ],
      "stateMutability": "view",
      "type": "function",
      "constant": true
    },
    {
      "inputs": [],
      "name": "isMigrationStart",
      "outputs": [
        {
          "internalType": "bool",
          "name": "",
          "type": "bool"
        }
      ],
      "stateMutability": "view",
      "type": "function",
      "constant": true
    },
    {
      "inputs": [
        {
          "internalType": "address",
          "name": "",
          "type": "address"
        }
      ],
      "name": "isOwner",
      "outputs": [
        {
          "internalType": "bool",
          "name": "",
          "type": "bool"
        }
      ],
      "stateMutability": "view",
      "type": "function",
      "constant": true
    },
    {
      "inputs": [],
      "name": "migrateIndex",
      "outputs": [
        {
          "internalType": "uint256",
          "name": "",
          "type": "uint256"
        }
      ],
      "stateMutability": "view",
      "type": "function",
      "constant": true
    },
    {
      "inputs": [
        {
          "internalType": "uint256",
          "name": "",
          "type": "uint256"
        }
      ],
      "name": "migration",
      "outputs": [
        {
          "internalType": "uint256",
          "name": "migrateIndex",
          "type": "uint256"
        },
        {
          "internalType": "address",
          "name": "migrator",
          "type": "address"
        },
        {
          "internalType": "address",
          "name": "to",
          "type": "address"
        },
        {
          "internalType": "uint256",
          "name": "migrateBalance",
          "type": "uint256"
        }
      ],
      "stateMutability": "view",
      "type": "function",
      "constant": true
    },
    {
      "inputs": [],
      "name": "name",
      "outputs": [
        {
          "internalType": "string",
          "name": "",
          "type": "string"
        }
      ],
      "stateMutability": "view",
      "type": "function",
      "constant": true
    },
    {
      "inputs": [],
      "name": "npxsxemToken",
      "outputs": [
        {
          "internalType": "address",
          "name": "",
          "type": "address"
        }
      ],
      "stateMutability": "view",
      "type": "function",
      "constant": true
    },
    {
      "inputs": [],
      "name": "owner",
      "outputs": [
        {
          "internalType": "address",
          "name": "",
          "type": "address"
        }
      ],
      "stateMutability": "view",
      "type": "function",
      "constant": true
    },
    {
      "inputs": [],
      "name": "purseToken",
      "outputs": [
        {
          "internalType": "contract PurseTokenUpgradable",
          "name": "",
          "type": "address"
        }
      ],
      "stateMutability": "view",
      "type": "function",
      "constant": true
    },
    {
      "inputs": [],
      "name": "validDuration",
      "outputs": [
        {
          "internalType": "uint256",
          "name": "",
          "type": "uint256"
        }
      ],
      "stateMutability": "view",
      "type": "function",
      "constant": true
    },
    {
      "inputs": [
        {
          "internalType": "address",
          "name": "_to",
          "type": "address"
        },
        {
          "internalType": "uint256",
          "name": "_amount",
          "type": "uint256"
        }
      ],
      "name": "migrateNPXSXEM",
      "outputs": [],
      "stateMutability": "nonpayable",
      "type": "function"
    },
    {
      "inputs": [
        {
          "internalType": "bool",
          "name": "check",
          "type": "bool"
        }
      ],
      "name": "startMigration",
      "outputs": [],
      "stateMutability": "nonpayable",
      "type": "function"
    },
    {
      "inputs": [
        {
          "internalType": "uint256",
          "name": "start",
          "type": "uint256"
        },
        {
          "internalType": "uint256",
          "name": "end",
          "type": "uint256"
        },
        {
          "internalType": "uint256",
          "name": "airdropIndex",
          "type": "uint256"
        }
      ],
      "name": "airDrop",
      "outputs": [],
      "stateMutability": "nonpayable",
      "type": "function"
    },
    {
      "inputs": [
        {
          "internalType": "address",
          "name": "_to",
          "type": "address"
        }
      ],
      "name": "returnPurseToken",
      "outputs": [],
      "stateMutability": "nonpayable",
      "type": "function"
    },
    {
      "inputs": [
        {
          "internalType": "address",
          "name": "token",
          "type": "address"
        },
        {
          "internalType": "uint256",
          "name": "amount",
          "type": "uint256"
        },
        {
          "internalType": "address",
          "name": "_to",
          "type": "address"
        }
      ],
      "name": "returnAnyToken",
      "outputs": [],
      "stateMutability": "nonpayable",
      "type": "function"
    },
    {
      "inputs": [
        {
          "internalType": "address",
          "name": "_owner",
          "type": "address"
        }
      ],
      "name": "updateOwner",
      "outputs": [],
      "stateMutability": "nonpayable",
      "type": "function"
    }
  ],
  "bytecode": "0x60c0604052601160808190527f4e50585358454d204d6967726174696f6e00000000000000000000000000000060a0908152620000409160009190620000cd565b503480156200004e57600080fd5b506040516200118438038062001184833981016040819052620000719162000173565b336000818152600860205260409020805460ff19166001908117909155600580546001600160a01b0319908116909317905580546001600160a01b03948516908316179055600280549290931691161790554260035562000221565b828054620000db90620001b2565b90600052602060002090601f016020900481019282620000ff57600085556200014a565b82601f106200011a57805160ff19168380011785556200014a565b828001600101855582156200014a579182015b828111156200014a5782518255916020019190600101906200012d565b50620001589291506200015c565b5090565b5b808211156200015857600081556001016200015d565b600080604083850312156200018757600080fd5b8251620001948162000208565b6020840151909250620001a78162000208565b809150509250929050565b600181811c90821680620001c757607f821691505b6020821081141562000202577f4e487b7100000000000000000000000000000000000000000000000000000000600052602260045260246000fd5b50919050565b6001600160a01b03811681146200021e57600080fd5b50565b610f5380620002316000396000f3fe608060405234801561001057600080fd5b506004361061010b5760003560e01c8063880cdc31116100a2578063c237e32611610071578063c237e32614610246578063e640d86214610259578063f09de43f146102cb578063f3939723146102de578063fee9866c146102f157600080fd5b8063880cdc31146101e95780638da5cb5b146101fc578063a286f8e11461020f578063b2d374701461023d57600080fd5b80632f54bf6e116100de5780632f54bf6e1461019557806351bf16ef146101b857806359f77296146101cb5780636c525d04146101e057600080fd5b806306fdde03146101105780630713f1b61461012e57806324482858146101525780632948ff411461017d575b600080fd5b610118610304565b6040516101259190610dd2565b60405180910390f35b60055461014290600160a01b900460ff1681565b6040519015158152602001610125565b600154610165906001600160a01b031681565b6040516001600160a01b039091168152602001610125565b6101876277f88081565b604051908152602001610125565b6101426101a3366004610c90565b60086020526000908152604090205460ff1681565b600254610165906001600160a01b031681565b6101de6101d9366004610d18565b610392565b005b61018760045481565b6101de6101f7366004610c90565b610407565b600554610165906001600160a01b031681565b61014261021d366004610d84565b600960209081526000928352604080842090915290825290205460ff1681565b61018760065481565b6101de610254366004610cdc565b61050a565b61029b610267366004610d52565b600760205260009081526040902080546001820154600283015460039093015491926001600160a01b039182169291169084565b60405161012594939291909384526001600160a01b03928316602085015291166040830152606082015260800190565b6101de6102d9366004610c90565b610612565b6101de6102ec366004610cb2565b61079b565b6101de6102ff366004610da6565b610ae8565b6000805461031190610ea3565b80601f016020809104026020016040519081016040528092919081815260200182805461033d90610ea3565b801561038a5780601f1061035f5761010080835404028352916020019161038a565b820191906000526020600020905b81548152906001019060200180831161036d57829003601f168201915b505050505081565b3360009081526008602052604090205460ff166103ca5760405162461bcd60e51b81526004016103c190610e27565b60405180910390fd5b80156103f6576103dd6277f88042610e4a565b6004556005805460ff60a01b1916600160a01b17905550565b6005805460ff60a01b191690555b50565b3360009081526008602052604090205460ff166104365760405162461bcd60e51b81526004016103c190610e27565b6001600160a01b0381166104805760405162461bcd60e51b81526020600482015260116024820152706e6f742076616c6964206164647265737360781b60448201526064016103c1565b6005546001600160a01b03828116911614156104d35760405162461bcd60e51b815260206004820152601260248201527173616d65206f776e6572206164647265737360701b60448201526064016103c1565b6001600160a01b03166000818152600860205260409020805460ff19166001179055600580546001600160a01b0319169091179055565b3360009081526008602052604090205460ff166105395760405162461bcd60e51b81526004016103c190610e27565b6001600160a01b03811661058a5760405162461bcd60e51b815260206004820152601860248201527773656e6420746f20746865207a65726f206164647265737360401b60448201526064016103c1565b60405163a9059cbb60e01b81526001600160a01b0382811660048301526024820184905284169063a9059cbb90604401602060405180830381600087803b1580156105d457600080fd5b505af11580156105e8573d6000803e3d6000fd5b505050506040513d601f19601f8201168201806040525081019061060c9190610d35565b50505050565b3360009081526008602052604090205460ff166106415760405162461bcd60e51b81526004016103c190610e27565b6001600160a01b0381166106925760405162461bcd60e51b815260206004820152601860248201527773656e6420746f20746865207a65726f206164647265737360401b60448201526064016103c1565b6002546040516370a0823160e01b81523060048201526000916001600160a01b0316906370a082319060240160206040518083038186803b1580156106d657600080fd5b505afa1580156106ea573d6000803e3d6000fd5b505050506040513d601f19601f8201168201806040525081019061070e9190610d6b565b60025460405163a9059cbb60e01b81526001600160a01b0385811660048301526024820184905292935091169063a9059cbb90604401602060405180830381600087803b15801561075e57600080fd5b505af1158015610772573d6000803e3d6000fd5b505050506040513d601f19601f820116820180604052508101906107969190610d35565b505050565b600554600160a01b900460ff1615156001146107b657600080fd5b6002546040516370a0823160e01b81523060048201526000916001600160a01b0316906370a082319060240160206040518083038186803b1580156107fa57600080fd5b505afa15801561080e573d6000803e3d6000fd5b505050506040513d601f19601f820116820180604052508101906108329190610d6b565b905060045442111561087e5760405162461bcd60e51b815260206004820152601560248201527426b4b3b930ba34b7b7103bb4b73237bb9037bb32b960591b60448201526064016103c1565b6000821161088b57600080fd5b8181101561089857600080fd5b600060646108a784600c610e84565b6108b19190610e62565b6001546040516323b872dd60e01b8152336004820152306024820152604481018690529192506001600160a01b0316906323b872dd90606401602060405180830381600087803b15801561090457600080fd5b505af1158015610918573d6000803e3d6000fd5b505050506040513d601f19601f8201168201806040525081019061093c9190610d35565b50604080516080810182526006548082523360208084019182526001600160a01b03898116858701908152606086018a8152600095865260079093529584209451855591516001850180549184166001600160a01b0319928316179055945160028501805491909316951694909417905591516003909101555b600b8110156109f55760065460009081526009602090815260408083208484529091529020805460ff19169055806109ed81610ede565b9150506109b6565b5060025460405163a9059cbb60e01b81526001600160a01b038681166004830152602482018490529091169063a9059cbb90604401602060405180830381600087803b158015610a4457600080fd5b505af1158015610a58573d6000803e3d6000fd5b505050506040513d601f19601f82011682018060405250810190610a7c9190610d35565b50600654604080519182526001600160a01b0386166020830152810184905233907f53a871c29c111546fa4a56d438d4db74ce48762942459053889518f7f573309e9060600160405180910390a2600160066000828254610add9190610e4a565b909155505050505050565b3360009081526008602052604090205460ff16610b175760405162461bcd60e51b81526004016103c190610e27565b8183108015610b2857506006548211155b610b3157600080fd5b600b81108015610b3f575060015b610b4857600080fd5b825b8281101561060c57600081815260096020908152604080832085845290915290205460ff16610c6257600081815260076020526040812060028101546003909101546001600160a01b039091169190606490610ba7906008610e84565b610bb19190610e62565b600084815260096020908152604080832088845290915290819020805460ff19166001179055600254905163a9059cbb60e01b81526001600160a01b0385811660048301526024820184905292935091169063a9059cbb90604401602060405180830381600087803b158015610c2657600080fd5b505af1158015610c3a573d6000803e3d6000fd5b505050506040513d601f19601f82011682018060405250810190610c5e9190610d35565b5050505b80610c6c81610ede565b915050610b4a565b80356001600160a01b0381168114610c8b57600080fd5b919050565b600060208284031215610ca257600080fd5b610cab82610c74565b9392505050565b60008060408385031215610cc557600080fd5b610cce83610c74565b946020939093013593505050565b600080600060608486031215610cf157600080fd5b610cfa84610c74565b925060208401359150610d0f60408501610c74565b90509250925092565b600060208284031215610d2a57600080fd5b8135610cab81610f0f565b600060208284031215610d4757600080fd5b8151610cab81610f0f565b600060208284031215610d6457600080fd5b5035919050565b600060208284031215610d7d57600080fd5b5051919050565b60008060408385031215610d9757600080fd5b50508035926020909101359150565b600080600060608486031215610dbb57600080fd5b505081359360208301359350604090920135919050565b600060208083528351808285015260005b81811015610dff57858101830151858201604001528201610de3565b81811115610e11576000604083870101525b50601f01601f1916929092016040019392505050565b6020808252600990820152683737ba1037bbb732b960b91b604082015260600190565b60008219821115610e5d57610e5d610ef9565b500190565b600082610e7f57634e487b7160e01b600052601260045260246000fd5b500490565b6000816000190483118215151615610e9e57610e9e610ef9565b500290565b600181811c90821680610eb757607f821691505b60208210811415610ed857634e487b7160e01b600052602260045260246000fd5b50919050565b6000600019821415610ef257610ef2610ef9565b5060010190565b634e487b7160e01b600052601160045260246000fd5b801515811461040457600080fdfea26469706673582212209d5fcde05de4a9bf27563bd6cc5d1481af7489b1f2b45d424eaa85105a72205564736f6c63430008070033",
  "immutableReferences": {},
  "source": "// SPDX-License-Identifier: UNLICENSED\r\n\r\npragma solidity ^0.8.0;\r\n\r\nimport \"./PurseTokenUpgradable.sol\";\r\n\r\n\r\ncontract NPXSXEMigration {\r\n    event Migrate (uint256 migrateIndex, address indexed _from, address _to,  uint256 value);\r\n\r\n    string public name = \"NPXSXEM Migration\";\r\n    address public npxsxemToken;\r\n    PurseTokenUpgradable public purseToken;\r\n    uint256 public constant validDuration = 91 days;\r\n    uint256 internal migrationStart;\r\n    uint256 public endMigration;\r\n    address public owner;\r\n    bool public isMigrationStart;\r\n\r\n    uint256 public migrateIndex;\r\n    mapping(uint256 => MigratorInfo) public migration;  //index->times   \r\n    mapping(address => bool) public isOwner;\r\n    mapping(uint256 => mapping(uint256 => bool)) public isAirdrop;\r\n\r\n    struct MigratorInfo {\r\n        uint256 migrateIndex;\r\n        address migrator;\r\n        address to;\r\n        uint256 migrateBalance;\r\n    }\r\n\r\n    modifier onlyOwner() {\r\n        require(isOwner[msg.sender], \"not owner\");\r\n        _;\r\n    }\r\n\r\n    constructor(address _npxsxemToken, PurseTokenUpgradable _purseToken) {\r\n        isOwner[msg.sender] = true;\r\n        owner = msg.sender;\r\n        npxsxemToken = _npxsxemToken;\r\n        purseToken = _purseToken;\r\n        migrationStart = block.timestamp;\r\n    }\r\n\r\n    function migrateNPXSXEM(address _to, uint256 _amount) public {    \r\n        require (isMigrationStart == true);\r\n        uint256 remainingAmount = purseToken.balanceOf(address(this)); \r\n        require(block.timestamp <= endMigration, \"Migration window over\");\r\n        require(_amount > 0);\r\n        require(remainingAmount >=_amount);\r\n\r\n        uint256 transferAmount = (_amount * 12) / 100;\r\n        ERC20Interface(npxsxemToken).transferFrom(msg.sender, address(this), _amount);\r\n        // npxsxemToken.transferFrom(msg.sender, address(this), _amount);      // Migrate npxsxem token   \r\n\r\n        migration[migrateIndex] = MigratorInfo(migrateIndex, msg.sender, _to, _amount);\r\n        for (uint256 i = 0; i < 11; i++) {\r\n            isAirdrop[migrateIndex][i] = false;\r\n        }\r\n        purseToken.transfer(_to, transferAmount);\r\n\r\n        emit Migrate(migrateIndex, msg.sender, _to, _amount);\r\n        migrateIndex += 1;\r\n    }\r\n    \r\n    function startMigration(bool check) public onlyOwner {\r\n        if (check) {\r\n            endMigration = block.timestamp + validDuration;\r\n            isMigrationStart = true;\r\n        } else {\r\n            isMigrationStart = false;\r\n        }\r\n    }\r\n\r\n    function airDrop(uint256 start, uint256 end, uint256 airdropIndex) public onlyOwner {\r\n        require(start < end && end <= migrateIndex );\r\n        require(airdropIndex < 11 && airdropIndex >= 0) ;\r\n        for (uint256 i = start; i < end; i++) {\r\n            if (isAirdrop[i][airdropIndex] == false) {\r\n                address recipient = migration[i].to;\r\n                uint256 amount = migration[i].migrateBalance * 8 / 100;\r\n                isAirdrop[i][airdropIndex] = true;\r\n                purseToken.transfer(recipient, amount);                \r\n            }\r\n        }\r\n    }\r\n\r\n    function returnPurseToken(address _to) public onlyOwner {\r\n        require(_to != address(0), \"send to the zero address\");\r\n        uint256 remainingAmount = purseToken.balanceOf(address(this));\r\n        purseToken.transfer(_to, remainingAmount);\r\n    }\r\n    \r\n    function returnAnyToken(address token, uint256 amount, address _to) public onlyOwner {\r\n        require(_to != address(0), \"send to the zero address\");\r\n        ERC20Interface(token).transfer(_to, amount);\r\n    }\r\n\r\n    function updateOwner(address _owner) public onlyOwner{\r\n        require(_owner != address(0), \"not valid address\");\r\n        require(_owner != owner, \"same owner address\");\r\n        isOwner[_owner] = true;\r\n        owner = _owner;\r\n    } \r\n}\r\n",
  "sourcePath": "C:/Users/cheek/Desktop/Developer doc/Visual Studio Code/PundiX/YieldFarm_BridgeEthBsc/src/contracts/NPXSXEMigration.sol",
  "compiler": {
    "name": "solc",
    "version": "0.8.7+commit.e28d00a7.Emscripten.clang"
  },
  "schemaVersion": "3.2.3",
  "updatedAt": "2021-09-19T00:57:11.381Z",
  "networkType": "ethereum",
  "devdoc": {
    "kind": "dev",
    "methods": {},
    "version": 1
  },
  "userdoc": {
    "kind": "user",
    "methods": {},
    "version": 1
  }
}