{
  "contractName": "PurseTokenUpgradable",
  "abi": [
    {
      "anonymous": false,
      "inputs": [
        {
          "indexed": false,
          "internalType": "address",
          "name": "previousAdmin",
          "type": "address"
        },
        {
          "indexed": false,
          "internalType": "address",
          "name": "newAdmin",
          "type": "address"
        }
      ],
      "name": "AdminChanged",
      "type": "event"
    },
    {
      "anonymous": false,
      "inputs": [
        {
          "indexed": true,
          "internalType": "address",
          "name": "_owner",
          "type": "address"
        },
        {
          "indexed": true,
          "internalType": "address",
          "name": "_spender",
          "type": "address"
        },
        {
          "indexed": false,
          "internalType": "uint256",
          "name": "_value",
          "type": "uint256"
        }
      ],
      "name": "Approval",
      "type": "event"
    },
    {
      "anonymous": false,
      "inputs": [
        {
          "indexed": true,
          "internalType": "address",
          "name": "beacon",
          "type": "address"
        }
      ],
      "name": "BeaconUpgraded",
      "type": "event"
    },
    {
      "anonymous": false,
      "inputs": [
        {
          "indexed": true,
          "internalType": "address",
          "name": "_from",
          "type": "address"
        },
        {
          "indexed": false,
          "internalType": "uint256",
          "name": "_value",
          "type": "uint256"
        }
      ],
      "name": "Burn",
      "type": "event"
    },
    {
      "anonymous": false,
      "inputs": [
        {
          "indexed": true,
          "internalType": "address",
          "name": "_from",
          "type": "address"
        },
        {
          "indexed": true,
          "internalType": "address",
          "name": "_to",
          "type": "address"
        },
        {
          "indexed": false,
          "internalType": "uint256",
          "name": "_value",
          "type": "uint256"
        }
      ],
      "name": "Mint",
      "type": "event"
    },
    {
      "anonymous": false,
      "inputs": [
        {
          "indexed": true,
          "internalType": "address",
          "name": "previousOwner",
          "type": "address"
        },
        {
          "indexed": true,
          "internalType": "address",
          "name": "newOwner",
          "type": "address"
        }
      ],
      "name": "OwnershipTransferred",
      "type": "event"
    },
    {
      "anonymous": false,
      "inputs": [
        {
          "indexed": false,
          "internalType": "address",
          "name": "account",
          "type": "address"
        }
      ],
      "name": "Paused",
      "type": "event"
    },
    {
      "anonymous": false,
      "inputs": [
        {
          "indexed": true,
          "internalType": "address",
          "name": "_from",
          "type": "address"
        },
        {
          "indexed": true,
          "internalType": "address",
          "name": "_to",
          "type": "address"
        },
        {
          "indexed": false,
          "internalType": "uint256",
          "name": "_value",
          "type": "uint256"
        }
      ],
      "name": "Transfer",
      "type": "event"
    },
    {
      "anonymous": false,
      "inputs": [
        {
          "indexed": false,
          "internalType": "address",
          "name": "account",
          "type": "address"
        }
      ],
      "name": "Unpaused",
      "type": "event"
    },
    {
      "anonymous": false,
      "inputs": [
        {
          "indexed": true,
          "internalType": "address",
          "name": "implementation",
          "type": "address"
        }
      ],
      "name": "Upgraded",
      "type": "event"
    },
    {
      "inputs": [],
      "name": "_averageInterval",
      "outputs": [
        {
          "internalType": "uint256",
          "name": "",
          "type": "uint256"
        }
      ],
      "stateMutability": "view",
      "type": "function",
      "constant": true
    },
    {
      "inputs": [],
      "name": "_getRewardEndTime",
      "outputs": [
        {
          "internalType": "uint256",
          "name": "",
          "type": "uint256"
        }
      ],
      "stateMutability": "view",
      "type": "function",
      "constant": true
    },
    {
      "inputs": [],
      "name": "_getRewardStartTime",
      "outputs": [
        {
          "internalType": "uint256",
          "name": "",
          "type": "uint256"
        }
      ],
      "stateMutability": "view",
      "type": "function",
      "constant": true
    },
    {
      "inputs": [],
      "name": "_lastRewardStartTime",
      "outputs": [
        {
          "internalType": "uint256",
          "name": "",
          "type": "uint256"
        }
      ],
      "stateMutability": "view",
      "type": "function",
      "constant": true
    },
    {
      "inputs": [],
      "name": "_monthlyDistributePr",
      "outputs": [
        {
          "internalType": "uint256",
          "name": "",
          "type": "uint256"
        }
      ],
      "stateMutability": "view",
      "type": "function",
      "constant": true
    },
    {
      "inputs": [],
      "name": "_numOfDaysPerMth",
      "outputs": [
        {
          "internalType": "uint256",
          "name": "",
          "type": "uint256"
        }
      ],
      "stateMutability": "view",
      "type": "function",
      "constant": true
    },
    {
      "inputs": [],
      "name": "_percentageDistribute",
      "outputs": [
        {
          "internalType": "uint256",
          "name": "",
          "type": "uint256"
        }
      ],
      "stateMutability": "view",
      "type": "function",
      "constant": true
    },
    {
      "inputs": [],
      "name": "_totalSupply",
      "outputs": [
        {
          "internalType": "uint256",
          "name": "",
          "type": "uint256"
        }
      ],
      "stateMutability": "view",
      "type": "function",
      "constant": true
    },
    {
      "inputs": [
        {
          "internalType": "address",
          "name": "",
          "type": "address"
        }
      ],
      "name": "accAmount",
      "outputs": [
        {
          "internalType": "uint256",
          "name": "amount",
          "type": "uint256"
        },
        {
          "internalType": "uint256",
          "name": "lastUpdateTime",
          "type": "uint256"
        }
      ],
      "stateMutability": "view",
      "type": "function",
      "constant": true
    },
    {
      "inputs": [
        {
          "internalType": "uint256",
          "name": "",
          "type": "uint256"
        }
      ],
      "name": "admins",
      "outputs": [
        {
          "internalType": "address",
          "name": "",
          "type": "address"
        }
      ],
      "stateMutability": "view",
      "type": "function",
      "constant": true
    },
    {
      "inputs": [
        {
          "internalType": "address",
          "name": "",
          "type": "address"
        },
        {
          "internalType": "address",
          "name": "",
          "type": "address"
        }
      ],
      "name": "allowance",
      "outputs": [
        {
          "internalType": "uint256",
          "name": "",
          "type": "uint256"
        }
      ],
      "stateMutability": "view",
      "type": "function",
      "constant": true
    },
    {
      "inputs": [
        {
          "internalType": "address",
          "name": "",
          "type": "address"
        }
      ],
      "name": "balanceOf",
      "outputs": [
        {
          "internalType": "uint256",
          "name": "",
          "type": "uint256"
        }
      ],
      "stateMutability": "view",
      "type": "function",
      "constant": true
    },
    {
      "inputs": [],
      "name": "burnPercent",
      "outputs": [
        {
          "internalType": "uint256",
          "name": "",
          "type": "uint256"
        }
      ],
      "stateMutability": "view",
      "type": "function",
      "constant": true
    },
    {
      "inputs": [],
      "name": "decimals",
      "outputs": [
        {
          "internalType": "uint8",
          "name": "",
          "type": "uint8"
        }
      ],
      "stateMutability": "view",
      "type": "function",
      "constant": true
    },
    {
      "inputs": [],
      "name": "disPercent",
      "outputs": [
        {
          "internalType": "uint256",
          "name": "",
          "type": "uint256"
        }
      ],
      "stateMutability": "view",
      "type": "function",
      "constant": true
    },
    {
      "inputs": [],
      "name": "disPool",
      "outputs": [
        {
          "internalType": "address",
          "name": "",
          "type": "address"
        }
      ],
      "stateMutability": "view",
      "type": "function",
      "constant": true
    },
    {
      "inputs": [
        {
          "internalType": "address",
          "name": "",
          "type": "address"
        }
      ],
      "name": "isAdmin",
      "outputs": [
        {
          "internalType": "bool",
          "name": "",
          "type": "bool"
        }
      ],
      "stateMutability": "view",
      "type": "function",
      "constant": true
    },
    {
      "inputs": [
        {
          "internalType": "address",
          "name": "",
          "type": "address"
        }
      ],
      "name": "isWhitelistedFrom",
      "outputs": [
        {
          "internalType": "bool",
          "name": "",
          "type": "bool"
        }
      ],
      "stateMutability": "view",
      "type": "function",
      "constant": true
    },
    {
      "inputs": [
        {
          "internalType": "address",
          "name": "",
          "type": "address"
        }
      ],
      "name": "isWhitelistedTo",
      "outputs": [
        {
          "internalType": "bool",
          "name": "",
          "type": "bool"
        }
      ],
      "stateMutability": "view",
      "type": "function",
      "constant": true
    },
    {
      "inputs": [],
      "name": "liqPercent",
      "outputs": [
        {
          "internalType": "uint256",
          "name": "",
          "type": "uint256"
        }
      ],
      "stateMutability": "view",
      "type": "function",
      "constant": true
    },
    {
      "inputs": [],
      "name": "liqPool",
      "outputs": [
        {
          "internalType": "address",
          "name": "",
          "type": "address"
        }
      ],
      "stateMutability": "view",
      "type": "function",
      "constant": true
    },
    {
      "inputs": [],
      "name": "name",
      "outputs": [
        {
          "internalType": "string",
          "name": "",
          "type": "string"
        }
      ],
      "stateMutability": "view",
      "type": "function",
      "constant": true
    },
    {
      "inputs": [],
      "name": "owner",
      "outputs": [
        {
          "internalType": "address",
          "name": "",
          "type": "address"
        }
      ],
      "stateMutability": "view",
      "type": "function",
      "constant": true
    },
    {
      "inputs": [],
      "name": "paused",
      "outputs": [
        {
          "internalType": "bool",
          "name": "",
          "type": "bool"
        }
      ],
      "stateMutability": "view",
      "type": "function",
      "constant": true
    },
    {
      "inputs": [],
      "name": "renounceOwnership",
      "outputs": [],
      "stateMutability": "nonpayable",
      "type": "function"
    },
    {
      "inputs": [],
      "name": "symbol",
      "outputs": [
        {
          "internalType": "string",
          "name": "",
          "type": "string"
        }
      ],
      "stateMutability": "view",
      "type": "function",
      "constant": true
    },
    {
      "inputs": [],
      "name": "totalSupply",
      "outputs": [
        {
          "internalType": "uint256",
          "name": "",
          "type": "uint256"
        }
      ],
      "stateMutability": "view",
      "type": "function",
      "constant": true
    },
    {
      "inputs": [
        {
          "internalType": "address",
          "name": "newOwner",
          "type": "address"
        }
      ],
      "name": "transferOwnership",
      "outputs": [],
      "stateMutability": "nonpayable",
      "type": "function"
    },
    {
      "inputs": [
        {
          "internalType": "address",
          "name": "newImplementation",
          "type": "address"
        }
      ],
      "name": "upgradeTo",
      "outputs": [],
      "stateMutability": "nonpayable",
      "type": "function"
    },
    {
      "inputs": [
        {
          "internalType": "address",
          "name": "newImplementation",
          "type": "address"
        },
        {
          "internalType": "bytes",
          "name": "data",
          "type": "bytes"
        }
      ],
      "name": "upgradeToAndCall",
      "outputs": [],
      "stateMutability": "payable",
      "type": "function",
      "payable": true
    },
    {
      "inputs": [
        {
          "internalType": "address",
          "name": "newWhitelist",
          "type": "address"
        }
      ],
      "name": "setWhitelistedTo",
      "outputs": [],
      "stateMutability": "nonpayable",
      "type": "function"
    },
    {
      "inputs": [
        {
          "internalType": "address",
          "name": "newWhitelist",
          "type": "address"
        }
      ],
      "name": "removeWhitelistedTo",
      "outputs": [],
      "stateMutability": "nonpayable",
      "type": "function"
    },
    {
      "inputs": [
        {
          "internalType": "address",
          "name": "newWhitelist",
          "type": "address"
        }
      ],
      "name": "setWhitelistedFrom",
      "outputs": [],
      "stateMutability": "nonpayable",
      "type": "function"
    },
    {
      "inputs": [
        {
          "internalType": "address",
          "name": "newWhitelist",
          "type": "address"
        }
      ],
      "name": "removeWhitelistedFrom",
      "outputs": [],
      "stateMutability": "nonpayable",
      "type": "function"
    },
    {
      "inputs": [
        {
          "internalType": "address",
          "name": "_to",
          "type": "address"
        },
        {
          "internalType": "uint256",
          "name": "_value",
          "type": "uint256"
        }
      ],
      "name": "transfer",
      "outputs": [
        {
          "internalType": "bool",
          "name": "success",
          "type": "bool"
        }
      ],
      "stateMutability": "nonpayable",
      "type": "function"
    },
    {
      "inputs": [],
      "name": "claimDistributionPurse",
      "outputs": [
        {
          "internalType": "bool",
          "name": "success",
          "type": "bool"
        }
      ],
      "stateMutability": "nonpayable",
      "type": "function"
    },
    {
      "inputs": [
        {
          "internalType": "uint256",
          "name": "_rewardStartTime",
          "type": "uint256"
        },
        {
          "internalType": "uint256",
          "name": "_rewardEndTime",
          "type": "uint256"
        },
        {
          "internalType": "uint256",
          "name": "_monthlyDisPr",
          "type": "uint256"
        },
        {
          "internalType": "uint256",
          "name": "_numOfDays",
          "type": "uint256"
        },
        {
          "internalType": "uint256",
          "name": "_percentage",
          "type": "uint256"
        }
      ],
      "name": "activateClaimMonthly",
      "outputs": [],
      "stateMutability": "nonpayable",
      "type": "function"
    },
    {
      "inputs": [
        {
          "internalType": "address",
          "name": "_spender",
          "type": "address"
        },
        {
          "internalType": "uint256",
          "name": "_value",
          "type": "uint256"
        }
      ],
      "name": "approve",
      "outputs": [
        {
          "internalType": "bool",
          "name": "success",
          "type": "bool"
        }
      ],
      "stateMutability": "nonpayable",
      "type": "function"
    },
    {
      "inputs": [
        {
          "internalType": "address",
          "name": "_from",
          "type": "address"
        },
        {
          "internalType": "address",
          "name": "_to",
          "type": "address"
        },
        {
          "internalType": "uint256",
          "name": "_value",
          "type": "uint256"
        }
      ],
      "name": "transferFrom",
      "outputs": [
        {
          "internalType": "bool",
          "name": "success",
          "type": "bool"
        }
      ],
      "stateMutability": "nonpayable",
      "type": "function"
    },
    {
      "inputs": [
        {
          "internalType": "address",
          "name": "_account",
          "type": "address"
        },
        {
          "internalType": "uint256",
          "name": "_amount",
          "type": "uint256"
        }
      ],
      "name": "mint",
      "outputs": [],
      "stateMutability": "nonpayable",
      "type": "function"
    },
    {
      "inputs": [
        {
          "internalType": "uint256",
          "name": "_amount",
          "type": "uint256"
        }
      ],
      "name": "burn",
      "outputs": [],
      "stateMutability": "nonpayable",
      "type": "function"
    },
    {
      "inputs": [
        {
          "internalType": "address",
          "name": "_newLPool",
          "type": "address"
        }
      ],
      "name": "updateLPoolAdd",
      "outputs": [],
      "stateMutability": "nonpayable",
      "type": "function"
    },
    {
      "inputs": [
        {
          "internalType": "address",
          "name": "_newDPool",
          "type": "address"
        }
      ],
      "name": "updateDPoolAdd",
      "outputs": [],
      "stateMutability": "nonpayable",
      "type": "function"
    },
    {
      "inputs": [
        {
          "internalType": "uint256",
          "name": "_newDisPercent",
          "type": "uint256"
        },
        {
          "internalType": "uint256",
          "name": "_newLiqPercent",
          "type": "uint256"
        },
        {
          "internalType": "uint256",
          "name": "_newBurnPercent",
          "type": "uint256"
        }
      ],
      "name": "updatePercent",
      "outputs": [],
      "stateMutability": "nonpayable",
      "type": "function"
    },
    {
      "inputs": [
        {
          "internalType": "address",
          "name": "newAdmin",
          "type": "address"
        }
      ],
      "name": "addAdmin",
      "outputs": [],
      "stateMutability": "nonpayable",
      "type": "function"
    },
    {
      "inputs": [
        {
          "internalType": "uint256",
          "name": "index",
          "type": "uint256"
        }
      ],
      "name": "removeAdmin",
      "outputs": [
        {
          "internalType": "address[]",
          "name": "",
          "type": "address[]"
        }
      ],
      "stateMutability": "nonpayable",
      "type": "function"
    },
    {
      "inputs": [
        {
          "internalType": "address",
          "name": "token",
          "type": "address"
        },
        {
          "internalType": "uint256",
          "name": "amount",
          "type": "uint256"
        },
        {
          "internalType": "address",
          "name": "_to",
          "type": "address"
        }
      ],
      "name": "transferERCToken",
      "outputs": [],
      "stateMutability": "nonpayable",
      "type": "function"
    },
    {
      "inputs": [],
      "name": "pause",
      "outputs": [],
      "stateMutability": "nonpayable",
      "type": "function"
    },
    {
      "inputs": [],
      "name": "unpause",
      "outputs": [],
      "stateMutability": "nonpayable",
      "type": "function"
    },
    {
      "inputs": [
        {
          "internalType": "address",
          "name": "_to",
          "type": "address"
        },
        {
          "internalType": "address",
          "name": "_lPool",
          "type": "address"
        },
        {
          "internalType": "address",
          "name": "_dPool",
          "type": "address"
        },
        {
          "internalType": "uint256",
          "name": "_burnPercent",
          "type": "uint256"
        },
        {
          "internalType": "uint256",
          "name": "_liqPercent",
          "type": "uint256"
        },
        {
          "internalType": "uint256",
          "name": "_disPercent",
          "type": "uint256"
        }
      ],
      "name": "initialize",
      "outputs": [],
      "stateMutability": "nonpayable",
      "type": "function"
    }
  ],
  "bytecode": "0x608060405234801561001057600080fd5b50615e5780620000216000396000f3fe6080604052600436106102c95760003560e01c80635c975abb11610175578063ad7bbc29116100dc578063ca04d2d811610095578063dd62ed3e1161006f578063dd62ed3e14610ada578063e2657da114610b17578063f2fde38b14610b40578063f756724414610b69576102c9565b8063ca04d2d814610a49578063d552920414610a86578063d5b8ddf814610ab1576102c9565b8063ad7bbc2914610926578063b7c74bd314610963578063bab38440146109a1578063bc8d571d146109ca578063c43c082f146109f5578063c6ef924614610a1e576102c9565b80637888f7b21161012e5780637888f7b2146108265780638456cb59146108515780638da5cb5b1461086857806395d89b411461089357806395e96ff1146108be578063a9059cbb146108e9576102c9565b80635c975abb1461072a578063704802751461075557806370a082311461077e578063715018a6146107bb578063728cdbca146107d2578063740b91f4146107fb576102c9565b8063347d34c61161023457806340c10f19116101ed5780634d28b4ba116101c75780634d28b4ba1461067d5780634f1ef286146106a65780635422e495146106c25780635b014029146106ed576102c9565b806340c10f191461060257806342966c681461062b578063434f923714610654576102c9565b8063347d34c61461051a57806335e8b82e146105455780633659cfe61461056e5780633838d4e3146105975780633eaaf86b146105c05780633f4ba83a146105eb576102c9565b806318160ddd1161028657806318160ddd146103f457806320b1e78a1461041f57806323b872dd1461044a57806324d7806c1461048757806327ba6e11146104c4578063313ce567146104ef576102c9565b806303807ee5146102ce57806306fdde03146102f9578063095ea7b3146103245780630f4307e21461036157806311a6c16c1461038c57806314bfd6d0146103b7575b600080fd5b3480156102da57600080fd5b506102e3610b92565b6040516102f091906156f8565b60405180910390f35b34801561030557600080fd5b5061030e610b99565b60405161031b91906155d6565b60405180910390f35b34801561033057600080fd5b5061034b60048036038101906103469190615140565b610c27565b60405161035891906155bb565b60405180910390f35b34801561036d57600080fd5b50610376610d62565b60405161038391906156f8565b60405180910390f35b34801561039857600080fd5b506103a1610d69565b6040516103ae91906155bb565b60405180910390f35b3480156103c357600080fd5b506103de60048036038101906103d99190615200565b610ff9565b6040516103eb9190615555565b60405180910390f35b34801561040057600080fd5b50610409611039565b60405161041691906156f8565b60405180910390f35b34801561042b57600080fd5b5061043461103f565b60405161044191906156f8565b60405180910390f35b34801561045657600080fd5b50610471600480360381019061046c9190615091565b611046565b60405161047e91906155bb565b60405180910390f35b34801561049357600080fd5b506104ae60048036038101906104a99190614f97565b6115a3565b6040516104bb91906155bb565b60405180910390f35b3480156104d057600080fd5b506104d96115c4565b6040516104e69190615555565b60405180910390f35b3480156104fb57600080fd5b506105046115eb565b604051610511919061573c565b60405180910390f35b34801561052657600080fd5b5061052f6115fe565b60405161053c91906156f8565b60405180910390f35b34801561055157600080fd5b5061056c60048036038101906105679190614f97565b611605565b005b34801561057a57600080fd5b5061059560048036038101906105909190614f97565b611722565b005b3480156105a357600080fd5b506105be60048036038101906105b99190614f97565b611749565b005b3480156105cc57600080fd5b506105d5611879565b6040516105e291906156f8565b60405180910390f35b3480156105f757600080fd5b50610600611880565b005b34801561060e57600080fd5b5061062960048036038101906106249190615140565b61194d565b005b34801561063757600080fd5b50610652600480360381019061064d9190615200565b611b0a565b005b34801561066057600080fd5b5061067b60048036038101906106769190615280565b611c78565b005b34801561068957600080fd5b506106a4600480360381019061069f9190614f97565b611d6a565b005b6106c060048036038101906106bb91906150e4565b611e99565b005b3480156106ce57600080fd5b506106d7611eb2565b6040516106e491906156f8565b60405180910390f35b3480156106f957600080fd5b50610714600480360381019061070f9190614f97565b611eb9565b60405161072191906155bb565b60405180910390f35b34801561073657600080fd5b5061073f611eda565b60405161074c91906155bb565b60405180910390f35b34801561076157600080fd5b5061077c60048036038101906107779190614f97565b611ef1565b005b34801561078a57600080fd5b506107a560048036038101906107a09190614f97565b612085565b6040516107b291906156f8565b60405180910390f35b3480156107c757600080fd5b506107d061209e565b005b3480156107de57600080fd5b506107f960048036038101906107f49190615004565b612126565b005b34801561080757600080fd5b5061081061253e565b60405161081d9190615555565b60405180910390f35b34801561083257600080fd5b5061083b612565565b60405161084891906156f8565b60405180910390f35b34801561085d57600080fd5b5061086661256c565b005b34801561087457600080fd5b5061087d61263a565b60405161088a9190615555565b60405180910390f35b34801561089f57600080fd5b506108a8612664565b6040516108b591906155d6565b60405180910390f35b3480156108ca57600080fd5b506108d36126f2565b6040516108e091906156f8565b60405180910390f35b3480156108f557600080fd5b50610910600480360381019061090b9190615140565b6126f9565b60405161091d91906155bb565b60405180910390f35b34801561093257600080fd5b5061094d60048036038101906109489190615200565b612aa3565b60405161095a9190615599565b60405180910390f35b34801561096f57600080fd5b5061098a60048036038101906109859190614f97565b612ddc565b604051610998929190615713565b60405180910390f35b3480156109ad57600080fd5b506109c860048036038101906109c39190614f97565b612e01565b005b3480156109d657600080fd5b506109df612f1e565b6040516109ec91906156f8565b60405180910390f35b348015610a0157600080fd5b50610a1c6004803603810190610a17919061522d565b612f25565b005b348015610a2a57600080fd5b50610a3361300d565b604051610a4091906156f8565b60405180910390f35b348015610a5557600080fd5b50610a706004803603810190610a6b9190614f97565b613014565b604051610a7d91906155bb565b60405180910390f35b348015610a9257600080fd5b50610a9b613035565b604051610aa891906156f8565b60405180910390f35b348015610abd57600080fd5b50610ad86004803603810190610ad39190615180565b61303c565b005b348015610ae657600080fd5b50610b016004803603810190610afc9190614fc4565b61329f565b604051610b0e91906156f8565b60405180910390f35b348015610b2357600080fd5b50610b3e6004803603810190610b399190614f97565b6132c5565b005b348015610b4c57600080fd5b50610b676004803603810190610b629190614f97565b6133f4565b005b348015610b7557600080fd5b50610b906004803603810190610b8b9190614f97565b6134ec565b005b6101035481565b60fb8054610ba6906159c4565b80601f0160208091040260200160405190810160405280929190818152602001828054610bd2906159c4565b8015610c1f5780601f10610bf457610100808354040283529160200191610c1f565b820191906000526020600020905b815481529060010190602001808311610c0257829003601f168201915b505050505081565b6000610c31611eda565b15610c71576040517f08c379a0000000000000000000000000000000000000000000000000000000008152600401610c6890615658565b60405180910390fd5b8161010f60003373ffffffffffffffffffffffffffffffffffffffff1673ffffffffffffffffffffffffffffffffffffffff16815260200190815260200160002060008573ffffffffffffffffffffffffffffffffffffffff1673ffffffffffffffffffffffffffffffffffffffff168152602001908152602001600020819055508273ffffffffffffffffffffffffffffffffffffffff163373ffffffffffffffffffffffffffffffffffffffff167f8c5be1e5ebec7d5bd14f71427d1e84f3dd0314c0f7b2291e5b200ac8c7c3b92584604051610d5091906156f8565b60405180910390a36001905092915050565b61010a5481565b6000610d73611eda565b15610db3576040517f08c379a0000000000000000000000000000000000000000000000000000000008152600401610daa90615658565b60405180910390fd5b610107544210610dc257600080fd5b610108544211610dd157600080fd5b6101085461011360003373ffffffffffffffffffffffffffffffffffffffff1673ffffffffffffffffffffffffffffffffffffffff1681526020019081526020016000206001015410610e2357600080fd5b610e2c3361361c565b60006127106101095461010d54606461010b5461010a5461011360003373ffffffffffffffffffffffffffffffffffffffff1673ffffffffffffffffffffffffffffffffffffffff16815260200190815260200160002060000154610e91919061589f565b610e9b919061589f565b610ea5919061589f565b610eaf919061586e565b610eb9919061586e565b610ec3919061586e565b90506101085461011360003373ffffffffffffffffffffffffffffffffffffffff1673ffffffffffffffffffffffffffffffffffffffff16815260200190815260200160002060010181905550600061011360003373ffffffffffffffffffffffffffffffffffffffff1673ffffffffffffffffffffffffffffffffffffffff16815260200190815260200160002060000181905550610f63334261362c565b3073ffffffffffffffffffffffffffffffffffffffff1663a9059cbb33836040518363ffffffff1660e01b8152600401610f9e929190615570565b602060405180830381600087803b158015610fb857600080fd5b505af1158015610fcc573d6000803e3d6000fd5b505050506040513d601f19601f82011682018060405250810190610ff091906151d3565b50600191505090565b610100818154811061100a57600080fd5b906000526020600020016000915054906101000a900473ffffffffffffffffffffffffffffffffffffffff1681565b60fd5481565b61010b5481565b6000611050611eda565b15611090576040517f08c379a000000000000000000000000000000000000000000000000000000000815260040161108790615658565b60405180910390fd5b600082101561109e57600080fd5b61010e60008573ffffffffffffffffffffffffffffffffffffffff1673ffffffffffffffffffffffffffffffffffffffff168152602001908152602001600020548211156110eb57600080fd5b61010f60008573ffffffffffffffffffffffffffffffffffffffff1673ffffffffffffffffffffffffffffffffffffffff16815260200190815260200160002060003373ffffffffffffffffffffffffffffffffffffffff1673ffffffffffffffffffffffffffffffffffffffff1681526020019081526020016000205482111561117557600080fd5b61011160008473ffffffffffffffffffffffffffffffffffffffff1673ffffffffffffffffffffffffffffffffffffffff16815260200190815260200160002060009054906101000a900460ff1680611218575061011260003373ffffffffffffffffffffffffffffffffffffffff1673ffffffffffffffffffffffffffffffffffffffff16815260200190815260200160002060009054906101000a900460ff165b156113d7578161010f60008673ffffffffffffffffffffffffffffffffffffffff1673ffffffffffffffffffffffffffffffffffffffff16815260200190815260200160002060003373ffffffffffffffffffffffffffffffffffffffff1673ffffffffffffffffffffffffffffffffffffffff16815260200190815260200160002060008282546112aa91906158f9565b925050819055506112bb84846139bb565b8161010e60008673ffffffffffffffffffffffffffffffffffffffff1673ffffffffffffffffffffffffffffffffffffffff168152602001908152602001600020600082825461130b91906158f9565b925050819055508161010e60008573ffffffffffffffffffffffffffffffffffffffff1673ffffffffffffffffffffffffffffffffffffffff16815260200190815260200160002060008282546113629190615818565b925050819055508273ffffffffffffffffffffffffffffffffffffffff168473ffffffffffffffffffffffffffffffffffffffff167fddf252ad1be2c89b69c2b068fc378daa952ba7f163c4a11628f55a4df523b3ef846040516113c691906156f8565b60405180910390a36001905061159c565b8161010f60008673ffffffffffffffffffffffffffffffffffffffff1673ffffffffffffffffffffffffffffffffffffffff16815260200190815260200160002060003373ffffffffffffffffffffffffffffffffffffffff1673ffffffffffffffffffffffffffffffffffffffff168152602001908152602001600020600082825461146491906158f9565b9250508190555061147584846139bb565b600061148183866139d3565b90508061010e60008773ffffffffffffffffffffffffffffffffffffffff1673ffffffffffffffffffffffffffffffffffffffff16815260200190815260200160002060008282546114d391906158f9565b925050819055508061010e60008673ffffffffffffffffffffffffffffffffffffffff1673ffffffffffffffffffffffffffffffffffffffff168152602001908152602001600020600082825461152a9190615818565b925050819055508373ffffffffffffffffffffffffffffffffffffffff168573ffffffffffffffffffffffffffffffffffffffff167fddf252ad1be2c89b69c2b068fc378daa952ba7f163c4a11628f55a4df523b3ef8360405161158e91906156f8565b60405180910390a360019150505b9392505050565b6101106020528060005260406000206000915054906101000a900460ff1681565b61010260009054906101000a900473ffffffffffffffffffffffffffffffffffffffff1681565b60fe60009054906101000a900460ff1681565b6101065481565b61160d613a54565b73ffffffffffffffffffffffffffffffffffffffff1661162b61263a565b73ffffffffffffffffffffffffffffffffffffffff1614611681576040517f08c379a0000000000000000000000000000000000000000000000000000000008152600401611678906156b8565b60405180910390fd5b61010160009054906101000a900473ffffffffffffffffffffffffffffffffffffffff1673ffffffffffffffffffffffffffffffffffffffff168173ffffffffffffffffffffffffffffffffffffffff1614156116dd57600080fd5b8061010160006101000a81548173ffffffffffffffffffffffffffffffffffffffff021916908373ffffffffffffffffffffffffffffffffffffffff16021790555050565b61172b81613a5c565b61174681604051806020016040528060008152506000613adb565b50565b611751613a54565b73ffffffffffffffffffffffffffffffffffffffff1661176f61263a565b73ffffffffffffffffffffffffffffffffffffffff16146117c5576040517f08c379a00000000000000000000000000000000000000000000000000000000081526004016117bc906156b8565b60405180910390fd5b61011260008273ffffffffffffffffffffffffffffffffffffffff1673ffffffffffffffffffffffffffffffffffffffff16815260200190815260200160002060009054906101000a900460ff161561181d57600080fd5b600161011260008373ffffffffffffffffffffffffffffffffffffffff1673ffffffffffffffffffffffffffffffffffffffff16815260200190815260200160002060006101000a81548160ff02191690831515021790555050565b61010d5481565b611888611eda565b6118c7576040517f08c379a00000000000000000000000000000000000000000000000000000000081526004016118be906155f8565b60405180910390fd5b6118cf613a54565b73ffffffffffffffffffffffffffffffffffffffff166118ed61263a565b73ffffffffffffffffffffffffffffffffffffffff1614611943576040517f08c379a000000000000000000000000000000000000000000000000000000000815260040161193a906156b8565b60405180910390fd5b61194b613cac565b565b611955611eda565b15611995576040517f08c379a000000000000000000000000000000000000000000000000000000000815260040161198c90615658565b60405180910390fd5b61011060003373ffffffffffffffffffffffffffffffffffffffff1673ffffffffffffffffffffffffffffffffffffffff16815260200190815260200160002060009054906101000a900460ff166119ec57600080fd5b600073ffffffffffffffffffffffffffffffffffffffff168273ffffffffffffffffffffffffffffffffffffffff161415611a2657600080fd5b611a30824261362c565b8061010e60008473ffffffffffffffffffffffffffffffffffffffff1673ffffffffffffffffffffffffffffffffffffffff1681526020019081526020016000206000828254611a809190615818565b925050819055508060fd6000828254611a999190615818565b925050819055508173ffffffffffffffffffffffffffffffffffffffff16600073ffffffffffffffffffffffffffffffffffffffff167fab8530f87dc9b59234c4623bf917212bb2536d647574c8e7e5da92c2ede0c9f883604051611afe91906156f8565b60405180910390a35050565b611b12611eda565b15611b52576040517f08c379a0000000000000000000000000000000000000000000000000000000008152600401611b4990615658565b60405180910390fd5b6000811415611b6057600080fd5b8061010e60003373ffffffffffffffffffffffffffffffffffffffff1673ffffffffffffffffffffffffffffffffffffffff168152602001908152602001600020541015611bad57600080fd5b611bb7334261362c565b8061010e60003373ffffffffffffffffffffffffffffffffffffffff1673ffffffffffffffffffffffffffffffffffffffff1681526020019081526020016000206000828254611c0791906158f9565b925050819055508060fd6000828254611c2091906158f9565b925050819055503373ffffffffffffffffffffffffffffffffffffffff167fcc16f5dbb4873280815c1ee09dbd06736cffcc184412cf7a71a0fdb75d397ca582604051611c6d91906156f8565b60405180910390a250565b611c80613a54565b73ffffffffffffffffffffffffffffffffffffffff16611c9e61263a565b73ffffffffffffffffffffffffffffffffffffffff1614611cf4576040517f08c379a0000000000000000000000000000000000000000000000000000000008152600401611ceb906156b8565b60405180910390fd5b428511611d0057600080fd5b848411611d0c57600080fd5b60008211611d1957600080fd5b60008111611d2657600080fd5b60fd5461010d819055506101085461010c819055508161010981905550846101088190555083610107819055508061010b819055508261010a819055505050505050565b611d72613a54565b73ffffffffffffffffffffffffffffffffffffffff16611d9061263a565b73ffffffffffffffffffffffffffffffffffffffff1614611de6576040517f08c379a0000000000000000000000000000000000000000000000000000000008152600401611ddd906156b8565b60405180910390fd5b61011260008273ffffffffffffffffffffffffffffffffffffffff1673ffffffffffffffffffffffffffffffffffffffff16815260200190815260200160002060009054906101000a900460ff16611e3d57600080fd5b600061011260008373ffffffffffffffffffffffffffffffffffffffff1673ffffffffffffffffffffffffffffffffffffffff16815260200190815260200160002060006101000a81548160ff02191690831515021790555050565b611ea282613a5c565b611eae82826001613adb565b5050565b6101045481565b6101116020528060005260406000206000915054906101000a900460ff1681565b6000609760009054906101000a900460ff16905090565b611ef9613a54565b73ffffffffffffffffffffffffffffffffffffffff16611f1761263a565b73ffffffffffffffffffffffffffffffffffffffff1614611f6d576040517f08c379a0000000000000000000000000000000000000000000000000000000008152600401611f64906156b8565b60405180910390fd5b61011060008273ffffffffffffffffffffffffffffffffffffffff1673ffffffffffffffffffffffffffffffffffffffff16815260200190815260200160002060009054906101000a900460ff1615611fc557600080fd5b600161011060008373ffffffffffffffffffffffffffffffffffffffff1673ffffffffffffffffffffffffffffffffffffffff16815260200190815260200160002060006101000a81548160ff021916908315150217905550610100819080600181540180825580915050600190039060005260206000200160009091909190916101000a81548173ffffffffffffffffffffffffffffffffffffffff021916908373ffffffffffffffffffffffffffffffffffffffff16021790555050565b61010e6020528060005260406000206000915090505481565b6120a6613a54565b73ffffffffffffffffffffffffffffffffffffffff166120c461263a565b73ffffffffffffffffffffffffffffffffffffffff161461211a576040517f08c379a0000000000000000000000000000000000000000000000000000000008152600401612111906156b8565b60405180910390fd5b6121246000613d4e565b565b600060019054906101000a900460ff168061214c575060008054906101000a900460ff16155b61218b576040517f08c379a000000000000000000000000000000000000000000000000000000000815260040161218290615678565b60405180910390fd5b60008060019054906101000a900460ff1615905080156121db576001600060016101000a81548160ff02191690831515021790555060016000806101000a81548160ff0219169083151502179055505b600073ffffffffffffffffffffffffffffffffffffffff168673ffffffffffffffffffffffffffffffffffffffff16141561221557600080fd5b600073ffffffffffffffffffffffffffffffffffffffff168573ffffffffffffffffffffffffffffffffffffffff16141561224f57600080fd5b600084101561225d57600080fd5b600083101561226b57600080fd5b600082101561227957600080fd5b6040518060400160405280600b81526020017f505552534520546f6b656e00000000000000000000000000000000000000000081525060fb90805190602001906122c4929190614dbb565b506040518060400160405280600281526020017f505200000000000000000000000000000000000000000000000000000000000081525060fc9080519060200190612310929190614dbb565b506bcecb8f27f4200f3a0000000060fd81905550601260fe60006101000a81548160ff021916908360ff16021790555069043c33c193756480000060ff819055508561010160006101000a81548173ffffffffffffffffffffffffffffffffffffffff021916908373ffffffffffffffffffffffffffffffffffffffff1602179055503061010260006101000a81548173ffffffffffffffffffffffffffffffffffffffff021916908373ffffffffffffffffffffffffffffffffffffffff16021790555083610103819055508261010481905550816101058190555060405180602001604052803373ffffffffffffffffffffffffffffffffffffffff1673ffffffffffffffffffffffffffffffffffffffff16815250610100906001612439929190614e41565b50603c6101068190555061244b613e14565b612453613efd565b61245b613fe6565b60fd5461010e60008973ffffffffffffffffffffffffffffffffffffffff1673ffffffffffffffffffffffffffffffffffffffff168152602001908152602001600020819055506124ac874261362c565b8673ffffffffffffffffffffffffffffffffffffffff16600073ffffffffffffffffffffffffffffffffffffffff167fab8530f87dc9b59234c4623bf917212bb2536d647574c8e7e5da92c2ede0c9f860fd5460405161250c91906156f8565b60405180910390a380156125355760008060016101000a81548160ff0219169083151502179055505b50505050505050565b61010160009054906101000a900473ffffffffffffffffffffffffffffffffffffffff1681565b61010c5481565b612574611eda565b156125b4576040517f08c379a00000000000000000000000000000000000000000000000000000000081526004016125ab90615658565b60405180910390fd5b6125bc613a54565b73ffffffffffffffffffffffffffffffffffffffff166125da61263a565b73ffffffffffffffffffffffffffffffffffffffff1614612630576040517f08c379a0000000000000000000000000000000000000000000000000000000008152600401612627906156b8565b60405180910390fd5b6126386140cf565b565b600060c960009054906101000a900473ffffffffffffffffffffffffffffffffffffffff16905090565b60fc8054612671906159c4565b80601f016020809104026020016040519081016040528092919081815260200182805461269d906159c4565b80156126ea5780601f106126bf576101008083540402835291602001916126ea565b820191906000526020600020905b8154815290600101906020018083116126cd57829003601f168201915b505050505081565b6101095481565b6000612703611eda565b15612743576040517f08c379a000000000000000000000000000000000000000000000000000000000815260040161273a90615658565b60405180910390fd5b600082101561275157600080fd5b8161010e60003373ffffffffffffffffffffffffffffffffffffffff1673ffffffffffffffffffffffffffffffffffffffff16815260200190815260200160002054101561279e57600080fd5b61011160008473ffffffffffffffffffffffffffffffffffffffff1673ffffffffffffffffffffffffffffffffffffffff16815260200190815260200160002060009054906101000a900460ff1680612841575061011260003373ffffffffffffffffffffffffffffffffffffffff1673ffffffffffffffffffffffffffffffffffffffff16815260200190815260200160002060009054906101000a900460ff165b1561296c5761285033846139bb565b8161010e60003373ffffffffffffffffffffffffffffffffffffffff1673ffffffffffffffffffffffffffffffffffffffff16815260200190815260200160002060008282546128a091906158f9565b925050819055508161010e60008573ffffffffffffffffffffffffffffffffffffffff1673ffffffffffffffffffffffffffffffffffffffff16815260200190815260200160002060008282546128f79190615818565b925050819055508273ffffffffffffffffffffffffffffffffffffffff163373ffffffffffffffffffffffffffffffffffffffff167fddf252ad1be2c89b69c2b068fc378daa952ba7f163c4a11628f55a4df523b3ef8460405161295b91906156f8565b60405180910390a360019050612a9d565b61297633846139bb565b600061298283336139d3565b90508061010e60003373ffffffffffffffffffffffffffffffffffffffff1673ffffffffffffffffffffffffffffffffffffffff16815260200190815260200160002060008282546129d491906158f9565b925050819055508061010e60008673ffffffffffffffffffffffffffffffffffffffff1673ffffffffffffffffffffffffffffffffffffffff1681526020019081526020016000206000828254612a2b9190615818565b925050819055508373ffffffffffffffffffffffffffffffffffffffff163373ffffffffffffffffffffffffffffffffffffffff167fddf252ad1be2c89b69c2b068fc378daa952ba7f163c4a11628f55a4df523b3ef83604051612a8f91906156f8565b60405180910390a360019150505b92915050565b6060612aad613a54565b73ffffffffffffffffffffffffffffffffffffffff16612acb61263a565b73ffffffffffffffffffffffffffffffffffffffff1614612b21576040517f08c379a0000000000000000000000000000000000000000000000000000000008152600401612b18906156b8565b60405180910390fd5b60006101008381548110612b3857612b37615b2c565b5b9060005260206000200160009054906101000a900473ffffffffffffffffffffffffffffffffffffffff169050610100805490508310612b7757600080fd5b61011060008273ffffffffffffffffffffffffffffffffffffffff1673ffffffffffffffffffffffffffffffffffffffff16815260200190815260200160002060009054906101000a900460ff16612bce57600080fd5b60008390505b600161010080549050612be791906158f9565b811015612caa57610100600182612bfe9190615818565b81548110612c0f57612c0e615b2c565b5b9060005260206000200160009054906101000a900473ffffffffffffffffffffffffffffffffffffffff166101008281548110612c4f57612c4e615b2c565b5b9060005260206000200160006101000a81548173ffffffffffffffffffffffffffffffffffffffff021916908373ffffffffffffffffffffffffffffffffffffffff1602179055508080612ca290615a27565b915050612bd4565b50610100805480612cbe57612cbd615afd565b5b6001900381819060005260206000200160006101000a81549073ffffffffffffffffffffffffffffffffffffffff02191690559055600061011060008373ffffffffffffffffffffffffffffffffffffffff1673ffffffffffffffffffffffffffffffffffffffff16815260200190815260200160002060006101000a81548160ff021916908315150217905550610100805480602002602001604051908101604052809291908181526020018280548015612dcf57602002820191906000526020600020905b8160009054906101000a900473ffffffffffffffffffffffffffffffffffffffff1673ffffffffffffffffffffffffffffffffffffffff1681526020019060010190808311612d85575b5050505050915050919050565b6101136020528060005260406000206000915090508060000154908060010154905082565b612e09613a54565b73ffffffffffffffffffffffffffffffffffffffff16612e2761263a565b73ffffffffffffffffffffffffffffffffffffffff1614612e7d576040517f08c379a0000000000000000000000000000000000000000000000000000000008152600401612e74906156b8565b60405180910390fd5b61010260009054906101000a900473ffffffffffffffffffffffffffffffffffffffff1673ffffffffffffffffffffffffffffffffffffffff168173ffffffffffffffffffffffffffffffffffffffff161415612ed957600080fd5b8061010260006101000a81548173ffffffffffffffffffffffffffffffffffffffff021916908373ffffffffffffffffffffffffffffffffffffffff16021790555050565b6101085481565b612f2d613a54565b73ffffffffffffffffffffffffffffffffffffffff16612f4b61263a565b73ffffffffffffffffffffffffffffffffffffffff1614612fa1576040517f08c379a0000000000000000000000000000000000000000000000000000000008152600401612f98906156b8565b60405180910390fd5b60008310158015612fb3575060648311155b8015612fc0575060008210155b8015612fcd575060648211155b8015612fda575060008110155b8015612fe7575060648111155b612ff057600080fd5b826101058190555081610104819055508061010381905550505050565b6101055481565b6101126020528060005260406000206000915054906101000a900460ff1681565b6101075481565b613044611eda565b15613084576040517f08c379a000000000000000000000000000000000000000000000000000000000815260040161307b90615658565b60405180910390fd5b61308c613a54565b73ffffffffffffffffffffffffffffffffffffffff166130aa61263a565b73ffffffffffffffffffffffffffffffffffffffff1614613100576040517f08c379a00000000000000000000000000000000000000000000000000000000081526004016130f7906156b8565b60405180910390fd5b600073ffffffffffffffffffffffffffffffffffffffff168173ffffffffffffffffffffffffffffffffffffffff16141561313a57600080fd5b3073ffffffffffffffffffffffffffffffffffffffff168373ffffffffffffffffffffffffffffffffffffffff16141561320b5761317830826139bb565b8273ffffffffffffffffffffffffffffffffffffffff1663a9059cbb82846040518363ffffffff1660e01b81526004016131b3929190615570565b602060405180830381600087803b1580156131cd57600080fd5b505af11580156131e1573d6000803e3d6000fd5b505050506040513d601f19601f8201168201806040525081019061320591906151d3565b5061329a565b8273ffffffffffffffffffffffffffffffffffffffff1663a9059cbb82846040518363ffffffff1660e01b8152600401613246929190615570565b602060405180830381600087803b15801561326057600080fd5b505af1158015613274573d6000803e3d6000fd5b505050506040513d601f19601f8201168201806040525081019061329891906151d3565b505b505050565b61010f602052816000526040600020602052806000526040600020600091509150505481565b6132cd613a54565b73ffffffffffffffffffffffffffffffffffffffff166132eb61263a565b73ffffffffffffffffffffffffffffffffffffffff1614613341576040517f08c379a0000000000000000000000000000000000000000000000000000000008152600401613338906156b8565b60405180910390fd5b61011160008273ffffffffffffffffffffffffffffffffffffffff1673ffffffffffffffffffffffffffffffffffffffff16815260200190815260200160002060009054906101000a900460ff1661339857600080fd5b600061011160008373ffffffffffffffffffffffffffffffffffffffff1673ffffffffffffffffffffffffffffffffffffffff16815260200190815260200160002060006101000a81548160ff02191690831515021790555050565b6133fc613a54565b73ffffffffffffffffffffffffffffffffffffffff1661341a61263a565b73ffffffffffffffffffffffffffffffffffffffff1614613470576040517f08c379a0000000000000000000000000000000000000000000000000000000008152600401613467906156b8565b60405180910390fd5b600073ffffffffffffffffffffffffffffffffffffffff168173ffffffffffffffffffffffffffffffffffffffff1614156134e0576040517f08c379a00000000000000000000000000000000000000000000000000000000081526004016134d790615638565b60405180910390fd5b6134e981613d4e565b50565b6134f4613a54565b73ffffffffffffffffffffffffffffffffffffffff1661351261263a565b73ffffffffffffffffffffffffffffffffffffffff1614613568576040517f08c379a000000000000000000000000000000000000000000000000000000000815260040161355f906156b8565b60405180910390fd5b61011160008273ffffffffffffffffffffffffffffffffffffffff1673ffffffffffffffffffffffffffffffffffffffff16815260200190815260200160002060009054906101000a900460ff16156135c057600080fd5b600161011160008373ffffffffffffffffffffffffffffffffffffffff1673ffffffffffffffffffffffffffffffffffffffff16815260200190815260200160002060006101000a81548160ff02191690831515021790555050565b613629816101085461362c565b50565b600061011360008473ffffffffffffffffffffffffffffffffffffffff1673ffffffffffffffffffffffffffffffffffffffff1681526020019081526020016000206001015414156136c5578061011360008473ffffffffffffffffffffffffffffffffffffffff1673ffffffffffffffffffffffffffffffffffffffff168152602001908152602001600020600101819055506139b7565b61010c5461011360008473ffffffffffffffffffffffffffffffffffffffff1673ffffffffffffffffffffffffffffffffffffffff16815260200190815260200160002060010154101561381b5760006101065461010c548361372891906158f9565b613732919061586e565b905060008161010e60008673ffffffffffffffffffffffffffffffffffffffff1673ffffffffffffffffffffffffffffffffffffffff16815260200190815260200160002054613782919061589f565b90508261011360008673ffffffffffffffffffffffffffffffffffffffff1673ffffffffffffffffffffffffffffffffffffffff168152602001908152602001600020600101819055508061011360008673ffffffffffffffffffffffffffffffffffffffff1673ffffffffffffffffffffffffffffffffffffffff1681526020019081526020016000206000018190555050506139b6565b60006101065461011360008573ffffffffffffffffffffffffffffffffffffffff1673ffffffffffffffffffffffffffffffffffffffff168152602001908152602001600020600101548361387091906158f9565b61387a919061586e565b9050600181106139b45760008161010e60008673ffffffffffffffffffffffffffffffffffffffff1673ffffffffffffffffffffffffffffffffffffffff168152602001908152602001600020546138d2919061589f565b90508261011360008673ffffffffffffffffffffffffffffffffffffffff1673ffffffffffffffffffffffffffffffffffffffff168152602001908152602001600020600101819055508061011360008673ffffffffffffffffffffffffffffffffffffffff1673ffffffffffffffffffffffffffffffffffffffff1681526020019081526020016000206000015461396b9190615818565b61011360008673ffffffffffffffffffffffffffffffffffffffff1673ffffffffffffffffffffffffffffffffffffffff16815260200190815260200160002060000181905550505b505b5b5050565b6139c5824261362c565b6139cf814261362c565b5050565b6000806000905060008060006139e887614172565b809350819450829550505050600083101580613a05575060008210155b80613a11575060008110155b15613a2357613a2286848484614213565b5b80828489613a3191906158f9565b613a3b91906158f9565b613a4591906158f9565b93508394505050505092915050565b600033905090565b613a64613a54565b73ffffffffffffffffffffffffffffffffffffffff16613a8261263a565b73ffffffffffffffffffffffffffffffffffffffff1614613ad8576040517f08c379a0000000000000000000000000000000000000000000000000000000008152600401613acf906156b8565b60405180910390fd5b50565b6000613ae5614682565b9050613af0846146d9565b600083511180613afd5750815b15613b0e57613b0c8484614792565b505b6000613b3c7f4910fdfa16fed3260ed0e7147f7cc6da11a60208b5b9406d12a635614ffd914360001b614876565b90508060000160009054906101000a900460ff16613ca55760018160000160006101000a81548160ff021916908315150217905550613c088583604051602401613b869190615555565b6040516020818303038152906040527f3659cfe6000000000000000000000000000000000000000000000000000000007bffffffffffffffffffffffffffffffffffffffffffffffffffffffff19166020820180517bffffffffffffffffffffffffffffffffffffffffffffffffffffffff8381831617835250505050614792565b5060008160000160006101000a81548160ff021916908315150217905550613c2e614682565b73ffffffffffffffffffffffffffffffffffffffff168273ffffffffffffffffffffffffffffffffffffffff1614613c9b576040517f08c379a0000000000000000000000000000000000000000000000000000000008152600401613c9290615618565b60405180910390fd5b613ca485614880565b5b5050505050565b613cb4611eda565b613cf3576040517f08c379a0000000000000000000000000000000000000000000000000000000008152600401613cea906155f8565b60405180910390fd5b6000609760006101000a81548160ff0219169083151502179055507f5db9ee0a495bf2e6ff9c91a7834c1ba4fdd244a5e8aa4e537bd38aeae4b073aa613d37613a54565b604051613d449190615555565b60405180910390a1565b600060c960009054906101000a900473ffffffffffffffffffffffffffffffffffffffff1690508160c960006101000a81548173ffffffffffffffffffffffffffffffffffffffff021916908373ffffffffffffffffffffffffffffffffffffffff1602179055508173ffffffffffffffffffffffffffffffffffffffff168173ffffffffffffffffffffffffffffffffffffffff167f8be0079c531659141344cd1fd0a4f28419497f9722a3daafe3b4186f6b6457e060405160405180910390a35050565b600060019054906101000a900460ff1680613e3a575060008054906101000a900460ff16155b613e79576040517f08c379a0000000000000000000000000000000000000000000000000000000008152600401613e7090615678565b60405180910390fd5b60008060019054906101000a900460ff161590508015613ec9576001600060016101000a81548160ff02191690831515021790555060016000806101000a81548160ff0219169083151502179055505b613ed16148cf565b613ed96149a8565b8015613efa5760008060016101000a81548160ff0219169083151502179055505b50565b600060019054906101000a900460ff1680613f23575060008054906101000a900460ff16155b613f62576040517f08c379a0000000000000000000000000000000000000000000000000000000008152600401613f5990615678565b60405180910390fd5b60008060019054906101000a900460ff161590508015613fb2576001600060016101000a81548160ff02191690831515021790555060016000806101000a81548160ff0219169083151502179055505b613fba6148cf565b613fc2614a9c565b8015613fe35760008060016101000a81548160ff0219169083151502179055505b50565b600060019054906101000a900460ff168061400c575060008054906101000a900460ff16155b61404b576040517f08c379a000000000000000000000000000000000000000000000000000000000815260040161404290615678565b60405180910390fd5b60008060019054906101000a900460ff16159050801561409b576001600060016101000a81548160ff02191690831515021790555060016000806101000a81548160ff0219169083151502179055505b6140a3614b85565b6140ab614c5e565b80156140cc5760008060016101000a81548160ff0219169083151502179055505b50565b6140d7611eda565b15614117576040517f08c379a000000000000000000000000000000000000000000000000000000000815260040161410e90615658565b60405180910390fd5b6001609760006101000a81548160ff0219169083151502179055507f62e78cea01bee320cd4e420270b5ea74000d11b0c9f74754ebdbfc544b05a25861415b613a54565b6040516141689190615555565b60405180910390a1565b60008060008060008060ff5460fd5411156142005760646101035488614198919061589f565b6141a2919061586e565b9250606461010454886141b5919061589f565b6141bf919061586e565b9150606461010554886141d2919061589f565b6141dc919061586e565b9050600060ff5460fd546141f091906158f9565b9050808411156141fe578093505b505b8282829550955095505050509193909250565b600073ffffffffffffffffffffffffffffffffffffffff168473ffffffffffffffffffffffffffffffffffffffff16141561424d57600080fd5b600061010e60008673ffffffffffffffffffffffffffffffffffffffff1673ffffffffffffffffffffffffffffffffffffffff16815260200190815260200160002054905060008284866142a19190615818565b6142ab9190615818565b9050808210156142ba57600080fd5b8461010e60008873ffffffffffffffffffffffffffffffffffffffff1673ffffffffffffffffffffffffffffffffffffffff168152602001908152602001600020600082825461430a91906158f9565b925050819055508361010e60008873ffffffffffffffffffffffffffffffffffffffff1673ffffffffffffffffffffffffffffffffffffffff168152602001908152602001600020600082825461436191906158f9565b925050819055508261010e60008873ffffffffffffffffffffffffffffffffffffffff1673ffffffffffffffffffffffffffffffffffffffff16815260200190815260200160002060008282546143b891906158f9565b925050819055508460fd60008282546143d191906158f9565b9250508190555061442861010260009054906101000a900473ffffffffffffffffffffffffffffffffffffffff1661010160009054906101000a900473ffffffffffffffffffffffffffffffffffffffff166139bb565b8361010e600061010160009054906101000a900473ffffffffffffffffffffffffffffffffffffffff1673ffffffffffffffffffffffffffffffffffffffff1673ffffffffffffffffffffffffffffffffffffffff168152602001908152602001600020600082825461449b9190615818565b925050819055508261010e600061010260009054906101000a900473ffffffffffffffffffffffffffffffffffffffff1673ffffffffffffffffffffffffffffffffffffffff1673ffffffffffffffffffffffffffffffffffffffff16815260200190815260200160002060008282546145159190615818565b925050819055508573ffffffffffffffffffffffffffffffffffffffff167fcc16f5dbb4873280815c1ee09dbd06736cffcc184412cf7a71a0fdb75d397ca58660405161456291906156f8565b60405180910390a261010160009054906101000a900473ffffffffffffffffffffffffffffffffffffffff1673ffffffffffffffffffffffffffffffffffffffff163373ffffffffffffffffffffffffffffffffffffffff167fddf252ad1be2c89b69c2b068fc378daa952ba7f163c4a11628f55a4df523b3ef866040516145ea91906156f8565b60405180910390a361010260009054906101000a900473ffffffffffffffffffffffffffffffffffffffff1673ffffffffffffffffffffffffffffffffffffffff163373ffffffffffffffffffffffffffffffffffffffff167fddf252ad1be2c89b69c2b068fc378daa952ba7f163c4a11628f55a4df523b3ef8560405161467291906156f8565b60405180910390a3505050505050565b60006146b07f360894a13ba1a3210667c828492db98dca3e2076cc3735a920a3ca505d382bbc60001b614d37565b60000160009054906101000a900473ffffffffffffffffffffffffffffffffffffffff16905090565b6146e281614d41565b614721576040517f08c379a000000000000000000000000000000000000000000000000000000000815260040161471890615698565b60405180910390fd5b8061474e7f360894a13ba1a3210667c828492db98dca3e2076cc3735a920a3ca505d382bbc60001b614d37565b60000160006101000a81548173ffffffffffffffffffffffffffffffffffffffff021916908373ffffffffffffffffffffffffffffffffffffffff16021790555050565b606061479d83614d41565b6147dc576040517f08c379a00000000000000000000000000000000000000000000000000000000081526004016147d3906156d8565b60405180910390fd5b6000808473ffffffffffffffffffffffffffffffffffffffff1684604051614804919061553e565b600060405180830381855af49150503d806000811461483f576040519150601f19603f3d011682016040523d82523d6000602084013e614844565b606091505b509150915061486c8282604051806060016040528060278152602001615dfb60279139614d54565b9250505092915050565b6000819050919050565b614889816146d9565b8073ffffffffffffffffffffffffffffffffffffffff167fbc7cd75a20ee27fd9adebab32041f755214dbc6bffa90cc0225b39da2e5c2d3b60405160405180910390a250565b600060019054906101000a900460ff16806148f5575060008054906101000a900460ff16155b614934576040517f08c379a000000000000000000000000000000000000000000000000000000000815260040161492b90615678565b60405180910390fd5b60008060019054906101000a900460ff161590508015614984576001600060016101000a81548160ff02191690831515021790555060016000806101000a81548160ff0219169083151502179055505b80156149a55760008060016101000a81548160ff0219169083151502179055505b50565b600060019054906101000a900460ff16806149ce575060008054906101000a900460ff16155b614a0d576040517f08c379a0000000000000000000000000000000000000000000000000000000008152600401614a0490615678565b60405180910390fd5b60008060019054906101000a900460ff161590508015614a5d576001600060016101000a81548160ff02191690831515021790555060016000806101000a81548160ff0219169083151502179055505b6000609760006101000a81548160ff0219169083151502179055508015614a995760008060016101000a81548160ff0219169083151502179055505b50565b600060019054906101000a900460ff1680614ac2575060008054906101000a900460ff16155b614b01576040517f08c379a0000000000000000000000000000000000000000000000000000000008152600401614af890615678565b60405180910390fd5b60008060019054906101000a900460ff161590508015614b51576001600060016101000a81548160ff02191690831515021790555060016000806101000a81548160ff0219169083151502179055505b614b61614b5c613a54565b613d4e565b8015614b825760008060016101000a81548160ff0219169083151502179055505b50565b600060019054906101000a900460ff1680614bab575060008054906101000a900460ff16155b614bea576040517f08c379a0000000000000000000000000000000000000000000000000000000008152600401614be190615678565b60405180910390fd5b60008060019054906101000a900460ff161590508015614c3a576001600060016101000a81548160ff02191690831515021790555060016000806101000a81548160ff0219169083151502179055505b8015614c5b5760008060016101000a81548160ff0219169083151502179055505b50565b600060019054906101000a900460ff1680614c84575060008054906101000a900460ff16155b614cc3576040517f08c379a0000000000000000000000000000000000000000000000000000000008152600401614cba90615678565b60405180910390fd5b60008060019054906101000a900460ff161590508015614d13576001600060016101000a81548160ff02191690831515021790555060016000806101000a81548160ff0219169083151502179055505b8015614d345760008060016101000a81548160ff0219169083151502179055505b50565b6000819050919050565b600080823b905060008111915050919050565b60608315614d6457829050614db4565b600083511115614d775782518084602001fd5b816040517f08c379a0000000000000000000000000000000000000000000000000000000008152600401614dab91906155d6565b60405180910390fd5b9392505050565b828054614dc7906159c4565b90600052602060002090601f016020900481019282614de95760008555614e30565b82601f10614e0257805160ff1916838001178555614e30565b82800160010185558215614e30579182015b82811115614e2f578251825591602001919060010190614e14565b5b509050614e3d9190614ecb565b5090565b828054828255906000526020600020908101928215614eba579160200282015b82811115614eb95782518260006101000a81548173ffffffffffffffffffffffffffffffffffffffff021916908373ffffffffffffffffffffffffffffffffffffffff16021790555091602001919060010190614e61565b5b509050614ec79190614ecb565b5090565b5b80821115614ee4576000816000905550600101614ecc565b5090565b6000614efb614ef68461577c565b615757565b905082815260208101848484011115614f1757614f16615b8f565b5b614f22848285615982565b509392505050565b600081359050614f3981615db5565b92915050565b600081519050614f4e81615dcc565b92915050565b600082601f830112614f6957614f68615b8a565b5b8135614f79848260208601614ee8565b91505092915050565b600081359050614f9181615de3565b92915050565b600060208284031215614fad57614fac615b99565b5b6000614fbb84828501614f2a565b91505092915050565b60008060408385031215614fdb57614fda615b99565b5b6000614fe985828601614f2a565b9250506020614ffa85828601614f2a565b9150509250929050565b60008060008060008060c0878903121561502157615020615b99565b5b600061502f89828a01614f2a565b965050602061504089828a01614f2a565b955050604061505189828a01614f2a565b945050606061506289828a01614f82565b935050608061507389828a01614f82565b92505060a061508489828a01614f82565b9150509295509295509295565b6000806000606084860312156150aa576150a9615b99565b5b60006150b886828701614f2a565b93505060206150c986828701614f2a565b92505060406150da86828701614f82565b9150509250925092565b600080604083850312156150fb576150fa615b99565b5b600061510985828601614f2a565b925050602083013567ffffffffffffffff81111561512a57615129615b94565b5b61513685828601614f54565b9150509250929050565b6000806040838503121561515757615156615b99565b5b600061516585828601614f2a565b925050602061517685828601614f82565b9150509250929050565b60008060006060848603121561519957615198615b99565b5b60006151a786828701614f2a565b93505060206151b886828701614f82565b92505060406151c986828701614f2a565b9150509250925092565b6000602082840312156151e9576151e8615b99565b5b60006151f784828501614f3f565b91505092915050565b60006020828403121561521657615215615b99565b5b600061522484828501614f82565b91505092915050565b60008060006060848603121561524657615245615b99565b5b600061525486828701614f82565b935050602061526586828701614f82565b925050604061527686828701614f82565b9150509250925092565b600080600080600060a0868803121561529c5761529b615b99565b5b60006152aa88828901614f82565b95505060206152bb88828901614f82565b94505060406152cc88828901614f82565b93505060606152dd88828901614f82565b92505060806152ee88828901614f82565b9150509295509295909350565b60006153078383615313565b60208301905092915050565b61531c8161592d565b82525050565b61532b8161592d565b82525050565b600061533c826157bd565b61534681856157eb565b9350615351836157ad565b8060005b8381101561538257815161536988826152fb565b9750615374836157de565b925050600181019050615355565b5085935050505092915050565b6153988161593f565b82525050565b60006153a9826157c8565b6153b381856157fc565b93506153c3818560208601615991565b80840191505092915050565b60006153da826157d3565b6153e48185615807565b93506153f4818560208601615991565b6153fd81615b9e565b840191505092915050565b6000615415601483615807565b915061542082615baf565b602082019050919050565b6000615438602f83615807565b915061544382615bd8565b604082019050919050565b600061545b602683615807565b915061546682615c27565b604082019050919050565b600061547e601083615807565b915061548982615c76565b602082019050919050565b60006154a1602e83615807565b91506154ac82615c9f565b604082019050919050565b60006154c4602d83615807565b91506154cf82615cee565b604082019050919050565b60006154e7602083615807565b91506154f282615d3d565b602082019050919050565b600061550a602683615807565b915061551582615d66565b604082019050919050565b6155298161596b565b82525050565b61553881615975565b82525050565b600061554a828461539e565b915081905092915050565b600060208201905061556a6000830184615322565b92915050565b60006040820190506155856000830185615322565b6155926020830184615520565b9392505050565b600060208201905081810360008301526155b38184615331565b905092915050565b60006020820190506155d0600083018461538f565b92915050565b600060208201905081810360008301526155f081846153cf565b905092915050565b6000602082019050818103600083015261561181615408565b9050919050565b600060208201905081810360008301526156318161542b565b9050919050565b600060208201905081810360008301526156518161544e565b9050919050565b6000602082019050818103600083015261567181615471565b9050919050565b6000602082019050818103600083015261569181615494565b9050919050565b600060208201905081810360008301526156b1816154b7565b9050919050565b600060208201905081810360008301526156d1816154da565b9050919050565b600060208201905081810360008301526156f1816154fd565b9050919050565b600060208201905061570d6000830184615520565b92915050565b60006040820190506157286000830185615520565b6157356020830184615520565b9392505050565b6000602082019050615751600083018461552f565b92915050565b6000615761615772565b905061576d82826159f6565b919050565b6000604051905090565b600067ffffffffffffffff82111561579757615796615b5b565b5b6157a082615b9e565b9050602081019050919050565b6000819050602082019050919050565b600081519050919050565b600081519050919050565b600081519050919050565b6000602082019050919050565b600082825260208201905092915050565b600081905092915050565b600082825260208201905092915050565b60006158238261596b565b915061582e8361596b565b9250827fffffffffffffffffffffffffffffffffffffffffffffffffffffffffffffffff0382111561586357615862615a70565b5b828201905092915050565b60006158798261596b565b91506158848361596b565b92508261589457615893615a9f565b5b828204905092915050565b60006158aa8261596b565b91506158b58361596b565b9250817fffffffffffffffffffffffffffffffffffffffffffffffffffffffffffffffff04831182151516156158ee576158ed615a70565b5b828202905092915050565b60006159048261596b565b915061590f8361596b565b92508282101561592257615921615a70565b5b828203905092915050565b60006159388261594b565b9050919050565b60008115159050919050565b600073ffffffffffffffffffffffffffffffffffffffff82169050919050565b6000819050919050565b600060ff82169050919050565b82818337600083830152505050565b60005b838110156159af578082015181840152602081019050615994565b838111156159be576000848401525b50505050565b600060028204905060018216806159dc57607f821691505b602082108114156159f0576159ef615ace565b5b50919050565b6159ff82615b9e565b810181811067ffffffffffffffff82111715615a1e57615a1d615b5b565b5b80604052505050565b6000615a328261596b565b91507fffffffffffffffffffffffffffffffffffffffffffffffffffffffffffffffff821415615a6557615a64615a70565b5b600182019050919050565b7f4e487b7100000000000000000000000000000000000000000000000000000000600052601160045260246000fd5b7f4e487b7100000000000000000000000000000000000000000000000000000000600052601260045260246000fd5b7f4e487b7100000000000000000000000000000000000000000000000000000000600052602260045260246000fd5b7f4e487b7100000000000000000000000000000000000000000000000000000000600052603160045260246000fd5b7f4e487b7100000000000000000000000000000000000000000000000000000000600052603260045260246000fd5b7f4e487b7100000000000000000000000000000000000000000000000000000000600052604160045260246000fd5b600080fd5b600080fd5b600080fd5b600080fd5b6000601f19601f8301169050919050565b7f5061757361626c653a206e6f7420706175736564000000000000000000000000600082015250565b7f45524331393637557067726164653a207570677261646520627265616b73206660008201527f7572746865722075706772616465730000000000000000000000000000000000602082015250565b7f4f776e61626c653a206e6577206f776e657220697320746865207a65726f206160008201527f6464726573730000000000000000000000000000000000000000000000000000602082015250565b7f5061757361626c653a2070617573656400000000000000000000000000000000600082015250565b7f496e697469616c697a61626c653a20636f6e747261637420697320616c72656160008201527f647920696e697469616c697a6564000000000000000000000000000000000000602082015250565b7f455243313936373a206e657720696d706c656d656e746174696f6e206973206e60008201527f6f74206120636f6e747261637400000000000000000000000000000000000000602082015250565b7f4f776e61626c653a2063616c6c6572206973206e6f7420746865206f776e6572600082015250565b7f416464726573733a2064656c65676174652063616c6c20746f206e6f6e2d636f60008201527f6e74726163740000000000000000000000000000000000000000000000000000602082015250565b615dbe8161592d565b8114615dc957600080fd5b50565b615dd58161593f565b8114615de057600080fd5b50565b615dec8161596b565b8114615df757600080fd5b5056fe416464726573733a206c6f772d6c6576656c2064656c65676174652063616c6c206661696c6564a2646970667358221220232bd3ce8da5de5782f26994d0d94e6887579dbc5f4528fa980272a1df977ace64736f6c63430008070033",
  "immutableReferences": {},
  "source": "// SPDX-License-Identifier: UNLICENSED\r\n\r\npragma solidity ^0.8.0;\r\n\r\nimport \"@openzeppelin/contracts-upgradeable/proxy/utils/Initializable.sol\";\r\nimport \"@openzeppelin/contracts-upgradeable/proxy/utils/UUPSUpgradeable.sol\";\r\nimport \"@openzeppelin/contracts-upgradeable/security/PausableUpgradeable.sol\";\r\nimport \"@openzeppelin/contracts-upgradeable/access/OwnableUpgradeable.sol\";\r\n\r\nabstract contract ERC20Interface {\r\n\r\n    function transfer(address to, uint tokens) public virtual returns (bool success);\r\n\r\n    function transferFrom(address from, address to, uint tokens) public virtual returns (bool success);\r\n\r\n}\r\n\r\ncontract PurseTokenUpgradable is Initializable, UUPSUpgradeable, PausableUpgradeable, OwnableUpgradeable {\r\n    string public name;\r\n    string public symbol;\r\n    uint256 public totalSupply;\r\n    uint8 public decimals;\r\n    uint256 private minimumSupply;\r\n    address[] public admins;\r\n    address public liqPool;\r\n    address public disPool;\r\n    uint256 public burnPercent;\r\n    uint256 public liqPercent;\r\n    uint256 public disPercent;\r\n    \r\n    uint256 public _averageInterval;\r\n    uint256 public _getRewardEndTime;\r\n    uint256 public _getRewardStartTime;\r\n    uint256 public _numOfDaysPerMth;\r\n    uint256 public _monthlyDistributePr;\r\n    uint256 public _percentageDistribute;\r\n    uint256 public _lastRewardStartTime;\r\n    uint256 public _totalSupply;\r\n    \r\n    event Transfer(address indexed _from, address indexed _to, uint256 _value);\r\n    event Burn(address indexed _from, uint256 _value);\r\n    event Mint(address indexed _from, address indexed _to, uint256 _value);\r\n    event Approval(address indexed _owner, address indexed _spender, uint256 _value);\r\n\r\n    modifier onlyAdmin() {\r\n        require(isAdmin[msg.sender]);\r\n        _;\r\n    }\r\n\r\n    mapping(address => uint256) public balanceOf;\r\n    mapping(address => mapping(address => uint256)) public allowance;\r\n    mapping(address => bool) public isAdmin;\r\n    mapping(address => bool) public isWhitelistedTo;\r\n    mapping(address => bool) public isWhitelistedFrom;\r\n    mapping(address => AccAmount) public accAmount;\r\n\r\n    struct AccAmount {\r\n        uint256 amount;\r\n        uint256 lastUpdateTime;\r\n    }\r\n\r\n    function setWhitelistedTo(address newWhitelist) public onlyOwner {\r\n        // require(newWhitelist != address(0));\r\n        require(!isWhitelistedTo[newWhitelist]);\r\n\r\n        isWhitelistedTo[newWhitelist] = true;\r\n    }\r\n\r\n    function removeWhitelistedTo(address newWhitelist) public onlyOwner {\r\n        // require(newWhitelist != address(0));\r\n        require(isWhitelistedTo[newWhitelist]);\r\n\r\n        isWhitelistedTo[newWhitelist] = false;\r\n    }\r\n\r\n    function setWhitelistedFrom(address newWhitelist) public onlyOwner {\r\n        // require(newWhitelist != address(0));\r\n        require(!isWhitelistedFrom[newWhitelist]);\r\n\r\n        isWhitelistedFrom[newWhitelist] = true;\r\n    }\r\n\r\n    function removeWhitelistedFrom(address newWhitelist) public onlyOwner {\r\n        // require(newWhitelist != address(0));\r\n        require(isWhitelistedFrom[newWhitelist]);\r\n\r\n        isWhitelistedFrom[newWhitelist] = false;\r\n    }\r\n\r\n    function transfer(address _to, uint256 _value)\r\n        public\r\n        whenNotPaused \r\n        returns (bool success)\r\n    {\r\n        require(_value >= 0);\r\n        require(balanceOf[msg.sender] >= _value);\r\n        if (isWhitelistedTo[_to] || isWhitelistedFrom[msg.sender]) {\r\n            updateAccumulateBalanceTransaction(msg.sender, _to); \r\n            balanceOf[msg.sender] -= _value;\r\n            balanceOf[_to] += _value;\r\n            \r\n           \r\n            emit Transfer(msg.sender, _to, _value);\r\n            return true;\r\n        } else {\r\n            updateAccumulateBalanceTransaction(msg.sender, _to);\r\n            uint256 transferValue = _partialBurn(_value, msg.sender);\r\n            balanceOf[msg.sender] -= transferValue;\r\n            balanceOf[_to] += transferValue;\r\n            \r\n\r\n            emit Transfer(msg.sender, _to, transferValue);\r\n            return true;\r\n        }\r\n    }\r\n    \r\n    function updateAccumulateBalance(address _holder, uint256 _updateTime) private {\r\n        if (accAmount[_holder].lastUpdateTime == 0) {\r\n            accAmount[_holder].lastUpdateTime = _updateTime;\r\n        } \r\n        else if (accAmount[_holder].lastUpdateTime < _lastRewardStartTime) {\r\n            uint256 interval = (_updateTime - _lastRewardStartTime)/ _averageInterval;\r\n            uint256 accumulateAmount = balanceOf[_holder] * interval;\r\n            accAmount[_holder].lastUpdateTime = _updateTime;\r\n            accAmount[_holder].amount = accumulateAmount;            \r\n        } \r\n        else {\r\n            uint256 interval = (_updateTime - accAmount[_holder].lastUpdateTime)/ _averageInterval;\r\n            if (interval >= 1) {\r\n                uint256 accumulateAmount = balanceOf[_holder] * interval;\r\n                accAmount[_holder].lastUpdateTime = _updateTime;\r\n                accAmount[_holder].amount = accAmount[_holder].amount + accumulateAmount;                     \r\n            }\r\n        }\r\n    }\r\n    \r\n    function updateAccumulateBalanceTransaction(address _from, address _to) private {\r\n        updateAccumulateBalance(_from, block.timestamp);\r\n        updateAccumulateBalance(_to, block.timestamp);\r\n    }\r\n    \r\n    function updateAccumulateBalanceClaim(address _holder) private {\r\n        updateAccumulateBalance(_holder, _getRewardStartTime);\r\n    }\r\n\r\n    function claimDistributionPurse() public whenNotPaused returns(bool success) {\r\n        require(block.timestamp < _getRewardEndTime);\r\n        require(block.timestamp > _getRewardStartTime);\r\n        require(accAmount[msg.sender].lastUpdateTime < _getRewardStartTime);\r\n        updateAccumulateBalanceClaim(msg.sender);\r\n        uint256 claimAmount = accAmount[msg.sender].amount * _monthlyDistributePr * _percentageDistribute * 100 / _totalSupply / _numOfDaysPerMth / 10000;\r\n        \r\n        accAmount[msg.sender].lastUpdateTime = _getRewardStartTime;\r\n        accAmount[msg.sender].amount = 0;\r\n        updateAccumulateBalance(msg.sender, block.timestamp);\r\n        ERC20Interface(address(this)).transfer(msg.sender, claimAmount);\r\n        return true;\r\n    }\r\n    \r\n    function activateClaimMonthly(uint256 _rewardStartTime, uint256 _rewardEndTime, uint256 _monthlyDisPr, uint256 _numOfDays, uint256 _percentage) public onlyOwner {\r\n        require(_rewardStartTime > block.timestamp );\r\n        require(_rewardEndTime > _rewardStartTime);\r\n        require(_numOfDays > 0);\r\n        require(_percentage > 0);\r\n        \r\n        _totalSupply = totalSupply;\r\n        _lastRewardStartTime = _getRewardStartTime;\r\n        _numOfDaysPerMth = _numOfDays;\r\n        _getRewardStartTime = _rewardStartTime;\r\n        _getRewardEndTime = _rewardEndTime;\r\n        _percentageDistribute = _percentage;\r\n        _monthlyDistributePr = _monthlyDisPr;\r\n    }\r\n    \r\n    function approve(address _spender, uint256 _value)\r\n        public\r\n        whenNotPaused \r\n        returns (bool success)\r\n    {\r\n        allowance[msg.sender][_spender] = _value;\r\n        emit Approval(msg.sender, _spender, _value);\r\n        return true;\r\n    }\r\n\r\n    function transferFrom(\r\n        address _from,\r\n        address _to,\r\n        uint256 _value\r\n    ) public whenNotPaused returns (bool success) {\r\n        require(_value >= 0);\r\n        require(_value <= balanceOf[_from]);\r\n        require(_value <= allowance[_from][msg.sender]);\r\n        if (isWhitelistedTo[_to] || isWhitelistedFrom[msg.sender]) {\r\n            allowance[_from][msg.sender] -= _value;\r\n            updateAccumulateBalanceTransaction(_from, _to);\r\n            balanceOf[_from] -= _value;\r\n            balanceOf[_to] += _value;\r\n            \r\n            emit Transfer(_from, _to, _value);\r\n            return true;\r\n        } else {\r\n            allowance[_from][msg.sender] -= _value;\r\n            updateAccumulateBalanceTransaction(_from, _to);\r\n            uint256 transferValue = _partialBurn(_value, _from);\r\n            balanceOf[_from] -= transferValue;\r\n            balanceOf[_to] += transferValue;\r\n\r\n            emit Transfer(_from, _to, transferValue);\r\n            return true;\r\n        }\r\n    }\r\n\r\n    function mint(address _account, uint256 _amount) public whenNotPaused onlyAdmin {\r\n        require(_account != address(0));\r\n        updateAccumulateBalance(_account, block.timestamp); \r\n        balanceOf[_account] += _amount;\r\n\r\n        totalSupply += _amount;\r\n        emit Mint(address(0), _account, _amount);\r\n    }\r\n\r\n    function burn(uint256 _amount) public whenNotPaused {\r\n        require(_amount != 0);\r\n        require(balanceOf[msg.sender] >= _amount);\r\n        updateAccumulateBalance(msg.sender, block.timestamp); \r\n        balanceOf[msg.sender] -= _amount;\r\n        totalSupply -= _amount;\r\n        emit Burn(msg.sender, _amount);\r\n    }\r\n\r\n    function _partialBurn(uint256 _amount, address _from)\r\n        internal\r\n        returns (uint256)\r\n    {\r\n        uint256 transferAmount = 0;\r\n        uint256 burnAmount;\r\n        uint256 liqAmount;\r\n        uint256 disAmount;\r\n        (\r\n            burnAmount,\r\n            liqAmount,\r\n            disAmount\r\n        ) = _calculateDeductAmount(_amount);\r\n\r\n        if (burnAmount >= 0 || liqAmount >= 0 || disAmount >= 0) {\r\n            burnPrivate(_from, burnAmount, liqAmount, disAmount);\r\n        }\r\n        transferAmount = _amount - burnAmount - liqAmount - disAmount;\r\n\r\n        return transferAmount;\r\n    }\r\n\r\n    function _calculateDeductAmount(uint256 _amount)\r\n        internal\r\n        view\r\n        returns (\r\n            uint256,\r\n            uint256,\r\n            uint256\r\n        )\r\n    {\r\n        uint256 burnAmount;\r\n        uint256 liqAmount;\r\n        uint256 disAmount;\r\n\r\n        if (totalSupply > minimumSupply) {\r\n            burnAmount = (_amount * burnPercent) / 100;\r\n            liqAmount = (_amount * liqPercent) / 100;\r\n            disAmount = (_amount * disPercent) / 100;\r\n            uint256 availableBurn = totalSupply - minimumSupply;\r\n            if (burnAmount > availableBurn) {\r\n                burnAmount = availableBurn;\r\n            }\r\n        }\r\n        return (burnAmount, liqAmount, disAmount);\r\n    }\r\n\r\n    function burnPrivate(\r\n        address _account,\r\n        uint256 _burnAmount,\r\n        uint256 _liqAmount,\r\n        uint256 _disAmount\r\n    ) private {\r\n        require(_account != address(0));\r\n        uint256 accountBalance = balanceOf[_account];\r\n        uint256 deductAmount = _burnAmount + _liqAmount + _disAmount;\r\n        require(accountBalance >= deductAmount);\r\n        balanceOf[_account] -= _burnAmount;\r\n        balanceOf[_account] -= _liqAmount;\r\n        balanceOf[_account] -= _disAmount;\r\n\r\n        totalSupply -= _burnAmount;\r\n        updateAccumulateBalanceTransaction(disPool, liqPool); \r\n        balanceOf[liqPool] += _liqAmount;\r\n        balanceOf[disPool] += _disAmount;\r\n\r\n        emit Burn(_account, _burnAmount);\r\n        emit Transfer(msg.sender, liqPool, _liqAmount);\r\n        emit Transfer(msg.sender, disPool, _disAmount);\r\n    }\r\n    \r\n    function updateLPoolAdd(address _newLPool) public onlyOwner {\r\n        // require(_newLPool != address(0));\r\n        require(_newLPool != liqPool);\r\n\r\n        liqPool = _newLPool;\r\n    }\r\n\r\n    function updateDPoolAdd(address _newDPool) public onlyOwner {\r\n        // require(_newDPool != address(0));\r\n        require(_newDPool != disPool);\r\n\r\n        disPool = _newDPool;\r\n    }\r\n    \r\n    function updatePercent(uint256 _newDisPercent, uint256 _newLiqPercent, uint256 _newBurnPercent) public onlyOwner {\r\n        require(_newDisPercent >= 0 && _newDisPercent <= 100 && _newLiqPercent >= 0 && _newLiqPercent <= 100 && _newBurnPercent >= 0 && _newBurnPercent <= 100);\r\n        // require(_newLiqPercent >= 0 && _newLiqPercent <= 100);\r\n        // require(_newBurnPercent >= 0 && _newBurnPercent <= 100);\r\n        \r\n        disPercent = _newDisPercent;\r\n        liqPercent = _newLiqPercent;\r\n        burnPercent = _newBurnPercent;\r\n    }\r\n\r\n    function addAdmin(address newAdmin) public onlyOwner{\r\n        // require(newAdmin != address(0));\r\n        require(!isAdmin[newAdmin]);\r\n\r\n        isAdmin[newAdmin] = true;\r\n        admins.push(newAdmin);\r\n    }\r\n\r\n    function removeAdmin(uint index) public onlyOwner returns (address[] memory){\r\n        address removeOwner = admins[index];\r\n        require(index < admins.length);\r\n        require(isAdmin[removeOwner]);\r\n        \r\n        for (uint i = index; i<admins.length-1; i++){\r\n            admins[i] = admins[i+1];\r\n        }\r\n        admins.pop();\r\n\r\n        isAdmin[removeOwner] = false;\r\n        return admins;\r\n    }\r\n\r\n    // function getAdmins() public view returns (address[] memory) {\r\n    //     return admins;\r\n    // }\r\n    \r\n    function transferERCToken(address token, uint256 amount, address _to) public whenNotPaused onlyOwner{\r\n        require(_to != address(0));\r\n        if (token == address(this)) {\r\n            updateAccumulateBalanceTransaction(address(this), _to);\r\n            ERC20Interface(token).transfer(_to, amount);\r\n        } else {\r\n            ERC20Interface(token).transfer(_to, amount);          \r\n        }\r\n    } \r\n\r\n    function pause() public whenNotPaused onlyOwner {\r\n        _pause();\r\n    }\r\n\r\n    function unpause() public whenPaused onlyOwner {\r\n        _unpause();\r\n    }\r\n\r\n    function _authorizeUpgrade(address) internal override onlyOwner {}\r\n\r\n    function initialize(\r\n        address _to,\r\n        address _lPool,\r\n        address _dPool,\r\n        uint256 _burnPercent,\r\n        uint256 _liqPercent,\r\n        uint256 _disPercent\r\n    ) public initializer {\r\n        require(_lPool != address(0));\r\n        require(_dPool != address(0));\r\n        require(_burnPercent >= 0);\r\n        require(_liqPercent >= 0);\r\n        require(_disPercent >= 0);\r\n\r\n        name = \"PURSE Token\";\r\n        symbol = \"PR\";\r\n        totalSupply = 64000000000 * (10**18); // 64 billion tokens\r\n        decimals = 18;\r\n        minimumSupply = 20000 * (10**18);\r\n\r\n        liqPool = _lPool;\r\n        disPool = address(this);\r\n        burnPercent = _burnPercent;\r\n        liqPercent = _liqPercent;\r\n        disPercent = _disPercent;\r\n        admins = [msg.sender];\r\n        _averageInterval = 1 minutes;       // update to 1 days in mainnet(prod)\r\n        __Pausable_init();\r\n        __Ownable_init();\r\n        __UUPSUpgradeable_init();\r\n        \r\n        balanceOf[_to] = totalSupply;\r\n        updateAccumulateBalance(_to, block.timestamp); \r\n        emit Mint(address(0), _to, totalSupply);\r\n    }\r\n}",
  "sourcePath": "C:\\Users\\cheek\\Desktop\\Developer doc\\Visual Studio Code\\PundiX\\YieldFarm_BridgeEthBsc\\src\\contracts\\PurseTokenUpgradable.sol",
  "compiler": {
    "name": "solc",
    "version": "0.8.7+commit.e28d00a7.Emscripten.clang"
  },
  "schemaVersion": "3.2.3",
  "updatedAt": "2021-09-15T19:19:26.553Z",
  "networkType": "ethereum",
  "devdoc": {
    "kind": "dev",
    "methods": {
      "owner()": {
        "details": "Returns the address of the current owner."
      },
      "paused()": {
        "details": "Returns true if the contract is paused, and false otherwise."
      },
      "renounceOwnership()": {
        "details": "Leaves the contract without owner. It will not be possible to call `onlyOwner` functions anymore. Can only be called by the current owner. NOTE: Renouncing ownership will leave the contract without an owner, thereby removing any functionality that is only available to the owner."
      },
      "transferOwnership(address)": {
        "details": "Transfers ownership of the contract to a new account (`newOwner`). Can only be called by the current owner."
      },
      "upgradeTo(address)": {
        "details": "Upgrade the implementation of the proxy to `newImplementation`. Calls {_authorizeUpgrade}. Emits an {Upgraded} event."
      },
      "upgradeToAndCall(address,bytes)": {
        "details": "Upgrade the implementation of the proxy to `newImplementation`, and subsequently execute the function call encoded in `data`. Calls {_authorizeUpgrade}. Emits an {Upgraded} event."
      }
    },
    "version": 1
  },
  "userdoc": {
    "kind": "user",
    "methods": {},
    "version": 1
  }
}