{
  "contractName": "PurseDistribution",
  "abi": [
    {
      "inputs": [
        {
          "internalType": "contract PurseTokenUpgradable",
          "name": "_purseToken",
          "type": "address"
        }
      ],
      "stateMutability": "nonpayable",
      "type": "constructor"
    },
    {
      "anonymous": false,
      "inputs": [
        {
          "indexed": true,
          "internalType": "address",
          "name": "sender",
          "type": "address"
        },
        {
          "indexed": false,
          "internalType": "uint256",
          "name": "iteration",
          "type": "uint256"
        }
      ],
      "name": "addHolder",
      "type": "event"
    },
    {
      "anonymous": false,
      "inputs": [
        {
          "indexed": true,
          "internalType": "address",
          "name": "owner",
          "type": "address"
        },
        {
          "indexed": false,
          "internalType": "uint256",
          "name": "amount",
          "type": "uint256"
        },
        {
          "indexed": false,
          "internalType": "uint256",
          "name": "Iteration_End",
          "type": "uint256"
        }
      ],
      "name": "claimAllReward",
      "type": "event"
    },
    {
      "anonymous": false,
      "inputs": [
        {
          "indexed": true,
          "internalType": "address",
          "name": "owner",
          "type": "address"
        },
        {
          "indexed": false,
          "internalType": "uint256",
          "name": "amount",
          "type": "uint256"
        },
        {
          "indexed": true,
          "internalType": "uint256",
          "name": "Iteration",
          "type": "uint256"
        }
      ],
      "name": "claimReward",
      "type": "event"
    },
    {
      "anonymous": false,
      "inputs": [
        {
          "indexed": true,
          "internalType": "address",
          "name": "sender",
          "type": "address"
        },
        {
          "indexed": false,
          "internalType": "uint256",
          "name": "iteration",
          "type": "uint256"
        }
      ],
      "name": "updateHolder",
      "type": "event"
    },
    {
      "inputs": [],
      "name": "endDistribution",
      "outputs": [
        {
          "internalType": "uint256",
          "name": "",
          "type": "uint256"
        }
      ],
      "stateMutability": "view",
      "type": "function",
      "constant": true
    },
    {
      "inputs": [
        {
          "internalType": "address",
          "name": "",
          "type": "address"
        },
        {
          "internalType": "uint256",
          "name": "",
          "type": "uint256"
        }
      ],
      "name": "holder",
      "outputs": [
        {
          "internalType": "uint256",
          "name": "distributeAmount",
          "type": "uint256"
        },
        {
          "internalType": "bool",
          "name": "isRedeem",
          "type": "bool"
        }
      ],
      "stateMutability": "view",
      "type": "function",
      "constant": true
    },
    {
      "inputs": [],
      "name": "isClaimStart",
      "outputs": [
        {
          "internalType": "bool",
          "name": "",
          "type": "bool"
        }
      ],
      "stateMutability": "view",
      "type": "function",
      "constant": true
    },
    {
      "inputs": [],
      "name": "name",
      "outputs": [
        {
          "internalType": "string",
          "name": "",
          "type": "string"
        }
      ],
      "stateMutability": "view",
      "type": "function",
      "constant": true
    },
    {
      "inputs": [
        {
          "internalType": "uint256",
          "name": "",
          "type": "uint256"
        }
      ],
      "name": "numOfHolder",
      "outputs": [
        {
          "internalType": "uint256",
          "name": "",
          "type": "uint256"
        }
      ],
      "stateMutability": "view",
      "type": "function",
      "constant": true
    },
    {
      "inputs": [],
      "name": "owner",
      "outputs": [
        {
          "internalType": "address",
          "name": "",
          "type": "address"
        }
      ],
      "stateMutability": "view",
      "type": "function",
      "constant": true
    },
    {
      "inputs": [],
      "name": "purseToken",
      "outputs": [
        {
          "internalType": "contract PurseTokenUpgradable",
          "name": "",
          "type": "address"
        }
      ],
      "stateMutability": "view",
      "type": "function",
      "constant": true
    },
    {
      "inputs": [],
      "name": "validDuration",
      "outputs": [
        {
          "internalType": "uint256",
          "name": "",
          "type": "uint256"
        }
      ],
      "stateMutability": "view",
      "type": "function",
      "constant": true
    },
    {
      "inputs": [
        {
          "internalType": "address[]",
          "name": "_holder",
          "type": "address[]"
        },
        {
          "internalType": "uint256[]",
          "name": "_amount",
          "type": "uint256[]"
        },
        {
          "internalType": "uint256",
          "name": "iteration",
          "type": "uint256"
        }
      ],
      "name": "addHolderInfo",
      "outputs": [],
      "stateMutability": "nonpayable",
      "type": "function"
    },
    {
      "inputs": [
        {
          "internalType": "address[]",
          "name": "_holder",
          "type": "address[]"
        },
        {
          "internalType": "uint256[]",
          "name": "_amount",
          "type": "uint256[]"
        },
        {
          "internalType": "uint256",
          "name": "iteration",
          "type": "uint256"
        }
      ],
      "name": "updateHolderInfo",
      "outputs": [],
      "stateMutability": "nonpayable",
      "type": "function"
    },
    {
      "inputs": [],
      "name": "startClaim",
      "outputs": [],
      "stateMutability": "nonpayable",
      "type": "function"
    },
    {
      "inputs": [
        {
          "internalType": "address[]",
          "name": "_holder",
          "type": "address[]"
        },
        {
          "internalType": "uint256[]",
          "name": "_amount",
          "type": "uint256[]"
        },
        {
          "internalType": "uint256",
          "name": "iteration",
          "type": "uint256"
        }
      ],
      "name": "checkData",
      "outputs": [
        {
          "internalType": "uint256",
          "name": "",
          "type": "uint256"
        },
        {
          "internalType": "bool",
          "name": "",
          "type": "bool"
        }
      ],
      "stateMutability": "view",
      "type": "function",
      "constant": true
    },
    {
      "inputs": [
        {
          "internalType": "uint256",
          "name": "iteration",
          "type": "uint256"
        }
      ],
      "name": "claim",
      "outputs": [],
      "stateMutability": "nonpayable",
      "type": "function"
    },
    {
      "inputs": [
        {
          "internalType": "uint256",
          "name": "iteration_end",
          "type": "uint256"
        }
      ],
      "name": "claimAll",
      "outputs": [],
      "stateMutability": "nonpayable",
      "type": "function"
    },
    {
      "inputs": [
        {
          "internalType": "address",
          "name": "_to",
          "type": "address"
        }
      ],
      "name": "returnPurseToken",
      "outputs": [],
      "stateMutability": "nonpayable",
      "type": "function"
    },
    {
      "inputs": [
        {
          "internalType": "address",
          "name": "token",
          "type": "address"
        },
        {
          "internalType": "uint256",
          "name": "amount",
          "type": "uint256"
        },
        {
          "internalType": "address",
          "name": "_to",
          "type": "address"
        }
      ],
      "name": "returnAnyToken",
      "outputs": [],
      "stateMutability": "nonpayable",
      "type": "function"
    },
    {
      "inputs": [
        {
          "internalType": "address",
          "name": "_owner",
          "type": "address"
        }
      ],
      "name": "updateOwner",
      "outputs": [],
      "stateMutability": "nonpayable",
      "type": "function"
    }
  ],
  "bytecode": "0x60806040526040518060400160405280601281526020017f507572736520446973747269627574696f6e0000000000000000000000000000815250600090805190602001906200005192919062000115565b503480156200005f57600080fd5b50604051620024e8380380620024e88339818101604052810190620000859190620001dc565b80600160006101000a81548173ffffffffffffffffffffffffffffffffffffffff021916908373ffffffffffffffffffffffffffffffffffffffff16021790555033600260006101000a81548173ffffffffffffffffffffffffffffffffffffffff021916908373ffffffffffffffffffffffffffffffffffffffff1602179055504260048190555050620002da565b828054620001239062000256565b90600052602060002090601f01602090048101928262000147576000855562000193565b82601f106200016257805160ff191683800117855562000193565b8280016001018555821562000193579182015b828111156200019257825182559160200191906001019062000175565b5b509050620001a29190620001a6565b5090565b5b80821115620001c1576000816000905550600101620001a7565b5090565b600081519050620001d681620002c0565b92915050565b600060208284031215620001f557620001f4620002bb565b5b60006200020584828501620001c5565b91505092915050565b60006200021b8262000236565b9050919050565b60006200022f826200020e565b9050919050565b600073ffffffffffffffffffffffffffffffffffffffff82169050919050565b600060028204905060018216806200026f57607f821691505b602082108114156200028657620002856200028c565b5b50919050565b7f4e487b7100000000000000000000000000000000000000000000000000000000600052602260045260246000fd5b600080fd5b620002cb8162000222565b8114620002d757600080fd5b50565b6121fe80620002ea6000396000f3fe608060405234801561001057600080fd5b506004361061010b5760003560e01c806362da19d4116100a25780638da5cb5b116100715780638da5cb5b146102a6578063c237e326146102c4578063e650d293146102e0578063ecbfc077146102fe578063f09de43f146103085761010b565b806362da19d41461021f57806364c76117146102505780636930fd2a1461026e578063880cdc311461028a5761010b565b8063379607f5116100de578063379607f5146101985780633f594c4f146101b457806351bf16ef146101e5578063603d65a6146102035761010b565b806306fdde031461011057806319953d681461012e5780632948ff411461014a5780632d6008e414610168575b600080fd5b610118610324565b6040516101259190611ca0565b60405180910390f35b610148600480360381019061014391906119a0565b6103b2565b005b6101526106aa565b60405161015f9190611da2565b60405180910390f35b610182600480360381019061017d9190611a62565b6106b1565b60405161018f9190611da2565b60405180910390f35b6101b260048036038101906101ad9190611a62565b6106c9565b005b6101ce60048036038101906101c9919061190d565b61099b565b6040516101dc929190611dbd565b60405180910390f35b6101ed6109d9565b6040516101fa9190611c85565b60405180910390f35b61021d600480360381019061021891906119a0565b6109ff565b005b610239600480360381019061023491906119a0565b610cbd565b604051610247929190611dbd565b60405180910390f35b610258610d9b565b6040516102659190611da2565b60405180910390f35b61028860048036038101906102839190611a62565b610da1565b005b6102a4600480360381019061029f91906118e0565b61111a565b005b6102ae6112ef565b6040516102bb9190611c26565b60405180910390f35b6102de60048036038101906102d9919061194d565b611315565b005b6102e86114a8565b6040516102f59190611c6a565b60405180910390f35b6103066114bb565b005b610322600480360381019061031d91906118e0565b61157d565b005b6000805461033190611f32565b80601f016020809104026020016040519081016040528092919081815260200182805461035d90611f32565b80156103aa5780601f1061037f576101008083540402835291602001916103aa565b820191906000526020600020905b81548152906001019060200180831161038d57829003601f168201915b505050505081565b600260009054906101000a900473ffffffffffffffffffffffffffffffffffffffff1673ffffffffffffffffffffffffffffffffffffffff163373ffffffffffffffffffffffffffffffffffffffff1614610442576040517f08c379a000000000000000000000000000000000000000000000000000000000815260040161043990611d82565b60405180910390fd5b600083839050868690501461048c576040517f08c379a000000000000000000000000000000000000000000000000000000000815260040161048390611cc2565b60405180910390fd5b5b858590508110156106545760008484838181106104ad576104ac61200b565b5b9050602002013511801561053b57506000600660008888858181106104d5576104d461200b565b5b90506020020160208101906104ea91906118e0565b73ffffffffffffffffffffffffffffffffffffffff1673ffffffffffffffffffffffffffffffffffffffff168152602001908152602001600020600084815260200190815260200160002060000154145b1561064157604051806040016040528085858481811061055e5761055d61200b565b5b90506020020135815260200160001515815250600660008888858181106105885761058761200b565b5b905060200201602081019061059d91906118e0565b73ffffffffffffffffffffffffffffffffffffffff1673ffffffffffffffffffffffffffffffffffffffff16815260200190815260200160002060008481526020019081526020016000206000820151816000015560208201518160010160006101000a81548160ff02191690831515021790555090505060016007600084815260200190815260200160002060008282546106399190611e2b565b925050819055505b808061064c90611f64565b91505061048d565b3373ffffffffffffffffffffffffffffffffffffffff167f61f152361c81724040ee7c9387deb92fa0eea588ae5d8bb4695a22fa113c208e8360405161069a9190611da2565b60405180910390a2505050505050565b6277f88081565b60076020528060005260406000206000915090505481565b60011515600560009054906101000a900460ff161515146106e957600080fd5b600354421061072d576040517f08c379a000000000000000000000000000000000000000000000000000000000815260040161072490611d22565b60405180910390fd5b60001515600660003373ffffffffffffffffffffffffffffffffffffffff1673ffffffffffffffffffffffffffffffffffffffff168152602001908152602001600020600083815260200190815260200160002060010160009054906101000a900460ff161515146107d4576040517f08c379a00000000000000000000000000000000000000000000000000000000081526004016107cb90611d42565b60405180910390fd5b6001600660003373ffffffffffffffffffffffffffffffffffffffff1673ffffffffffffffffffffffffffffffffffffffff168152602001908152602001600020600083815260200190815260200160002060010160006101000a81548160ff0219169083151502179055506000600660003373ffffffffffffffffffffffffffffffffffffffff1673ffffffffffffffffffffffffffffffffffffffff1681526020019081526020016000206000838152602001908152602001600020600001549050600160009054906101000a900473ffffffffffffffffffffffffffffffffffffffff1673ffffffffffffffffffffffffffffffffffffffff1663a9059cbb33836040518363ffffffff1660e01b81526004016108f5929190611c41565b602060405180830381600087803b15801561090f57600080fd5b505af1158015610923573d6000803e3d6000fd5b505050506040513d601f19601f820116820180604052508101906109479190611a35565b50813373ffffffffffffffffffffffffffffffffffffffff167f9d06fc9af1e0d81649eba41f3599f74e3dc8b0881aa0d622585d707fad3ac2a28360405161098f9190611da2565b60405180910390a35050565b6006602052816000526040600020602052806000526040600020600091509150508060000154908060010160009054906101000a900460ff16905082565b600160009054906101000a900473ffffffffffffffffffffffffffffffffffffffff1681565b600260009054906101000a900473ffffffffffffffffffffffffffffffffffffffff1673ffffffffffffffffffffffffffffffffffffffff163373ffffffffffffffffffffffffffffffffffffffff1614610a8f576040517f08c379a0000000000000000000000000000000000000000000000000000000008152600401610a8690611d82565b60405180910390fd5b6000838390508686905014610ad9576040517f08c379a0000000000000000000000000000000000000000000000000000000008152600401610ad090611cc2565b60405180910390fd5b5b85859050811015610c67576001151560066000888885818110610b0057610aff61200b565b5b9050602002016020810190610b1591906118e0565b73ffffffffffffffffffffffffffffffffffffffff1673ffffffffffffffffffffffffffffffffffffffff168152602001908152602001600020600084815260200190815260200160002060010160009054906101000a900460ff1615151415610b7e57610c54565b6040518060400160405280858584818110610b9c57610b9b61200b565b5b9050602002013581526020016000151581525060066000888885818110610bc657610bc561200b565b5b9050602002016020810190610bdb91906118e0565b73ffffffffffffffffffffffffffffffffffffffff1673ffffffffffffffffffffffffffffffffffffffff16815260200190815260200160002060008481526020019081526020016000206000820151816000015560208201518160010160006101000a81548160ff0219169083151502179055509050505b8080610c5f90611f64565b915050610ada565b3373ffffffffffffffffffffffffffffffffffffffff167f9e2057e5eb47a9914f114cc7d4b9a13c5f1f81ede19b1abcfd2e4115b7b2fc8383604051610cad9190611da2565b60405180910390a2505050505050565b60008060005b87879050811015610d8857858582818110610ce157610ce061200b565b5b90506020020135600660008a8a85818110610cff57610cfe61200b565b5b9050602002016020810190610d1491906118e0565b73ffffffffffffffffffffffffffffffffffffffff1673ffffffffffffffffffffffffffffffffffffffff16815260200190815260200160002060008681526020019081526020016000206000015414610d75578060009250925050610d91565b8080610d8090611f64565b915050610cc3565b80600192509250505b9550959350505050565b60035481565b60011515600560009054906101000a900460ff16151514610dc157600080fd5b6003544210610e05576040517f08c379a0000000000000000000000000000000000000000000000000000000008152600401610dfc90611d22565b60405180910390fd5b6000805b82811161100b5760001515600660003373ffffffffffffffffffffffffffffffffffffffff1673ffffffffffffffffffffffffffffffffffffffff168152602001908152602001600020600083815260200190815260200160002060010160009054906101000a900460ff1615151415610ff85760001515600660003373ffffffffffffffffffffffffffffffffffffffff1673ffffffffffffffffffffffffffffffffffffffff168152602001908152602001600020600083815260200190815260200160002060010160009054906101000a900460ff16151514610f24576040517f08c379a0000000000000000000000000000000000000000000000000000000008152600401610f1b90611d42565b60405180910390fd5b6001600660003373ffffffffffffffffffffffffffffffffffffffff1673ffffffffffffffffffffffffffffffffffffffff168152602001908152602001600020600083815260200190815260200160002060010160006101000a81548160ff0219169083151502179055506000600660003373ffffffffffffffffffffffffffffffffffffffff1673ffffffffffffffffffffffffffffffffffffffff16815260200190815260200160002060008381526020019081526020016000206000015490508083610ff49190611e2b565b9250505b808061100390611f64565b915050610e09565b5060008111156110c657600160009054906101000a900473ffffffffffffffffffffffffffffffffffffffff1673ffffffffffffffffffffffffffffffffffffffff1663a9059cbb33836040518363ffffffff1660e01b8152600401611072929190611c41565b602060405180830381600087803b15801561108c57600080fd5b505af11580156110a0573d6000803e3d6000fd5b505050506040513d601f19601f820116820180604052508101906110c49190611a35565b505b3373ffffffffffffffffffffffffffffffffffffffff167f984e2f0e1b5ed8ebd9ae70fdcdc7fcd417ee2dcff4f94b89330acd73c2e6a8d1828460405161110e929190611de6565b60405180910390a25050565b600260009054906101000a900473ffffffffffffffffffffffffffffffffffffffff1673ffffffffffffffffffffffffffffffffffffffff163373ffffffffffffffffffffffffffffffffffffffff16146111aa576040517f08c379a00000000000000000000000000000000000000000000000000000000081526004016111a190611d82565b60405180910390fd5b600073ffffffffffffffffffffffffffffffffffffffff168173ffffffffffffffffffffffffffffffffffffffff16141561121a576040517f08c379a000000000000000000000000000000000000000000000000000000000815260040161121190611d02565b60405180910390fd5b600260009054906101000a900473ffffffffffffffffffffffffffffffffffffffff1673ffffffffffffffffffffffffffffffffffffffff168173ffffffffffffffffffffffffffffffffffffffff1614156112ab576040517f08c379a00000000000000000000000000000000000000000000000000000000081526004016112a290611ce2565b60405180910390fd5b80600260006101000a81548173ffffffffffffffffffffffffffffffffffffffff021916908373ffffffffffffffffffffffffffffffffffffffff16021790555050565b600260009054906101000a900473ffffffffffffffffffffffffffffffffffffffff1681565b600260009054906101000a900473ffffffffffffffffffffffffffffffffffffffff1673ffffffffffffffffffffffffffffffffffffffff163373ffffffffffffffffffffffffffffffffffffffff16146113a5576040517f08c379a000000000000000000000000000000000000000000000000000000000815260040161139c90611d82565b60405180910390fd5b600073ffffffffffffffffffffffffffffffffffffffff168173ffffffffffffffffffffffffffffffffffffffff161415611415576040517f08c379a000000000000000000000000000000000000000000000000000000000815260040161140c90611d62565b60405180910390fd5b8273ffffffffffffffffffffffffffffffffffffffff1663a9059cbb82846040518363ffffffff1660e01b8152600401611450929190611c41565b602060405180830381600087803b15801561146a57600080fd5b505af115801561147e573d6000803e3d6000fd5b505050506040513d601f19601f820116820180604052508101906114a29190611a35565b50505050565b600560009054906101000a900460ff1681565b600260009054906101000a900473ffffffffffffffffffffffffffffffffffffffff1673ffffffffffffffffffffffffffffffffffffffff163373ffffffffffffffffffffffffffffffffffffffff161461154b576040517f08c379a000000000000000000000000000000000000000000000000000000000815260040161154290611d82565b60405180910390fd5b6277f8804261155a9190611e2b565b6003819055506001600560006101000a81548160ff021916908315150217905550565b600260009054906101000a900473ffffffffffffffffffffffffffffffffffffffff1673ffffffffffffffffffffffffffffffffffffffff163373ffffffffffffffffffffffffffffffffffffffff161461160d576040517f08c379a000000000000000000000000000000000000000000000000000000000815260040161160490611d82565b60405180910390fd5b600073ffffffffffffffffffffffffffffffffffffffff168173ffffffffffffffffffffffffffffffffffffffff16141561167d576040517f08c379a000000000000000000000000000000000000000000000000000000000815260040161167490611d62565b60405180910390fd5b6000600160009054906101000a900473ffffffffffffffffffffffffffffffffffffffff1673ffffffffffffffffffffffffffffffffffffffff166370a08231306040518263ffffffff1660e01b81526004016116da9190611c26565b60206040518083038186803b1580156116f257600080fd5b505afa158015611706573d6000803e3d6000fd5b505050506040513d601f19601f8201168201806040525081019061172a9190611a8f565b9050600160009054906101000a900473ffffffffffffffffffffffffffffffffffffffff1673ffffffffffffffffffffffffffffffffffffffff1663a9059cbb83836040518363ffffffff1660e01b8152600401611789929190611c41565b602060405180830381600087803b1580156117a357600080fd5b505af11580156117b7573d6000803e3d6000fd5b505050506040513d601f19601f820116820180604052508101906117db9190611a35565b505050565b6000813590506117ef81612183565b92915050565b60008083601f84011261180b5761180a61203f565b5b8235905067ffffffffffffffff8111156118285761182761203a565b5b60208301915083602082028301111561184457611843612044565b5b9250929050565b60008083601f8401126118615761186061203f565b5b8235905067ffffffffffffffff81111561187e5761187d61203a565b5b60208301915083602082028301111561189a57611899612044565b5b9250929050565b6000815190506118b08161219a565b92915050565b6000813590506118c5816121b1565b92915050565b6000815190506118da816121b1565b92915050565b6000602082840312156118f6576118f561204e565b5b6000611904848285016117e0565b91505092915050565b600080604083850312156119245761192361204e565b5b6000611932858286016117e0565b9250506020611943858286016118b6565b9150509250929050565b6000806000606084860312156119665761196561204e565b5b6000611974868287016117e0565b9350506020611985868287016118b6565b9250506040611996868287016117e0565b9150509250925092565b6000806000806000606086880312156119bc576119bb61204e565b5b600086013567ffffffffffffffff8111156119da576119d9612049565b5b6119e6888289016117f5565b9550955050602086013567ffffffffffffffff811115611a0957611a08612049565b5b611a158882890161184b565b93509350506040611a28888289016118b6565b9150509295509295909350565b600060208284031215611a4b57611a4a61204e565b5b6000611a59848285016118a1565b91505092915050565b600060208284031215611a7857611a7761204e565b5b6000611a86848285016118b6565b91505092915050565b600060208284031215611aa557611aa461204e565b5b6000611ab3848285016118cb565b91505092915050565b611ac581611e81565b82525050565b611ad481611e93565b82525050565b611ae381611ec9565b82525050565b6000611af482611e0f565b611afe8185611e1a565b9350611b0e818560208601611eff565b611b1781612053565b840191505092915050565b6000611b2f601183611e1a565b9150611b3a82612064565b602082019050919050565b6000611b52601283611e1a565b9150611b5d8261208d565b602082019050919050565b6000611b75601183611e1a565b9150611b80826120b6565b602082019050919050565b6000611b98601883611e1a565b9150611ba3826120df565b602082019050919050565b6000611bbb601083611e1a565b9150611bc682612108565b602082019050919050565b6000611bde601883611e1a565b9150611be982612131565b602082019050919050565b6000611c01600983611e1a565b9150611c0c8261215a565b602082019050919050565b611c2081611ebf565b82525050565b6000602082019050611c3b6000830184611abc565b92915050565b6000604082019050611c566000830185611abc565b611c636020830184611c17565b9392505050565b6000602082019050611c7f6000830184611acb565b92915050565b6000602082019050611c9a6000830184611ada565b92915050565b60006020820190508181036000830152611cba8184611ae9565b905092915050565b60006020820190508181036000830152611cdb81611b22565b9050919050565b60006020820190508181036000830152611cfb81611b45565b9050919050565b60006020820190508181036000830152611d1b81611b68565b9050919050565b60006020820190508181036000830152611d3b81611b8b565b9050919050565b60006020820190508181036000830152611d5b81611bae565b9050919050565b60006020820190508181036000830152611d7b81611bd1565b9050919050565b60006020820190508181036000830152611d9b81611bf4565b9050919050565b6000602082019050611db76000830184611c17565b92915050565b6000604082019050611dd26000830185611c17565b611ddf6020830184611acb565b9392505050565b6000604082019050611dfb6000830185611c17565b611e086020830184611c17565b9392505050565b600081519050919050565b600082825260208201905092915050565b6000611e3682611ebf565b9150611e4183611ebf565b9250827fffffffffffffffffffffffffffffffffffffffffffffffffffffffffffffffff03821115611e7657611e75611fad565b5b828201905092915050565b6000611e8c82611e9f565b9050919050565b60008115159050919050565b600073ffffffffffffffffffffffffffffffffffffffff82169050919050565b6000819050919050565b6000611ed482611edb565b9050919050565b6000611ee682611eed565b9050919050565b6000611ef882611e9f565b9050919050565b60005b83811015611f1d578082015181840152602081019050611f02565b83811115611f2c576000848401525b50505050565b60006002820490506001821680611f4a57607f821691505b60208210811415611f5e57611f5d611fdc565b5b50919050565b6000611f6f82611ebf565b91507fffffffffffffffffffffffffffffffffffffffffffffffffffffffffffffffff821415611fa257611fa1611fad565b5b600182019050919050565b7f4e487b7100000000000000000000000000000000000000000000000000000000600052601160045260246000fd5b7f4e487b7100000000000000000000000000000000000000000000000000000000600052602260045260246000fd5b7f4e487b7100000000000000000000000000000000000000000000000000000000600052603260045260246000fd5b600080fd5b600080fd5b600080fd5b600080fd5b600080fd5b6000601f19601f8301169050919050565b7f6c656e67746820646966666572656e6365000000000000000000000000000000600082015250565b7f73616d65206f776e657220616464726573730000000000000000000000000000600082015250565b7f6e6f742076616c69642061646472657373000000000000000000000000000000600082015250565b7f446973747269627574696f6e2077696e646f77206f7665720000000000000000600082015250565b7f68617665206265656e2072656465656d00000000000000000000000000000000600082015250565b7f73656e6420746f20746865207a65726f20616464726573730000000000000000600082015250565b7f6e6f74206f776e65720000000000000000000000000000000000000000000000600082015250565b61218c81611e81565b811461219757600080fd5b50565b6121a381611e93565b81146121ae57600080fd5b50565b6121ba81611ebf565b81146121c557600080fd5b5056fea26469706673582212205e0a1aaa6b9f406d632f3df456b812086206bacda96ff088f63b4826674fbf6164736f6c63430008070033",
  "immutableReferences": {},
  "source": "// SPDX-License-Identifier: UNLICENSED\r\n\r\npragma solidity ^0.8.0;\r\n\r\nimport \"./PurseTokenUpgradable.sol\";\r\n\r\ncontract PurseDistribution {\r\n    event claimReward(address indexed owner, uint256 amount, uint256 indexed Iteration);\r\n    event claimAllReward(address indexed owner, uint256 amount, uint256 Iteration_End);\r\n    event addHolder(address indexed sender, uint256 iteration);\r\n    event updateHolder(address indexed sender, uint256 iteration);\r\n    \r\n    string public name = \"Purse Distribution\";\r\n    PurseTokenUpgradable public purseToken;\r\n    address public owner;\r\n    uint256 public constant validDuration = 91 days;\r\n    uint256 public endDistribution;\r\n    uint256 internal distributionStart;\r\n    bool public isClaimStart;\r\n\r\n    mapping(address => mapping(uint256 => holderInfo)) public holder;   //address->index   \r\n    mapping(uint256 => uint256) public numOfHolder;\r\n\r\n    struct holderInfo {\r\n        uint256 distributeAmount;\r\n        bool isRedeem;\r\n    }\r\n    \r\n    modifier onlyOwner() {\r\n        require(msg.sender == owner, \"not owner\");\r\n        _;\r\n    }\r\n\r\n    constructor(PurseTokenUpgradable _purseToken) {\r\n        purseToken = _purseToken;\r\n        owner = msg.sender;\r\n        distributionStart = block.timestamp;\r\n    }\r\n\r\n    function addHolderInfo(address[] calldata _holder, uint256[] calldata _amount , uint256 iteration) public onlyOwner {\r\n        uint256 i = 0;\r\n        require(_holder.length == _amount.length, \"length difference\");\r\n        for (i; i < _holder.length; i++) {\r\n            if (_amount[i] > 0 && holder[_holder[i]][iteration].distributeAmount == 0) {\r\n                holder[_holder[i]][iteration] = holderInfo(_amount[i], false);\r\n                numOfHolder[iteration] += 1;\r\n            }\r\n        }\r\n        emit addHolder(msg.sender, iteration);\r\n    }\r\n\r\n    function updateHolderInfo(address[] calldata _holder, uint256[] calldata _amount , uint256 iteration) public onlyOwner {\r\n        uint256 i = 0;\r\n        require(_holder.length == _amount.length, \"length difference\");\r\n        for (i; i < _holder.length; i++) {\r\n            if (holder[_holder[i]][iteration].isRedeem == true) {\r\n                continue;\r\n            }\r\n            holder[_holder[i]][iteration] = holderInfo(_amount[i], false);\r\n        }\r\n        emit updateHolder(msg.sender, iteration);\r\n    }\r\n\r\n    function startClaim() public onlyOwner {\r\n        endDistribution = block.timestamp + validDuration;\r\n        isClaimStart = true;\r\n    }\r\n\r\n    function checkData(address[] calldata _holder, uint256[] calldata _amount, uint256 iteration) public view returns (uint256, bool) {\r\n        uint256 i = 0;\r\n        for (i; i < _holder.length; i++) {\r\n            if (holder[_holder[i]][iteration].distributeAmount != _amount[i]) {\r\n                return (i, false);\r\n            }\r\n        }\r\n        return (i, true);        \r\n    }\r\n\r\n    // Notice Transfers tokens held by timelock to beneficiary.\r\n    function claim(uint256 iteration) public {\r\n        require (isClaimStart == true);\r\n        require(block.timestamp < endDistribution, \"Distribution window over\");\r\n        require(holder[msg.sender][iteration].isRedeem == false, 'have been redeem');\r\n\r\n        holder[msg.sender][iteration].isRedeem = true;\r\n        uint256 claimAmount = holder[msg.sender][iteration].distributeAmount;\r\n        purseToken.transfer(msg.sender, claimAmount);\r\n        emit claimReward(msg.sender, claimAmount, iteration);\r\n    }\r\n\r\n    function claimAll(uint256 iteration_end) public {\r\n        require (isClaimStart == true);\r\n        require(block.timestamp < endDistribution, \"Distribution window over\");\r\n        uint256 claimAmount = 0;\r\n        for (uint256 i = 0; i <= iteration_end; i++) {\r\n                if (holder[msg.sender][i].isRedeem == false) {\r\n                    require(holder[msg.sender][i].isRedeem == false, 'have been redeem');\r\n                    holder[msg.sender][i].isRedeem = true;\r\n                    uint256 holderAmount = holder[msg.sender][i].distributeAmount;\r\n                    claimAmount += holderAmount;                    \r\n                }\r\n        }\r\n        if (claimAmount > 0) {\r\n            purseToken.transfer(msg.sender, claimAmount);\r\n        }\r\n        emit claimAllReward(msg.sender, claimAmount, iteration_end);\r\n    }\r\n    \r\n    function returnPurseToken(address _to) public onlyOwner {\r\n        require(_to != address(0), \"send to the zero address\");\r\n        uint256 remainingAmount = purseToken.balanceOf(address(this));\r\n        purseToken.transfer(_to, remainingAmount);\r\n    }\r\n\r\n    function returnAnyToken(address token, uint256 amount, address _to) public onlyOwner{\r\n        require(_to != address(0), \"send to the zero address\");\r\n        ERC20Interface(token).transfer(_to, amount);\r\n    } \r\n\r\n    function updateOwner(address _owner) public onlyOwner{\r\n        require(_owner != address(0), \"not valid address\");\r\n        require(_owner != owner, \"same owner address\");\r\n        owner = _owner;\r\n    } \r\n}\r\n",
  "sourcePath": "C:/Users/cheek/Desktop/Developer doc/Visual Studio Code/PundiX/YieldFarm_BridgeEthBsc/src/contracts/PurseDistribution.sol",
  "compiler": {
    "name": "solc",
    "version": "0.8.7+commit.e28d00a7.Emscripten.clang"
  },
  "schemaVersion": "3.2.3",
  "updatedAt": "2021-09-16T02:17:27.532Z",
  "networkType": "ethereum",
  "devdoc": {
    "kind": "dev",
    "methods": {},
    "version": 1
  },
  "userdoc": {
    "kind": "user",
    "methods": {},
    "version": 1
  }
}