{
  "contractName": "PurseTokenUpgradable",
  "abi": [
    {
      "anonymous": false,
      "inputs": [
        {
          "indexed": false,
          "internalType": "address",
          "name": "previousAdmin",
          "type": "address"
        },
        {
          "indexed": false,
          "internalType": "address",
          "name": "newAdmin",
          "type": "address"
        }
      ],
      "name": "AdminChanged",
      "type": "event"
    },
    {
      "anonymous": false,
      "inputs": [
        {
          "indexed": true,
          "internalType": "address",
          "name": "_owner",
          "type": "address"
        },
        {
          "indexed": true,
          "internalType": "address",
          "name": "_spender",
          "type": "address"
        },
        {
          "indexed": false,
          "internalType": "uint256",
          "name": "_value",
          "type": "uint256"
        }
      ],
      "name": "Approval",
      "type": "event"
    },
    {
      "anonymous": false,
      "inputs": [
        {
          "indexed": true,
          "internalType": "address",
          "name": "beacon",
          "type": "address"
        }
      ],
      "name": "BeaconUpgraded",
      "type": "event"
    },
    {
      "anonymous": false,
      "inputs": [
        {
          "indexed": true,
          "internalType": "address",
          "name": "_from",
          "type": "address"
        },
        {
          "indexed": false,
          "internalType": "uint256",
          "name": "_value",
          "type": "uint256"
        }
      ],
      "name": "Burn",
      "type": "event"
    },
    {
      "anonymous": false,
      "inputs": [
        {
          "indexed": true,
          "internalType": "address",
          "name": "_from",
          "type": "address"
        },
        {
          "indexed": true,
          "internalType": "address",
          "name": "_to",
          "type": "address"
        },
        {
          "indexed": false,
          "internalType": "uint256",
          "name": "_value",
          "type": "uint256"
        }
      ],
      "name": "Mint",
      "type": "event"
    },
    {
      "anonymous": false,
      "inputs": [
        {
          "indexed": true,
          "internalType": "address",
          "name": "previousOwner",
          "type": "address"
        },
        {
          "indexed": true,
          "internalType": "address",
          "name": "newOwner",
          "type": "address"
        }
      ],
      "name": "OwnershipTransferred",
      "type": "event"
    },
    {
      "anonymous": false,
      "inputs": [
        {
          "indexed": false,
          "internalType": "address",
          "name": "account",
          "type": "address"
        }
      ],
      "name": "Paused",
      "type": "event"
    },
    {
      "anonymous": false,
      "inputs": [
        {
          "indexed": true,
          "internalType": "address",
          "name": "_from",
          "type": "address"
        },
        {
          "indexed": true,
          "internalType": "address",
          "name": "_to",
          "type": "address"
        },
        {
          "indexed": false,
          "internalType": "uint256",
          "name": "_value",
          "type": "uint256"
        }
      ],
      "name": "Transfer",
      "type": "event"
    },
    {
      "anonymous": false,
      "inputs": [
        {
          "indexed": false,
          "internalType": "address",
          "name": "account",
          "type": "address"
        }
      ],
      "name": "Unpaused",
      "type": "event"
    },
    {
      "anonymous": false,
      "inputs": [
        {
          "indexed": true,
          "internalType": "address",
          "name": "implementation",
          "type": "address"
        }
      ],
      "name": "Upgraded",
      "type": "event"
    },
    {
      "inputs": [],
      "name": "_averageInterval",
      "outputs": [
        {
          "internalType": "uint256",
          "name": "",
          "type": "uint256"
        }
      ],
      "stateMutability": "view",
      "type": "function",
      "constant": true
    },
    {
      "inputs": [],
      "name": "_getRewardEndTime",
      "outputs": [
        {
          "internalType": "uint256",
          "name": "",
          "type": "uint256"
        }
      ],
      "stateMutability": "view",
      "type": "function",
      "constant": true
    },
    {
      "inputs": [],
      "name": "_getRewardStartTime",
      "outputs": [
        {
          "internalType": "uint256",
          "name": "",
          "type": "uint256"
        }
      ],
      "stateMutability": "view",
      "type": "function",
      "constant": true
    },
    {
      "inputs": [],
      "name": "_lastRewardStartTime",
      "outputs": [
        {
          "internalType": "uint256",
          "name": "",
          "type": "uint256"
        }
      ],
      "stateMutability": "view",
      "type": "function",
      "constant": true
    },
    {
      "inputs": [],
      "name": "_monthlyDistributePr",
      "outputs": [
        {
          "internalType": "uint256",
          "name": "",
          "type": "uint256"
        }
      ],
      "stateMutability": "view",
      "type": "function",
      "constant": true
    },
    {
      "inputs": [],
      "name": "_numOfDaysPerMth",
      "outputs": [
        {
          "internalType": "uint256",
          "name": "",
          "type": "uint256"
        }
      ],
      "stateMutability": "view",
      "type": "function",
      "constant": true
    },
    {
      "inputs": [],
      "name": "_percentageDistribute",
      "outputs": [
        {
          "internalType": "uint256",
          "name": "",
          "type": "uint256"
        }
      ],
      "stateMutability": "view",
      "type": "function",
      "constant": true
    },
    {
      "inputs": [],
      "name": "_totalSupply",
      "outputs": [
        {
          "internalType": "uint256",
          "name": "",
          "type": "uint256"
        }
      ],
      "stateMutability": "view",
      "type": "function",
      "constant": true
    },
    {
      "inputs": [
        {
          "internalType": "address",
          "name": "",
          "type": "address"
        }
      ],
      "name": "accAmount",
      "outputs": [
        {
          "internalType": "uint256",
          "name": "amount",
          "type": "uint256"
        },
        {
          "internalType": "uint256",
          "name": "lastUpdateTime",
          "type": "uint256"
        }
      ],
      "stateMutability": "view",
      "type": "function",
      "constant": true
    },
    {
      "inputs": [
        {
          "internalType": "uint256",
          "name": "",
          "type": "uint256"
        }
      ],
      "name": "admins",
      "outputs": [
        {
          "internalType": "address",
          "name": "",
          "type": "address"
        }
      ],
      "stateMutability": "view",
      "type": "function",
      "constant": true
    },
    {
      "inputs": [
        {
          "internalType": "address",
          "name": "",
          "type": "address"
        },
        {
          "internalType": "address",
          "name": "",
          "type": "address"
        }
      ],
      "name": "allowance",
      "outputs": [
        {
          "internalType": "uint256",
          "name": "",
          "type": "uint256"
        }
      ],
      "stateMutability": "view",
      "type": "function",
      "constant": true
    },
    {
      "inputs": [
        {
          "internalType": "address",
          "name": "",
          "type": "address"
        }
      ],
      "name": "balanceOf",
      "outputs": [
        {
          "internalType": "uint256",
          "name": "",
          "type": "uint256"
        }
      ],
      "stateMutability": "view",
      "type": "function",
      "constant": true
    },
    {
      "inputs": [],
      "name": "burnPercent",
      "outputs": [
        {
          "internalType": "uint256",
          "name": "",
          "type": "uint256"
        }
      ],
      "stateMutability": "view",
      "type": "function",
      "constant": true
    },
    {
      "inputs": [],
      "name": "decimals",
      "outputs": [
        {
          "internalType": "uint8",
          "name": "",
          "type": "uint8"
        }
      ],
      "stateMutability": "view",
      "type": "function",
      "constant": true
    },
    {
      "inputs": [],
      "name": "disPercent",
      "outputs": [
        {
          "internalType": "uint256",
          "name": "",
          "type": "uint256"
        }
      ],
      "stateMutability": "view",
      "type": "function",
      "constant": true
    },
    {
      "inputs": [],
      "name": "disPool",
      "outputs": [
        {
          "internalType": "address",
          "name": "",
          "type": "address"
        }
      ],
      "stateMutability": "view",
      "type": "function",
      "constant": true
    },
    {
      "inputs": [
        {
          "internalType": "address",
          "name": "",
          "type": "address"
        }
      ],
      "name": "isAdmin",
      "outputs": [
        {
          "internalType": "bool",
          "name": "",
          "type": "bool"
        }
      ],
      "stateMutability": "view",
      "type": "function",
      "constant": true
    },
    {
      "inputs": [
        {
          "internalType": "address",
          "name": "",
          "type": "address"
        }
      ],
      "name": "isWhitelistedFrom",
      "outputs": [
        {
          "internalType": "bool",
          "name": "",
          "type": "bool"
        }
      ],
      "stateMutability": "view",
      "type": "function",
      "constant": true
    },
    {
      "inputs": [
        {
          "internalType": "address",
          "name": "",
          "type": "address"
        }
      ],
      "name": "isWhitelistedTo",
      "outputs": [
        {
          "internalType": "bool",
          "name": "",
          "type": "bool"
        }
      ],
      "stateMutability": "view",
      "type": "function",
      "constant": true
    },
    {
      "inputs": [],
      "name": "liqPercent",
      "outputs": [
        {
          "internalType": "uint256",
          "name": "",
          "type": "uint256"
        }
      ],
      "stateMutability": "view",
      "type": "function",
      "constant": true
    },
    {
      "inputs": [],
      "name": "liqPool",
      "outputs": [
        {
          "internalType": "address",
          "name": "",
          "type": "address"
        }
      ],
      "stateMutability": "view",
      "type": "function",
      "constant": true
    },
    {
      "inputs": [],
      "name": "name",
      "outputs": [
        {
          "internalType": "string",
          "name": "",
          "type": "string"
        }
      ],
      "stateMutability": "view",
      "type": "function",
      "constant": true
    },
    {
      "inputs": [],
      "name": "owner",
      "outputs": [
        {
          "internalType": "address",
          "name": "",
          "type": "address"
        }
      ],
      "stateMutability": "view",
      "type": "function",
      "constant": true
    },
    {
      "inputs": [],
      "name": "paused",
      "outputs": [
        {
          "internalType": "bool",
          "name": "",
          "type": "bool"
        }
      ],
      "stateMutability": "view",
      "type": "function",
      "constant": true
    },
    {
      "inputs": [],
      "name": "renounceOwnership",
      "outputs": [],
      "stateMutability": "nonpayable",
      "type": "function"
    },
    {
      "inputs": [],
      "name": "symbol",
      "outputs": [
        {
          "internalType": "string",
          "name": "",
          "type": "string"
        }
      ],
      "stateMutability": "view",
      "type": "function",
      "constant": true
    },
    {
      "inputs": [],
      "name": "totalSupply",
      "outputs": [
        {
          "internalType": "uint256",
          "name": "",
          "type": "uint256"
        }
      ],
      "stateMutability": "view",
      "type": "function",
      "constant": true
    },
    {
      "inputs": [
        {
          "internalType": "address",
          "name": "newOwner",
          "type": "address"
        }
      ],
      "name": "transferOwnership",
      "outputs": [],
      "stateMutability": "nonpayable",
      "type": "function"
    },
    {
      "inputs": [
        {
          "internalType": "address",
          "name": "newImplementation",
          "type": "address"
        }
      ],
      "name": "upgradeTo",
      "outputs": [],
      "stateMutability": "nonpayable",
      "type": "function"
    },
    {
      "inputs": [
        {
          "internalType": "address",
          "name": "newImplementation",
          "type": "address"
        },
        {
          "internalType": "bytes",
          "name": "data",
          "type": "bytes"
        }
      ],
      "name": "upgradeToAndCall",
      "outputs": [],
      "stateMutability": "payable",
      "type": "function",
      "payable": true
    },
    {
      "inputs": [
        {
          "internalType": "address",
          "name": "_to",
          "type": "address"
        },
        {
          "internalType": "uint256",
          "name": "_value",
          "type": "uint256"
        }
      ],
      "name": "transfer",
      "outputs": [
        {
          "internalType": "bool",
          "name": "success",
          "type": "bool"
        }
      ],
      "stateMutability": "nonpayable",
      "type": "function"
    },
    {
      "inputs": [
        {
          "internalType": "address",
          "name": "_spender",
          "type": "address"
        },
        {
          "internalType": "uint256",
          "name": "_value",
          "type": "uint256"
        }
      ],
      "name": "approve",
      "outputs": [
        {
          "internalType": "bool",
          "name": "success",
          "type": "bool"
        }
      ],
      "stateMutability": "nonpayable",
      "type": "function"
    },
    {
      "inputs": [
        {
          "internalType": "address",
          "name": "_from",
          "type": "address"
        },
        {
          "internalType": "address",
          "name": "_to",
          "type": "address"
        },
        {
          "internalType": "uint256",
          "name": "_value",
          "type": "uint256"
        }
      ],
      "name": "transferFrom",
      "outputs": [
        {
          "internalType": "bool",
          "name": "success",
          "type": "bool"
        }
      ],
      "stateMutability": "nonpayable",
      "type": "function"
    },
    {
      "inputs": [
        {
          "internalType": "address",
          "name": "_account",
          "type": "address"
        },
        {
          "internalType": "uint256",
          "name": "_amount",
          "type": "uint256"
        }
      ],
      "name": "mint",
      "outputs": [],
      "stateMutability": "nonpayable",
      "type": "function"
    },
    {
      "inputs": [
        {
          "internalType": "uint256",
          "name": "_amount",
          "type": "uint256"
        }
      ],
      "name": "burn",
      "outputs": [],
      "stateMutability": "nonpayable",
      "type": "function"
    },
    {
      "inputs": [],
      "name": "claimDistributionPurse",
      "outputs": [
        {
          "internalType": "bool",
          "name": "success",
          "type": "bool"
        }
      ],
      "stateMutability": "nonpayable",
      "type": "function"
    },
    {
      "inputs": [
        {
          "internalType": "uint256",
          "name": "_rewardStartTime",
          "type": "uint256"
        },
        {
          "internalType": "uint256",
          "name": "_rewardEndTime",
          "type": "uint256"
        },
        {
          "internalType": "uint256",
          "name": "_monthlyDisPr",
          "type": "uint256"
        },
        {
          "internalType": "uint256",
          "name": "_numOfDays",
          "type": "uint256"
        },
        {
          "internalType": "uint256",
          "name": "_percentage",
          "type": "uint256"
        }
      ],
      "name": "activateClaimMonthly",
      "outputs": [],
      "stateMutability": "nonpayable",
      "type": "function"
    },
    {
      "inputs": [
        {
          "internalType": "address",
          "name": "_newLPool",
          "type": "address"
        }
      ],
      "name": "updateLPoolAdd",
      "outputs": [],
      "stateMutability": "nonpayable",
      "type": "function"
    },
    {
      "inputs": [
        {
          "internalType": "address",
          "name": "_newDPool",
          "type": "address"
        }
      ],
      "name": "updateDPoolAdd",
      "outputs": [],
      "stateMutability": "nonpayable",
      "type": "function"
    },
    {
      "inputs": [
        {
          "internalType": "uint256",
          "name": "_newDisPercent",
          "type": "uint256"
        },
        {
          "internalType": "uint256",
          "name": "_newLiqPercent",
          "type": "uint256"
        },
        {
          "internalType": "uint256",
          "name": "_newBurnPercent",
          "type": "uint256"
        }
      ],
      "name": "updatePercent",
      "outputs": [],
      "stateMutability": "nonpayable",
      "type": "function"
    },
    {
      "inputs": [
        {
          "internalType": "address",
          "name": "newAdmin",
          "type": "address"
        }
      ],
      "name": "addAdmin",
      "outputs": [],
      "stateMutability": "nonpayable",
      "type": "function"
    },
    {
      "inputs": [
        {
          "internalType": "uint256",
          "name": "index",
          "type": "uint256"
        }
      ],
      "name": "removeAdmin",
      "outputs": [
        {
          "internalType": "address[]",
          "name": "",
          "type": "address[]"
        }
      ],
      "stateMutability": "nonpayable",
      "type": "function"
    },
    {
      "inputs": [
        {
          "internalType": "address",
          "name": "token",
          "type": "address"
        },
        {
          "internalType": "uint256",
          "name": "amount",
          "type": "uint256"
        },
        {
          "internalType": "address",
          "name": "_to",
          "type": "address"
        }
      ],
      "name": "transferERCToken",
      "outputs": [],
      "stateMutability": "nonpayable",
      "type": "function"
    },
    {
      "inputs": [],
      "name": "pause",
      "outputs": [],
      "stateMutability": "nonpayable",
      "type": "function"
    },
    {
      "inputs": [],
      "name": "unpause",
      "outputs": [],
      "stateMutability": "nonpayable",
      "type": "function"
    },
    {
      "inputs": [
        {
          "internalType": "address",
          "name": "newWhitelist",
          "type": "address"
        }
      ],
      "name": "setWhitelistedTo",
      "outputs": [],
      "stateMutability": "nonpayable",
      "type": "function"
    },
    {
      "inputs": [
        {
          "internalType": "address",
          "name": "newWhitelist",
          "type": "address"
        }
      ],
      "name": "removeWhitelistedTo",
      "outputs": [],
      "stateMutability": "nonpayable",
      "type": "function"
    },
    {
      "inputs": [
        {
          "internalType": "address",
          "name": "newWhitelist",
          "type": "address"
        }
      ],
      "name": "setWhitelistedFrom",
      "outputs": [],
      "stateMutability": "nonpayable",
      "type": "function"
    },
    {
      "inputs": [
        {
          "internalType": "address",
          "name": "newWhitelist",
          "type": "address"
        }
      ],
      "name": "removeWhitelistedFrom",
      "outputs": [],
      "stateMutability": "nonpayable",
      "type": "function"
    },
    {
      "inputs": [
        {
          "internalType": "address",
          "name": "_to",
          "type": "address"
        },
        {
          "internalType": "address",
          "name": "_lPool",
          "type": "address"
        },
        {
          "internalType": "uint256",
          "name": "_burnPercent",
          "type": "uint256"
        },
        {
          "internalType": "uint256",
          "name": "_liqPercent",
          "type": "uint256"
        },
        {
          "internalType": "uint256",
          "name": "_disPercent",
          "type": "uint256"
        }
      ],
      "name": "initialize",
      "outputs": [],
      "stateMutability": "nonpayable",
      "type": "function"
    }
  ],
  "bytecode": "0x608060405234801561001057600080fd5b50615e0c80620000216000396000f3fe6080604052600436106102c95760003560e01c80635c975abb11610175578063b7c74bd3116100dc578063d13f90b411610095578063dd62ed3e1161006f578063dd62ed3e14610ada578063e2657da114610b17578063f2fde38b14610b40578063f756724414610b69576102c9565b8063d13f90b414610a5d578063d552920414610a86578063d5b8ddf814610ab1576102c9565b8063b7c74bd31461093a578063bab3844014610978578063bc8d571d146109a1578063c43c082f146109cc578063c6ef9246146109f5578063ca04d2d814610a20576102c9565b80638456cb591161012e5780638456cb59146108285780638da5cb5b1461083f57806395d89b411461086a57806395e96ff114610895578063a9059cbb146108c0578063ad7bbc29146108fd576102c9565b80635c975abb1461072a578063704802751461075557806370a082311461077e578063715018a6146107bb578063740b91f4146107d25780637888f7b2146107fd576102c9565b8063347d34c61161023457806340c10f19116101ed5780634d28b4ba116101c75780634d28b4ba1461067d5780634f1ef286146106a65780635422e495146106c25780635b014029146106ed576102c9565b806340c10f191461060257806342966c681461062b578063434f923714610654576102c9565b8063347d34c61461051a57806335e8b82e146105455780633659cfe61461056e5780633838d4e3146105975780633eaaf86b146105c05780633f4ba83a146105eb576102c9565b806318160ddd1161028657806318160ddd146103f457806320b1e78a1461041f57806323b872dd1461044a57806324d7806c1461048757806327ba6e11146104c4578063313ce567146104ef576102c9565b806303807ee5146102ce57806306fdde03146102f9578063095ea7b3146103245780630f4307e21461036157806311a6c16c1461038c57806314bfd6d0146103b7575b600080fd5b3480156102da57600080fd5b506102e3610b92565b6040516102f091906156ad565b60405180910390f35b34801561030557600080fd5b5061030e610b99565b60405161031b919061558b565b60405180910390f35b34801561033057600080fd5b5061034b600480360381019061034691906150f5565b610c27565b6040516103589190615570565b60405180910390f35b34801561036d57600080fd5b50610376610d62565b60405161038391906156ad565b60405180910390f35b34801561039857600080fd5b506103a1610d69565b6040516103ae9190615570565b60405180910390f35b3480156103c357600080fd5b506103de60048036038101906103d991906151b5565b610ff9565b6040516103eb919061550a565b60405180910390f35b34801561040057600080fd5b50610409611039565b60405161041691906156ad565b60405180910390f35b34801561042b57600080fd5b5061043461103f565b60405161044191906156ad565b60405180910390f35b34801561045657600080fd5b50610471600480360381019061046c9190614fcb565b611046565b60405161047e9190615570565b60405180910390f35b34801561049357600080fd5b506104ae60048036038101906104a99190614f5e565b6115a3565b6040516104bb9190615570565b60405180910390f35b3480156104d057600080fd5b506104d96115c4565b6040516104e6919061550a565b60405180910390f35b3480156104fb57600080fd5b506105046115eb565b60405161051191906156f1565b60405180910390f35b34801561052657600080fd5b5061052f6115fe565b60405161053c91906156ad565b60405180910390f35b34801561055157600080fd5b5061056c60048036038101906105679190614f5e565b611605565b005b34801561057a57600080fd5b5061059560048036038101906105909190614f5e565b611722565b005b3480156105a357600080fd5b506105be60048036038101906105b99190614f5e565b611749565b005b3480156105cc57600080fd5b506105d5611879565b6040516105e291906156ad565b60405180910390f35b3480156105f757600080fd5b50610600611880565b005b34801561060e57600080fd5b50610629600480360381019061062491906150f5565b61194d565b005b34801561063757600080fd5b50610652600480360381019061064d91906151b5565b611b0a565b005b34801561066057600080fd5b5061067b60048036038101906106769190615235565b611c78565b005b34801561068957600080fd5b506106a4600480360381019061069f9190614f5e565b611d6a565b005b6106c060048036038101906106bb9190615099565b611e99565b005b3480156106ce57600080fd5b506106d7611eb2565b6040516106e491906156ad565b60405180910390f35b3480156106f957600080fd5b50610714600480360381019061070f9190614f5e565b611eb9565b6040516107219190615570565b60405180910390f35b34801561073657600080fd5b5061073f611eda565b60405161074c9190615570565b60405180910390f35b34801561076157600080fd5b5061077c60048036038101906107779190614f5e565b611ef1565b005b34801561078a57600080fd5b506107a560048036038101906107a09190614f5e565b612085565b6040516107b291906156ad565b60405180910390f35b3480156107c757600080fd5b506107d061209e565b005b3480156107de57600080fd5b506107e7612126565b6040516107f4919061550a565b60405180910390f35b34801561080957600080fd5b5061081261214d565b60405161081f91906156ad565b60405180910390f35b34801561083457600080fd5b5061083d612154565b005b34801561084b57600080fd5b50610854612222565b604051610861919061550a565b60405180910390f35b34801561087657600080fd5b5061087f61224c565b60405161088c919061558b565b60405180910390f35b3480156108a157600080fd5b506108aa6122da565b6040516108b791906156ad565b60405180910390f35b3480156108cc57600080fd5b506108e760048036038101906108e291906150f5565b6122e1565b6040516108f49190615570565b60405180910390f35b34801561090957600080fd5b50610924600480360381019061091f91906151b5565b61268b565b604051610931919061554e565b60405180910390f35b34801561094657600080fd5b50610961600480360381019061095c9190614f5e565b6129c4565b60405161096f9291906156c8565b60405180910390f35b34801561098457600080fd5b5061099f600480360381019061099a9190614f5e565b6129e9565b005b3480156109ad57600080fd5b506109b6612b06565b6040516109c391906156ad565b60405180910390f35b3480156109d857600080fd5b506109f360048036038101906109ee91906151e2565b612b0d565b005b348015610a0157600080fd5b50610a0a612bf5565b604051610a1791906156ad565b60405180910390f35b348015610a2c57600080fd5b50610a476004803603810190610a429190614f5e565b612bfc565b604051610a549190615570565b60405180910390f35b348015610a6957600080fd5b50610a846004803603810190610a7f919061501e565b612c1d565b005b348015610a9257600080fd5b50610a9b612ffc565b604051610aa891906156ad565b60405180910390f35b348015610abd57600080fd5b50610ad86004803603810190610ad39190615135565b613003565b005b348015610ae657600080fd5b50610b016004803603810190610afc9190614f8b565b613266565b604051610b0e91906156ad565b60405180910390f35b348015610b2357600080fd5b50610b3e6004803603810190610b399190614f5e565b61328c565b005b348015610b4c57600080fd5b50610b676004803603810190610b629190614f5e565b6133bb565b005b348015610b7557600080fd5b50610b906004803603810190610b8b9190614f5e565b6134b3565b005b6101035481565b60fb8054610ba690615979565b80601f0160208091040260200160405190810160405280929190818152602001828054610bd290615979565b8015610c1f5780601f10610bf457610100808354040283529160200191610c1f565b820191906000526020600020905b815481529060010190602001808311610c0257829003601f168201915b505050505081565b6000610c31611eda565b15610c71576040517f08c379a0000000000000000000000000000000000000000000000000000000008152600401610c689061560d565b60405180910390fd5b8161010f60003373ffffffffffffffffffffffffffffffffffffffff1673ffffffffffffffffffffffffffffffffffffffff16815260200190815260200160002060008573ffffffffffffffffffffffffffffffffffffffff1673ffffffffffffffffffffffffffffffffffffffff168152602001908152602001600020819055508273ffffffffffffffffffffffffffffffffffffffff163373ffffffffffffffffffffffffffffffffffffffff167f8c5be1e5ebec7d5bd14f71427d1e84f3dd0314c0f7b2291e5b200ac8c7c3b92584604051610d5091906156ad565b60405180910390a36001905092915050565b61010a5481565b6000610d73611eda565b15610db3576040517f08c379a0000000000000000000000000000000000000000000000000000000008152600401610daa9061560d565b60405180910390fd5b610107544210610dc257600080fd5b610108544211610dd157600080fd5b6101085461011360003373ffffffffffffffffffffffffffffffffffffffff1673ffffffffffffffffffffffffffffffffffffffff1681526020019081526020016000206001015410610e2357600080fd5b610e2c336135e3565b60006127106101095461010d54606461010b5461010a5461011360003373ffffffffffffffffffffffffffffffffffffffff1673ffffffffffffffffffffffffffffffffffffffff16815260200190815260200160002060000154610e919190615854565b610e9b9190615854565b610ea59190615854565b610eaf9190615823565b610eb99190615823565b610ec39190615823565b90506101085461011360003373ffffffffffffffffffffffffffffffffffffffff1673ffffffffffffffffffffffffffffffffffffffff16815260200190815260200160002060010181905550600061011360003373ffffffffffffffffffffffffffffffffffffffff1673ffffffffffffffffffffffffffffffffffffffff16815260200190815260200160002060000181905550610f6333426135f3565b3073ffffffffffffffffffffffffffffffffffffffff1663a9059cbb33836040518363ffffffff1660e01b8152600401610f9e929190615525565b602060405180830381600087803b158015610fb857600080fd5b505af1158015610fcc573d6000803e3d6000fd5b505050506040513d601f19601f82011682018060405250810190610ff09190615188565b50600191505090565b610100818154811061100a57600080fd5b906000526020600020016000915054906101000a900473ffffffffffffffffffffffffffffffffffffffff1681565b60fd5481565b61010b5481565b6000611050611eda565b15611090576040517f08c379a00000000000000000000000000000000000000000000000000000000081526004016110879061560d565b60405180910390fd5b600082101561109e57600080fd5b61010e60008573ffffffffffffffffffffffffffffffffffffffff1673ffffffffffffffffffffffffffffffffffffffff168152602001908152602001600020548211156110eb57600080fd5b61010f60008573ffffffffffffffffffffffffffffffffffffffff1673ffffffffffffffffffffffffffffffffffffffff16815260200190815260200160002060003373ffffffffffffffffffffffffffffffffffffffff1673ffffffffffffffffffffffffffffffffffffffff1681526020019081526020016000205482111561117557600080fd5b61011160008473ffffffffffffffffffffffffffffffffffffffff1673ffffffffffffffffffffffffffffffffffffffff16815260200190815260200160002060009054906101000a900460ff1680611218575061011260003373ffffffffffffffffffffffffffffffffffffffff1673ffffffffffffffffffffffffffffffffffffffff16815260200190815260200160002060009054906101000a900460ff165b156113d7578161010f60008673ffffffffffffffffffffffffffffffffffffffff1673ffffffffffffffffffffffffffffffffffffffff16815260200190815260200160002060003373ffffffffffffffffffffffffffffffffffffffff1673ffffffffffffffffffffffffffffffffffffffff16815260200190815260200160002060008282546112aa91906158ae565b925050819055506112bb8484613982565b8161010e60008673ffffffffffffffffffffffffffffffffffffffff1673ffffffffffffffffffffffffffffffffffffffff168152602001908152602001600020600082825461130b91906158ae565b925050819055508161010e60008573ffffffffffffffffffffffffffffffffffffffff1673ffffffffffffffffffffffffffffffffffffffff168152602001908152602001600020600082825461136291906157cd565b925050819055508273ffffffffffffffffffffffffffffffffffffffff168473ffffffffffffffffffffffffffffffffffffffff167fddf252ad1be2c89b69c2b068fc378daa952ba7f163c4a11628f55a4df523b3ef846040516113c691906156ad565b60405180910390a36001905061159c565b8161010f60008673ffffffffffffffffffffffffffffffffffffffff1673ffffffffffffffffffffffffffffffffffffffff16815260200190815260200160002060003373ffffffffffffffffffffffffffffffffffffffff1673ffffffffffffffffffffffffffffffffffffffff168152602001908152602001600020600082825461146491906158ae565b925050819055506114758484613982565b6000611481838661399a565b90508061010e60008773ffffffffffffffffffffffffffffffffffffffff1673ffffffffffffffffffffffffffffffffffffffff16815260200190815260200160002060008282546114d391906158ae565b925050819055508061010e60008673ffffffffffffffffffffffffffffffffffffffff1673ffffffffffffffffffffffffffffffffffffffff168152602001908152602001600020600082825461152a91906157cd565b925050819055508373ffffffffffffffffffffffffffffffffffffffff168573ffffffffffffffffffffffffffffffffffffffff167fddf252ad1be2c89b69c2b068fc378daa952ba7f163c4a11628f55a4df523b3ef8360405161158e91906156ad565b60405180910390a360019150505b9392505050565b6101106020528060005260406000206000915054906101000a900460ff1681565b61010260009054906101000a900473ffffffffffffffffffffffffffffffffffffffff1681565b60fe60009054906101000a900460ff1681565b6101065481565b61160d613a1b565b73ffffffffffffffffffffffffffffffffffffffff1661162b612222565b73ffffffffffffffffffffffffffffffffffffffff1614611681576040517f08c379a00000000000000000000000000000000000000000000000000000000081526004016116789061566d565b60405180910390fd5b61010160009054906101000a900473ffffffffffffffffffffffffffffffffffffffff1673ffffffffffffffffffffffffffffffffffffffff168173ffffffffffffffffffffffffffffffffffffffff1614156116dd57600080fd5b8061010160006101000a81548173ffffffffffffffffffffffffffffffffffffffff021916908373ffffffffffffffffffffffffffffffffffffffff16021790555050565b61172b81613a23565b61174681604051806020016040528060008152506000613aa2565b50565b611751613a1b565b73ffffffffffffffffffffffffffffffffffffffff1661176f612222565b73ffffffffffffffffffffffffffffffffffffffff16146117c5576040517f08c379a00000000000000000000000000000000000000000000000000000000081526004016117bc9061566d565b60405180910390fd5b61011260008273ffffffffffffffffffffffffffffffffffffffff1673ffffffffffffffffffffffffffffffffffffffff16815260200190815260200160002060009054906101000a900460ff161561181d57600080fd5b600161011260008373ffffffffffffffffffffffffffffffffffffffff1673ffffffffffffffffffffffffffffffffffffffff16815260200190815260200160002060006101000a81548160ff02191690831515021790555050565b61010d5481565b611888611eda565b6118c7576040517f08c379a00000000000000000000000000000000000000000000000000000000081526004016118be906155ad565b60405180910390fd5b6118cf613a1b565b73ffffffffffffffffffffffffffffffffffffffff166118ed612222565b73ffffffffffffffffffffffffffffffffffffffff1614611943576040517f08c379a000000000000000000000000000000000000000000000000000000000815260040161193a9061566d565b60405180910390fd5b61194b613c73565b565b611955611eda565b15611995576040517f08c379a000000000000000000000000000000000000000000000000000000000815260040161198c9061560d565b60405180910390fd5b61011060003373ffffffffffffffffffffffffffffffffffffffff1673ffffffffffffffffffffffffffffffffffffffff16815260200190815260200160002060009054906101000a900460ff166119ec57600080fd5b600073ffffffffffffffffffffffffffffffffffffffff168273ffffffffffffffffffffffffffffffffffffffff161415611a2657600080fd5b611a3082426135f3565b8061010e60008473ffffffffffffffffffffffffffffffffffffffff1673ffffffffffffffffffffffffffffffffffffffff1681526020019081526020016000206000828254611a8091906157cd565b925050819055508060fd6000828254611a9991906157cd565b925050819055508173ffffffffffffffffffffffffffffffffffffffff16600073ffffffffffffffffffffffffffffffffffffffff167fab8530f87dc9b59234c4623bf917212bb2536d647574c8e7e5da92c2ede0c9f883604051611afe91906156ad565b60405180910390a35050565b611b12611eda565b15611b52576040517f08c379a0000000000000000000000000000000000000000000000000000000008152600401611b499061560d565b60405180910390fd5b6000811415611b6057600080fd5b8061010e60003373ffffffffffffffffffffffffffffffffffffffff1673ffffffffffffffffffffffffffffffffffffffff168152602001908152602001600020541015611bad57600080fd5b611bb733426135f3565b8061010e60003373ffffffffffffffffffffffffffffffffffffffff1673ffffffffffffffffffffffffffffffffffffffff1681526020019081526020016000206000828254611c0791906158ae565b925050819055508060fd6000828254611c2091906158ae565b925050819055503373ffffffffffffffffffffffffffffffffffffffff167fcc16f5dbb4873280815c1ee09dbd06736cffcc184412cf7a71a0fdb75d397ca582604051611c6d91906156ad565b60405180910390a250565b611c80613a1b565b73ffffffffffffffffffffffffffffffffffffffff16611c9e612222565b73ffffffffffffffffffffffffffffffffffffffff1614611cf4576040517f08c379a0000000000000000000000000000000000000000000000000000000008152600401611ceb9061566d565b60405180910390fd5b428511611d0057600080fd5b848411611d0c57600080fd5b60008211611d1957600080fd5b60008111611d2657600080fd5b60fd5461010d819055506101085461010c819055508161010981905550846101088190555083610107819055508061010b819055508261010a819055505050505050565b611d72613a1b565b73ffffffffffffffffffffffffffffffffffffffff16611d90612222565b73ffffffffffffffffffffffffffffffffffffffff1614611de6576040517f08c379a0000000000000000000000000000000000000000000000000000000008152600401611ddd9061566d565b60405180910390fd5b61011260008273ffffffffffffffffffffffffffffffffffffffff1673ffffffffffffffffffffffffffffffffffffffff16815260200190815260200160002060009054906101000a900460ff16611e3d57600080fd5b600061011260008373ffffffffffffffffffffffffffffffffffffffff1673ffffffffffffffffffffffffffffffffffffffff16815260200190815260200160002060006101000a81548160ff02191690831515021790555050565b611ea282613a23565b611eae82826001613aa2565b5050565b6101045481565b6101116020528060005260406000206000915054906101000a900460ff1681565b6000609760009054906101000a900460ff16905090565b611ef9613a1b565b73ffffffffffffffffffffffffffffffffffffffff16611f17612222565b73ffffffffffffffffffffffffffffffffffffffff1614611f6d576040517f08c379a0000000000000000000000000000000000000000000000000000000008152600401611f649061566d565b60405180910390fd5b61011060008273ffffffffffffffffffffffffffffffffffffffff1673ffffffffffffffffffffffffffffffffffffffff16815260200190815260200160002060009054906101000a900460ff1615611fc557600080fd5b600161011060008373ffffffffffffffffffffffffffffffffffffffff1673ffffffffffffffffffffffffffffffffffffffff16815260200190815260200160002060006101000a81548160ff021916908315150217905550610100819080600181540180825580915050600190039060005260206000200160009091909190916101000a81548173ffffffffffffffffffffffffffffffffffffffff021916908373ffffffffffffffffffffffffffffffffffffffff16021790555050565b61010e6020528060005260406000206000915090505481565b6120a6613a1b565b73ffffffffffffffffffffffffffffffffffffffff166120c4612222565b73ffffffffffffffffffffffffffffffffffffffff161461211a576040517f08c379a00000000000000000000000000000000000000000000000000000000081526004016121119061566d565b60405180910390fd5b6121246000613d15565b565b61010160009054906101000a900473ffffffffffffffffffffffffffffffffffffffff1681565b61010c5481565b61215c611eda565b1561219c576040517f08c379a00000000000000000000000000000000000000000000000000000000081526004016121939061560d565b60405180910390fd5b6121a4613a1b565b73ffffffffffffffffffffffffffffffffffffffff166121c2612222565b73ffffffffffffffffffffffffffffffffffffffff1614612218576040517f08c379a000000000000000000000000000000000000000000000000000000000815260040161220f9061566d565b60405180910390fd5b612220613ddb565b565b600060c960009054906101000a900473ffffffffffffffffffffffffffffffffffffffff16905090565b60fc805461225990615979565b80601f016020809104026020016040519081016040528092919081815260200182805461228590615979565b80156122d25780601f106122a7576101008083540402835291602001916122d2565b820191906000526020600020905b8154815290600101906020018083116122b557829003601f168201915b505050505081565b6101095481565b60006122eb611eda565b1561232b576040517f08c379a00000000000000000000000000000000000000000000000000000000081526004016123229061560d565b60405180910390fd5b600082101561233957600080fd5b8161010e60003373ffffffffffffffffffffffffffffffffffffffff1673ffffffffffffffffffffffffffffffffffffffff16815260200190815260200160002054101561238657600080fd5b61011160008473ffffffffffffffffffffffffffffffffffffffff1673ffffffffffffffffffffffffffffffffffffffff16815260200190815260200160002060009054906101000a900460ff1680612429575061011260003373ffffffffffffffffffffffffffffffffffffffff1673ffffffffffffffffffffffffffffffffffffffff16815260200190815260200160002060009054906101000a900460ff165b15612554576124383384613982565b8161010e60003373ffffffffffffffffffffffffffffffffffffffff1673ffffffffffffffffffffffffffffffffffffffff168152602001908152602001600020600082825461248891906158ae565b925050819055508161010e60008573ffffffffffffffffffffffffffffffffffffffff1673ffffffffffffffffffffffffffffffffffffffff16815260200190815260200160002060008282546124df91906157cd565b925050819055508273ffffffffffffffffffffffffffffffffffffffff163373ffffffffffffffffffffffffffffffffffffffff167fddf252ad1be2c89b69c2b068fc378daa952ba7f163c4a11628f55a4df523b3ef8460405161254391906156ad565b60405180910390a360019050612685565b61255e3384613982565b600061256a833361399a565b90508061010e60003373ffffffffffffffffffffffffffffffffffffffff1673ffffffffffffffffffffffffffffffffffffffff16815260200190815260200160002060008282546125bc91906158ae565b925050819055508061010e60008673ffffffffffffffffffffffffffffffffffffffff1673ffffffffffffffffffffffffffffffffffffffff168152602001908152602001600020600082825461261391906157cd565b925050819055508373ffffffffffffffffffffffffffffffffffffffff163373ffffffffffffffffffffffffffffffffffffffff167fddf252ad1be2c89b69c2b068fc378daa952ba7f163c4a11628f55a4df523b3ef8360405161267791906156ad565b60405180910390a360019150505b92915050565b6060612695613a1b565b73ffffffffffffffffffffffffffffffffffffffff166126b3612222565b73ffffffffffffffffffffffffffffffffffffffff1614612709576040517f08c379a00000000000000000000000000000000000000000000000000000000081526004016127009061566d565b60405180910390fd5b600061010083815481106127205761271f615ae1565b5b9060005260206000200160009054906101000a900473ffffffffffffffffffffffffffffffffffffffff16905061010080549050831061275f57600080fd5b61011060008273ffffffffffffffffffffffffffffffffffffffff1673ffffffffffffffffffffffffffffffffffffffff16815260200190815260200160002060009054906101000a900460ff166127b657600080fd5b60008390505b6001610100805490506127cf91906158ae565b811015612892576101006001826127e691906157cd565b815481106127f7576127f6615ae1565b5b9060005260206000200160009054906101000a900473ffffffffffffffffffffffffffffffffffffffff16610100828154811061283757612836615ae1565b5b9060005260206000200160006101000a81548173ffffffffffffffffffffffffffffffffffffffff021916908373ffffffffffffffffffffffffffffffffffffffff160217905550808061288a906159dc565b9150506127bc565b506101008054806128a6576128a5615ab2565b5b6001900381819060005260206000200160006101000a81549073ffffffffffffffffffffffffffffffffffffffff02191690559055600061011060008373ffffffffffffffffffffffffffffffffffffffff1673ffffffffffffffffffffffffffffffffffffffff16815260200190815260200160002060006101000a81548160ff0219169083151502179055506101008054806020026020016040519081016040528092919081815260200182805480156129b757602002820191906000526020600020905b8160009054906101000a900473ffffffffffffffffffffffffffffffffffffffff1673ffffffffffffffffffffffffffffffffffffffff168152602001906001019080831161296d575b5050505050915050919050565b6101136020528060005260406000206000915090508060000154908060010154905082565b6129f1613a1b565b73ffffffffffffffffffffffffffffffffffffffff16612a0f612222565b73ffffffffffffffffffffffffffffffffffffffff1614612a65576040517f08c379a0000000000000000000000000000000000000000000000000000000008152600401612a5c9061566d565b60405180910390fd5b61010260009054906101000a900473ffffffffffffffffffffffffffffffffffffffff1673ffffffffffffffffffffffffffffffffffffffff168173ffffffffffffffffffffffffffffffffffffffff161415612ac157600080fd5b8061010260006101000a81548173ffffffffffffffffffffffffffffffffffffffff021916908373ffffffffffffffffffffffffffffffffffffffff16021790555050565b6101085481565b612b15613a1b565b73ffffffffffffffffffffffffffffffffffffffff16612b33612222565b73ffffffffffffffffffffffffffffffffffffffff1614612b89576040517f08c379a0000000000000000000000000000000000000000000000000000000008152600401612b809061566d565b60405180910390fd5b60008310158015612b9b575060648311155b8015612ba8575060008210155b8015612bb5575060648211155b8015612bc2575060008110155b8015612bcf575060648111155b612bd857600080fd5b826101058190555081610104819055508061010381905550505050565b6101055481565b6101126020528060005260406000206000915054906101000a900460ff1681565b600060019054906101000a900460ff1680612c43575060008054906101000a900460ff16155b612c82576040517f08c379a0000000000000000000000000000000000000000000000000000000008152600401612c799061562d565b60405180910390fd5b60008060019054906101000a900460ff161590508015612cd2576001600060016101000a81548160ff02191690831515021790555060016000806101000a81548160ff0219169083151502179055505b600073ffffffffffffffffffffffffffffffffffffffff168573ffffffffffffffffffffffffffffffffffffffff161415612d0c57600080fd5b6000841015612d1a57600080fd5b6000831015612d2857600080fd5b6000821015612d3657600080fd5b6040518060400160405280600b81526020017f505552534520546f6b656e00000000000000000000000000000000000000000081525060fb9080519060200190612d81929190614d82565b506040518060400160405280600581526020017f505552534500000000000000000000000000000000000000000000000000000081525060fc9080519060200190612dcd929190614d82565b506bcecb8f27f4200f3a0000000060fd81905550601260fe60006101000a81548160ff021916908360ff16021790555069043c33c193756480000060ff819055508461010160006101000a81548173ffffffffffffffffffffffffffffffffffffffff021916908373ffffffffffffffffffffffffffffffffffffffff1602179055503061010260006101000a81548173ffffffffffffffffffffffffffffffffffffffff021916908373ffffffffffffffffffffffffffffffffffffffff16021790555083610103819055508261010481905550816101058190555060405180602001604052803373ffffffffffffffffffffffffffffffffffffffff1673ffffffffffffffffffffffffffffffffffffffff16815250610100906001612ef6929190614e08565b506201518061010681905550612f0a613e7e565b612f12613f67565b612f1a614050565b60fd5461010e60008873ffffffffffffffffffffffffffffffffffffffff1673ffffffffffffffffffffffffffffffffffffffff16815260200190815260200160002081905550612f6b86426135f3565b8573ffffffffffffffffffffffffffffffffffffffff16600073ffffffffffffffffffffffffffffffffffffffff167fab8530f87dc9b59234c4623bf917212bb2536d647574c8e7e5da92c2ede0c9f860fd54604051612fcb91906156ad565b60405180910390a38015612ff45760008060016101000a81548160ff0219169083151502179055505b505050505050565b6101075481565b61300b611eda565b1561304b576040517f08c379a00000000000000000000000000000000000000000000000000000000081526004016130429061560d565b60405180910390fd5b613053613a1b565b73ffffffffffffffffffffffffffffffffffffffff16613071612222565b73ffffffffffffffffffffffffffffffffffffffff16146130c7576040517f08c379a00000000000000000000000000000000000000000000000000000000081526004016130be9061566d565b60405180910390fd5b600073ffffffffffffffffffffffffffffffffffffffff168173ffffffffffffffffffffffffffffffffffffffff16141561310157600080fd5b3073ffffffffffffffffffffffffffffffffffffffff168373ffffffffffffffffffffffffffffffffffffffff1614156131d25761313f3082613982565b8273ffffffffffffffffffffffffffffffffffffffff1663a9059cbb82846040518363ffffffff1660e01b815260040161317a929190615525565b602060405180830381600087803b15801561319457600080fd5b505af11580156131a8573d6000803e3d6000fd5b505050506040513d601f19601f820116820180604052508101906131cc9190615188565b50613261565b8273ffffffffffffffffffffffffffffffffffffffff1663a9059cbb82846040518363ffffffff1660e01b815260040161320d929190615525565b602060405180830381600087803b15801561322757600080fd5b505af115801561323b573d6000803e3d6000fd5b505050506040513d601f19601f8201168201806040525081019061325f9190615188565b505b505050565b61010f602052816000526040600020602052806000526040600020600091509150505481565b613294613a1b565b73ffffffffffffffffffffffffffffffffffffffff166132b2612222565b73ffffffffffffffffffffffffffffffffffffffff1614613308576040517f08c379a00000000000000000000000000000000000000000000000000000000081526004016132ff9061566d565b60405180910390fd5b61011160008273ffffffffffffffffffffffffffffffffffffffff1673ffffffffffffffffffffffffffffffffffffffff16815260200190815260200160002060009054906101000a900460ff1661335f57600080fd5b600061011160008373ffffffffffffffffffffffffffffffffffffffff1673ffffffffffffffffffffffffffffffffffffffff16815260200190815260200160002060006101000a81548160ff02191690831515021790555050565b6133c3613a1b565b73ffffffffffffffffffffffffffffffffffffffff166133e1612222565b73ffffffffffffffffffffffffffffffffffffffff1614613437576040517f08c379a000000000000000000000000000000000000000000000000000000000815260040161342e9061566d565b60405180910390fd5b600073ffffffffffffffffffffffffffffffffffffffff168173ffffffffffffffffffffffffffffffffffffffff1614156134a7576040517f08c379a000000000000000000000000000000000000000000000000000000000815260040161349e906155ed565b60405180910390fd5b6134b081613d15565b50565b6134bb613a1b565b73ffffffffffffffffffffffffffffffffffffffff166134d9612222565b73ffffffffffffffffffffffffffffffffffffffff161461352f576040517f08c379a00000000000000000000000000000000000000000000000000000000081526004016135269061566d565b60405180910390fd5b61011160008273ffffffffffffffffffffffffffffffffffffffff1673ffffffffffffffffffffffffffffffffffffffff16815260200190815260200160002060009054906101000a900460ff161561358757600080fd5b600161011160008373ffffffffffffffffffffffffffffffffffffffff1673ffffffffffffffffffffffffffffffffffffffff16815260200190815260200160002060006101000a81548160ff02191690831515021790555050565b6135f081610108546135f3565b50565b600061011360008473ffffffffffffffffffffffffffffffffffffffff1673ffffffffffffffffffffffffffffffffffffffff16815260200190815260200160002060010154141561368c578061011360008473ffffffffffffffffffffffffffffffffffffffff1673ffffffffffffffffffffffffffffffffffffffff1681526020019081526020016000206001018190555061397e565b61010c5461011360008473ffffffffffffffffffffffffffffffffffffffff1673ffffffffffffffffffffffffffffffffffffffff1681526020019081526020016000206001015410156137e25760006101065461010c54836136ef91906158ae565b6136f99190615823565b905060008161010e60008673ffffffffffffffffffffffffffffffffffffffff1673ffffffffffffffffffffffffffffffffffffffff168152602001908152602001600020546137499190615854565b90508261011360008673ffffffffffffffffffffffffffffffffffffffff1673ffffffffffffffffffffffffffffffffffffffff168152602001908152602001600020600101819055508061011360008673ffffffffffffffffffffffffffffffffffffffff1673ffffffffffffffffffffffffffffffffffffffff16815260200190815260200160002060000181905550505061397d565b60006101065461011360008573ffffffffffffffffffffffffffffffffffffffff1673ffffffffffffffffffffffffffffffffffffffff168152602001908152602001600020600101548361383791906158ae565b6138419190615823565b90506001811061397b5760008161010e60008673ffffffffffffffffffffffffffffffffffffffff1673ffffffffffffffffffffffffffffffffffffffff168152602001908152602001600020546138999190615854565b90508261011360008673ffffffffffffffffffffffffffffffffffffffff1673ffffffffffffffffffffffffffffffffffffffff168152602001908152602001600020600101819055508061011360008673ffffffffffffffffffffffffffffffffffffffff1673ffffffffffffffffffffffffffffffffffffffff1681526020019081526020016000206000015461393291906157cd565b61011360008673ffffffffffffffffffffffffffffffffffffffff1673ffffffffffffffffffffffffffffffffffffffff16815260200190815260200160002060000181905550505b505b5b5050565b61398c82426135f3565b61399681426135f3565b5050565b6000806000905060008060006139af87614139565b8093508194508295505050506000831015806139cc575060008210155b806139d8575060008110155b156139ea576139e9868484846141da565b5b808284896139f891906158ae565b613a0291906158ae565b613a0c91906158ae565b93508394505050505092915050565b600033905090565b613a2b613a1b565b73ffffffffffffffffffffffffffffffffffffffff16613a49612222565b73ffffffffffffffffffffffffffffffffffffffff1614613a9f576040517f08c379a0000000000000000000000000000000000000000000000000000000008152600401613a969061566d565b60405180910390fd5b50565b6000613aac614649565b9050613ab7846146a0565b600083511180613ac45750815b15613ad557613ad38484614759565b505b6000613b037f4910fdfa16fed3260ed0e7147f7cc6da11a60208b5b9406d12a635614ffd914360001b61483d565b90508060000160009054906101000a900460ff16613c6c5760018160000160006101000a81548160ff021916908315150217905550613bcf8583604051602401613b4d919061550a565b6040516020818303038152906040527f3659cfe6000000000000000000000000000000000000000000000000000000007bffffffffffffffffffffffffffffffffffffffffffffffffffffffff19166020820180517bffffffffffffffffffffffffffffffffffffffffffffffffffffffff8381831617835250505050614759565b5060008160000160006101000a81548160ff021916908315150217905550613bf5614649565b73ffffffffffffffffffffffffffffffffffffffff168273ffffffffffffffffffffffffffffffffffffffff1614613c62576040517f08c379a0000000000000000000000000000000000000000000000000000000008152600401613c59906155cd565b60405180910390fd5b613c6b85614847565b5b5050505050565b613c7b611eda565b613cba576040517f08c379a0000000000000000000000000000000000000000000000000000000008152600401613cb1906155ad565b60405180910390fd5b6000609760006101000a81548160ff0219169083151502179055507f5db9ee0a495bf2e6ff9c91a7834c1ba4fdd244a5e8aa4e537bd38aeae4b073aa613cfe613a1b565b604051613d0b919061550a565b60405180910390a1565b600060c960009054906101000a900473ffffffffffffffffffffffffffffffffffffffff1690508160c960006101000a81548173ffffffffffffffffffffffffffffffffffffffff021916908373ffffffffffffffffffffffffffffffffffffffff1602179055508173ffffffffffffffffffffffffffffffffffffffff168173ffffffffffffffffffffffffffffffffffffffff167f8be0079c531659141344cd1fd0a4f28419497f9722a3daafe3b4186f6b6457e060405160405180910390a35050565b613de3611eda565b15613e23576040517f08c379a0000000000000000000000000000000000000000000000000000000008152600401613e1a9061560d565b60405180910390fd5b6001609760006101000a81548160ff0219169083151502179055507f62e78cea01bee320cd4e420270b5ea74000d11b0c9f74754ebdbfc544b05a258613e67613a1b565b604051613e74919061550a565b60405180910390a1565b600060019054906101000a900460ff1680613ea4575060008054906101000a900460ff16155b613ee3576040517f08c379a0000000000000000000000000000000000000000000000000000000008152600401613eda9061562d565b60405180910390fd5b60008060019054906101000a900460ff161590508015613f33576001600060016101000a81548160ff02191690831515021790555060016000806101000a81548160ff0219169083151502179055505b613f3b614896565b613f4361496f565b8015613f645760008060016101000a81548160ff0219169083151502179055505b50565b600060019054906101000a900460ff1680613f8d575060008054906101000a900460ff16155b613fcc576040517f08c379a0000000000000000000000000000000000000000000000000000000008152600401613fc39061562d565b60405180910390fd5b60008060019054906101000a900460ff16159050801561401c576001600060016101000a81548160ff02191690831515021790555060016000806101000a81548160ff0219169083151502179055505b614024614896565b61402c614a63565b801561404d5760008060016101000a81548160ff0219169083151502179055505b50565b600060019054906101000a900460ff1680614076575060008054906101000a900460ff16155b6140b5576040517f08c379a00000000000000000000000000000000000000000000000000000000081526004016140ac9061562d565b60405180910390fd5b60008060019054906101000a900460ff161590508015614105576001600060016101000a81548160ff02191690831515021790555060016000806101000a81548160ff0219169083151502179055505b61410d614b4c565b614115614c25565b80156141365760008060016101000a81548160ff0219169083151502179055505b50565b60008060008060008060ff5460fd5411156141c7576064610103548861415f9190615854565b6141699190615823565b92506064610104548861417c9190615854565b6141869190615823565b9150606461010554886141999190615854565b6141a39190615823565b9050600060ff5460fd546141b791906158ae565b9050808411156141c5578093505b505b8282829550955095505050509193909250565b600073ffffffffffffffffffffffffffffffffffffffff168473ffffffffffffffffffffffffffffffffffffffff16141561421457600080fd5b600061010e60008673ffffffffffffffffffffffffffffffffffffffff1673ffffffffffffffffffffffffffffffffffffffff168152602001908152602001600020549050600082848661426891906157cd565b61427291906157cd565b90508082101561428157600080fd5b8461010e60008873ffffffffffffffffffffffffffffffffffffffff1673ffffffffffffffffffffffffffffffffffffffff16815260200190815260200160002060008282546142d191906158ae565b925050819055508361010e60008873ffffffffffffffffffffffffffffffffffffffff1673ffffffffffffffffffffffffffffffffffffffff168152602001908152602001600020600082825461432891906158ae565b925050819055508261010e60008873ffffffffffffffffffffffffffffffffffffffff1673ffffffffffffffffffffffffffffffffffffffff168152602001908152602001600020600082825461437f91906158ae565b925050819055508460fd600082825461439891906158ae565b925050819055506143ef61010260009054906101000a900473ffffffffffffffffffffffffffffffffffffffff1661010160009054906101000a900473ffffffffffffffffffffffffffffffffffffffff16613982565b8361010e600061010160009054906101000a900473ffffffffffffffffffffffffffffffffffffffff1673ffffffffffffffffffffffffffffffffffffffff1673ffffffffffffffffffffffffffffffffffffffff168152602001908152602001600020600082825461446291906157cd565b925050819055508261010e600061010260009054906101000a900473ffffffffffffffffffffffffffffffffffffffff1673ffffffffffffffffffffffffffffffffffffffff1673ffffffffffffffffffffffffffffffffffffffff16815260200190815260200160002060008282546144dc91906157cd565b925050819055508573ffffffffffffffffffffffffffffffffffffffff167fcc16f5dbb4873280815c1ee09dbd06736cffcc184412cf7a71a0fdb75d397ca58660405161452991906156ad565b60405180910390a261010160009054906101000a900473ffffffffffffffffffffffffffffffffffffffff1673ffffffffffffffffffffffffffffffffffffffff163373ffffffffffffffffffffffffffffffffffffffff167fddf252ad1be2c89b69c2b068fc378daa952ba7f163c4a11628f55a4df523b3ef866040516145b191906156ad565b60405180910390a361010260009054906101000a900473ffffffffffffffffffffffffffffffffffffffff1673ffffffffffffffffffffffffffffffffffffffff163373ffffffffffffffffffffffffffffffffffffffff167fddf252ad1be2c89b69c2b068fc378daa952ba7f163c4a11628f55a4df523b3ef8560405161463991906156ad565b60405180910390a3505050505050565b60006146777f360894a13ba1a3210667c828492db98dca3e2076cc3735a920a3ca505d382bbc60001b614cfe565b60000160009054906101000a900473ffffffffffffffffffffffffffffffffffffffff16905090565b6146a981614d08565b6146e8576040517f08c379a00000000000000000000000000000000000000000000000000000000081526004016146df9061564d565b60405180910390fd5b806147157f360894a13ba1a3210667c828492db98dca3e2076cc3735a920a3ca505d382bbc60001b614cfe565b60000160006101000a81548173ffffffffffffffffffffffffffffffffffffffff021916908373ffffffffffffffffffffffffffffffffffffffff16021790555050565b606061476483614d08565b6147a3576040517f08c379a000000000000000000000000000000000000000000000000000000000815260040161479a9061568d565b60405180910390fd5b6000808473ffffffffffffffffffffffffffffffffffffffff16846040516147cb91906154f3565b600060405180830381855af49150503d8060008114614806576040519150601f19603f3d011682016040523d82523d6000602084013e61480b565b606091505b50915091506148338282604051806060016040528060278152602001615db060279139614d1b565b9250505092915050565b6000819050919050565b614850816146a0565b8073ffffffffffffffffffffffffffffffffffffffff167fbc7cd75a20ee27fd9adebab32041f755214dbc6bffa90cc0225b39da2e5c2d3b60405160405180910390a250565b600060019054906101000a900460ff16806148bc575060008054906101000a900460ff16155b6148fb576040517f08c379a00000000000000000000000000000000000000000000000000000000081526004016148f29061562d565b60405180910390fd5b60008060019054906101000a900460ff16159050801561494b576001600060016101000a81548160ff02191690831515021790555060016000806101000a81548160ff0219169083151502179055505b801561496c5760008060016101000a81548160ff0219169083151502179055505b50565b600060019054906101000a900460ff1680614995575060008054906101000a900460ff16155b6149d4576040517f08c379a00000000000000000000000000000000000000000000000000000000081526004016149cb9061562d565b60405180910390fd5b60008060019054906101000a900460ff161590508015614a24576001600060016101000a81548160ff02191690831515021790555060016000806101000a81548160ff0219169083151502179055505b6000609760006101000a81548160ff0219169083151502179055508015614a605760008060016101000a81548160ff0219169083151502179055505b50565b600060019054906101000a900460ff1680614a89575060008054906101000a900460ff16155b614ac8576040517f08c379a0000000000000000000000000000000000000000000000000000000008152600401614abf9061562d565b60405180910390fd5b60008060019054906101000a900460ff161590508015614b18576001600060016101000a81548160ff02191690831515021790555060016000806101000a81548160ff0219169083151502179055505b614b28614b23613a1b565b613d15565b8015614b495760008060016101000a81548160ff0219169083151502179055505b50565b600060019054906101000a900460ff1680614b72575060008054906101000a900460ff16155b614bb1576040517f08c379a0000000000000000000000000000000000000000000000000000000008152600401614ba89061562d565b60405180910390fd5b60008060019054906101000a900460ff161590508015614c01576001600060016101000a81548160ff02191690831515021790555060016000806101000a81548160ff0219169083151502179055505b8015614c225760008060016101000a81548160ff0219169083151502179055505b50565b600060019054906101000a900460ff1680614c4b575060008054906101000a900460ff16155b614c8a576040517f08c379a0000000000000000000000000000000000000000000000000000000008152600401614c819061562d565b60405180910390fd5b60008060019054906101000a900460ff161590508015614cda576001600060016101000a81548160ff02191690831515021790555060016000806101000a81548160ff0219169083151502179055505b8015614cfb5760008060016101000a81548160ff0219169083151502179055505b50565b6000819050919050565b600080823b905060008111915050919050565b60608315614d2b57829050614d7b565b600083511115614d3e5782518084602001fd5b816040517f08c379a0000000000000000000000000000000000000000000000000000000008152600401614d72919061558b565b60405180910390fd5b9392505050565b828054614d8e90615979565b90600052602060002090601f016020900481019282614db05760008555614df7565b82601f10614dc957805160ff1916838001178555614df7565b82800160010185558215614df7579182015b82811115614df6578251825591602001919060010190614ddb565b5b509050614e049190614e92565b5090565b828054828255906000526020600020908101928215614e81579160200282015b82811115614e805782518260006101000a81548173ffffffffffffffffffffffffffffffffffffffff021916908373ffffffffffffffffffffffffffffffffffffffff16021790555091602001919060010190614e28565b5b509050614e8e9190614e92565b5090565b5b80821115614eab576000816000905550600101614e93565b5090565b6000614ec2614ebd84615731565b61570c565b905082815260208101848484011115614ede57614edd615b44565b5b614ee9848285615937565b509392505050565b600081359050614f0081615d6a565b92915050565b600081519050614f1581615d81565b92915050565b600082601f830112614f3057614f2f615b3f565b5b8135614f40848260208601614eaf565b91505092915050565b600081359050614f5881615d98565b92915050565b600060208284031215614f7457614f73615b4e565b5b6000614f8284828501614ef1565b91505092915050565b60008060408385031215614fa257614fa1615b4e565b5b6000614fb085828601614ef1565b9250506020614fc185828601614ef1565b9150509250929050565b600080600060608486031215614fe457614fe3615b4e565b5b6000614ff286828701614ef1565b935050602061500386828701614ef1565b925050604061501486828701614f49565b9150509250925092565b600080600080600060a0868803121561503a57615039615b4e565b5b600061504888828901614ef1565b955050602061505988828901614ef1565b945050604061506a88828901614f49565b935050606061507b88828901614f49565b925050608061508c88828901614f49565b9150509295509295909350565b600080604083850312156150b0576150af615b4e565b5b60006150be85828601614ef1565b925050602083013567ffffffffffffffff8111156150df576150de615b49565b5b6150eb85828601614f1b565b9150509250929050565b6000806040838503121561510c5761510b615b4e565b5b600061511a85828601614ef1565b925050602061512b85828601614f49565b9150509250929050565b60008060006060848603121561514e5761514d615b4e565b5b600061515c86828701614ef1565b935050602061516d86828701614f49565b925050604061517e86828701614ef1565b9150509250925092565b60006020828403121561519e5761519d615b4e565b5b60006151ac84828501614f06565b91505092915050565b6000602082840312156151cb576151ca615b4e565b5b60006151d984828501614f49565b91505092915050565b6000806000606084860312156151fb576151fa615b4e565b5b600061520986828701614f49565b935050602061521a86828701614f49565b925050604061522b86828701614f49565b9150509250925092565b600080600080600060a0868803121561525157615250615b4e565b5b600061525f88828901614f49565b955050602061527088828901614f49565b945050604061528188828901614f49565b935050606061529288828901614f49565b92505060806152a388828901614f49565b9150509295509295909350565b60006152bc83836152c8565b60208301905092915050565b6152d1816158e2565b82525050565b6152e0816158e2565b82525050565b60006152f182615772565b6152fb81856157a0565b935061530683615762565b8060005b8381101561533757815161531e88826152b0565b975061532983615793565b92505060018101905061530a565b5085935050505092915050565b61534d816158f4565b82525050565b600061535e8261577d565b61536881856157b1565b9350615378818560208601615946565b80840191505092915050565b600061538f82615788565b61539981856157bc565b93506153a9818560208601615946565b6153b281615b53565b840191505092915050565b60006153ca6014836157bc565b91506153d582615b64565b602082019050919050565b60006153ed602f836157bc565b91506153f882615b8d565b604082019050919050565b60006154106026836157bc565b915061541b82615bdc565b604082019050919050565b60006154336010836157bc565b915061543e82615c2b565b602082019050919050565b6000615456602e836157bc565b915061546182615c54565b604082019050919050565b6000615479602d836157bc565b915061548482615ca3565b604082019050919050565b600061549c6020836157bc565b91506154a782615cf2565b602082019050919050565b60006154bf6026836157bc565b91506154ca82615d1b565b604082019050919050565b6154de81615920565b82525050565b6154ed8161592a565b82525050565b60006154ff8284615353565b915081905092915050565b600060208201905061551f60008301846152d7565b92915050565b600060408201905061553a60008301856152d7565b61554760208301846154d5565b9392505050565b6000602082019050818103600083015261556881846152e6565b905092915050565b60006020820190506155856000830184615344565b92915050565b600060208201905081810360008301526155a58184615384565b905092915050565b600060208201905081810360008301526155c6816153bd565b9050919050565b600060208201905081810360008301526155e6816153e0565b9050919050565b6000602082019050818103600083015261560681615403565b9050919050565b6000602082019050818103600083015261562681615426565b9050919050565b6000602082019050818103600083015261564681615449565b9050919050565b600060208201905081810360008301526156668161546c565b9050919050565b600060208201905081810360008301526156868161548f565b9050919050565b600060208201905081810360008301526156a6816154b2565b9050919050565b60006020820190506156c260008301846154d5565b92915050565b60006040820190506156dd60008301856154d5565b6156ea60208301846154d5565b9392505050565b600060208201905061570660008301846154e4565b92915050565b6000615716615727565b905061572282826159ab565b919050565b6000604051905090565b600067ffffffffffffffff82111561574c5761574b615b10565b5b61575582615b53565b9050602081019050919050565b6000819050602082019050919050565b600081519050919050565b600081519050919050565b600081519050919050565b6000602082019050919050565b600082825260208201905092915050565b600081905092915050565b600082825260208201905092915050565b60006157d882615920565b91506157e383615920565b9250827fffffffffffffffffffffffffffffffffffffffffffffffffffffffffffffffff0382111561581857615817615a25565b5b828201905092915050565b600061582e82615920565b915061583983615920565b92508261584957615848615a54565b5b828204905092915050565b600061585f82615920565b915061586a83615920565b9250817fffffffffffffffffffffffffffffffffffffffffffffffffffffffffffffffff04831182151516156158a3576158a2615a25565b5b828202905092915050565b60006158b982615920565b91506158c483615920565b9250828210156158d7576158d6615a25565b5b828203905092915050565b60006158ed82615900565b9050919050565b60008115159050919050565b600073ffffffffffffffffffffffffffffffffffffffff82169050919050565b6000819050919050565b600060ff82169050919050565b82818337600083830152505050565b60005b83811015615964578082015181840152602081019050615949565b83811115615973576000848401525b50505050565b6000600282049050600182168061599157607f821691505b602082108114156159a5576159a4615a83565b5b50919050565b6159b482615b53565b810181811067ffffffffffffffff821117156159d3576159d2615b10565b5b80604052505050565b60006159e782615920565b91507fffffffffffffffffffffffffffffffffffffffffffffffffffffffffffffffff821415615a1a57615a19615a25565b5b600182019050919050565b7f4e487b7100000000000000000000000000000000000000000000000000000000600052601160045260246000fd5b7f4e487b7100000000000000000000000000000000000000000000000000000000600052601260045260246000fd5b7f4e487b7100000000000000000000000000000000000000000000000000000000600052602260045260246000fd5b7f4e487b7100000000000000000000000000000000000000000000000000000000600052603160045260246000fd5b7f4e487b7100000000000000000000000000000000000000000000000000000000600052603260045260246000fd5b7f4e487b7100000000000000000000000000000000000000000000000000000000600052604160045260246000fd5b600080fd5b600080fd5b600080fd5b600080fd5b6000601f19601f8301169050919050565b7f5061757361626c653a206e6f7420706175736564000000000000000000000000600082015250565b7f45524331393637557067726164653a207570677261646520627265616b73206660008201527f7572746865722075706772616465730000000000000000000000000000000000602082015250565b7f4f776e61626c653a206e6577206f776e657220697320746865207a65726f206160008201527f6464726573730000000000000000000000000000000000000000000000000000602082015250565b7f5061757361626c653a2070617573656400000000000000000000000000000000600082015250565b7f496e697469616c697a61626c653a20636f6e747261637420697320616c72656160008201527f647920696e697469616c697a6564000000000000000000000000000000000000602082015250565b7f455243313936373a206e657720696d706c656d656e746174696f6e206973206e60008201527f6f74206120636f6e747261637400000000000000000000000000000000000000602082015250565b7f4f776e61626c653a2063616c6c6572206973206e6f7420746865206f776e6572600082015250565b7f416464726573733a2064656c65676174652063616c6c20746f206e6f6e2d636f60008201527f6e74726163740000000000000000000000000000000000000000000000000000602082015250565b615d73816158e2565b8114615d7e57600080fd5b50565b615d8a816158f4565b8114615d9557600080fd5b50565b615da181615920565b8114615dac57600080fd5b5056fe416464726573733a206c6f772d6c6576656c2064656c65676174652063616c6c206661696c6564a264697066735822122024f1ca54469e00b2bca3bf0213f12b3d2ce7d1e3661f855e895a8c741d4023ab64736f6c63430008070033",
  "immutableReferences": {},
  "source": "// SPDX-License-Identifier: UNLICENSED\r\n\r\npragma solidity ^0.8.0;\r\n\r\nimport \"@openzeppelin/contracts-upgradeable/proxy/utils/Initializable.sol\";\r\nimport \"@openzeppelin/contracts-upgradeable/proxy/utils/UUPSUpgradeable.sol\";\r\nimport \"@openzeppelin/contracts-upgradeable/security/PausableUpgradeable.sol\";\r\nimport \"@openzeppelin/contracts-upgradeable/access/OwnableUpgradeable.sol\";\r\n\r\nabstract contract ERC20Interface {\r\n\r\n    function transfer(address to, uint tokens) public virtual returns (bool success);\r\n\r\n    function transferFrom(address from, address to, uint tokens) public virtual returns (bool success);\r\n\r\n}\r\n\r\ncontract PurseTokenUpgradable is Initializable, UUPSUpgradeable, PausableUpgradeable, OwnableUpgradeable {\r\n\r\n    string public name;\r\n    string public symbol;\r\n    uint256 public totalSupply;\r\n    uint8 public decimals;\r\n    uint256 private minimumSupply;\r\n    address[] public admins;\r\n    address public liqPool;\r\n    address public disPool;\r\n    uint256 public burnPercent;\r\n    uint256 public liqPercent;\r\n    uint256 public disPercent;\r\n    \r\n    uint256 public _averageInterval;\r\n    uint256 public _getRewardEndTime;\r\n    uint256 public _getRewardStartTime;\r\n    uint256 public _numOfDaysPerMth;\r\n    uint256 public _monthlyDistributePr;\r\n    uint256 public _percentageDistribute;\r\n    uint256 public _lastRewardStartTime;\r\n    uint256 public _totalSupply;\r\n\r\n    mapping(address => uint256) public balanceOf;\r\n    mapping(address => mapping(address => uint256)) public allowance;\r\n    mapping(address => bool) public isAdmin;\r\n    mapping(address => bool) public isWhitelistedTo;\r\n    mapping(address => bool) public isWhitelistedFrom;\r\n    mapping(address => AccAmount) public accAmount;\r\n\r\n    struct AccAmount {\r\n        uint256 amount;\r\n        uint256 lastUpdateTime;\r\n    }\r\n\r\n    event Transfer(address indexed _from, address indexed _to, uint256 _value);\r\n    event Burn(address indexed _from, uint256 _value);\r\n    event Mint(address indexed _from, address indexed _to, uint256 _value);\r\n    event Approval(address indexed _owner, address indexed _spender, uint256 _value);\r\n\r\n    modifier onlyAdmin() {\r\n        require(isAdmin[msg.sender]);\r\n        _;\r\n    }\r\n\r\n    function transfer(address _to, uint256 _value) public whenNotPaused returns (bool success)\r\n    {\r\n        require(_value >= 0);\r\n        require(balanceOf[msg.sender] >= _value);\r\n        if (isWhitelistedTo[_to] || isWhitelistedFrom[msg.sender]) {\r\n            updateAccumulateBalanceTransaction(msg.sender, _to); \r\n            balanceOf[msg.sender] -= _value;\r\n            balanceOf[_to] += _value;\r\n            \r\n           \r\n            emit Transfer(msg.sender, _to, _value);\r\n            return true;\r\n        } else {\r\n            updateAccumulateBalanceTransaction(msg.sender, _to);\r\n            uint256 transferValue = _partialBurn(_value, msg.sender);\r\n            balanceOf[msg.sender] -= transferValue;\r\n            balanceOf[_to] += transferValue;\r\n            \r\n\r\n            emit Transfer(msg.sender, _to, transferValue);\r\n            return true;\r\n        }\r\n    }\r\n    \r\n    function approve(address _spender, uint256 _value) public whenNotPaused returns (bool success)\r\n    {\r\n        allowance[msg.sender][_spender] = _value;\r\n        emit Approval(msg.sender, _spender, _value);\r\n        return true;\r\n    }\r\n\r\n    function transferFrom(address _from, address _to, uint256 _value) public whenNotPaused returns (bool success) {\r\n        require(_value >= 0);\r\n        require(_value <= balanceOf[_from]);\r\n        require(_value <= allowance[_from][msg.sender]);\r\n        if (isWhitelistedTo[_to] || isWhitelistedFrom[msg.sender]) {\r\n            allowance[_from][msg.sender] -= _value;\r\n            updateAccumulateBalanceTransaction(_from, _to);\r\n            balanceOf[_from] -= _value;\r\n            balanceOf[_to] += _value;\r\n            \r\n            emit Transfer(_from, _to, _value);\r\n            return true;\r\n        } else {\r\n            allowance[_from][msg.sender] -= _value;\r\n            updateAccumulateBalanceTransaction(_from, _to);\r\n            uint256 transferValue = _partialBurn(_value, _from);\r\n            balanceOf[_from] -= transferValue;\r\n            balanceOf[_to] += transferValue;\r\n\r\n            emit Transfer(_from, _to, transferValue);\r\n            return true;\r\n        }\r\n    }\r\n\r\n    function mint(address _account, uint256 _amount) public whenNotPaused onlyAdmin {\r\n        require(_account != address(0));\r\n        updateAccumulateBalance(_account, block.timestamp); \r\n        balanceOf[_account] += _amount;\r\n\r\n        totalSupply += _amount;\r\n        emit Mint(address(0), _account, _amount);\r\n    }\r\n\r\n    function burn(uint256 _amount) public whenNotPaused {\r\n        require(_amount != 0);\r\n        require(balanceOf[msg.sender] >= _amount);\r\n        updateAccumulateBalance(msg.sender, block.timestamp); \r\n        balanceOf[msg.sender] -= _amount;\r\n        totalSupply -= _amount;\r\n        emit Burn(msg.sender, _amount);\r\n    }\r\n    \r\n    function updateAccumulateBalance(address _holder, uint256 _updateTime) private {\r\n        if (accAmount[_holder].lastUpdateTime == 0) {\r\n            accAmount[_holder].lastUpdateTime = _updateTime;\r\n        } \r\n        else if (accAmount[_holder].lastUpdateTime < _lastRewardStartTime) {\r\n            uint256 interval = (_updateTime - _lastRewardStartTime)/ _averageInterval;\r\n            uint256 accumulateAmount = balanceOf[_holder] * interval;\r\n            accAmount[_holder].lastUpdateTime = _updateTime;\r\n            accAmount[_holder].amount = accumulateAmount;            \r\n        } \r\n        else {\r\n            uint256 interval = (_updateTime - accAmount[_holder].lastUpdateTime)/ _averageInterval;\r\n            if (interval >= 1) {\r\n                uint256 accumulateAmount = balanceOf[_holder] * interval;\r\n                accAmount[_holder].lastUpdateTime = _updateTime;\r\n                accAmount[_holder].amount = accAmount[_holder].amount + accumulateAmount;                     \r\n            }\r\n        }\r\n    }\r\n    \r\n    function updateAccumulateBalanceTransaction(address _from, address _to) private {\r\n        updateAccumulateBalance(_from, block.timestamp);\r\n        updateAccumulateBalance(_to, block.timestamp);\r\n    }\r\n    \r\n    function updateAccumulateBalanceClaim(address _holder) private {\r\n        updateAccumulateBalance(_holder, _getRewardStartTime);\r\n    }\r\n\r\n    function claimDistributionPurse() public whenNotPaused returns(bool success) {\r\n        require(block.timestamp < _getRewardEndTime);\r\n        require(block.timestamp > _getRewardStartTime);\r\n        require(accAmount[msg.sender].lastUpdateTime < _getRewardStartTime);\r\n        updateAccumulateBalanceClaim(msg.sender);\r\n        uint256 claimAmount = accAmount[msg.sender].amount * _monthlyDistributePr * _percentageDistribute * 100 / _totalSupply / _numOfDaysPerMth / 10000;\r\n        \r\n        accAmount[msg.sender].lastUpdateTime = _getRewardStartTime;\r\n        accAmount[msg.sender].amount = 0;\r\n        updateAccumulateBalance(msg.sender, block.timestamp);\r\n        ERC20Interface(address(this)).transfer(msg.sender, claimAmount);\r\n        return true;\r\n    }\r\n    \r\n    function activateClaimMonthly(uint256 _rewardStartTime, uint256 _rewardEndTime, uint256 _monthlyDisPr, uint256 _numOfDays, uint256 _percentage) public onlyOwner {\r\n        require(_rewardStartTime > block.timestamp );\r\n        require(_rewardEndTime > _rewardStartTime);\r\n        require(_numOfDays > 0);\r\n        require(_percentage > 0);\r\n        \r\n        _totalSupply = totalSupply;\r\n        _lastRewardStartTime = _getRewardStartTime;\r\n        _numOfDaysPerMth = _numOfDays;\r\n        _getRewardStartTime = _rewardStartTime;\r\n        _getRewardEndTime = _rewardEndTime;\r\n        _percentageDistribute = _percentage;\r\n        _monthlyDistributePr = _monthlyDisPr;\r\n    }\r\n\r\n    function _partialBurn(uint256 _amount, address _from) internal returns (uint256) {\r\n        uint256 transferAmount = 0;\r\n        uint256 burnAmount;\r\n        uint256 liqAmount;\r\n        uint256 disAmount;\r\n        (\r\n            burnAmount,\r\n            liqAmount,\r\n            disAmount\r\n        ) = _calculateDeductAmount(_amount);\r\n\r\n        if (burnAmount >= 0 || liqAmount >= 0 || disAmount >= 0) {\r\n            burnPrivate(_from, burnAmount, liqAmount, disAmount);\r\n        }\r\n        transferAmount = _amount - burnAmount - liqAmount - disAmount;\r\n\r\n        return transferAmount;\r\n    }\r\n\r\n    function _calculateDeductAmount(uint256 _amount) internal view returns (uint256, uint256, uint256) {\r\n        uint256 burnAmount;\r\n        uint256 liqAmount;\r\n        uint256 disAmount;\r\n\r\n        if (totalSupply > minimumSupply) {\r\n            burnAmount = (_amount * burnPercent) / 100;\r\n            liqAmount = (_amount * liqPercent) / 100;\r\n            disAmount = (_amount * disPercent) / 100;\r\n            uint256 availableBurn = totalSupply - minimumSupply;\r\n            if (burnAmount > availableBurn) {\r\n                burnAmount = availableBurn;\r\n            }\r\n        }\r\n        return (burnAmount, liqAmount, disAmount);\r\n    }\r\n\r\n    function burnPrivate( address _account, uint256 _burnAmount, uint256 _liqAmount, uint256 _disAmount) private {\r\n        require(_account != address(0));\r\n        uint256 accountBalance = balanceOf[_account];\r\n        uint256 deductAmount = _burnAmount + _liqAmount + _disAmount;\r\n        require(accountBalance >= deductAmount);\r\n        balanceOf[_account] -= _burnAmount;\r\n        balanceOf[_account] -= _liqAmount;\r\n        balanceOf[_account] -= _disAmount;\r\n\r\n        totalSupply -= _burnAmount;\r\n        updateAccumulateBalanceTransaction(disPool, liqPool); \r\n        balanceOf[liqPool] += _liqAmount;\r\n        balanceOf[disPool] += _disAmount;\r\n\r\n        emit Burn(_account, _burnAmount);\r\n        emit Transfer(msg.sender, liqPool, _liqAmount);\r\n        emit Transfer(msg.sender, disPool, _disAmount);\r\n    }\r\n    \r\n    function updateLPoolAdd(address _newLPool) public onlyOwner {\r\n        // require(_newLPool != address(0));\r\n        require(_newLPool != liqPool);\r\n\r\n        liqPool = _newLPool;\r\n    }\r\n\r\n    function updateDPoolAdd(address _newDPool) public onlyOwner {\r\n        // require(_newDPool != address(0));\r\n        require(_newDPool != disPool);\r\n\r\n        disPool = _newDPool;\r\n    }\r\n    \r\n    function updatePercent(uint256 _newDisPercent, uint256 _newLiqPercent, uint256 _newBurnPercent) public onlyOwner {\r\n        require(_newDisPercent >= 0 && _newDisPercent <= 100 && _newLiqPercent >= 0 && _newLiqPercent <= 100 && _newBurnPercent >= 0 && _newBurnPercent <= 100);\r\n        // require(_newLiqPercent >= 0 && _newLiqPercent <= 100);\r\n        // require(_newBurnPercent >= 0 && _newBurnPercent <= 100);\r\n        \r\n        disPercent = _newDisPercent;\r\n        liqPercent = _newLiqPercent;\r\n        burnPercent = _newBurnPercent;\r\n    }\r\n\r\n    function addAdmin(address newAdmin) public onlyOwner{\r\n        // require(newAdmin != address(0));\r\n        require(!isAdmin[newAdmin]);\r\n\r\n        isAdmin[newAdmin] = true;\r\n        admins.push(newAdmin);\r\n    }\r\n\r\n    function removeAdmin(uint index) public onlyOwner returns (address[] memory){\r\n        address removeOwner = admins[index];\r\n        require(index < admins.length);\r\n        require(isAdmin[removeOwner]);\r\n        \r\n        for (uint i = index; i<admins.length-1; i++){\r\n            admins[i] = admins[i+1];\r\n        }\r\n        admins.pop();\r\n\r\n        isAdmin[removeOwner] = false;\r\n        return admins;\r\n    }\r\n\r\n    // function getAdmins() public view returns (address[] memory) {\r\n    //     return admins;\r\n    // }\r\n    \r\n    function transferERCToken(address token, uint256 amount, address _to) public whenNotPaused onlyOwner{\r\n        require(_to != address(0));\r\n        if (token == address(this)) {\r\n            updateAccumulateBalanceTransaction(address(this), _to);\r\n            ERC20Interface(token).transfer(_to, amount);\r\n        } else {\r\n            ERC20Interface(token).transfer(_to, amount);          \r\n        }\r\n    } \r\n\r\n    function pause() public whenNotPaused onlyOwner {\r\n        _pause();\r\n    }\r\n\r\n    function unpause() public whenPaused onlyOwner {\r\n        _unpause();\r\n    }\r\n    \r\n    function setWhitelistedTo(address newWhitelist) public onlyOwner {\r\n        // require(newWhitelist != address(0));\r\n        require(!isWhitelistedTo[newWhitelist]);\r\n\r\n        isWhitelistedTo[newWhitelist] = true;\r\n    }\r\n\r\n    function removeWhitelistedTo(address newWhitelist) public onlyOwner {\r\n        // require(newWhitelist != address(0));\r\n        require(isWhitelistedTo[newWhitelist]);\r\n\r\n        isWhitelistedTo[newWhitelist] = false;\r\n    }\r\n\r\n    function setWhitelistedFrom(address newWhitelist) public onlyOwner {\r\n        // require(newWhitelist != address(0));\r\n        require(!isWhitelistedFrom[newWhitelist]);\r\n\r\n        isWhitelistedFrom[newWhitelist] = true;\r\n    }\r\n\r\n    function removeWhitelistedFrom(address newWhitelist) public onlyOwner {\r\n        // require(newWhitelist != address(0));\r\n        require(isWhitelistedFrom[newWhitelist]);\r\n\r\n        isWhitelistedFrom[newWhitelist] = false;\r\n    }\r\n\r\n    function _authorizeUpgrade(address) internal override onlyOwner {}\r\n\r\n    function initialize(\r\n        address _to,\r\n        address _lPool,\r\n        uint256 _burnPercent,\r\n        uint256 _liqPercent,\r\n        uint256 _disPercent\r\n    ) public initializer {\r\n        require(_lPool != address(0));\r\n        require(_burnPercent >= 0);\r\n        require(_liqPercent >= 0);\r\n        require(_disPercent >= 0);\r\n\r\n        name = \"PURSE Token\";\r\n        symbol = \"PURSE\";\r\n        totalSupply = 64000000000 * (10**18); // 64 billion tokens\r\n        decimals = 18;\r\n        minimumSupply = 20000 * (10**18);\r\n\r\n        liqPool = _lPool;\r\n        disPool = address(this);\r\n        burnPercent = _burnPercent;\r\n        liqPercent = _liqPercent;\r\n        disPercent = _disPercent;\r\n        admins = [msg.sender];\r\n        _averageInterval = 1 days;       // update to 1 days in mainnet(prod)\r\n        __Pausable_init();\r\n        __Ownable_init();\r\n        __UUPSUpgradeable_init();\r\n        \r\n        balanceOf[_to] = totalSupply;\r\n        updateAccumulateBalance(_to, block.timestamp); \r\n        emit Mint(address(0), _to, totalSupply);\r\n    }\r\n}",
  "sourcePath": "C:\\Users\\cheek\\Desktop\\Developer doc\\Visual Studio Code\\PundiX\\YieldFarm_BridgeEthBsc\\src\\contracts\\PurseTokenUpgradable.sol",
  "compiler": {
    "name": "solc",
    "version": "0.8.7+commit.e28d00a7.Emscripten.clang"
  },
  "schemaVersion": "3.2.3",
  "updatedAt": "2021-09-18T07:42:21.790Z",
  "networkType": "ethereum",
  "devdoc": {
    "kind": "dev",
    "methods": {
      "owner()": {
        "details": "Returns the address of the current owner."
      },
      "paused()": {
        "details": "Returns true if the contract is paused, and false otherwise."
      },
      "renounceOwnership()": {
        "details": "Leaves the contract without owner. It will not be possible to call `onlyOwner` functions anymore. Can only be called by the current owner. NOTE: Renouncing ownership will leave the contract without an owner, thereby removing any functionality that is only available to the owner."
      },
      "transferOwnership(address)": {
        "details": "Transfers ownership of the contract to a new account (`newOwner`). Can only be called by the current owner."
      },
      "upgradeTo(address)": {
        "details": "Upgrade the implementation of the proxy to `newImplementation`. Calls {_authorizeUpgrade}. Emits an {Upgraded} event."
      },
      "upgradeToAndCall(address,bytes)": {
        "details": "Upgrade the implementation of the proxy to `newImplementation`, and subsequently execute the function call encoded in `data`. Calls {_authorizeUpgrade}. Emits an {Upgraded} event."
      }
    },
    "version": 1
  },
  "userdoc": {
    "kind": "user",
    "methods": {},
    "version": 1
  }
}