{
  "contractName": "PurseTokenUpgradableV2",
  "abi": [
    {
      "anonymous": false,
      "inputs": [
        {
          "indexed": false,
          "internalType": "address",
          "name": "previousAdmin",
          "type": "address"
        },
        {
          "indexed": false,
          "internalType": "address",
          "name": "newAdmin",
          "type": "address"
        }
      ],
      "name": "AdminChanged",
      "type": "event"
    },
    {
      "anonymous": false,
      "inputs": [
        {
          "indexed": true,
          "internalType": "address",
          "name": "_owner",
          "type": "address"
        },
        {
          "indexed": true,
          "internalType": "address",
          "name": "_spender",
          "type": "address"
        },
        {
          "indexed": false,
          "internalType": "uint256",
          "name": "_value",
          "type": "uint256"
        }
      ],
      "name": "Approval",
      "type": "event"
    },
    {
      "anonymous": false,
      "inputs": [
        {
          "indexed": true,
          "internalType": "address",
          "name": "beacon",
          "type": "address"
        }
      ],
      "name": "BeaconUpgraded",
      "type": "event"
    },
    {
      "anonymous": false,
      "inputs": [
        {
          "indexed": true,
          "internalType": "address",
          "name": "_from",
          "type": "address"
        },
        {
          "indexed": false,
          "internalType": "uint256",
          "name": "_value",
          "type": "uint256"
        }
      ],
      "name": "Burn",
      "type": "event"
    },
    {
      "anonymous": false,
      "inputs": [
        {
          "indexed": true,
          "internalType": "address",
          "name": "_from",
          "type": "address"
        },
        {
          "indexed": true,
          "internalType": "address",
          "name": "_to",
          "type": "address"
        },
        {
          "indexed": false,
          "internalType": "uint256",
          "name": "_value",
          "type": "uint256"
        }
      ],
      "name": "Mint",
      "type": "event"
    },
    {
      "anonymous": false,
      "inputs": [
        {
          "indexed": true,
          "internalType": "address",
          "name": "previousOwner",
          "type": "address"
        },
        {
          "indexed": true,
          "internalType": "address",
          "name": "newOwner",
          "type": "address"
        }
      ],
      "name": "OwnershipTransferred",
      "type": "event"
    },
    {
      "anonymous": false,
      "inputs": [
        {
          "indexed": false,
          "internalType": "address",
          "name": "account",
          "type": "address"
        }
      ],
      "name": "Paused",
      "type": "event"
    },
    {
      "anonymous": false,
      "inputs": [
        {
          "indexed": true,
          "internalType": "address",
          "name": "_from",
          "type": "address"
        },
        {
          "indexed": true,
          "internalType": "address",
          "name": "_to",
          "type": "address"
        },
        {
          "indexed": false,
          "internalType": "uint256",
          "name": "_value",
          "type": "uint256"
        }
      ],
      "name": "Transfer",
      "type": "event"
    },
    {
      "anonymous": false,
      "inputs": [
        {
          "indexed": false,
          "internalType": "address",
          "name": "account",
          "type": "address"
        }
      ],
      "name": "Unpaused",
      "type": "event"
    },
    {
      "anonymous": false,
      "inputs": [
        {
          "indexed": true,
          "internalType": "address",
          "name": "implementation",
          "type": "address"
        }
      ],
      "name": "Upgraded",
      "type": "event"
    },
    {
      "inputs": [],
      "name": "_averageInterval",
      "outputs": [
        {
          "internalType": "uint256",
          "name": "",
          "type": "uint256"
        }
      ],
      "stateMutability": "view",
      "type": "function"
    },
    {
      "inputs": [],
      "name": "_getRewardEndTime",
      "outputs": [
        {
          "internalType": "uint256",
          "name": "",
          "type": "uint256"
        }
      ],
      "stateMutability": "view",
      "type": "function"
    },
    {
      "inputs": [],
      "name": "_getRewardStartTime",
      "outputs": [
        {
          "internalType": "uint256",
          "name": "",
          "type": "uint256"
        }
      ],
      "stateMutability": "view",
      "type": "function"
    },
    {
      "inputs": [],
      "name": "_lastRewardStartTime",
      "outputs": [
        {
          "internalType": "uint256",
          "name": "",
          "type": "uint256"
        }
      ],
      "stateMutability": "view",
      "type": "function"
    },
    {
      "inputs": [],
      "name": "_monthlyDistributePr",
      "outputs": [
        {
          "internalType": "uint256",
          "name": "",
          "type": "uint256"
        }
      ],
      "stateMutability": "view",
      "type": "function"
    },
    {
      "inputs": [],
      "name": "_numOfDaysPerMth",
      "outputs": [
        {
          "internalType": "uint256",
          "name": "",
          "type": "uint256"
        }
      ],
      "stateMutability": "view",
      "type": "function"
    },
    {
      "inputs": [],
      "name": "_percentageDistribute",
      "outputs": [
        {
          "internalType": "uint256",
          "name": "",
          "type": "uint256"
        }
      ],
      "stateMutability": "view",
      "type": "function"
    },
    {
      "inputs": [],
      "name": "_totalSupply",
      "outputs": [
        {
          "internalType": "uint256",
          "name": "",
          "type": "uint256"
        }
      ],
      "stateMutability": "view",
      "type": "function"
    },
    {
      "inputs": [
        {
          "internalType": "address",
          "name": "",
          "type": "address"
        }
      ],
      "name": "accAmount",
      "outputs": [
        {
          "internalType": "uint256",
          "name": "amount",
          "type": "uint256"
        },
        {
          "internalType": "uint256",
          "name": "lastUpdateTime",
          "type": "uint256"
        }
      ],
      "stateMutability": "view",
      "type": "function"
    },
    {
      "inputs": [
        {
          "internalType": "uint256",
          "name": "",
          "type": "uint256"
        }
      ],
      "name": "admins",
      "outputs": [
        {
          "internalType": "address",
          "name": "",
          "type": "address"
        }
      ],
      "stateMutability": "view",
      "type": "function"
    },
    {
      "inputs": [
        {
          "internalType": "address",
          "name": "",
          "type": "address"
        },
        {
          "internalType": "address",
          "name": "",
          "type": "address"
        }
      ],
      "name": "allowance",
      "outputs": [
        {
          "internalType": "uint256",
          "name": "",
          "type": "uint256"
        }
      ],
      "stateMutability": "view",
      "type": "function"
    },
    {
      "inputs": [
        {
          "internalType": "address",
          "name": "",
          "type": "address"
        }
      ],
      "name": "balanceOf",
      "outputs": [
        {
          "internalType": "uint256",
          "name": "",
          "type": "uint256"
        }
      ],
      "stateMutability": "view",
      "type": "function"
    },
    {
      "inputs": [],
      "name": "burnPercent",
      "outputs": [
        {
          "internalType": "uint256",
          "name": "",
          "type": "uint256"
        }
      ],
      "stateMutability": "view",
      "type": "function"
    },
    {
      "inputs": [],
      "name": "decimals",
      "outputs": [
        {
          "internalType": "uint8",
          "name": "",
          "type": "uint8"
        }
      ],
      "stateMutability": "view",
      "type": "function"
    },
    {
      "inputs": [],
      "name": "disPercent",
      "outputs": [
        {
          "internalType": "uint256",
          "name": "",
          "type": "uint256"
        }
      ],
      "stateMutability": "view",
      "type": "function"
    },
    {
      "inputs": [],
      "name": "disPool",
      "outputs": [
        {
          "internalType": "address",
          "name": "",
          "type": "address"
        }
      ],
      "stateMutability": "view",
      "type": "function"
    },
    {
      "inputs": [
        {
          "internalType": "address",
          "name": "",
          "type": "address"
        }
      ],
      "name": "isAdmin",
      "outputs": [
        {
          "internalType": "bool",
          "name": "",
          "type": "bool"
        }
      ],
      "stateMutability": "view",
      "type": "function"
    },
    {
      "inputs": [
        {
          "internalType": "address",
          "name": "",
          "type": "address"
        }
      ],
      "name": "isWhitelistedFrom",
      "outputs": [
        {
          "internalType": "bool",
          "name": "",
          "type": "bool"
        }
      ],
      "stateMutability": "view",
      "type": "function"
    },
    {
      "inputs": [
        {
          "internalType": "address",
          "name": "",
          "type": "address"
        }
      ],
      "name": "isWhitelistedTo",
      "outputs": [
        {
          "internalType": "bool",
          "name": "",
          "type": "bool"
        }
      ],
      "stateMutability": "view",
      "type": "function"
    },
    {
      "inputs": [],
      "name": "liqPercent",
      "outputs": [
        {
          "internalType": "uint256",
          "name": "",
          "type": "uint256"
        }
      ],
      "stateMutability": "view",
      "type": "function"
    },
    {
      "inputs": [],
      "name": "liqPool",
      "outputs": [
        {
          "internalType": "address",
          "name": "",
          "type": "address"
        }
      ],
      "stateMutability": "view",
      "type": "function"
    },
    {
      "inputs": [],
      "name": "name",
      "outputs": [
        {
          "internalType": "string",
          "name": "",
          "type": "string"
        }
      ],
      "stateMutability": "view",
      "type": "function"
    },
    {
      "inputs": [],
      "name": "owner",
      "outputs": [
        {
          "internalType": "address",
          "name": "",
          "type": "address"
        }
      ],
      "stateMutability": "view",
      "type": "function"
    },
    {
      "inputs": [],
      "name": "paused",
      "outputs": [
        {
          "internalType": "bool",
          "name": "",
          "type": "bool"
        }
      ],
      "stateMutability": "view",
      "type": "function"
    },
    {
      "inputs": [],
      "name": "renounceOwnership",
      "outputs": [],
      "stateMutability": "nonpayable",
      "type": "function"
    },
    {
      "inputs": [],
      "name": "symbol",
      "outputs": [
        {
          "internalType": "string",
          "name": "",
          "type": "string"
        }
      ],
      "stateMutability": "view",
      "type": "function"
    },
    {
      "inputs": [],
      "name": "totalSupply",
      "outputs": [
        {
          "internalType": "uint256",
          "name": "",
          "type": "uint256"
        }
      ],
      "stateMutability": "view",
      "type": "function"
    },
    {
      "inputs": [
        {
          "internalType": "address",
          "name": "newOwner",
          "type": "address"
        }
      ],
      "name": "transferOwnership",
      "outputs": [],
      "stateMutability": "nonpayable",
      "type": "function"
    },
    {
      "inputs": [
        {
          "internalType": "address",
          "name": "newImplementation",
          "type": "address"
        }
      ],
      "name": "upgradeTo",
      "outputs": [],
      "stateMutability": "nonpayable",
      "type": "function"
    },
    {
      "inputs": [
        {
          "internalType": "address",
          "name": "newImplementation",
          "type": "address"
        },
        {
          "internalType": "bytes",
          "name": "data",
          "type": "bytes"
        }
      ],
      "name": "upgradeToAndCall",
      "outputs": [],
      "stateMutability": "payable",
      "type": "function"
    },
    {
      "inputs": [
        {
          "internalType": "address",
          "name": "_to",
          "type": "address"
        },
        {
          "internalType": "uint256",
          "name": "_value",
          "type": "uint256"
        }
      ],
      "name": "transfer",
      "outputs": [
        {
          "internalType": "bool",
          "name": "success",
          "type": "bool"
        }
      ],
      "stateMutability": "nonpayable",
      "type": "function"
    },
    {
      "inputs": [
        {
          "internalType": "address",
          "name": "_spender",
          "type": "address"
        },
        {
          "internalType": "uint256",
          "name": "_value",
          "type": "uint256"
        }
      ],
      "name": "approve",
      "outputs": [
        {
          "internalType": "bool",
          "name": "success",
          "type": "bool"
        }
      ],
      "stateMutability": "nonpayable",
      "type": "function"
    },
    {
      "inputs": [
        {
          "internalType": "address",
          "name": "_from",
          "type": "address"
        },
        {
          "internalType": "address",
          "name": "_to",
          "type": "address"
        },
        {
          "internalType": "uint256",
          "name": "_value",
          "type": "uint256"
        }
      ],
      "name": "transferFrom",
      "outputs": [
        {
          "internalType": "bool",
          "name": "success",
          "type": "bool"
        }
      ],
      "stateMutability": "nonpayable",
      "type": "function"
    },
    {
      "inputs": [
        {
          "internalType": "address",
          "name": "_account",
          "type": "address"
        },
        {
          "internalType": "uint256",
          "name": "_amount",
          "type": "uint256"
        }
      ],
      "name": "mint",
      "outputs": [],
      "stateMutability": "nonpayable",
      "type": "function"
    },
    {
      "inputs": [
        {
          "internalType": "uint256",
          "name": "_amount",
          "type": "uint256"
        }
      ],
      "name": "burn",
      "outputs": [],
      "stateMutability": "nonpayable",
      "type": "function"
    },
    {
      "inputs": [],
      "name": "claimDistributionPurse",
      "outputs": [
        {
          "internalType": "bool",
          "name": "success",
          "type": "bool"
        }
      ],
      "stateMutability": "nonpayable",
      "type": "function"
    },
    {
      "inputs": [
        {
          "internalType": "uint256",
          "name": "_rewardStartTime",
          "type": "uint256"
        },
        {
          "internalType": "uint256",
          "name": "_rewardEndTime",
          "type": "uint256"
        },
        {
          "internalType": "uint256",
          "name": "_monthlyDisPr",
          "type": "uint256"
        },
        {
          "internalType": "uint256",
          "name": "_numOfDays",
          "type": "uint256"
        },
        {
          "internalType": "uint256",
          "name": "_percentage",
          "type": "uint256"
        }
      ],
      "name": "activateClaimMonthly",
      "outputs": [],
      "stateMutability": "nonpayable",
      "type": "function"
    },
    {
      "inputs": [
        {
          "internalType": "address",
          "name": "_newLPool",
          "type": "address"
        }
      ],
      "name": "updateLPoolAdd",
      "outputs": [],
      "stateMutability": "nonpayable",
      "type": "function"
    },
    {
      "inputs": [
        {
          "internalType": "address",
          "name": "_newDPool",
          "type": "address"
        }
      ],
      "name": "updateDPoolAdd",
      "outputs": [],
      "stateMutability": "nonpayable",
      "type": "function"
    },
    {
      "inputs": [
        {
          "internalType": "uint256",
          "name": "_newDisPercent",
          "type": "uint256"
        },
        {
          "internalType": "uint256",
          "name": "_newLiqPercent",
          "type": "uint256"
        },
        {
          "internalType": "uint256",
          "name": "_newBurnPercent",
          "type": "uint256"
        }
      ],
      "name": "updatePercent",
      "outputs": [],
      "stateMutability": "nonpayable",
      "type": "function"
    },
    {
      "inputs": [
        {
          "internalType": "address",
          "name": "newAdmin",
          "type": "address"
        }
      ],
      "name": "addAdmin",
      "outputs": [],
      "stateMutability": "nonpayable",
      "type": "function"
    },
    {
      "inputs": [
        {
          "internalType": "uint256",
          "name": "index",
          "type": "uint256"
        }
      ],
      "name": "removeAdmin",
      "outputs": [
        {
          "internalType": "address[]",
          "name": "",
          "type": "address[]"
        }
      ],
      "stateMutability": "nonpayable",
      "type": "function"
    },
    {
      "inputs": [],
      "name": "getAdmins",
      "outputs": [
        {
          "internalType": "address[]",
          "name": "",
          "type": "address[]"
        }
      ],
      "stateMutability": "view",
      "type": "function"
    },
    {
      "inputs": [
        {
          "internalType": "address",
          "name": "token",
          "type": "address"
        },
        {
          "internalType": "uint256",
          "name": "amount",
          "type": "uint256"
        },
        {
          "internalType": "address",
          "name": "_to",
          "type": "address"
        }
      ],
      "name": "transferERCToken",
      "outputs": [],
      "stateMutability": "nonpayable",
      "type": "function"
    },
    {
      "inputs": [],
      "name": "pause",
      "outputs": [],
      "stateMutability": "nonpayable",
      "type": "function"
    },
    {
      "inputs": [],
      "name": "unpause",
      "outputs": [],
      "stateMutability": "nonpayable",
      "type": "function"
    },
    {
      "inputs": [
        {
          "internalType": "address",
          "name": "newWhitelist",
          "type": "address"
        }
      ],
      "name": "setWhitelistedTo",
      "outputs": [],
      "stateMutability": "nonpayable",
      "type": "function"
    },
    {
      "inputs": [
        {
          "internalType": "address",
          "name": "newWhitelist",
          "type": "address"
        }
      ],
      "name": "removeWhitelistedTo",
      "outputs": [],
      "stateMutability": "nonpayable",
      "type": "function"
    },
    {
      "inputs": [
        {
          "internalType": "address",
          "name": "newWhitelist",
          "type": "address"
        }
      ],
      "name": "setWhitelistedFrom",
      "outputs": [],
      "stateMutability": "nonpayable",
      "type": "function"
    },
    {
      "inputs": [
        {
          "internalType": "address",
          "name": "newWhitelist",
          "type": "address"
        }
      ],
      "name": "removeWhitelistedFrom",
      "outputs": [],
      "stateMutability": "nonpayable",
      "type": "function"
    },
    {
      "inputs": [
        {
          "internalType": "address",
          "name": "_to",
          "type": "address"
        },
        {
          "internalType": "address",
          "name": "_lPool",
          "type": "address"
        },
        {
          "internalType": "address",
          "name": "_dPool",
          "type": "address"
        },
        {
          "internalType": "uint256",
          "name": "_burnPercent",
          "type": "uint256"
        },
        {
          "internalType": "uint256",
          "name": "_liqPercent",
          "type": "uint256"
        },
        {
          "internalType": "uint256",
          "name": "_disPercent",
          "type": "uint256"
        }
      ],
      "name": "initialize",
      "outputs": [],
      "stateMutability": "nonpayable",
      "type": "function"
    }
  ],
  "bytecode": "0x608060405234801561001057600080fd5b50615f2e80620000216000396000f3fe6080604052600436106102e45760003560e01c80635b01402911610190578063ad7bbc29116100dc578063ca04d2d811610095578063dd62ed3e1161006f578063dd62ed3e14610b20578063e2657da114610b5d578063f2fde38b14610b86578063f756724414610baf576102e4565b8063ca04d2d814610a8f578063d552920414610acc578063d5b8ddf814610af7576102e4565b8063ad7bbc291461096c578063b7c74bd3146109a9578063bab38440146109e7578063bc8d571d14610a10578063c43c082f14610a3b578063c6ef924614610a64576102e4565b8063740b91f4116101495780638da5cb5b116101235780638da5cb5b146108ae57806395d89b41146108d957806395e96ff114610904578063a9059cbb1461092f576102e4565b8063740b91f4146108415780637888f7b21461086c5780638456cb5914610897576102e4565b80635b014029146107335780635c975abb14610770578063704802751461079b57806370a08231146107c4578063715018a614610801578063728cdbca14610818576102e4565b806331ae450b1161024f5780633f4ba83a11610208578063434f9237116101e2578063434f92371461069a5780634d28b4ba146106c35780634f1ef286146106ec5780635422e49514610708576102e4565b80633f4ba83a1461063157806340c10f191461064857806342966c6814610671576102e4565b806331ae450b14610535578063347d34c61461056057806335e8b82e1461058b5780633659cfe6146105b45780633838d4e3146105dd5780633eaaf86b14610606576102e4565b806318160ddd116102a157806318160ddd1461040f57806320b1e78a1461043a57806323b872dd1461046557806324d7806c146104a257806327ba6e11146104df578063313ce5671461050a576102e4565b806303807ee5146102e957806306fdde0314610314578063095ea7b31461033f5780630f4307e21461037c57806311a6c16c146103a757806314bfd6d0146103d2575b600080fd5b3480156102f557600080fd5b506102fe610bd8565b60405161030b91906157cf565b60405180910390f35b34801561032057600080fd5b50610329610bdf565b60405161033691906156ad565b60405180910390f35b34801561034b57600080fd5b5061036660048036038101906103619190615217565b610c6d565b6040516103739190615692565b60405180910390f35b34801561038857600080fd5b50610391610da8565b60405161039e91906157cf565b60405180910390f35b3480156103b357600080fd5b506103bc610daf565b6040516103c99190615692565b60405180910390f35b3480156103de57600080fd5b506103f960048036038101906103f491906152d7565b61103f565b604051610406919061562c565b60405180910390f35b34801561041b57600080fd5b5061042461107f565b60405161043191906157cf565b60405180910390f35b34801561044657600080fd5b5061044f611085565b60405161045c91906157cf565b60405180910390f35b34801561047157600080fd5b5061048c60048036038101906104879190615168565b61108c565b6040516104999190615692565b60405180910390f35b3480156104ae57600080fd5b506104c960048036038101906104c4919061506e565b6115e9565b6040516104d69190615692565b60405180910390f35b3480156104eb57600080fd5b506104f461160a565b604051610501919061562c565b60405180910390f35b34801561051657600080fd5b5061051f611631565b60405161052c9190615813565b60405180910390f35b34801561054157600080fd5b5061054a611644565b6040516105579190615670565b60405180910390f35b34801561056c57600080fd5b506105756116d3565b60405161058291906157cf565b60405180910390f35b34801561059757600080fd5b506105b260048036038101906105ad919061506e565b6116da565b005b3480156105c057600080fd5b506105db60048036038101906105d6919061506e565b6117f7565b005b3480156105e957600080fd5b5061060460048036038101906105ff919061506e565b61181e565b005b34801561061257600080fd5b5061061b61194e565b60405161062891906157cf565b60405180910390f35b34801561063d57600080fd5b50610646611955565b005b34801561065457600080fd5b5061066f600480360381019061066a9190615217565b611a22565b005b34801561067d57600080fd5b50610698600480360381019061069391906152d7565b611bdf565b005b3480156106a657600080fd5b506106c160048036038101906106bc9190615357565b611d4d565b005b3480156106cf57600080fd5b506106ea60048036038101906106e5919061506e565b611e3f565b005b610706600480360381019061070191906151bb565b611f6e565b005b34801561071457600080fd5b5061071d611f87565b60405161072a91906157cf565b60405180910390f35b34801561073f57600080fd5b5061075a6004803603810190610755919061506e565b611f8e565b6040516107679190615692565b60405180910390f35b34801561077c57600080fd5b50610785611faf565b6040516107929190615692565b60405180910390f35b3480156107a757600080fd5b506107c260048036038101906107bd919061506e565b611fc6565b005b3480156107d057600080fd5b506107eb60048036038101906107e6919061506e565b61215a565b6040516107f891906157cf565b60405180910390f35b34801561080d57600080fd5b50610816612173565b005b34801561082457600080fd5b5061083f600480360381019061083a91906150db565b6121fb565b005b34801561084d57600080fd5b50610856612615565b604051610863919061562c565b60405180910390f35b34801561087857600080fd5b5061088161263c565b60405161088e91906157cf565b60405180910390f35b3480156108a357600080fd5b506108ac612643565b005b3480156108ba57600080fd5b506108c3612711565b6040516108d0919061562c565b60405180910390f35b3480156108e557600080fd5b506108ee61273b565b6040516108fb91906156ad565b60405180910390f35b34801561091057600080fd5b506109196127c9565b60405161092691906157cf565b60405180910390f35b34801561093b57600080fd5b5061095660048036038101906109519190615217565b6127d0565b6040516109639190615692565b60405180910390f35b34801561097857600080fd5b50610993600480360381019061098e91906152d7565b612b7a565b6040516109a09190615670565b60405180910390f35b3480156109b557600080fd5b506109d060048036038101906109cb919061506e565b612eb3565b6040516109de9291906157ea565b60405180910390f35b3480156109f357600080fd5b50610a0e6004803603810190610a09919061506e565b612ed8565b005b348015610a1c57600080fd5b50610a25612ff5565b604051610a3291906157cf565b60405180910390f35b348015610a4757600080fd5b50610a626004803603810190610a5d9190615304565b612ffc565b005b348015610a7057600080fd5b50610a796130e4565b604051610a8691906157cf565b60405180910390f35b348015610a9b57600080fd5b50610ab66004803603810190610ab1919061506e565b6130eb565b604051610ac39190615692565b60405180910390f35b348015610ad857600080fd5b50610ae161310c565b604051610aee91906157cf565b60405180910390f35b348015610b0357600080fd5b50610b1e6004803603810190610b199190615257565b613113565b005b348015610b2c57600080fd5b50610b476004803603810190610b42919061509b565b613376565b604051610b5491906157cf565b60405180910390f35b348015610b6957600080fd5b50610b846004803603810190610b7f919061506e565b61339c565b005b348015610b9257600080fd5b50610bad6004803603810190610ba8919061506e565b6134cb565b005b348015610bbb57600080fd5b50610bd66004803603810190610bd1919061506e565b6135c3565b005b6101035481565b60fb8054610bec90615a9b565b80601f0160208091040260200160405190810160405280929190818152602001828054610c1890615a9b565b8015610c655780601f10610c3a57610100808354040283529160200191610c65565b820191906000526020600020905b815481529060010190602001808311610c4857829003601f168201915b505050505081565b6000610c77611faf565b15610cb7576040517f08c379a0000000000000000000000000000000000000000000000000000000008152600401610cae9061572f565b60405180910390fd5b8161010f60003373ffffffffffffffffffffffffffffffffffffffff1673ffffffffffffffffffffffffffffffffffffffff16815260200190815260200160002060008573ffffffffffffffffffffffffffffffffffffffff1673ffffffffffffffffffffffffffffffffffffffff168152602001908152602001600020819055508273ffffffffffffffffffffffffffffffffffffffff163373ffffffffffffffffffffffffffffffffffffffff167f8c5be1e5ebec7d5bd14f71427d1e84f3dd0314c0f7b2291e5b200ac8c7c3b92584604051610d9691906157cf565b60405180910390a36001905092915050565b61010a5481565b6000610db9611faf565b15610df9576040517f08c379a0000000000000000000000000000000000000000000000000000000008152600401610df09061572f565b60405180910390fd5b610107544210610e0857600080fd5b610108544211610e1757600080fd5b6101085461011360003373ffffffffffffffffffffffffffffffffffffffff1673ffffffffffffffffffffffffffffffffffffffff1681526020019081526020016000206001015410610e6957600080fd5b610e72336136f3565b60006127106101095461010d54606461010b5461010a5461011360003373ffffffffffffffffffffffffffffffffffffffff1673ffffffffffffffffffffffffffffffffffffffff16815260200190815260200160002060000154610ed79190615976565b610ee19190615976565b610eeb9190615976565b610ef59190615945565b610eff9190615945565b610f099190615945565b90506101085461011360003373ffffffffffffffffffffffffffffffffffffffff1673ffffffffffffffffffffffffffffffffffffffff16815260200190815260200160002060010181905550600061011360003373ffffffffffffffffffffffffffffffffffffffff1673ffffffffffffffffffffffffffffffffffffffff16815260200190815260200160002060000181905550610fa93342613703565b3073ffffffffffffffffffffffffffffffffffffffff1663a9059cbb33836040518363ffffffff1660e01b8152600401610fe4929190615647565b602060405180830381600087803b158015610ffe57600080fd5b505af1158015611012573d6000803e3d6000fd5b505050506040513d601f19601f8201168201806040525081019061103691906152aa565b50600191505090565b610100818154811061105057600080fd5b906000526020600020016000915054906101000a900473ffffffffffffffffffffffffffffffffffffffff1681565b60fd5481565b61010b5481565b6000611096611faf565b156110d6576040517f08c379a00000000000000000000000000000000000000000000000000000000081526004016110cd9061572f565b60405180910390fd5b60008210156110e457600080fd5b61010e60008573ffffffffffffffffffffffffffffffffffffffff1673ffffffffffffffffffffffffffffffffffffffff1681526020019081526020016000205482111561113157600080fd5b61010f60008573ffffffffffffffffffffffffffffffffffffffff1673ffffffffffffffffffffffffffffffffffffffff16815260200190815260200160002060003373ffffffffffffffffffffffffffffffffffffffff1673ffffffffffffffffffffffffffffffffffffffff168152602001908152602001600020548211156111bb57600080fd5b61011160008473ffffffffffffffffffffffffffffffffffffffff1673ffffffffffffffffffffffffffffffffffffffff16815260200190815260200160002060009054906101000a900460ff168061125e575061011260003373ffffffffffffffffffffffffffffffffffffffff1673ffffffffffffffffffffffffffffffffffffffff16815260200190815260200160002060009054906101000a900460ff165b1561141d578161010f60008673ffffffffffffffffffffffffffffffffffffffff1673ffffffffffffffffffffffffffffffffffffffff16815260200190815260200160002060003373ffffffffffffffffffffffffffffffffffffffff1673ffffffffffffffffffffffffffffffffffffffff16815260200190815260200160002060008282546112f091906159d0565b925050819055506113018484613a92565b8161010e60008673ffffffffffffffffffffffffffffffffffffffff1673ffffffffffffffffffffffffffffffffffffffff168152602001908152602001600020600082825461135191906159d0565b925050819055508161010e60008573ffffffffffffffffffffffffffffffffffffffff1673ffffffffffffffffffffffffffffffffffffffff16815260200190815260200160002060008282546113a891906158ef565b925050819055508273ffffffffffffffffffffffffffffffffffffffff168473ffffffffffffffffffffffffffffffffffffffff167fddf252ad1be2c89b69c2b068fc378daa952ba7f163c4a11628f55a4df523b3ef8460405161140c91906157cf565b60405180910390a3600190506115e2565b8161010f60008673ffffffffffffffffffffffffffffffffffffffff1673ffffffffffffffffffffffffffffffffffffffff16815260200190815260200160002060003373ffffffffffffffffffffffffffffffffffffffff1673ffffffffffffffffffffffffffffffffffffffff16815260200190815260200160002060008282546114aa91906159d0565b925050819055506114bb8484613a92565b60006114c78386613aaa565b90508061010e60008773ffffffffffffffffffffffffffffffffffffffff1673ffffffffffffffffffffffffffffffffffffffff168152602001908152602001600020600082825461151991906159d0565b925050819055508061010e60008673ffffffffffffffffffffffffffffffffffffffff1673ffffffffffffffffffffffffffffffffffffffff168152602001908152602001600020600082825461157091906158ef565b925050819055508373ffffffffffffffffffffffffffffffffffffffff168573ffffffffffffffffffffffffffffffffffffffff167fddf252ad1be2c89b69c2b068fc378daa952ba7f163c4a11628f55a4df523b3ef836040516115d491906157cf565b60405180910390a360019150505b9392505050565b6101106020528060005260406000206000915054906101000a900460ff1681565b61010260009054906101000a900473ffffffffffffffffffffffffffffffffffffffff1681565b60fe60009054906101000a900460ff1681565b60606101008054806020026020016040519081016040528092919081815260200182805480156116c957602002820191906000526020600020905b8160009054906101000a900473ffffffffffffffffffffffffffffffffffffffff1673ffffffffffffffffffffffffffffffffffffffff168152602001906001019080831161167f575b5050505050905090565b6101065481565b6116e2613b2b565b73ffffffffffffffffffffffffffffffffffffffff16611700612711565b73ffffffffffffffffffffffffffffffffffffffff1614611756576040517f08c379a000000000000000000000000000000000000000000000000000000000815260040161174d9061578f565b60405180910390fd5b61010160009054906101000a900473ffffffffffffffffffffffffffffffffffffffff1673ffffffffffffffffffffffffffffffffffffffff168173ffffffffffffffffffffffffffffffffffffffff1614156117b257600080fd5b8061010160006101000a81548173ffffffffffffffffffffffffffffffffffffffff021916908373ffffffffffffffffffffffffffffffffffffffff16021790555050565b61180081613b33565b61181b81604051806020016040528060008152506000613bb2565b50565b611826613b2b565b73ffffffffffffffffffffffffffffffffffffffff16611844612711565b73ffffffffffffffffffffffffffffffffffffffff161461189a576040517f08c379a00000000000000000000000000000000000000000000000000000000081526004016118919061578f565b60405180910390fd5b61011260008273ffffffffffffffffffffffffffffffffffffffff1673ffffffffffffffffffffffffffffffffffffffff16815260200190815260200160002060009054906101000a900460ff16156118f257600080fd5b600161011260008373ffffffffffffffffffffffffffffffffffffffff1673ffffffffffffffffffffffffffffffffffffffff16815260200190815260200160002060006101000a81548160ff02191690831515021790555050565b61010d5481565b61195d611faf565b61199c576040517f08c379a0000000000000000000000000000000000000000000000000000000008152600401611993906156cf565b60405180910390fd5b6119a4613b2b565b73ffffffffffffffffffffffffffffffffffffffff166119c2612711565b73ffffffffffffffffffffffffffffffffffffffff1614611a18576040517f08c379a0000000000000000000000000000000000000000000000000000000008152600401611a0f9061578f565b60405180910390fd5b611a20613d83565b565b611a2a611faf565b15611a6a576040517f08c379a0000000000000000000000000000000000000000000000000000000008152600401611a619061572f565b60405180910390fd5b61011060003373ffffffffffffffffffffffffffffffffffffffff1673ffffffffffffffffffffffffffffffffffffffff16815260200190815260200160002060009054906101000a900460ff16611ac157600080fd5b600073ffffffffffffffffffffffffffffffffffffffff168273ffffffffffffffffffffffffffffffffffffffff161415611afb57600080fd5b611b058242613703565b8061010e60008473ffffffffffffffffffffffffffffffffffffffff1673ffffffffffffffffffffffffffffffffffffffff1681526020019081526020016000206000828254611b5591906158ef565b925050819055508060fd6000828254611b6e91906158ef565b925050819055508173ffffffffffffffffffffffffffffffffffffffff16600073ffffffffffffffffffffffffffffffffffffffff167fab8530f87dc9b59234c4623bf917212bb2536d647574c8e7e5da92c2ede0c9f883604051611bd391906157cf565b60405180910390a35050565b611be7611faf565b15611c27576040517f08c379a0000000000000000000000000000000000000000000000000000000008152600401611c1e9061572f565b60405180910390fd5b6000811415611c3557600080fd5b8061010e60003373ffffffffffffffffffffffffffffffffffffffff1673ffffffffffffffffffffffffffffffffffffffff168152602001908152602001600020541015611c8257600080fd5b611c8c3342613703565b8061010e60003373ffffffffffffffffffffffffffffffffffffffff1673ffffffffffffffffffffffffffffffffffffffff1681526020019081526020016000206000828254611cdc91906159d0565b925050819055508060fd6000828254611cf591906159d0565b925050819055503373ffffffffffffffffffffffffffffffffffffffff167fcc16f5dbb4873280815c1ee09dbd06736cffcc184412cf7a71a0fdb75d397ca582604051611d4291906157cf565b60405180910390a250565b611d55613b2b565b73ffffffffffffffffffffffffffffffffffffffff16611d73612711565b73ffffffffffffffffffffffffffffffffffffffff1614611dc9576040517f08c379a0000000000000000000000000000000000000000000000000000000008152600401611dc09061578f565b60405180910390fd5b428511611dd557600080fd5b848411611de157600080fd5b60008211611dee57600080fd5b60008111611dfb57600080fd5b60fd5461010d819055506101085461010c819055508161010981905550846101088190555083610107819055508061010b819055508261010a819055505050505050565b611e47613b2b565b73ffffffffffffffffffffffffffffffffffffffff16611e65612711565b73ffffffffffffffffffffffffffffffffffffffff1614611ebb576040517f08c379a0000000000000000000000000000000000000000000000000000000008152600401611eb29061578f565b60405180910390fd5b61011260008273ffffffffffffffffffffffffffffffffffffffff1673ffffffffffffffffffffffffffffffffffffffff16815260200190815260200160002060009054906101000a900460ff16611f1257600080fd5b600061011260008373ffffffffffffffffffffffffffffffffffffffff1673ffffffffffffffffffffffffffffffffffffffff16815260200190815260200160002060006101000a81548160ff02191690831515021790555050565b611f7782613b33565b611f8382826001613bb2565b5050565b6101045481565b6101116020528060005260406000206000915054906101000a900460ff1681565b6000609760009054906101000a900460ff16905090565b611fce613b2b565b73ffffffffffffffffffffffffffffffffffffffff16611fec612711565b73ffffffffffffffffffffffffffffffffffffffff1614612042576040517f08c379a00000000000000000000000000000000000000000000000000000000081526004016120399061578f565b60405180910390fd5b61011060008273ffffffffffffffffffffffffffffffffffffffff1673ffffffffffffffffffffffffffffffffffffffff16815260200190815260200160002060009054906101000a900460ff161561209a57600080fd5b600161011060008373ffffffffffffffffffffffffffffffffffffffff1673ffffffffffffffffffffffffffffffffffffffff16815260200190815260200160002060006101000a81548160ff021916908315150217905550610100819080600181540180825580915050600190039060005260206000200160009091909190916101000a81548173ffffffffffffffffffffffffffffffffffffffff021916908373ffffffffffffffffffffffffffffffffffffffff16021790555050565b61010e6020528060005260406000206000915090505481565b61217b613b2b565b73ffffffffffffffffffffffffffffffffffffffff16612199612711565b73ffffffffffffffffffffffffffffffffffffffff16146121ef576040517f08c379a00000000000000000000000000000000000000000000000000000000081526004016121e69061578f565b60405180910390fd5b6121f96000613e25565b565b600060019054906101000a900460ff1680612221575060008054906101000a900460ff16155b612260576040517f08c379a00000000000000000000000000000000000000000000000000000000081526004016122579061574f565b60405180910390fd5b60008060019054906101000a900460ff1615905080156122b0576001600060016101000a81548160ff02191690831515021790555060016000806101000a81548160ff0219169083151502179055505b600073ffffffffffffffffffffffffffffffffffffffff168673ffffffffffffffffffffffffffffffffffffffff1614156122ea57600080fd5b600073ffffffffffffffffffffffffffffffffffffffff168573ffffffffffffffffffffffffffffffffffffffff16141561232457600080fd5b600084101561233257600080fd5b600083101561234057600080fd5b600082101561234e57600080fd5b6040518060400160405280600b81526020017f505552534520546f6b656e00000000000000000000000000000000000000000081525060fb9080519060200190612399929190614e92565b506040518060400160405280600581526020017f505552534500000000000000000000000000000000000000000000000000000081525060fc90805190602001906123e5929190614e92565b506bcecb8f27f4200f3a0000000060fd81905550601260fe60006101000a81548160ff021916908360ff16021790555069043c33c193756480000060ff819055508561010160006101000a81548173ffffffffffffffffffffffffffffffffffffffff021916908373ffffffffffffffffffffffffffffffffffffffff1602179055503061010260006101000a81548173ffffffffffffffffffffffffffffffffffffffff021916908373ffffffffffffffffffffffffffffffffffffffff16021790555083610103819055508261010481905550816101058190555060405180602001604052803373ffffffffffffffffffffffffffffffffffffffff1673ffffffffffffffffffffffffffffffffffffffff1681525061010090600161250e929190614f18565b506201518061010681905550612522613eeb565b61252a613fd4565b6125326140bd565b60fd5461010e60008973ffffffffffffffffffffffffffffffffffffffff1673ffffffffffffffffffffffffffffffffffffffff168152602001908152602001600020819055506125838742613703565b8673ffffffffffffffffffffffffffffffffffffffff16600073ffffffffffffffffffffffffffffffffffffffff167fab8530f87dc9b59234c4623bf917212bb2536d647574c8e7e5da92c2ede0c9f860fd546040516125e391906157cf565b60405180910390a3801561260c5760008060016101000a81548160ff0219169083151502179055505b50505050505050565b61010160009054906101000a900473ffffffffffffffffffffffffffffffffffffffff1681565b61010c5481565b61264b611faf565b1561268b576040517f08c379a00000000000000000000000000000000000000000000000000000000081526004016126829061572f565b60405180910390fd5b612693613b2b565b73ffffffffffffffffffffffffffffffffffffffff166126b1612711565b73ffffffffffffffffffffffffffffffffffffffff1614612707576040517f08c379a00000000000000000000000000000000000000000000000000000000081526004016126fe9061578f565b60405180910390fd5b61270f6141a6565b565b600060c960009054906101000a900473ffffffffffffffffffffffffffffffffffffffff16905090565b60fc805461274890615a9b565b80601f016020809104026020016040519081016040528092919081815260200182805461277490615a9b565b80156127c15780601f10612796576101008083540402835291602001916127c1565b820191906000526020600020905b8154815290600101906020018083116127a457829003601f168201915b505050505081565b6101095481565b60006127da611faf565b1561281a576040517f08c379a00000000000000000000000000000000000000000000000000000000081526004016128119061572f565b60405180910390fd5b600082101561282857600080fd5b8161010e60003373ffffffffffffffffffffffffffffffffffffffff1673ffffffffffffffffffffffffffffffffffffffff16815260200190815260200160002054101561287557600080fd5b61011160008473ffffffffffffffffffffffffffffffffffffffff1673ffffffffffffffffffffffffffffffffffffffff16815260200190815260200160002060009054906101000a900460ff1680612918575061011260003373ffffffffffffffffffffffffffffffffffffffff1673ffffffffffffffffffffffffffffffffffffffff16815260200190815260200160002060009054906101000a900460ff165b15612a43576129273384613a92565b8161010e60003373ffffffffffffffffffffffffffffffffffffffff1673ffffffffffffffffffffffffffffffffffffffff168152602001908152602001600020600082825461297791906159d0565b925050819055508161010e60008573ffffffffffffffffffffffffffffffffffffffff1673ffffffffffffffffffffffffffffffffffffffff16815260200190815260200160002060008282546129ce91906158ef565b925050819055508273ffffffffffffffffffffffffffffffffffffffff163373ffffffffffffffffffffffffffffffffffffffff167fddf252ad1be2c89b69c2b068fc378daa952ba7f163c4a11628f55a4df523b3ef84604051612a3291906157cf565b60405180910390a360019050612b74565b612a4d3384613a92565b6000612a598333613aaa565b90508061010e60003373ffffffffffffffffffffffffffffffffffffffff1673ffffffffffffffffffffffffffffffffffffffff1681526020019081526020016000206000828254612aab91906159d0565b925050819055508061010e60008673ffffffffffffffffffffffffffffffffffffffff1673ffffffffffffffffffffffffffffffffffffffff1681526020019081526020016000206000828254612b0291906158ef565b925050819055508373ffffffffffffffffffffffffffffffffffffffff163373ffffffffffffffffffffffffffffffffffffffff167fddf252ad1be2c89b69c2b068fc378daa952ba7f163c4a11628f55a4df523b3ef83604051612b6691906157cf565b60405180910390a360019150505b92915050565b6060612b84613b2b565b73ffffffffffffffffffffffffffffffffffffffff16612ba2612711565b73ffffffffffffffffffffffffffffffffffffffff1614612bf8576040517f08c379a0000000000000000000000000000000000000000000000000000000008152600401612bef9061578f565b60405180910390fd5b60006101008381548110612c0f57612c0e615c03565b5b9060005260206000200160009054906101000a900473ffffffffffffffffffffffffffffffffffffffff169050610100805490508310612c4e57600080fd5b61011060008273ffffffffffffffffffffffffffffffffffffffff1673ffffffffffffffffffffffffffffffffffffffff16815260200190815260200160002060009054906101000a900460ff16612ca557600080fd5b60008390505b600161010080549050612cbe91906159d0565b811015612d8157610100600182612cd591906158ef565b81548110612ce657612ce5615c03565b5b9060005260206000200160009054906101000a900473ffffffffffffffffffffffffffffffffffffffff166101008281548110612d2657612d25615c03565b5b9060005260206000200160006101000a81548173ffffffffffffffffffffffffffffffffffffffff021916908373ffffffffffffffffffffffffffffffffffffffff1602179055508080612d7990615afe565b915050612cab565b50610100805480612d9557612d94615bd4565b5b6001900381819060005260206000200160006101000a81549073ffffffffffffffffffffffffffffffffffffffff02191690559055600061011060008373ffffffffffffffffffffffffffffffffffffffff1673ffffffffffffffffffffffffffffffffffffffff16815260200190815260200160002060006101000a81548160ff021916908315150217905550610100805480602002602001604051908101604052809291908181526020018280548015612ea657602002820191906000526020600020905b8160009054906101000a900473ffffffffffffffffffffffffffffffffffffffff1673ffffffffffffffffffffffffffffffffffffffff1681526020019060010190808311612e5c575b5050505050915050919050565b6101136020528060005260406000206000915090508060000154908060010154905082565b612ee0613b2b565b73ffffffffffffffffffffffffffffffffffffffff16612efe612711565b73ffffffffffffffffffffffffffffffffffffffff1614612f54576040517f08c379a0000000000000000000000000000000000000000000000000000000008152600401612f4b9061578f565b60405180910390fd5b61010260009054906101000a900473ffffffffffffffffffffffffffffffffffffffff1673ffffffffffffffffffffffffffffffffffffffff168173ffffffffffffffffffffffffffffffffffffffff161415612fb057600080fd5b8061010260006101000a81548173ffffffffffffffffffffffffffffffffffffffff021916908373ffffffffffffffffffffffffffffffffffffffff16021790555050565b6101085481565b613004613b2b565b73ffffffffffffffffffffffffffffffffffffffff16613022612711565b73ffffffffffffffffffffffffffffffffffffffff1614613078576040517f08c379a000000000000000000000000000000000000000000000000000000000815260040161306f9061578f565b60405180910390fd5b6000831015801561308a575060648311155b8015613097575060008210155b80156130a4575060648211155b80156130b1575060008110155b80156130be575060648111155b6130c757600080fd5b826101058190555081610104819055508061010381905550505050565b6101055481565b6101126020528060005260406000206000915054906101000a900460ff1681565b6101075481565b61311b611faf565b1561315b576040517f08c379a00000000000000000000000000000000000000000000000000000000081526004016131529061572f565b60405180910390fd5b613163613b2b565b73ffffffffffffffffffffffffffffffffffffffff16613181612711565b73ffffffffffffffffffffffffffffffffffffffff16146131d7576040517f08c379a00000000000000000000000000000000000000000000000000000000081526004016131ce9061578f565b60405180910390fd5b600073ffffffffffffffffffffffffffffffffffffffff168173ffffffffffffffffffffffffffffffffffffffff16141561321157600080fd5b3073ffffffffffffffffffffffffffffffffffffffff168373ffffffffffffffffffffffffffffffffffffffff1614156132e25761324f3082613a92565b8273ffffffffffffffffffffffffffffffffffffffff1663a9059cbb82846040518363ffffffff1660e01b815260040161328a929190615647565b602060405180830381600087803b1580156132a457600080fd5b505af11580156132b8573d6000803e3d6000fd5b505050506040513d601f19601f820116820180604052508101906132dc91906152aa565b50613371565b8273ffffffffffffffffffffffffffffffffffffffff1663a9059cbb82846040518363ffffffff1660e01b815260040161331d929190615647565b602060405180830381600087803b15801561333757600080fd5b505af115801561334b573d6000803e3d6000fd5b505050506040513d601f19601f8201168201806040525081019061336f91906152aa565b505b505050565b61010f602052816000526040600020602052806000526040600020600091509150505481565b6133a4613b2b565b73ffffffffffffffffffffffffffffffffffffffff166133c2612711565b73ffffffffffffffffffffffffffffffffffffffff1614613418576040517f08c379a000000000000000000000000000000000000000000000000000000000815260040161340f9061578f565b60405180910390fd5b61011160008273ffffffffffffffffffffffffffffffffffffffff1673ffffffffffffffffffffffffffffffffffffffff16815260200190815260200160002060009054906101000a900460ff1661346f57600080fd5b600061011160008373ffffffffffffffffffffffffffffffffffffffff1673ffffffffffffffffffffffffffffffffffffffff16815260200190815260200160002060006101000a81548160ff02191690831515021790555050565b6134d3613b2b565b73ffffffffffffffffffffffffffffffffffffffff166134f1612711565b73ffffffffffffffffffffffffffffffffffffffff1614613547576040517f08c379a000000000000000000000000000000000000000000000000000000000815260040161353e9061578f565b60405180910390fd5b600073ffffffffffffffffffffffffffffffffffffffff168173ffffffffffffffffffffffffffffffffffffffff1614156135b7576040517f08c379a00000000000000000000000000000000000000000000000000000000081526004016135ae9061570f565b60405180910390fd5b6135c081613e25565b50565b6135cb613b2b565b73ffffffffffffffffffffffffffffffffffffffff166135e9612711565b73ffffffffffffffffffffffffffffffffffffffff161461363f576040517f08c379a00000000000000000000000000000000000000000000000000000000081526004016136369061578f565b60405180910390fd5b61011160008273ffffffffffffffffffffffffffffffffffffffff1673ffffffffffffffffffffffffffffffffffffffff16815260200190815260200160002060009054906101000a900460ff161561369757600080fd5b600161011160008373ffffffffffffffffffffffffffffffffffffffff1673ffffffffffffffffffffffffffffffffffffffff16815260200190815260200160002060006101000a81548160ff02191690831515021790555050565b6137008161010854613703565b50565b600061011360008473ffffffffffffffffffffffffffffffffffffffff1673ffffffffffffffffffffffffffffffffffffffff16815260200190815260200160002060010154141561379c578061011360008473ffffffffffffffffffffffffffffffffffffffff1673ffffffffffffffffffffffffffffffffffffffff16815260200190815260200160002060010181905550613a8e565b61010c5461011360008473ffffffffffffffffffffffffffffffffffffffff1673ffffffffffffffffffffffffffffffffffffffff1681526020019081526020016000206001015410156138f25760006101065461010c54836137ff91906159d0565b6138099190615945565b905060008161010e60008673ffffffffffffffffffffffffffffffffffffffff1673ffffffffffffffffffffffffffffffffffffffff168152602001908152602001600020546138599190615976565b90508261011360008673ffffffffffffffffffffffffffffffffffffffff1673ffffffffffffffffffffffffffffffffffffffff168152602001908152602001600020600101819055508061011360008673ffffffffffffffffffffffffffffffffffffffff1673ffffffffffffffffffffffffffffffffffffffff168152602001908152602001600020600001819055505050613a8d565b60006101065461011360008573ffffffffffffffffffffffffffffffffffffffff1673ffffffffffffffffffffffffffffffffffffffff168152602001908152602001600020600101548361394791906159d0565b6139519190615945565b905060018110613a8b5760008161010e60008673ffffffffffffffffffffffffffffffffffffffff1673ffffffffffffffffffffffffffffffffffffffff168152602001908152602001600020546139a99190615976565b90508261011360008673ffffffffffffffffffffffffffffffffffffffff1673ffffffffffffffffffffffffffffffffffffffff168152602001908152602001600020600101819055508061011360008673ffffffffffffffffffffffffffffffffffffffff1673ffffffffffffffffffffffffffffffffffffffff16815260200190815260200160002060000154613a4291906158ef565b61011360008673ffffffffffffffffffffffffffffffffffffffff1673ffffffffffffffffffffffffffffffffffffffff16815260200190815260200160002060000181905550505b505b5b5050565b613a9c8242613703565b613aa68142613703565b5050565b600080600090506000806000613abf87614249565b809350819450829550505050600083101580613adc575060008210155b80613ae8575060008110155b15613afa57613af9868484846142ea565b5b80828489613b0891906159d0565b613b1291906159d0565b613b1c91906159d0565b93508394505050505092915050565b600033905090565b613b3b613b2b565b73ffffffffffffffffffffffffffffffffffffffff16613b59612711565b73ffffffffffffffffffffffffffffffffffffffff1614613baf576040517f08c379a0000000000000000000000000000000000000000000000000000000008152600401613ba69061578f565b60405180910390fd5b50565b6000613bbc614759565b9050613bc7846147b0565b600083511180613bd45750815b15613be557613be38484614869565b505b6000613c137f4910fdfa16fed3260ed0e7147f7cc6da11a60208b5b9406d12a635614ffd914360001b61494d565b90508060000160009054906101000a900460ff16613d7c5760018160000160006101000a81548160ff021916908315150217905550613cdf8583604051602401613c5d919061562c565b6040516020818303038152906040527f3659cfe6000000000000000000000000000000000000000000000000000000007bffffffffffffffffffffffffffffffffffffffffffffffffffffffff19166020820180517bffffffffffffffffffffffffffffffffffffffffffffffffffffffff8381831617835250505050614869565b5060008160000160006101000a81548160ff021916908315150217905550613d05614759565b73ffffffffffffffffffffffffffffffffffffffff168273ffffffffffffffffffffffffffffffffffffffff1614613d72576040517f08c379a0000000000000000000000000000000000000000000000000000000008152600401613d69906156ef565b60405180910390fd5b613d7b85614957565b5b5050505050565b613d8b611faf565b613dca576040517f08c379a0000000000000000000000000000000000000000000000000000000008152600401613dc1906156cf565b60405180910390fd5b6000609760006101000a81548160ff0219169083151502179055507f5db9ee0a495bf2e6ff9c91a7834c1ba4fdd244a5e8aa4e537bd38aeae4b073aa613e0e613b2b565b604051613e1b919061562c565b60405180910390a1565b600060c960009054906101000a900473ffffffffffffffffffffffffffffffffffffffff1690508160c960006101000a81548173ffffffffffffffffffffffffffffffffffffffff021916908373ffffffffffffffffffffffffffffffffffffffff1602179055508173ffffffffffffffffffffffffffffffffffffffff168173ffffffffffffffffffffffffffffffffffffffff167f8be0079c531659141344cd1fd0a4f28419497f9722a3daafe3b4186f6b6457e060405160405180910390a35050565b600060019054906101000a900460ff1680613f11575060008054906101000a900460ff16155b613f50576040517f08c379a0000000000000000000000000000000000000000000000000000000008152600401613f479061574f565b60405180910390fd5b60008060019054906101000a900460ff161590508015613fa0576001600060016101000a81548160ff02191690831515021790555060016000806101000a81548160ff0219169083151502179055505b613fa86149a6565b613fb0614a7f565b8015613fd15760008060016101000a81548160ff0219169083151502179055505b50565b600060019054906101000a900460ff1680613ffa575060008054906101000a900460ff16155b614039576040517f08c379a00000000000000000000000000000000000000000000000000000000081526004016140309061574f565b60405180910390fd5b60008060019054906101000a900460ff161590508015614089576001600060016101000a81548160ff02191690831515021790555060016000806101000a81548160ff0219169083151502179055505b6140916149a6565b614099614b73565b80156140ba5760008060016101000a81548160ff0219169083151502179055505b50565b600060019054906101000a900460ff16806140e3575060008054906101000a900460ff16155b614122576040517f08c379a00000000000000000000000000000000000000000000000000000000081526004016141199061574f565b60405180910390fd5b60008060019054906101000a900460ff161590508015614172576001600060016101000a81548160ff02191690831515021790555060016000806101000a81548160ff0219169083151502179055505b61417a614c5c565b614182614d35565b80156141a35760008060016101000a81548160ff0219169083151502179055505b50565b6141ae611faf565b156141ee576040517f08c379a00000000000000000000000000000000000000000000000000000000081526004016141e59061572f565b60405180910390fd5b6001609760006101000a81548160ff0219169083151502179055507f62e78cea01bee320cd4e420270b5ea74000d11b0c9f74754ebdbfc544b05a258614232613b2b565b60405161423f919061562c565b60405180910390a1565b60008060008060008060ff5460fd5411156142d7576064610103548861426f9190615976565b6142799190615945565b92506064610104548861428c9190615976565b6142969190615945565b9150606461010554886142a99190615976565b6142b39190615945565b9050600060ff5460fd546142c791906159d0565b9050808411156142d5578093505b505b8282829550955095505050509193909250565b600073ffffffffffffffffffffffffffffffffffffffff168473ffffffffffffffffffffffffffffffffffffffff16141561432457600080fd5b600061010e60008673ffffffffffffffffffffffffffffffffffffffff1673ffffffffffffffffffffffffffffffffffffffff168152602001908152602001600020549050600082848661437891906158ef565b61438291906158ef565b90508082101561439157600080fd5b8461010e60008873ffffffffffffffffffffffffffffffffffffffff1673ffffffffffffffffffffffffffffffffffffffff16815260200190815260200160002060008282546143e191906159d0565b925050819055508361010e60008873ffffffffffffffffffffffffffffffffffffffff1673ffffffffffffffffffffffffffffffffffffffff168152602001908152602001600020600082825461443891906159d0565b925050819055508261010e60008873ffffffffffffffffffffffffffffffffffffffff1673ffffffffffffffffffffffffffffffffffffffff168152602001908152602001600020600082825461448f91906159d0565b925050819055508460fd60008282546144a891906159d0565b925050819055506144ff61010260009054906101000a900473ffffffffffffffffffffffffffffffffffffffff1661010160009054906101000a900473ffffffffffffffffffffffffffffffffffffffff16613a92565b8361010e600061010160009054906101000a900473ffffffffffffffffffffffffffffffffffffffff1673ffffffffffffffffffffffffffffffffffffffff1673ffffffffffffffffffffffffffffffffffffffff168152602001908152602001600020600082825461457291906158ef565b925050819055508261010e600061010260009054906101000a900473ffffffffffffffffffffffffffffffffffffffff1673ffffffffffffffffffffffffffffffffffffffff1673ffffffffffffffffffffffffffffffffffffffff16815260200190815260200160002060008282546145ec91906158ef565b925050819055508573ffffffffffffffffffffffffffffffffffffffff167fcc16f5dbb4873280815c1ee09dbd06736cffcc184412cf7a71a0fdb75d397ca58660405161463991906157cf565b60405180910390a261010160009054906101000a900473ffffffffffffffffffffffffffffffffffffffff1673ffffffffffffffffffffffffffffffffffffffff163373ffffffffffffffffffffffffffffffffffffffff167fddf252ad1be2c89b69c2b068fc378daa952ba7f163c4a11628f55a4df523b3ef866040516146c191906157cf565b60405180910390a361010260009054906101000a900473ffffffffffffffffffffffffffffffffffffffff1673ffffffffffffffffffffffffffffffffffffffff163373ffffffffffffffffffffffffffffffffffffffff167fddf252ad1be2c89b69c2b068fc378daa952ba7f163c4a11628f55a4df523b3ef8560405161474991906157cf565b60405180910390a3505050505050565b60006147877f360894a13ba1a3210667c828492db98dca3e2076cc3735a920a3ca505d382bbc60001b614e0e565b60000160009054906101000a900473ffffffffffffffffffffffffffffffffffffffff16905090565b6147b981614e18565b6147f8576040517f08c379a00000000000000000000000000000000000000000000000000000000081526004016147ef9061576f565b60405180910390fd5b806148257f360894a13ba1a3210667c828492db98dca3e2076cc3735a920a3ca505d382bbc60001b614e0e565b60000160006101000a81548173ffffffffffffffffffffffffffffffffffffffff021916908373ffffffffffffffffffffffffffffffffffffffff16021790555050565b606061487483614e18565b6148b3576040517f08c379a00000000000000000000000000000000000000000000000000000000081526004016148aa906157af565b60405180910390fd5b6000808473ffffffffffffffffffffffffffffffffffffffff16846040516148db9190615615565b600060405180830381855af49150503d8060008114614916576040519150601f19603f3d011682016040523d82523d6000602084013e61491b565b606091505b50915091506149438282604051806060016040528060278152602001615ed260279139614e2b565b9250505092915050565b6000819050919050565b614960816147b0565b8073ffffffffffffffffffffffffffffffffffffffff167fbc7cd75a20ee27fd9adebab32041f755214dbc6bffa90cc0225b39da2e5c2d3b60405160405180910390a250565b600060019054906101000a900460ff16806149cc575060008054906101000a900460ff16155b614a0b576040517f08c379a0000000000000000000000000000000000000000000000000000000008152600401614a029061574f565b60405180910390fd5b60008060019054906101000a900460ff161590508015614a5b576001600060016101000a81548160ff02191690831515021790555060016000806101000a81548160ff0219169083151502179055505b8015614a7c5760008060016101000a81548160ff0219169083151502179055505b50565b600060019054906101000a900460ff1680614aa5575060008054906101000a900460ff16155b614ae4576040517f08c379a0000000000000000000000000000000000000000000000000000000008152600401614adb9061574f565b60405180910390fd5b60008060019054906101000a900460ff161590508015614b34576001600060016101000a81548160ff02191690831515021790555060016000806101000a81548160ff0219169083151502179055505b6000609760006101000a81548160ff0219169083151502179055508015614b705760008060016101000a81548160ff0219169083151502179055505b50565b600060019054906101000a900460ff1680614b99575060008054906101000a900460ff16155b614bd8576040517f08c379a0000000000000000000000000000000000000000000000000000000008152600401614bcf9061574f565b60405180910390fd5b60008060019054906101000a900460ff161590508015614c28576001600060016101000a81548160ff02191690831515021790555060016000806101000a81548160ff0219169083151502179055505b614c38614c33613b2b565b613e25565b8015614c595760008060016101000a81548160ff0219169083151502179055505b50565b600060019054906101000a900460ff1680614c82575060008054906101000a900460ff16155b614cc1576040517f08c379a0000000000000000000000000000000000000000000000000000000008152600401614cb89061574f565b60405180910390fd5b60008060019054906101000a900460ff161590508015614d11576001600060016101000a81548160ff02191690831515021790555060016000806101000a81548160ff0219169083151502179055505b8015614d325760008060016101000a81548160ff0219169083151502179055505b50565b600060019054906101000a900460ff1680614d5b575060008054906101000a900460ff16155b614d9a576040517f08c379a0000000000000000000000000000000000000000000000000000000008152600401614d919061574f565b60405180910390fd5b60008060019054906101000a900460ff161590508015614dea576001600060016101000a81548160ff02191690831515021790555060016000806101000a81548160ff0219169083151502179055505b8015614e0b5760008060016101000a81548160ff0219169083151502179055505b50565b6000819050919050565b600080823b905060008111915050919050565b60608315614e3b57829050614e8b565b600083511115614e4e5782518084602001fd5b816040517f08c379a0000000000000000000000000000000000000000000000000000000008152600401614e8291906156ad565b60405180910390fd5b9392505050565b828054614e9e90615a9b565b90600052602060002090601f016020900481019282614ec05760008555614f07565b82601f10614ed957805160ff1916838001178555614f07565b82800160010185558215614f07579182015b82811115614f06578251825591602001919060010190614eeb565b5b509050614f149190614fa2565b5090565b828054828255906000526020600020908101928215614f91579160200282015b82811115614f905782518260006101000a81548173ffffffffffffffffffffffffffffffffffffffff021916908373ffffffffffffffffffffffffffffffffffffffff16021790555091602001919060010190614f38565b5b509050614f9e9190614fa2565b5090565b5b80821115614fbb576000816000905550600101614fa3565b5090565b6000614fd2614fcd84615853565b61582e565b905082815260208101848484011115614fee57614fed615c66565b5b614ff9848285615a59565b509392505050565b60008135905061501081615e8c565b92915050565b60008151905061502581615ea3565b92915050565b600082601f8301126150405761503f615c61565b5b8135615050848260208601614fbf565b91505092915050565b60008135905061506881615eba565b92915050565b60006020828403121561508457615083615c70565b5b600061509284828501615001565b91505092915050565b600080604083850312156150b2576150b1615c70565b5b60006150c085828601615001565b92505060206150d185828601615001565b9150509250929050565b60008060008060008060c087890312156150f8576150f7615c70565b5b600061510689828a01615001565b965050602061511789828a01615001565b955050604061512889828a01615001565b945050606061513989828a01615059565b935050608061514a89828a01615059565b92505060a061515b89828a01615059565b9150509295509295509295565b60008060006060848603121561518157615180615c70565b5b600061518f86828701615001565b93505060206151a086828701615001565b92505060406151b186828701615059565b9150509250925092565b600080604083850312156151d2576151d1615c70565b5b60006151e085828601615001565b925050602083013567ffffffffffffffff81111561520157615200615c6b565b5b61520d8582860161502b565b9150509250929050565b6000806040838503121561522e5761522d615c70565b5b600061523c85828601615001565b925050602061524d85828601615059565b9150509250929050565b6000806000606084860312156152705761526f615c70565b5b600061527e86828701615001565b935050602061528f86828701615059565b92505060406152a086828701615001565b9150509250925092565b6000602082840312156152c0576152bf615c70565b5b60006152ce84828501615016565b91505092915050565b6000602082840312156152ed576152ec615c70565b5b60006152fb84828501615059565b91505092915050565b60008060006060848603121561531d5761531c615c70565b5b600061532b86828701615059565b935050602061533c86828701615059565b925050604061534d86828701615059565b9150509250925092565b600080600080600060a0868803121561537357615372615c70565b5b600061538188828901615059565b955050602061539288828901615059565b94505060406153a388828901615059565b93505060606153b488828901615059565b92505060806153c588828901615059565b9150509295509295909350565b60006153de83836153ea565b60208301905092915050565b6153f381615a04565b82525050565b61540281615a04565b82525050565b600061541382615894565b61541d81856158c2565b935061542883615884565b8060005b8381101561545957815161544088826153d2565b975061544b836158b5565b92505060018101905061542c565b5085935050505092915050565b61546f81615a16565b82525050565b60006154808261589f565b61548a81856158d3565b935061549a818560208601615a68565b80840191505092915050565b60006154b1826158aa565b6154bb81856158de565b93506154cb818560208601615a68565b6154d481615c75565b840191505092915050565b60006154ec6014836158de565b91506154f782615c86565b602082019050919050565b600061550f602f836158de565b915061551a82615caf565b604082019050919050565b60006155326026836158de565b915061553d82615cfe565b604082019050919050565b60006155556010836158de565b915061556082615d4d565b602082019050919050565b6000615578602e836158de565b915061558382615d76565b604082019050919050565b600061559b602d836158de565b91506155a682615dc5565b604082019050919050565b60006155be6020836158de565b91506155c982615e14565b602082019050919050565b60006155e16026836158de565b91506155ec82615e3d565b604082019050919050565b61560081615a42565b82525050565b61560f81615a4c565b82525050565b60006156218284615475565b915081905092915050565b600060208201905061564160008301846153f9565b92915050565b600060408201905061565c60008301856153f9565b61566960208301846155f7565b9392505050565b6000602082019050818103600083015261568a8184615408565b905092915050565b60006020820190506156a76000830184615466565b92915050565b600060208201905081810360008301526156c781846154a6565b905092915050565b600060208201905081810360008301526156e8816154df565b9050919050565b6000602082019050818103600083015261570881615502565b9050919050565b6000602082019050818103600083015261572881615525565b9050919050565b6000602082019050818103600083015261574881615548565b9050919050565b600060208201905081810360008301526157688161556b565b9050919050565b600060208201905081810360008301526157888161558e565b9050919050565b600060208201905081810360008301526157a8816155b1565b9050919050565b600060208201905081810360008301526157c8816155d4565b9050919050565b60006020820190506157e460008301846155f7565b92915050565b60006040820190506157ff60008301856155f7565b61580c60208301846155f7565b9392505050565b60006020820190506158286000830184615606565b92915050565b6000615838615849565b90506158448282615acd565b919050565b6000604051905090565b600067ffffffffffffffff82111561586e5761586d615c32565b5b61587782615c75565b9050602081019050919050565b6000819050602082019050919050565b600081519050919050565b600081519050919050565b600081519050919050565b6000602082019050919050565b600082825260208201905092915050565b600081905092915050565b600082825260208201905092915050565b60006158fa82615a42565b915061590583615a42565b9250827fffffffffffffffffffffffffffffffffffffffffffffffffffffffffffffffff0382111561593a57615939615b47565b5b828201905092915050565b600061595082615a42565b915061595b83615a42565b92508261596b5761596a615b76565b5b828204905092915050565b600061598182615a42565b915061598c83615a42565b9250817fffffffffffffffffffffffffffffffffffffffffffffffffffffffffffffffff04831182151516156159c5576159c4615b47565b5b828202905092915050565b60006159db82615a42565b91506159e683615a42565b9250828210156159f9576159f8615b47565b5b828203905092915050565b6000615a0f82615a22565b9050919050565b60008115159050919050565b600073ffffffffffffffffffffffffffffffffffffffff82169050919050565b6000819050919050565b600060ff82169050919050565b82818337600083830152505050565b60005b83811015615a86578082015181840152602081019050615a6b565b83811115615a95576000848401525b50505050565b60006002820490506001821680615ab357607f821691505b60208210811415615ac757615ac6615ba5565b5b50919050565b615ad682615c75565b810181811067ffffffffffffffff82111715615af557615af4615c32565b5b80604052505050565b6000615b0982615a42565b91507fffffffffffffffffffffffffffffffffffffffffffffffffffffffffffffffff821415615b3c57615b3b615b47565b5b600182019050919050565b7f4e487b7100000000000000000000000000000000000000000000000000000000600052601160045260246000fd5b7f4e487b7100000000000000000000000000000000000000000000000000000000600052601260045260246000fd5b7f4e487b7100000000000000000000000000000000000000000000000000000000600052602260045260246000fd5b7f4e487b7100000000000000000000000000000000000000000000000000000000600052603160045260246000fd5b7f4e487b7100000000000000000000000000000000000000000000000000000000600052603260045260246000fd5b7f4e487b7100000000000000000000000000000000000000000000000000000000600052604160045260246000fd5b600080fd5b600080fd5b600080fd5b600080fd5b6000601f19601f8301169050919050565b7f5061757361626c653a206e6f7420706175736564000000000000000000000000600082015250565b7f45524331393637557067726164653a207570677261646520627265616b73206660008201527f7572746865722075706772616465730000000000000000000000000000000000602082015250565b7f4f776e61626c653a206e6577206f776e657220697320746865207a65726f206160008201527f6464726573730000000000000000000000000000000000000000000000000000602082015250565b7f5061757361626c653a2070617573656400000000000000000000000000000000600082015250565b7f496e697469616c697a61626c653a20636f6e747261637420697320616c72656160008201527f647920696e697469616c697a6564000000000000000000000000000000000000602082015250565b7f455243313936373a206e657720696d706c656d656e746174696f6e206973206e60008201527f6f74206120636f6e747261637400000000000000000000000000000000000000602082015250565b7f4f776e61626c653a2063616c6c6572206973206e6f7420746865206f776e6572600082015250565b7f416464726573733a2064656c65676174652063616c6c20746f206e6f6e2d636f60008201527f6e74726163740000000000000000000000000000000000000000000000000000602082015250565b615e9581615a04565b8114615ea057600080fd5b50565b615eac81615a16565b8114615eb757600080fd5b50565b615ec381615a42565b8114615ece57600080fd5b5056fe416464726573733a206c6f772d6c6576656c2064656c65676174652063616c6c206661696c6564a2646970667358221220b1e3bc8395acfc56dfd5109b2a259fe43c579623521363f3abe92625190e728664736f6c63430008070033",
  "immutableReferences": {},
  "source": "// SPDX-License-Identifier: UNLICENSED\r\n\r\npragma solidity ^0.8.0;\r\n\r\nimport \"@openzeppelin/contracts-upgradeable/proxy/utils/Initializable.sol\";\r\nimport \"@openzeppelin/contracts-upgradeable/proxy/utils/UUPSUpgradeable.sol\";\r\nimport \"@openzeppelin/contracts-upgradeable/security/PausableUpgradeable.sol\";\r\nimport \"@openzeppelin/contracts-upgradeable/access/OwnableUpgradeable.sol\";\r\n\r\nabstract contract ERC20Interface {\r\n\r\n    function transfer(address to, uint tokens) public virtual returns (bool success);\r\n\r\n    function transferFrom(address from, address to, uint tokens) public virtual returns (bool success);\r\n\r\n}\r\n\r\ncontract PurseTokenUpgradableV2 is Initializable, UUPSUpgradeable, PausableUpgradeable, OwnableUpgradeable {\r\n    string public name;\r\n    string public symbol;\r\n    uint256 public totalSupply;\r\n    uint8 public decimals;\r\n    uint256 private minimumSupply;\r\n    address[] public admins;\r\n    address public liqPool;\r\n    address public disPool;\r\n    uint256 public burnPercent;\r\n    uint256 public liqPercent;\r\n    uint256 public disPercent;\r\n    \r\n    uint256 public _averageInterval;\r\n    uint256 public _getRewardEndTime;\r\n    uint256 public _getRewardStartTime;\r\n    uint256 public _numOfDaysPerMth;\r\n    uint256 public _monthlyDistributePr;\r\n    uint256 public _percentageDistribute;\r\n    uint256 public _lastRewardStartTime;\r\n    uint256 public _totalSupply;\r\n    \r\n    event Transfer(address indexed _from, address indexed _to, uint256 _value);\r\n    event Burn(address indexed _from, uint256 _value);\r\n    event Mint(address indexed _from, address indexed _to, uint256 _value);\r\n    event Approval(address indexed _owner, address indexed _spender, uint256 _value);\r\n\r\n    modifier onlyAdmin() {\r\n        require(isAdmin[msg.sender]);\r\n        _;\r\n    }\r\n\r\n    mapping(address => uint256) public balanceOf;\r\n    mapping(address => mapping(address => uint256)) public allowance;\r\n    mapping(address => bool) public isAdmin;\r\n    mapping(address => bool) public isWhitelistedTo;\r\n    mapping(address => bool) public isWhitelistedFrom;\r\n    mapping(address => AccAmount) public accAmount;\r\n\r\n    struct AccAmount {\r\n        uint256 amount;\r\n        uint256 lastUpdateTime;\r\n    }\r\n\r\n    function transfer(address _to, uint256 _value) public whenNotPaused returns (bool success)\r\n    {\r\n        require(_value >= 0);\r\n        require(balanceOf[msg.sender] >= _value);\r\n        if (isWhitelistedTo[_to] || isWhitelistedFrom[msg.sender]) {\r\n            updateAccumulateBalanceTransaction(msg.sender, _to); \r\n            balanceOf[msg.sender] -= _value;\r\n            balanceOf[_to] += _value;\r\n            \r\n           \r\n            emit Transfer(msg.sender, _to, _value);\r\n            return true;\r\n        } else {\r\n            updateAccumulateBalanceTransaction(msg.sender, _to);\r\n            uint256 transferValue = _partialBurn(_value, msg.sender);\r\n            balanceOf[msg.sender] -= transferValue;\r\n            balanceOf[_to] += transferValue;\r\n            \r\n\r\n            emit Transfer(msg.sender, _to, transferValue);\r\n            return true;\r\n        }\r\n    }\r\n    \r\n    function approve(address _spender, uint256 _value) public whenNotPaused returns (bool success)\r\n    {\r\n        allowance[msg.sender][_spender] = _value;\r\n        emit Approval(msg.sender, _spender, _value);\r\n        return true;\r\n    }\r\n\r\n    function transferFrom(address _from, address _to, uint256 _value) public whenNotPaused returns (bool success) {\r\n        require(_value >= 0);\r\n        require(_value <= balanceOf[_from]);\r\n        require(_value <= allowance[_from][msg.sender]);\r\n        if (isWhitelistedTo[_to] || isWhitelistedFrom[msg.sender]) {\r\n            allowance[_from][msg.sender] -= _value;\r\n            updateAccumulateBalanceTransaction(_from, _to);\r\n            balanceOf[_from] -= _value;\r\n            balanceOf[_to] += _value;\r\n            \r\n            emit Transfer(_from, _to, _value);\r\n            return true;\r\n        } else {\r\n            allowance[_from][msg.sender] -= _value;\r\n            updateAccumulateBalanceTransaction(_from, _to);\r\n            uint256 transferValue = _partialBurn(_value, _from);\r\n            balanceOf[_from] -= transferValue;\r\n            balanceOf[_to] += transferValue;\r\n\r\n            emit Transfer(_from, _to, transferValue);\r\n            return true;\r\n        }\r\n    }\r\n\r\n    function mint(address _account, uint256 _amount) public whenNotPaused onlyAdmin {\r\n        require(_account != address(0));\r\n        updateAccumulateBalance(_account, block.timestamp); \r\n        balanceOf[_account] += _amount;\r\n\r\n        totalSupply += _amount;\r\n        emit Mint(address(0), _account, _amount);\r\n    }\r\n\r\n    function burn(uint256 _amount) public whenNotPaused {\r\n        require(_amount != 0);\r\n        require(balanceOf[msg.sender] >= _amount);\r\n        updateAccumulateBalance(msg.sender, block.timestamp); \r\n        balanceOf[msg.sender] -= _amount;\r\n        totalSupply -= _amount;\r\n        emit Burn(msg.sender, _amount);\r\n    }\r\n    \r\n    function updateAccumulateBalance(address _holder, uint256 _updateTime) private {\r\n        if (accAmount[_holder].lastUpdateTime == 0) {\r\n            accAmount[_holder].lastUpdateTime = _updateTime;\r\n        } \r\n        else if (accAmount[_holder].lastUpdateTime < _lastRewardStartTime) {\r\n            uint256 interval = (_updateTime - _lastRewardStartTime)/ _averageInterval;\r\n            uint256 accumulateAmount = balanceOf[_holder] * interval;\r\n            accAmount[_holder].lastUpdateTime = _updateTime;\r\n            accAmount[_holder].amount = accumulateAmount;            \r\n        } \r\n        else {\r\n            uint256 interval = (_updateTime - accAmount[_holder].lastUpdateTime)/ _averageInterval;\r\n            if (interval >= 1) {\r\n                uint256 accumulateAmount = balanceOf[_holder] * interval;\r\n                accAmount[_holder].lastUpdateTime = _updateTime;\r\n                accAmount[_holder].amount = accAmount[_holder].amount + accumulateAmount;                     \r\n            }\r\n        }\r\n    }\r\n    \r\n    function updateAccumulateBalanceTransaction(address _from, address _to) private {\r\n        updateAccumulateBalance(_from, block.timestamp);\r\n        updateAccumulateBalance(_to, block.timestamp);\r\n    }\r\n    \r\n    function updateAccumulateBalanceClaim(address _holder) private {\r\n        updateAccumulateBalance(_holder, _getRewardStartTime);\r\n    }\r\n\r\n    function claimDistributionPurse() public whenNotPaused returns(bool success) {\r\n        require(block.timestamp < _getRewardEndTime);\r\n        require(block.timestamp > _getRewardStartTime);\r\n        require(accAmount[msg.sender].lastUpdateTime < _getRewardStartTime);\r\n        updateAccumulateBalanceClaim(msg.sender);\r\n        uint256 claimAmount = accAmount[msg.sender].amount * _monthlyDistributePr * _percentageDistribute * 100 / _totalSupply / _numOfDaysPerMth / 10000;\r\n        \r\n        accAmount[msg.sender].lastUpdateTime = _getRewardStartTime;\r\n        accAmount[msg.sender].amount = 0;\r\n        updateAccumulateBalance(msg.sender, block.timestamp);\r\n        ERC20Interface(address(this)).transfer(msg.sender, claimAmount);\r\n        return true;\r\n    }\r\n    \r\n    function activateClaimMonthly(uint256 _rewardStartTime, uint256 _rewardEndTime, uint256 _monthlyDisPr, uint256 _numOfDays, uint256 _percentage) public onlyOwner {\r\n        require(_rewardStartTime > block.timestamp );\r\n        require(_rewardEndTime > _rewardStartTime);\r\n        require(_numOfDays > 0);\r\n        require(_percentage > 0);\r\n        \r\n        _totalSupply = totalSupply;\r\n        _lastRewardStartTime = _getRewardStartTime;\r\n        _numOfDaysPerMth = _numOfDays;\r\n        _getRewardStartTime = _rewardStartTime;\r\n        _getRewardEndTime = _rewardEndTime;\r\n        _percentageDistribute = _percentage;\r\n        _monthlyDistributePr = _monthlyDisPr;\r\n    }\r\n\r\n    function _partialBurn(uint256 _amount, address _from) internal returns (uint256) {\r\n        uint256 transferAmount = 0;\r\n        uint256 burnAmount;\r\n        uint256 liqAmount;\r\n        uint256 disAmount;\r\n        (\r\n            burnAmount,\r\n            liqAmount,\r\n            disAmount\r\n        ) = _calculateDeductAmount(_amount);\r\n\r\n        if (burnAmount >= 0 || liqAmount >= 0 || disAmount >= 0) {\r\n            burnPrivate(_from, burnAmount, liqAmount, disAmount);\r\n        }\r\n        transferAmount = _amount - burnAmount - liqAmount - disAmount;\r\n\r\n        return transferAmount;\r\n    }\r\n\r\n    function _calculateDeductAmount(uint256 _amount) internal view returns (uint256, uint256, uint256) {\r\n        uint256 burnAmount;\r\n        uint256 liqAmount;\r\n        uint256 disAmount;\r\n\r\n        if (totalSupply > minimumSupply) {\r\n            burnAmount = (_amount * burnPercent) / 100;\r\n            liqAmount = (_amount * liqPercent) / 100;\r\n            disAmount = (_amount * disPercent) / 100;\r\n            uint256 availableBurn = totalSupply - minimumSupply;\r\n            if (burnAmount > availableBurn) {\r\n                burnAmount = availableBurn;\r\n            }\r\n        }\r\n        return (burnAmount, liqAmount, disAmount);\r\n    }\r\n\r\n    function burnPrivate( address _account, uint256 _burnAmount, uint256 _liqAmount, uint256 _disAmount) private {\r\n        require(_account != address(0));\r\n        uint256 accountBalance = balanceOf[_account];\r\n        uint256 deductAmount = _burnAmount + _liqAmount + _disAmount;\r\n        require(accountBalance >= deductAmount);\r\n        balanceOf[_account] -= _burnAmount;\r\n        balanceOf[_account] -= _liqAmount;\r\n        balanceOf[_account] -= _disAmount;\r\n\r\n        totalSupply -= _burnAmount;\r\n        updateAccumulateBalanceTransaction(disPool, liqPool); \r\n        balanceOf[liqPool] += _liqAmount;\r\n        balanceOf[disPool] += _disAmount;\r\n\r\n        emit Burn(_account, _burnAmount);\r\n        emit Transfer(msg.sender, liqPool, _liqAmount);\r\n        emit Transfer(msg.sender, disPool, _disAmount);\r\n    }\r\n    \r\n    function updateLPoolAdd(address _newLPool) public onlyOwner {\r\n        // require(_newLPool != address(0));\r\n        require(_newLPool != liqPool);\r\n\r\n        liqPool = _newLPool;\r\n    }\r\n\r\n    function updateDPoolAdd(address _newDPool) public onlyOwner {\r\n        // require(_newDPool != address(0));\r\n        require(_newDPool != disPool);\r\n\r\n        disPool = _newDPool;\r\n    }\r\n    \r\n    function updatePercent(uint256 _newDisPercent, uint256 _newLiqPercent, uint256 _newBurnPercent) public onlyOwner {\r\n        require(_newDisPercent >= 0 && _newDisPercent <= 100 && _newLiqPercent >= 0 && _newLiqPercent <= 100 && _newBurnPercent >= 0 && _newBurnPercent <= 100);\r\n        // require(_newLiqPercent >= 0 && _newLiqPercent <= 100);\r\n        // require(_newBurnPercent >= 0 && _newBurnPercent <= 100);\r\n        \r\n        disPercent = _newDisPercent;\r\n        liqPercent = _newLiqPercent;\r\n        burnPercent = _newBurnPercent;\r\n    }\r\n\r\n    function addAdmin(address newAdmin) public onlyOwner{\r\n        // require(newAdmin != address(0));\r\n        require(!isAdmin[newAdmin]);\r\n\r\n        isAdmin[newAdmin] = true;\r\n        admins.push(newAdmin);\r\n    }\r\n\r\n    function removeAdmin(uint index) public onlyOwner returns (address[] memory){\r\n        address removeOwner = admins[index];\r\n        require(index < admins.length);\r\n        require(isAdmin[removeOwner]);\r\n        \r\n        for (uint i = index; i<admins.length-1; i++){\r\n            admins[i] = admins[i+1];\r\n        }\r\n        admins.pop();\r\n\r\n        isAdmin[removeOwner] = false;\r\n        return admins;\r\n    }\r\n\r\n    function getAdmins() public view returns (address[] memory) {\r\n        return admins;\r\n    }\r\n    \r\n    function transferERCToken(address token, uint256 amount, address _to) public whenNotPaused onlyOwner{\r\n        require(_to != address(0));\r\n        if (token == address(this)) {\r\n            updateAccumulateBalanceTransaction(address(this), _to);\r\n            ERC20Interface(token).transfer(_to, amount);\r\n        } else {\r\n            ERC20Interface(token).transfer(_to, amount);          \r\n        }\r\n    } \r\n\r\n    function pause() public whenNotPaused onlyOwner {\r\n        _pause();\r\n    }\r\n\r\n    function unpause() public whenPaused onlyOwner {\r\n        _unpause();\r\n    }\r\n    \r\n    function setWhitelistedTo(address newWhitelist) public onlyOwner {\r\n        // require(newWhitelist != address(0));\r\n        require(!isWhitelistedTo[newWhitelist]);\r\n\r\n        isWhitelistedTo[newWhitelist] = true;\r\n    }\r\n\r\n    function removeWhitelistedTo(address newWhitelist) public onlyOwner {\r\n        // require(newWhitelist != address(0));\r\n        require(isWhitelistedTo[newWhitelist]);\r\n\r\n        isWhitelistedTo[newWhitelist] = false;\r\n    }\r\n\r\n    function setWhitelistedFrom(address newWhitelist) public onlyOwner {\r\n        // require(newWhitelist != address(0));\r\n        require(!isWhitelistedFrom[newWhitelist]);\r\n\r\n        isWhitelistedFrom[newWhitelist] = true;\r\n    }\r\n\r\n    function removeWhitelistedFrom(address newWhitelist) public onlyOwner {\r\n        // require(newWhitelist != address(0));\r\n        require(isWhitelistedFrom[newWhitelist]);\r\n\r\n        isWhitelistedFrom[newWhitelist] = false;\r\n    }\r\n\r\n    function _authorizeUpgrade(address) internal override onlyOwner {}\r\n\r\n    function initialize(\r\n        address _to,\r\n        address _lPool,\r\n        address _dPool,\r\n        uint256 _burnPercent,\r\n        uint256 _liqPercent,\r\n        uint256 _disPercent\r\n    ) public initializer {\r\n        require(_lPool != address(0));\r\n        require(_dPool != address(0));\r\n        require(_burnPercent >= 0);\r\n        require(_liqPercent >= 0);\r\n        require(_disPercent >= 0);\r\n\r\n        name = \"PURSE Token\";\r\n        symbol = \"PURSE\";\r\n        totalSupply = 64000000000 * (10**18); // 64 billion tokens\r\n        decimals = 18;\r\n        minimumSupply = 20000 * (10**18);\r\n\r\n        liqPool = _lPool;\r\n        disPool = address(this);\r\n        burnPercent = _burnPercent;\r\n        liqPercent = _liqPercent;\r\n        disPercent = _disPercent;\r\n        admins = [msg.sender];\r\n        _averageInterval = 1 days;       // update to 1 days in mainnet(prod)\r\n        __Pausable_init();\r\n        __Ownable_init();\r\n        __UUPSUpgradeable_init();\r\n        \r\n        balanceOf[_to] = totalSupply;\r\n        updateAccumulateBalance(_to, block.timestamp); \r\n        emit Mint(address(0), _to, totalSupply);\r\n    }\r\n}",
  "sourcePath": "C:/Users/cheek/Desktop/Developer doc/Visual Studio Code/PundiX/YieldFarm_BridgeEthBsc/src/contracts/PurseTokenUpgradableV2.sol",
  "compiler": {
    "name": "solc",
    "version": "0.8.7+commit.e28d00a7.Emscripten.clang"
  },
  "schemaVersion": "3.2.3",
  "updatedAt": "2021-09-18T02:26:46.879Z",
  "networkType": "ethereum",
  "devdoc": {
    "kind": "dev",
    "methods": {
      "owner()": {
        "details": "Returns the address of the current owner."
      },
      "paused()": {
        "details": "Returns true if the contract is paused, and false otherwise."
      },
      "renounceOwnership()": {
        "details": "Leaves the contract without owner. It will not be possible to call `onlyOwner` functions anymore. Can only be called by the current owner. NOTE: Renouncing ownership will leave the contract without an owner, thereby removing any functionality that is only available to the owner."
      },
      "transferOwnership(address)": {
        "details": "Transfers ownership of the contract to a new account (`newOwner`). Can only be called by the current owner."
      },
      "upgradeTo(address)": {
        "details": "Upgrade the implementation of the proxy to `newImplementation`. Calls {_authorizeUpgrade}. Emits an {Upgraded} event."
      },
      "upgradeToAndCall(address,bytes)": {
        "details": "Upgrade the implementation of the proxy to `newImplementation`, and subsequently execute the function call encoded in `data`. Calls {_authorizeUpgrade}. Emits an {Upgraded} event."
      }
    },
    "version": 1
  },
  "userdoc": {
    "kind": "user",
    "methods": {},
    "version": 1
  }
}