{
  "contractName": "PurseDistribution",
  "abi": [
    {
      "inputs": [
        {
          "internalType": "contract PurseTokenUpgradable",
          "name": "_purseToken",
          "type": "address"
        }
      ],
      "stateMutability": "nonpayable",
      "type": "constructor"
    },
    {
      "anonymous": false,
      "inputs": [
        {
          "indexed": true,
          "internalType": "address",
          "name": "sender",
          "type": "address"
        },
        {
          "indexed": false,
          "internalType": "uint256",
          "name": "iteration",
          "type": "uint256"
        }
      ],
      "name": "addHolder",
      "type": "event"
    },
    {
      "anonymous": false,
      "inputs": [
        {
          "indexed": true,
          "internalType": "address",
          "name": "owner",
          "type": "address"
        },
        {
          "indexed": false,
          "internalType": "uint256",
          "name": "amount",
          "type": "uint256"
        },
        {
          "indexed": false,
          "internalType": "uint256",
          "name": "Iteration_End",
          "type": "uint256"
        }
      ],
      "name": "claimAllReward",
      "type": "event"
    },
    {
      "anonymous": false,
      "inputs": [
        {
          "indexed": true,
          "internalType": "address",
          "name": "owner",
          "type": "address"
        },
        {
          "indexed": false,
          "internalType": "uint256",
          "name": "amount",
          "type": "uint256"
        },
        {
          "indexed": true,
          "internalType": "uint256",
          "name": "Iteration",
          "type": "uint256"
        }
      ],
      "name": "claimReward",
      "type": "event"
    },
    {
      "anonymous": false,
      "inputs": [
        {
          "indexed": true,
          "internalType": "address",
          "name": "sender",
          "type": "address"
        },
        {
          "indexed": false,
          "internalType": "uint256",
          "name": "iteration",
          "type": "uint256"
        }
      ],
      "name": "updateHolder",
      "type": "event"
    },
    {
      "inputs": [],
      "name": "endDistribution",
      "outputs": [
        {
          "internalType": "uint256",
          "name": "",
          "type": "uint256"
        }
      ],
      "stateMutability": "view",
      "type": "function",
      "constant": true
    },
    {
      "inputs": [
        {
          "internalType": "address",
          "name": "",
          "type": "address"
        },
        {
          "internalType": "uint256",
          "name": "",
          "type": "uint256"
        }
      ],
      "name": "holder",
      "outputs": [
        {
          "internalType": "uint256",
          "name": "distributeAmount",
          "type": "uint256"
        },
        {
          "internalType": "bool",
          "name": "isRedeem",
          "type": "bool"
        }
      ],
      "stateMutability": "view",
      "type": "function",
      "constant": true
    },
    {
      "inputs": [],
      "name": "isClaimStart",
      "outputs": [
        {
          "internalType": "bool",
          "name": "",
          "type": "bool"
        }
      ],
      "stateMutability": "view",
      "type": "function",
      "constant": true
    },
    {
      "inputs": [],
      "name": "name",
      "outputs": [
        {
          "internalType": "string",
          "name": "",
          "type": "string"
        }
      ],
      "stateMutability": "view",
      "type": "function",
      "constant": true
    },
    {
      "inputs": [
        {
          "internalType": "uint256",
          "name": "",
          "type": "uint256"
        }
      ],
      "name": "numOfHolder",
      "outputs": [
        {
          "internalType": "uint256",
          "name": "",
          "type": "uint256"
        }
      ],
      "stateMutability": "view",
      "type": "function",
      "constant": true
    },
    {
      "inputs": [],
      "name": "owner",
      "outputs": [
        {
          "internalType": "address",
          "name": "",
          "type": "address"
        }
      ],
      "stateMutability": "view",
      "type": "function",
      "constant": true
    },
    {
      "inputs": [],
      "name": "purseToken",
      "outputs": [
        {
          "internalType": "contract PurseTokenUpgradable",
          "name": "",
          "type": "address"
        }
      ],
      "stateMutability": "view",
      "type": "function",
      "constant": true
    },
    {
      "inputs": [],
      "name": "validDuration",
      "outputs": [
        {
          "internalType": "uint256",
          "name": "",
          "type": "uint256"
        }
      ],
      "stateMutability": "view",
      "type": "function",
      "constant": true
    },
    {
      "inputs": [
        {
          "internalType": "address[]",
          "name": "_holder",
          "type": "address[]"
        },
        {
          "internalType": "uint256[]",
          "name": "_amount",
          "type": "uint256[]"
        },
        {
          "internalType": "uint256",
          "name": "iteration",
          "type": "uint256"
        }
      ],
      "name": "addHolderInfo",
      "outputs": [],
      "stateMutability": "nonpayable",
      "type": "function"
    },
    {
      "inputs": [
        {
          "internalType": "address[]",
          "name": "_holder",
          "type": "address[]"
        },
        {
          "internalType": "uint256[]",
          "name": "_amount",
          "type": "uint256[]"
        },
        {
          "internalType": "uint256",
          "name": "iteration",
          "type": "uint256"
        }
      ],
      "name": "updateHolderInfo",
      "outputs": [],
      "stateMutability": "nonpayable",
      "type": "function"
    },
    {
      "inputs": [
        {
          "internalType": "bool",
          "name": "check",
          "type": "bool"
        }
      ],
      "name": "startClaim",
      "outputs": [],
      "stateMutability": "nonpayable",
      "type": "function"
    },
    {
      "inputs": [
        {
          "internalType": "address[]",
          "name": "_holder",
          "type": "address[]"
        },
        {
          "internalType": "uint256[]",
          "name": "_amount",
          "type": "uint256[]"
        },
        {
          "internalType": "uint256",
          "name": "iteration",
          "type": "uint256"
        }
      ],
      "name": "checkData",
      "outputs": [
        {
          "internalType": "uint256",
          "name": "",
          "type": "uint256"
        },
        {
          "internalType": "bool",
          "name": "",
          "type": "bool"
        }
      ],
      "stateMutability": "view",
      "type": "function",
      "constant": true
    },
    {
      "inputs": [
        {
          "internalType": "uint256",
          "name": "iteration",
          "type": "uint256"
        }
      ],
      "name": "claim",
      "outputs": [],
      "stateMutability": "nonpayable",
      "type": "function"
    },
    {
      "inputs": [
        {
          "internalType": "uint256",
          "name": "iteration_end",
          "type": "uint256"
        }
      ],
      "name": "claimAll",
      "outputs": [],
      "stateMutability": "nonpayable",
      "type": "function"
    },
    {
      "inputs": [
        {
          "internalType": "address",
          "name": "_to",
          "type": "address"
        }
      ],
      "name": "returnPurseToken",
      "outputs": [],
      "stateMutability": "nonpayable",
      "type": "function"
    },
    {
      "inputs": [
        {
          "internalType": "address",
          "name": "token",
          "type": "address"
        },
        {
          "internalType": "uint256",
          "name": "amount",
          "type": "uint256"
        },
        {
          "internalType": "address",
          "name": "_to",
          "type": "address"
        }
      ],
      "name": "returnAnyToken",
      "outputs": [],
      "stateMutability": "nonpayable",
      "type": "function"
    },
    {
      "inputs": [
        {
          "internalType": "address",
          "name": "_owner",
          "type": "address"
        }
      ],
      "name": "updateOwner",
      "outputs": [],
      "stateMutability": "nonpayable",
      "type": "function"
    }
  ],
  "bytecode": "0x60c0604052601260808190527f507572736520446973747269627574696f6e000000000000000000000000000060a0908152620000409160009190620000a4565b503480156200004e57600080fd5b506040516200144b3803806200144b83398101604081905262000071916200014a565b600180546001600160a01b039092166001600160a01b0319928316179055600280549091163317905542600455620001d2565b828054620000b2906200017c565b90600052602060002090601f016020900481019282620000d6576000855562000121565b82601f10620000f157805160ff191683800117855562000121565b8280016001018555821562000121579182015b828111156200012157825182559160200191906001019062000104565b506200012f92915062000133565b5090565b5b808211156200012f576000815560010162000134565b6000602082840312156200015d57600080fd5b81516001600160a01b03811681146200017557600080fd5b9392505050565b600181811c908216806200019157607f821691505b60208210811415620001cc577f4e487b7100000000000000000000000000000000000000000000000000000000600052602260045260246000fd5b50919050565b61126980620001e26000396000f3fe608060405234801561001057600080fd5b506004361061010b5760003560e01c806362da19d4116100a257806389f830b21161007157806389f830b2146102585780638da5cb5b1461026b578063c237e3261461027e578063e650d29314610291578063f09de43f146102ae57600080fd5b806362da19d41461021657806364c76117146102295780636930fd2a14610232578063880cdc311461024557600080fd5b8063379607f5116100de578063379607f51461017b5780633f594c4f1461018e57806351bf16ef146101d8578063603d65a61461020357600080fd5b806306fdde031461011057806319953d681461012e5780632948ff41146101435780632d6008e41461015b575b600080fd5b6101186102c1565b6040516101259190611113565b60405180910390f35b61014161013c366004611033565b61034f565b005b61014d6277f88081565b604051908152602001610125565b61014d6101693660046110e1565b60076020526000908152604090205481565b6101416101893660046110e1565b610555565b6101c361019c366004610fcd565b60066020908152600092835260408084209091529082529020805460019091015460ff1682565b60408051928352901515602083015201610125565b6001546101eb906001600160a01b031681565b6040516001600160a01b039091168152602001610125565b610141610211366004611033565b610704565b6101c3610224366004611033565b6108c1565b61014d60035481565b6101416102403660046110e1565b61096d565b610141610253366004610fab565b610b75565b6101416102663660046110a7565b610c5e565b6002546101eb906001600160a01b031681565b61014161028c366004610ff7565b610cbc565b60055461029e9060ff1681565b6040519015158152602001610125565b6101416102bc366004610fab565b610dbf565b600080546102ce906111a3565b80601f01602080910402602001604051908101604052809291908181526020018280546102fa906111a3565b80156103475780601f1061031c57610100808354040283529160200191610347565b820191906000526020600020905b81548152906001019060200180831161032a57829003601f168201915b505050505081565b6002546001600160a01b031633146103825760405162461bcd60e51b815260040161037990611168565b60405180910390fd5b60008483146103c75760405162461bcd60e51b81526020600482015260116024820152706c656e67746820646966666572656e636560781b6044820152606401610379565b848110156105175760008484838181106103e3576103e361120f565b905060200201351180156104465750600660008787848181106104085761040861120f565b905060200201602081019061041d9190610fab565b6001600160a01b0316815260208082019290925260409081016000908120858252909252902054155b156105055760405180604001604052808585848181106104685761046861120f565b90506020020135815260200160001515815250600660008888858181106104915761049161120f565b90506020020160208101906104a69190610fab565b6001600160a01b0316815260208082019290925260409081016000908120868252835281812084518155938301516001948501805460ff19169115159190911790556007909252812080549091906104ff90849061118b565b90915550505b8061050f816111de565b9150506103c7565b60405182815233907f61f152361c81724040ee7c9387deb92fa0eea588ae5d8bb4695a22fa113c208e906020015b60405180910390a2505050505050565b60055460ff16151560011461056957600080fd5b60035442106105b55760405162461bcd60e51b81526020600482015260186024820152772234b9ba3934b13aba34b7b7103bb4b73237bb9037bb32b960411b6044820152606401610379565b33600090815260066020908152604080832084845290915290206001015460ff16156106165760405162461bcd60e51b815260206004820152601060248201526f68617665206265656e2072656465656d60801b6044820152606401610379565b336000818152600660209081526040808320858452909152908190206001808201805460ff19168217905590549054915163a9059cbb60e01b8152600481019390935260248301819052916001600160a01b039091169063a9059cbb90604401602060405180830381600087803b15801561069057600080fd5b505af11580156106a4573d6000803e3d6000fd5b505050506040513d601f19601f820116820180604052508101906106c891906110c4565b50604051818152829033907f9d06fc9af1e0d81649eba41f3599f74e3dc8b0881aa0d622585d707fad3ac2a29060200160405180910390a35050565b6002546001600160a01b0316331461072e5760405162461bcd60e51b815260040161037990611168565b60008483146107735760405162461bcd60e51b81526020600482015260116024820152706c656e67746820646966666572656e636560781b6044820152606401610379565b8481101561088f57600660008787848181106107915761079161120f565b90506020020160208101906107a69190610fab565b6001600160a01b0316815260208082019290925260409081016000908120858252909252902060019081015460ff16151514156107e25761087d565b60405180604001604052808585848181106107ff576107ff61120f565b90506020020135815260200160001515815250600660008888858181106108285761082861120f565b905060200201602081019061083d9190610fab565b6001600160a01b0316815260208082019290925260409081016000908120868252835220825181559101516001909101805460ff19169115159190911790555b80610887816111de565b915050610773565b60405182815233907f9e2057e5eb47a9914f114cc7d4b9a13c5f1f81ede19b1abcfd2e4115b7b2fc8390602001610545565b60008060005b8681101561095c578585828181106108e1576108e161120f565b90506020020135600660008a8a858181106108fe576108fe61120f565b90506020020160208101906109139190610fab565b6001600160a01b03168152602080820192909252604090810160009081208882529092529020541461094a57915060009050610963565b80610954816111de565b9150506108c7565b9150600190505b9550959350505050565b60055460ff16151560011461098157600080fd5b60035442106109cd5760405162461bcd60e51b81526020600482015260186024820152772234b9ba3934b13aba34b7b7103bb4b73237bb9037bb32b960411b6044820152606401610379565b6000805b828111610aa95733600090815260066020908152604080832084845290915290206001015460ff16610a975733600090815260066020908152604080832084845290915290206001015460ff1615610a5e5760405162461bcd60e51b815260206004820152601060248201526f68617665206265656e2072656465656d60801b6044820152606401610379565b33600090815260066020908152604080832084845290915290206001808201805460ff1916909117905554610a93818461118b565b9250505b80610aa1816111de565b9150506109d1565b508015610b365760015460405163a9059cbb60e01b8152336004820152602481018390526001600160a01b039091169063a9059cbb90604401602060405180830381600087803b158015610afc57600080fd5b505af1158015610b10573d6000803e3d6000fd5b505050506040513d601f19601f82011682018060405250810190610b3491906110c4565b505b604080518281526020810184905233917f984e2f0e1b5ed8ebd9ae70fdcdc7fcd417ee2dcff4f94b89330acd73c2e6a8d1910160405180910390a25050565b6002546001600160a01b03163314610b9f5760405162461bcd60e51b815260040161037990611168565b6001600160a01b038116610be95760405162461bcd60e51b81526020600482015260116024820152706e6f742076616c6964206164647265737360781b6044820152606401610379565b6002546001600160a01b0382811691161415610c3c5760405162461bcd60e51b815260206004820152601260248201527173616d65206f776e6572206164647265737360701b6044820152606401610379565b600280546001600160a01b0319166001600160a01b0392909216919091179055565b6002546001600160a01b03163314610c885760405162461bcd60e51b815260040161037990611168565b8015610cae57610c9b6277f8804261118b565b6003556005805460ff1916600117905550565b6005805460ff191690555b50565b6002546001600160a01b03163314610ce65760405162461bcd60e51b815260040161037990611168565b6001600160a01b038116610d375760405162461bcd60e51b815260206004820152601860248201527773656e6420746f20746865207a65726f206164647265737360401b6044820152606401610379565b60405163a9059cbb60e01b81526001600160a01b0382811660048301526024820184905284169063a9059cbb90604401602060405180830381600087803b158015610d8157600080fd5b505af1158015610d95573d6000803e3d6000fd5b505050506040513d601f19601f82011682018060405250810190610db991906110c4565b50505050565b6002546001600160a01b03163314610de95760405162461bcd60e51b815260040161037990611168565b6001600160a01b038116610e3a5760405162461bcd60e51b815260206004820152601860248201527773656e6420746f20746865207a65726f206164647265737360401b6044820152606401610379565b6001546040516370a0823160e01b81523060048201526000916001600160a01b0316906370a082319060240160206040518083038186803b158015610e7e57600080fd5b505afa158015610e92573d6000803e3d6000fd5b505050506040513d601f19601f82011682018060405250810190610eb691906110fa565b60015460405163a9059cbb60e01b81526001600160a01b0385811660048301526024820184905292935091169063a9059cbb90604401602060405180830381600087803b158015610f0657600080fd5b505af1158015610f1a573d6000803e3d6000fd5b505050506040513d601f19601f82011682018060405250810190610f3e91906110c4565b505050565b80356001600160a01b0381168114610f5a57600080fd5b919050565b60008083601f840112610f7157600080fd5b50813567ffffffffffffffff811115610f8957600080fd5b6020830191508360208260051b8501011115610fa457600080fd5b9250929050565b600060208284031215610fbd57600080fd5b610fc682610f43565b9392505050565b60008060408385031215610fe057600080fd5b610fe983610f43565b946020939093013593505050565b60008060006060848603121561100c57600080fd5b61101584610f43565b92506020840135915061102a60408501610f43565b90509250925092565b60008060008060006060868803121561104b57600080fd5b853567ffffffffffffffff8082111561106357600080fd5b61106f89838a01610f5f565b9097509550602088013591508082111561108857600080fd5b5061109588828901610f5f565b96999598509660400135949350505050565b6000602082840312156110b957600080fd5b8135610fc681611225565b6000602082840312156110d657600080fd5b8151610fc681611225565b6000602082840312156110f357600080fd5b5035919050565b60006020828403121561110c57600080fd5b5051919050565b600060208083528351808285015260005b8181101561114057858101830151858201604001528201611124565b81811115611152576000604083870101525b50601f01601f1916929092016040019392505050565b6020808252600990820152683737ba1037bbb732b960b91b604082015260600190565b6000821982111561119e5761119e6111f9565b500190565b600181811c908216806111b757607f821691505b602082108114156111d857634e487b7160e01b600052602260045260246000fd5b50919050565b60006000198214156111f2576111f26111f9565b5060010190565b634e487b7160e01b600052601160045260246000fd5b634e487b7160e01b600052603260045260246000fd5b8015158114610cb957600080fdfea2646970667358221220c2a814b96016066ba26e55218e691131dbc9ff147ed6028409a1cdbf98e79c4c64736f6c63430008070033",
  "immutableReferences": {},
  "source": "// SPDX-License-Identifier: UNLICENSED\r\n\r\npragma solidity ^0.8.0;\r\n\r\nimport \"./PurseTokenUpgradable.sol\";\r\n\r\ncontract PurseDistribution {\r\n    event claimReward(address indexed owner, uint256 amount, uint256 indexed Iteration);\r\n    event claimAllReward(address indexed owner, uint256 amount, uint256 Iteration_End);\r\n    event addHolder(address indexed sender, uint256 iteration);\r\n    event updateHolder(address indexed sender, uint256 iteration);\r\n    \r\n    string public name = \"Purse Distribution\";\r\n    PurseTokenUpgradable public purseToken;\r\n    address public owner;\r\n    uint256 public constant validDuration = 91 days;\r\n    uint256 public endDistribution;\r\n    uint256 internal distributionStart;\r\n    bool public isClaimStart;\r\n\r\n    mapping(address => mapping(uint256 => holderInfo)) public holder;   //address->index   \r\n    mapping(uint256 => uint256) public numOfHolder;\r\n\r\n    struct holderInfo {\r\n        uint256 distributeAmount;\r\n        bool isRedeem;\r\n    }\r\n    \r\n    modifier onlyOwner() {\r\n        require(msg.sender == owner, \"not owner\");\r\n        _;\r\n    }\r\n\r\n    constructor(PurseTokenUpgradable _purseToken) {\r\n        purseToken = _purseToken;\r\n        owner = msg.sender;\r\n        distributionStart = block.timestamp;\r\n    }\r\n\r\n    function addHolderInfo(address[] calldata _holder, uint256[] calldata _amount , uint256 iteration) public onlyOwner {\r\n        uint256 i = 0;\r\n        require(_holder.length == _amount.length, \"length difference\");\r\n        for (i; i < _holder.length; i++) {\r\n            if (_amount[i] > 0 && holder[_holder[i]][iteration].distributeAmount == 0) {\r\n                holder[_holder[i]][iteration] = holderInfo(_amount[i], false);\r\n                numOfHolder[iteration] += 1;\r\n            }\r\n        }\r\n        emit addHolder(msg.sender, iteration);\r\n    }\r\n\r\n    function updateHolderInfo(address[] calldata _holder, uint256[] calldata _amount , uint256 iteration) public onlyOwner {\r\n        uint256 i = 0;\r\n        require(_holder.length == _amount.length, \"length difference\");\r\n        for (i; i < _holder.length; i++) {\r\n            if (holder[_holder[i]][iteration].isRedeem == true) {\r\n                continue;\r\n            }\r\n            holder[_holder[i]][iteration] = holderInfo(_amount[i], false);\r\n        }\r\n        emit updateHolder(msg.sender, iteration);\r\n    }\r\n\r\n    function startClaim(bool check) public onlyOwner {\r\n        if (check) {\r\n            endDistribution = block.timestamp + validDuration;\r\n            isClaimStart = true;\r\n        } else {\r\n            isClaimStart = false;\r\n        }\r\n    }\r\n\r\n    function checkData(address[] calldata _holder, uint256[] calldata _amount, uint256 iteration) public view returns (uint256, bool) {\r\n        uint256 i = 0;\r\n        for (i; i < _holder.length; i++) {\r\n            if (holder[_holder[i]][iteration].distributeAmount != _amount[i]) {\r\n                return (i, false);\r\n            }\r\n        }\r\n        return (i, true);        \r\n    }\r\n\r\n    // Notice Transfers tokens held by timelock to beneficiary.\r\n    function claim(uint256 iteration) public {\r\n        require (isClaimStart == true);\r\n        require(block.timestamp < endDistribution, \"Distribution window over\");\r\n        require(holder[msg.sender][iteration].isRedeem == false, 'have been redeem');\r\n\r\n        holder[msg.sender][iteration].isRedeem = true;\r\n        uint256 claimAmount = holder[msg.sender][iteration].distributeAmount;\r\n        purseToken.transfer(msg.sender, claimAmount);\r\n        emit claimReward(msg.sender, claimAmount, iteration);\r\n    }\r\n\r\n    function claimAll(uint256 iteration_end) public {\r\n        require (isClaimStart == true);\r\n        require(block.timestamp < endDistribution, \"Distribution window over\");\r\n        uint256 claimAmount = 0;\r\n        for (uint256 i = 0; i <= iteration_end; i++) {\r\n                if (holder[msg.sender][i].isRedeem == false) {\r\n                    require(holder[msg.sender][i].isRedeem == false, 'have been redeem');\r\n                    holder[msg.sender][i].isRedeem = true;\r\n                    uint256 holderAmount = holder[msg.sender][i].distributeAmount;\r\n                    claimAmount += holderAmount;                    \r\n                }\r\n        }\r\n        if (claimAmount > 0) {\r\n            purseToken.transfer(msg.sender, claimAmount);\r\n        }\r\n        emit claimAllReward(msg.sender, claimAmount, iteration_end);\r\n    }\r\n    \r\n    function returnPurseToken(address _to) public onlyOwner {\r\n        require(_to != address(0), \"send to the zero address\");\r\n        uint256 remainingAmount = purseToken.balanceOf(address(this));\r\n        purseToken.transfer(_to, remainingAmount);\r\n    }\r\n\r\n    function returnAnyToken(address token, uint256 amount, address _to) public onlyOwner{\r\n        require(_to != address(0), \"send to the zero address\");\r\n        ERC20Interface(token).transfer(_to, amount);\r\n    } \r\n\r\n    function updateOwner(address _owner) public onlyOwner{\r\n        require(_owner != address(0), \"not valid address\");\r\n        require(_owner != owner, \"same owner address\");\r\n        owner = _owner;\r\n    } \r\n}\r\n",
  "sourcePath": "C:/Users/cheek/Desktop/Developer doc/Visual Studio Code/PundiX/YieldFarm_BridgeEthBsc/src/contracts/PurseDistribution.sol",
  "compiler": {
    "name": "solc",
    "version": "0.8.7+commit.e28d00a7.Emscripten.clang"
  },
  "schemaVersion": "3.2.3",
  "updatedAt": "2021-09-19T00:57:11.393Z",
  "networkType": "ethereum",
  "devdoc": {
    "kind": "dev",
    "methods": {},
    "version": 1
  },
  "userdoc": {
    "kind": "user",
    "methods": {},
    "version": 1
  }
}