{
  "contractName": "PurseTokenUpgradableV2",
  "abi": [
    {
      "anonymous": false,
      "inputs": [
        {
          "indexed": false,
          "internalType": "address",
          "name": "previousAdmin",
          "type": "address"
        },
        {
          "indexed": false,
          "internalType": "address",
          "name": "newAdmin",
          "type": "address"
        }
      ],
      "name": "AdminChanged",
      "type": "event"
    },
    {
      "anonymous": false,
      "inputs": [
        {
          "indexed": true,
          "internalType": "address",
          "name": "_owner",
          "type": "address"
        },
        {
          "indexed": true,
          "internalType": "address",
          "name": "_spender",
          "type": "address"
        },
        {
          "indexed": false,
          "internalType": "uint256",
          "name": "_value",
          "type": "uint256"
        }
      ],
      "name": "Approval",
      "type": "event"
    },
    {
      "anonymous": false,
      "inputs": [
        {
          "indexed": true,
          "internalType": "address",
          "name": "beacon",
          "type": "address"
        }
      ],
      "name": "BeaconUpgraded",
      "type": "event"
    },
    {
      "anonymous": false,
      "inputs": [
        {
          "indexed": true,
          "internalType": "address",
          "name": "_from",
          "type": "address"
        },
        {
          "indexed": true,
          "internalType": "address",
          "name": "_to",
          "type": "address"
        },
        {
          "indexed": false,
          "internalType": "uint256",
          "name": "_value",
          "type": "uint256"
        }
      ],
      "name": "Burn",
      "type": "event"
    },
    {
      "anonymous": false,
      "inputs": [
        {
          "indexed": true,
          "internalType": "address",
          "name": "_from",
          "type": "address"
        },
        {
          "indexed": true,
          "internalType": "address",
          "name": "_to",
          "type": "address"
        },
        {
          "indexed": false,
          "internalType": "uint256",
          "name": "_value",
          "type": "uint256"
        }
      ],
      "name": "Mint",
      "type": "event"
    },
    {
      "anonymous": false,
      "inputs": [
        {
          "indexed": true,
          "internalType": "address",
          "name": "previousOwner",
          "type": "address"
        }
      ],
      "name": "OwnershipRenounced",
      "type": "event"
    },
    {
      "anonymous": false,
      "inputs": [
        {
          "indexed": true,
          "internalType": "address",
          "name": "previousOwner",
          "type": "address"
        },
        {
          "indexed": true,
          "internalType": "address",
          "name": "newOwner",
          "type": "address"
        }
      ],
      "name": "OwnershipTransferred",
      "type": "event"
    },
    {
      "anonymous": false,
      "inputs": [
        {
          "indexed": false,
          "internalType": "address",
          "name": "account",
          "type": "address"
        }
      ],
      "name": "Paused",
      "type": "event"
    },
    {
      "anonymous": false,
      "inputs": [
        {
          "indexed": true,
          "internalType": "address",
          "name": "_from",
          "type": "address"
        },
        {
          "indexed": true,
          "internalType": "address",
          "name": "_to",
          "type": "address"
        },
        {
          "indexed": false,
          "internalType": "uint256",
          "name": "_value",
          "type": "uint256"
        }
      ],
      "name": "Transfer",
      "type": "event"
    },
    {
      "anonymous": false,
      "inputs": [
        {
          "indexed": false,
          "internalType": "address",
          "name": "account",
          "type": "address"
        }
      ],
      "name": "Unpaused",
      "type": "event"
    },
    {
      "anonymous": false,
      "inputs": [
        {
          "indexed": true,
          "internalType": "address",
          "name": "implementation",
          "type": "address"
        }
      ],
      "name": "Upgraded",
      "type": "event"
    },
    {
      "inputs": [
        {
          "internalType": "uint256",
          "name": "",
          "type": "uint256"
        }
      ],
      "name": "admins",
      "outputs": [
        {
          "internalType": "address",
          "name": "",
          "type": "address"
        }
      ],
      "stateMutability": "view",
      "type": "function"
    },
    {
      "inputs": [
        {
          "internalType": "address",
          "name": "",
          "type": "address"
        },
        {
          "internalType": "address",
          "name": "",
          "type": "address"
        }
      ],
      "name": "allowance",
      "outputs": [
        {
          "internalType": "uint256",
          "name": "",
          "type": "uint256"
        }
      ],
      "stateMutability": "view",
      "type": "function"
    },
    {
      "inputs": [
        {
          "internalType": "address",
          "name": "",
          "type": "address"
        }
      ],
      "name": "balanceOf",
      "outputs": [
        {
          "internalType": "uint256",
          "name": "",
          "type": "uint256"
        }
      ],
      "stateMutability": "view",
      "type": "function"
    },
    {
      "inputs": [],
      "name": "burnPercent",
      "outputs": [
        {
          "internalType": "uint256",
          "name": "",
          "type": "uint256"
        }
      ],
      "stateMutability": "view",
      "type": "function"
    },
    {
      "inputs": [],
      "name": "decimals",
      "outputs": [
        {
          "internalType": "uint8",
          "name": "",
          "type": "uint8"
        }
      ],
      "stateMutability": "view",
      "type": "function"
    },
    {
      "inputs": [],
      "name": "disPercent",
      "outputs": [
        {
          "internalType": "uint256",
          "name": "",
          "type": "uint256"
        }
      ],
      "stateMutability": "view",
      "type": "function"
    },
    {
      "inputs": [],
      "name": "disPool",
      "outputs": [
        {
          "internalType": "address",
          "name": "",
          "type": "address"
        }
      ],
      "stateMutability": "view",
      "type": "function"
    },
    {
      "inputs": [
        {
          "internalType": "address",
          "name": "",
          "type": "address"
        }
      ],
      "name": "isAdmin",
      "outputs": [
        {
          "internalType": "bool",
          "name": "",
          "type": "bool"
        }
      ],
      "stateMutability": "view",
      "type": "function"
    },
    {
      "inputs": [
        {
          "internalType": "address",
          "name": "",
          "type": "address"
        }
      ],
      "name": "isWhitelistedFrom",
      "outputs": [
        {
          "internalType": "bool",
          "name": "",
          "type": "bool"
        }
      ],
      "stateMutability": "view",
      "type": "function"
    },
    {
      "inputs": [
        {
          "internalType": "address",
          "name": "",
          "type": "address"
        }
      ],
      "name": "isWhitelistedTo",
      "outputs": [
        {
          "internalType": "bool",
          "name": "",
          "type": "bool"
        }
      ],
      "stateMutability": "view",
      "type": "function"
    },
    {
      "inputs": [],
      "name": "liqPercent",
      "outputs": [
        {
          "internalType": "uint256",
          "name": "",
          "type": "uint256"
        }
      ],
      "stateMutability": "view",
      "type": "function"
    },
    {
      "inputs": [],
      "name": "liqPool",
      "outputs": [
        {
          "internalType": "address",
          "name": "",
          "type": "address"
        }
      ],
      "stateMutability": "view",
      "type": "function"
    },
    {
      "inputs": [],
      "name": "mintIndex",
      "outputs": [
        {
          "internalType": "uint256",
          "name": "",
          "type": "uint256"
        }
      ],
      "stateMutability": "view",
      "type": "function"
    },
    {
      "inputs": [],
      "name": "name",
      "outputs": [
        {
          "internalType": "string",
          "name": "",
          "type": "string"
        }
      ],
      "stateMutability": "view",
      "type": "function"
    },
    {
      "inputs": [],
      "name": "owner",
      "outputs": [
        {
          "internalType": "address",
          "name": "",
          "type": "address"
        }
      ],
      "stateMutability": "view",
      "type": "function"
    },
    {
      "inputs": [],
      "name": "paused",
      "outputs": [
        {
          "internalType": "bool",
          "name": "",
          "type": "bool"
        }
      ],
      "stateMutability": "view",
      "type": "function"
    },
    {
      "inputs": [],
      "name": "renounceOwnership",
      "outputs": [],
      "stateMutability": "nonpayable",
      "type": "function"
    },
    {
      "inputs": [],
      "name": "symbol",
      "outputs": [
        {
          "internalType": "string",
          "name": "",
          "type": "string"
        }
      ],
      "stateMutability": "view",
      "type": "function"
    },
    {
      "inputs": [],
      "name": "totalSupply",
      "outputs": [
        {
          "internalType": "uint256",
          "name": "",
          "type": "uint256"
        }
      ],
      "stateMutability": "view",
      "type": "function"
    },
    {
      "inputs": [
        {
          "internalType": "address",
          "name": "newOwner",
          "type": "address"
        }
      ],
      "name": "transferOwnership",
      "outputs": [],
      "stateMutability": "nonpayable",
      "type": "function"
    },
    {
      "inputs": [
        {
          "internalType": "address",
          "name": "newImplementation",
          "type": "address"
        }
      ],
      "name": "upgradeTo",
      "outputs": [],
      "stateMutability": "nonpayable",
      "type": "function"
    },
    {
      "inputs": [
        {
          "internalType": "address",
          "name": "newImplementation",
          "type": "address"
        },
        {
          "internalType": "bytes",
          "name": "data",
          "type": "bytes"
        }
      ],
      "name": "upgradeToAndCall",
      "outputs": [],
      "stateMutability": "payable",
      "type": "function"
    },
    {
      "inputs": [
        {
          "internalType": "address",
          "name": "newWhitelist",
          "type": "address"
        }
      ],
      "name": "setWhitelistedTo",
      "outputs": [],
      "stateMutability": "nonpayable",
      "type": "function"
    },
    {
      "inputs": [
        {
          "internalType": "address",
          "name": "newWhitelist",
          "type": "address"
        }
      ],
      "name": "removeWhitelistedTo",
      "outputs": [],
      "stateMutability": "nonpayable",
      "type": "function"
    },
    {
      "inputs": [
        {
          "internalType": "address",
          "name": "newWhitelist",
          "type": "address"
        }
      ],
      "name": "setWhitelistedFrom",
      "outputs": [],
      "stateMutability": "nonpayable",
      "type": "function"
    },
    {
      "inputs": [
        {
          "internalType": "address",
          "name": "newWhitelist",
          "type": "address"
        }
      ],
      "name": "removeWhitelistedFrom",
      "outputs": [],
      "stateMutability": "nonpayable",
      "type": "function"
    },
    {
      "inputs": [
        {
          "internalType": "address",
          "name": "_to",
          "type": "address"
        },
        {
          "internalType": "uint256",
          "name": "_value",
          "type": "uint256"
        }
      ],
      "name": "transfer",
      "outputs": [
        {
          "internalType": "bool",
          "name": "success",
          "type": "bool"
        }
      ],
      "stateMutability": "nonpayable",
      "type": "function"
    },
    {
      "inputs": [
        {
          "internalType": "address",
          "name": "_spender",
          "type": "address"
        },
        {
          "internalType": "uint256",
          "name": "_value",
          "type": "uint256"
        }
      ],
      "name": "approve",
      "outputs": [
        {
          "internalType": "bool",
          "name": "success",
          "type": "bool"
        }
      ],
      "stateMutability": "nonpayable",
      "type": "function"
    },
    {
      "inputs": [
        {
          "internalType": "address",
          "name": "_from",
          "type": "address"
        },
        {
          "internalType": "address",
          "name": "_to",
          "type": "address"
        },
        {
          "internalType": "uint256",
          "name": "_value",
          "type": "uint256"
        }
      ],
      "name": "transferFrom",
      "outputs": [
        {
          "internalType": "bool",
          "name": "success",
          "type": "bool"
        }
      ],
      "stateMutability": "nonpayable",
      "type": "function"
    },
    {
      "inputs": [
        {
          "internalType": "address",
          "name": "_account",
          "type": "address"
        },
        {
          "internalType": "uint256",
          "name": "_amount",
          "type": "uint256"
        }
      ],
      "name": "mint",
      "outputs": [],
      "stateMutability": "nonpayable",
      "type": "function"
    },
    {
      "inputs": [
        {
          "internalType": "address",
          "name": "_account",
          "type": "address"
        },
        {
          "internalType": "uint256",
          "name": "_amount",
          "type": "uint256"
        }
      ],
      "name": "burn",
      "outputs": [],
      "stateMutability": "nonpayable",
      "type": "function"
    },
    {
      "inputs": [
        {
          "internalType": "address",
          "name": "_newLPool",
          "type": "address"
        }
      ],
      "name": "updateLPoolAdd",
      "outputs": [],
      "stateMutability": "nonpayable",
      "type": "function"
    },
    {
      "inputs": [
        {
          "internalType": "address",
          "name": "_newRPool",
          "type": "address"
        }
      ],
      "name": "updateRPoolAdd",
      "outputs": [],
      "stateMutability": "nonpayable",
      "type": "function"
    },
    {
      "inputs": [
        {
          "internalType": "uint256",
          "name": "_newBurnPercent",
          "type": "uint256"
        }
      ],
      "name": "updateBurnPercent",
      "outputs": [],
      "stateMutability": "nonpayable",
      "type": "function"
    },
    {
      "inputs": [
        {
          "internalType": "uint256",
          "name": "_newLiqPercent",
          "type": "uint256"
        }
      ],
      "name": "updateLiqPercent",
      "outputs": [],
      "stateMutability": "nonpayable",
      "type": "function"
    },
    {
      "inputs": [
        {
          "internalType": "uint256",
          "name": "_newDisPercent",
          "type": "uint256"
        }
      ],
      "name": "updateDisPercent",
      "outputs": [],
      "stateMutability": "nonpayable",
      "type": "function"
    },
    {
      "inputs": [
        {
          "internalType": "address",
          "name": "newAdmin",
          "type": "address"
        }
      ],
      "name": "addAdmin",
      "outputs": [],
      "stateMutability": "nonpayable",
      "type": "function"
    },
    {
      "inputs": [
        {
          "internalType": "uint256",
          "name": "index",
          "type": "uint256"
        }
      ],
      "name": "removeAdmin",
      "outputs": [
        {
          "internalType": "address[]",
          "name": "",
          "type": "address[]"
        }
      ],
      "stateMutability": "nonpayable",
      "type": "function"
    },
    {
      "inputs": [],
      "name": "getAdmins",
      "outputs": [
        {
          "internalType": "address[]",
          "name": "",
          "type": "address[]"
        }
      ],
      "stateMutability": "view",
      "type": "function"
    },
    {
      "inputs": [
        {
          "internalType": "address",
          "name": "token",
          "type": "address"
        },
        {
          "internalType": "uint256",
          "name": "amount",
          "type": "uint256"
        },
        {
          "internalType": "address",
          "name": "_to",
          "type": "address"
        }
      ],
      "name": "returnAnyToken",
      "outputs": [],
      "stateMutability": "nonpayable",
      "type": "function"
    },
    {
      "inputs": [],
      "name": "pause",
      "outputs": [],
      "stateMutability": "nonpayable",
      "type": "function"
    },
    {
      "inputs": [],
      "name": "unpause",
      "outputs": [],
      "stateMutability": "nonpayable",
      "type": "function"
    },
    {
      "inputs": [
        {
          "internalType": "address",
          "name": "_to",
          "type": "address"
        },
        {
          "internalType": "address",
          "name": "_lPool",
          "type": "address"
        },
        {
          "internalType": "address",
          "name": "_rPool",
          "type": "address"
        },
        {
          "internalType": "uint256",
          "name": "_burnPercent",
          "type": "uint256"
        },
        {
          "internalType": "uint256",
          "name": "_liqPercent",
          "type": "uint256"
        },
        {
          "internalType": "uint256",
          "name": "_disPercent",
          "type": "uint256"
        }
      ],
      "name": "initialize",
      "outputs": [],
      "stateMutability": "nonpayable",
      "type": "function"
    }
  ],
  "bytecode": "0x608060405234801561001057600080fd5b5061582a80620000216000396000f3fe60806040526004361061025c5760003560e01c806367e76d53116101445780639dc29fac116100b6578063ca04d2d81161007a578063ca04d2d8146108c3578063dd62ed3e14610900578063e2657da11461093d578063f2fde38b14610966578063f74f9bfd1461098f578063f7567244146109ba5761025c565b80639dc29fac146107cc578063a9059cbb146107f5578063ad7bbc2914610832578063c237e3261461086f578063c6ef9246146108985761025c565b8063728cdbca11610108578063728cdbca146106e2578063740b91f41461070b5780638456cb59146107365780638aa4ef2c1461074d5780638da5cb5b1461077657806395d89b41146107a15761025c565b806367e76d5314610613578063704802751461063c57806370a0823114610665578063715018a6146106a2578063726f0133146106b95761025c565b806335e8b82e116101dd57806340c10f19116101a157806340c10f19146105125780634d28b4ba1461053b5780634f1ef286146105645780635422e495146105805780635b014029146105ab5780635c975abb146105e85761025c565b806335e8b82e146104575780633659cfe6146104805780633838d4e3146104a957806338999328146104d25780633f4ba83a146104fb5761025c565b806323b872dd1161022457806323b872dd1461035c57806324d7806c1461039957806327ba6e11146103d6578063313ce5671461040157806331ae450b1461042c5761025c565b806303807ee51461026157806306fdde031461028c578063095ea7b3146102b757806314bfd6d0146102f457806318160ddd14610331575b600080fd5b34801561026d57600080fd5b506102766109e3565b60405161028391906150a2565b60405180910390f35b34801561029857600080fd5b506102a16109ea565b6040516102ae9190614f40565b60405180910390f35b3480156102c357600080fd5b506102de60048036038101906102d99190614b32565b610a78565b6040516102eb9190614f25565b60405180910390f35b34801561030057600080fd5b5061031b60048036038101906103169190614bf2565b610bb3565b6040516103289190614ebf565b60405180910390f35b34801561033d57600080fd5b50610346610bf3565b60405161035391906150a2565b60405180910390f35b34801561036857600080fd5b50610383600480360381019061037e9190614a83565b610bf9565b6040516103909190614f25565b60405180910390f35b3480156103a557600080fd5b506103c060048036038101906103bb9190614989565b611142565b6040516103cd9190614f25565b60405180910390f35b3480156103e257600080fd5b506103eb611163565b6040516103f89190614ebf565b60405180910390f35b34801561040d57600080fd5b5061041661118a565b60405161042391906150bd565b60405180910390f35b34801561043857600080fd5b5061044161119d565b60405161044e9190614f03565b60405180910390f35b34801561046357600080fd5b5061047e60048036038101906104799190614989565b61122c565b005b34801561048c57600080fd5b506104a760048036038101906104a29190614989565b611383565b005b3480156104b557600080fd5b506104d060048036038101906104cb9190614989565b6113aa565b005b3480156104de57600080fd5b506104f960048036038101906104f49190614bf2565b611514565b005b34801561050757600080fd5b506105106115c6565b005b34801561051e57600080fd5b5061053960048036038101906105349190614b32565b611693565b005b34801561054757600080fd5b50610562600480360381019061055d9190614989565b61187c565b005b61057e60048036038101906105799190614ad6565b6119e5565b005b34801561058c57600080fd5b506105956119fe565b6040516105a291906150a2565b60405180910390f35b3480156105b757600080fd5b506105d260048036038101906105cd9190614989565b611a05565b6040516105df9190614f25565b60405180910390f35b3480156105f457600080fd5b506105fd611a26565b60405161060a9190614f25565b60405180910390f35b34801561061f57600080fd5b5061063a60048036038101906106359190614989565b611a3d565b005b34801561064857600080fd5b50610663600480360381019061065e9190614989565b611b94565b005b34801561067157600080fd5b5061068c60048036038101906106879190614989565b611d62565b60405161069991906150a2565b60405180910390f35b3480156106ae57600080fd5b506106b7611d7b565b005b3480156106c557600080fd5b506106e060048036038101906106db9190614bf2565b611e03565b005b3480156106ee57600080fd5b50610709600480360381019061070491906149f6565b611eb5565b005b34801561071757600080fd5b506107206122ba565b60405161072d9190614ebf565b60405180910390f35b34801561074257600080fd5b5061074b6122e1565b005b34801561075957600080fd5b50610774600480360381019061076f9190614bf2565b6123af565b005b34801561078257600080fd5b5061078b612461565b6040516107989190614ebf565b60405180910390f35b3480156107ad57600080fd5b506107b661248b565b6040516107c39190614f40565b60405180910390f35b3480156107d857600080fd5b506107f360048036038101906107ee9190614b32565b612519565b005b34801561080157600080fd5b5061081c60048036038101906108179190614b32565b612755565b6040516108299190614f25565b60405180910390f35b34801561083e57600080fd5b5061085960048036038101906108549190614bf2565b612aeb565b6040516108669190614f03565b60405180910390f35b34801561087b57600080fd5b5061089660048036038101906108919190614b72565b612e5e565b005b3480156108a457600080fd5b506108ad612fdd565b6040516108ba91906150a2565b60405180910390f35b3480156108cf57600080fd5b506108ea60048036038101906108e59190614989565b612fe4565b6040516108f79190614f25565b60405180910390f35b34801561090c57600080fd5b50610927600480360381019061092291906149b6565b613005565b60405161093491906150a2565b60405180910390f35b34801561094957600080fd5b50610964600480360381019061095f9190614989565b61302b565b005b34801561097257600080fd5b5061098d60048036038101906109889190614989565b613194565b005b34801561099b57600080fd5b506109a461328c565b6040516109b191906150a2565b60405180910390f35b3480156109c657600080fd5b506109e160048036038101906109dc9190614989565b613293565b005b6101045481565b60fb80546109f790615345565b80601f0160208091040260200160405190810160405280929190818152602001828054610a2390615345565b8015610a705780601f10610a4557610100808354040283529160200191610a70565b820191906000526020600020905b815481529060010190602001808311610a5357829003601f168201915b505050505081565b6000610a82611a26565b15610ac2576040517f08c379a0000000000000000000000000000000000000000000000000000000008152600401610ab990614fc2565b60405180910390fd5b8161010860003373ffffffffffffffffffffffffffffffffffffffff1673ffffffffffffffffffffffffffffffffffffffff16815260200190815260200160002060008573ffffffffffffffffffffffffffffffffffffffff1673ffffffffffffffffffffffffffffffffffffffff168152602001908152602001600020819055508273ffffffffffffffffffffffffffffffffffffffff163373ffffffffffffffffffffffffffffffffffffffff167f8c5be1e5ebec7d5bd14f71427d1e84f3dd0314c0f7b2291e5b200ac8c7c3b92584604051610ba191906150a2565b60405180910390a36001905092915050565b6101008181548110610bc457600080fd5b906000526020600020016000915054906101000a900473ffffffffffffffffffffffffffffffffffffffff1681565b60fd5481565b6000610c03611a26565b15610c43576040517f08c379a0000000000000000000000000000000000000000000000000000000008152600401610c3a90614fc2565b60405180910390fd5b6000821015610c5157600080fd5b61010760008573ffffffffffffffffffffffffffffffffffffffff1673ffffffffffffffffffffffffffffffffffffffff16815260200190815260200160002054821115610c9e57600080fd5b61010860008573ffffffffffffffffffffffffffffffffffffffff1673ffffffffffffffffffffffffffffffffffffffff16815260200190815260200160002060003373ffffffffffffffffffffffffffffffffffffffff1673ffffffffffffffffffffffffffffffffffffffff16815260200190815260200160002054821115610d2857600080fd5b61010a60008473ffffffffffffffffffffffffffffffffffffffff1673ffffffffffffffffffffffffffffffffffffffff16815260200190815260200160002060009054906101000a900460ff1680610dcb575061010b60003373ffffffffffffffffffffffffffffffffffffffff1673ffffffffffffffffffffffffffffffffffffffff16815260200190815260200160002060009054906101000a900460ff165b15610f80578161010860008673ffffffffffffffffffffffffffffffffffffffff1673ffffffffffffffffffffffffffffffffffffffff16815260200190815260200160002060003373ffffffffffffffffffffffffffffffffffffffff1673ffffffffffffffffffffffffffffffffffffffff1681526020019081526020016000206000828254610e5d919061527a565b925050819055508161010760008673ffffffffffffffffffffffffffffffffffffffff1673ffffffffffffffffffffffffffffffffffffffff1681526020019081526020016000206000828254610eb4919061527a565b925050819055508161010760008573ffffffffffffffffffffffffffffffffffffffff1673ffffffffffffffffffffffffffffffffffffffff1681526020019081526020016000206000828254610f0b9190615199565b925050819055508273ffffffffffffffffffffffffffffffffffffffff168473ffffffffffffffffffffffffffffffffffffffff167fddf252ad1be2c89b69c2b068fc378daa952ba7f163c4a11628f55a4df523b3ef84604051610f6f91906150a2565b60405180910390a36001905061113b565b8161010860008673ffffffffffffffffffffffffffffffffffffffff1673ffffffffffffffffffffffffffffffffffffffff16815260200190815260200160002060003373ffffffffffffffffffffffffffffffffffffffff1673ffffffffffffffffffffffffffffffffffffffff168152602001908152602001600020600082825461100d919061527a565b92505081905550600061102083866133fd565b90508061010760008773ffffffffffffffffffffffffffffffffffffffff1673ffffffffffffffffffffffffffffffffffffffff1681526020019081526020016000206000828254611072919061527a565b925050819055508061010760008673ffffffffffffffffffffffffffffffffffffffff1673ffffffffffffffffffffffffffffffffffffffff16815260200190815260200160002060008282546110c99190615199565b925050819055508373ffffffffffffffffffffffffffffffffffffffff168573ffffffffffffffffffffffffffffffffffffffff167fddf252ad1be2c89b69c2b068fc378daa952ba7f163c4a11628f55a4df523b3ef8360405161112d91906150a2565b60405180910390a360019150505b9392505050565b6101096020528060005260406000206000915054906101000a900460ff1681565b61010260009054906101000a900473ffffffffffffffffffffffffffffffffffffffff1681565b60fe60009054906101000a900460ff1681565b606061010080548060200260200160405190810160405280929190818152602001828054801561122257602002820191906000526020600020905b8160009054906101000a900473ffffffffffffffffffffffffffffffffffffffff1673ffffffffffffffffffffffffffffffffffffffff16815260200190600101908083116111d8575b5050505050905090565b61123461347e565b73ffffffffffffffffffffffffffffffffffffffff16611252612461565b73ffffffffffffffffffffffffffffffffffffffff16146112a8576040517f08c379a000000000000000000000000000000000000000000000000000000000815260040161129f90615022565b60405180910390fd5b600073ffffffffffffffffffffffffffffffffffffffff168173ffffffffffffffffffffffffffffffffffffffff1614156112e257600080fd5b61010160009054906101000a900473ffffffffffffffffffffffffffffffffffffffff1673ffffffffffffffffffffffffffffffffffffffff168173ffffffffffffffffffffffffffffffffffffffff16141561133e57600080fd5b8061010160006101000a81548173ffffffffffffffffffffffffffffffffffffffff021916908373ffffffffffffffffffffffffffffffffffffffff16021790555050565b61138c81613486565b6113a781604051806020016040528060008152506000613505565b50565b6113b261347e565b73ffffffffffffffffffffffffffffffffffffffff166113d0612461565b73ffffffffffffffffffffffffffffffffffffffff1614611426576040517f08c379a000000000000000000000000000000000000000000000000000000000815260040161141d90615022565b60405180910390fd5b600073ffffffffffffffffffffffffffffffffffffffff168173ffffffffffffffffffffffffffffffffffffffff16141561146057600080fd5b61010b60008273ffffffffffffffffffffffffffffffffffffffff1673ffffffffffffffffffffffffffffffffffffffff16815260200190815260200160002060009054906101000a900460ff16156114b857600080fd5b600161010b60008373ffffffffffffffffffffffffffffffffffffffff1673ffffffffffffffffffffffffffffffffffffffff16815260200190815260200160002060006101000a81548160ff02191690831515021790555050565b61151c61347e565b73ffffffffffffffffffffffffffffffffffffffff1661153a612461565b73ffffffffffffffffffffffffffffffffffffffff1614611590576040517f08c379a000000000000000000000000000000000000000000000000000000000815260040161158790615022565b60405180910390fd5b600081101580156115a2575060648111155b6115ab57600080fd5b610104548114156115bb57600080fd5b806101048190555050565b6115ce611a26565b61160d576040517f08c379a000000000000000000000000000000000000000000000000000000000815260040161160490614f62565b60405180910390fd5b61161561347e565b73ffffffffffffffffffffffffffffffffffffffff16611633612461565b73ffffffffffffffffffffffffffffffffffffffff1614611689576040517f08c379a000000000000000000000000000000000000000000000000000000000815260040161168090615022565b60405180910390fd5b6116916136d6565b565b61169b611a26565b156116db576040517f08c379a00000000000000000000000000000000000000000000000000000000081526004016116d290614fc2565b60405180910390fd5b61010960003373ffffffffffffffffffffffffffffffffffffffff1673ffffffffffffffffffffffffffffffffffffffff16815260200190815260200160002060009054906101000a900460ff16611768576040517f08c379a000000000000000000000000000000000000000000000000000000000815260040161175f90615082565b60405180910390fd5b600073ffffffffffffffffffffffffffffffffffffffff168273ffffffffffffffffffffffffffffffffffffffff1614156117a257600080fd5b8061010760008473ffffffffffffffffffffffffffffffffffffffff1673ffffffffffffffffffffffffffffffffffffffff16815260200190815260200160002060008282546117f29190615199565b925050819055508060fd600082825461180b9190615199565b925050819055508173ffffffffffffffffffffffffffffffffffffffff16600073ffffffffffffffffffffffffffffffffffffffff167fab8530f87dc9b59234c4623bf917212bb2536d647574c8e7e5da92c2ede0c9f88360405161187091906150a2565b60405180910390a35050565b61188461347e565b73ffffffffffffffffffffffffffffffffffffffff166118a2612461565b73ffffffffffffffffffffffffffffffffffffffff16146118f8576040517f08c379a00000000000000000000000000000000000000000000000000000000081526004016118ef90615022565b60405180910390fd5b600073ffffffffffffffffffffffffffffffffffffffff168173ffffffffffffffffffffffffffffffffffffffff16141561193257600080fd5b61010b60008273ffffffffffffffffffffffffffffffffffffffff1673ffffffffffffffffffffffffffffffffffffffff16815260200190815260200160002060009054906101000a900460ff1661198957600080fd5b600061010b60008373ffffffffffffffffffffffffffffffffffffffff1673ffffffffffffffffffffffffffffffffffffffff16815260200190815260200160002060006101000a81548160ff02191690831515021790555050565b6119ee82613486565b6119fa82826001613505565b5050565b6101055481565b61010a6020528060005260406000206000915054906101000a900460ff1681565b6000609760009054906101000a900460ff16905090565b611a4561347e565b73ffffffffffffffffffffffffffffffffffffffff16611a63612461565b73ffffffffffffffffffffffffffffffffffffffff1614611ab9576040517f08c379a0000000000000000000000000000000000000000000000000000000008152600401611ab090615022565b60405180910390fd5b600073ffffffffffffffffffffffffffffffffffffffff168173ffffffffffffffffffffffffffffffffffffffff161415611af357600080fd5b61010260009054906101000a900473ffffffffffffffffffffffffffffffffffffffff1673ffffffffffffffffffffffffffffffffffffffff168173ffffffffffffffffffffffffffffffffffffffff161415611b4f57600080fd5b8061010260006101000a81548173ffffffffffffffffffffffffffffffffffffffff021916908373ffffffffffffffffffffffffffffffffffffffff16021790555050565b611b9c61347e565b73ffffffffffffffffffffffffffffffffffffffff16611bba612461565b73ffffffffffffffffffffffffffffffffffffffff1614611c10576040517f08c379a0000000000000000000000000000000000000000000000000000000008152600401611c0790615022565b60405180910390fd5b600073ffffffffffffffffffffffffffffffffffffffff168173ffffffffffffffffffffffffffffffffffffffff161415611c4a57600080fd5b61010960008273ffffffffffffffffffffffffffffffffffffffff1673ffffffffffffffffffffffffffffffffffffffff16815260200190815260200160002060009054906101000a900460ff1615611ca257600080fd5b600161010960008373ffffffffffffffffffffffffffffffffffffffff1673ffffffffffffffffffffffffffffffffffffffff16815260200190815260200160002060006101000a81548160ff021916908315150217905550610100819080600181540180825580915050600190039060005260206000200160009091909190916101000a81548173ffffffffffffffffffffffffffffffffffffffff021916908373ffffffffffffffffffffffffffffffffffffffff16021790555050565b6101076020528060005260406000206000915090505481565b611d8361347e565b73ffffffffffffffffffffffffffffffffffffffff16611da1612461565b73ffffffffffffffffffffffffffffffffffffffff1614611df7576040517f08c379a0000000000000000000000000000000000000000000000000000000008152600401611dee90615022565b60405180910390fd5b611e016000613778565b565b611e0b61347e565b73ffffffffffffffffffffffffffffffffffffffff16611e29612461565b73ffffffffffffffffffffffffffffffffffffffff1614611e7f576040517f08c379a0000000000000000000000000000000000000000000000000000000008152600401611e7690615022565b60405180910390fd5b60008110158015611e91575060648111155b611e9a57600080fd5b61010654811415611eaa57600080fd5b806101068190555050565b600060019054906101000a900460ff1680611edb575060008054906101000a900460ff16155b611f1a576040517f08c379a0000000000000000000000000000000000000000000000000000000008152600401611f1190614fe2565b60405180910390fd5b60008060019054906101000a900460ff161590508015611f6a576001600060016101000a81548160ff02191690831515021790555060016000806101000a81548160ff0219169083151502179055505b600073ffffffffffffffffffffffffffffffffffffffff168673ffffffffffffffffffffffffffffffffffffffff161415611fa457600080fd5b600073ffffffffffffffffffffffffffffffffffffffff168573ffffffffffffffffffffffffffffffffffffffff161415611fde57600080fd5b6000841015611fec57600080fd5b6000831015611ffa57600080fd5b600082101561200857600080fd5b6040518060400160405280600b81526020017f505552534520546f6b656e00000000000000000000000000000000000000000081525060fb90805190602001906120539291906147ad565b506040518060400160405280600281526020017f505200000000000000000000000000000000000000000000000000000000000081525060fc908051906020019061209f9291906147ad565b506bcecb8f27f4200f3a0000000060fd81905550601260fe60006101000a81548160ff021916908360ff16021790555069043c33c193756480000060ff819055508561010160006101000a81548173ffffffffffffffffffffffffffffffffffffffff021916908373ffffffffffffffffffffffffffffffffffffffff1602179055508461010260006101000a81548173ffffffffffffffffffffffffffffffffffffffff021916908373ffffffffffffffffffffffffffffffffffffffff16021790555083610104819055508261010581905550816101068190555060405180602001604052803373ffffffffffffffffffffffffffffffffffffffff1673ffffffffffffffffffffffffffffffffffffffff168152506101009060016121c8929190614833565b506121d161383e565b6121d9613927565b6121e1613a10565b60fd5461010760008973ffffffffffffffffffffffffffffffffffffffff1673ffffffffffffffffffffffffffffffffffffffff168152602001908152602001600020819055508673ffffffffffffffffffffffffffffffffffffffff16600073ffffffffffffffffffffffffffffffffffffffff167fab8530f87dc9b59234c4623bf917212bb2536d647574c8e7e5da92c2ede0c9f860fd5460405161228891906150a2565b60405180910390a380156122b15760008060016101000a81548160ff0219169083151502179055505b50505050505050565b61010160009054906101000a900473ffffffffffffffffffffffffffffffffffffffff1681565b6122e9611a26565b15612329576040517f08c379a000000000000000000000000000000000000000000000000000000000815260040161232090614fc2565b60405180910390fd5b61233161347e565b73ffffffffffffffffffffffffffffffffffffffff1661234f612461565b73ffffffffffffffffffffffffffffffffffffffff16146123a5576040517f08c379a000000000000000000000000000000000000000000000000000000000815260040161239c90615022565b60405180910390fd5b6123ad613af9565b565b6123b761347e565b73ffffffffffffffffffffffffffffffffffffffff166123d5612461565b73ffffffffffffffffffffffffffffffffffffffff161461242b576040517f08c379a000000000000000000000000000000000000000000000000000000000815260040161242290615022565b60405180910390fd5b6000811015801561243d575060648111155b61244657600080fd5b6101055481141561245657600080fd5b806101058190555050565b600060c960009054906101000a900473ffffffffffffffffffffffffffffffffffffffff16905090565b60fc805461249890615345565b80601f01602080910402602001604051908101604052809291908181526020018280546124c490615345565b80156125115780601f106124e657610100808354040283529160200191612511565b820191906000526020600020905b8154815290600101906020018083116124f457829003601f168201915b505050505081565b612521611a26565b15612561576040517f08c379a000000000000000000000000000000000000000000000000000000000815260040161255890614fc2565b60405180910390fd5b61010960003373ffffffffffffffffffffffffffffffffffffffff1673ffffffffffffffffffffffffffffffffffffffff16815260200190815260200160002060009054906101000a900460ff166125ee576040517f08c379a00000000000000000000000000000000000000000000000000000000081526004016125e590615082565b60405180910390fd5b600073ffffffffffffffffffffffffffffffffffffffff168273ffffffffffffffffffffffffffffffffffffffff16141561262857600080fd5b600061010760008473ffffffffffffffffffffffffffffffffffffffff1673ffffffffffffffffffffffffffffffffffffffff1681526020019081526020016000205490508181101561267a57600080fd5b8161010760008573ffffffffffffffffffffffffffffffffffffffff1673ffffffffffffffffffffffffffffffffffffffff16815260200190815260200160002060008282546126ca919061527a565b925050819055508160fd60008282546126e3919061527a565b92505081905550600073ffffffffffffffffffffffffffffffffffffffff168373ffffffffffffffffffffffffffffffffffffffff167fbac40739b0d4ca32fa2d82fc91630465ba3eddd1598da6fca393b26fb63b94538460405161274891906150a2565b60405180910390a3505050565b600061275f611a26565b1561279f576040517f08c379a000000000000000000000000000000000000000000000000000000000815260040161279690614fc2565b60405180910390fd5b60008210156127ad57600080fd5b8161010760003373ffffffffffffffffffffffffffffffffffffffff1673ffffffffffffffffffffffffffffffffffffffff1681526020019081526020016000205410156127fa57600080fd5b61010a60008473ffffffffffffffffffffffffffffffffffffffff1673ffffffffffffffffffffffffffffffffffffffff16815260200190815260200160002060009054906101000a900460ff168061289d575061010b60003373ffffffffffffffffffffffffffffffffffffffff1673ffffffffffffffffffffffffffffffffffffffff16815260200190815260200160002060009054906101000a900460ff165b156129be578161010760003373ffffffffffffffffffffffffffffffffffffffff1673ffffffffffffffffffffffffffffffffffffffff16815260200190815260200160002060008282546128f2919061527a565b925050819055508161010760008573ffffffffffffffffffffffffffffffffffffffff1673ffffffffffffffffffffffffffffffffffffffff16815260200190815260200160002060008282546129499190615199565b925050819055508273ffffffffffffffffffffffffffffffffffffffff163373ffffffffffffffffffffffffffffffffffffffff167fddf252ad1be2c89b69c2b068fc378daa952ba7f163c4a11628f55a4df523b3ef846040516129ad91906150a2565b60405180910390a360019050612ae5565b60006129ca83336133fd565b90508061010760003373ffffffffffffffffffffffffffffffffffffffff1673ffffffffffffffffffffffffffffffffffffffff1681526020019081526020016000206000828254612a1c919061527a565b925050819055508061010760008673ffffffffffffffffffffffffffffffffffffffff1673ffffffffffffffffffffffffffffffffffffffff1681526020019081526020016000206000828254612a739190615199565b925050819055508373ffffffffffffffffffffffffffffffffffffffff163373ffffffffffffffffffffffffffffffffffffffff167fddf252ad1be2c89b69c2b068fc378daa952ba7f163c4a11628f55a4df523b3ef83604051612ad791906150a2565b60405180910390a360019150505b92915050565b6060612af561347e565b73ffffffffffffffffffffffffffffffffffffffff16612b13612461565b73ffffffffffffffffffffffffffffffffffffffff1614612b69576040517f08c379a0000000000000000000000000000000000000000000000000000000008152600401612b6090615022565b60405180910390fd5b60006101008381548110612b8057612b7f6154ad565b5b9060005260206000200160009054906101000a900473ffffffffffffffffffffffffffffffffffffffff169050610100805490508310612bbf57600080fd5b600073ffffffffffffffffffffffffffffffffffffffff168173ffffffffffffffffffffffffffffffffffffffff161415612bf957600080fd5b61010960008273ffffffffffffffffffffffffffffffffffffffff1673ffffffffffffffffffffffffffffffffffffffff16815260200190815260200160002060009054906101000a900460ff16612c5057600080fd5b60008390505b600161010080549050612c69919061527a565b811015612d2c57610100600182612c809190615199565b81548110612c9157612c906154ad565b5b9060005260206000200160009054906101000a900473ffffffffffffffffffffffffffffffffffffffff166101008281548110612cd157612cd06154ad565b5b9060005260206000200160006101000a81548173ffffffffffffffffffffffffffffffffffffffff021916908373ffffffffffffffffffffffffffffffffffffffff1602179055508080612d24906153a8565b915050612c56565b50610100805480612d4057612d3f61547e565b5b6001900381819060005260206000200160006101000a81549073ffffffffffffffffffffffffffffffffffffffff02191690559055600061010960008373ffffffffffffffffffffffffffffffffffffffff1673ffffffffffffffffffffffffffffffffffffffff16815260200190815260200160002060006101000a81548160ff021916908315150217905550610100805480602002602001604051908101604052809291908181526020018280548015612e5157602002820191906000526020600020905b8160009054906101000a900473ffffffffffffffffffffffffffffffffffffffff1673ffffffffffffffffffffffffffffffffffffffff1681526020019060010190808311612e07575b5050505050915050919050565b612e6661347e565b73ffffffffffffffffffffffffffffffffffffffff16612e84612461565b73ffffffffffffffffffffffffffffffffffffffff1614612eda576040517f08c379a0000000000000000000000000000000000000000000000000000000008152600401612ed190615022565b60405180910390fd5b600073ffffffffffffffffffffffffffffffffffffffff168173ffffffffffffffffffffffffffffffffffffffff161415612f4a576040517f08c379a0000000000000000000000000000000000000000000000000000000008152600401612f4190615062565b60405180910390fd5b8273ffffffffffffffffffffffffffffffffffffffff1663a9059cbb82846040518363ffffffff1660e01b8152600401612f85929190614eda565b602060405180830381600087803b158015612f9f57600080fd5b505af1158015612fb3573d6000803e3d6000fd5b505050506040513d601f19601f82011682018060405250810190612fd79190614bc5565b50505050565b6101065481565b61010b6020528060005260406000206000915054906101000a900460ff1681565b610108602052816000526040600020602052806000526040600020600091509150505481565b61303361347e565b73ffffffffffffffffffffffffffffffffffffffff16613051612461565b73ffffffffffffffffffffffffffffffffffffffff16146130a7576040517f08c379a000000000000000000000000000000000000000000000000000000000815260040161309e90615022565b60405180910390fd5b600073ffffffffffffffffffffffffffffffffffffffff168173ffffffffffffffffffffffffffffffffffffffff1614156130e157600080fd5b61010a60008273ffffffffffffffffffffffffffffffffffffffff1673ffffffffffffffffffffffffffffffffffffffff16815260200190815260200160002060009054906101000a900460ff1661313857600080fd5b600061010a60008373ffffffffffffffffffffffffffffffffffffffff1673ffffffffffffffffffffffffffffffffffffffff16815260200190815260200160002060006101000a81548160ff02191690831515021790555050565b61319c61347e565b73ffffffffffffffffffffffffffffffffffffffff166131ba612461565b73ffffffffffffffffffffffffffffffffffffffff1614613210576040517f08c379a000000000000000000000000000000000000000000000000000000000815260040161320790615022565b60405180910390fd5b600073ffffffffffffffffffffffffffffffffffffffff168173ffffffffffffffffffffffffffffffffffffffff161415613280576040517f08c379a000000000000000000000000000000000000000000000000000000000815260040161327790614fa2565b60405180910390fd5b61328981613778565b50565b6101035481565b61329b61347e565b73ffffffffffffffffffffffffffffffffffffffff166132b9612461565b73ffffffffffffffffffffffffffffffffffffffff161461330f576040517f08c379a000000000000000000000000000000000000000000000000000000000815260040161330690615022565b60405180910390fd5b600073ffffffffffffffffffffffffffffffffffffffff168173ffffffffffffffffffffffffffffffffffffffff16141561334957600080fd5b61010a60008273ffffffffffffffffffffffffffffffffffffffff1673ffffffffffffffffffffffffffffffffffffffff16815260200190815260200160002060009054906101000a900460ff16156133a157600080fd5b600161010a60008373ffffffffffffffffffffffffffffffffffffffff1673ffffffffffffffffffffffffffffffffffffffff16815260200190815260200160002060006101000a81548160ff02191690831515021790555050565b60008060009050600080600061341287613b9c565b80935081945082955050505060008310158061342f575060008210155b8061343b575060008110155b1561344d5761344c86848484613c3d565b5b8082848961345b919061527a565b613465919061527a565b61346f919061527a565b93508394505050505092915050565b600033905090565b61348e61347e565b73ffffffffffffffffffffffffffffffffffffffff166134ac612461565b73ffffffffffffffffffffffffffffffffffffffff1614613502576040517f08c379a00000000000000000000000000000000000000000000000000000000081526004016134f990615022565b60405180910390fd5b50565b600061350f614074565b905061351a846140cb565b6000835111806135275750815b15613538576135368484614184565b505b60006135667f4910fdfa16fed3260ed0e7147f7cc6da11a60208b5b9406d12a635614ffd914360001b614268565b90508060000160009054906101000a900460ff166136cf5760018160000160006101000a81548160ff02191690831515021790555061363285836040516024016135b09190614ebf565b6040516020818303038152906040527f3659cfe6000000000000000000000000000000000000000000000000000000007bffffffffffffffffffffffffffffffffffffffffffffffffffffffff19166020820180517bffffffffffffffffffffffffffffffffffffffffffffffffffffffff8381831617835250505050614184565b5060008160000160006101000a81548160ff021916908315150217905550613658614074565b73ffffffffffffffffffffffffffffffffffffffff168273ffffffffffffffffffffffffffffffffffffffff16146136c5576040517f08c379a00000000000000000000000000000000000000000000000000000000081526004016136bc90614f82565b60405180910390fd5b6136ce85614272565b5b5050505050565b6136de611a26565b61371d576040517f08c379a000000000000000000000000000000000000000000000000000000000815260040161371490614f62565b60405180910390fd5b6000609760006101000a81548160ff0219169083151502179055507f5db9ee0a495bf2e6ff9c91a7834c1ba4fdd244a5e8aa4e537bd38aeae4b073aa61376161347e565b60405161376e9190614ebf565b60405180910390a1565b600060c960009054906101000a900473ffffffffffffffffffffffffffffffffffffffff1690508160c960006101000a81548173ffffffffffffffffffffffffffffffffffffffff021916908373ffffffffffffffffffffffffffffffffffffffff1602179055508173ffffffffffffffffffffffffffffffffffffffff168173ffffffffffffffffffffffffffffffffffffffff167f8be0079c531659141344cd1fd0a4f28419497f9722a3daafe3b4186f6b6457e060405160405180910390a35050565b600060019054906101000a900460ff1680613864575060008054906101000a900460ff16155b6138a3576040517f08c379a000000000000000000000000000000000000000000000000000000000815260040161389a90614fe2565b60405180910390fd5b60008060019054906101000a900460ff1615905080156138f3576001600060016101000a81548160ff02191690831515021790555060016000806101000a81548160ff0219169083151502179055505b6138fb6142c1565b61390361439a565b80156139245760008060016101000a81548160ff0219169083151502179055505b50565b600060019054906101000a900460ff168061394d575060008054906101000a900460ff16155b61398c576040517f08c379a000000000000000000000000000000000000000000000000000000000815260040161398390614fe2565b60405180910390fd5b60008060019054906101000a900460ff1615905080156139dc576001600060016101000a81548160ff02191690831515021790555060016000806101000a81548160ff0219169083151502179055505b6139e46142c1565b6139ec61448e565b8015613a0d5760008060016101000a81548160ff0219169083151502179055505b50565b600060019054906101000a900460ff1680613a36575060008054906101000a900460ff16155b613a75576040517f08c379a0000000000000000000000000000000000000000000000000000000008152600401613a6c90614fe2565b60405180910390fd5b60008060019054906101000a900460ff161590508015613ac5576001600060016101000a81548160ff02191690831515021790555060016000806101000a81548160ff0219169083151502179055505b613acd614577565b613ad5614650565b8015613af65760008060016101000a81548160ff0219169083151502179055505b50565b613b01611a26565b15613b41576040517f08c379a0000000000000000000000000000000000000000000000000000000008152600401613b3890614fc2565b60405180910390fd5b6001609760006101000a81548160ff0219169083151502179055507f62e78cea01bee320cd4e420270b5ea74000d11b0c9f74754ebdbfc544b05a258613b8561347e565b604051613b929190614ebf565b60405180910390a1565b60008060008060008060ff5460fd541115613c2a5760646101045488613bc29190615220565b613bcc91906151ef565b925060646101055488613bdf9190615220565b613be991906151ef565b915060646101065488613bfc9190615220565b613c0691906151ef565b9050600060ff5460fd54613c1a919061527a565b905080841115613c28578093505b505b8282829550955095505050509193909250565b600073ffffffffffffffffffffffffffffffffffffffff168473ffffffffffffffffffffffffffffffffffffffff161415613c7757600080fd5b600061010760008673ffffffffffffffffffffffffffffffffffffffff1673ffffffffffffffffffffffffffffffffffffffff1681526020019081526020016000205490506000828486613ccb9190615199565b613cd59190615199565b905080821015613ce457600080fd5b8461010760008873ffffffffffffffffffffffffffffffffffffffff1673ffffffffffffffffffffffffffffffffffffffff1681526020019081526020016000206000828254613d34919061527a565b925050819055508361010760008873ffffffffffffffffffffffffffffffffffffffff1673ffffffffffffffffffffffffffffffffffffffff1681526020019081526020016000206000828254613d8b919061527a565b925050819055508261010760008873ffffffffffffffffffffffffffffffffffffffff1673ffffffffffffffffffffffffffffffffffffffff1681526020019081526020016000206000828254613de2919061527a565b925050819055508460fd6000828254613dfb919061527a565b9250508190555083610107600061010160009054906101000a900473ffffffffffffffffffffffffffffffffffffffff1673ffffffffffffffffffffffffffffffffffffffff1673ffffffffffffffffffffffffffffffffffffffff1681526020019081526020016000206000828254613e759190615199565b9250508190555082610107600061010260009054906101000a900473ffffffffffffffffffffffffffffffffffffffff1673ffffffffffffffffffffffffffffffffffffffff1673ffffffffffffffffffffffffffffffffffffffff1681526020019081526020016000206000828254613eef9190615199565b92505081905550600073ffffffffffffffffffffffffffffffffffffffff168673ffffffffffffffffffffffffffffffffffffffff167fbac40739b0d4ca32fa2d82fc91630465ba3eddd1598da6fca393b26fb63b945387604051613f5491906150a2565b60405180910390a361010160009054906101000a900473ffffffffffffffffffffffffffffffffffffffff1673ffffffffffffffffffffffffffffffffffffffff163373ffffffffffffffffffffffffffffffffffffffff167fddf252ad1be2c89b69c2b068fc378daa952ba7f163c4a11628f55a4df523b3ef86604051613fdc91906150a2565b60405180910390a361010260009054906101000a900473ffffffffffffffffffffffffffffffffffffffff1673ffffffffffffffffffffffffffffffffffffffff163373ffffffffffffffffffffffffffffffffffffffff167fddf252ad1be2c89b69c2b068fc378daa952ba7f163c4a11628f55a4df523b3ef8560405161406491906150a2565b60405180910390a3505050505050565b60006140a27f360894a13ba1a3210667c828492db98dca3e2076cc3735a920a3ca505d382bbc60001b614729565b60000160009054906101000a900473ffffffffffffffffffffffffffffffffffffffff16905090565b6140d481614733565b614113576040517f08c379a000000000000000000000000000000000000000000000000000000000815260040161410a90615002565b60405180910390fd5b806141407f360894a13ba1a3210667c828492db98dca3e2076cc3735a920a3ca505d382bbc60001b614729565b60000160006101000a81548173ffffffffffffffffffffffffffffffffffffffff021916908373ffffffffffffffffffffffffffffffffffffffff16021790555050565b606061418f83614733565b6141ce576040517f08c379a00000000000000000000000000000000000000000000000000000000081526004016141c590615042565b60405180910390fd5b6000808473ffffffffffffffffffffffffffffffffffffffff16846040516141f69190614ea8565b600060405180830381855af49150503d8060008114614231576040519150601f19603f3d011682016040523d82523d6000602084013e614236565b606091505b509150915061425e82826040518060600160405280602781526020016157ce60279139614746565b9250505092915050565b6000819050919050565b61427b816140cb565b8073ffffffffffffffffffffffffffffffffffffffff167fbc7cd75a20ee27fd9adebab32041f755214dbc6bffa90cc0225b39da2e5c2d3b60405160405180910390a250565b600060019054906101000a900460ff16806142e7575060008054906101000a900460ff16155b614326576040517f08c379a000000000000000000000000000000000000000000000000000000000815260040161431d90614fe2565b60405180910390fd5b60008060019054906101000a900460ff161590508015614376576001600060016101000a81548160ff02191690831515021790555060016000806101000a81548160ff0219169083151502179055505b80156143975760008060016101000a81548160ff0219169083151502179055505b50565b600060019054906101000a900460ff16806143c0575060008054906101000a900460ff16155b6143ff576040517f08c379a00000000000000000000000000000000000000000000000000000000081526004016143f690614fe2565b60405180910390fd5b60008060019054906101000a900460ff16159050801561444f576001600060016101000a81548160ff02191690831515021790555060016000806101000a81548160ff0219169083151502179055505b6000609760006101000a81548160ff021916908315150217905550801561448b5760008060016101000a81548160ff0219169083151502179055505b50565b600060019054906101000a900460ff16806144b4575060008054906101000a900460ff16155b6144f3576040517f08c379a00000000000000000000000000000000000000000000000000000000081526004016144ea90614fe2565b60405180910390fd5b60008060019054906101000a900460ff161590508015614543576001600060016101000a81548160ff02191690831515021790555060016000806101000a81548160ff0219169083151502179055505b61455361454e61347e565b613778565b80156145745760008060016101000a81548160ff0219169083151502179055505b50565b600060019054906101000a900460ff168061459d575060008054906101000a900460ff16155b6145dc576040517f08c379a00000000000000000000000000000000000000000000000000000000081526004016145d390614fe2565b60405180910390fd5b60008060019054906101000a900460ff16159050801561462c576001600060016101000a81548160ff02191690831515021790555060016000806101000a81548160ff0219169083151502179055505b801561464d5760008060016101000a81548160ff0219169083151502179055505b50565b600060019054906101000a900460ff1680614676575060008054906101000a900460ff16155b6146b5576040517f08c379a00000000000000000000000000000000000000000000000000000000081526004016146ac90614fe2565b60405180910390fd5b60008060019054906101000a900460ff161590508015614705576001600060016101000a81548160ff02191690831515021790555060016000806101000a81548160ff0219169083151502179055505b80156147265760008060016101000a81548160ff0219169083151502179055505b50565b6000819050919050565b600080823b905060008111915050919050565b60608315614756578290506147a6565b6000835111156147695782518084602001fd5b816040517f08c379a000000000000000000000000000000000000000000000000000000000815260040161479d9190614f40565b60405180910390fd5b9392505050565b8280546147b990615345565b90600052602060002090601f0160209004810192826147db5760008555614822565b82601f106147f457805160ff1916838001178555614822565b82800160010185558215614822579182015b82811115614821578251825591602001919060010190614806565b5b50905061482f91906148bd565b5090565b8280548282559060005260206000209081019282156148ac579160200282015b828111156148ab5782518260006101000a81548173ffffffffffffffffffffffffffffffffffffffff021916908373ffffffffffffffffffffffffffffffffffffffff16021790555091602001919060010190614853565b5b5090506148b991906148bd565b5090565b5b808211156148d65760008160009055506001016148be565b5090565b60006148ed6148e8846150fd565b6150d8565b90508281526020810184848401111561490957614908615510565b5b614914848285615303565b509392505050565b60008135905061492b81615788565b92915050565b6000815190506149408161579f565b92915050565b600082601f83011261495b5761495a61550b565b5b813561496b8482602086016148da565b91505092915050565b600081359050614983816157b6565b92915050565b60006020828403121561499f5761499e61551a565b5b60006149ad8482850161491c565b91505092915050565b600080604083850312156149cd576149cc61551a565b5b60006149db8582860161491c565b92505060206149ec8582860161491c565b9150509250929050565b60008060008060008060c08789031215614a1357614a1261551a565b5b6000614a2189828a0161491c565b9650506020614a3289828a0161491c565b9550506040614a4389828a0161491c565b9450506060614a5489828a01614974565b9350506080614a6589828a01614974565b92505060a0614a7689828a01614974565b9150509295509295509295565b600080600060608486031215614a9c57614a9b61551a565b5b6000614aaa8682870161491c565b9350506020614abb8682870161491c565b9250506040614acc86828701614974565b9150509250925092565b60008060408385031215614aed57614aec61551a565b5b6000614afb8582860161491c565b925050602083013567ffffffffffffffff811115614b1c57614b1b615515565b5b614b2885828601614946565b9150509250929050565b60008060408385031215614b4957614b4861551a565b5b6000614b578582860161491c565b9250506020614b6885828601614974565b9150509250929050565b600080600060608486031215614b8b57614b8a61551a565b5b6000614b998682870161491c565b9350506020614baa86828701614974565b9250506040614bbb8682870161491c565b9150509250925092565b600060208284031215614bdb57614bda61551a565b5b6000614be984828501614931565b91505092915050565b600060208284031215614c0857614c0761551a565b5b6000614c1684828501614974565b91505092915050565b6000614c2b8383614c37565b60208301905092915050565b614c40816152ae565b82525050565b614c4f816152ae565b82525050565b6000614c608261513e565b614c6a818561516c565b9350614c758361512e565b8060005b83811015614ca6578151614c8d8882614c1f565b9750614c988361515f565b925050600181019050614c79565b5085935050505092915050565b614cbc816152c0565b82525050565b6000614ccd82615149565b614cd7818561517d565b9350614ce7818560208601615312565b80840191505092915050565b6000614cfe82615154565b614d088185615188565b9350614d18818560208601615312565b614d218161551f565b840191505092915050565b6000614d39601483615188565b9150614d4482615530565b602082019050919050565b6000614d5c602f83615188565b9150614d6782615559565b604082019050919050565b6000614d7f602683615188565b9150614d8a826155a8565b604082019050919050565b6000614da2601083615188565b9150614dad826155f7565b602082019050919050565b6000614dc5602e83615188565b9150614dd082615620565b604082019050919050565b6000614de8602d83615188565b9150614df38261566f565b604082019050919050565b6000614e0b602083615188565b9150614e16826156be565b602082019050919050565b6000614e2e602683615188565b9150614e39826156e7565b604082019050919050565b6000614e51601883615188565b9150614e5c82615736565b602082019050919050565b6000614e74600983615188565b9150614e7f8261575f565b602082019050919050565b614e93816152ec565b82525050565b614ea2816152f6565b82525050565b6000614eb48284614cc2565b915081905092915050565b6000602082019050614ed46000830184614c46565b92915050565b6000604082019050614eef6000830185614c46565b614efc6020830184614e8a565b9392505050565b60006020820190508181036000830152614f1d8184614c55565b905092915050565b6000602082019050614f3a6000830184614cb3565b92915050565b60006020820190508181036000830152614f5a8184614cf3565b905092915050565b60006020820190508181036000830152614f7b81614d2c565b9050919050565b60006020820190508181036000830152614f9b81614d4f565b9050919050565b60006020820190508181036000830152614fbb81614d72565b9050919050565b60006020820190508181036000830152614fdb81614d95565b9050919050565b60006020820190508181036000830152614ffb81614db8565b9050919050565b6000602082019050818103600083015261501b81614ddb565b9050919050565b6000602082019050818103600083015261503b81614dfe565b9050919050565b6000602082019050818103600083015261505b81614e21565b9050919050565b6000602082019050818103600083015261507b81614e44565b9050919050565b6000602082019050818103600083015261509b81614e67565b9050919050565b60006020820190506150b76000830184614e8a565b92915050565b60006020820190506150d26000830184614e99565b92915050565b60006150e26150f3565b90506150ee8282615377565b919050565b6000604051905090565b600067ffffffffffffffff821115615118576151176154dc565b5b6151218261551f565b9050602081019050919050565b6000819050602082019050919050565b600081519050919050565b600081519050919050565b600081519050919050565b6000602082019050919050565b600082825260208201905092915050565b600081905092915050565b600082825260208201905092915050565b60006151a4826152ec565b91506151af836152ec565b9250827fffffffffffffffffffffffffffffffffffffffffffffffffffffffffffffffff038211156151e4576151e36153f1565b5b828201905092915050565b60006151fa826152ec565b9150615205836152ec565b92508261521557615214615420565b5b828204905092915050565b600061522b826152ec565b9150615236836152ec565b9250817fffffffffffffffffffffffffffffffffffffffffffffffffffffffffffffffff048311821515161561526f5761526e6153f1565b5b828202905092915050565b6000615285826152ec565b9150615290836152ec565b9250828210156152a3576152a26153f1565b5b828203905092915050565b60006152b9826152cc565b9050919050565b60008115159050919050565b600073ffffffffffffffffffffffffffffffffffffffff82169050919050565b6000819050919050565b600060ff82169050919050565b82818337600083830152505050565b60005b83811015615330578082015181840152602081019050615315565b8381111561533f576000848401525b50505050565b6000600282049050600182168061535d57607f821691505b602082108114156153715761537061544f565b5b50919050565b6153808261551f565b810181811067ffffffffffffffff8211171561539f5761539e6154dc565b5b80604052505050565b60006153b3826152ec565b91507fffffffffffffffffffffffffffffffffffffffffffffffffffffffffffffffff8214156153e6576153e56153f1565b5b600182019050919050565b7f4e487b7100000000000000000000000000000000000000000000000000000000600052601160045260246000fd5b7f4e487b7100000000000000000000000000000000000000000000000000000000600052601260045260246000fd5b7f4e487b7100000000000000000000000000000000000000000000000000000000600052602260045260246000fd5b7f4e487b7100000000000000000000000000000000000000000000000000000000600052603160045260246000fd5b7f4e487b7100000000000000000000000000000000000000000000000000000000600052603260045260246000fd5b7f4e487b7100000000000000000000000000000000000000000000000000000000600052604160045260246000fd5b600080fd5b600080fd5b600080fd5b600080fd5b6000601f19601f8301169050919050565b7f5061757361626c653a206e6f7420706175736564000000000000000000000000600082015250565b7f45524331393637557067726164653a207570677261646520627265616b73206660008201527f7572746865722075706772616465730000000000000000000000000000000000602082015250565b7f4f776e61626c653a206e6577206f776e657220697320746865207a65726f206160008201527f6464726573730000000000000000000000000000000000000000000000000000602082015250565b7f5061757361626c653a2070617573656400000000000000000000000000000000600082015250565b7f496e697469616c697a61626c653a20636f6e747261637420697320616c72656160008201527f647920696e697469616c697a6564000000000000000000000000000000000000602082015250565b7f455243313936373a206e657720696d706c656d656e746174696f6e206973206e60008201527f6f74206120636f6e747261637400000000000000000000000000000000000000602082015250565b7f4f776e61626c653a2063616c6c6572206973206e6f7420746865206f776e6572600082015250565b7f416464726573733a2064656c65676174652063616c6c20746f206e6f6e2d636f60008201527f6e74726163740000000000000000000000000000000000000000000000000000602082015250565b7f73656e6420746f20746865207a65726f20616464726573730000000000000000600082015250565b7f6e6f742061646d696e0000000000000000000000000000000000000000000000600082015250565b615791816152ae565b811461579c57600080fd5b50565b6157a8816152c0565b81146157b357600080fd5b50565b6157bf816152ec565b81146157ca57600080fd5b5056fe416464726573733a206c6f772d6c6576656c2064656c65676174652063616c6c206661696c6564a2646970667358221220f4f573c354609c50f920c4ce0a644f12c7c6c0b4b24a19be852884bb1be0ca0964736f6c63430008070033",
  "immutableReferences": {},
  "source": "// SPDX-License-Identifier: UNLICENSED\r\n\r\npragma solidity ^0.8.0;\r\n\r\nimport \"@openzeppelin/contracts-upgradeable/proxy/utils/Initializable.sol\";\r\nimport \"@openzeppelin/contracts-upgradeable/proxy/utils/UUPSUpgradeable.sol\";\r\nimport \"@openzeppelin/contracts-upgradeable/security/PausableUpgradeable.sol\";\r\nimport \"@openzeppelin/contracts-upgradeable/access/OwnableUpgradeable.sol\";\r\n\r\nabstract contract ERC20Interface {\r\n\r\n    function transfer(address to, uint tokens) public virtual returns (bool success);\r\n\r\n    function transferFrom(address from, address to, uint tokens) public virtual returns (bool success);\r\n\r\n}\r\n\r\ncontract PurseTokenUpgradableV2 is Initializable, UUPSUpgradeable, PausableUpgradeable, OwnableUpgradeable {\r\n    string public name;\r\n    string public symbol;\r\n    uint256 public totalSupply;\r\n    uint8 public decimals;\r\n    uint256 private minimumSupply;\r\n    address[] public admins;\r\n    address public liqPool;\r\n    address public disPool;\r\n    uint256 public mintIndex;\r\n    uint256 public burnPercent;\r\n    uint256 public liqPercent;\r\n    uint256 public disPercent;\r\n\r\n    event Transfer(address indexed _from, address indexed _to, uint256 _value);\r\n    event Burn(address indexed _from, address indexed _to, uint256 _value);\r\n    event Mint(address indexed _from, address indexed _to, uint256 _value);\r\n    event Approval(address indexed _owner, address indexed _spender, uint256 _value);\r\n    event OwnershipRenounced(address indexed previousOwner);\r\n\r\n\r\n    modifier onlyAdmin() {\r\n        require(isAdmin[msg.sender], \"not admin\");\r\n        _;\r\n    }\r\n\r\n    mapping(address => uint256) public balanceOf;\r\n    mapping(address => mapping(address => uint256)) public allowance;\r\n    mapping(address => bool) public isAdmin;\r\n    mapping(address => bool) public isWhitelistedTo;\r\n    mapping(address => bool) public isWhitelistedFrom;\r\n\r\n\r\n    function setWhitelistedTo(address newWhitelist) external onlyOwner {\r\n        require(newWhitelist != address(0));\r\n        require(!isWhitelistedTo[newWhitelist]);\r\n\r\n        isWhitelistedTo[newWhitelist] = true;\r\n    }\r\n\r\n    function removeWhitelistedTo(address newWhitelist) external onlyOwner {\r\n        require(newWhitelist != address(0));\r\n        require(isWhitelistedTo[newWhitelist]);\r\n\r\n        isWhitelistedTo[newWhitelist] = false;\r\n    }\r\n\r\n    function setWhitelistedFrom(address newWhitelist) external onlyOwner {\r\n        require(newWhitelist != address(0));\r\n        require(!isWhitelistedFrom[newWhitelist]);\r\n\r\n        isWhitelistedFrom[newWhitelist] = true;\r\n    }\r\n\r\n    function removeWhitelistedFrom(address newWhitelist) external onlyOwner {\r\n        require(newWhitelist != address(0));\r\n        require(isWhitelistedFrom[newWhitelist]);\r\n\r\n        isWhitelistedFrom[newWhitelist] = false;\r\n    }\r\n\r\n    function transfer(address _to, uint256 _value)\r\n        public\r\n        whenNotPaused \r\n        returns (bool success)\r\n    {\r\n        require(_value >= 0);\r\n        require(balanceOf[msg.sender] >= _value);\r\n        if (isWhitelistedTo[_to] || isWhitelistedFrom[msg.sender]) {\r\n            balanceOf[msg.sender] -= _value;\r\n            balanceOf[_to] += _value;\r\n\r\n            emit Transfer(msg.sender, _to, _value);\r\n            return true;\r\n        } else {\r\n            uint256 transferValue = _partialBurn(_value, msg.sender);\r\n            balanceOf[msg.sender] -= transferValue;\r\n            balanceOf[_to] += transferValue;\r\n\r\n            emit Transfer(msg.sender, _to, transferValue);\r\n            return true;\r\n        }\r\n    }\r\n\r\n    function approve(address _spender, uint256 _value)\r\n        public\r\n        whenNotPaused \r\n        returns (bool success)\r\n    {\r\n        allowance[msg.sender][_spender] = _value;\r\n        emit Approval(msg.sender, _spender, _value);\r\n        return true;\r\n    }\r\n\r\n    function transferFrom(\r\n        address _from,\r\n        address _to,\r\n        uint256 _value\r\n    ) public whenNotPaused returns (bool success) {\r\n        require(_value >= 0);\r\n        require(_value <= balanceOf[_from]);\r\n        require(_value <= allowance[_from][msg.sender]);\r\n        if (isWhitelistedTo[_to] || isWhitelistedFrom[msg.sender]) {\r\n            allowance[_from][msg.sender] -= _value;\r\n            balanceOf[_from] -= _value;\r\n            balanceOf[_to] += _value;\r\n            emit Transfer(_from, _to, _value);\r\n            return true;\r\n        } else {\r\n            allowance[_from][msg.sender] -= _value;\r\n            uint256 transferValue = _partialBurn(_value, _from);\r\n            balanceOf[_from] -= transferValue;\r\n            balanceOf[_to] += transferValue;\r\n            emit Transfer(_from, _to, transferValue);\r\n            return true;\r\n        }\r\n    }\r\n\r\n    function mint(address _account, uint256 _amount) public whenNotPaused onlyAdmin {\r\n        require(_account != address(0));\r\n\r\n        balanceOf[_account] += _amount;\r\n        totalSupply += _amount;\r\n        emit Mint(address(0), _account, _amount);\r\n    }\r\n\r\n\r\n    function burn(address _account, uint256 _amount) public whenNotPaused onlyAdmin {\r\n        require(_account != address(0));\r\n        uint256 accountBalance = balanceOf[_account];\r\n        require(accountBalance >= _amount);\r\n        balanceOf[_account] -= _amount;\r\n        totalSupply -= _amount;\r\n        emit Burn(_account, address(0), _amount);\r\n    }\r\n\r\n    function _partialBurn(uint256 _amount, address _from)\r\n        internal\r\n        returns (uint256)\r\n    {\r\n        uint256 transferAmount = 0;\r\n        uint256 burnAmount;\r\n        uint256 liqAmount;\r\n        uint256 disAmount;\r\n        (\r\n            burnAmount,\r\n            liqAmount,\r\n            disAmount\r\n        ) = _calculateDeductAmount(_amount);\r\n\r\n        if (burnAmount >= 0 || liqAmount >= 0 || disAmount >= 0) {\r\n            burnPrivate(_from, burnAmount, liqAmount, disAmount);\r\n        }\r\n        transferAmount = _amount - burnAmount - liqAmount - disAmount;\r\n\r\n        return transferAmount;\r\n    }\r\n\r\n    function _calculateDeductAmount(uint256 _amount)\r\n        internal\r\n        view\r\n        returns (\r\n            uint256,\r\n            uint256,\r\n            uint256\r\n        )\r\n    {\r\n        uint256 burnAmount;\r\n        uint256 liqAmount;\r\n        uint256 disAmount;\r\n\r\n        if (totalSupply > minimumSupply) {\r\n            burnAmount = (_amount * burnPercent) / 100;\r\n            liqAmount = (_amount * liqPercent) / 100;\r\n            disAmount = (_amount * disPercent) / 100;\r\n            uint256 availableBurn = totalSupply - minimumSupply;\r\n            if (burnAmount > availableBurn) {\r\n                burnAmount = availableBurn;\r\n            }\r\n        }\r\n        return (burnAmount, liqAmount, disAmount);\r\n    }\r\n\r\n    function burnPrivate(\r\n        address _account,\r\n        uint256 _burnAmount,\r\n        uint256 _liqAmount,\r\n        uint256 _disAmount\r\n    ) private {\r\n        require(_account != address(0));\r\n        uint256 accountBalance = balanceOf[_account];\r\n        uint256 deductAmount = _burnAmount + _liqAmount + _disAmount;\r\n        require(accountBalance >= deductAmount);\r\n        balanceOf[_account] -= _burnAmount;\r\n        balanceOf[_account] -= _liqAmount;\r\n        balanceOf[_account] -= _disAmount;\r\n\r\n        totalSupply -= _burnAmount;\r\n        balanceOf[liqPool] += _liqAmount;\r\n        balanceOf[disPool] += _disAmount;\r\n        emit Burn(_account, address(0), _burnAmount);\r\n        emit Transfer(msg.sender, liqPool, _liqAmount);\r\n        emit Transfer(msg.sender, disPool, _disAmount);\r\n    }\r\n\r\n\r\n    function updateLPoolAdd(address _newLPool) public onlyOwner {\r\n        require(_newLPool != address(0));\r\n        require(_newLPool != liqPool);\r\n\r\n        liqPool = _newLPool;\r\n    }\r\n\r\n    function updateRPoolAdd(address _newRPool) public onlyOwner {\r\n        require(_newRPool != address(0));\r\n        require(_newRPool != disPool);\r\n\r\n        disPool = _newRPool;\r\n    }\r\n\r\n    function updateBurnPercent(uint256 _newBurnPercent) public onlyOwner {\r\n        require(_newBurnPercent >= 0 && _newBurnPercent <= 100);\r\n        require(_newBurnPercent != burnPercent);\r\n\r\n        burnPercent = _newBurnPercent;\r\n    }\r\n\r\n    function updateLiqPercent(uint256 _newLiqPercent) public onlyOwner {\r\n        require(_newLiqPercent >= 0 && _newLiqPercent <= 100);\r\n        require(_newLiqPercent != liqPercent);\r\n\r\n        liqPercent = _newLiqPercent;\r\n    }\r\n\r\n    function updateDisPercent(uint256 _newDisPercent) public onlyOwner {\r\n        require(_newDisPercent >= 0 && _newDisPercent <= 100);\r\n        require(_newDisPercent != disPercent);\r\n\r\n        disPercent = _newDisPercent;\r\n    }\r\n\r\n    function addAdmin(address newAdmin) public onlyOwner{\r\n        require(newAdmin != address(0));\r\n        require(!isAdmin[newAdmin]);\r\n\r\n        isAdmin[newAdmin] = true;\r\n        admins.push(newAdmin);\r\n    }\r\n\r\n    function removeAdmin(uint index) public onlyOwner returns (address[] memory){\r\n        address removeOwner = admins[index];\r\n        require(index < admins.length);\r\n        require(removeOwner != address(0));\r\n        require(isAdmin[removeOwner]);\r\n        \r\n        for (uint i = index; i<admins.length-1; i++){\r\n            admins[i] = admins[i+1];\r\n        }\r\n        admins.pop();\r\n\r\n        isAdmin[removeOwner] = false;\r\n        return admins;\r\n    }\r\n\r\n    function getAdmins() public view returns (address[] memory) {\r\n        return admins;\r\n    }\r\n    \r\n    function returnAnyToken(address token, uint256 amount, address _to) public onlyOwner{\r\n        require(_to != address(0), \"send to the zero address\");\r\n        ERC20Interface(token).transfer(_to, amount);\r\n    } \r\n\r\n    function pause() public whenNotPaused onlyOwner {\r\n        _pause();\r\n    }\r\n\r\n    function unpause() public whenPaused onlyOwner {\r\n        _unpause();\r\n    }\r\n\r\n    function _authorizeUpgrade(address) internal override onlyOwner {}\r\n\r\n    function initialize(\r\n        address _to,\r\n        address _lPool,\r\n        address _rPool,\r\n        uint256 _burnPercent,\r\n        uint256 _liqPercent,\r\n        uint256 _disPercent\r\n    ) public initializer {\r\n        require(_lPool != address(0));\r\n        require(_rPool != address(0));\r\n        require(_burnPercent >= 0);\r\n        require(_liqPercent >= 0);\r\n        require(_disPercent >= 0);\r\n\r\n        name = \"PURSE Token\";\r\n        symbol = \"PR\";\r\n        totalSupply = 64000000000 * (10**18); // 64 billion tokens\r\n        decimals = 18;\r\n        minimumSupply = 20000 * (10**18);\r\n\r\n        liqPool = _lPool;\r\n        disPool = _rPool;\r\n        burnPercent = _burnPercent;\r\n        liqPercent = _liqPercent;\r\n        disPercent = _disPercent;\r\n        admins = [msg.sender];\r\n        __Pausable_init();\r\n        __Ownable_init();\r\n        __UUPSUpgradeable_init();\r\n\r\n        balanceOf[_to] = totalSupply;\r\n        emit Mint(address(0), _to, totalSupply);\r\n    }\r\n}",
  "sourcePath": "C:/Users/cheek/Desktop/Developer doc/Visual Studio Code/PundiX/YieldFarm_BridgeEthBsc/src/contracts/PurseTokenUpgradableV2.sol",
  "compiler": {
    "name": "solc",
    "version": "0.8.7+commit.e28d00a7.Emscripten.clang"
  },
  "schemaVersion": "3.2.3",
  "updatedAt": "2021-09-16T01:56:00.393Z",
  "networkType": "ethereum",
  "devdoc": {
    "kind": "dev",
    "methods": {
      "owner()": {
        "details": "Returns the address of the current owner."
      },
      "paused()": {
        "details": "Returns true if the contract is paused, and false otherwise."
      },
      "renounceOwnership()": {
        "details": "Leaves the contract without owner. It will not be possible to call `onlyOwner` functions anymore. Can only be called by the current owner. NOTE: Renouncing ownership will leave the contract without an owner, thereby removing any functionality that is only available to the owner."
      },
      "transferOwnership(address)": {
        "details": "Transfers ownership of the contract to a new account (`newOwner`). Can only be called by the current owner."
      },
      "upgradeTo(address)": {
        "details": "Upgrade the implementation of the proxy to `newImplementation`. Calls {_authorizeUpgrade}. Emits an {Upgraded} event."
      },
      "upgradeToAndCall(address,bytes)": {
        "details": "Upgrade the implementation of the proxy to `newImplementation`, and subsequently execute the function call encoded in `data`. Calls {_authorizeUpgrade}. Emits an {Upgraded} event."
      }
    },
    "version": 1
  },
  "userdoc": {
    "kind": "user",
    "methods": {},
    "version": 1
  }
}