{
  "contractName": "PurseDistribution",
  "abi": [
    {
      "inputs": [
        {
          "internalType": "contract PurseTokenUpgradable",
          "name": "_purseToken",
          "type": "address"
        }
      ],
      "stateMutability": "nonpayable",
      "type": "constructor"
    },
    {
      "anonymous": false,
      "inputs": [
        {
          "indexed": true,
          "internalType": "address",
          "name": "sender",
          "type": "address"
        },
        {
          "indexed": false,
          "internalType": "uint256",
          "name": "iteration",
          "type": "uint256"
        }
      ],
      "name": "addHolder",
      "type": "event"
    },
    {
      "anonymous": false,
      "inputs": [
        {
          "indexed": true,
          "internalType": "address",
          "name": "owner",
          "type": "address"
        },
        {
          "indexed": false,
          "internalType": "uint256",
          "name": "amount",
          "type": "uint256"
        },
        {
          "indexed": false,
          "internalType": "uint256",
          "name": "Iteration_End",
          "type": "uint256"
        }
      ],
      "name": "claimAllReward",
      "type": "event"
    },
    {
      "anonymous": false,
      "inputs": [
        {
          "indexed": true,
          "internalType": "address",
          "name": "owner",
          "type": "address"
        },
        {
          "indexed": false,
          "internalType": "uint256",
          "name": "amount",
          "type": "uint256"
        },
        {
          "indexed": true,
          "internalType": "uint256",
          "name": "Iteration",
          "type": "uint256"
        }
      ],
      "name": "claimReward",
      "type": "event"
    },
    {
      "anonymous": false,
      "inputs": [
        {
          "indexed": true,
          "internalType": "address",
          "name": "sender",
          "type": "address"
        },
        {
          "indexed": false,
          "internalType": "uint256",
          "name": "iteration",
          "type": "uint256"
        }
      ],
      "name": "updateHolder",
      "type": "event"
    },
    {
      "inputs": [],
      "name": "endDistribution",
      "outputs": [
        {
          "internalType": "uint256",
          "name": "",
          "type": "uint256"
        }
      ],
      "stateMutability": "view",
      "type": "function",
      "constant": true
    },
    {
      "inputs": [
        {
          "internalType": "address",
          "name": "",
          "type": "address"
        },
        {
          "internalType": "uint256",
          "name": "",
          "type": "uint256"
        }
      ],
      "name": "holder",
      "outputs": [
        {
          "internalType": "uint256",
          "name": "distributeAmount",
          "type": "uint256"
        },
        {
          "internalType": "bool",
          "name": "isRedeem",
          "type": "bool"
        }
      ],
      "stateMutability": "view",
      "type": "function",
      "constant": true
    },
    {
      "inputs": [],
      "name": "isClaimStart",
      "outputs": [
        {
          "internalType": "bool",
          "name": "",
          "type": "bool"
        }
      ],
      "stateMutability": "view",
      "type": "function",
      "constant": true
    },
    {
      "inputs": [
        {
          "internalType": "address",
          "name": "",
          "type": "address"
        }
      ],
      "name": "isOwner",
      "outputs": [
        {
          "internalType": "bool",
          "name": "",
          "type": "bool"
        }
      ],
      "stateMutability": "view",
      "type": "function",
      "constant": true
    },
    {
      "inputs": [],
      "name": "name",
      "outputs": [
        {
          "internalType": "string",
          "name": "",
          "type": "string"
        }
      ],
      "stateMutability": "view",
      "type": "function",
      "constant": true
    },
    {
      "inputs": [
        {
          "internalType": "uint256",
          "name": "",
          "type": "uint256"
        }
      ],
      "name": "numOfHolder",
      "outputs": [
        {
          "internalType": "uint256",
          "name": "",
          "type": "uint256"
        }
      ],
      "stateMutability": "view",
      "type": "function",
      "constant": true
    },
    {
      "inputs": [],
      "name": "owner",
      "outputs": [
        {
          "internalType": "address",
          "name": "",
          "type": "address"
        }
      ],
      "stateMutability": "view",
      "type": "function",
      "constant": true
    },
    {
      "inputs": [],
      "name": "purseToken",
      "outputs": [
        {
          "internalType": "contract PurseTokenUpgradable",
          "name": "",
          "type": "address"
        }
      ],
      "stateMutability": "view",
      "type": "function",
      "constant": true
    },
    {
      "inputs": [],
      "name": "validDuration",
      "outputs": [
        {
          "internalType": "uint256",
          "name": "",
          "type": "uint256"
        }
      ],
      "stateMutability": "view",
      "type": "function",
      "constant": true
    },
    {
      "inputs": [
        {
          "internalType": "address[]",
          "name": "_holder",
          "type": "address[]"
        },
        {
          "internalType": "uint256[]",
          "name": "_amount",
          "type": "uint256[]"
        },
        {
          "internalType": "uint256",
          "name": "iteration",
          "type": "uint256"
        }
      ],
      "name": "addHolderInfo",
      "outputs": [],
      "stateMutability": "nonpayable",
      "type": "function"
    },
    {
      "inputs": [
        {
          "internalType": "address[]",
          "name": "_holder",
          "type": "address[]"
        },
        {
          "internalType": "uint256[]",
          "name": "_amount",
          "type": "uint256[]"
        },
        {
          "internalType": "uint256",
          "name": "iteration",
          "type": "uint256"
        }
      ],
      "name": "updateHolderInfo",
      "outputs": [],
      "stateMutability": "nonpayable",
      "type": "function"
    },
    {
      "inputs": [],
      "name": "startClaim",
      "outputs": [],
      "stateMutability": "nonpayable",
      "type": "function"
    },
    {
      "inputs": [
        {
          "internalType": "address[]",
          "name": "_holder",
          "type": "address[]"
        },
        {
          "internalType": "uint256[]",
          "name": "_amount",
          "type": "uint256[]"
        },
        {
          "internalType": "uint256",
          "name": "iteration",
          "type": "uint256"
        }
      ],
      "name": "checkData",
      "outputs": [
        {
          "internalType": "uint256",
          "name": "",
          "type": "uint256"
        },
        {
          "internalType": "bool",
          "name": "",
          "type": "bool"
        }
      ],
      "stateMutability": "view",
      "type": "function",
      "constant": true
    },
    {
      "inputs": [
        {
          "internalType": "uint256",
          "name": "iteration",
          "type": "uint256"
        }
      ],
      "name": "claim",
      "outputs": [],
      "stateMutability": "nonpayable",
      "type": "function"
    },
    {
      "inputs": [
        {
          "internalType": "uint256",
          "name": "iteration_end",
          "type": "uint256"
        }
      ],
      "name": "claimAll",
      "outputs": [],
      "stateMutability": "nonpayable",
      "type": "function"
    },
    {
      "inputs": [
        {
          "internalType": "address",
          "name": "_to",
          "type": "address"
        }
      ],
      "name": "returnPurseToken",
      "outputs": [],
      "stateMutability": "nonpayable",
      "type": "function"
    },
    {
      "inputs": [
        {
          "internalType": "address",
          "name": "token",
          "type": "address"
        },
        {
          "internalType": "uint256",
          "name": "amount",
          "type": "uint256"
        },
        {
          "internalType": "address",
          "name": "_to",
          "type": "address"
        }
      ],
      "name": "returnAnyToken",
      "outputs": [],
      "stateMutability": "nonpayable",
      "type": "function"
    },
    {
      "inputs": [
        {
          "internalType": "address",
          "name": "_owner",
          "type": "address"
        }
      ],
      "name": "updateOwner",
      "outputs": [],
      "stateMutability": "nonpayable",
      "type": "function"
    }
  ],
  "bytecode": "0x60806040526040518060400160405280601281526020017f507572736520446973747269627574696f6e000000000000000000000000000081525060009080519060200190620000519291906200016d565b503480156200005f57600080fd5b50604051620025db380380620025db833981810160405281019062000085919062000234565b80600160006101000a81548173ffffffffffffffffffffffffffffffffffffffff021916908373ffffffffffffffffffffffffffffffffffffffff1602179055506001600660003373ffffffffffffffffffffffffffffffffffffffff1673ffffffffffffffffffffffffffffffffffffffff16815260200190815260200160002060006101000a81548160ff02191690831515021790555033600260006101000a81548173ffffffffffffffffffffffffffffffffffffffff021916908373ffffffffffffffffffffffffffffffffffffffff160217905550426004819055505062000332565b8280546200017b90620002ae565b90600052602060002090601f0160209004810192826200019f5760008555620001eb565b82601f10620001ba57805160ff1916838001178555620001eb565b82800160010185558215620001eb579182015b82811115620001ea578251825591602001919060010190620001cd565b5b509050620001fa9190620001fe565b5090565b5b8082111562000219576000816000905550600101620001ff565b5090565b6000815190506200022e8162000318565b92915050565b6000602082840312156200024d576200024c62000313565b5b60006200025d848285016200021d565b91505092915050565b600062000273826200028e565b9050919050565b6000620002878262000266565b9050919050565b600073ffffffffffffffffffffffffffffffffffffffff82169050919050565b60006002820490506001821680620002c757607f821691505b60208210811415620002de57620002dd620002e4565b5b50919050565b7f4e487b7100000000000000000000000000000000000000000000000000000000600052602260045260246000fd5b600080fd5b62000323816200027a565b81146200032f57600080fd5b50565b61229980620003426000396000f3fe608060405234801561001057600080fd5b50600436106101165760003560e01c806362da19d4116100a25780638da5cb5b116100715780638da5cb5b146102e1578063c237e326146102ff578063e650d2931461031b578063ecbfc07714610339578063f09de43f1461034357610116565b806362da19d41461025a57806364c761171461028b5780636930fd2a146102a9578063880cdc31146102c557610116565b80632f54bf6e116100e95780632f54bf6e146101a3578063379607f5146101d35780633f594c4f146101ef57806351bf16ef14610220578063603d65a61461023e57610116565b806306fdde031461011b57806319953d68146101395780632948ff41146101555780632d6008e414610173575b600080fd5b61012361035f565b6040516101309190611d3b565b60405180910390f35b610153600480360381019061014e9190611a3b565b6103ed565b005b61015d6106e1565b60405161016a9190611e3d565b60405180910390f35b61018d60048036038101906101889190611afd565b6106e8565b60405161019a9190611e3d565b60405180910390f35b6101bd60048036038101906101b8919061197b565b610700565b6040516101ca9190611d05565b60405180910390f35b6101ed60048036038101906101e89190611afd565b610720565b005b610209600480360381019061020491906119a8565b6109f2565b604051610217929190611e58565b60405180910390f35b610228610a30565b6040516102359190611d20565b60405180910390f35b61025860048036038101906102539190611a3b565b610a56565b005b610274600480360381019061026f9190611a3b565b610d10565b604051610282929190611e58565b60405180910390f35b610293610dee565b6040516102a09190611e3d565b60405180910390f35b6102c360048036038101906102be9190611afd565b610df4565b005b6102df60048036038101906102da919061197b565b61116d565b005b6102e9611396565b6040516102f69190611cc1565b60405180910390f35b610319600480360381019061031491906119e8565b6113bc565b005b61032361154b565b6040516103309190611d05565b60405180910390f35b61034161155e565b005b61035d6004803603810190610358919061197b565b61161c565b005b6000805461036c90611fcd565b80601f016020809104026020016040519081016040528092919081815260200182805461039890611fcd565b80156103e55780601f106103ba576101008083540402835291602001916103e5565b820191906000526020600020905b8154815290600101906020018083116103c857829003601f168201915b505050505081565b600660003373ffffffffffffffffffffffffffffffffffffffff1673ffffffffffffffffffffffffffffffffffffffff16815260200190815260200160002060009054906101000a900460ff16610479576040517f08c379a000000000000000000000000000000000000000000000000000000000815260040161047090611e1d565b60405180910390fd5b60008383905086869050146104c3576040517f08c379a00000000000000000000000000000000000000000000000000000000081526004016104ba90611d5d565b60405180910390fd5b5b8585905081101561068b5760008484838181106104e4576104e36120a6565b5b90506020020135118015610572575060006007600088888581811061050c5761050b6120a6565b5b9050602002016020810190610521919061197b565b73ffffffffffffffffffffffffffffffffffffffff1673ffffffffffffffffffffffffffffffffffffffff168152602001908152602001600020600084815260200190815260200160002060000154145b15610678576040518060400160405280858584818110610595576105946120a6565b5b90506020020135815260200160001515815250600760008888858181106105bf576105be6120a6565b5b90506020020160208101906105d4919061197b565b73ffffffffffffffffffffffffffffffffffffffff1673ffffffffffffffffffffffffffffffffffffffff16815260200190815260200160002060008481526020019081526020016000206000820151816000015560208201518160010160006101000a81548160ff02191690831515021790555090505060016008600084815260200190815260200160002060008282546106709190611ec6565b925050819055505b808061068390611fff565b9150506104c4565b3373ffffffffffffffffffffffffffffffffffffffff167f61f152361c81724040ee7c9387deb92fa0eea588ae5d8bb4695a22fa113c208e836040516106d19190611e3d565b60405180910390a2505050505050565b6277f88081565b60086020528060005260406000206000915090505481565b60066020528060005260406000206000915054906101000a900460ff1681565b60011515600560009054906101000a900460ff1615151461074057600080fd5b6003544210610784576040517f08c379a000000000000000000000000000000000000000000000000000000000815260040161077b90611dbd565b60405180910390fd5b60001515600760003373ffffffffffffffffffffffffffffffffffffffff1673ffffffffffffffffffffffffffffffffffffffff168152602001908152602001600020600083815260200190815260200160002060010160009054906101000a900460ff1615151461082b576040517f08c379a000000000000000000000000000000000000000000000000000000000815260040161082290611ddd565b60405180910390fd5b6001600760003373ffffffffffffffffffffffffffffffffffffffff1673ffffffffffffffffffffffffffffffffffffffff168152602001908152602001600020600083815260200190815260200160002060010160006101000a81548160ff0219169083151502179055506000600760003373ffffffffffffffffffffffffffffffffffffffff1673ffffffffffffffffffffffffffffffffffffffff1681526020019081526020016000206000838152602001908152602001600020600001549050600160009054906101000a900473ffffffffffffffffffffffffffffffffffffffff1673ffffffffffffffffffffffffffffffffffffffff1663a9059cbb33836040518363ffffffff1660e01b815260040161094c929190611cdc565b602060405180830381600087803b15801561096657600080fd5b505af115801561097a573d6000803e3d6000fd5b505050506040513d601f19601f8201168201806040525081019061099e9190611ad0565b50813373ffffffffffffffffffffffffffffffffffffffff167f9d06fc9af1e0d81649eba41f3599f74e3dc8b0881aa0d622585d707fad3ac2a2836040516109e69190611e3d565b60405180910390a35050565b6007602052816000526040600020602052806000526040600020600091509150508060000154908060010160009054906101000a900460ff16905082565b600160009054906101000a900473ffffffffffffffffffffffffffffffffffffffff1681565b600660003373ffffffffffffffffffffffffffffffffffffffff1673ffffffffffffffffffffffffffffffffffffffff16815260200190815260200160002060009054906101000a900460ff16610ae2576040517f08c379a0000000000000000000000000000000000000000000000000000000008152600401610ad990611e1d565b60405180910390fd5b6000838390508686905014610b2c576040517f08c379a0000000000000000000000000000000000000000000000000000000008152600401610b2390611d5d565b60405180910390fd5b5b85859050811015610cba576001151560076000888885818110610b5357610b526120a6565b5b9050602002016020810190610b68919061197b565b73ffffffffffffffffffffffffffffffffffffffff1673ffffffffffffffffffffffffffffffffffffffff168152602001908152602001600020600084815260200190815260200160002060010160009054906101000a900460ff1615151415610bd157610ca7565b6040518060400160405280858584818110610bef57610bee6120a6565b5b9050602002013581526020016000151581525060076000888885818110610c1957610c186120a6565b5b9050602002016020810190610c2e919061197b565b73ffffffffffffffffffffffffffffffffffffffff1673ffffffffffffffffffffffffffffffffffffffff16815260200190815260200160002060008481526020019081526020016000206000820151816000015560208201518160010160006101000a81548160ff0219169083151502179055509050505b8080610cb290611fff565b915050610b2d565b3373ffffffffffffffffffffffffffffffffffffffff167f9e2057e5eb47a9914f114cc7d4b9a13c5f1f81ede19b1abcfd2e4115b7b2fc8383604051610d009190611e3d565b60405180910390a2505050505050565b60008060005b87879050811015610ddb57858582818110610d3457610d336120a6565b5b90506020020135600760008a8a85818110610d5257610d516120a6565b5b9050602002016020810190610d67919061197b565b73ffffffffffffffffffffffffffffffffffffffff1673ffffffffffffffffffffffffffffffffffffffff16815260200190815260200160002060008681526020019081526020016000206000015414610dc8578060009250925050610de4565b8080610dd390611fff565b915050610d16565b80600192509250505b9550959350505050565b60035481565b60011515600560009054906101000a900460ff16151514610e1457600080fd5b6003544210610e58576040517f08c379a0000000000000000000000000000000000000000000000000000000008152600401610e4f90611dbd565b60405180910390fd5b6000805b82811161105e5760001515600760003373ffffffffffffffffffffffffffffffffffffffff1673ffffffffffffffffffffffffffffffffffffffff168152602001908152602001600020600083815260200190815260200160002060010160009054906101000a900460ff161515141561104b5760001515600760003373ffffffffffffffffffffffffffffffffffffffff1673ffffffffffffffffffffffffffffffffffffffff168152602001908152602001600020600083815260200190815260200160002060010160009054906101000a900460ff16151514610f77576040517f08c379a0000000000000000000000000000000000000000000000000000000008152600401610f6e90611ddd565b60405180910390fd5b6001600760003373ffffffffffffffffffffffffffffffffffffffff1673ffffffffffffffffffffffffffffffffffffffff168152602001908152602001600020600083815260200190815260200160002060010160006101000a81548160ff0219169083151502179055506000600760003373ffffffffffffffffffffffffffffffffffffffff1673ffffffffffffffffffffffffffffffffffffffff168152602001908152602001600020600083815260200190815260200160002060000154905080836110479190611ec6565b9250505b808061105690611fff565b915050610e5c565b50600081111561111957600160009054906101000a900473ffffffffffffffffffffffffffffffffffffffff1673ffffffffffffffffffffffffffffffffffffffff1663a9059cbb33836040518363ffffffff1660e01b81526004016110c5929190611cdc565b602060405180830381600087803b1580156110df57600080fd5b505af11580156110f3573d6000803e3d6000fd5b505050506040513d601f19601f820116820180604052508101906111179190611ad0565b505b3373ffffffffffffffffffffffffffffffffffffffff167f984e2f0e1b5ed8ebd9ae70fdcdc7fcd417ee2dcff4f94b89330acd73c2e6a8d18284604051611161929190611e81565b60405180910390a25050565b600660003373ffffffffffffffffffffffffffffffffffffffff1673ffffffffffffffffffffffffffffffffffffffff16815260200190815260200160002060009054906101000a900460ff166111f9576040517f08c379a00000000000000000000000000000000000000000000000000000000081526004016111f090611e1d565b60405180910390fd5b600073ffffffffffffffffffffffffffffffffffffffff168173ffffffffffffffffffffffffffffffffffffffff161415611269576040517f08c379a000000000000000000000000000000000000000000000000000000000815260040161126090611d9d565b60405180910390fd5b600260009054906101000a900473ffffffffffffffffffffffffffffffffffffffff1673ffffffffffffffffffffffffffffffffffffffff168173ffffffffffffffffffffffffffffffffffffffff1614156112fa576040517f08c379a00000000000000000000000000000000000000000000000000000000081526004016112f190611d7d565b60405180910390fd5b6001600660008373ffffffffffffffffffffffffffffffffffffffff1673ffffffffffffffffffffffffffffffffffffffff16815260200190815260200160002060006101000a81548160ff02191690831515021790555080600260006101000a81548173ffffffffffffffffffffffffffffffffffffffff021916908373ffffffffffffffffffffffffffffffffffffffff16021790555050565b600260009054906101000a900473ffffffffffffffffffffffffffffffffffffffff1681565b600660003373ffffffffffffffffffffffffffffffffffffffff1673ffffffffffffffffffffffffffffffffffffffff16815260200190815260200160002060009054906101000a900460ff16611448576040517f08c379a000000000000000000000000000000000000000000000000000000000815260040161143f90611e1d565b60405180910390fd5b600073ffffffffffffffffffffffffffffffffffffffff168173ffffffffffffffffffffffffffffffffffffffff1614156114b8576040517f08c379a00000000000000000000000000000000000000000000000000000000081526004016114af90611dfd565b60405180910390fd5b8273ffffffffffffffffffffffffffffffffffffffff1663a9059cbb82846040518363ffffffff1660e01b81526004016114f3929190611cdc565b602060405180830381600087803b15801561150d57600080fd5b505af1158015611521573d6000803e3d6000fd5b505050506040513d601f19601f820116820180604052508101906115459190611ad0565b50505050565b600560009054906101000a900460ff1681565b600660003373ffffffffffffffffffffffffffffffffffffffff1673ffffffffffffffffffffffffffffffffffffffff16815260200190815260200160002060009054906101000a900460ff166115ea576040517f08c379a00000000000000000000000000000000000000000000000000000000081526004016115e190611e1d565b60405180910390fd5b6277f880426115f99190611ec6565b6003819055506001600560006101000a81548160ff021916908315150217905550565b600660003373ffffffffffffffffffffffffffffffffffffffff1673ffffffffffffffffffffffffffffffffffffffff16815260200190815260200160002060009054906101000a900460ff166116a8576040517f08c379a000000000000000000000000000000000000000000000000000000000815260040161169f90611e1d565b60405180910390fd5b600073ffffffffffffffffffffffffffffffffffffffff168173ffffffffffffffffffffffffffffffffffffffff161415611718576040517f08c379a000000000000000000000000000000000000000000000000000000000815260040161170f90611dfd565b60405180910390fd5b6000600160009054906101000a900473ffffffffffffffffffffffffffffffffffffffff1673ffffffffffffffffffffffffffffffffffffffff166370a08231306040518263ffffffff1660e01b81526004016117759190611cc1565b60206040518083038186803b15801561178d57600080fd5b505afa1580156117a1573d6000803e3d6000fd5b505050506040513d601f19601f820116820180604052508101906117c59190611b2a565b9050600160009054906101000a900473ffffffffffffffffffffffffffffffffffffffff1673ffffffffffffffffffffffffffffffffffffffff1663a9059cbb83836040518363ffffffff1660e01b8152600401611824929190611cdc565b602060405180830381600087803b15801561183e57600080fd5b505af1158015611852573d6000803e3d6000fd5b505050506040513d601f19601f820116820180604052508101906118769190611ad0565b505050565b60008135905061188a8161221e565b92915050565b60008083601f8401126118a6576118a56120da565b5b8235905067ffffffffffffffff8111156118c3576118c26120d5565b5b6020830191508360208202830111156118df576118de6120df565b5b9250929050565b60008083601f8401126118fc576118fb6120da565b5b8235905067ffffffffffffffff811115611919576119186120d5565b5b602083019150836020820283011115611935576119346120df565b5b9250929050565b60008151905061194b81612235565b92915050565b6000813590506119608161224c565b92915050565b6000815190506119758161224c565b92915050565b600060208284031215611991576119906120e9565b5b600061199f8482850161187b565b91505092915050565b600080604083850312156119bf576119be6120e9565b5b60006119cd8582860161187b565b92505060206119de85828601611951565b9150509250929050565b600080600060608486031215611a0157611a006120e9565b5b6000611a0f8682870161187b565b9350506020611a2086828701611951565b9250506040611a318682870161187b565b9150509250925092565b600080600080600060608688031215611a5757611a566120e9565b5b600086013567ffffffffffffffff811115611a7557611a746120e4565b5b611a8188828901611890565b9550955050602086013567ffffffffffffffff811115611aa457611aa36120e4565b5b611ab0888289016118e6565b93509350506040611ac388828901611951565b9150509295509295909350565b600060208284031215611ae657611ae56120e9565b5b6000611af48482850161193c565b91505092915050565b600060208284031215611b1357611b126120e9565b5b6000611b2184828501611951565b91505092915050565b600060208284031215611b4057611b3f6120e9565b5b6000611b4e84828501611966565b91505092915050565b611b6081611f1c565b82525050565b611b6f81611f2e565b82525050565b611b7e81611f64565b82525050565b6000611b8f82611eaa565b611b998185611eb5565b9350611ba9818560208601611f9a565b611bb2816120ee565b840191505092915050565b6000611bca601183611eb5565b9150611bd5826120ff565b602082019050919050565b6000611bed601283611eb5565b9150611bf882612128565b602082019050919050565b6000611c10601183611eb5565b9150611c1b82612151565b602082019050919050565b6000611c33601883611eb5565b9150611c3e8261217a565b602082019050919050565b6000611c56601083611eb5565b9150611c61826121a3565b602082019050919050565b6000611c79601883611eb5565b9150611c84826121cc565b602082019050919050565b6000611c9c600983611eb5565b9150611ca7826121f5565b602082019050919050565b611cbb81611f5a565b82525050565b6000602082019050611cd66000830184611b57565b92915050565b6000604082019050611cf16000830185611b57565b611cfe6020830184611cb2565b9392505050565b6000602082019050611d1a6000830184611b66565b92915050565b6000602082019050611d356000830184611b75565b92915050565b60006020820190508181036000830152611d558184611b84565b905092915050565b60006020820190508181036000830152611d7681611bbd565b9050919050565b60006020820190508181036000830152611d9681611be0565b9050919050565b60006020820190508181036000830152611db681611c03565b9050919050565b60006020820190508181036000830152611dd681611c26565b9050919050565b60006020820190508181036000830152611df681611c49565b9050919050565b60006020820190508181036000830152611e1681611c6c565b9050919050565b60006020820190508181036000830152611e3681611c8f565b9050919050565b6000602082019050611e526000830184611cb2565b92915050565b6000604082019050611e6d6000830185611cb2565b611e7a6020830184611b66565b9392505050565b6000604082019050611e966000830185611cb2565b611ea36020830184611cb2565b9392505050565b600081519050919050565b600082825260208201905092915050565b6000611ed182611f5a565b9150611edc83611f5a565b9250827fffffffffffffffffffffffffffffffffffffffffffffffffffffffffffffffff03821115611f1157611f10612048565b5b828201905092915050565b6000611f2782611f3a565b9050919050565b60008115159050919050565b600073ffffffffffffffffffffffffffffffffffffffff82169050919050565b6000819050919050565b6000611f6f82611f76565b9050919050565b6000611f8182611f88565b9050919050565b6000611f9382611f3a565b9050919050565b60005b83811015611fb8578082015181840152602081019050611f9d565b83811115611fc7576000848401525b50505050565b60006002820490506001821680611fe557607f821691505b60208210811415611ff957611ff8612077565b5b50919050565b600061200a82611f5a565b91507fffffffffffffffffffffffffffffffffffffffffffffffffffffffffffffffff82141561203d5761203c612048565b5b600182019050919050565b7f4e487b7100000000000000000000000000000000000000000000000000000000600052601160045260246000fd5b7f4e487b7100000000000000000000000000000000000000000000000000000000600052602260045260246000fd5b7f4e487b7100000000000000000000000000000000000000000000000000000000600052603260045260246000fd5b600080fd5b600080fd5b600080fd5b600080fd5b600080fd5b6000601f19601f8301169050919050565b7f6c656e67746820646966666572656e6365000000000000000000000000000000600082015250565b7f73616d65206f776e657220616464726573730000000000000000000000000000600082015250565b7f6e6f742076616c69642061646472657373000000000000000000000000000000600082015250565b7f446973747269627574696f6e2077696e646f77206f7665720000000000000000600082015250565b7f68617665206265656e2072656465656d00000000000000000000000000000000600082015250565b7f73656e6420746f20746865207a65726f20616464726573730000000000000000600082015250565b7f6e6f74206f776e65720000000000000000000000000000000000000000000000600082015250565b61222781611f1c565b811461223257600080fd5b50565b61223e81611f2e565b811461224957600080fd5b50565b61225581611f5a565b811461226057600080fd5b5056fea2646970667358221220db61778b5756c57fe819e38ca6fefff4c80064d061b674c4b154eaa223fff58d64736f6c63430008070033",
  "immutableReferences": {},
  "source": "// SPDX-License-Identifier: UNLICENSED\r\n\r\npragma solidity ^0.8.0;\r\n\r\nimport \"./PurseTokenUpgradable.sol\";\r\n\r\ncontract PurseDistribution {\r\n    event claimReward(address indexed owner, uint256 amount, uint256 indexed Iteration);\r\n    event claimAllReward(address indexed owner, uint256 amount, uint256 Iteration_End);\r\n    event addHolder(address indexed sender, uint256 iteration);\r\n    event updateHolder(address indexed sender, uint256 iteration);\r\n    \r\n    string public name = \"Purse Distribution\";\r\n    PurseTokenUpgradable public purseToken;\r\n    address public owner;\r\n    uint256 public constant validDuration = 91 days;\r\n    uint256 public endDistribution;\r\n    uint256 internal distributionStart;\r\n    bool public isClaimStart;\r\n    mapping(address => bool) public isOwner;\r\n    mapping(address => mapping(uint256 => holderInfo)) public holder;   //address->index   \r\n    mapping(uint256 => uint256) public numOfHolder;\r\n\r\n    struct holderInfo {\r\n        uint256 distributeAmount;\r\n        bool isRedeem;\r\n    }\r\n    \r\n    modifier onlyOwner() {\r\n        require(isOwner[msg.sender], \"not owner\");\r\n        _;\r\n    }\r\n\r\n    constructor(PurseTokenUpgradable _purseToken) {\r\n        purseToken = _purseToken;\r\n        isOwner[msg.sender] = true;\r\n        owner = msg.sender;\r\n        distributionStart = block.timestamp;\r\n    }\r\n\r\n    function addHolderInfo(address[] calldata _holder, uint256[] calldata _amount , uint256 iteration) public onlyOwner {\r\n        uint256 i = 0;\r\n        require(_holder.length == _amount.length, \"length difference\");\r\n        for (i; i < _holder.length; i++) {\r\n            if (_amount[i] > 0 && holder[_holder[i]][iteration].distributeAmount == 0) {\r\n                holder[_holder[i]][iteration] = holderInfo(_amount[i], false);\r\n                numOfHolder[iteration] += 1;\r\n            }\r\n        }\r\n        emit addHolder(msg.sender, iteration);\r\n    }\r\n\r\n    function updateHolderInfo(address[] calldata _holder, uint256[] calldata _amount , uint256 iteration) public onlyOwner {\r\n        uint256 i = 0;\r\n        require(_holder.length == _amount.length, \"length difference\");\r\n        for (i; i < _holder.length; i++) {\r\n            if (holder[_holder[i]][iteration].isRedeem == true) {\r\n                continue;\r\n            }\r\n            holder[_holder[i]][iteration] = holderInfo(_amount[i], false);\r\n        }\r\n        emit updateHolder(msg.sender, iteration);\r\n    }\r\n\r\n    function startClaim() public onlyOwner {\r\n        endDistribution = block.timestamp + validDuration;\r\n        isClaimStart = true;\r\n    }\r\n\r\n    function checkData(address[] calldata _holder, uint256[] calldata _amount, uint256 iteration) public view returns (uint256, bool) {\r\n        uint256 i = 0;\r\n        for (i; i < _holder.length; i++) {\r\n            if (holder[_holder[i]][iteration].distributeAmount != _amount[i]) {\r\n                return (i, false);\r\n            }\r\n        }\r\n        return (i, true);        \r\n    }\r\n\r\n    // Notice Transfers tokens held by timelock to beneficiary.\r\n    function claim(uint256 iteration) public {\r\n        require (isClaimStart == true);\r\n        require(block.timestamp < endDistribution, \"Distribution window over\");\r\n        require(holder[msg.sender][iteration].isRedeem == false, 'have been redeem');\r\n\r\n        holder[msg.sender][iteration].isRedeem = true;\r\n        uint256 claimAmount = holder[msg.sender][iteration].distributeAmount;\r\n        purseToken.transfer(msg.sender, claimAmount);\r\n        emit claimReward(msg.sender, claimAmount, iteration);\r\n    }\r\n\r\n    function claimAll(uint256 iteration_end) public {\r\n        require (isClaimStart == true);\r\n        require(block.timestamp < endDistribution, \"Distribution window over\");\r\n        uint256 claimAmount = 0;\r\n        for (uint256 i = 0; i <= iteration_end; i++) {\r\n                if (holder[msg.sender][i].isRedeem == false) {\r\n                    require(holder[msg.sender][i].isRedeem == false, 'have been redeem');\r\n                    holder[msg.sender][i].isRedeem = true;\r\n                    uint256 holderAmount = holder[msg.sender][i].distributeAmount;\r\n                    claimAmount += holderAmount;                    \r\n                }\r\n        }\r\n        if (claimAmount > 0) {\r\n            purseToken.transfer(msg.sender, claimAmount);\r\n        }\r\n        emit claimAllReward(msg.sender, claimAmount, iteration_end);\r\n    }\r\n    \r\n    function returnPurseToken(address _to) public onlyOwner {\r\n        require(_to != address(0), \"send to the zero address\");\r\n        uint256 remainingAmount = purseToken.balanceOf(address(this));\r\n        purseToken.transfer(_to, remainingAmount);\r\n    }\r\n\r\n    function returnAnyToken(address token, uint256 amount, address _to) public onlyOwner{\r\n        require(_to != address(0), \"send to the zero address\");\r\n        ERC20Interface(token).transfer(_to, amount);\r\n    } \r\n\r\n    function updateOwner(address _owner) public onlyOwner{\r\n        require(_owner != address(0), \"not valid address\");\r\n        require(_owner != owner, \"same owner address\");\r\n        isOwner[_owner] = true;\r\n        owner = _owner;\r\n    } \r\n}\r\n",
  "sourcePath": "C:/Users/cheek/Desktop/Developer doc/Visual Studio Code/PundiX/YieldFarm_BridgeEthBsc/src/contracts/PurseDistribution.sol",
  "compiler": {
    "name": "solc",
    "version": "0.8.7+commit.e28d00a7.Emscripten.clang"
  },
  "schemaVersion": "3.2.3",
  "updatedAt": "2021-09-15T19:19:26.606Z",
  "networkType": "ethereum",
  "devdoc": {
    "kind": "dev",
    "methods": {},
    "version": 1
  },
  "userdoc": {
    "kind": "user",
    "methods": {},
    "version": 1
  }
}