{
  "contractName": "PurseTokenUpgradable",
  "abi": [
    {
      "anonymous": false,
      "inputs": [
        {
          "indexed": false,
          "internalType": "address",
          "name": "previousAdmin",
          "type": "address"
        },
        {
          "indexed": false,
          "internalType": "address",
          "name": "newAdmin",
          "type": "address"
        }
      ],
      "name": "AdminChanged",
      "type": "event"
    },
    {
      "anonymous": false,
      "inputs": [
        {
          "indexed": true,
          "internalType": "address",
          "name": "_owner",
          "type": "address"
        },
        {
          "indexed": true,
          "internalType": "address",
          "name": "_spender",
          "type": "address"
        },
        {
          "indexed": false,
          "internalType": "uint256",
          "name": "_value",
          "type": "uint256"
        }
      ],
      "name": "Approval",
      "type": "event"
    },
    {
      "anonymous": false,
      "inputs": [
        {
          "indexed": true,
          "internalType": "address",
          "name": "beacon",
          "type": "address"
        }
      ],
      "name": "BeaconUpgraded",
      "type": "event"
    },
    {
      "anonymous": false,
      "inputs": [
        {
          "indexed": true,
          "internalType": "address",
          "name": "_from",
          "type": "address"
        },
        {
          "indexed": false,
          "internalType": "uint256",
          "name": "_value",
          "type": "uint256"
        }
      ],
      "name": "Burn",
      "type": "event"
    },
    {
      "anonymous": false,
      "inputs": [
        {
          "indexed": true,
          "internalType": "address",
          "name": "_from",
          "type": "address"
        },
        {
          "indexed": true,
          "internalType": "address",
          "name": "_to",
          "type": "address"
        },
        {
          "indexed": false,
          "internalType": "uint256",
          "name": "_value",
          "type": "uint256"
        }
      ],
      "name": "Mint",
      "type": "event"
    },
    {
      "anonymous": false,
      "inputs": [
        {
          "indexed": true,
          "internalType": "address",
          "name": "previousOwner",
          "type": "address"
        },
        {
          "indexed": true,
          "internalType": "address",
          "name": "newOwner",
          "type": "address"
        }
      ],
      "name": "OwnershipTransferred",
      "type": "event"
    },
    {
      "anonymous": false,
      "inputs": [
        {
          "indexed": false,
          "internalType": "address",
          "name": "account",
          "type": "address"
        }
      ],
      "name": "Paused",
      "type": "event"
    },
    {
      "anonymous": false,
      "inputs": [
        {
          "indexed": true,
          "internalType": "address",
          "name": "_from",
          "type": "address"
        },
        {
          "indexed": true,
          "internalType": "address",
          "name": "_to",
          "type": "address"
        },
        {
          "indexed": false,
          "internalType": "uint256",
          "name": "_value",
          "type": "uint256"
        }
      ],
      "name": "Transfer",
      "type": "event"
    },
    {
      "anonymous": false,
      "inputs": [
        {
          "indexed": false,
          "internalType": "address",
          "name": "account",
          "type": "address"
        }
      ],
      "name": "Unpaused",
      "type": "event"
    },
    {
      "anonymous": false,
      "inputs": [
        {
          "indexed": true,
          "internalType": "address",
          "name": "implementation",
          "type": "address"
        }
      ],
      "name": "Upgraded",
      "type": "event"
    },
    {
      "inputs": [],
      "name": "_averageInterval",
      "outputs": [
        {
          "internalType": "uint256",
          "name": "",
          "type": "uint256"
        }
      ],
      "stateMutability": "view",
      "type": "function",
      "constant": true
    },
    {
      "inputs": [],
      "name": "_getRewardEndTime",
      "outputs": [
        {
          "internalType": "uint256",
          "name": "",
          "type": "uint256"
        }
      ],
      "stateMutability": "view",
      "type": "function",
      "constant": true
    },
    {
      "inputs": [],
      "name": "_getRewardStartTime",
      "outputs": [
        {
          "internalType": "uint256",
          "name": "",
          "type": "uint256"
        }
      ],
      "stateMutability": "view",
      "type": "function",
      "constant": true
    },
    {
      "inputs": [],
      "name": "_lastRewardStartTime",
      "outputs": [
        {
          "internalType": "uint256",
          "name": "",
          "type": "uint256"
        }
      ],
      "stateMutability": "view",
      "type": "function",
      "constant": true
    },
    {
      "inputs": [],
      "name": "_monthlyDistributePr",
      "outputs": [
        {
          "internalType": "uint256",
          "name": "",
          "type": "uint256"
        }
      ],
      "stateMutability": "view",
      "type": "function",
      "constant": true
    },
    {
      "inputs": [],
      "name": "_numOfDaysPerMth",
      "outputs": [
        {
          "internalType": "uint256",
          "name": "",
          "type": "uint256"
        }
      ],
      "stateMutability": "view",
      "type": "function",
      "constant": true
    },
    {
      "inputs": [],
      "name": "_percentageDistribute",
      "outputs": [
        {
          "internalType": "uint256",
          "name": "",
          "type": "uint256"
        }
      ],
      "stateMutability": "view",
      "type": "function",
      "constant": true
    },
    {
      "inputs": [],
      "name": "_totalSupply",
      "outputs": [
        {
          "internalType": "uint256",
          "name": "",
          "type": "uint256"
        }
      ],
      "stateMutability": "view",
      "type": "function",
      "constant": true
    },
    {
      "inputs": [
        {
          "internalType": "address",
          "name": "",
          "type": "address"
        }
      ],
      "name": "accAmount",
      "outputs": [
        {
          "internalType": "uint256",
          "name": "amount",
          "type": "uint256"
        },
        {
          "internalType": "uint256",
          "name": "accReward",
          "type": "uint256"
        },
        {
          "internalType": "uint256",
          "name": "lastUpdateTime",
          "type": "uint256"
        }
      ],
      "stateMutability": "view",
      "type": "function",
      "constant": true
    },
    {
      "inputs": [
        {
          "internalType": "uint256",
          "name": "",
          "type": "uint256"
        }
      ],
      "name": "admins",
      "outputs": [
        {
          "internalType": "address",
          "name": "",
          "type": "address"
        }
      ],
      "stateMutability": "view",
      "type": "function",
      "constant": true
    },
    {
      "inputs": [
        {
          "internalType": "address",
          "name": "",
          "type": "address"
        },
        {
          "internalType": "address",
          "name": "",
          "type": "address"
        }
      ],
      "name": "allowance",
      "outputs": [
        {
          "internalType": "uint256",
          "name": "",
          "type": "uint256"
        }
      ],
      "stateMutability": "view",
      "type": "function",
      "constant": true
    },
    {
      "inputs": [
        {
          "internalType": "address",
          "name": "",
          "type": "address"
        }
      ],
      "name": "balanceOf",
      "outputs": [
        {
          "internalType": "uint256",
          "name": "",
          "type": "uint256"
        }
      ],
      "stateMutability": "view",
      "type": "function",
      "constant": true
    },
    {
      "inputs": [],
      "name": "burnPercent",
      "outputs": [
        {
          "internalType": "uint256",
          "name": "",
          "type": "uint256"
        }
      ],
      "stateMutability": "view",
      "type": "function",
      "constant": true
    },
    {
      "inputs": [],
      "name": "decimals",
      "outputs": [
        {
          "internalType": "uint8",
          "name": "",
          "type": "uint8"
        }
      ],
      "stateMutability": "view",
      "type": "function",
      "constant": true
    },
    {
      "inputs": [],
      "name": "disPercent",
      "outputs": [
        {
          "internalType": "uint256",
          "name": "",
          "type": "uint256"
        }
      ],
      "stateMutability": "view",
      "type": "function",
      "constant": true
    },
    {
      "inputs": [],
      "name": "disPool",
      "outputs": [
        {
          "internalType": "address",
          "name": "",
          "type": "address"
        }
      ],
      "stateMutability": "view",
      "type": "function",
      "constant": true
    },
    {
      "inputs": [
        {
          "internalType": "address",
          "name": "",
          "type": "address"
        }
      ],
      "name": "isAdmin",
      "outputs": [
        {
          "internalType": "bool",
          "name": "",
          "type": "bool"
        }
      ],
      "stateMutability": "view",
      "type": "function",
      "constant": true
    },
    {
      "inputs": [
        {
          "internalType": "address",
          "name": "",
          "type": "address"
        }
      ],
      "name": "isWhitelistedFrom",
      "outputs": [
        {
          "internalType": "bool",
          "name": "",
          "type": "bool"
        }
      ],
      "stateMutability": "view",
      "type": "function",
      "constant": true
    },
    {
      "inputs": [
        {
          "internalType": "address",
          "name": "",
          "type": "address"
        }
      ],
      "name": "isWhitelistedTo",
      "outputs": [
        {
          "internalType": "bool",
          "name": "",
          "type": "bool"
        }
      ],
      "stateMutability": "view",
      "type": "function",
      "constant": true
    },
    {
      "inputs": [],
      "name": "liqPercent",
      "outputs": [
        {
          "internalType": "uint256",
          "name": "",
          "type": "uint256"
        }
      ],
      "stateMutability": "view",
      "type": "function",
      "constant": true
    },
    {
      "inputs": [],
      "name": "liqPool",
      "outputs": [
        {
          "internalType": "address",
          "name": "",
          "type": "address"
        }
      ],
      "stateMutability": "view",
      "type": "function",
      "constant": true
    },
    {
      "inputs": [],
      "name": "name",
      "outputs": [
        {
          "internalType": "string",
          "name": "",
          "type": "string"
        }
      ],
      "stateMutability": "view",
      "type": "function",
      "constant": true
    },
    {
      "inputs": [],
      "name": "owner",
      "outputs": [
        {
          "internalType": "address",
          "name": "",
          "type": "address"
        }
      ],
      "stateMutability": "view",
      "type": "function",
      "constant": true
    },
    {
      "inputs": [],
      "name": "paused",
      "outputs": [
        {
          "internalType": "bool",
          "name": "",
          "type": "bool"
        }
      ],
      "stateMutability": "view",
      "type": "function",
      "constant": true
    },
    {
      "inputs": [],
      "name": "renounceOwnership",
      "outputs": [],
      "stateMutability": "nonpayable",
      "type": "function"
    },
    {
      "inputs": [],
      "name": "symbol",
      "outputs": [
        {
          "internalType": "string",
          "name": "",
          "type": "string"
        }
      ],
      "stateMutability": "view",
      "type": "function",
      "constant": true
    },
    {
      "inputs": [],
      "name": "totalSupply",
      "outputs": [
        {
          "internalType": "uint256",
          "name": "",
          "type": "uint256"
        }
      ],
      "stateMutability": "view",
      "type": "function",
      "constant": true
    },
    {
      "inputs": [
        {
          "internalType": "address",
          "name": "newOwner",
          "type": "address"
        }
      ],
      "name": "transferOwnership",
      "outputs": [],
      "stateMutability": "nonpayable",
      "type": "function"
    },
    {
      "inputs": [
        {
          "internalType": "address",
          "name": "newImplementation",
          "type": "address"
        }
      ],
      "name": "upgradeTo",
      "outputs": [],
      "stateMutability": "nonpayable",
      "type": "function"
    },
    {
      "inputs": [
        {
          "internalType": "address",
          "name": "newImplementation",
          "type": "address"
        },
        {
          "internalType": "bytes",
          "name": "data",
          "type": "bytes"
        }
      ],
      "name": "upgradeToAndCall",
      "outputs": [],
      "stateMutability": "payable",
      "type": "function",
      "payable": true
    },
    {
      "inputs": [
        {
          "internalType": "address",
          "name": "_to",
          "type": "address"
        },
        {
          "internalType": "uint256",
          "name": "_value",
          "type": "uint256"
        }
      ],
      "name": "transfer",
      "outputs": [
        {
          "internalType": "bool",
          "name": "success",
          "type": "bool"
        }
      ],
      "stateMutability": "nonpayable",
      "type": "function"
    },
    {
      "inputs": [
        {
          "internalType": "address",
          "name": "_spender",
          "type": "address"
        },
        {
          "internalType": "uint256",
          "name": "_value",
          "type": "uint256"
        }
      ],
      "name": "approve",
      "outputs": [
        {
          "internalType": "bool",
          "name": "success",
          "type": "bool"
        }
      ],
      "stateMutability": "nonpayable",
      "type": "function"
    },
    {
      "inputs": [
        {
          "internalType": "address",
          "name": "_from",
          "type": "address"
        },
        {
          "internalType": "address",
          "name": "_to",
          "type": "address"
        },
        {
          "internalType": "uint256",
          "name": "_value",
          "type": "uint256"
        }
      ],
      "name": "transferFrom",
      "outputs": [
        {
          "internalType": "bool",
          "name": "success",
          "type": "bool"
        }
      ],
      "stateMutability": "nonpayable",
      "type": "function"
    },
    {
      "inputs": [
        {
          "internalType": "address",
          "name": "_account",
          "type": "address"
        },
        {
          "internalType": "uint256",
          "name": "_amount",
          "type": "uint256"
        }
      ],
      "name": "mint",
      "outputs": [],
      "stateMutability": "nonpayable",
      "type": "function"
    },
    {
      "inputs": [
        {
          "internalType": "uint256",
          "name": "_amount",
          "type": "uint256"
        }
      ],
      "name": "burn",
      "outputs": [],
      "stateMutability": "nonpayable",
      "type": "function"
    },
    {
      "inputs": [],
      "name": "claimDistributionPurse",
      "outputs": [
        {
          "internalType": "bool",
          "name": "success",
          "type": "bool"
        }
      ],
      "stateMutability": "nonpayable",
      "type": "function"
    },
    {
      "inputs": [
        {
          "internalType": "uint256",
          "name": "_rewardStartTime",
          "type": "uint256"
        },
        {
          "internalType": "uint256",
          "name": "_rewardEndTime",
          "type": "uint256"
        },
        {
          "internalType": "uint256",
          "name": "_monthlyDisPr",
          "type": "uint256"
        },
        {
          "internalType": "uint256",
          "name": "_numOfDays",
          "type": "uint256"
        },
        {
          "internalType": "uint256",
          "name": "_percentage",
          "type": "uint256"
        }
      ],
      "name": "activateClaimMonthly",
      "outputs": [],
      "stateMutability": "nonpayable",
      "type": "function"
    },
    {
      "inputs": [
        {
          "internalType": "address",
          "name": "_newLPool",
          "type": "address"
        }
      ],
      "name": "updateLPoolAdd",
      "outputs": [],
      "stateMutability": "nonpayable",
      "type": "function"
    },
    {
      "inputs": [
        {
          "internalType": "address",
          "name": "_newDPool",
          "type": "address"
        }
      ],
      "name": "updateDPoolAdd",
      "outputs": [],
      "stateMutability": "nonpayable",
      "type": "function"
    },
    {
      "inputs": [
        {
          "internalType": "uint256",
          "name": "_newDisPercent",
          "type": "uint256"
        },
        {
          "internalType": "uint256",
          "name": "_newLiqPercent",
          "type": "uint256"
        },
        {
          "internalType": "uint256",
          "name": "_newBurnPercent",
          "type": "uint256"
        }
      ],
      "name": "updatePercent",
      "outputs": [],
      "stateMutability": "nonpayable",
      "type": "function"
    },
    {
      "inputs": [
        {
          "internalType": "address",
          "name": "newAdmin",
          "type": "address"
        }
      ],
      "name": "addAdmin",
      "outputs": [],
      "stateMutability": "nonpayable",
      "type": "function"
    },
    {
      "inputs": [
        {
          "internalType": "uint256",
          "name": "index",
          "type": "uint256"
        }
      ],
      "name": "removeAdmin",
      "outputs": [
        {
          "internalType": "address[]",
          "name": "",
          "type": "address[]"
        }
      ],
      "stateMutability": "nonpayable",
      "type": "function"
    },
    {
      "inputs": [
        {
          "internalType": "address",
          "name": "token",
          "type": "address"
        },
        {
          "internalType": "uint256",
          "name": "amount",
          "type": "uint256"
        },
        {
          "internalType": "address",
          "name": "_to",
          "type": "address"
        }
      ],
      "name": "transferERCToken",
      "outputs": [],
      "stateMutability": "nonpayable",
      "type": "function"
    },
    {
      "inputs": [],
      "name": "pause",
      "outputs": [],
      "stateMutability": "nonpayable",
      "type": "function"
    },
    {
      "inputs": [],
      "name": "unpause",
      "outputs": [],
      "stateMutability": "nonpayable",
      "type": "function"
    },
    {
      "inputs": [
        {
          "internalType": "address",
          "name": "newWhitelist",
          "type": "address"
        }
      ],
      "name": "setWhitelistedTo",
      "outputs": [],
      "stateMutability": "nonpayable",
      "type": "function"
    },
    {
      "inputs": [
        {
          "internalType": "address",
          "name": "newWhitelist",
          "type": "address"
        }
      ],
      "name": "removeWhitelistedTo",
      "outputs": [],
      "stateMutability": "nonpayable",
      "type": "function"
    },
    {
      "inputs": [
        {
          "internalType": "address",
          "name": "newWhitelist",
          "type": "address"
        }
      ],
      "name": "setWhitelistedFrom",
      "outputs": [],
      "stateMutability": "nonpayable",
      "type": "function"
    },
    {
      "inputs": [
        {
          "internalType": "address",
          "name": "newWhitelist",
          "type": "address"
        }
      ],
      "name": "removeWhitelistedFrom",
      "outputs": [],
      "stateMutability": "nonpayable",
      "type": "function"
    },
    {
      "inputs": [
        {
          "internalType": "address",
          "name": "_to",
          "type": "address"
        },
        {
          "internalType": "address",
          "name": "_lPool",
          "type": "address"
        },
        {
          "internalType": "uint256",
          "name": "_burnPercent",
          "type": "uint256"
        },
        {
          "internalType": "uint256",
          "name": "_liqPercent",
          "type": "uint256"
        },
        {
          "internalType": "uint256",
          "name": "_disPercent",
          "type": "uint256"
        }
      ],
      "name": "initialize",
      "outputs": [],
      "stateMutability": "nonpayable",
      "type": "function"
    }
  ],
  "bytecode": "0x608060405234801561001057600080fd5b506133e6806100206000396000f3fe6080604052600436106102c95760003560e01c80635c975abb11610175578063b7c74bd3116100dc578063d13f90b411610095578063dd62ed3e1161006f578063dd62ed3e146108a6578063e2657da1146108df578063f2fde38b146108ff578063f75672441461091f57600080fd5b8063d13f90b41461084f578063d55292041461086f578063d5b8ddf81461088657600080fd5b8063b7c74bd314610758578063bab38440146107b0578063bc8d571d146107d0578063c43c082f146107e7578063c6ef924614610807578063ca04d2d81461081e57600080fd5b80638456cb591161012e5780638456cb59146106ac5780638da5cb5b146106c157806395d89b41146106df57806395e96ff1146106f4578063a9059cbb1461070b578063ad7bbc291461072b57600080fd5b80635c975abb146105f9578063704802751461061157806370a0823114610631578063715018a61461065f578063740b91f4146106745780637888f7b21461069557600080fd5b8063347d34c61161023457806340c10f19116101ed5780634d28b4ba116101c75780634d28b4ba1461057e5780634f1ef2861461059e5780635422e495146105b15780635b014029146105c857600080fd5b806340c10f191461051e57806342966c681461053e578063434f92371461055e57600080fd5b8063347d34c61461047957806335e8b82e146104905780633659cfe6146104b25780633838d4e3146104d25780633eaaf86b146104f25780633f4ba83a1461050957600080fd5b806318160ddd1161028657806318160ddd146103ae57806320b1e78a146103c457806323b872dd146103db57806324d7806c146103fb57806327ba6e111461042c578063313ce5671461044d57600080fd5b806303807ee5146102ce57806306fdde03146102f8578063095ea7b31461031a5780630f4307e21461034a57806311a6c16c1461036157806314bfd6d014610376575b600080fd5b3480156102da57600080fd5b506102e56101035481565b6040519081526020015b60405180910390f35b34801561030457600080fd5b5061030d61093f565b6040516102ef919061313f565b34801561032657600080fd5b5061033a610335366004612fce565b6109cd565b60405190151581526020016102ef565b34801561035657600080fd5b506102e561010a5481565b34801561036d57600080fd5b5061033a610a67565b34801561038257600080fd5b50610396610391366004613056565b610c25565b6040516001600160a01b0390911681526020016102ef565b3480156103ba57600080fd5b506102e560fd5481565b3480156103d057600080fd5b506102e561010b5481565b3480156103e757600080fd5b5061033a6103f6366004612e83565b610c50565b34801561040757600080fd5b5061033a610416366004612e35565b6101106020526000908152604090205460ff1681565b34801561043857600080fd5b5061010254610396906001600160a01b031681565b34801561045957600080fd5b5060fe546104679060ff1681565b60405160ff90911681526020016102ef565b34801561048557600080fd5b506102e56101065481565b34801561049c57600080fd5b506104b06104ab366004612e35565b610eef565b005b3480156104be57600080fd5b506104b06104cd366004612e35565b610f58565b3480156104de57600080fd5b506104b06104ed366004612e35565b610f7f565b3480156104fe57600080fd5b506102e561010d5481565b34801561051557600080fd5b506104b0610ff5565b34801561052a57600080fd5b506104b0610539366004612fce565b611072565b34801561054a57600080fd5b506104b0610559366004613056565b61115b565b34801561056a57600080fd5b506104b061057936600461309b565b611225565b34801561058a57600080fd5b506104b0610599366004612e35565b6112af565b6104b06105ac366004612f0c565b611321565b3480156105bd57600080fd5b506102e56101045481565b3480156105d457600080fd5b5061033a6105e3366004612e35565b6101116020526000908152604090205460ff1681565b34801561060557600080fd5b5060975460ff1661033a565b34801561061d57600080fd5b506104b061062c366004612e35565b61133a565b34801561063d57600080fd5b506102e561064c366004612e35565b61010e6020526000908152604090205481565b34801561066b57600080fd5b506104b06113f3565b34801561068057600080fd5b5061010154610396906001600160a01b031681565b3480156106a157600080fd5b506102e561010c5481565b3480156106b857600080fd5b506104b0611427565b3480156106cd57600080fd5b5060c9546001600160a01b0316610396565b3480156106eb57600080fd5b5061030d61147c565b34801561070057600080fd5b506102e56101095481565b34801561071757600080fd5b5061033a610726366004612fce565b611489565b34801561073757600080fd5b5061074b610746366004613056565b611647565b6040516102ef91906130f2565b34801561076457600080fd5b50610795610773366004612e35565b6101136020526000908152604090208054600182015460029092015490919083565b604080519384526020840192909252908201526060016102ef565b3480156107bc57600080fd5b506104b06107cb366004612e35565b61182c565b3480156107dc57600080fd5b506102e56101085481565b3480156107f357600080fd5b506104b061080236600461306f565b611895565b34801561081357600080fd5b506102e56101055481565b34801561082a57600080fd5b5061033a610839366004612e35565b6101126020526000908152604090205460ff1681565b34801561085b57600080fd5b506104b061086a366004612ebf565b61192e565b34801561087b57600080fd5b506102e56101075481565b34801561089257600080fd5b506104b06108a1366004612ff8565b611b2f565b3480156108b257600080fd5b506102e56108c1366004612e50565b61010f60209081526000928352604080842090915290825290205481565b3480156108eb57600080fd5b506104b06108fa366004612e35565b611c37565b34801561090b57600080fd5b506104b061091a366004612e35565b611ca9565b34801561092b57600080fd5b506104b061093a366004612e35565b611d41565b60fb805461094c906132bb565b80601f0160208091040260200160405190810160405280929190818152602001828054610978906132bb565b80156109c55780601f1061099a576101008083540402835291602001916109c5565b820191906000526020600020905b8154815290600101906020018083116109a857829003601f168201915b505050505081565b60006109db60975460ff1690565b15610a015760405162461bcd60e51b81526004016109f890613172565b60405180910390fd5b33600081815261010f602090815260408083206001600160a01b03881680855290835292819020869055518581529192917f8c5be1e5ebec7d5bd14f71427d1e84f3dd0314c0f7b2291e5b200ac8c7c3b925910160405180910390a35060015b92915050565b6000610a7560975460ff1690565b15610a925760405162461bcd60e51b81526004016109f890613172565b610107544210610aa157600080fd5b610108544211610ab057600080fd5b61010854336000908152610113602052604081206002015490911115610b6e57610ad933611db7565b6101095461010d5461010b5461010a54336000908152610113602052604090205461271094939291610b0a91613259565b610b149190613259565b610b1f906064613259565b610b299190613237565b610b339190613237565b610b3d9190613237565b61010854336000818152610113602052604081206002810193909355909155909150610b699042611dc0565b610ba5565b3360009081526101136020526040902060010154610b8b57600080fd5b503360009081526101136020526040812060010180549190555b60405163a9059cbb60e01b815233600482015260248101829052309063a9059cbb90604401602060405180830381600087803b158015610be457600080fd5b505af1158015610bf8573d6000803e3d6000fd5b505050506040513d601f19601f82011682018060405250810190610c1c9190613034565b50600191505090565b6101008181548110610c3657600080fd5b6000918252602090912001546001600160a01b0316905081565b6000610c5e60975460ff1690565b15610c7b5760405162461bcd60e51b81526004016109f890613172565b6001600160a01b038416600090815261010e6020526040902054821115610ca157600080fd5b6001600160a01b038416600090815261010f60209081526040808320338452909152902054821115610cd257600080fd5b6001600160a01b0383166000908152610111602052604090205460ff1680610d0a5750336000908152610112602052604090205460ff165b15610df4576001600160a01b038416600090815261010f6020908152604080832033845290915281208054849290610d43908490613278565b90915550610d539050848461229a565b6001600160a01b038416600090815261010e602052604081208054849290610d7c908490613278565b90915550506001600160a01b038316600090815261010e602052604081208054849290610daa90849061321f565b92505081905550826001600160a01b0316846001600160a01b031660008051602061339183398151915284604051610de491815260200190565b60405180910390a3506001610ee8565b6001600160a01b038416600090815261010f6020908152604080832033845290915281208054849290610e28908490613278565b90915550610e389050848461229a565b6000610e4483866122ae565b6001600160a01b038616600090815261010e6020526040812080549293508392909190610e72908490613278565b90915550506001600160a01b038416600090815261010e602052604081208054839290610ea090849061321f565b92505081905550836001600160a01b0316856001600160a01b031660008051602061339183398151915283604051610eda91815260200190565b60405180910390a360019150505b9392505050565b60c9546001600160a01b03163314610f195760405162461bcd60e51b81526004016109f8906131ea565b610101546001600160a01b0382811691161415610f3557600080fd5b61010180546001600160a01b0319166001600160a01b0392909216919091179055565b610f61816122fb565b610f7c81604051806020016040528060008152506000612325565b50565b60c9546001600160a01b03163314610fa95760405162461bcd60e51b81526004016109f8906131ea565b6001600160a01b0381166000908152610112602052604090205460ff1615610fd057600080fd5b6001600160a01b0316600090815261011260205260409020805460ff19166001179055565b60975460ff1661103e5760405162461bcd60e51b815260206004820152601460248201527314185d5cd8589b194e881b9bdd081c185d5cd95960621b60448201526064016109f8565b60c9546001600160a01b031633146110685760405162461bcd60e51b81526004016109f8906131ea565b6110706124a6565b565b60975460ff16156110955760405162461bcd60e51b81526004016109f890613172565b336000908152610110602052604090205460ff166110b257600080fd5b6001600160a01b0382166110c557600080fd5b6110cf8242611dc0565b6001600160a01b038216600090815261010e6020526040812080548392906110f890849061321f565b925050819055508060fd6000828254611111919061321f565b90915550506040518181526001600160a01b038316906000907fab8530f87dc9b59234c4623bf917212bb2536d647574c8e7e5da92c2ede0c9f89060200160405180910390a35050565b60975460ff161561117e5760405162461bcd60e51b81526004016109f890613172565b8061118857600080fd5b33600090815261010e60205260409020548111156111a557600080fd5b6111af3342611dc0565b33600090815261010e6020526040812080548392906111cf908490613278565b925050819055508060fd60008282546111e89190613278565b909155505060405181815233907fcc16f5dbb4873280815c1ee09dbd06736cffcc184412cf7a71a0fdb75d397ca59060200160405180910390a250565b60c9546001600160a01b0316331461124f5760405162461bcd60e51b81526004016109f8906131ea565b42851161125b57600080fd5b84841161126757600080fd5b6000821161127457600080fd5b6000811161128157600080fd5b60fd5461010d55610108805461010c55610109929092559390556101079190915561010b9190915561010a55565b60c9546001600160a01b031633146112d95760405162461bcd60e51b81526004016109f8906131ea565b6001600160a01b0381166000908152610112602052604090205460ff166112ff57600080fd5b6001600160a01b0316600090815261011260205260409020805460ff19169055565b61132a826122fb565b61133682826001612325565b5050565b60c9546001600160a01b031633146113645760405162461bcd60e51b81526004016109f8906131ea565b6001600160a01b0381166000908152610110602052604090205460ff161561138b57600080fd5b6001600160a01b0316600081815261011060205260408120805460ff19166001908117909155610100805491820181559091527f45e010b9ae401e2eb71529478da8bd513a9bdc2d095a111e324f5b95c09ed87b0180546001600160a01b0319169091179055565b60c9546001600160a01b0316331461141d5760405162461bcd60e51b81526004016109f8906131ea565b6110706000612539565b60975460ff161561144a5760405162461bcd60e51b81526004016109f890613172565b60c9546001600160a01b031633146114745760405162461bcd60e51b81526004016109f8906131ea565b61107061258b565b60fc805461094c906132bb565b600061149760975460ff1690565b156114b45760405162461bcd60e51b81526004016109f890613172565b33600090815261010e60205260409020548211156114d157600080fd5b6001600160a01b0383166000908152610111602052604090205460ff16806115095750336000908152610112602052604090205460ff165b156115a157611518338461229a565b33600090815261010e602052604081208054849290611538908490613278565b90915550506001600160a01b038316600090815261010e60205260408120805484929061156690849061321f565b90915550506040518281526001600160a01b0384169033906000805160206133918339815191529060200160405180910390a3506001610a61565b6115ab338461229a565b60006115b783336122ae565b33600090815261010e60205260408120805492935083929091906115dc908490613278565b90915550506001600160a01b038416600090815261010e60205260408120805483929061160a90849061321f565b90915550506040518181526001600160a01b0385169033906000805160206133918339815191529060200160405180910390a36001915050610a61565b60c9546060906001600160a01b031633146116745760405162461bcd60e51b81526004016109f8906131ea565b6000610100838154811061168a5761168a61333d565b600091825260209091200154610100546001600160a01b03909116915083106116b257600080fd5b6001600160a01b0381166000908152610110602052604090205460ff166116d857600080fd5b825b610100546116ea90600190613278565b811015611777576101006116ff82600161321f565b8154811061170f5761170f61333d565b60009182526020909120015461010080546001600160a01b03909216918390811061173c5761173c61333d565b600091825260209091200180546001600160a01b0319166001600160a01b03929092169190911790558061176f816132f6565b9150506116da565b5061010080548061178a5761178a613327565b60008281526020808220830160001990810180546001600160a01b03191690559092019092556001600160a01b03831682526101108152604091829020805460ff191690556101008054835181840281018401909452808452909183018282801561181e57602002820191906000526020600020905b81546001600160a01b03168152600190910190602001808311611800575b50505050509150505b919050565b60c9546001600160a01b031633146118565760405162461bcd60e51b81526004016109f8906131ea565b610102546001600160a01b038281169116141561187257600080fd5b61010280546001600160a01b0319166001600160a01b0392909216919091179055565b60c9546001600160a01b031633146118bf5760405162461bcd60e51b81526004016109f8906131ea565b606483111580156118ce575060015b80156118db575060648211155b80156118e5575060015b80156118f2575060648111155b6118fb57600080fd5b606481611908848661321f565b611912919061321f565b111561191d57600080fd5b610105929092556101045561010355565b600054610100900460ff1680611947575060005460ff16155b6119635760405162461bcd60e51b81526004016109f89061319c565b600054610100900460ff16158015611985576000805461ffff19166101011790555b6001600160a01b03851661199857600080fd5b60408051808201909152600b8082526a282aa929a2902a37b5b2b760a91b60209092019182526119ca9160fb91612d30565b5060408051808201909152600580825264505552534560d81b60209092019182526119f79160fc91612d30565b506bcecb8f27f4200f3a0000000060fd5560fe805460ff1916601217905569043c33c193756480000060ff5561010180546001600160a01b0387166001600160a01b0319918216179091556101028054909116301790556101038490556101048390556101058290556040805160208101909152338152611a7d90610100906001612db4565b506201518061010655611a8e6125e3565b611a9661265e565b611a9e6126c5565b60fd546001600160a01b038716600090815261010e6020526040902055611ac58642611dc0565b856001600160a01b031660006001600160a01b03167fab8530f87dc9b59234c4623bf917212bb2536d647574c8e7e5da92c2ede0c9f860fd54604051611b0d91815260200190565b60405180910390a38015611b27576000805461ff00191690555b505050505050565b60975460ff1615611b525760405162461bcd60e51b81526004016109f890613172565b60c9546001600160a01b03163314611b7c5760405162461bcd60e51b81526004016109f8906131ea565b6001600160a01b038116611b8f57600080fd5b6001600160a01b038316301415611baa57611baa308261229a565b60405163a9059cbb60e01b81526001600160a01b0382811660048301526024820184905284169063a9059cbb90604401602060405180830381600087803b158015611bf457600080fd5b505af1158015611c08573d6000803e3d6000fd5b505050506040513d601f19601f82011682018060405250810190611c2c9190613034565b50505050565b505050565b60c9546001600160a01b03163314611c615760405162461bcd60e51b81526004016109f8906131ea565b6001600160a01b0381166000908152610111602052604090205460ff16611c8757600080fd5b6001600160a01b0316600090815261011160205260409020805460ff19169055565b60c9546001600160a01b03163314611cd35760405162461bcd60e51b81526004016109f8906131ea565b6001600160a01b038116611d385760405162461bcd60e51b815260206004820152602660248201527f4f776e61626c653a206e6577206f776e657220697320746865207a65726f206160448201526564647265737360d01b60648201526084016109f8565b610f7c81612539565b60c9546001600160a01b03163314611d6b5760405162461bcd60e51b81526004016109f8906131ea565b6001600160a01b0381166000908152610111602052604090205460ff1615611d9257600080fd5b6001600160a01b0316600090815261011160205260409020805460ff19166001179055565b610f7c81610108545b6001600160a01b03821660009081526101136020526040902060020154611e02576001600160a01b039190911660009081526101136020526040902060020155565b61010854421015611fac5761010c546001600160a01b038316600090815261011360205260409020600201541015611ec05760006101065461010c5483611e499190613278565b611e539190613237565b6001600160a01b038416600090815261010e602052604081205491925090611e7c908390613259565b9050611e8b8262015180613259565b61010c54611e99919061321f565b6001600160a01b038516600090815261011360205260409020600281019190915555505050565b610106546001600160a01b03831660009081526101136020526040812060020154909190611eee9084613278565b611ef89190613237565b905060018110611c32576001600160a01b038316600090815261010e6020526040812054611f27908390613259565b9050611f368262015180613259565b6001600160a01b0385166000908152610113602052604081206002018054909190611f6290849061321f565b90915550506001600160a01b03841660009081526101136020526040902054611f8c90829061321f565b6001600160a01b0385166000908152610113602052604090205550505050565b6101085442106113365761010c546001600160a01b0383166000908152610113602052604090206002015410156120cb5760006101065461010c5461010854611ff59190613278565b611fff9190613237565b6001600160a01b038416600090815261010e602052604081205491925090612028908390613259565b6001600160a01b038516600090815261011360205260408120556101095461010d5461010b5461010a54939450612710936120639086613259565b61206d9190613259565b612078906064613259565b6120829190613237565b61208c9190613237565b6120969190613237565b6001600160a01b038516600090815261011360205260409020600181019190915561010854600290910155611c2c8442611dc0565b61010c546001600160a01b03831660009081526101136020526040902060020154108015906121185750610108546001600160a01b03831660009081526101136020526040902060020154105b15611ec057610106546001600160a01b038316600090815261011360205260408120600201546101085491929161214f9190613278565b6121599190613237565b90506001811061225b576001600160a01b038316600090815261010e6020526040812054612188908390613259565b6001600160a01b03851660009081526101136020526040812054919250906121b190839061321f565b6001600160a01b038616600090815261011360205260408120556101095461010d5461010b5461010a54939450612710936121ec9086613259565b6121f69190613259565b612201906064613259565b61220b9190613237565b6122159190613237565b61221f9190613237565b6001600160a01b0386166000908152610113602052604090206001810191909155610108546002909101556122548542611dc0565b5050505050565b6001600160a01b03831660009081526101136020526040812080549190556101095461010d5461010b5461010a54612710939291906120639086613259565b6122a48242611dc0565b6113368142611dc0565b6000808080806122bd8761272c565b919450925090506122d0868484846127c7565b80826122dc858a613278565b6122e69190613278565b6122f09190613278565b979650505050505050565b60c9546001600160a01b03163314610f7c5760405162461bcd60e51b81526004016109f8906131ea565b60006123587f360894a13ba1a3210667c828492db98dca3e2076cc3735a920a3ca505d382bbc546001600160a01b031690565b9050612363846129e8565b6000835111806123705750815b156123815761237f8484612a8d565b505b7f4910fdfa16fed3260ed0e7147f7cc6da11a60208b5b9406d12a635614ffd9143805460ff1661225457805460ff191660011781556040516001600160a01b038316602482015261240090869060440160408051601f198184030181529190526020810180516001600160e01b0316631b2ce7f360e11b179052612a8d565b50805460ff191681557f360894a13ba1a3210667c828492db98dca3e2076cc3735a920a3ca505d382bbc546001600160a01b0383811691161461249d5760405162461bcd60e51b815260206004820152602f60248201527f45524331393637557067726164653a207570677261646520627265616b73206660448201526e75727468657220757067726164657360881b60648201526084016109f8565b61225485612b78565b60975460ff166124ef5760405162461bcd60e51b815260206004820152601460248201527314185d5cd8589b194e881b9bdd081c185d5cd95960621b60448201526064016109f8565b6097805460ff191690557f5db9ee0a495bf2e6ff9c91a7834c1ba4fdd244a5e8aa4e537bd38aeae4b073aa335b6040516001600160a01b03909116815260200160405180910390a1565b60c980546001600160a01b038381166001600160a01b0319831681179093556040519116919082907f8be0079c531659141344cd1fd0a4f28419497f9722a3daafe3b4186f6b6457e090600090a35050565b60975460ff16156125ae5760405162461bcd60e51b81526004016109f890613172565b6097805460ff191660011790557f62e78cea01bee320cd4e420270b5ea74000d11b0c9f74754ebdbfc544b05a25861251c3390565b600054610100900460ff16806125fc575060005460ff16155b6126185760405162461bcd60e51b81526004016109f89061319c565b600054610100900460ff1615801561263a576000805461ffff19166101011790555b612642612bb8565b61264a612c22565b8015610f7c576000805461ff001916905550565b600054610100900460ff1680612677575060005460ff16155b6126935760405162461bcd60e51b81526004016109f89061319c565b600054610100900460ff161580156126b5576000805461ffff19166101011790555b6126bd612bb8565b61264a612c97565b600054610100900460ff16806126de575060005460ff16155b6126fa5760405162461bcd60e51b81526004016109f89061319c565b600054610100900460ff1615801561271c576000805461ffff19166101011790555b612724612bb8565b61264a612bb8565b60008060008060008060ff5460fd5411156127ba57606461010354886127529190613259565b61275c9190613237565b92506064610104548861276f9190613259565b6127799190613237565b91506064610105548861278c9190613259565b6127969190613237565b9050600060ff5460fd546127aa9190613278565b9050808411156127b8578093505b505b9196909550909350915050565b6001600160a01b0384166127da57600080fd5b6001600160a01b038416600090815261010e60205260408120549082612800858761321f565b61280a919061321f565b90508082101561281957600080fd5b6001600160a01b038616600090815261010e602052604081208054879290612842908490613278565b90915550506001600160a01b038616600090815261010e602052604081208054869290612870908490613278565b90915550506001600160a01b038616600090815261010e60205260408120805485929061289e908490613278565b925050819055508460fd60008282546128b79190613278565b909155505061010254610101546128da916001600160a01b03908116911661229a565b610101546001600160a01b0316600090815261010e60205260408120805486929061290690849061321f565b9091555050610102546001600160a01b0316600090815261010e60205260408120805485929061293790849061321f565b90915550506040518581526001600160a01b038716907fcc16f5dbb4873280815c1ee09dbd06736cffcc184412cf7a71a0fdb75d397ca59060200160405180910390a2610101546040518581526001600160a01b039091169033906000805160206133918339815191529060200160405180910390a3610102546040518481526001600160a01b039091169033906000805160206133918339815191529060200160405180910390a3505050505050565b803b612a4c5760405162461bcd60e51b815260206004820152602d60248201527f455243313936373a206e657720696d706c656d656e746174696f6e206973206e60448201526c1bdd08184818dbdb9d1c9858dd609a1b60648201526084016109f8565b7f360894a13ba1a3210667c828492db98dca3e2076cc3735a920a3ca505d382bbc80546001600160a01b0319166001600160a01b0392909216919091179055565b6060823b612aec5760405162461bcd60e51b815260206004820152602660248201527f416464726573733a2064656c65676174652063616c6c20746f206e6f6e2d636f6044820152651b9d1c9858dd60d21b60648201526084016109f8565b600080846001600160a01b031684604051612b0791906130d6565b600060405180830381855af49150503d8060008114612b42576040519150601f19603f3d011682016040523d82523d6000602084013e612b47565b606091505b5091509150612b6f828260405180606001604052806027815260200161336a60279139612cf7565b95945050505050565b612b81816129e8565b6040516001600160a01b038216907fbc7cd75a20ee27fd9adebab32041f755214dbc6bffa90cc0225b39da2e5c2d3b90600090a250565b600054610100900460ff1680612bd1575060005460ff16155b612bed5760405162461bcd60e51b81526004016109f89061319c565b600054610100900460ff1615801561264a576000805461ffff19166101011790558015610f7c576000805461ff001916905550565b600054610100900460ff1680612c3b575060005460ff16155b612c575760405162461bcd60e51b81526004016109f89061319c565b600054610100900460ff16158015612c79576000805461ffff19166101011790555b6097805460ff191690558015610f7c576000805461ff001916905550565b600054610100900460ff1680612cb0575060005460ff16155b612ccc5760405162461bcd60e51b81526004016109f89061319c565b600054610100900460ff16158015612cee576000805461ffff19166101011790555b61264a33612539565b60608315612d06575081610ee8565b825115612d165782518084602001fd5b8160405162461bcd60e51b81526004016109f8919061313f565b828054612d3c906132bb565b90600052602060002090601f016020900481019282612d5e5760008555612da4565b82601f10612d7757805160ff1916838001178555612da4565b82800160010185558215612da4579182015b82811115612da4578251825591602001919060010190612d89565b50612db0929150612e09565b5090565b828054828255906000526020600020908101928215612da4579160200282015b82811115612da457825182546001600160a01b0319166001600160a01b03909116178255602090920191600190910190612dd4565b5b80821115612db05760008155600101612e0a565b80356001600160a01b038116811461182757600080fd5b600060208284031215612e4757600080fd5b610ee882612e1e565b60008060408385031215612e6357600080fd5b612e6c83612e1e565b9150612e7a60208401612e1e565b90509250929050565b600080600060608486031215612e9857600080fd5b612ea184612e1e565b9250612eaf60208501612e1e565b9150604084013590509250925092565b600080600080600060a08688031215612ed757600080fd5b612ee086612e1e565b9450612eee60208701612e1e565b94979496505050506040830135926060810135926080909101359150565b60008060408385031215612f1f57600080fd5b612f2883612e1e565b9150602083013567ffffffffffffffff80821115612f4557600080fd5b818501915085601f830112612f5957600080fd5b813581811115612f6b57612f6b613353565b604051601f8201601f19908116603f01168101908382118183101715612f9357612f93613353565b81604052828152886020848701011115612fac57600080fd5b8260208601602083013760006020848301015280955050505050509250929050565b60008060408385031215612fe157600080fd5b612fea83612e1e565b946020939093013593505050565b60008060006060848603121561300d57600080fd5b61301684612e1e565b92506020840135915061302b60408501612e1e565b90509250925092565b60006020828403121561304657600080fd5b81518015158114610ee857600080fd5b60006020828403121561306857600080fd5b5035919050565b60008060006060848603121561308457600080fd5b505081359360208301359350604090920135919050565b600080600080600060a086880312156130b357600080fd5b505083359560208501359550604085013594606081013594506080013592509050565b600082516130e881846020870161328f565b9190910192915050565b6020808252825182820181905260009190848201906040850190845b818110156131335783516001600160a01b03168352928401929184019160010161310e565b50909695505050505050565b602081526000825180602084015261315e81604085016020870161328f565b601f01601f19169190910160400192915050565b60208082526010908201526f14185d5cd8589b194e881c185d5cd95960821b604082015260600190565b6020808252602e908201527f496e697469616c697a61626c653a20636f6e747261637420697320616c72656160408201526d191e481a5b9a5d1a585b1a5e995960921b606082015260800190565b6020808252818101527f4f776e61626c653a2063616c6c6572206973206e6f7420746865206f776e6572604082015260600190565b6000821982111561323257613232613311565b500190565b60008261325457634e487b7160e01b600052601260045260246000fd5b500490565b600081600019048311821515161561327357613273613311565b500290565b60008282101561328a5761328a613311565b500390565b60005b838110156132aa578181015183820152602001613292565b83811115611c2c5750506000910152565b600181811c908216806132cf57607f821691505b602082108114156132f057634e487b7160e01b600052602260045260246000fd5b50919050565b600060001982141561330a5761330a613311565b5060010190565b634e487b7160e01b600052601160045260246000fd5b634e487b7160e01b600052603160045260246000fd5b634e487b7160e01b600052603260045260246000fd5b634e487b7160e01b600052604160045260246000fdfe416464726573733a206c6f772d6c6576656c2064656c65676174652063616c6c206661696c6564ddf252ad1be2c89b69c2b068fc378daa952ba7f163c4a11628f55a4df523b3efa26469706673582212206bfc2a1106b98ae9d915c253d2bff8839e007472dda99bb85e00a6fe9d7822e064736f6c63430008070033",
  "immutableReferences": {},
  "source": "// SPDX-License-Identifier: UNLICENSED\r\n\r\npragma solidity ^0.8.0;\r\n\r\nimport \"@openzeppelin/contracts-upgradeable/proxy/utils/Initializable.sol\";\r\nimport \"@openzeppelin/contracts-upgradeable/proxy/utils/UUPSUpgradeable.sol\";\r\nimport \"@openzeppelin/contracts-upgradeable/security/PausableUpgradeable.sol\";\r\nimport \"@openzeppelin/contracts-upgradeable/access/OwnableUpgradeable.sol\";\r\n\r\nabstract contract ERC20Interface {\r\n\r\n    function transfer(address to, uint tokens) public virtual returns (bool success);\r\n\r\n    function transferFrom(address from, address to, uint tokens) public virtual returns (bool success);\r\n\r\n}\r\n\r\ncontract PurseTokenUpgradable is Initializable, UUPSUpgradeable, PausableUpgradeable, OwnableUpgradeable {\r\n\r\n    string public name;\r\n    string public symbol;\r\n    uint256 public totalSupply;\r\n    uint8 public decimals;\r\n    uint256 private minimumSupply;\r\n    address[] public admins;\r\n    address public liqPool;\r\n    address public disPool;\r\n    uint256 public burnPercent;\r\n    uint256 public liqPercent;\r\n    uint256 public disPercent;\r\n    \r\n    uint256 public _averageInterval;\r\n    uint256 public _getRewardEndTime;\r\n    uint256 public _getRewardStartTime;\r\n    uint256 public _numOfDaysPerMth;\r\n    uint256 public _monthlyDistributePr;\r\n    uint256 public _percentageDistribute;\r\n    uint256 public _lastRewardStartTime;\r\n    uint256 public _totalSupply;\r\n\r\n    mapping(address => uint256) public balanceOf;\r\n    mapping(address => mapping(address => uint256)) public allowance;\r\n    mapping(address => bool) public isAdmin;\r\n    mapping(address => bool) public isWhitelistedTo;\r\n    mapping(address => bool) public isWhitelistedFrom;\r\n    mapping(address => AccAmount) public accAmount;\r\n\r\n    struct AccAmount {\r\n        uint256 amount;\r\n        uint256 accReward;\r\n        uint256 lastUpdateTime;\r\n    }\r\n\r\n    event Transfer(address indexed _from, address indexed _to, uint256 _value);\r\n    event Burn(address indexed _from, uint256 _value);\r\n    event Mint(address indexed _from, address indexed _to, uint256 _value);\r\n    event Approval(address indexed _owner, address indexed _spender, uint256 _value);\r\n\r\n    modifier onlyAdmin() {\r\n        require(isAdmin[msg.sender]);\r\n        _;\r\n    }\r\n\r\n    function transfer(address _to, uint256 _value) public whenNotPaused returns (bool success)\r\n    {\r\n        require(_value >= 0);\r\n        require(balanceOf[msg.sender] >= _value);\r\n        if (isWhitelistedTo[_to] || isWhitelistedFrom[msg.sender]) {\r\n            updateAccumulateBalanceTransaction(msg.sender, _to); \r\n            balanceOf[msg.sender] -= _value;\r\n            balanceOf[_to] += _value;\r\n            \r\n           \r\n            emit Transfer(msg.sender, _to, _value);\r\n            return true;\r\n        } else {\r\n            updateAccumulateBalanceTransaction(msg.sender, _to);\r\n            uint256 transferValue = _partialBurn(_value, msg.sender);\r\n            balanceOf[msg.sender] -= transferValue;\r\n            balanceOf[_to] += transferValue;\r\n            \r\n\r\n            emit Transfer(msg.sender, _to, transferValue);\r\n            return true;\r\n        }\r\n    }\r\n    \r\n    function approve(address _spender, uint256 _value) public whenNotPaused returns (bool success)\r\n    {\r\n        allowance[msg.sender][_spender] = _value;\r\n        emit Approval(msg.sender, _spender, _value);\r\n        return true;\r\n    }\r\n\r\n    function transferFrom(address _from, address _to, uint256 _value) public whenNotPaused returns (bool success) {\r\n        require(_value >= 0);\r\n        require(_value <= balanceOf[_from]);\r\n        require(_value <= allowance[_from][msg.sender]);\r\n        if (isWhitelistedTo[_to] || isWhitelistedFrom[msg.sender]) {\r\n            allowance[_from][msg.sender] -= _value;\r\n            updateAccumulateBalanceTransaction(_from, _to);\r\n            balanceOf[_from] -= _value;\r\n            balanceOf[_to] += _value;\r\n            \r\n            emit Transfer(_from, _to, _value);\r\n            return true;\r\n        } else {\r\n            allowance[_from][msg.sender] -= _value;\r\n            updateAccumulateBalanceTransaction(_from, _to);\r\n            uint256 transferValue = _partialBurn(_value, _from);\r\n            balanceOf[_from] -= transferValue;\r\n            balanceOf[_to] += transferValue;\r\n\r\n            emit Transfer(_from, _to, transferValue);\r\n            return true;\r\n        }\r\n    }\r\n\r\n    function mint(address _account, uint256 _amount) public whenNotPaused onlyAdmin {\r\n        require(_account != address(0));\r\n        updateAccumulateBalance(_account, block.timestamp); \r\n        balanceOf[_account] += _amount;\r\n\r\n        totalSupply += _amount;\r\n        emit Mint(address(0), _account, _amount);\r\n    }\r\n\r\n    function burn(uint256 _amount) public whenNotPaused {\r\n        require(_amount != 0);\r\n        require(balanceOf[msg.sender] >= _amount);\r\n        updateAccumulateBalance(msg.sender, block.timestamp); \r\n        balanceOf[msg.sender] -= _amount;\r\n        totalSupply -= _amount;\r\n        emit Burn(msg.sender, _amount);\r\n    }\r\n    \r\n    function updateAccumulateBalance(address _holder, uint256 _updateTime) private {\r\n        if (accAmount[_holder].lastUpdateTime == 0) {\r\n            accAmount[_holder].lastUpdateTime = _updateTime;\r\n        } \r\n        else if (block.timestamp < _getRewardStartTime) {\r\n            if (accAmount[_holder].lastUpdateTime < _lastRewardStartTime) {\r\n                uint256 interval = (_updateTime - _lastRewardStartTime)/ _averageInterval;\r\n                uint256 accumulateAmount = balanceOf[_holder] * interval;\r\n                accAmount[_holder].lastUpdateTime = _lastRewardStartTime + (interval * 86400);\r\n                accAmount[_holder].amount = accumulateAmount;            \r\n            } \r\n            else {\r\n            uint256 interval = (_updateTime - accAmount[_holder].lastUpdateTime)/ _averageInterval;\r\n                if (interval >= 1) {\r\n                    uint256 accumulateAmount = balanceOf[_holder] * interval;\r\n                    accAmount[_holder].lastUpdateTime += (interval * 86400);\r\n                    accAmount[_holder].amount = accAmount[_holder].amount + accumulateAmount;                     \r\n                }\r\n            }\r\n        } \r\n        else if(block.timestamp >= _getRewardStartTime) {\r\n            if (accAmount[_holder].lastUpdateTime < _lastRewardStartTime) {\r\n                uint256 interval = (_getRewardStartTime - _lastRewardStartTime)/ _averageInterval;\r\n                uint256 lastmonthAccAmount = balanceOf[_holder] * interval;\r\n                accAmount[_holder].amount = 0;\r\n                accAmount[_holder].accReward = lastmonthAccAmount * _monthlyDistributePr * _percentageDistribute * 100 / _totalSupply / _numOfDaysPerMth / 10000;\r\n                accAmount[_holder].lastUpdateTime = _getRewardStartTime;\r\n                updateAccumulateBalance(_holder, block.timestamp);\r\n            } \r\n            else if (accAmount[_holder].lastUpdateTime >= _lastRewardStartTime && accAmount[_holder].lastUpdateTime < _getRewardStartTime) {\r\n                uint256 interval = (_getRewardStartTime - accAmount[_holder].lastUpdateTime)/ _averageInterval;\r\n                if (interval >= 1) {\r\n                    uint256 accumulateAmount = balanceOf[_holder] * interval;\r\n                    uint256 lastmonthAccAmount = accAmount[_holder].amount + accumulateAmount; \r\n                    accAmount[_holder].amount = 0;\r\n                    accAmount[_holder].accReward = lastmonthAccAmount * _monthlyDistributePr * _percentageDistribute * 100 / _totalSupply / _numOfDaysPerMth / 10000;\r\n                    accAmount[_holder].lastUpdateTime = _getRewardStartTime;\r\n                    updateAccumulateBalance(_holder, block.timestamp);\r\n                } \r\n                else {\r\n                    uint256 lastmonthAccAmount = accAmount[_holder].amount;\r\n                    accAmount[_holder].amount = 0;\r\n                    accAmount[_holder].accReward = lastmonthAccAmount * _monthlyDistributePr * _percentageDistribute * 100 / _totalSupply / _numOfDaysPerMth / 10000;\r\n                    accAmount[_holder].lastUpdateTime = _getRewardStartTime;\r\n                    updateAccumulateBalance(_holder, block.timestamp);\r\n                }\r\n            } \r\n            else {\r\n                uint256 interval = (_updateTime - accAmount[_holder].lastUpdateTime)/ _averageInterval;\r\n                if (interval >= 1) {\r\n                    uint256 accumulateAmount = balanceOf[_holder] * interval;\r\n                    accAmount[_holder].lastUpdateTime += (interval * 86400);\r\n                    accAmount[_holder].amount = accAmount[_holder].amount + accumulateAmount;                     \r\n                }\r\n            }\r\n        }\r\n    }\r\n    \r\n    \r\n    \r\n    function updateAccumulateBalanceTransaction(address _from, address _to) private {\r\n        updateAccumulateBalance(_from, block.timestamp);\r\n        updateAccumulateBalance(_to, block.timestamp);\r\n    }\r\n    \r\n    function updateAccumulateBalanceClaim(address _holder) private {\r\n        updateAccumulateBalance(_holder, _getRewardStartTime);\r\n    }\r\n\r\n    function claimDistributionPurse() public whenNotPaused returns(bool success) {\r\n        require(block.timestamp < _getRewardEndTime);\r\n        require(block.timestamp > _getRewardStartTime);\r\n        uint256 claimAmount;\r\n        if (accAmount[msg.sender].lastUpdateTime < _getRewardStartTime) {\r\n            updateAccumulateBalanceClaim(msg.sender);\r\n    \r\n            claimAmount = accAmount[msg.sender].amount * _monthlyDistributePr * _percentageDistribute * 100 / _totalSupply / _numOfDaysPerMth / 10000;\r\n\r\n            accAmount[msg.sender].lastUpdateTime = _getRewardStartTime;\r\n            accAmount[msg.sender].amount = 0;\r\n            updateAccumulateBalance(msg.sender, block.timestamp);            \r\n        } else {\r\n            require(accAmount[msg.sender].accReward > 0);\r\n            claimAmount = accAmount[msg.sender].accReward;\r\n            accAmount[msg.sender].accReward = 0;\r\n        }\r\n\r\n        ERC20Interface(address(this)).transfer(msg.sender, claimAmount);\r\n        return true;\r\n    }\r\n    \r\n    function activateClaimMonthly(uint256 _rewardStartTime, uint256 _rewardEndTime, uint256 _monthlyDisPr, uint256 _numOfDays, uint256 _percentage) public onlyOwner {\r\n        require(_rewardStartTime > block.timestamp );\r\n        require(_rewardEndTime > _rewardStartTime);\r\n        require(_numOfDays > 0);\r\n        require(_percentage > 0);\r\n        \r\n        _totalSupply = totalSupply;\r\n        _lastRewardStartTime = _getRewardStartTime;\r\n        _numOfDaysPerMth = _numOfDays;\r\n        _getRewardStartTime = _rewardStartTime;\r\n        _getRewardEndTime = _rewardEndTime;\r\n        _percentageDistribute = _percentage;\r\n        _monthlyDistributePr = _monthlyDisPr;\r\n    }\r\n\r\n    function _partialBurn(uint256 _amount, address _from) internal returns (uint256) {\r\n        uint256 transferAmount = 0;\r\n        uint256 burnAmount;\r\n        uint256 liqAmount;\r\n        uint256 disAmount;\r\n        (\r\n            burnAmount,\r\n            liqAmount,\r\n            disAmount\r\n        ) = _calculateDeductAmount(_amount);\r\n\r\n        if (burnAmount >= 0 || liqAmount >= 0 || disAmount >= 0) {\r\n            burnPrivate(_from, burnAmount, liqAmount, disAmount);\r\n        }\r\n        transferAmount = _amount - burnAmount - liqAmount - disAmount;\r\n\r\n        return transferAmount;\r\n    }\r\n\r\n    function _calculateDeductAmount(uint256 _amount) internal view returns (uint256, uint256, uint256) {\r\n        uint256 burnAmount;\r\n        uint256 liqAmount;\r\n        uint256 disAmount;\r\n\r\n        if (totalSupply > minimumSupply) {\r\n            burnAmount = (_amount * burnPercent) / 100;\r\n            liqAmount = (_amount * liqPercent) / 100;\r\n            disAmount = (_amount * disPercent) / 100;\r\n            uint256 availableBurn = totalSupply - minimumSupply;\r\n            if (burnAmount > availableBurn) {\r\n                burnAmount = availableBurn;\r\n            }\r\n        }\r\n        return (burnAmount, liqAmount, disAmount);\r\n    }\r\n\r\n    function burnPrivate( address _account, uint256 _burnAmount, uint256 _liqAmount, uint256 _disAmount) private {\r\n        require(_account != address(0));\r\n        uint256 accountBalance = balanceOf[_account];\r\n        uint256 deductAmount = _burnAmount + _liqAmount + _disAmount;\r\n        require(accountBalance >= deductAmount);\r\n        balanceOf[_account] -= _burnAmount;\r\n        balanceOf[_account] -= _liqAmount;\r\n        balanceOf[_account] -= _disAmount;\r\n\r\n        totalSupply -= _burnAmount;\r\n        updateAccumulateBalanceTransaction(disPool, liqPool); \r\n        balanceOf[liqPool] += _liqAmount;\r\n        balanceOf[disPool] += _disAmount;\r\n\r\n        emit Burn(_account, _burnAmount);\r\n        emit Transfer(msg.sender, liqPool, _liqAmount);\r\n        emit Transfer(msg.sender, disPool, _disAmount);\r\n    }\r\n    \r\n    function updateLPoolAdd(address _newLPool) public onlyOwner {\r\n        require(_newLPool != liqPool);\r\n\r\n        liqPool = _newLPool;\r\n    }\r\n\r\n    function updateDPoolAdd(address _newDPool) public onlyOwner {\r\n        require(_newDPool != disPool);\r\n\r\n        disPool = _newDPool;\r\n    }\r\n    \r\n    function updatePercent(uint256 _newDisPercent, uint256 _newLiqPercent, uint256 _newBurnPercent) public onlyOwner {\r\n        require(_newDisPercent >= 0 && _newDisPercent <= 100 && _newLiqPercent >= 0 && _newLiqPercent <= 100 && _newBurnPercent >= 0 && _newBurnPercent <= 100);\r\n        require(_newDisPercent + _newLiqPercent + _newBurnPercent <= 100);\r\n        \r\n        disPercent = _newDisPercent;\r\n        liqPercent = _newLiqPercent;\r\n        burnPercent = _newBurnPercent;\r\n    }\r\n\r\n    function addAdmin(address newAdmin) public onlyOwner{\r\n        // require(newAdmin != address(0));\r\n        require(!isAdmin[newAdmin]);\r\n\r\n        isAdmin[newAdmin] = true;\r\n        admins.push(newAdmin);\r\n    }\r\n\r\n    function removeAdmin(uint index) public onlyOwner returns (address[] memory){\r\n        address removeOwner = admins[index];\r\n        require(index < admins.length);\r\n        require(isAdmin[removeOwner]);\r\n        \r\n        for (uint i = index; i<admins.length-1; i++){\r\n            admins[i] = admins[i+1];\r\n        }\r\n        admins.pop();\r\n\r\n        isAdmin[removeOwner] = false;\r\n        return admins;\r\n    }\r\n\r\n    // function getAdmins() public view returns (address[] memory) {\r\n    //     return admins;\r\n    // }\r\n    \r\n    function transferERCToken(address token, uint256 amount, address _to) public whenNotPaused onlyOwner{\r\n        require(_to != address(0));\r\n        if (token == address(this)) {\r\n            updateAccumulateBalanceTransaction(address(this), _to);\r\n            ERC20Interface(token).transfer(_to, amount);\r\n        } else {\r\n            ERC20Interface(token).transfer(_to, amount);          \r\n        }\r\n    } \r\n\r\n    function pause() public whenNotPaused onlyOwner {\r\n        _pause();\r\n    }\r\n\r\n    function unpause() public whenPaused onlyOwner {\r\n        _unpause();\r\n    }\r\n    \r\n    function setWhitelistedTo(address newWhitelist) public onlyOwner {\r\n        require(!isWhitelistedTo[newWhitelist]);\r\n\r\n        isWhitelistedTo[newWhitelist] = true;\r\n    }\r\n\r\n    function removeWhitelistedTo(address newWhitelist) public onlyOwner {\r\n        require(isWhitelistedTo[newWhitelist]);\r\n\r\n        isWhitelistedTo[newWhitelist] = false;\r\n    }\r\n\r\n    function setWhitelistedFrom(address newWhitelist) public onlyOwner {\r\n        require(!isWhitelistedFrom[newWhitelist]);\r\n\r\n        isWhitelistedFrom[newWhitelist] = true;\r\n    }\r\n\r\n    function removeWhitelistedFrom(address newWhitelist) public onlyOwner {\r\n        require(isWhitelistedFrom[newWhitelist]);\r\n\r\n        isWhitelistedFrom[newWhitelist] = false;\r\n    }\r\n\r\n    function _authorizeUpgrade(address) internal override onlyOwner {}\r\n\r\n    function initialize(\r\n        address _to,\r\n        address _lPool,\r\n        uint256 _burnPercent,\r\n        uint256 _liqPercent,\r\n        uint256 _disPercent\r\n    ) public initializer {\r\n        require(_lPool != address(0));\r\n        require(_burnPercent >= 0);\r\n        require(_liqPercent >= 0);\r\n        require(_disPercent >= 0);\r\n\r\n        name = \"PURSE Token\";\r\n        symbol = \"PURSE\";\r\n        totalSupply = 64000000000 * (10**18); // 64 billion tokens\r\n        decimals = 18;\r\n        minimumSupply = 20000 * (10**18);\r\n\r\n        liqPool = _lPool;\r\n        disPool = address(this);\r\n        burnPercent = _burnPercent;\r\n        liqPercent = _liqPercent;\r\n        disPercent = _disPercent;\r\n        admins = [msg.sender];\r\n        _averageInterval = 1 days;       // update to 1 days in mainnet(prod)\r\n        __Pausable_init();\r\n        __Ownable_init();\r\n        __UUPSUpgradeable_init();\r\n        \r\n        balanceOf[_to] = totalSupply;\r\n        updateAccumulateBalance(_to, block.timestamp); \r\n        emit Mint(address(0), _to, totalSupply);\r\n    }\r\n}",
  "sourcePath": "C:\\Users\\cheek\\Desktop\\Developer doc\\Visual Studio Code\\PundiX\\YieldFarm_BridgeEthBsc\\src\\contracts\\PurseTokenUpgradable.sol",
  "compiler": {
    "name": "solc",
    "version": "0.8.7+commit.e28d00a7.Emscripten.clang"
  },
  "schemaVersion": "3.2.3",
  "updatedAt": "2021-09-18T13:43:11.633Z",
  "networkType": "ethereum",
  "devdoc": {
    "kind": "dev",
    "methods": {
      "owner()": {
        "details": "Returns the address of the current owner."
      },
      "paused()": {
        "details": "Returns true if the contract is paused, and false otherwise."
      },
      "renounceOwnership()": {
        "details": "Leaves the contract without owner. It will not be possible to call `onlyOwner` functions anymore. Can only be called by the current owner. NOTE: Renouncing ownership will leave the contract without an owner, thereby removing any functionality that is only available to the owner."
      },
      "transferOwnership(address)": {
        "details": "Transfers ownership of the contract to a new account (`newOwner`). Can only be called by the current owner."
      },
      "upgradeTo(address)": {
        "details": "Upgrade the implementation of the proxy to `newImplementation`. Calls {_authorizeUpgrade}. Emits an {Upgraded} event."
      },
      "upgradeToAndCall(address,bytes)": {
        "details": "Upgrade the implementation of the proxy to `newImplementation`, and subsequently execute the function call encoded in `data`. Calls {_authorizeUpgrade}. Emits an {Upgraded} event."
      }
    },
    "version": 1
  },
  "userdoc": {
    "kind": "user",
    "methods": {},
    "version": 1
  }
}