{
  "contractName": "PurseTokenUpgradableV2",
  "abi": [
    {
      "anonymous": false,
      "inputs": [
        {
          "indexed": false,
          "internalType": "address",
          "name": "previousAdmin",
          "type": "address"
        },
        {
          "indexed": false,
          "internalType": "address",
          "name": "newAdmin",
          "type": "address"
        }
      ],
      "name": "AdminChanged",
      "type": "event"
    },
    {
      "anonymous": false,
      "inputs": [
        {
          "indexed": true,
          "internalType": "address",
          "name": "_owner",
          "type": "address"
        },
        {
          "indexed": true,
          "internalType": "address",
          "name": "_spender",
          "type": "address"
        },
        {
          "indexed": false,
          "internalType": "uint256",
          "name": "_value",
          "type": "uint256"
        }
      ],
      "name": "Approval",
      "type": "event"
    },
    {
      "anonymous": false,
      "inputs": [
        {
          "indexed": true,
          "internalType": "address",
          "name": "beacon",
          "type": "address"
        }
      ],
      "name": "BeaconUpgraded",
      "type": "event"
    },
    {
      "anonymous": false,
      "inputs": [
        {
          "indexed": true,
          "internalType": "address",
          "name": "_from",
          "type": "address"
        },
        {
          "indexed": false,
          "internalType": "uint256",
          "name": "_value",
          "type": "uint256"
        }
      ],
      "name": "Burn",
      "type": "event"
    },
    {
      "anonymous": false,
      "inputs": [
        {
          "indexed": true,
          "internalType": "address",
          "name": "_from",
          "type": "address"
        },
        {
          "indexed": true,
          "internalType": "address",
          "name": "_to",
          "type": "address"
        },
        {
          "indexed": false,
          "internalType": "uint256",
          "name": "_value",
          "type": "uint256"
        }
      ],
      "name": "Mint",
      "type": "event"
    },
    {
      "anonymous": false,
      "inputs": [
        {
          "indexed": true,
          "internalType": "address",
          "name": "previousOwner",
          "type": "address"
        },
        {
          "indexed": true,
          "internalType": "address",
          "name": "newOwner",
          "type": "address"
        }
      ],
      "name": "OwnershipTransferred",
      "type": "event"
    },
    {
      "anonymous": false,
      "inputs": [
        {
          "indexed": false,
          "internalType": "address",
          "name": "account",
          "type": "address"
        }
      ],
      "name": "Paused",
      "type": "event"
    },
    {
      "anonymous": false,
      "inputs": [
        {
          "indexed": true,
          "internalType": "address",
          "name": "_from",
          "type": "address"
        },
        {
          "indexed": true,
          "internalType": "address",
          "name": "_to",
          "type": "address"
        },
        {
          "indexed": false,
          "internalType": "uint256",
          "name": "_value",
          "type": "uint256"
        }
      ],
      "name": "Transfer",
      "type": "event"
    },
    {
      "anonymous": false,
      "inputs": [
        {
          "indexed": false,
          "internalType": "address",
          "name": "account",
          "type": "address"
        }
      ],
      "name": "Unpaused",
      "type": "event"
    },
    {
      "anonymous": false,
      "inputs": [
        {
          "indexed": true,
          "internalType": "address",
          "name": "implementation",
          "type": "address"
        }
      ],
      "name": "Upgraded",
      "type": "event"
    },
    {
      "inputs": [],
      "name": "_averageInterval",
      "outputs": [
        {
          "internalType": "uint256",
          "name": "",
          "type": "uint256"
        }
      ],
      "stateMutability": "view",
      "type": "function",
      "constant": true
    },
    {
      "inputs": [],
      "name": "_getRewardEndTime",
      "outputs": [
        {
          "internalType": "uint256",
          "name": "",
          "type": "uint256"
        }
      ],
      "stateMutability": "view",
      "type": "function",
      "constant": true
    },
    {
      "inputs": [],
      "name": "_getRewardStartTime",
      "outputs": [
        {
          "internalType": "uint256",
          "name": "",
          "type": "uint256"
        }
      ],
      "stateMutability": "view",
      "type": "function",
      "constant": true
    },
    {
      "inputs": [],
      "name": "_lastRewardStartTime",
      "outputs": [
        {
          "internalType": "uint256",
          "name": "",
          "type": "uint256"
        }
      ],
      "stateMutability": "view",
      "type": "function",
      "constant": true
    },
    {
      "inputs": [],
      "name": "_monthlyDistributePr",
      "outputs": [
        {
          "internalType": "uint256",
          "name": "",
          "type": "uint256"
        }
      ],
      "stateMutability": "view",
      "type": "function",
      "constant": true
    },
    {
      "inputs": [],
      "name": "_numOfDaysPerMth",
      "outputs": [
        {
          "internalType": "uint256",
          "name": "",
          "type": "uint256"
        }
      ],
      "stateMutability": "view",
      "type": "function",
      "constant": true
    },
    {
      "inputs": [],
      "name": "_percentageDistribute",
      "outputs": [
        {
          "internalType": "uint256",
          "name": "",
          "type": "uint256"
        }
      ],
      "stateMutability": "view",
      "type": "function",
      "constant": true
    },
    {
      "inputs": [],
      "name": "_totalSupply",
      "outputs": [
        {
          "internalType": "uint256",
          "name": "",
          "type": "uint256"
        }
      ],
      "stateMutability": "view",
      "type": "function",
      "constant": true
    },
    {
      "inputs": [
        {
          "internalType": "address",
          "name": "",
          "type": "address"
        }
      ],
      "name": "accAmount",
      "outputs": [
        {
          "internalType": "uint256",
          "name": "amount",
          "type": "uint256"
        },
        {
          "internalType": "uint256",
          "name": "accReward",
          "type": "uint256"
        },
        {
          "internalType": "uint256",
          "name": "lastUpdateTime",
          "type": "uint256"
        }
      ],
      "stateMutability": "view",
      "type": "function",
      "constant": true
    },
    {
      "inputs": [
        {
          "internalType": "uint256",
          "name": "",
          "type": "uint256"
        }
      ],
      "name": "admins",
      "outputs": [
        {
          "internalType": "address",
          "name": "",
          "type": "address"
        }
      ],
      "stateMutability": "view",
      "type": "function",
      "constant": true
    },
    {
      "inputs": [
        {
          "internalType": "address",
          "name": "",
          "type": "address"
        },
        {
          "internalType": "address",
          "name": "",
          "type": "address"
        }
      ],
      "name": "allowance",
      "outputs": [
        {
          "internalType": "uint256",
          "name": "",
          "type": "uint256"
        }
      ],
      "stateMutability": "view",
      "type": "function",
      "constant": true
    },
    {
      "inputs": [
        {
          "internalType": "address",
          "name": "",
          "type": "address"
        }
      ],
      "name": "balanceOf",
      "outputs": [
        {
          "internalType": "uint256",
          "name": "",
          "type": "uint256"
        }
      ],
      "stateMutability": "view",
      "type": "function",
      "constant": true
    },
    {
      "inputs": [],
      "name": "burnPercent",
      "outputs": [
        {
          "internalType": "uint256",
          "name": "",
          "type": "uint256"
        }
      ],
      "stateMutability": "view",
      "type": "function",
      "constant": true
    },
    {
      "inputs": [],
      "name": "decimals",
      "outputs": [
        {
          "internalType": "uint8",
          "name": "",
          "type": "uint8"
        }
      ],
      "stateMutability": "view",
      "type": "function",
      "constant": true
    },
    {
      "inputs": [],
      "name": "disPercent",
      "outputs": [
        {
          "internalType": "uint256",
          "name": "",
          "type": "uint256"
        }
      ],
      "stateMutability": "view",
      "type": "function",
      "constant": true
    },
    {
      "inputs": [],
      "name": "disPool",
      "outputs": [
        {
          "internalType": "address",
          "name": "",
          "type": "address"
        }
      ],
      "stateMutability": "view",
      "type": "function",
      "constant": true
    },
    {
      "inputs": [
        {
          "internalType": "address",
          "name": "",
          "type": "address"
        }
      ],
      "name": "isAdmin",
      "outputs": [
        {
          "internalType": "bool",
          "name": "",
          "type": "bool"
        }
      ],
      "stateMutability": "view",
      "type": "function",
      "constant": true
    },
    {
      "inputs": [
        {
          "internalType": "address",
          "name": "",
          "type": "address"
        }
      ],
      "name": "isWhitelistedFrom",
      "outputs": [
        {
          "internalType": "bool",
          "name": "",
          "type": "bool"
        }
      ],
      "stateMutability": "view",
      "type": "function",
      "constant": true
    },
    {
      "inputs": [
        {
          "internalType": "address",
          "name": "",
          "type": "address"
        }
      ],
      "name": "isWhitelistedTo",
      "outputs": [
        {
          "internalType": "bool",
          "name": "",
          "type": "bool"
        }
      ],
      "stateMutability": "view",
      "type": "function",
      "constant": true
    },
    {
      "inputs": [],
      "name": "liqPercent",
      "outputs": [
        {
          "internalType": "uint256",
          "name": "",
          "type": "uint256"
        }
      ],
      "stateMutability": "view",
      "type": "function",
      "constant": true
    },
    {
      "inputs": [],
      "name": "liqPool",
      "outputs": [
        {
          "internalType": "address",
          "name": "",
          "type": "address"
        }
      ],
      "stateMutability": "view",
      "type": "function",
      "constant": true
    },
    {
      "inputs": [],
      "name": "name",
      "outputs": [
        {
          "internalType": "string",
          "name": "",
          "type": "string"
        }
      ],
      "stateMutability": "view",
      "type": "function",
      "constant": true
    },
    {
      "inputs": [],
      "name": "owner",
      "outputs": [
        {
          "internalType": "address",
          "name": "",
          "type": "address"
        }
      ],
      "stateMutability": "view",
      "type": "function",
      "constant": true
    },
    {
      "inputs": [],
      "name": "paused",
      "outputs": [
        {
          "internalType": "bool",
          "name": "",
          "type": "bool"
        }
      ],
      "stateMutability": "view",
      "type": "function",
      "constant": true
    },
    {
      "inputs": [],
      "name": "renounceOwnership",
      "outputs": [],
      "stateMutability": "nonpayable",
      "type": "function"
    },
    {
      "inputs": [],
      "name": "symbol",
      "outputs": [
        {
          "internalType": "string",
          "name": "",
          "type": "string"
        }
      ],
      "stateMutability": "view",
      "type": "function",
      "constant": true
    },
    {
      "inputs": [],
      "name": "totalSupply",
      "outputs": [
        {
          "internalType": "uint256",
          "name": "",
          "type": "uint256"
        }
      ],
      "stateMutability": "view",
      "type": "function",
      "constant": true
    },
    {
      "inputs": [
        {
          "internalType": "address",
          "name": "newOwner",
          "type": "address"
        }
      ],
      "name": "transferOwnership",
      "outputs": [],
      "stateMutability": "nonpayable",
      "type": "function"
    },
    {
      "inputs": [
        {
          "internalType": "address",
          "name": "newImplementation",
          "type": "address"
        }
      ],
      "name": "upgradeTo",
      "outputs": [],
      "stateMutability": "nonpayable",
      "type": "function"
    },
    {
      "inputs": [
        {
          "internalType": "address",
          "name": "newImplementation",
          "type": "address"
        },
        {
          "internalType": "bytes",
          "name": "data",
          "type": "bytes"
        }
      ],
      "name": "upgradeToAndCall",
      "outputs": [],
      "stateMutability": "payable",
      "type": "function",
      "payable": true
    },
    {
      "inputs": [
        {
          "internalType": "address",
          "name": "_to",
          "type": "address"
        },
        {
          "internalType": "uint256",
          "name": "_value",
          "type": "uint256"
        }
      ],
      "name": "transfer",
      "outputs": [
        {
          "internalType": "bool",
          "name": "success",
          "type": "bool"
        }
      ],
      "stateMutability": "nonpayable",
      "type": "function"
    },
    {
      "inputs": [
        {
          "internalType": "address",
          "name": "_spender",
          "type": "address"
        },
        {
          "internalType": "uint256",
          "name": "_value",
          "type": "uint256"
        }
      ],
      "name": "approve",
      "outputs": [
        {
          "internalType": "bool",
          "name": "success",
          "type": "bool"
        }
      ],
      "stateMutability": "nonpayable",
      "type": "function"
    },
    {
      "inputs": [
        {
          "internalType": "address",
          "name": "_from",
          "type": "address"
        },
        {
          "internalType": "address",
          "name": "_to",
          "type": "address"
        },
        {
          "internalType": "uint256",
          "name": "_value",
          "type": "uint256"
        }
      ],
      "name": "transferFrom",
      "outputs": [
        {
          "internalType": "bool",
          "name": "success",
          "type": "bool"
        }
      ],
      "stateMutability": "nonpayable",
      "type": "function"
    },
    {
      "inputs": [
        {
          "internalType": "address",
          "name": "_account",
          "type": "address"
        },
        {
          "internalType": "uint256",
          "name": "_amount",
          "type": "uint256"
        }
      ],
      "name": "mint",
      "outputs": [],
      "stateMutability": "nonpayable",
      "type": "function"
    },
    {
      "inputs": [
        {
          "internalType": "uint256",
          "name": "_amount",
          "type": "uint256"
        }
      ],
      "name": "burn",
      "outputs": [],
      "stateMutability": "nonpayable",
      "type": "function"
    },
    {
      "inputs": [],
      "name": "claimDistributionPurse",
      "outputs": [
        {
          "internalType": "bool",
          "name": "success",
          "type": "bool"
        }
      ],
      "stateMutability": "nonpayable",
      "type": "function"
    },
    {
      "inputs": [
        {
          "internalType": "uint256",
          "name": "_rewardStartTime",
          "type": "uint256"
        },
        {
          "internalType": "uint256",
          "name": "_rewardEndTime",
          "type": "uint256"
        },
        {
          "internalType": "uint256",
          "name": "_monthlyDisPr",
          "type": "uint256"
        },
        {
          "internalType": "uint256",
          "name": "_numOfDays",
          "type": "uint256"
        },
        {
          "internalType": "uint256",
          "name": "_percentage",
          "type": "uint256"
        }
      ],
      "name": "activateClaimMonthly",
      "outputs": [],
      "stateMutability": "nonpayable",
      "type": "function"
    },
    {
      "inputs": [
        {
          "internalType": "address",
          "name": "_newLPool",
          "type": "address"
        }
      ],
      "name": "updateLPoolAdd",
      "outputs": [],
      "stateMutability": "nonpayable",
      "type": "function"
    },
    {
      "inputs": [
        {
          "internalType": "address",
          "name": "_newDPool",
          "type": "address"
        }
      ],
      "name": "updateDPoolAdd",
      "outputs": [],
      "stateMutability": "nonpayable",
      "type": "function"
    },
    {
      "inputs": [
        {
          "internalType": "uint256",
          "name": "_newDisPercent",
          "type": "uint256"
        },
        {
          "internalType": "uint256",
          "name": "_newLiqPercent",
          "type": "uint256"
        },
        {
          "internalType": "uint256",
          "name": "_newBurnPercent",
          "type": "uint256"
        }
      ],
      "name": "updatePercent",
      "outputs": [],
      "stateMutability": "nonpayable",
      "type": "function"
    },
    {
      "inputs": [
        {
          "internalType": "address",
          "name": "newAdmin",
          "type": "address"
        }
      ],
      "name": "addAdmin",
      "outputs": [],
      "stateMutability": "nonpayable",
      "type": "function"
    },
    {
      "inputs": [
        {
          "internalType": "uint256",
          "name": "index",
          "type": "uint256"
        }
      ],
      "name": "removeAdmin",
      "outputs": [
        {
          "internalType": "address[]",
          "name": "",
          "type": "address[]"
        }
      ],
      "stateMutability": "nonpayable",
      "type": "function"
    },
    {
      "inputs": [],
      "name": "getAdmins",
      "outputs": [
        {
          "internalType": "address[]",
          "name": "",
          "type": "address[]"
        }
      ],
      "stateMutability": "view",
      "type": "function",
      "constant": true
    },
    {
      "inputs": [
        {
          "internalType": "address",
          "name": "token",
          "type": "address"
        },
        {
          "internalType": "uint256",
          "name": "amount",
          "type": "uint256"
        },
        {
          "internalType": "address",
          "name": "_to",
          "type": "address"
        }
      ],
      "name": "transferERCToken",
      "outputs": [],
      "stateMutability": "nonpayable",
      "type": "function"
    },
    {
      "inputs": [],
      "name": "pause",
      "outputs": [],
      "stateMutability": "nonpayable",
      "type": "function"
    },
    {
      "inputs": [],
      "name": "unpause",
      "outputs": [],
      "stateMutability": "nonpayable",
      "type": "function"
    },
    {
      "inputs": [
        {
          "internalType": "address",
          "name": "newWhitelist",
          "type": "address"
        }
      ],
      "name": "setWhitelistedTo",
      "outputs": [],
      "stateMutability": "nonpayable",
      "type": "function"
    },
    {
      "inputs": [
        {
          "internalType": "address",
          "name": "newWhitelist",
          "type": "address"
        }
      ],
      "name": "removeWhitelistedTo",
      "outputs": [],
      "stateMutability": "nonpayable",
      "type": "function"
    },
    {
      "inputs": [
        {
          "internalType": "address",
          "name": "newWhitelist",
          "type": "address"
        }
      ],
      "name": "setWhitelistedFrom",
      "outputs": [],
      "stateMutability": "nonpayable",
      "type": "function"
    },
    {
      "inputs": [
        {
          "internalType": "address",
          "name": "newWhitelist",
          "type": "address"
        }
      ],
      "name": "removeWhitelistedFrom",
      "outputs": [],
      "stateMutability": "nonpayable",
      "type": "function"
    },
    {
      "inputs": [
        {
          "internalType": "address",
          "name": "_to",
          "type": "address"
        },
        {
          "internalType": "address",
          "name": "_lPool",
          "type": "address"
        },
        {
          "internalType": "uint256",
          "name": "_burnPercent",
          "type": "uint256"
        },
        {
          "internalType": "uint256",
          "name": "_liqPercent",
          "type": "uint256"
        },
        {
          "internalType": "uint256",
          "name": "_disPercent",
          "type": "uint256"
        }
      ],
      "name": "initialize",
      "outputs": [],
      "stateMutability": "nonpayable",
      "type": "function"
    }
  ],
  "bytecode": "0x608060405234801561001057600080fd5b50613479806100206000396000f3fe6080604052600436106102e45760003560e01c80635b01402911610190578063b7c74bd3116100dc578063d13f90b411610095578063dd62ed3e1161006f578063dd62ed3e146108d6578063e2657da11461090f578063f2fde38b1461092f578063f75672441461094f57600080fd5b8063d13f90b41461087f578063d55292041461089f578063d5b8ddf8146108b657600080fd5b8063b7c74bd314610788578063bab38440146107e0578063bc8d571d14610800578063c43c082f14610817578063c6ef924614610837578063ca04d2d81461084e57600080fd5b80637888f7b21161014957806395d89b411161012357806395d89b411461071c57806395e96ff114610731578063a9059cbb14610748578063ad7bbc291461076857600080fd5b80637888f7b2146106d25780638456cb59146106e95780638da5cb5b146106fe57600080fd5b80635b014029146106055780635c975abb14610636578063704802751461064e57806370a082311461066e578063715018a61461069c578063740b91f4146106b157600080fd5b806331ae450b1161024f5780633f4ba83a11610208578063434f9237116101e2578063434f92371461059b5780634d28b4ba146105bb5780634f1ef286146105db5780635422e495146105ee57600080fd5b80633f4ba83a1461054657806340c10f191461055b57806342966c681461057b57600080fd5b806331ae450b14610494578063347d34c6146104b657806335e8b82e146104cd5780633659cfe6146104ef5780633838d4e31461050f5780633eaaf86b1461052f57600080fd5b806318160ddd116102a157806318160ddd146103c957806320b1e78a146103df57806323b872dd146103f657806324d7806c1461041657806327ba6e1114610447578063313ce5671461046857600080fd5b806303807ee5146102e957806306fdde0314610313578063095ea7b3146103355780630f4307e21461036557806311a6c16c1461037c57806314bfd6d014610391575b600080fd5b3480156102f557600080fd5b506103006101035481565b6040519081526020015b60405180910390f35b34801561031f57600080fd5b5061032861096f565b60405161030a91906131d2565b34801561034157600080fd5b50610355610350366004613061565b6109fd565b604051901515815260200161030a565b34801561037157600080fd5b5061030061010a5481565b34801561038857600080fd5b50610355610a97565b34801561039d57600080fd5b506103b16103ac3660046130e9565b610c55565b6040516001600160a01b03909116815260200161030a565b3480156103d557600080fd5b5061030060fd5481565b3480156103eb57600080fd5b5061030061010b5481565b34801561040257600080fd5b50610355610411366004612f16565b610c80565b34801561042257600080fd5b50610355610431366004612ec8565b6101106020526000908152604090205460ff1681565b34801561045357600080fd5b50610102546103b1906001600160a01b031681565b34801561047457600080fd5b5060fe546104829060ff1681565b60405160ff909116815260200161030a565b3480156104a057600080fd5b506104a9610f1f565b60405161030a9190613185565b3480156104c257600080fd5b506103006101065481565b3480156104d957600080fd5b506104ed6104e8366004612ec8565b610f82565b005b3480156104fb57600080fd5b506104ed61050a366004612ec8565b610feb565b34801561051b57600080fd5b506104ed61052a366004612ec8565b611012565b34801561053b57600080fd5b5061030061010d5481565b34801561055257600080fd5b506104ed611088565b34801561056757600080fd5b506104ed610576366004613061565b611105565b34801561058757600080fd5b506104ed6105963660046130e9565b6111ee565b3480156105a757600080fd5b506104ed6105b636600461312e565b6112b8565b3480156105c757600080fd5b506104ed6105d6366004612ec8565b611342565b6104ed6105e9366004612f9f565b6113b4565b3480156105fa57600080fd5b506103006101045481565b34801561061157600080fd5b50610355610620366004612ec8565b6101116020526000908152604090205460ff1681565b34801561064257600080fd5b5060975460ff16610355565b34801561065a57600080fd5b506104ed610669366004612ec8565b6113cd565b34801561067a57600080fd5b50610300610689366004612ec8565b61010e6020526000908152604090205481565b3480156106a857600080fd5b506104ed611486565b3480156106bd57600080fd5b50610101546103b1906001600160a01b031681565b3480156106de57600080fd5b5061030061010c5481565b3480156106f557600080fd5b506104ed6114ba565b34801561070a57600080fd5b5060c9546001600160a01b03166103b1565b34801561072857600080fd5b5061032861150f565b34801561073d57600080fd5b506103006101095481565b34801561075457600080fd5b50610355610763366004613061565b61151c565b34801561077457600080fd5b506104a96107833660046130e9565b6116da565b34801561079457600080fd5b506107c56107a3366004612ec8565b6101136020526000908152604090208054600182015460029092015490919083565b6040805193845260208401929092529082015260600161030a565b3480156107ec57600080fd5b506104ed6107fb366004612ec8565b6118bf565b34801561080c57600080fd5b506103006101085481565b34801561082357600080fd5b506104ed610832366004613102565b611928565b34801561084357600080fd5b506103006101055481565b34801561085a57600080fd5b50610355610869366004612ec8565b6101126020526000908152604090205460ff1681565b34801561088b57600080fd5b506104ed61089a366004612f52565b6119c1565b3480156108ab57600080fd5b506103006101075481565b3480156108c257600080fd5b506104ed6108d136600461308b565b611bc2565b3480156108e257600080fd5b506103006108f1366004612ee3565b61010f60209081526000928352604080842090915290825290205481565b34801561091b57600080fd5b506104ed61092a366004612ec8565b611cca565b34801561093b57600080fd5b506104ed61094a366004612ec8565b611d3c565b34801561095b57600080fd5b506104ed61096a366004612ec8565b611dd4565b60fb805461097c9061334e565b80601f01602080910402602001604051908101604052809291908181526020018280546109a89061334e565b80156109f55780601f106109ca576101008083540402835291602001916109f5565b820191906000526020600020905b8154815290600101906020018083116109d857829003601f168201915b505050505081565b6000610a0b60975460ff1690565b15610a315760405162461bcd60e51b8152600401610a2890613205565b60405180910390fd5b33600081815261010f602090815260408083206001600160a01b03881680855290835292819020869055518581529192917f8c5be1e5ebec7d5bd14f71427d1e84f3dd0314c0f7b2291e5b200ac8c7c3b925910160405180910390a35060015b92915050565b6000610aa560975460ff1690565b15610ac25760405162461bcd60e51b8152600401610a2890613205565b610107544210610ad157600080fd5b610108544211610ae057600080fd5b61010854336000908152610113602052604081206002015490911115610b9e57610b0933611e4a565b6101095461010d5461010b5461010a54336000908152610113602052604090205461271094939291610b3a916132ec565b610b4491906132ec565b610b4f9060646132ec565b610b5991906132ca565b610b6391906132ca565b610b6d91906132ca565b61010854336000818152610113602052604081206002810193909355909155909150610b999042611e53565b610bd5565b3360009081526101136020526040902060010154610bbb57600080fd5b503360009081526101136020526040812060010180549190555b60405163a9059cbb60e01b815233600482015260248101829052309063a9059cbb90604401602060405180830381600087803b158015610c1457600080fd5b505af1158015610c28573d6000803e3d6000fd5b505050506040513d601f19601f82011682018060405250810190610c4c91906130c7565b50600191505090565b6101008181548110610c6657600080fd5b6000918252602090912001546001600160a01b0316905081565b6000610c8e60975460ff1690565b15610cab5760405162461bcd60e51b8152600401610a2890613205565b6001600160a01b038416600090815261010e6020526040902054821115610cd157600080fd5b6001600160a01b038416600090815261010f60209081526040808320338452909152902054821115610d0257600080fd5b6001600160a01b0383166000908152610111602052604090205460ff1680610d3a5750336000908152610112602052604090205460ff165b15610e24576001600160a01b038416600090815261010f6020908152604080832033845290915281208054849290610d7390849061330b565b90915550610d839050848461232d565b6001600160a01b038416600090815261010e602052604081208054849290610dac90849061330b565b90915550506001600160a01b038316600090815261010e602052604081208054849290610dda9084906132b2565b92505081905550826001600160a01b0316846001600160a01b031660008051602061342483398151915284604051610e1491815260200190565b60405180910390a3506001610f18565b6001600160a01b038416600090815261010f6020908152604080832033845290915281208054849290610e5890849061330b565b90915550610e689050848461232d565b6000610e748386612341565b6001600160a01b038616600090815261010e6020526040812080549293508392909190610ea290849061330b565b90915550506001600160a01b038416600090815261010e602052604081208054839290610ed09084906132b2565b92505081905550836001600160a01b0316856001600160a01b031660008051602061342483398151915283604051610f0a91815260200190565b60405180910390a360019150505b9392505050565b6060610100805480602002602001604051908101604052809291908181526020018280548015610f7857602002820191906000526020600020905b81546001600160a01b03168152600190910190602001808311610f5a575b5050505050905090565b60c9546001600160a01b03163314610fac5760405162461bcd60e51b8152600401610a289061327d565b610101546001600160a01b0382811691161415610fc857600080fd5b61010180546001600160a01b0319166001600160a01b0392909216919091179055565b610ff48161238e565b61100f816040518060200160405280600081525060006123b8565b50565b60c9546001600160a01b0316331461103c5760405162461bcd60e51b8152600401610a289061327d565b6001600160a01b0381166000908152610112602052604090205460ff161561106357600080fd5b6001600160a01b0316600090815261011260205260409020805460ff19166001179055565b60975460ff166110d15760405162461bcd60e51b815260206004820152601460248201527314185d5cd8589b194e881b9bdd081c185d5cd95960621b6044820152606401610a28565b60c9546001600160a01b031633146110fb5760405162461bcd60e51b8152600401610a289061327d565b611103612539565b565b60975460ff16156111285760405162461bcd60e51b8152600401610a2890613205565b336000908152610110602052604090205460ff1661114557600080fd5b6001600160a01b03821661115857600080fd5b6111628242611e53565b6001600160a01b038216600090815261010e60205260408120805483929061118b9084906132b2565b925050819055508060fd60008282546111a491906132b2565b90915550506040518181526001600160a01b038316906000907fab8530f87dc9b59234c4623bf917212bb2536d647574c8e7e5da92c2ede0c9f89060200160405180910390a35050565b60975460ff16156112115760405162461bcd60e51b8152600401610a2890613205565b8061121b57600080fd5b33600090815261010e602052604090205481111561123857600080fd5b6112423342611e53565b33600090815261010e60205260408120805483929061126290849061330b565b925050819055508060fd600082825461127b919061330b565b909155505060405181815233907fcc16f5dbb4873280815c1ee09dbd06736cffcc184412cf7a71a0fdb75d397ca59060200160405180910390a250565b60c9546001600160a01b031633146112e25760405162461bcd60e51b8152600401610a289061327d565b4285116112ee57600080fd5b8484116112fa57600080fd5b6000821161130757600080fd5b6000811161131457600080fd5b60fd5461010d55610108805461010c55610109929092559390556101079190915561010b9190915561010a55565b60c9546001600160a01b0316331461136c5760405162461bcd60e51b8152600401610a289061327d565b6001600160a01b0381166000908152610112602052604090205460ff1661139257600080fd5b6001600160a01b0316600090815261011260205260409020805460ff19169055565b6113bd8261238e565b6113c9828260016123b8565b5050565b60c9546001600160a01b031633146113f75760405162461bcd60e51b8152600401610a289061327d565b6001600160a01b0381166000908152610110602052604090205460ff161561141e57600080fd5b6001600160a01b0316600081815261011060205260408120805460ff19166001908117909155610100805491820181559091527f45e010b9ae401e2eb71529478da8bd513a9bdc2d095a111e324f5b95c09ed87b0180546001600160a01b0319169091179055565b60c9546001600160a01b031633146114b05760405162461bcd60e51b8152600401610a289061327d565b61110360006125cc565b60975460ff16156114dd5760405162461bcd60e51b8152600401610a2890613205565b60c9546001600160a01b031633146115075760405162461bcd60e51b8152600401610a289061327d565b61110361261e565b60fc805461097c9061334e565b600061152a60975460ff1690565b156115475760405162461bcd60e51b8152600401610a2890613205565b33600090815261010e602052604090205482111561156457600080fd5b6001600160a01b0383166000908152610111602052604090205460ff168061159c5750336000908152610112602052604090205460ff165b15611634576115ab338461232d565b33600090815261010e6020526040812080548492906115cb90849061330b565b90915550506001600160a01b038316600090815261010e6020526040812080548492906115f99084906132b2565b90915550506040518281526001600160a01b0384169033906000805160206134248339815191529060200160405180910390a3506001610a91565b61163e338461232d565b600061164a8333612341565b33600090815261010e602052604081208054929350839290919061166f90849061330b565b90915550506001600160a01b038416600090815261010e60205260408120805483929061169d9084906132b2565b90915550506040518181526001600160a01b0385169033906000805160206134248339815191529060200160405180910390a36001915050610a91565b60c9546060906001600160a01b031633146117075760405162461bcd60e51b8152600401610a289061327d565b6000610100838154811061171d5761171d6133d0565b600091825260209091200154610100546001600160a01b039091169150831061174557600080fd5b6001600160a01b0381166000908152610110602052604090205460ff1661176b57600080fd5b825b6101005461177d9060019061330b565b81101561180a576101006117928260016132b2565b815481106117a2576117a26133d0565b60009182526020909120015461010080546001600160a01b0390921691839081106117cf576117cf6133d0565b600091825260209091200180546001600160a01b0319166001600160a01b03929092169190911790558061180281613389565b91505061176d565b5061010080548061181d5761181d6133ba565b60008281526020808220830160001990810180546001600160a01b03191690559092019092556001600160a01b03831682526101108152604091829020805460ff19169055610100805483518184028101840190945280845290918301828280156118b157602002820191906000526020600020905b81546001600160a01b03168152600190910190602001808311611893575b50505050509150505b919050565b60c9546001600160a01b031633146118e95760405162461bcd60e51b8152600401610a289061327d565b610102546001600160a01b038281169116141561190557600080fd5b61010280546001600160a01b0319166001600160a01b0392909216919091179055565b60c9546001600160a01b031633146119525760405162461bcd60e51b8152600401610a289061327d565b60648311158015611961575060015b801561196e575060648211155b8015611978575060015b8015611985575060648111155b61198e57600080fd5b60648161199b84866132b2565b6119a591906132b2565b11156119b057600080fd5b610105929092556101045561010355565b600054610100900460ff16806119da575060005460ff16155b6119f65760405162461bcd60e51b8152600401610a289061322f565b600054610100900460ff16158015611a18576000805461ffff19166101011790555b6001600160a01b038516611a2b57600080fd5b60408051808201909152600b8082526a282aa929a2902a37b5b2b760a91b6020909201918252611a5d9160fb91612dc3565b5060408051808201909152600580825264505552534560d81b6020909201918252611a8a9160fc91612dc3565b506bcecb8f27f4200f3a0000000060fd5560fe805460ff1916601217905569043c33c193756480000060ff5561010180546001600160a01b0387166001600160a01b0319918216179091556101028054909116301790556101038490556101048390556101058290556040805160208101909152338152611b1090610100906001612e47565b506201518061010655611b21612676565b611b296126f1565b611b31612758565b60fd546001600160a01b038716600090815261010e6020526040902055611b588642611e53565b856001600160a01b031660006001600160a01b03167fab8530f87dc9b59234c4623bf917212bb2536d647574c8e7e5da92c2ede0c9f860fd54604051611ba091815260200190565b60405180910390a38015611bba576000805461ff00191690555b505050505050565b60975460ff1615611be55760405162461bcd60e51b8152600401610a2890613205565b60c9546001600160a01b03163314611c0f5760405162461bcd60e51b8152600401610a289061327d565b6001600160a01b038116611c2257600080fd5b6001600160a01b038316301415611c3d57611c3d308261232d565b60405163a9059cbb60e01b81526001600160a01b0382811660048301526024820184905284169063a9059cbb90604401602060405180830381600087803b158015611c8757600080fd5b505af1158015611c9b573d6000803e3d6000fd5b505050506040513d601f19601f82011682018060405250810190611cbf91906130c7565b50505050565b505050565b60c9546001600160a01b03163314611cf45760405162461bcd60e51b8152600401610a289061327d565b6001600160a01b0381166000908152610111602052604090205460ff16611d1a57600080fd5b6001600160a01b0316600090815261011160205260409020805460ff19169055565b60c9546001600160a01b03163314611d665760405162461bcd60e51b8152600401610a289061327d565b6001600160a01b038116611dcb5760405162461bcd60e51b815260206004820152602660248201527f4f776e61626c653a206e6577206f776e657220697320746865207a65726f206160448201526564647265737360d01b6064820152608401610a28565b61100f816125cc565b60c9546001600160a01b03163314611dfe5760405162461bcd60e51b8152600401610a289061327d565b6001600160a01b0381166000908152610111602052604090205460ff1615611e2557600080fd5b6001600160a01b0316600090815261011160205260409020805460ff19166001179055565b61100f81610108545b6001600160a01b03821660009081526101136020526040902060020154611e95576001600160a01b039190911660009081526101136020526040902060020155565b6101085442101561203f5761010c546001600160a01b038316600090815261011360205260409020600201541015611f535760006101065461010c5483611edc919061330b565b611ee691906132ca565b6001600160a01b038416600090815261010e602052604081205491925090611f0f9083906132ec565b9050611f1e82620151806132ec565b61010c54611f2c91906132b2565b6001600160a01b038516600090815261011360205260409020600281019190915555505050565b610106546001600160a01b03831660009081526101136020526040812060020154909190611f81908461330b565b611f8b91906132ca565b905060018110611cc5576001600160a01b038316600090815261010e6020526040812054611fba9083906132ec565b9050611fc982620151806132ec565b6001600160a01b0385166000908152610113602052604081206002018054909190611ff59084906132b2565b90915550506001600160a01b0384166000908152610113602052604090205461201f9082906132b2565b6001600160a01b0385166000908152610113602052604090205550505050565b6101085442106113c95761010c546001600160a01b03831660009081526101136020526040902060020154101561215e5760006101065461010c5461010854612088919061330b565b61209291906132ca565b6001600160a01b038416600090815261010e6020526040812054919250906120bb9083906132ec565b6001600160a01b038516600090815261011360205260408120556101095461010d5461010b5461010a54939450612710936120f690866132ec565b61210091906132ec565b61210b9060646132ec565b61211591906132ca565b61211f91906132ca565b61212991906132ca565b6001600160a01b038516600090815261011360205260409020600181019190915561010854600290910155611cbf8442611e53565b61010c546001600160a01b03831660009081526101136020526040902060020154108015906121ab5750610108546001600160a01b03831660009081526101136020526040902060020154105b15611f5357610106546001600160a01b03831660009081526101136020526040812060020154610108549192916121e2919061330b565b6121ec91906132ca565b9050600181106122ee576001600160a01b038316600090815261010e602052604081205461221b9083906132ec565b6001600160a01b03851660009081526101136020526040812054919250906122449083906132b2565b6001600160a01b038616600090815261011360205260408120556101095461010d5461010b5461010a549394506127109361227f90866132ec565b61228991906132ec565b6122949060646132ec565b61229e91906132ca565b6122a891906132ca565b6122b291906132ca565b6001600160a01b0386166000908152610113602052604090206001810191909155610108546002909101556122e78542611e53565b5050505050565b6001600160a01b03831660009081526101136020526040812080549190556101095461010d5461010b5461010a54612710939291906120f690866132ec565b6123378242611e53565b6113c98142611e53565b600080808080612350876127bf565b919450925090506123638684848461285a565b808261236f858a61330b565b612379919061330b565b612383919061330b565b979650505050505050565b60c9546001600160a01b0316331461100f5760405162461bcd60e51b8152600401610a289061327d565b60006123eb7f360894a13ba1a3210667c828492db98dca3e2076cc3735a920a3ca505d382bbc546001600160a01b031690565b90506123f684612a7b565b6000835111806124035750815b15612414576124128484612b20565b505b7f4910fdfa16fed3260ed0e7147f7cc6da11a60208b5b9406d12a635614ffd9143805460ff166122e757805460ff191660011781556040516001600160a01b038316602482015261249390869060440160408051601f198184030181529190526020810180516001600160e01b0316631b2ce7f360e11b179052612b20565b50805460ff191681557f360894a13ba1a3210667c828492db98dca3e2076cc3735a920a3ca505d382bbc546001600160a01b038381169116146125305760405162461bcd60e51b815260206004820152602f60248201527f45524331393637557067726164653a207570677261646520627265616b73206660448201526e75727468657220757067726164657360881b6064820152608401610a28565b6122e785612c0b565b60975460ff166125825760405162461bcd60e51b815260206004820152601460248201527314185d5cd8589b194e881b9bdd081c185d5cd95960621b6044820152606401610a28565b6097805460ff191690557f5db9ee0a495bf2e6ff9c91a7834c1ba4fdd244a5e8aa4e537bd38aeae4b073aa335b6040516001600160a01b03909116815260200160405180910390a1565b60c980546001600160a01b038381166001600160a01b0319831681179093556040519116919082907f8be0079c531659141344cd1fd0a4f28419497f9722a3daafe3b4186f6b6457e090600090a35050565b60975460ff16156126415760405162461bcd60e51b8152600401610a2890613205565b6097805460ff191660011790557f62e78cea01bee320cd4e420270b5ea74000d11b0c9f74754ebdbfc544b05a2586125af3390565b600054610100900460ff168061268f575060005460ff16155b6126ab5760405162461bcd60e51b8152600401610a289061322f565b600054610100900460ff161580156126cd576000805461ffff19166101011790555b6126d5612c4b565b6126dd612cb5565b801561100f576000805461ff001916905550565b600054610100900460ff168061270a575060005460ff16155b6127265760405162461bcd60e51b8152600401610a289061322f565b600054610100900460ff16158015612748576000805461ffff19166101011790555b612750612c4b565b6126dd612d2a565b600054610100900460ff1680612771575060005460ff16155b61278d5760405162461bcd60e51b8152600401610a289061322f565b600054610100900460ff161580156127af576000805461ffff19166101011790555b6127b7612c4b565b6126dd612c4b565b60008060008060008060ff5460fd54111561284d57606461010354886127e591906132ec565b6127ef91906132ca565b92506064610104548861280291906132ec565b61280c91906132ca565b91506064610105548861281f91906132ec565b61282991906132ca565b9050600060ff5460fd5461283d919061330b565b90508084111561284b578093505b505b9196909550909350915050565b6001600160a01b03841661286d57600080fd5b6001600160a01b038416600090815261010e6020526040812054908261289385876132b2565b61289d91906132b2565b9050808210156128ac57600080fd5b6001600160a01b038616600090815261010e6020526040812080548792906128d590849061330b565b90915550506001600160a01b038616600090815261010e60205260408120805486929061290390849061330b565b90915550506001600160a01b038616600090815261010e60205260408120805485929061293190849061330b565b925050819055508460fd600082825461294a919061330b565b9091555050610102546101015461296d916001600160a01b03908116911661232d565b610101546001600160a01b0316600090815261010e6020526040812080548692906129999084906132b2565b9091555050610102546001600160a01b0316600090815261010e6020526040812080548592906129ca9084906132b2565b90915550506040518581526001600160a01b038716907fcc16f5dbb4873280815c1ee09dbd06736cffcc184412cf7a71a0fdb75d397ca59060200160405180910390a2610101546040518581526001600160a01b039091169033906000805160206134248339815191529060200160405180910390a3610102546040518481526001600160a01b039091169033906000805160206134248339815191529060200160405180910390a3505050505050565b803b612adf5760405162461bcd60e51b815260206004820152602d60248201527f455243313936373a206e657720696d706c656d656e746174696f6e206973206e60448201526c1bdd08184818dbdb9d1c9858dd609a1b6064820152608401610a28565b7f360894a13ba1a3210667c828492db98dca3e2076cc3735a920a3ca505d382bbc80546001600160a01b0319166001600160a01b0392909216919091179055565b6060823b612b7f5760405162461bcd60e51b815260206004820152602660248201527f416464726573733a2064656c65676174652063616c6c20746f206e6f6e2d636f6044820152651b9d1c9858dd60d21b6064820152608401610a28565b600080846001600160a01b031684604051612b9a9190613169565b600060405180830381855af49150503d8060008114612bd5576040519150601f19603f3d011682016040523d82523d6000602084013e612bda565b606091505b5091509150612c0282826040518060600160405280602781526020016133fd60279139612d8a565b95945050505050565b612c1481612a7b565b6040516001600160a01b038216907fbc7cd75a20ee27fd9adebab32041f755214dbc6bffa90cc0225b39da2e5c2d3b90600090a250565b600054610100900460ff1680612c64575060005460ff16155b612c805760405162461bcd60e51b8152600401610a289061322f565b600054610100900460ff161580156126dd576000805461ffff1916610101179055801561100f576000805461ff001916905550565b600054610100900460ff1680612cce575060005460ff16155b612cea5760405162461bcd60e51b8152600401610a289061322f565b600054610100900460ff16158015612d0c576000805461ffff19166101011790555b6097805460ff19169055801561100f576000805461ff001916905550565b600054610100900460ff1680612d43575060005460ff16155b612d5f5760405162461bcd60e51b8152600401610a289061322f565b600054610100900460ff16158015612d81576000805461ffff19166101011790555b6126dd336125cc565b60608315612d99575081610f18565b825115612da95782518084602001fd5b8160405162461bcd60e51b8152600401610a2891906131d2565b828054612dcf9061334e565b90600052602060002090601f016020900481019282612df15760008555612e37565b82601f10612e0a57805160ff1916838001178555612e37565b82800160010185558215612e37579182015b82811115612e37578251825591602001919060010190612e1c565b50612e43929150612e9c565b5090565b828054828255906000526020600020908101928215612e37579160200282015b82811115612e3757825182546001600160a01b0319166001600160a01b03909116178255602090920191600190910190612e67565b5b80821115612e435760008155600101612e9d565b80356001600160a01b03811681146118ba57600080fd5b600060208284031215612eda57600080fd5b610f1882612eb1565b60008060408385031215612ef657600080fd5b612eff83612eb1565b9150612f0d60208401612eb1565b90509250929050565b600080600060608486031215612f2b57600080fd5b612f3484612eb1565b9250612f4260208501612eb1565b9150604084013590509250925092565b600080600080600060a08688031215612f6a57600080fd5b612f7386612eb1565b9450612f8160208701612eb1565b94979496505050506040830135926060810135926080909101359150565b60008060408385031215612fb257600080fd5b612fbb83612eb1565b9150602083013567ffffffffffffffff80821115612fd857600080fd5b818501915085601f830112612fec57600080fd5b813581811115612ffe57612ffe6133e6565b604051601f8201601f19908116603f01168101908382118183101715613026576130266133e6565b8160405282815288602084870101111561303f57600080fd5b8260208601602083013760006020848301015280955050505050509250929050565b6000806040838503121561307457600080fd5b61307d83612eb1565b946020939093013593505050565b6000806000606084860312156130a057600080fd5b6130a984612eb1565b9250602084013591506130be60408501612eb1565b90509250925092565b6000602082840312156130d957600080fd5b81518015158114610f1857600080fd5b6000602082840312156130fb57600080fd5b5035919050565b60008060006060848603121561311757600080fd5b505081359360208301359350604090920135919050565b600080600080600060a0868803121561314657600080fd5b505083359560208501359550604085013594606081013594506080013592509050565b6000825161317b818460208701613322565b9190910192915050565b6020808252825182820181905260009190848201906040850190845b818110156131c65783516001600160a01b0316835292840192918401916001016131a1565b50909695505050505050565b60208152600082518060208401526131f1816040850160208701613322565b601f01601f19169190910160400192915050565b60208082526010908201526f14185d5cd8589b194e881c185d5cd95960821b604082015260600190565b6020808252602e908201527f496e697469616c697a61626c653a20636f6e747261637420697320616c72656160408201526d191e481a5b9a5d1a585b1a5e995960921b606082015260800190565b6020808252818101527f4f776e61626c653a2063616c6c6572206973206e6f7420746865206f776e6572604082015260600190565b600082198211156132c5576132c56133a4565b500190565b6000826132e757634e487b7160e01b600052601260045260246000fd5b500490565b6000816000190483118215151615613306576133066133a4565b500290565b60008282101561331d5761331d6133a4565b500390565b60005b8381101561333d578181015183820152602001613325565b83811115611cbf5750506000910152565b600181811c9082168061336257607f821691505b6020821081141561338357634e487b7160e01b600052602260045260246000fd5b50919050565b600060001982141561339d5761339d6133a4565b5060010190565b634e487b7160e01b600052601160045260246000fd5b634e487b7160e01b600052603160045260246000fd5b634e487b7160e01b600052603260045260246000fd5b634e487b7160e01b600052604160045260246000fdfe416464726573733a206c6f772d6c6576656c2064656c65676174652063616c6c206661696c6564ddf252ad1be2c89b69c2b068fc378daa952ba7f163c4a11628f55a4df523b3efa26469706673582212208d389f79f057103d1683f5af3581252fa6a054579264e7d0144688d5433007ca64736f6c63430008070033",
  "immutableReferences": {},
  "source": "// SPDX-License-Identifier: UNLICENSED\r\n\r\npragma solidity ^0.8.0;\r\n\r\nimport \"@openzeppelin/contracts-upgradeable/proxy/utils/Initializable.sol\";\r\nimport \"@openzeppelin/contracts-upgradeable/proxy/utils/UUPSUpgradeable.sol\";\r\nimport \"@openzeppelin/contracts-upgradeable/security/PausableUpgradeable.sol\";\r\nimport \"@openzeppelin/contracts-upgradeable/access/OwnableUpgradeable.sol\";\r\n\r\nabstract contract ERC20Interface {\r\n\r\n    function transfer(address to, uint tokens) public virtual returns (bool success);\r\n\r\n    function transferFrom(address from, address to, uint tokens) public virtual returns (bool success);\r\n\r\n}\r\n\r\ncontract PurseTokenUpgradableV2 is Initializable, UUPSUpgradeable, PausableUpgradeable, OwnableUpgradeable {\r\n\r\n    string public name;\r\n    string public symbol;\r\n    uint256 public totalSupply;\r\n    uint8 public decimals;\r\n    uint256 private minimumSupply;\r\n    address[] public admins;\r\n    address public liqPool;\r\n    address public disPool;\r\n    uint256 public burnPercent;\r\n    uint256 public liqPercent;\r\n    uint256 public disPercent;\r\n    \r\n    uint256 public _averageInterval;\r\n    uint256 public _getRewardEndTime;\r\n    uint256 public _getRewardStartTime;\r\n    uint256 public _numOfDaysPerMth;\r\n    uint256 public _monthlyDistributePr;\r\n    uint256 public _percentageDistribute;\r\n    uint256 public _lastRewardStartTime;\r\n    uint256 public _totalSupply;\r\n\r\n    mapping(address => uint256) public balanceOf;\r\n    mapping(address => mapping(address => uint256)) public allowance;\r\n    mapping(address => bool) public isAdmin;\r\n    mapping(address => bool) public isWhitelistedTo;\r\n    mapping(address => bool) public isWhitelistedFrom;\r\n    mapping(address => AccAmount) public accAmount;\r\n\r\n    struct AccAmount {\r\n        uint256 amount;\r\n        uint256 accReward;\r\n        uint256 lastUpdateTime;\r\n    }\r\n\r\n    event Transfer(address indexed _from, address indexed _to, uint256 _value);\r\n    event Burn(address indexed _from, uint256 _value);\r\n    event Mint(address indexed _from, address indexed _to, uint256 _value);\r\n    event Approval(address indexed _owner, address indexed _spender, uint256 _value);\r\n\r\n    modifier onlyAdmin() {\r\n        require(isAdmin[msg.sender]);\r\n        _;\r\n    }\r\n\r\n    function transfer(address _to, uint256 _value) public whenNotPaused returns (bool success)\r\n    {\r\n        require(_value >= 0);\r\n        require(balanceOf[msg.sender] >= _value);\r\n        if (isWhitelistedTo[_to] || isWhitelistedFrom[msg.sender]) {\r\n            updateAccumulateBalanceTransaction(msg.sender, _to); \r\n            balanceOf[msg.sender] -= _value;\r\n            balanceOf[_to] += _value;\r\n            \r\n           \r\n            emit Transfer(msg.sender, _to, _value);\r\n            return true;\r\n        } else {\r\n            updateAccumulateBalanceTransaction(msg.sender, _to);\r\n            uint256 transferValue = _partialBurn(_value, msg.sender);\r\n            balanceOf[msg.sender] -= transferValue;\r\n            balanceOf[_to] += transferValue;\r\n            \r\n\r\n            emit Transfer(msg.sender, _to, transferValue);\r\n            return true;\r\n        }\r\n    }\r\n    \r\n    function approve(address _spender, uint256 _value) public whenNotPaused returns (bool success)\r\n    {\r\n        allowance[msg.sender][_spender] = _value;\r\n        emit Approval(msg.sender, _spender, _value);\r\n        return true;\r\n    }\r\n\r\n    function transferFrom(address _from, address _to, uint256 _value) public whenNotPaused returns (bool success) {\r\n        require(_value >= 0);\r\n        require(_value <= balanceOf[_from]);\r\n        require(_value <= allowance[_from][msg.sender]);\r\n        if (isWhitelistedTo[_to] || isWhitelistedFrom[msg.sender]) {\r\n            allowance[_from][msg.sender] -= _value;\r\n            updateAccumulateBalanceTransaction(_from, _to);\r\n            balanceOf[_from] -= _value;\r\n            balanceOf[_to] += _value;\r\n            \r\n            emit Transfer(_from, _to, _value);\r\n            return true;\r\n        } else {\r\n            allowance[_from][msg.sender] -= _value;\r\n            updateAccumulateBalanceTransaction(_from, _to);\r\n            uint256 transferValue = _partialBurn(_value, _from);\r\n            balanceOf[_from] -= transferValue;\r\n            balanceOf[_to] += transferValue;\r\n\r\n            emit Transfer(_from, _to, transferValue);\r\n            return true;\r\n        }\r\n    }\r\n\r\n    function mint(address _account, uint256 _amount) public whenNotPaused onlyAdmin {\r\n        require(_account != address(0));\r\n        updateAccumulateBalance(_account, block.timestamp); \r\n        balanceOf[_account] += _amount;\r\n\r\n        totalSupply += _amount;\r\n        emit Mint(address(0), _account, _amount);\r\n    }\r\n\r\n    function burn(uint256 _amount) public whenNotPaused {\r\n        require(_amount != 0);\r\n        require(balanceOf[msg.sender] >= _amount);\r\n        updateAccumulateBalance(msg.sender, block.timestamp); \r\n        balanceOf[msg.sender] -= _amount;\r\n        totalSupply -= _amount;\r\n        emit Burn(msg.sender, _amount);\r\n    }\r\n    \r\n    function updateAccumulateBalance(address _holder, uint256 _updateTime) private {\r\n        if (accAmount[_holder].lastUpdateTime == 0) {\r\n            accAmount[_holder].lastUpdateTime = _updateTime;\r\n        } \r\n        else if (block.timestamp < _getRewardStartTime) {\r\n            if (accAmount[_holder].lastUpdateTime < _lastRewardStartTime) {\r\n                uint256 interval = (_updateTime - _lastRewardStartTime)/ _averageInterval;\r\n                uint256 accumulateAmount = balanceOf[_holder] * interval;\r\n                accAmount[_holder].lastUpdateTime = _lastRewardStartTime + (interval * 86400);\r\n                accAmount[_holder].amount = accumulateAmount;            \r\n            } \r\n            else {\r\n            uint256 interval = (_updateTime - accAmount[_holder].lastUpdateTime)/ _averageInterval;\r\n                if (interval >= 1) {\r\n                    uint256 accumulateAmount = balanceOf[_holder] * interval;\r\n                    accAmount[_holder].lastUpdateTime += (interval * 86400);\r\n                    accAmount[_holder].amount = accAmount[_holder].amount + accumulateAmount;                     \r\n                }\r\n            }\r\n        } \r\n        else if(block.timestamp >= _getRewardStartTime) {\r\n            if (accAmount[_holder].lastUpdateTime < _lastRewardStartTime) {\r\n                uint256 interval = (_getRewardStartTime - _lastRewardStartTime)/ _averageInterval;\r\n                uint256 lastmonthAccAmount = balanceOf[_holder] * interval;\r\n                accAmount[_holder].amount = 0;\r\n                accAmount[_holder].accReward = lastmonthAccAmount * _monthlyDistributePr * _percentageDistribute * 100 / _totalSupply / _numOfDaysPerMth / 10000;\r\n                accAmount[_holder].lastUpdateTime = _getRewardStartTime;\r\n                updateAccumulateBalance(_holder, block.timestamp);\r\n            } \r\n            else if (accAmount[_holder].lastUpdateTime >= _lastRewardStartTime && accAmount[_holder].lastUpdateTime < _getRewardStartTime) {\r\n                uint256 interval = (_getRewardStartTime - accAmount[_holder].lastUpdateTime)/ _averageInterval;\r\n                if (interval >= 1) {\r\n                    uint256 accumulateAmount = balanceOf[_holder] * interval;\r\n                    uint256 lastmonthAccAmount = accAmount[_holder].amount + accumulateAmount; \r\n                    accAmount[_holder].amount = 0;\r\n                    accAmount[_holder].accReward = lastmonthAccAmount * _monthlyDistributePr * _percentageDistribute * 100 / _totalSupply / _numOfDaysPerMth / 10000;\r\n                    accAmount[_holder].lastUpdateTime = _getRewardStartTime;\r\n                    updateAccumulateBalance(_holder, block.timestamp);\r\n                } \r\n                else {\r\n                    uint256 lastmonthAccAmount = accAmount[_holder].amount;\r\n                    accAmount[_holder].amount = 0;\r\n                    accAmount[_holder].accReward = lastmonthAccAmount * _monthlyDistributePr * _percentageDistribute * 100 / _totalSupply / _numOfDaysPerMth / 10000;\r\n                    accAmount[_holder].lastUpdateTime = _getRewardStartTime;\r\n                    updateAccumulateBalance(_holder, block.timestamp);\r\n                }\r\n            } \r\n            else {\r\n                uint256 interval = (_updateTime - accAmount[_holder].lastUpdateTime)/ _averageInterval;\r\n                if (interval >= 1) {\r\n                    uint256 accumulateAmount = balanceOf[_holder] * interval;\r\n                    accAmount[_holder].lastUpdateTime += (interval * 86400);\r\n                    accAmount[_holder].amount = accAmount[_holder].amount + accumulateAmount;                     \r\n                }\r\n            }\r\n        }\r\n    }\r\n    \r\n    \r\n    \r\n    function updateAccumulateBalanceTransaction(address _from, address _to) private {\r\n        updateAccumulateBalance(_from, block.timestamp);\r\n        updateAccumulateBalance(_to, block.timestamp);\r\n    }\r\n    \r\n    function updateAccumulateBalanceClaim(address _holder) private {\r\n        updateAccumulateBalance(_holder, _getRewardStartTime);\r\n    }\r\n\r\n    function claimDistributionPurse() public whenNotPaused returns(bool success) {\r\n        require(block.timestamp < _getRewardEndTime);\r\n        require(block.timestamp > _getRewardStartTime);\r\n        uint256 claimAmount;\r\n        if (accAmount[msg.sender].lastUpdateTime < _getRewardStartTime) {\r\n            updateAccumulateBalanceClaim(msg.sender);\r\n    \r\n            claimAmount = accAmount[msg.sender].amount * _monthlyDistributePr * _percentageDistribute * 100 / _totalSupply / _numOfDaysPerMth / 10000;\r\n\r\n            accAmount[msg.sender].lastUpdateTime = _getRewardStartTime;\r\n            accAmount[msg.sender].amount = 0;\r\n            updateAccumulateBalance(msg.sender, block.timestamp);            \r\n        } else {\r\n            require(accAmount[msg.sender].accReward > 0);\r\n            claimAmount = accAmount[msg.sender].accReward;\r\n            accAmount[msg.sender].accReward = 0;\r\n        }\r\n\r\n        ERC20Interface(address(this)).transfer(msg.sender, claimAmount);\r\n        return true;\r\n    }\r\n    \r\n    function activateClaimMonthly(uint256 _rewardStartTime, uint256 _rewardEndTime, uint256 _monthlyDisPr, uint256 _numOfDays, uint256 _percentage) public onlyOwner {\r\n        require(_rewardStartTime > block.timestamp );\r\n        require(_rewardEndTime > _rewardStartTime);\r\n        require(_numOfDays > 0);\r\n        require(_percentage > 0);\r\n        \r\n        _totalSupply = totalSupply;\r\n        _lastRewardStartTime = _getRewardStartTime;\r\n        _numOfDaysPerMth = _numOfDays;\r\n        _getRewardStartTime = _rewardStartTime;\r\n        _getRewardEndTime = _rewardEndTime;\r\n        _percentageDistribute = _percentage;\r\n        _monthlyDistributePr = _monthlyDisPr;\r\n    }\r\n\r\n    function _partialBurn(uint256 _amount, address _from) internal returns (uint256) {\r\n        uint256 transferAmount = 0;\r\n        uint256 burnAmount;\r\n        uint256 liqAmount;\r\n        uint256 disAmount;\r\n        (\r\n            burnAmount,\r\n            liqAmount,\r\n            disAmount\r\n        ) = _calculateDeductAmount(_amount);\r\n\r\n        if (burnAmount >= 0 || liqAmount >= 0 || disAmount >= 0) {\r\n            burnPrivate(_from, burnAmount, liqAmount, disAmount);\r\n        }\r\n        transferAmount = _amount - burnAmount - liqAmount - disAmount;\r\n\r\n        return transferAmount;\r\n    }\r\n\r\n    function _calculateDeductAmount(uint256 _amount) internal view returns (uint256, uint256, uint256) {\r\n        uint256 burnAmount;\r\n        uint256 liqAmount;\r\n        uint256 disAmount;\r\n\r\n        if (totalSupply > minimumSupply) {\r\n            burnAmount = (_amount * burnPercent) / 100;\r\n            liqAmount = (_amount * liqPercent) / 100;\r\n            disAmount = (_amount * disPercent) / 100;\r\n            uint256 availableBurn = totalSupply - minimumSupply;\r\n            if (burnAmount > availableBurn) {\r\n                burnAmount = availableBurn;\r\n            }\r\n        }\r\n        return (burnAmount, liqAmount, disAmount);\r\n    }\r\n\r\n    function burnPrivate( address _account, uint256 _burnAmount, uint256 _liqAmount, uint256 _disAmount) private {\r\n        require(_account != address(0));\r\n        uint256 accountBalance = balanceOf[_account];\r\n        uint256 deductAmount = _burnAmount + _liqAmount + _disAmount;\r\n        require(accountBalance >= deductAmount);\r\n        balanceOf[_account] -= _burnAmount;\r\n        balanceOf[_account] -= _liqAmount;\r\n        balanceOf[_account] -= _disAmount;\r\n\r\n        totalSupply -= _burnAmount;\r\n        updateAccumulateBalanceTransaction(disPool, liqPool); \r\n        balanceOf[liqPool] += _liqAmount;\r\n        balanceOf[disPool] += _disAmount;\r\n\r\n        emit Burn(_account, _burnAmount);\r\n        emit Transfer(msg.sender, liqPool, _liqAmount);\r\n        emit Transfer(msg.sender, disPool, _disAmount);\r\n    }\r\n    \r\n    function updateLPoolAdd(address _newLPool) public onlyOwner {\r\n        require(_newLPool != liqPool);\r\n\r\n        liqPool = _newLPool;\r\n    }\r\n\r\n    function updateDPoolAdd(address _newDPool) public onlyOwner {\r\n        require(_newDPool != disPool);\r\n\r\n        disPool = _newDPool;\r\n    }\r\n    \r\n    function updatePercent(uint256 _newDisPercent, uint256 _newLiqPercent, uint256 _newBurnPercent) public onlyOwner {\r\n        require(_newDisPercent >= 0 && _newDisPercent <= 100 && _newLiqPercent >= 0 && _newLiqPercent <= 100 && _newBurnPercent >= 0 && _newBurnPercent <= 100);\r\n        require(_newDisPercent + _newLiqPercent + _newBurnPercent <= 100);\r\n        \r\n        disPercent = _newDisPercent;\r\n        liqPercent = _newLiqPercent;\r\n        burnPercent = _newBurnPercent;\r\n    }\r\n\r\n    function addAdmin(address newAdmin) public onlyOwner{\r\n        // require(newAdmin != address(0));\r\n        require(!isAdmin[newAdmin]);\r\n\r\n        isAdmin[newAdmin] = true;\r\n        admins.push(newAdmin);\r\n    }\r\n\r\n    function removeAdmin(uint index) public onlyOwner returns (address[] memory){\r\n        address removeOwner = admins[index];\r\n        require(index < admins.length);\r\n        require(isAdmin[removeOwner]);\r\n        \r\n        for (uint i = index; i<admins.length-1; i++){\r\n            admins[i] = admins[i+1];\r\n        }\r\n        admins.pop();\r\n\r\n        isAdmin[removeOwner] = false;\r\n        return admins;\r\n    }\r\n\r\n    function getAdmins() public view returns (address[] memory) {\r\n        return admins;\r\n    }\r\n    \r\n    function transferERCToken(address token, uint256 amount, address _to) public whenNotPaused onlyOwner{\r\n        require(_to != address(0));\r\n        if (token == address(this)) {\r\n            updateAccumulateBalanceTransaction(address(this), _to);\r\n            ERC20Interface(token).transfer(_to, amount);\r\n        } else {\r\n            ERC20Interface(token).transfer(_to, amount);          \r\n        }\r\n    } \r\n\r\n    function pause() public whenNotPaused onlyOwner {\r\n        _pause();\r\n    }\r\n\r\n    function unpause() public whenPaused onlyOwner {\r\n        _unpause();\r\n    }\r\n    \r\n    function setWhitelistedTo(address newWhitelist) public onlyOwner {\r\n        require(!isWhitelistedTo[newWhitelist]);\r\n\r\n        isWhitelistedTo[newWhitelist] = true;\r\n    }\r\n\r\n    function removeWhitelistedTo(address newWhitelist) public onlyOwner {\r\n        require(isWhitelistedTo[newWhitelist]);\r\n\r\n        isWhitelistedTo[newWhitelist] = false;\r\n    }\r\n\r\n    function setWhitelistedFrom(address newWhitelist) public onlyOwner {\r\n        require(!isWhitelistedFrom[newWhitelist]);\r\n\r\n        isWhitelistedFrom[newWhitelist] = true;\r\n    }\r\n\r\n    function removeWhitelistedFrom(address newWhitelist) public onlyOwner {\r\n        require(isWhitelistedFrom[newWhitelist]);\r\n\r\n        isWhitelistedFrom[newWhitelist] = false;\r\n    }\r\n\r\n    function _authorizeUpgrade(address) internal override onlyOwner {}\r\n\r\n    function initialize(\r\n        address _to,\r\n        address _lPool,\r\n        uint256 _burnPercent,\r\n        uint256 _liqPercent,\r\n        uint256 _disPercent\r\n    ) public initializer {\r\n        require(_lPool != address(0));\r\n        require(_burnPercent >= 0);\r\n        require(_liqPercent >= 0);\r\n        require(_disPercent >= 0);\r\n\r\n        name = \"PURSE Token\";\r\n        symbol = \"PURSE\";\r\n        totalSupply = 64000000000 * (10**18); // 64 billion tokens\r\n        decimals = 18;\r\n        minimumSupply = 20000 * (10**18);\r\n\r\n        liqPool = _lPool;\r\n        disPool = address(this);\r\n        burnPercent = _burnPercent;\r\n        liqPercent = _liqPercent;\r\n        disPercent = _disPercent;\r\n        admins = [msg.sender];\r\n        _averageInterval = 1 days;       // update to 1 days in mainnet(prod)\r\n        __Pausable_init();\r\n        __Ownable_init();\r\n        __UUPSUpgradeable_init();\r\n        \r\n        balanceOf[_to] = totalSupply;\r\n        updateAccumulateBalance(_to, block.timestamp); \r\n        emit Mint(address(0), _to, totalSupply);\r\n    }\r\n}",
  "sourcePath": "C:/Users/cheek/Desktop/Developer doc/Visual Studio Code/PundiX/YieldFarm_BridgeEthBsc/src/contracts/PurseTokenUpgradableV2.sol",
  "compiler": {
    "name": "solc",
    "version": "0.8.7+commit.e28d00a7.Emscripten.clang"
  },
  "schemaVersion": "3.2.3",
  "updatedAt": "2021-09-18T13:43:11.661Z",
  "networkType": "ethereum",
  "devdoc": {
    "kind": "dev",
    "methods": {
      "owner()": {
        "details": "Returns the address of the current owner."
      },
      "paused()": {
        "details": "Returns true if the contract is paused, and false otherwise."
      },
      "renounceOwnership()": {
        "details": "Leaves the contract without owner. It will not be possible to call `onlyOwner` functions anymore. Can only be called by the current owner. NOTE: Renouncing ownership will leave the contract without an owner, thereby removing any functionality that is only available to the owner."
      },
      "transferOwnership(address)": {
        "details": "Transfers ownership of the contract to a new account (`newOwner`). Can only be called by the current owner."
      },
      "upgradeTo(address)": {
        "details": "Upgrade the implementation of the proxy to `newImplementation`. Calls {_authorizeUpgrade}. Emits an {Upgraded} event."
      },
      "upgradeToAndCall(address,bytes)": {
        "details": "Upgrade the implementation of the proxy to `newImplementation`, and subsequently execute the function call encoded in `data`. Calls {_authorizeUpgrade}. Emits an {Upgraded} event."
      }
    },
    "version": 1
  },
  "userdoc": {
    "kind": "user",
    "methods": {},
    "version": 1
  }
}