{
  "contractName": "PurseDistribution",
  "abi": [
    {
      "inputs": [
        {
          "internalType": "contract PurseTokenUpgradable",
          "name": "_purseToken",
          "type": "address"
        }
      ],
      "stateMutability": "nonpayable",
      "type": "constructor"
    },
    {
      "anonymous": false,
      "inputs": [
        {
          "indexed": true,
          "internalType": "address",
          "name": "sender",
          "type": "address"
        },
        {
          "indexed": false,
          "internalType": "uint256",
          "name": "iteration",
          "type": "uint256"
        }
      ],
      "name": "addHolder",
      "type": "event"
    },
    {
      "anonymous": false,
      "inputs": [
        {
          "indexed": true,
          "internalType": "address",
          "name": "owner",
          "type": "address"
        },
        {
          "indexed": false,
          "internalType": "uint256",
          "name": "amount",
          "type": "uint256"
        },
        {
          "indexed": false,
          "internalType": "uint256",
          "name": "Iteration_End",
          "type": "uint256"
        }
      ],
      "name": "claimAllReward",
      "type": "event"
    },
    {
      "anonymous": false,
      "inputs": [
        {
          "indexed": true,
          "internalType": "address",
          "name": "owner",
          "type": "address"
        },
        {
          "indexed": false,
          "internalType": "uint256",
          "name": "amount",
          "type": "uint256"
        },
        {
          "indexed": true,
          "internalType": "uint256",
          "name": "Iteration",
          "type": "uint256"
        }
      ],
      "name": "claimReward",
      "type": "event"
    },
    {
      "anonymous": false,
      "inputs": [
        {
          "indexed": true,
          "internalType": "address",
          "name": "sender",
          "type": "address"
        },
        {
          "indexed": false,
          "internalType": "uint256",
          "name": "iteration",
          "type": "uint256"
        }
      ],
      "name": "updateHolder",
      "type": "event"
    },
    {
      "inputs": [],
      "name": "endDistribution",
      "outputs": [
        {
          "internalType": "uint256",
          "name": "",
          "type": "uint256"
        }
      ],
      "stateMutability": "view",
      "type": "function",
      "constant": true
    },
    {
      "inputs": [
        {
          "internalType": "address",
          "name": "",
          "type": "address"
        },
        {
          "internalType": "uint256",
          "name": "",
          "type": "uint256"
        }
      ],
      "name": "holder",
      "outputs": [
        {
          "internalType": "uint256",
          "name": "distributeAmount",
          "type": "uint256"
        },
        {
          "internalType": "bool",
          "name": "isRedeem",
          "type": "bool"
        }
      ],
      "stateMutability": "view",
      "type": "function",
      "constant": true
    },
    {
      "inputs": [],
      "name": "isClaimStart",
      "outputs": [
        {
          "internalType": "bool",
          "name": "",
          "type": "bool"
        }
      ],
      "stateMutability": "view",
      "type": "function",
      "constant": true
    },
    {
      "inputs": [],
      "name": "name",
      "outputs": [
        {
          "internalType": "string",
          "name": "",
          "type": "string"
        }
      ],
      "stateMutability": "view",
      "type": "function",
      "constant": true
    },
    {
      "inputs": [
        {
          "internalType": "uint256",
          "name": "",
          "type": "uint256"
        }
      ],
      "name": "numOfHolder",
      "outputs": [
        {
          "internalType": "uint256",
          "name": "",
          "type": "uint256"
        }
      ],
      "stateMutability": "view",
      "type": "function",
      "constant": true
    },
    {
      "inputs": [],
      "name": "owner",
      "outputs": [
        {
          "internalType": "address",
          "name": "",
          "type": "address"
        }
      ],
      "stateMutability": "view",
      "type": "function",
      "constant": true
    },
    {
      "inputs": [],
      "name": "purseToken",
      "outputs": [
        {
          "internalType": "contract PurseTokenUpgradable",
          "name": "",
          "type": "address"
        }
      ],
      "stateMutability": "view",
      "type": "function",
      "constant": true
    },
    {
      "inputs": [],
      "name": "validDuration",
      "outputs": [
        {
          "internalType": "uint256",
          "name": "",
          "type": "uint256"
        }
      ],
      "stateMutability": "view",
      "type": "function",
      "constant": true
    },
    {
      "inputs": [
        {
          "internalType": "address[]",
          "name": "_holder",
          "type": "address[]"
        },
        {
          "internalType": "uint256[]",
          "name": "_amount",
          "type": "uint256[]"
        },
        {
          "internalType": "uint256",
          "name": "iteration",
          "type": "uint256"
        }
      ],
      "name": "addHolderInfo",
      "outputs": [],
      "stateMutability": "nonpayable",
      "type": "function"
    },
    {
      "inputs": [
        {
          "internalType": "address[]",
          "name": "_holder",
          "type": "address[]"
        },
        {
          "internalType": "uint256[]",
          "name": "_amount",
          "type": "uint256[]"
        },
        {
          "internalType": "uint256",
          "name": "iteration",
          "type": "uint256"
        }
      ],
      "name": "updateHolderInfo",
      "outputs": [],
      "stateMutability": "nonpayable",
      "type": "function"
    },
    {
      "inputs": [
        {
          "internalType": "bool",
          "name": "check",
          "type": "bool"
        }
      ],
      "name": "startClaim",
      "outputs": [],
      "stateMutability": "nonpayable",
      "type": "function"
    },
    {
      "inputs": [
        {
          "internalType": "address[]",
          "name": "_holder",
          "type": "address[]"
        },
        {
          "internalType": "uint256[]",
          "name": "_amount",
          "type": "uint256[]"
        },
        {
          "internalType": "uint256",
          "name": "iteration",
          "type": "uint256"
        }
      ],
      "name": "checkData",
      "outputs": [
        {
          "internalType": "uint256",
          "name": "",
          "type": "uint256"
        },
        {
          "internalType": "bool",
          "name": "",
          "type": "bool"
        }
      ],
      "stateMutability": "view",
      "type": "function",
      "constant": true
    },
    {
      "inputs": [
        {
          "internalType": "uint256",
          "name": "iteration",
          "type": "uint256"
        }
      ],
      "name": "claim",
      "outputs": [],
      "stateMutability": "nonpayable",
      "type": "function"
    },
    {
      "inputs": [
        {
          "internalType": "uint256",
          "name": "iteration_end",
          "type": "uint256"
        }
      ],
      "name": "claimAll",
      "outputs": [],
      "stateMutability": "nonpayable",
      "type": "function"
    },
    {
      "inputs": [
        {
          "internalType": "address",
          "name": "_to",
          "type": "address"
        }
      ],
      "name": "returnPurseToken",
      "outputs": [],
      "stateMutability": "nonpayable",
      "type": "function"
    },
    {
      "inputs": [
        {
          "internalType": "address",
          "name": "token",
          "type": "address"
        },
        {
          "internalType": "uint256",
          "name": "amount",
          "type": "uint256"
        },
        {
          "internalType": "address",
          "name": "_to",
          "type": "address"
        }
      ],
      "name": "returnAnyToken",
      "outputs": [],
      "stateMutability": "nonpayable",
      "type": "function"
    },
    {
      "inputs": [
        {
          "internalType": "address",
          "name": "_owner",
          "type": "address"
        }
      ],
      "name": "updateOwner",
      "outputs": [],
      "stateMutability": "nonpayable",
      "type": "function"
    }
  ],
  "bytecode": "0x60806040526040518060400160405280601281526020017f507572736520446973747269627574696f6e0000000000000000000000000000815250600090805190602001906200005192919062000115565b503480156200005f57600080fd5b5060405162002564380380620025648339818101604052810190620000859190620001dc565b80600160006101000a81548173ffffffffffffffffffffffffffffffffffffffff021916908373ffffffffffffffffffffffffffffffffffffffff16021790555033600260006101000a81548173ffffffffffffffffffffffffffffffffffffffff021916908373ffffffffffffffffffffffffffffffffffffffff1602179055504260048190555050620002da565b828054620001239062000256565b90600052602060002090601f01602090048101928262000147576000855562000193565b82601f106200016257805160ff191683800117855562000193565b8280016001018555821562000193579182015b828111156200019257825182559160200191906001019062000175565b5b509050620001a29190620001a6565b5090565b5b80821115620001c1576000816000905550600101620001a7565b5090565b600081519050620001d681620002c0565b92915050565b600060208284031215620001f557620001f4620002bb565b5b60006200020584828501620001c5565b91505092915050565b60006200021b8262000236565b9050919050565b60006200022f826200020e565b9050919050565b600073ffffffffffffffffffffffffffffffffffffffff82169050919050565b600060028204905060018216806200026f57607f821691505b602082108114156200028657620002856200028c565b5b50919050565b7f4e487b7100000000000000000000000000000000000000000000000000000000600052602260045260246000fd5b600080fd5b620002cb8162000222565b8114620002d757600080fd5b50565b61227a80620002ea6000396000f3fe608060405234801561001057600080fd5b506004361061010b5760003560e01c806362da19d4116100a257806389f830b21161007157806389f830b2146102a65780638da5cb5b146102c2578063c237e326146102e0578063e650d293146102fc578063f09de43f1461031a5761010b565b806362da19d41461021f57806364c76117146102505780636930fd2a1461026e578063880cdc311461028a5761010b565b8063379607f5116100de578063379607f5146101985780633f594c4f146101b457806351bf16ef146101e5578063603d65a6146102035761010b565b806306fdde031461011057806319953d681461012e5780632948ff411461014a5780632d6008e414610168575b600080fd5b610118610336565b6040516101259190611d1c565b60405180910390f35b610148600480360381019061014391906119ef565b6103c4565b005b6101526106bc565b60405161015f9190611e1e565b60405180910390f35b610182600480360381019061017d9190611ade565b6106c3565b60405161018f9190611e1e565b60405180910390f35b6101b260048036038101906101ad9190611ade565b6106db565b005b6101ce60048036038101906101c9919061195c565b6109ad565b6040516101dc929190611e39565b60405180910390f35b6101ed6109eb565b6040516101fa9190611d01565b60405180910390f35b61021d600480360381019061021891906119ef565b610a11565b005b610239600480360381019061023491906119ef565b610ccf565b604051610247929190611e39565b60405180910390f35b610258610dad565b6040516102659190611e1e565b60405180910390f35b61028860048036038101906102839190611ade565b610db3565b005b6102a4600480360381019061029f919061192f565b61112c565b005b6102c060048036038101906102bb9190611a84565b611301565b005b6102ca6113eb565b6040516102d79190611ca2565b60405180910390f35b6102fa60048036038101906102f5919061199c565b611411565b005b6103046115a4565b6040516103119190611ce6565b60405180910390f35b610334600480360381019061032f919061192f565b6115b7565b005b6000805461034390611fae565b80601f016020809104026020016040519081016040528092919081815260200182805461036f90611fae565b80156103bc5780601f10610391576101008083540402835291602001916103bc565b820191906000526020600020905b81548152906001019060200180831161039f57829003601f168201915b505050505081565b600260009054906101000a900473ffffffffffffffffffffffffffffffffffffffff1673ffffffffffffffffffffffffffffffffffffffff163373ffffffffffffffffffffffffffffffffffffffff1614610454576040517f08c379a000000000000000000000000000000000000000000000000000000000815260040161044b90611dfe565b60405180910390fd5b600083839050868690501461049e576040517f08c379a000000000000000000000000000000000000000000000000000000000815260040161049590611d3e565b60405180910390fd5b5b858590508110156106665760008484838181106104bf576104be612087565b5b9050602002013511801561054d57506000600660008888858181106104e7576104e6612087565b5b90506020020160208101906104fc919061192f565b73ffffffffffffffffffffffffffffffffffffffff1673ffffffffffffffffffffffffffffffffffffffff168152602001908152602001600020600084815260200190815260200160002060000154145b156106535760405180604001604052808585848181106105705761056f612087565b5b905060200201358152602001600015158152506006600088888581811061059a57610599612087565b5b90506020020160208101906105af919061192f565b73ffffffffffffffffffffffffffffffffffffffff1673ffffffffffffffffffffffffffffffffffffffff16815260200190815260200160002060008481526020019081526020016000206000820151816000015560208201518160010160006101000a81548160ff021916908315150217905550905050600160076000848152602001908152602001600020600082825461064b9190611ea7565b925050819055505b808061065e90611fe0565b91505061049f565b3373ffffffffffffffffffffffffffffffffffffffff167f61f152361c81724040ee7c9387deb92fa0eea588ae5d8bb4695a22fa113c208e836040516106ac9190611e1e565b60405180910390a2505050505050565b6277f88081565b60076020528060005260406000206000915090505481565b60011515600560009054906101000a900460ff161515146106fb57600080fd5b600354421061073f576040517f08c379a000000000000000000000000000000000000000000000000000000000815260040161073690611d9e565b60405180910390fd5b60001515600660003373ffffffffffffffffffffffffffffffffffffffff1673ffffffffffffffffffffffffffffffffffffffff168152602001908152602001600020600083815260200190815260200160002060010160009054906101000a900460ff161515146107e6576040517f08c379a00000000000000000000000000000000000000000000000000000000081526004016107dd90611dbe565b60405180910390fd5b6001600660003373ffffffffffffffffffffffffffffffffffffffff1673ffffffffffffffffffffffffffffffffffffffff168152602001908152602001600020600083815260200190815260200160002060010160006101000a81548160ff0219169083151502179055506000600660003373ffffffffffffffffffffffffffffffffffffffff1673ffffffffffffffffffffffffffffffffffffffff1681526020019081526020016000206000838152602001908152602001600020600001549050600160009054906101000a900473ffffffffffffffffffffffffffffffffffffffff1673ffffffffffffffffffffffffffffffffffffffff1663a9059cbb33836040518363ffffffff1660e01b8152600401610907929190611cbd565b602060405180830381600087803b15801561092157600080fd5b505af1158015610935573d6000803e3d6000fd5b505050506040513d601f19601f820116820180604052508101906109599190611ab1565b50813373ffffffffffffffffffffffffffffffffffffffff167f9d06fc9af1e0d81649eba41f3599f74e3dc8b0881aa0d622585d707fad3ac2a2836040516109a19190611e1e565b60405180910390a35050565b6006602052816000526040600020602052806000526040600020600091509150508060000154908060010160009054906101000a900460ff16905082565b600160009054906101000a900473ffffffffffffffffffffffffffffffffffffffff1681565b600260009054906101000a900473ffffffffffffffffffffffffffffffffffffffff1673ffffffffffffffffffffffffffffffffffffffff163373ffffffffffffffffffffffffffffffffffffffff1614610aa1576040517f08c379a0000000000000000000000000000000000000000000000000000000008152600401610a9890611dfe565b60405180910390fd5b6000838390508686905014610aeb576040517f08c379a0000000000000000000000000000000000000000000000000000000008152600401610ae290611d3e565b60405180910390fd5b5b85859050811015610c79576001151560066000888885818110610b1257610b11612087565b5b9050602002016020810190610b27919061192f565b73ffffffffffffffffffffffffffffffffffffffff1673ffffffffffffffffffffffffffffffffffffffff168152602001908152602001600020600084815260200190815260200160002060010160009054906101000a900460ff1615151415610b9057610c66565b6040518060400160405280858584818110610bae57610bad612087565b5b9050602002013581526020016000151581525060066000888885818110610bd857610bd7612087565b5b9050602002016020810190610bed919061192f565b73ffffffffffffffffffffffffffffffffffffffff1673ffffffffffffffffffffffffffffffffffffffff16815260200190815260200160002060008481526020019081526020016000206000820151816000015560208201518160010160006101000a81548160ff0219169083151502179055509050505b8080610c7190611fe0565b915050610aec565b3373ffffffffffffffffffffffffffffffffffffffff167f9e2057e5eb47a9914f114cc7d4b9a13c5f1f81ede19b1abcfd2e4115b7b2fc8383604051610cbf9190611e1e565b60405180910390a2505050505050565b60008060005b87879050811015610d9a57858582818110610cf357610cf2612087565b5b90506020020135600660008a8a85818110610d1157610d10612087565b5b9050602002016020810190610d26919061192f565b73ffffffffffffffffffffffffffffffffffffffff1673ffffffffffffffffffffffffffffffffffffffff16815260200190815260200160002060008681526020019081526020016000206000015414610d87578060009250925050610da3565b8080610d9290611fe0565b915050610cd5565b80600192509250505b9550959350505050565b60035481565b60011515600560009054906101000a900460ff16151514610dd357600080fd5b6003544210610e17576040517f08c379a0000000000000000000000000000000000000000000000000000000008152600401610e0e90611d9e565b60405180910390fd5b6000805b82811161101d5760001515600660003373ffffffffffffffffffffffffffffffffffffffff1673ffffffffffffffffffffffffffffffffffffffff168152602001908152602001600020600083815260200190815260200160002060010160009054906101000a900460ff161515141561100a5760001515600660003373ffffffffffffffffffffffffffffffffffffffff1673ffffffffffffffffffffffffffffffffffffffff168152602001908152602001600020600083815260200190815260200160002060010160009054906101000a900460ff16151514610f36576040517f08c379a0000000000000000000000000000000000000000000000000000000008152600401610f2d90611dbe565b60405180910390fd5b6001600660003373ffffffffffffffffffffffffffffffffffffffff1673ffffffffffffffffffffffffffffffffffffffff168152602001908152602001600020600083815260200190815260200160002060010160006101000a81548160ff0219169083151502179055506000600660003373ffffffffffffffffffffffffffffffffffffffff1673ffffffffffffffffffffffffffffffffffffffff168152602001908152602001600020600083815260200190815260200160002060000154905080836110069190611ea7565b9250505b808061101590611fe0565b915050610e1b565b5060008111156110d857600160009054906101000a900473ffffffffffffffffffffffffffffffffffffffff1673ffffffffffffffffffffffffffffffffffffffff1663a9059cbb33836040518363ffffffff1660e01b8152600401611084929190611cbd565b602060405180830381600087803b15801561109e57600080fd5b505af11580156110b2573d6000803e3d6000fd5b505050506040513d601f19601f820116820180604052508101906110d69190611ab1565b505b3373ffffffffffffffffffffffffffffffffffffffff167f984e2f0e1b5ed8ebd9ae70fdcdc7fcd417ee2dcff4f94b89330acd73c2e6a8d18284604051611120929190611e62565b60405180910390a25050565b600260009054906101000a900473ffffffffffffffffffffffffffffffffffffffff1673ffffffffffffffffffffffffffffffffffffffff163373ffffffffffffffffffffffffffffffffffffffff16146111bc576040517f08c379a00000000000000000000000000000000000000000000000000000000081526004016111b390611dfe565b60405180910390fd5b600073ffffffffffffffffffffffffffffffffffffffff168173ffffffffffffffffffffffffffffffffffffffff16141561122c576040517f08c379a000000000000000000000000000000000000000000000000000000000815260040161122390611d7e565b60405180910390fd5b600260009054906101000a900473ffffffffffffffffffffffffffffffffffffffff1673ffffffffffffffffffffffffffffffffffffffff168173ffffffffffffffffffffffffffffffffffffffff1614156112bd576040517f08c379a00000000000000000000000000000000000000000000000000000000081526004016112b490611d5e565b60405180910390fd5b80600260006101000a81548173ffffffffffffffffffffffffffffffffffffffff021916908373ffffffffffffffffffffffffffffffffffffffff16021790555050565b600260009054906101000a900473ffffffffffffffffffffffffffffffffffffffff1673ffffffffffffffffffffffffffffffffffffffff163373ffffffffffffffffffffffffffffffffffffffff1614611391576040517f08c379a000000000000000000000000000000000000000000000000000000000815260040161138890611dfe565b60405180910390fd5b80156113cc576277f880426113a69190611ea7565b6003819055506001600560006101000a81548160ff0219169083151502179055506113e8565b6000600560006101000a81548160ff0219169083151502179055505b50565b600260009054906101000a900473ffffffffffffffffffffffffffffffffffffffff1681565b600260009054906101000a900473ffffffffffffffffffffffffffffffffffffffff1673ffffffffffffffffffffffffffffffffffffffff163373ffffffffffffffffffffffffffffffffffffffff16146114a1576040517f08c379a000000000000000000000000000000000000000000000000000000000815260040161149890611dfe565b60405180910390fd5b600073ffffffffffffffffffffffffffffffffffffffff168173ffffffffffffffffffffffffffffffffffffffff161415611511576040517f08c379a000000000000000000000000000000000000000000000000000000000815260040161150890611dde565b60405180910390fd5b8273ffffffffffffffffffffffffffffffffffffffff1663a9059cbb82846040518363ffffffff1660e01b815260040161154c929190611cbd565b602060405180830381600087803b15801561156657600080fd5b505af115801561157a573d6000803e3d6000fd5b505050506040513d601f19601f8201168201806040525081019061159e9190611ab1565b50505050565b600560009054906101000a900460ff1681565b600260009054906101000a900473ffffffffffffffffffffffffffffffffffffffff1673ffffffffffffffffffffffffffffffffffffffff163373ffffffffffffffffffffffffffffffffffffffff1614611647576040517f08c379a000000000000000000000000000000000000000000000000000000000815260040161163e90611dfe565b60405180910390fd5b600073ffffffffffffffffffffffffffffffffffffffff168173ffffffffffffffffffffffffffffffffffffffff1614156116b7576040517f08c379a00000000000000000000000000000000000000000000000000000000081526004016116ae90611dde565b60405180910390fd5b6000600160009054906101000a900473ffffffffffffffffffffffffffffffffffffffff1673ffffffffffffffffffffffffffffffffffffffff166370a08231306040518263ffffffff1660e01b81526004016117149190611ca2565b60206040518083038186803b15801561172c57600080fd5b505afa158015611740573d6000803e3d6000fd5b505050506040513d601f19601f820116820180604052508101906117649190611b0b565b9050600160009054906101000a900473ffffffffffffffffffffffffffffffffffffffff1673ffffffffffffffffffffffffffffffffffffffff1663a9059cbb83836040518363ffffffff1660e01b81526004016117c3929190611cbd565b602060405180830381600087803b1580156117dd57600080fd5b505af11580156117f1573d6000803e3d6000fd5b505050506040513d601f19601f820116820180604052508101906118159190611ab1565b505050565b600081359050611829816121ff565b92915050565b60008083601f840112611845576118446120bb565b5b8235905067ffffffffffffffff811115611862576118616120b6565b5b60208301915083602082028301111561187e5761187d6120c0565b5b9250929050565b60008083601f84011261189b5761189a6120bb565b5b8235905067ffffffffffffffff8111156118b8576118b76120b6565b5b6020830191508360208202830111156118d4576118d36120c0565b5b9250929050565b6000813590506118ea81612216565b92915050565b6000815190506118ff81612216565b92915050565b6000813590506119148161222d565b92915050565b6000815190506119298161222d565b92915050565b600060208284031215611945576119446120ca565b5b60006119538482850161181a565b91505092915050565b60008060408385031215611973576119726120ca565b5b60006119818582860161181a565b925050602061199285828601611905565b9150509250929050565b6000806000606084860312156119b5576119b46120ca565b5b60006119c38682870161181a565b93505060206119d486828701611905565b92505060406119e58682870161181a565b9150509250925092565b600080600080600060608688031215611a0b57611a0a6120ca565b5b600086013567ffffffffffffffff811115611a2957611a286120c5565b5b611a358882890161182f565b9550955050602086013567ffffffffffffffff811115611a5857611a576120c5565b5b611a6488828901611885565b93509350506040611a7788828901611905565b9150509295509295909350565b600060208284031215611a9a57611a996120ca565b5b6000611aa8848285016118db565b91505092915050565b600060208284031215611ac757611ac66120ca565b5b6000611ad5848285016118f0565b91505092915050565b600060208284031215611af457611af36120ca565b5b6000611b0284828501611905565b91505092915050565b600060208284031215611b2157611b206120ca565b5b6000611b2f8482850161191a565b91505092915050565b611b4181611efd565b82525050565b611b5081611f0f565b82525050565b611b5f81611f45565b82525050565b6000611b7082611e8b565b611b7a8185611e96565b9350611b8a818560208601611f7b565b611b93816120cf565b840191505092915050565b6000611bab601183611e96565b9150611bb6826120e0565b602082019050919050565b6000611bce601283611e96565b9150611bd982612109565b602082019050919050565b6000611bf1601183611e96565b9150611bfc82612132565b602082019050919050565b6000611c14601883611e96565b9150611c1f8261215b565b602082019050919050565b6000611c37601083611e96565b9150611c4282612184565b602082019050919050565b6000611c5a601883611e96565b9150611c65826121ad565b602082019050919050565b6000611c7d600983611e96565b9150611c88826121d6565b602082019050919050565b611c9c81611f3b565b82525050565b6000602082019050611cb76000830184611b38565b92915050565b6000604082019050611cd26000830185611b38565b611cdf6020830184611c93565b9392505050565b6000602082019050611cfb6000830184611b47565b92915050565b6000602082019050611d166000830184611b56565b92915050565b60006020820190508181036000830152611d368184611b65565b905092915050565b60006020820190508181036000830152611d5781611b9e565b9050919050565b60006020820190508181036000830152611d7781611bc1565b9050919050565b60006020820190508181036000830152611d9781611be4565b9050919050565b60006020820190508181036000830152611db781611c07565b9050919050565b60006020820190508181036000830152611dd781611c2a565b9050919050565b60006020820190508181036000830152611df781611c4d565b9050919050565b60006020820190508181036000830152611e1781611c70565b9050919050565b6000602082019050611e336000830184611c93565b92915050565b6000604082019050611e4e6000830185611c93565b611e5b6020830184611b47565b9392505050565b6000604082019050611e776000830185611c93565b611e846020830184611c93565b9392505050565b600081519050919050565b600082825260208201905092915050565b6000611eb282611f3b565b9150611ebd83611f3b565b9250827fffffffffffffffffffffffffffffffffffffffffffffffffffffffffffffffff03821115611ef257611ef1612029565b5b828201905092915050565b6000611f0882611f1b565b9050919050565b60008115159050919050565b600073ffffffffffffffffffffffffffffffffffffffff82169050919050565b6000819050919050565b6000611f5082611f57565b9050919050565b6000611f6282611f69565b9050919050565b6000611f7482611f1b565b9050919050565b60005b83811015611f99578082015181840152602081019050611f7e565b83811115611fa8576000848401525b50505050565b60006002820490506001821680611fc657607f821691505b60208210811415611fda57611fd9612058565b5b50919050565b6000611feb82611f3b565b91507fffffffffffffffffffffffffffffffffffffffffffffffffffffffffffffffff82141561201e5761201d612029565b5b600182019050919050565b7f4e487b7100000000000000000000000000000000000000000000000000000000600052601160045260246000fd5b7f4e487b7100000000000000000000000000000000000000000000000000000000600052602260045260246000fd5b7f4e487b7100000000000000000000000000000000000000000000000000000000600052603260045260246000fd5b600080fd5b600080fd5b600080fd5b600080fd5b600080fd5b6000601f19601f8301169050919050565b7f6c656e67746820646966666572656e6365000000000000000000000000000000600082015250565b7f73616d65206f776e657220616464726573730000000000000000000000000000600082015250565b7f6e6f742076616c69642061646472657373000000000000000000000000000000600082015250565b7f446973747269627574696f6e2077696e646f77206f7665720000000000000000600082015250565b7f68617665206265656e2072656465656d00000000000000000000000000000000600082015250565b7f73656e6420746f20746865207a65726f20616464726573730000000000000000600082015250565b7f6e6f74206f776e65720000000000000000000000000000000000000000000000600082015250565b61220881611efd565b811461221357600080fd5b50565b61221f81611f0f565b811461222a57600080fd5b50565b61223681611f3b565b811461224157600080fd5b5056fea264697066735822122001116c5e4b4a2d209b6642ee6540e3a681f467c1bd46a8cdc64f2b5e9860540964736f6c63430008070033",
  "immutableReferences": {},
  "source": "// SPDX-License-Identifier: UNLICENSED\r\n\r\npragma solidity ^0.8.0;\r\n\r\nimport \"./PurseTokenUpgradable.sol\";\r\n\r\ncontract PurseDistribution {\r\n    event claimReward(address indexed owner, uint256 amount, uint256 indexed Iteration);\r\n    event claimAllReward(address indexed owner, uint256 amount, uint256 Iteration_End);\r\n    event addHolder(address indexed sender, uint256 iteration);\r\n    event updateHolder(address indexed sender, uint256 iteration);\r\n    \r\n    string public name = \"Purse Distribution\";\r\n    PurseTokenUpgradable public purseToken;\r\n    address public owner;\r\n    uint256 public constant validDuration = 91 days;\r\n    uint256 public endDistribution;\r\n    uint256 internal distributionStart;\r\n    bool public isClaimStart;\r\n\r\n    mapping(address => mapping(uint256 => holderInfo)) public holder;   //address->index   \r\n    mapping(uint256 => uint256) public numOfHolder;\r\n\r\n    struct holderInfo {\r\n        uint256 distributeAmount;\r\n        bool isRedeem;\r\n    }\r\n    \r\n    modifier onlyOwner() {\r\n        require(msg.sender == owner, \"not owner\");\r\n        _;\r\n    }\r\n\r\n    constructor(PurseTokenUpgradable _purseToken) {\r\n        purseToken = _purseToken;\r\n        owner = msg.sender;\r\n        distributionStart = block.timestamp;\r\n    }\r\n\r\n    function addHolderInfo(address[] calldata _holder, uint256[] calldata _amount , uint256 iteration) public onlyOwner {\r\n        uint256 i = 0;\r\n        require(_holder.length == _amount.length, \"length difference\");\r\n        for (i; i < _holder.length; i++) {\r\n            if (_amount[i] > 0 && holder[_holder[i]][iteration].distributeAmount == 0) {\r\n                holder[_holder[i]][iteration] = holderInfo(_amount[i], false);\r\n                numOfHolder[iteration] += 1;\r\n            }\r\n        }\r\n        emit addHolder(msg.sender, iteration);\r\n    }\r\n\r\n    function updateHolderInfo(address[] calldata _holder, uint256[] calldata _amount , uint256 iteration) public onlyOwner {\r\n        uint256 i = 0;\r\n        require(_holder.length == _amount.length, \"length difference\");\r\n        for (i; i < _holder.length; i++) {\r\n            if (holder[_holder[i]][iteration].isRedeem == true) {\r\n                continue;\r\n            }\r\n            holder[_holder[i]][iteration] = holderInfo(_amount[i], false);\r\n        }\r\n        emit updateHolder(msg.sender, iteration);\r\n    }\r\n\r\n    function startClaim(bool check) public onlyOwner {\r\n        if (check) {\r\n            endDistribution = block.timestamp + validDuration;\r\n            isClaimStart = true;\r\n        } else {\r\n            isClaimStart = false;\r\n        }\r\n    }\r\n\r\n    function checkData(address[] calldata _holder, uint256[] calldata _amount, uint256 iteration) public view returns (uint256, bool) {\r\n        uint256 i = 0;\r\n        for (i; i < _holder.length; i++) {\r\n            if (holder[_holder[i]][iteration].distributeAmount != _amount[i]) {\r\n                return (i, false);\r\n            }\r\n        }\r\n        return (i, true);        \r\n    }\r\n\r\n    // Notice Transfers tokens held by timelock to beneficiary.\r\n    function claim(uint256 iteration) public {\r\n        require (isClaimStart == true);\r\n        require(block.timestamp < endDistribution, \"Distribution window over\");\r\n        require(holder[msg.sender][iteration].isRedeem == false, 'have been redeem');\r\n\r\n        holder[msg.sender][iteration].isRedeem = true;\r\n        uint256 claimAmount = holder[msg.sender][iteration].distributeAmount;\r\n        purseToken.transfer(msg.sender, claimAmount);\r\n        emit claimReward(msg.sender, claimAmount, iteration);\r\n    }\r\n\r\n    function claimAll(uint256 iteration_end) public {\r\n        require (isClaimStart == true);\r\n        require(block.timestamp < endDistribution, \"Distribution window over\");\r\n        uint256 claimAmount = 0;\r\n        for (uint256 i = 0; i <= iteration_end; i++) {\r\n                if (holder[msg.sender][i].isRedeem == false) {\r\n                    require(holder[msg.sender][i].isRedeem == false, 'have been redeem');\r\n                    holder[msg.sender][i].isRedeem = true;\r\n                    uint256 holderAmount = holder[msg.sender][i].distributeAmount;\r\n                    claimAmount += holderAmount;                    \r\n                }\r\n        }\r\n        if (claimAmount > 0) {\r\n            purseToken.transfer(msg.sender, claimAmount);\r\n        }\r\n        emit claimAllReward(msg.sender, claimAmount, iteration_end);\r\n    }\r\n    \r\n    function returnPurseToken(address _to) public onlyOwner {\r\n        require(_to != address(0), \"send to the zero address\");\r\n        uint256 remainingAmount = purseToken.balanceOf(address(this));\r\n        purseToken.transfer(_to, remainingAmount);\r\n    }\r\n\r\n    function returnAnyToken(address token, uint256 amount, address _to) public onlyOwner{\r\n        require(_to != address(0), \"send to the zero address\");\r\n        ERC20Interface(token).transfer(_to, amount);\r\n    } \r\n\r\n    function updateOwner(address _owner) public onlyOwner{\r\n        require(_owner != address(0), \"not valid address\");\r\n        require(_owner != owner, \"same owner address\");\r\n        owner = _owner;\r\n    } \r\n}\r\n",
  "sourcePath": "C:/Users/cheek/Desktop/Developer doc/Visual Studio Code/PundiX/YieldFarm_BridgeEthBsc/src/contracts/PurseDistribution.sol",
  "compiler": {
    "name": "solc",
    "version": "0.8.7+commit.e28d00a7.Emscripten.clang"
  },
  "schemaVersion": "3.2.3",
  "updatedAt": "2021-09-17T02:15:55.207Z",
  "networkType": "ethereum",
  "devdoc": {
    "kind": "dev",
    "methods": {},
    "version": 1
  },
  "userdoc": {
    "kind": "user",
    "methods": {},
    "version": 1
  }
}