{
  "contractName": "PurseDistribution",
  "abi": [
    {
      "inputs": [
        {
          "internalType": "contract PurseTokenUpgradable",
          "name": "_purseToken",
          "type": "address"
        }
      ],
      "stateMutability": "nonpayable",
      "type": "constructor"
    },
    {
      "anonymous": false,
      "inputs": [
        {
          "indexed": true,
          "internalType": "address",
          "name": "sender",
          "type": "address"
        },
        {
          "indexed": false,
          "internalType": "uint32",
          "name": "iteration",
          "type": "uint32"
        }
      ],
      "name": "addHolder",
      "type": "event"
    },
    {
      "anonymous": false,
      "inputs": [
        {
          "indexed": true,
          "internalType": "address",
          "name": "owner",
          "type": "address"
        },
        {
          "indexed": false,
          "internalType": "uint256",
          "name": "amount",
          "type": "uint256"
        },
        {
          "indexed": false,
          "internalType": "uint32",
          "name": "Iteration_End",
          "type": "uint32"
        }
      ],
      "name": "claimAllReward",
      "type": "event"
    },
    {
      "anonymous": false,
      "inputs": [
        {
          "indexed": true,
          "internalType": "address",
          "name": "owner",
          "type": "address"
        },
        {
          "indexed": false,
          "internalType": "uint256",
          "name": "amount",
          "type": "uint256"
        },
        {
          "indexed": true,
          "internalType": "uint32",
          "name": "Iteration",
          "type": "uint32"
        }
      ],
      "name": "claimReward",
      "type": "event"
    },
    {
      "anonymous": false,
      "inputs": [
        {
          "indexed": true,
          "internalType": "address",
          "name": "sender",
          "type": "address"
        },
        {
          "indexed": false,
          "internalType": "uint32",
          "name": "iteration",
          "type": "uint32"
        }
      ],
      "name": "updateHolder",
      "type": "event"
    },
    {
      "inputs": [
        {
          "internalType": "address",
          "name": "",
          "type": "address"
        },
        {
          "internalType": "uint32",
          "name": "",
          "type": "uint32"
        }
      ],
      "name": "holder",
      "outputs": [
        {
          "internalType": "uint256",
          "name": "distributeAmount",
          "type": "uint256"
        },
        {
          "internalType": "bool",
          "name": "isRedeem",
          "type": "bool"
        }
      ],
      "stateMutability": "view",
      "type": "function",
      "constant": true
    },
    {
      "inputs": [
        {
          "internalType": "address",
          "name": "",
          "type": "address"
        }
      ],
      "name": "isOwner",
      "outputs": [
        {
          "internalType": "bool",
          "name": "",
          "type": "bool"
        }
      ],
      "stateMutability": "view",
      "type": "function",
      "constant": true
    },
    {
      "inputs": [],
      "name": "name",
      "outputs": [
        {
          "internalType": "string",
          "name": "",
          "type": "string"
        }
      ],
      "stateMutability": "view",
      "type": "function",
      "constant": true
    },
    {
      "inputs": [
        {
          "internalType": "uint32",
          "name": "",
          "type": "uint32"
        }
      ],
      "name": "numOfHolder",
      "outputs": [
        {
          "internalType": "uint256",
          "name": "",
          "type": "uint256"
        }
      ],
      "stateMutability": "view",
      "type": "function",
      "constant": true
    },
    {
      "inputs": [],
      "name": "owner",
      "outputs": [
        {
          "internalType": "address",
          "name": "",
          "type": "address"
        }
      ],
      "stateMutability": "view",
      "type": "function",
      "constant": true
    },
    {
      "inputs": [],
      "name": "purseToken",
      "outputs": [
        {
          "internalType": "contract PurseTokenUpgradable",
          "name": "",
          "type": "address"
        }
      ],
      "stateMutability": "view",
      "type": "function",
      "constant": true
    },
    {
      "inputs": [],
      "name": "validDuration",
      "outputs": [
        {
          "internalType": "uint256",
          "name": "",
          "type": "uint256"
        }
      ],
      "stateMutability": "view",
      "type": "function",
      "constant": true
    },
    {
      "inputs": [
        {
          "internalType": "address[]",
          "name": "_holder",
          "type": "address[]"
        },
        {
          "internalType": "uint256[]",
          "name": "_amount",
          "type": "uint256[]"
        },
        {
          "internalType": "uint32",
          "name": "iteration",
          "type": "uint32"
        }
      ],
      "name": "addHolderInfo",
      "outputs": [],
      "stateMutability": "nonpayable",
      "type": "function"
    },
    {
      "inputs": [
        {
          "internalType": "address[]",
          "name": "_holder",
          "type": "address[]"
        },
        {
          "internalType": "uint256[]",
          "name": "_amount",
          "type": "uint256[]"
        },
        {
          "internalType": "uint32",
          "name": "iteration",
          "type": "uint32"
        }
      ],
      "name": "updateHolderInfo",
      "outputs": [],
      "stateMutability": "nonpayable",
      "type": "function"
    },
    {
      "inputs": [
        {
          "internalType": "uint32",
          "name": "iteration",
          "type": "uint32"
        }
      ],
      "name": "claim",
      "outputs": [],
      "stateMutability": "nonpayable",
      "type": "function"
    },
    {
      "inputs": [
        {
          "internalType": "uint32",
          "name": "iteration_end",
          "type": "uint32"
        }
      ],
      "name": "claimAll",
      "outputs": [],
      "stateMutability": "nonpayable",
      "type": "function"
    },
    {
      "inputs": [
        {
          "internalType": "address",
          "name": "_to",
          "type": "address"
        }
      ],
      "name": "returnPurseToken",
      "outputs": [],
      "stateMutability": "nonpayable",
      "type": "function"
    },
    {
      "inputs": [
        {
          "internalType": "address",
          "name": "token",
          "type": "address"
        },
        {
          "internalType": "uint256",
          "name": "amount",
          "type": "uint256"
        },
        {
          "internalType": "address",
          "name": "_to",
          "type": "address"
        }
      ],
      "name": "returnAnyToken",
      "outputs": [],
      "stateMutability": "nonpayable",
      "type": "function"
    },
    {
      "inputs": [
        {
          "internalType": "address",
          "name": "_owner",
          "type": "address"
        }
      ],
      "name": "updateOwner",
      "outputs": [],
      "stateMutability": "nonpayable",
      "type": "function"
    }
  ],
  "bytecode": "0x60806040526040518060400160405280601281526020017f507572736520446973747269627574696f6e000000000000000000000000000081525060009080519060200190620000519291906200016d565b503480156200005f57600080fd5b50604051620023fb380380620023fb833981810160405281019062000085919062000234565b80600160006101000a81548173ffffffffffffffffffffffffffffffffffffffff021916908373ffffffffffffffffffffffffffffffffffffffff1602179055506001600460003373ffffffffffffffffffffffffffffffffffffffff1673ffffffffffffffffffffffffffffffffffffffff16815260200190815260200160002060006101000a81548160ff02191690831515021790555033600260006101000a81548173ffffffffffffffffffffffffffffffffffffffff021916908373ffffffffffffffffffffffffffffffffffffffff160217905550426003819055505062000332565b8280546200017b90620002ae565b90600052602060002090601f0160209004810192826200019f5760008555620001eb565b82601f10620001ba57805160ff1916838001178555620001eb565b82800160010185558215620001eb579182015b82811115620001ea578251825591602001919060010190620001cd565b5b509050620001fa9190620001fe565b5090565b5b8082111562000219576000816000905550600101620001ff565b5090565b6000815190506200022e8162000318565b92915050565b6000602082840312156200024d576200024c62000313565b5b60006200025d848285016200021d565b91505092915050565b600062000273826200028e565b9050919050565b6000620002878262000266565b9050919050565b600073ffffffffffffffffffffffffffffffffffffffff82169050919050565b60006002820490506001821680620002c757607f821691505b60208210811415620002de57620002dd620002e4565b5b50919050565b7f4e487b7100000000000000000000000000000000000000000000000000000000600052602260045260246000fd5b600080fd5b62000323816200027a565b81146200032f57600080fd5b50565b6120b980620003426000396000f3fe608060405234801561001057600080fd5b50600436106100ea5760003560e01c80638da5cb5b1161008c578063c24f2eaa11610066578063c24f2eaa14610223578063f09de43f14610253578063fa2da2441461026f578063ff0e009e1461028b576100ea565b80638da5cb5b146101cd57806393ad9ed2146101eb578063c237e32614610207576100ea565b80632f54bf6e116100c85780632f54bf6e1461014757806351bf16ef1461017757806372da5bcb14610195578063880cdc31146101b1576100ea565b806304951891146100ef57806306fdde031461010b5780632948ff4114610129575b600080fd5b610109600480360381019061010491906118cc565b6102bc565b005b6101136105ad565b6040516101209190611aec565b60405180910390f35b61013161063b565b60405161013e9190611bee565b60405180910390f35b610161600480360381019061015c919061171d565b610642565b60405161016e9190611ab6565b60405180910390f35b61017f610662565b60405161018c9190611ad1565b60405180910390f35b6101af60048036038101906101aa91906118cc565b610688565b005b6101cb60048036038101906101c6919061171d565b610a32565b005b6101d5610c5b565b6040516101e29190611a72565b60405180910390f35b610205600480360381019061020091906117dd565b610c81565b005b610221600480360381019061021c919061174a565b610f06565b005b61023d600480360381019061023891906118cc565b611095565b60405161024a9190611bee565b60405180910390f35b61026d6004803603810190610268919061171d565b6110ad565b005b610289600480360381019061028491906117dd565b61130c565b005b6102a560048036038101906102a0919061179d565b6115ca565b6040516102b3929190611c09565b60405180910390f35b60006277f8806003546102cf9190611c92565b905080421115610314576040517f08c379a000000000000000000000000000000000000000000000000000000000815260040161030b90611b6e565b60405180910390fd5b60011515600560003373ffffffffffffffffffffffffffffffffffffffff1673ffffffffffffffffffffffffffffffffffffffff16815260200190815260200160002060008463ffffffff1663ffffffff16815260200190815260200160002060010160009054906101000a900460ff161515146103c7576040517f08c379a00000000000000000000000000000000000000000000000000000000081526004016103be90611b8e565b60405180910390fd5b6000600560003373ffffffffffffffffffffffffffffffffffffffff1673ffffffffffffffffffffffffffffffffffffffff16815260200190815260200160002060008463ffffffff1663ffffffff16815260200190815260200160002060010160006101000a81548160ff0219169083151502179055506000600560003373ffffffffffffffffffffffffffffffffffffffff1673ffffffffffffffffffffffffffffffffffffffff16815260200190815260200160002060008463ffffffff1663ffffffff168152602001908152602001600020600001549050600160009054906101000a900473ffffffffffffffffffffffffffffffffffffffff1673ffffffffffffffffffffffffffffffffffffffff1663a9059cbb33836040518363ffffffff1660e01b8152600401610500929190611a8d565b602060405180830381600087803b15801561051a57600080fd5b505af115801561052e573d6000803e3d6000fd5b505050506040513d601f19601f820116820180604052508101906105529190611872565b508263ffffffff163373ffffffffffffffffffffffffffffffffffffffff167f46f359e8b618e8dcf8db2845dc89ec1e82a4e3eb8a0dfaa3081351701f8296a5836040516105a09190611bee565b60405180910390a3505050565b600080546105ba90611da9565b80601f01602080910402602001604051908101604052809291908181526020018280546105e690611da9565b80156106335780601f1061060857610100808354040283529160200191610633565b820191906000526020600020905b81548152906001019060200180831161061657829003601f168201915b505050505081565b6277f88081565b60046020528060005260406000206000915054906101000a900460ff1681565b600160009054906101000a900473ffffffffffffffffffffffffffffffffffffffff1681565b60006277f88060035461069b9190611c92565b9050804211156106e0576040517f08c379a00000000000000000000000000000000000000000000000000000000081526004016106d790611b6e565b60405180910390fd5b6000805b8363ffffffff168163ffffffff16116109225760011515600560003373ffffffffffffffffffffffffffffffffffffffff1673ffffffffffffffffffffffffffffffffffffffff16815260200190815260200160002060008363ffffffff1663ffffffff16815260200190815260200160002060010160009054906101000a900460ff161515141561090f5760011515600560003373ffffffffffffffffffffffffffffffffffffffff1673ffffffffffffffffffffffffffffffffffffffff16815260200190815260200160002060008363ffffffff1663ffffffff16815260200190815260200160002060010160009054906101000a900460ff16151514610823576040517f08c379a000000000000000000000000000000000000000000000000000000000815260040161081a90611b8e565b60405180910390fd5b6000600560003373ffffffffffffffffffffffffffffffffffffffff1673ffffffffffffffffffffffffffffffffffffffff16815260200190815260200160002060008363ffffffff1663ffffffff16815260200190815260200160002060010160006101000a81548160ff0219169083151502179055506000600560003373ffffffffffffffffffffffffffffffffffffffff1673ffffffffffffffffffffffffffffffffffffffff16815260200190815260200160002060008363ffffffff1663ffffffff168152602001908152602001600020600001549050808361090b9190611c92565b9250505b808061091a90611e24565b9150506106e4565b5060008111156109dd57600160009054906101000a900473ffffffffffffffffffffffffffffffffffffffff1673ffffffffffffffffffffffffffffffffffffffff1663a9059cbb33836040518363ffffffff1660e01b8152600401610989929190611a8d565b602060405180830381600087803b1580156109a357600080fd5b505af11580156109b7573d6000803e3d6000fd5b505050506040513d601f19601f820116820180604052508101906109db9190611872565b505b3373ffffffffffffffffffffffffffffffffffffffff167f0cb481c25d2f9182101c224b90fd59b10c3256e430e20bcb065bebd30b91a9f28285604051610a25929190611c32565b60405180910390a2505050565b600460003373ffffffffffffffffffffffffffffffffffffffff1673ffffffffffffffffffffffffffffffffffffffff16815260200190815260200160002060009054906101000a900460ff16610abe576040517f08c379a0000000000000000000000000000000000000000000000000000000008152600401610ab590611bce565b60405180910390fd5b600073ffffffffffffffffffffffffffffffffffffffff168173ffffffffffffffffffffffffffffffffffffffff161415610b2e576040517f08c379a0000000000000000000000000000000000000000000000000000000008152600401610b2590611b4e565b60405180910390fd5b600260009054906101000a900473ffffffffffffffffffffffffffffffffffffffff1673ffffffffffffffffffffffffffffffffffffffff168173ffffffffffffffffffffffffffffffffffffffff161415610bbf576040517f08c379a0000000000000000000000000000000000000000000000000000000008152600401610bb690611b2e565b60405180910390fd5b6001600460008373ffffffffffffffffffffffffffffffffffffffff1673ffffffffffffffffffffffffffffffffffffffff16815260200190815260200160002060006101000a81548160ff02191690831515021790555080600260006101000a81548173ffffffffffffffffffffffffffffffffffffffff021916908373ffffffffffffffffffffffffffffffffffffffff16021790555050565b600260009054906101000a900473ffffffffffffffffffffffffffffffffffffffff1681565b600460003373ffffffffffffffffffffffffffffffffffffffff1673ffffffffffffffffffffffffffffffffffffffff16815260200190815260200160002060009054906101000a900460ff16610d0d576040517f08c379a0000000000000000000000000000000000000000000000000000000008152600401610d0490611bce565b60405180910390fd5b60006277f880600354610d209190611c92565b905080421115610d65576040517f08c379a0000000000000000000000000000000000000000000000000000000008152600401610d5c90611b6e565b60405180910390fd5b6000848490508787905014610daf576040517f08c379a0000000000000000000000000000000000000000000000000000000008152600401610da690611b0e565b60405180910390fd5b5b86869050811015610eaf576040518060400160405280868684818110610dd957610dd8611eaf565b5b9050602002013581526020016001151581525060056000898985818110610e0357610e02611eaf565b5b9050602002016020810190610e18919061171d565b73ffffffffffffffffffffffffffffffffffffffff1673ffffffffffffffffffffffffffffffffffffffff16815260200190815260200160002060008563ffffffff1663ffffffff1681526020019081526020016000206000820151816000015560208201518160010160006101000a81548160ff0219169083151502179055509050508080610ea790611ddb565b915050610db0565b3373ffffffffffffffffffffffffffffffffffffffff167fe0de873476573fa673d69e0904f053222c29891dd0be532bde8fdac2a596161184604051610ef59190611c5b565b60405180910390a250505050505050565b600460003373ffffffffffffffffffffffffffffffffffffffff1673ffffffffffffffffffffffffffffffffffffffff16815260200190815260200160002060009054906101000a900460ff16610f92576040517f08c379a0000000000000000000000000000000000000000000000000000000008152600401610f8990611bce565b60405180910390fd5b600073ffffffffffffffffffffffffffffffffffffffff168173ffffffffffffffffffffffffffffffffffffffff161415611002576040517f08c379a0000000000000000000000000000000000000000000000000000000008152600401610ff990611bae565b60405180910390fd5b8273ffffffffffffffffffffffffffffffffffffffff1663a9059cbb82846040518363ffffffff1660e01b815260040161103d929190611a8d565b602060405180830381600087803b15801561105757600080fd5b505af115801561106b573d6000803e3d6000fd5b505050506040513d601f19601f8201168201806040525081019061108f9190611872565b50505050565b60066020528060005260406000206000915090505481565b600460003373ffffffffffffffffffffffffffffffffffffffff1673ffffffffffffffffffffffffffffffffffffffff16815260200190815260200160002060009054906101000a900460ff16611139576040517f08c379a000000000000000000000000000000000000000000000000000000000815260040161113090611bce565b60405180910390fd5b600073ffffffffffffffffffffffffffffffffffffffff168173ffffffffffffffffffffffffffffffffffffffff1614156111a9576040517f08c379a00000000000000000000000000000000000000000000000000000000081526004016111a090611bae565b60405180910390fd5b6000600160009054906101000a900473ffffffffffffffffffffffffffffffffffffffff1673ffffffffffffffffffffffffffffffffffffffff166370a08231306040518263ffffffff1660e01b81526004016112069190611a72565b60206040518083038186803b15801561121e57600080fd5b505afa158015611232573d6000803e3d6000fd5b505050506040513d601f19601f82011682018060405250810190611256919061189f565b9050600160009054906101000a900473ffffffffffffffffffffffffffffffffffffffff1673ffffffffffffffffffffffffffffffffffffffff1663a9059cbb83836040518363ffffffff1660e01b81526004016112b5929190611a8d565b602060405180830381600087803b1580156112cf57600080fd5b505af11580156112e3573d6000803e3d6000fd5b505050506040513d601f19601f820116820180604052508101906113079190611872565b505050565b600460003373ffffffffffffffffffffffffffffffffffffffff1673ffffffffffffffffffffffffffffffffffffffff16815260200190815260200160002060009054906101000a900460ff16611398576040517f08c379a000000000000000000000000000000000000000000000000000000000815260040161138f90611bce565b60405180910390fd5b60006277f8806003546113ab9190611c92565b9050804211156113f0576040517f08c379a00000000000000000000000000000000000000000000000000000000081526004016113e790611b6e565b60405180910390fd5b600084849050878790501461143a576040517f08c379a000000000000000000000000000000000000000000000000000000000815260040161143190611b0e565b60405180910390fd5b5b8686905081101561153a57604051806040016040528086868481811061146457611463611eaf565b5b905060200201358152602001600115158152506005600089898581811061148e5761148d611eaf565b5b90506020020160208101906114a3919061171d565b73ffffffffffffffffffffffffffffffffffffffff1673ffffffffffffffffffffffffffffffffffffffff16815260200190815260200160002060008563ffffffff1663ffffffff1681526020019081526020016000206000820151816000015560208201518160010160006101000a81548160ff021916908315150217905550905050808061153290611ddb565b91505061143b565b86869050600660008563ffffffff1663ffffffff168152602001908152602001600020600082825461156c9190611c92565b925050819055503373ffffffffffffffffffffffffffffffffffffffff167f21baddd1b7c1e670d8f5c8189b8fad82e3aa5098e7e054bf8e66bd5e28f09643846040516115b99190611c5b565b60405180910390a250505050505050565b6005602052816000526040600020602052806000526040600020600091509150508060000154908060010160009054906101000a900460ff16905082565b60008135905061161781612027565b92915050565b60008083601f84011261163357611632611ee3565b5b8235905067ffffffffffffffff8111156116505761164f611ede565b5b60208301915083602082028301111561166c5761166b611ee8565b5b9250929050565b60008083601f84011261168957611688611ee3565b5b8235905067ffffffffffffffff8111156116a6576116a5611ede565b5b6020830191508360208202830111156116c2576116c1611ee8565b5b9250929050565b6000815190506116d88161203e565b92915050565b6000813590506116ed81612055565b92915050565b60008151905061170281612055565b92915050565b6000813590506117178161206c565b92915050565b60006020828403121561173357611732611ef2565b5b600061174184828501611608565b91505092915050565b60008060006060848603121561176357611762611ef2565b5b600061177186828701611608565b9350506020611782868287016116de565b925050604061179386828701611608565b9150509250925092565b600080604083850312156117b4576117b3611ef2565b5b60006117c285828601611608565b92505060206117d385828601611708565b9150509250929050565b6000806000806000606086880312156117f9576117f8611ef2565b5b600086013567ffffffffffffffff81111561181757611816611eed565b5b6118238882890161161d565b9550955050602086013567ffffffffffffffff81111561184657611845611eed565b5b61185288828901611673565b9350935050604061186588828901611708565b9150509295509295909350565b60006020828403121561188857611887611ef2565b5b6000611896848285016116c9565b91505092915050565b6000602082840312156118b5576118b4611ef2565b5b60006118c3848285016116f3565b91505092915050565b6000602082840312156118e2576118e1611ef2565b5b60006118f084828501611708565b91505092915050565b61190281611ce8565b82525050565b61191181611cfa565b82525050565b61192081611d40565b82525050565b600061193182611c76565b61193b8185611c81565b935061194b818560208601611d76565b61195481611ef7565b840191505092915050565b600061196c601183611c81565b915061197782611f08565b602082019050919050565b600061198f601283611c81565b915061199a82611f31565b602082019050919050565b60006119b2601183611c81565b91506119bd82611f5a565b602082019050919050565b60006119d5601883611c81565b91506119e082611f83565b602082019050919050565b60006119f8601083611c81565b9150611a0382611fac565b602082019050919050565b6000611a1b601883611c81565b9150611a2682611fd5565b602082019050919050565b6000611a3e600983611c81565b9150611a4982611ffe565b602082019050919050565b611a5d81611d26565b82525050565b611a6c81611d30565b82525050565b6000602082019050611a8760008301846118f9565b92915050565b6000604082019050611aa260008301856118f9565b611aaf6020830184611a54565b9392505050565b6000602082019050611acb6000830184611908565b92915050565b6000602082019050611ae66000830184611917565b92915050565b60006020820190508181036000830152611b068184611926565b905092915050565b60006020820190508181036000830152611b278161195f565b9050919050565b60006020820190508181036000830152611b4781611982565b9050919050565b60006020820190508181036000830152611b67816119a5565b9050919050565b60006020820190508181036000830152611b87816119c8565b9050919050565b60006020820190508181036000830152611ba7816119eb565b9050919050565b60006020820190508181036000830152611bc781611a0e565b9050919050565b60006020820190508181036000830152611be781611a31565b9050919050565b6000602082019050611c036000830184611a54565b92915050565b6000604082019050611c1e6000830185611a54565b611c2b6020830184611908565b9392505050565b6000604082019050611c476000830185611a54565b611c546020830184611a63565b9392505050565b6000602082019050611c706000830184611a63565b92915050565b600081519050919050565b600082825260208201905092915050565b6000611c9d82611d26565b9150611ca883611d26565b9250827fffffffffffffffffffffffffffffffffffffffffffffffffffffffffffffffff03821115611cdd57611cdc611e51565b5b828201905092915050565b6000611cf382611d06565b9050919050565b60008115159050919050565b600073ffffffffffffffffffffffffffffffffffffffff82169050919050565b6000819050919050565b600063ffffffff82169050919050565b6000611d4b82611d52565b9050919050565b6000611d5d82611d64565b9050919050565b6000611d6f82611d06565b9050919050565b60005b83811015611d94578082015181840152602081019050611d79565b83811115611da3576000848401525b50505050565b60006002820490506001821680611dc157607f821691505b60208210811415611dd557611dd4611e80565b5b50919050565b6000611de682611d26565b91507fffffffffffffffffffffffffffffffffffffffffffffffffffffffffffffffff821415611e1957611e18611e51565b5b600182019050919050565b6000611e2f82611d30565b915063ffffffff821415611e4657611e45611e51565b5b600182019050919050565b7f4e487b7100000000000000000000000000000000000000000000000000000000600052601160045260246000fd5b7f4e487b7100000000000000000000000000000000000000000000000000000000600052602260045260246000fd5b7f4e487b7100000000000000000000000000000000000000000000000000000000600052603260045260246000fd5b600080fd5b600080fd5b600080fd5b600080fd5b600080fd5b6000601f19601f8301169050919050565b7f6c656e67746820646966666572656e6365000000000000000000000000000000600082015250565b7f73616d65206f776e657220616464726573730000000000000000000000000000600082015250565b7f6e6f742076616c69642061646472657373000000000000000000000000000000600082015250565b7f446973747269627574696f6e2077696e646f77206f7665720000000000000000600082015250565b7f68617665206265656e2072656465656d00000000000000000000000000000000600082015250565b7f73656e6420746f20746865207a65726f20616464726573730000000000000000600082015250565b7f6e6f74206f776e65720000000000000000000000000000000000000000000000600082015250565b61203081611ce8565b811461203b57600080fd5b50565b61204781611cfa565b811461205257600080fd5b50565b61205e81611d26565b811461206957600080fd5b50565b61207581611d30565b811461208057600080fd5b5056fea2646970667358221220e31d8356edf9c330d131f9ae795667df784e08f88c9d159fd08e8a5def851d0564736f6c63430008070033",
  "immutableReferences": {},
  "source": "// SPDX-License-Identifier: UNLICENSED\r\n\r\npragma solidity ^0.8.0;\r\n\r\nimport \"./PurseTokenUpgradable.sol\";\r\n\r\ncontract PurseDistribution {\r\n    event claimReward(address indexed owner, uint256 amount, uint32 indexed Iteration);\r\n    event claimAllReward(address indexed owner, uint256 amount, uint32 Iteration_End);\r\n    event addHolder(address indexed sender, uint32 iteration);\r\n    event updateHolder(address indexed sender, uint32 iteration);\r\n    \r\n    string public name = \"Purse Distribution\";\r\n    PurseTokenUpgradable public purseToken;\r\n    address public owner;\r\n    uint256 public constant validDuration = 91 days;\r\n    uint256 internal distributionStart;\r\n    mapping(address => bool) public isOwner;\r\n    mapping(address => mapping(uint32 => holderInfo)) public holder;   //address->index   \r\n    mapping(uint32 => uint256) public numOfHolder;\r\n\r\n\r\n    struct holderInfo {\r\n        uint256 distributeAmount;\r\n        bool isRedeem;\r\n    }\r\n    \r\n    modifier onlyOwner() {\r\n        require(isOwner[msg.sender], \"not owner\");\r\n        _;\r\n    }\r\n\r\n    constructor(PurseTokenUpgradable _purseToken) {\r\n        purseToken = _purseToken;\r\n        isOwner[msg.sender] = true;\r\n        owner = msg.sender;\r\n        distributionStart = block.timestamp;\r\n    }\r\n\r\n    function addHolderInfo(address[] calldata _holder, uint256[] calldata _amount , uint32 iteration) public onlyOwner {\r\n        uint256 end = distributionStart + validDuration;\r\n        require(block.timestamp <= end, \"Distribution window over\");\r\n        uint256 i = 0;\r\n        require(_holder.length == _amount.length, \"length difference\");\r\n        for (i; i < _holder.length; i++) {\r\n            holder[_holder[i]][iteration] = holderInfo(_amount[i], true);\r\n        }\r\n        numOfHolder[iteration] += _holder.length;\r\n        emit addHolder(msg.sender, iteration);\r\n    }\r\n\r\n    function updateHolderInfo(address[] calldata _holder, uint256[] calldata _amount , uint32 iteration) public onlyOwner {\r\n        uint256 end = distributionStart + validDuration;\r\n        require(block.timestamp <= end, \"Distribution window over\");\r\n        uint256 i = 0;\r\n        require(_holder.length == _amount.length, \"length difference\");\r\n        for (i; i < _holder.length; i++) {\r\n            holder[_holder[i]][iteration] = holderInfo(_amount[i], true);\r\n        }\r\n        emit updateHolder(msg.sender, iteration);\r\n    }\r\n\r\n    // Notice Transfers tokens held by timelock to beneficiary.\r\n    function claim(uint32 iteration) public {\r\n        uint256 end = distributionStart + validDuration;\r\n        require(block.timestamp <= end, \"Distribution window over\");\r\n        require(holder[msg.sender][iteration].isRedeem == true, 'have been redeem');\r\n\r\n        holder[msg.sender][iteration].isRedeem = false;\r\n        uint256 claimAmount = holder[msg.sender][iteration].distributeAmount;\r\n        purseToken.transfer(msg.sender, claimAmount);\r\n        emit claimReward(msg.sender, claimAmount, iteration);\r\n    }\r\n\r\n    function claimAll(uint32 iteration_end) public {\r\n        uint256 end = distributionStart + validDuration;\r\n        require(block.timestamp <= end, \"Distribution window over\");\r\n        uint256 claimAmount = 0;\r\n        for (uint32 i = 0; i <= iteration_end; i++) {\r\n                if (holder[msg.sender][i].isRedeem == true) {\r\n                    require(holder[msg.sender][i].isRedeem == true, 'have been redeem');\r\n                    holder[msg.sender][i].isRedeem = false;\r\n                    uint256 holderAmount = holder[msg.sender][i].distributeAmount;\r\n                    claimAmount += holderAmount;                    \r\n                }\r\n        }\r\n        if (claimAmount > 0) {\r\n            purseToken.transfer(msg.sender, claimAmount);\r\n        }\r\n        emit claimAllReward(msg.sender, claimAmount, iteration_end);\r\n    }\r\n    \r\n    function returnPurseToken(address _to) public onlyOwner {\r\n        require(_to != address(0), \"send to the zero address\");\r\n        uint256 remainingAmount = purseToken.balanceOf(address(this));\r\n        purseToken.transfer(_to, remainingAmount);\r\n    }\r\n\r\n    function returnAnyToken(address token, uint256 amount, address _to) public onlyOwner{\r\n        require(_to != address(0), \"send to the zero address\");\r\n        ERC20Interface(token).transfer(_to, amount);\r\n    } \r\n\r\n    function updateOwner(address _owner) public onlyOwner{\r\n        require(_owner != address(0), \"not valid address\");\r\n        require(_owner != owner, \"same owner address\");\r\n        isOwner[_owner] = true;\r\n        owner = _owner;\r\n    } \r\n}\r\n",
  "sourcePath": "C:/Users/cheek/Desktop/Developer doc/Visual Studio Code/PundiX/YieldFarm_BridgeEthBsc/src/contracts/PurseDistribution.sol",
  "compiler": {
    "name": "solc",
    "version": "0.8.7+commit.e28d00a7.Emscripten.clang"
  },
  "schemaVersion": "3.2.3",
  "updatedAt": "2021-09-14T08:34:53.103Z",
  "networkType": "ethereum",
  "devdoc": {
    "kind": "dev",
    "methods": {},
    "version": 1
  },
  "userdoc": {
    "kind": "user",
    "methods": {},
    "version": 1
  }
}