{
  "contractName": "PurseTokenUpgradable",
  "abi": [
    {
      "anonymous": false,
      "inputs": [
        {
          "indexed": false,
          "internalType": "address",
          "name": "previousAdmin",
          "type": "address"
        },
        {
          "indexed": false,
          "internalType": "address",
          "name": "newAdmin",
          "type": "address"
        }
      ],
      "name": "AdminChanged",
      "type": "event"
    },
    {
      "anonymous": false,
      "inputs": [
        {
          "indexed": true,
          "internalType": "address",
          "name": "_owner",
          "type": "address"
        },
        {
          "indexed": true,
          "internalType": "address",
          "name": "_spender",
          "type": "address"
        },
        {
          "indexed": false,
          "internalType": "uint256",
          "name": "_value",
          "type": "uint256"
        }
      ],
      "name": "Approval",
      "type": "event"
    },
    {
      "anonymous": false,
      "inputs": [
        {
          "indexed": true,
          "internalType": "address",
          "name": "beacon",
          "type": "address"
        }
      ],
      "name": "BeaconUpgraded",
      "type": "event"
    },
    {
      "anonymous": false,
      "inputs": [
        {
          "indexed": true,
          "internalType": "address",
          "name": "_from",
          "type": "address"
        },
        {
          "indexed": true,
          "internalType": "address",
          "name": "_to",
          "type": "address"
        },
        {
          "indexed": false,
          "internalType": "uint256",
          "name": "_value",
          "type": "uint256"
        }
      ],
      "name": "Burn",
      "type": "event"
    },
    {
      "anonymous": false,
      "inputs": [
        {
          "indexed": true,
          "internalType": "address",
          "name": "_from",
          "type": "address"
        },
        {
          "indexed": true,
          "internalType": "address",
          "name": "_to",
          "type": "address"
        },
        {
          "indexed": false,
          "internalType": "uint256",
          "name": "_value",
          "type": "uint256"
        }
      ],
      "name": "Mint",
      "type": "event"
    },
    {
      "anonymous": false,
      "inputs": [
        {
          "indexed": true,
          "internalType": "address",
          "name": "previousOwner",
          "type": "address"
        },
        {
          "indexed": true,
          "internalType": "address",
          "name": "newOwner",
          "type": "address"
        }
      ],
      "name": "OwnershipTransferred",
      "type": "event"
    },
    {
      "anonymous": false,
      "inputs": [
        {
          "indexed": false,
          "internalType": "address",
          "name": "account",
          "type": "address"
        }
      ],
      "name": "Paused",
      "type": "event"
    },
    {
      "anonymous": false,
      "inputs": [
        {
          "indexed": true,
          "internalType": "address",
          "name": "_from",
          "type": "address"
        },
        {
          "indexed": true,
          "internalType": "address",
          "name": "_to",
          "type": "address"
        },
        {
          "indexed": false,
          "internalType": "uint256",
          "name": "_value",
          "type": "uint256"
        }
      ],
      "name": "Transfer",
      "type": "event"
    },
    {
      "anonymous": false,
      "inputs": [
        {
          "indexed": false,
          "internalType": "address",
          "name": "account",
          "type": "address"
        }
      ],
      "name": "Unpaused",
      "type": "event"
    },
    {
      "anonymous": false,
      "inputs": [
        {
          "indexed": true,
          "internalType": "address",
          "name": "implementation",
          "type": "address"
        }
      ],
      "name": "Upgraded",
      "type": "event"
    },
    {
      "inputs": [],
      "name": "_averageInterval",
      "outputs": [
        {
          "internalType": "uint256",
          "name": "",
          "type": "uint256"
        }
      ],
      "stateMutability": "view",
      "type": "function",
      "constant": true
    },
    {
      "inputs": [],
      "name": "_getRewardEndTime",
      "outputs": [
        {
          "internalType": "uint256",
          "name": "",
          "type": "uint256"
        }
      ],
      "stateMutability": "view",
      "type": "function",
      "constant": true
    },
    {
      "inputs": [],
      "name": "_getRewardStartTime",
      "outputs": [
        {
          "internalType": "uint256",
          "name": "",
          "type": "uint256"
        }
      ],
      "stateMutability": "view",
      "type": "function",
      "constant": true
    },
    {
      "inputs": [],
      "name": "_lastRewardStartTime",
      "outputs": [
        {
          "internalType": "uint256",
          "name": "",
          "type": "uint256"
        }
      ],
      "stateMutability": "view",
      "type": "function",
      "constant": true
    },
    {
      "inputs": [],
      "name": "_monthlyDistributePr",
      "outputs": [
        {
          "internalType": "uint256",
          "name": "",
          "type": "uint256"
        }
      ],
      "stateMutability": "view",
      "type": "function",
      "constant": true
    },
    {
      "inputs": [],
      "name": "_numOfDaysPerMth",
      "outputs": [
        {
          "internalType": "uint256",
          "name": "",
          "type": "uint256"
        }
      ],
      "stateMutability": "view",
      "type": "function",
      "constant": true
    },
    {
      "inputs": [],
      "name": "_percentageDistribute",
      "outputs": [
        {
          "internalType": "uint256",
          "name": "",
          "type": "uint256"
        }
      ],
      "stateMutability": "view",
      "type": "function",
      "constant": true
    },
    {
      "inputs": [],
      "name": "_totalSupply",
      "outputs": [
        {
          "internalType": "uint256",
          "name": "",
          "type": "uint256"
        }
      ],
      "stateMutability": "view",
      "type": "function",
      "constant": true
    },
    {
      "inputs": [
        {
          "internalType": "address",
          "name": "",
          "type": "address"
        }
      ],
      "name": "accAmount",
      "outputs": [
        {
          "internalType": "uint256",
          "name": "amount",
          "type": "uint256"
        },
        {
          "internalType": "uint256",
          "name": "lastUpdateTime",
          "type": "uint256"
        }
      ],
      "stateMutability": "view",
      "type": "function",
      "constant": true
    },
    {
      "inputs": [
        {
          "internalType": "uint256",
          "name": "",
          "type": "uint256"
        }
      ],
      "name": "admins",
      "outputs": [
        {
          "internalType": "address",
          "name": "",
          "type": "address"
        }
      ],
      "stateMutability": "view",
      "type": "function",
      "constant": true
    },
    {
      "inputs": [
        {
          "internalType": "address",
          "name": "",
          "type": "address"
        },
        {
          "internalType": "address",
          "name": "",
          "type": "address"
        }
      ],
      "name": "allowance",
      "outputs": [
        {
          "internalType": "uint256",
          "name": "",
          "type": "uint256"
        }
      ],
      "stateMutability": "view",
      "type": "function",
      "constant": true
    },
    {
      "inputs": [
        {
          "internalType": "address",
          "name": "",
          "type": "address"
        }
      ],
      "name": "balanceOf",
      "outputs": [
        {
          "internalType": "uint256",
          "name": "",
          "type": "uint256"
        }
      ],
      "stateMutability": "view",
      "type": "function",
      "constant": true
    },
    {
      "inputs": [],
      "name": "burnPercent",
      "outputs": [
        {
          "internalType": "uint256",
          "name": "",
          "type": "uint256"
        }
      ],
      "stateMutability": "view",
      "type": "function",
      "constant": true
    },
    {
      "inputs": [],
      "name": "decimals",
      "outputs": [
        {
          "internalType": "uint8",
          "name": "",
          "type": "uint8"
        }
      ],
      "stateMutability": "view",
      "type": "function",
      "constant": true
    },
    {
      "inputs": [],
      "name": "disPercent",
      "outputs": [
        {
          "internalType": "uint256",
          "name": "",
          "type": "uint256"
        }
      ],
      "stateMutability": "view",
      "type": "function",
      "constant": true
    },
    {
      "inputs": [],
      "name": "disPool",
      "outputs": [
        {
          "internalType": "address",
          "name": "",
          "type": "address"
        }
      ],
      "stateMutability": "view",
      "type": "function",
      "constant": true
    },
    {
      "inputs": [
        {
          "internalType": "address",
          "name": "",
          "type": "address"
        }
      ],
      "name": "isAdmin",
      "outputs": [
        {
          "internalType": "bool",
          "name": "",
          "type": "bool"
        }
      ],
      "stateMutability": "view",
      "type": "function",
      "constant": true
    },
    {
      "inputs": [
        {
          "internalType": "address",
          "name": "",
          "type": "address"
        }
      ],
      "name": "isWhitelistedFrom",
      "outputs": [
        {
          "internalType": "bool",
          "name": "",
          "type": "bool"
        }
      ],
      "stateMutability": "view",
      "type": "function",
      "constant": true
    },
    {
      "inputs": [
        {
          "internalType": "address",
          "name": "",
          "type": "address"
        }
      ],
      "name": "isWhitelistedTo",
      "outputs": [
        {
          "internalType": "bool",
          "name": "",
          "type": "bool"
        }
      ],
      "stateMutability": "view",
      "type": "function",
      "constant": true
    },
    {
      "inputs": [],
      "name": "liqPercent",
      "outputs": [
        {
          "internalType": "uint256",
          "name": "",
          "type": "uint256"
        }
      ],
      "stateMutability": "view",
      "type": "function",
      "constant": true
    },
    {
      "inputs": [],
      "name": "liqPool",
      "outputs": [
        {
          "internalType": "address",
          "name": "",
          "type": "address"
        }
      ],
      "stateMutability": "view",
      "type": "function",
      "constant": true
    },
    {
      "inputs": [],
      "name": "name",
      "outputs": [
        {
          "internalType": "string",
          "name": "",
          "type": "string"
        }
      ],
      "stateMutability": "view",
      "type": "function",
      "constant": true
    },
    {
      "inputs": [],
      "name": "owner",
      "outputs": [
        {
          "internalType": "address",
          "name": "",
          "type": "address"
        }
      ],
      "stateMutability": "view",
      "type": "function",
      "constant": true
    },
    {
      "inputs": [],
      "name": "paused",
      "outputs": [
        {
          "internalType": "bool",
          "name": "",
          "type": "bool"
        }
      ],
      "stateMutability": "view",
      "type": "function",
      "constant": true
    },
    {
      "inputs": [],
      "name": "renounceOwnership",
      "outputs": [],
      "stateMutability": "nonpayable",
      "type": "function"
    },
    {
      "inputs": [],
      "name": "symbol",
      "outputs": [
        {
          "internalType": "string",
          "name": "",
          "type": "string"
        }
      ],
      "stateMutability": "view",
      "type": "function",
      "constant": true
    },
    {
      "inputs": [],
      "name": "totalSupply",
      "outputs": [
        {
          "internalType": "uint256",
          "name": "",
          "type": "uint256"
        }
      ],
      "stateMutability": "view",
      "type": "function",
      "constant": true
    },
    {
      "inputs": [
        {
          "internalType": "address",
          "name": "newOwner",
          "type": "address"
        }
      ],
      "name": "transferOwnership",
      "outputs": [],
      "stateMutability": "nonpayable",
      "type": "function"
    },
    {
      "inputs": [
        {
          "internalType": "address",
          "name": "newImplementation",
          "type": "address"
        }
      ],
      "name": "upgradeTo",
      "outputs": [],
      "stateMutability": "nonpayable",
      "type": "function"
    },
    {
      "inputs": [
        {
          "internalType": "address",
          "name": "newImplementation",
          "type": "address"
        },
        {
          "internalType": "bytes",
          "name": "data",
          "type": "bytes"
        }
      ],
      "name": "upgradeToAndCall",
      "outputs": [],
      "stateMutability": "payable",
      "type": "function",
      "payable": true
    },
    {
      "inputs": [
        {
          "internalType": "address",
          "name": "newWhitelist",
          "type": "address"
        }
      ],
      "name": "setWhitelistedTo",
      "outputs": [],
      "stateMutability": "nonpayable",
      "type": "function"
    },
    {
      "inputs": [
        {
          "internalType": "address",
          "name": "newWhitelist",
          "type": "address"
        }
      ],
      "name": "removeWhitelistedTo",
      "outputs": [],
      "stateMutability": "nonpayable",
      "type": "function"
    },
    {
      "inputs": [
        {
          "internalType": "address",
          "name": "newWhitelist",
          "type": "address"
        }
      ],
      "name": "setWhitelistedFrom",
      "outputs": [],
      "stateMutability": "nonpayable",
      "type": "function"
    },
    {
      "inputs": [
        {
          "internalType": "address",
          "name": "newWhitelist",
          "type": "address"
        }
      ],
      "name": "removeWhitelistedFrom",
      "outputs": [],
      "stateMutability": "nonpayable",
      "type": "function"
    },
    {
      "inputs": [
        {
          "internalType": "address",
          "name": "_to",
          "type": "address"
        },
        {
          "internalType": "uint256",
          "name": "_value",
          "type": "uint256"
        }
      ],
      "name": "transfer",
      "outputs": [
        {
          "internalType": "bool",
          "name": "success",
          "type": "bool"
        }
      ],
      "stateMutability": "nonpayable",
      "type": "function"
    },
    {
      "inputs": [],
      "name": "claimDistributionPurse",
      "outputs": [
        {
          "internalType": "bool",
          "name": "success",
          "type": "bool"
        }
      ],
      "stateMutability": "nonpayable",
      "type": "function"
    },
    {
      "inputs": [
        {
          "internalType": "uint256",
          "name": "_rewardStartTime",
          "type": "uint256"
        },
        {
          "internalType": "uint256",
          "name": "_rewardEndTime",
          "type": "uint256"
        },
        {
          "internalType": "uint256",
          "name": "_monthlyDisPr",
          "type": "uint256"
        },
        {
          "internalType": "uint256",
          "name": "_numOfDays",
          "type": "uint256"
        },
        {
          "internalType": "uint256",
          "name": "_percentage",
          "type": "uint256"
        }
      ],
      "name": "activateClaimMonthly",
      "outputs": [],
      "stateMutability": "nonpayable",
      "type": "function"
    },
    {
      "inputs": [
        {
          "internalType": "address",
          "name": "_spender",
          "type": "address"
        },
        {
          "internalType": "uint256",
          "name": "_value",
          "type": "uint256"
        }
      ],
      "name": "approve",
      "outputs": [
        {
          "internalType": "bool",
          "name": "success",
          "type": "bool"
        }
      ],
      "stateMutability": "nonpayable",
      "type": "function"
    },
    {
      "inputs": [
        {
          "internalType": "address",
          "name": "_from",
          "type": "address"
        },
        {
          "internalType": "address",
          "name": "_to",
          "type": "address"
        },
        {
          "internalType": "uint256",
          "name": "_value",
          "type": "uint256"
        }
      ],
      "name": "transferFrom",
      "outputs": [
        {
          "internalType": "bool",
          "name": "success",
          "type": "bool"
        }
      ],
      "stateMutability": "nonpayable",
      "type": "function"
    },
    {
      "inputs": [
        {
          "internalType": "address",
          "name": "_account",
          "type": "address"
        },
        {
          "internalType": "uint256",
          "name": "_amount",
          "type": "uint256"
        }
      ],
      "name": "mint",
      "outputs": [],
      "stateMutability": "nonpayable",
      "type": "function"
    },
    {
      "inputs": [
        {
          "internalType": "address",
          "name": "_account",
          "type": "address"
        },
        {
          "internalType": "uint256",
          "name": "_amount",
          "type": "uint256"
        }
      ],
      "name": "burn",
      "outputs": [],
      "stateMutability": "nonpayable",
      "type": "function"
    },
    {
      "inputs": [
        {
          "internalType": "address",
          "name": "_newLPool",
          "type": "address"
        }
      ],
      "name": "updateLPoolAdd",
      "outputs": [],
      "stateMutability": "nonpayable",
      "type": "function"
    },
    {
      "inputs": [
        {
          "internalType": "address",
          "name": "_newDPool",
          "type": "address"
        }
      ],
      "name": "updateDPoolAdd",
      "outputs": [],
      "stateMutability": "nonpayable",
      "type": "function"
    },
    {
      "inputs": [
        {
          "internalType": "uint256",
          "name": "_newDisPercent",
          "type": "uint256"
        },
        {
          "internalType": "uint256",
          "name": "_newLiqPercent",
          "type": "uint256"
        },
        {
          "internalType": "uint256",
          "name": "_newBurnPercent",
          "type": "uint256"
        }
      ],
      "name": "updatePercent",
      "outputs": [],
      "stateMutability": "nonpayable",
      "type": "function"
    },
    {
      "inputs": [
        {
          "internalType": "address",
          "name": "newAdmin",
          "type": "address"
        }
      ],
      "name": "addAdmin",
      "outputs": [],
      "stateMutability": "nonpayable",
      "type": "function"
    },
    {
      "inputs": [
        {
          "internalType": "uint256",
          "name": "index",
          "type": "uint256"
        }
      ],
      "name": "removeAdmin",
      "outputs": [
        {
          "internalType": "address[]",
          "name": "",
          "type": "address[]"
        }
      ],
      "stateMutability": "nonpayable",
      "type": "function"
    },
    {
      "inputs": [
        {
          "internalType": "address",
          "name": "token",
          "type": "address"
        },
        {
          "internalType": "uint256",
          "name": "amount",
          "type": "uint256"
        },
        {
          "internalType": "address",
          "name": "_to",
          "type": "address"
        }
      ],
      "name": "transferERCToken",
      "outputs": [],
      "stateMutability": "nonpayable",
      "type": "function"
    },
    {
      "inputs": [],
      "name": "pause",
      "outputs": [],
      "stateMutability": "nonpayable",
      "type": "function"
    },
    {
      "inputs": [],
      "name": "unpause",
      "outputs": [],
      "stateMutability": "nonpayable",
      "type": "function"
    },
    {
      "inputs": [
        {
          "internalType": "address",
          "name": "_to",
          "type": "address"
        },
        {
          "internalType": "address",
          "name": "_lPool",
          "type": "address"
        },
        {
          "internalType": "address",
          "name": "_dPool",
          "type": "address"
        },
        {
          "internalType": "uint256",
          "name": "_burnPercent",
          "type": "uint256"
        },
        {
          "internalType": "uint256",
          "name": "_liqPercent",
          "type": "uint256"
        },
        {
          "internalType": "uint256",
          "name": "_disPercent",
          "type": "uint256"
        }
      ],
      "name": "initialize",
      "outputs": [],
      "stateMutability": "nonpayable",
      "type": "function"
    }
  ],
  "bytecode": "0x608060405234801561001057600080fd5b50615f0b80620000216000396000f3fe6080604052600436106102c95760003560e01c80637048027511610175578063ad7bbc29116100dc578063ca04d2d811610095578063dd62ed3e1161006f578063dd62ed3e14610ada578063e2657da114610b17578063f2fde38b14610b40578063f756724414610b69576102c9565b8063ca04d2d814610a49578063d552920414610a86578063d5b8ddf814610ab1576102c9565b8063ad7bbc2914610926578063b7c74bd314610963578063bab38440146109a1578063bc8d571d146109ca578063c43c082f146109f5578063c6ef924614610a1e576102c9565b80638456cb591161012e5780638456cb59146108285780638da5cb5b1461083f57806395d89b411461086a57806395e96ff1146108955780639dc29fac146108c0578063a9059cbb146108e9576102c9565b8063704802751461072c57806370a0823114610755578063715018a614610792578063728cdbca146107a9578063740b91f4146107d25780637888f7b2146107fd576102c9565b8063347d34c61161023457806340c10f19116101ed5780634f1ef286116101c75780634f1ef2861461067d5780635422e495146106995780635b014029146106c45780635c975abb14610701576102c9565b806340c10f1914610602578063434f92371461062b5780634d28b4ba14610654576102c9565b8063347d34c61461051a57806335e8b82e146105455780633659cfe61461056e5780633838d4e3146105975780633eaaf86b146105c05780633f4ba83a146105eb576102c9565b806318160ddd1161028657806318160ddd146103f457806320b1e78a1461041f57806323b872dd1461044a57806324d7806c1461048757806327ba6e11146104c4578063313ce567146104ef576102c9565b806303807ee5146102ce57806306fdde03146102f9578063095ea7b3146103245780630f4307e21461036157806311a6c16c1461038c57806314bfd6d0146103b7575b600080fd5b3480156102da57600080fd5b506102e3610b92565b6040516102f091906157ac565b60405180910390f35b34801561030557600080fd5b5061030e610b99565b60405161031b919061568a565b60405180910390f35b34801561033057600080fd5b5061034b600480360381019061034691906151f4565b610c27565b604051610358919061566f565b60405180910390f35b34801561036d57600080fd5b50610376610d62565b60405161038391906157ac565b60405180910390f35b34801561039857600080fd5b506103a1610d69565b6040516103ae919061566f565b60405180910390f35b3480156103c357600080fd5b506103de60048036038101906103d991906152b4565b610ff9565b6040516103eb9190615609565b60405180910390f35b34801561040057600080fd5b50610409611039565b60405161041691906157ac565b60405180910390f35b34801561042b57600080fd5b5061043461103f565b60405161044191906157ac565b60405180910390f35b34801561045657600080fd5b50610471600480360381019061046c9190615145565b611046565b60405161047e919061566f565b60405180910390f35b34801561049357600080fd5b506104ae60048036038101906104a9919061504b565b6115a3565b6040516104bb919061566f565b60405180910390f35b3480156104d057600080fd5b506104d96115c4565b6040516104e69190615609565b60405180910390f35b3480156104fb57600080fd5b506105046115eb565b60405161051191906157f0565b60405180910390f35b34801561052657600080fd5b5061052f6115fe565b60405161053c91906157ac565b60405180910390f35b34801561055157600080fd5b5061056c6004803603810190610567919061504b565b611605565b005b34801561057a57600080fd5b506105956004803603810190610590919061504b565b611722565b005b3480156105a357600080fd5b506105be60048036038101906105b9919061504b565b611749565b005b3480156105cc57600080fd5b506105d5611879565b6040516105e291906157ac565b60405180910390f35b3480156105f757600080fd5b50610600611880565b005b34801561060e57600080fd5b50610629600480360381019061062491906151f4565b61194d565b005b34801561063757600080fd5b50610652600480360381019061064d9190615334565b611b0a565b005b34801561066057600080fd5b5061067b6004803603810190610676919061504b565b611bfc565b005b61069760048036038101906106929190615198565b611d2b565b005b3480156106a557600080fd5b506106ae611d44565b6040516106bb91906157ac565b60405180910390f35b3480156106d057600080fd5b506106eb60048036038101906106e6919061504b565b611d4b565b6040516106f8919061566f565b60405180910390f35b34801561070d57600080fd5b50610716611d6c565b604051610723919061566f565b60405180910390f35b34801561073857600080fd5b50610753600480360381019061074e919061504b565b611d83565b005b34801561076157600080fd5b5061077c6004803603810190610777919061504b565b611f17565b60405161078991906157ac565b60405180910390f35b34801561079e57600080fd5b506107a7611f30565b005b3480156107b557600080fd5b506107d060048036038101906107cb91906150b8565b611fb8565b005b3480156107de57600080fd5b506107e76123d0565b6040516107f49190615609565b60405180910390f35b34801561080957600080fd5b506108126123f7565b60405161081f91906157ac565b60405180910390f35b34801561083457600080fd5b5061083d6123fe565b005b34801561084b57600080fd5b506108546124cc565b6040516108619190615609565b60405180910390f35b34801561087657600080fd5b5061087f6124f6565b60405161088c919061568a565b60405180910390f35b3480156108a157600080fd5b506108aa612584565b6040516108b791906157ac565b60405180910390f35b3480156108cc57600080fd5b506108e760048036038101906108e291906151f4565b61258b565b005b3480156108f557600080fd5b50610910600480360381019061090b91906151f4565b612795565b60405161091d919061566f565b60405180910390f35b34801561093257600080fd5b5061094d600480360381019061094891906152b4565b612b3f565b60405161095a919061564d565b60405180910390f35b34801561096f57600080fd5b5061098a6004803603810190610985919061504b565b612e78565b6040516109989291906157c7565b60405180910390f35b3480156109ad57600080fd5b506109c860048036038101906109c3919061504b565b612e9d565b005b3480156109d657600080fd5b506109df612fba565b6040516109ec91906157ac565b60405180910390f35b348015610a0157600080fd5b50610a1c6004803603810190610a1791906152e1565b612fc1565b005b348015610a2a57600080fd5b50610a336130a9565b604051610a4091906157ac565b60405180910390f35b348015610a5557600080fd5b50610a706004803603810190610a6b919061504b565b6130b0565b604051610a7d919061566f565b60405180910390f35b348015610a9257600080fd5b50610a9b6130d1565b604051610aa891906157ac565b60405180910390f35b348015610abd57600080fd5b50610ad86004803603810190610ad39190615234565b6130d8565b005b348015610ae657600080fd5b50610b016004803603810190610afc9190615078565b61333b565b604051610b0e91906157ac565b60405180910390f35b348015610b2357600080fd5b50610b3e6004803603810190610b39919061504b565b613361565b005b348015610b4c57600080fd5b50610b676004803603810190610b62919061504b565b613490565b005b348015610b7557600080fd5b50610b906004803603810190610b8b919061504b565b613588565b005b6101035481565b60fb8054610ba690615a78565b80601f0160208091040260200160405190810160405280929190818152602001828054610bd290615a78565b8015610c1f5780601f10610bf457610100808354040283529160200191610c1f565b820191906000526020600020905b815481529060010190602001808311610c0257829003601f168201915b505050505081565b6000610c31611d6c565b15610c71576040517f08c379a0000000000000000000000000000000000000000000000000000000008152600401610c689061570c565b60405180910390fd5b8161010f60003373ffffffffffffffffffffffffffffffffffffffff1673ffffffffffffffffffffffffffffffffffffffff16815260200190815260200160002060008573ffffffffffffffffffffffffffffffffffffffff1673ffffffffffffffffffffffffffffffffffffffff168152602001908152602001600020819055508273ffffffffffffffffffffffffffffffffffffffff163373ffffffffffffffffffffffffffffffffffffffff167f8c5be1e5ebec7d5bd14f71427d1e84f3dd0314c0f7b2291e5b200ac8c7c3b92584604051610d5091906157ac565b60405180910390a36001905092915050565b61010a5481565b6000610d73611d6c565b15610db3576040517f08c379a0000000000000000000000000000000000000000000000000000000008152600401610daa9061570c565b60405180910390fd5b610107544210610dc257600080fd5b610108544211610dd157600080fd5b6101085461011360003373ffffffffffffffffffffffffffffffffffffffff1673ffffffffffffffffffffffffffffffffffffffff1681526020019081526020016000206001015410610e2357600080fd5b610e2c336136b8565b60006127106101095461010d54606461010b5461010a5461011360003373ffffffffffffffffffffffffffffffffffffffff1673ffffffffffffffffffffffffffffffffffffffff16815260200190815260200160002060000154610e919190615953565b610e9b9190615953565b610ea59190615953565b610eaf9190615922565b610eb99190615922565b610ec39190615922565b90506101085461011360003373ffffffffffffffffffffffffffffffffffffffff1673ffffffffffffffffffffffffffffffffffffffff16815260200190815260200160002060010181905550600061011360003373ffffffffffffffffffffffffffffffffffffffff1673ffffffffffffffffffffffffffffffffffffffff16815260200190815260200160002060000181905550610f6333426136c8565b3073ffffffffffffffffffffffffffffffffffffffff1663a9059cbb33836040518363ffffffff1660e01b8152600401610f9e929190615624565b602060405180830381600087803b158015610fb857600080fd5b505af1158015610fcc573d6000803e3d6000fd5b505050506040513d601f19601f82011682018060405250810190610ff09190615287565b50600191505090565b610100818154811061100a57600080fd5b906000526020600020016000915054906101000a900473ffffffffffffffffffffffffffffffffffffffff1681565b60fd5481565b61010b5481565b6000611050611d6c565b15611090576040517f08c379a00000000000000000000000000000000000000000000000000000000081526004016110879061570c565b60405180910390fd5b600082101561109e57600080fd5b61010e60008573ffffffffffffffffffffffffffffffffffffffff1673ffffffffffffffffffffffffffffffffffffffff168152602001908152602001600020548211156110eb57600080fd5b61010f60008573ffffffffffffffffffffffffffffffffffffffff1673ffffffffffffffffffffffffffffffffffffffff16815260200190815260200160002060003373ffffffffffffffffffffffffffffffffffffffff1673ffffffffffffffffffffffffffffffffffffffff1681526020019081526020016000205482111561117557600080fd5b61011160008473ffffffffffffffffffffffffffffffffffffffff1673ffffffffffffffffffffffffffffffffffffffff16815260200190815260200160002060009054906101000a900460ff1680611218575061011260003373ffffffffffffffffffffffffffffffffffffffff1673ffffffffffffffffffffffffffffffffffffffff16815260200190815260200160002060009054906101000a900460ff165b156113d7578161010f60008673ffffffffffffffffffffffffffffffffffffffff1673ffffffffffffffffffffffffffffffffffffffff16815260200190815260200160002060003373ffffffffffffffffffffffffffffffffffffffff1673ffffffffffffffffffffffffffffffffffffffff16815260200190815260200160002060008282546112aa91906159ad565b925050819055506112bb8484613a57565b8161010e60008673ffffffffffffffffffffffffffffffffffffffff1673ffffffffffffffffffffffffffffffffffffffff168152602001908152602001600020600082825461130b91906159ad565b925050819055508161010e60008573ffffffffffffffffffffffffffffffffffffffff1673ffffffffffffffffffffffffffffffffffffffff168152602001908152602001600020600082825461136291906158cc565b925050819055508273ffffffffffffffffffffffffffffffffffffffff168473ffffffffffffffffffffffffffffffffffffffff167fddf252ad1be2c89b69c2b068fc378daa952ba7f163c4a11628f55a4df523b3ef846040516113c691906157ac565b60405180910390a36001905061159c565b8161010f60008673ffffffffffffffffffffffffffffffffffffffff1673ffffffffffffffffffffffffffffffffffffffff16815260200190815260200160002060003373ffffffffffffffffffffffffffffffffffffffff1673ffffffffffffffffffffffffffffffffffffffff168152602001908152602001600020600082825461146491906159ad565b925050819055506114758484613a57565b60006114818386613a6f565b90508061010e60008773ffffffffffffffffffffffffffffffffffffffff1673ffffffffffffffffffffffffffffffffffffffff16815260200190815260200160002060008282546114d391906159ad565b925050819055508061010e60008673ffffffffffffffffffffffffffffffffffffffff1673ffffffffffffffffffffffffffffffffffffffff168152602001908152602001600020600082825461152a91906158cc565b925050819055508373ffffffffffffffffffffffffffffffffffffffff168573ffffffffffffffffffffffffffffffffffffffff167fddf252ad1be2c89b69c2b068fc378daa952ba7f163c4a11628f55a4df523b3ef8360405161158e91906157ac565b60405180910390a360019150505b9392505050565b6101106020528060005260406000206000915054906101000a900460ff1681565b61010260009054906101000a900473ffffffffffffffffffffffffffffffffffffffff1681565b60fe60009054906101000a900460ff1681565b6101065481565b61160d613af0565b73ffffffffffffffffffffffffffffffffffffffff1661162b6124cc565b73ffffffffffffffffffffffffffffffffffffffff1614611681576040517f08c379a00000000000000000000000000000000000000000000000000000000081526004016116789061576c565b60405180910390fd5b61010160009054906101000a900473ffffffffffffffffffffffffffffffffffffffff1673ffffffffffffffffffffffffffffffffffffffff168173ffffffffffffffffffffffffffffffffffffffff1614156116dd57600080fd5b8061010160006101000a81548173ffffffffffffffffffffffffffffffffffffffff021916908373ffffffffffffffffffffffffffffffffffffffff16021790555050565b61172b81613af8565b61174681604051806020016040528060008152506000613b77565b50565b611751613af0565b73ffffffffffffffffffffffffffffffffffffffff1661176f6124cc565b73ffffffffffffffffffffffffffffffffffffffff16146117c5576040517f08c379a00000000000000000000000000000000000000000000000000000000081526004016117bc9061576c565b60405180910390fd5b61011260008273ffffffffffffffffffffffffffffffffffffffff1673ffffffffffffffffffffffffffffffffffffffff16815260200190815260200160002060009054906101000a900460ff161561181d57600080fd5b600161011260008373ffffffffffffffffffffffffffffffffffffffff1673ffffffffffffffffffffffffffffffffffffffff16815260200190815260200160002060006101000a81548160ff02191690831515021790555050565b61010d5481565b611888611d6c565b6118c7576040517f08c379a00000000000000000000000000000000000000000000000000000000081526004016118be906156ac565b60405180910390fd5b6118cf613af0565b73ffffffffffffffffffffffffffffffffffffffff166118ed6124cc565b73ffffffffffffffffffffffffffffffffffffffff1614611943576040517f08c379a000000000000000000000000000000000000000000000000000000000815260040161193a9061576c565b60405180910390fd5b61194b613d48565b565b611955611d6c565b15611995576040517f08c379a000000000000000000000000000000000000000000000000000000000815260040161198c9061570c565b60405180910390fd5b61011060003373ffffffffffffffffffffffffffffffffffffffff1673ffffffffffffffffffffffffffffffffffffffff16815260200190815260200160002060009054906101000a900460ff166119ec57600080fd5b600073ffffffffffffffffffffffffffffffffffffffff168273ffffffffffffffffffffffffffffffffffffffff161415611a2657600080fd5b611a303383613a57565b8061010e60008473ffffffffffffffffffffffffffffffffffffffff1673ffffffffffffffffffffffffffffffffffffffff1681526020019081526020016000206000828254611a8091906158cc565b925050819055508060fd6000828254611a9991906158cc565b925050819055508173ffffffffffffffffffffffffffffffffffffffff16600073ffffffffffffffffffffffffffffffffffffffff167fab8530f87dc9b59234c4623bf917212bb2536d647574c8e7e5da92c2ede0c9f883604051611afe91906157ac565b60405180910390a35050565b611b12613af0565b73ffffffffffffffffffffffffffffffffffffffff16611b306124cc565b73ffffffffffffffffffffffffffffffffffffffff1614611b86576040517f08c379a0000000000000000000000000000000000000000000000000000000008152600401611b7d9061576c565b60405180910390fd5b428511611b9257600080fd5b848411611b9e57600080fd5b60008211611bab57600080fd5b60008111611bb857600080fd5b60fd5461010d819055506101085461010c819055508161010981905550846101088190555083610107819055508061010b819055508261010a819055505050505050565b611c04613af0565b73ffffffffffffffffffffffffffffffffffffffff16611c226124cc565b73ffffffffffffffffffffffffffffffffffffffff1614611c78576040517f08c379a0000000000000000000000000000000000000000000000000000000008152600401611c6f9061576c565b60405180910390fd5b61011260008273ffffffffffffffffffffffffffffffffffffffff1673ffffffffffffffffffffffffffffffffffffffff16815260200190815260200160002060009054906101000a900460ff16611ccf57600080fd5b600061011260008373ffffffffffffffffffffffffffffffffffffffff1673ffffffffffffffffffffffffffffffffffffffff16815260200190815260200160002060006101000a81548160ff02191690831515021790555050565b611d3482613af8565b611d4082826001613b77565b5050565b6101045481565b6101116020528060005260406000206000915054906101000a900460ff1681565b6000609760009054906101000a900460ff16905090565b611d8b613af0565b73ffffffffffffffffffffffffffffffffffffffff16611da96124cc565b73ffffffffffffffffffffffffffffffffffffffff1614611dff576040517f08c379a0000000000000000000000000000000000000000000000000000000008152600401611df69061576c565b60405180910390fd5b61011060008273ffffffffffffffffffffffffffffffffffffffff1673ffffffffffffffffffffffffffffffffffffffff16815260200190815260200160002060009054906101000a900460ff1615611e5757600080fd5b600161011060008373ffffffffffffffffffffffffffffffffffffffff1673ffffffffffffffffffffffffffffffffffffffff16815260200190815260200160002060006101000a81548160ff021916908315150217905550610100819080600181540180825580915050600190039060005260206000200160009091909190916101000a81548173ffffffffffffffffffffffffffffffffffffffff021916908373ffffffffffffffffffffffffffffffffffffffff16021790555050565b61010e6020528060005260406000206000915090505481565b611f38613af0565b73ffffffffffffffffffffffffffffffffffffffff16611f566124cc565b73ffffffffffffffffffffffffffffffffffffffff1614611fac576040517f08c379a0000000000000000000000000000000000000000000000000000000008152600401611fa39061576c565b60405180910390fd5b611fb66000613dea565b565b600060019054906101000a900460ff1680611fde575060008054906101000a900460ff16155b61201d576040517f08c379a00000000000000000000000000000000000000000000000000000000081526004016120149061572c565b60405180910390fd5b60008060019054906101000a900460ff16159050801561206d576001600060016101000a81548160ff02191690831515021790555060016000806101000a81548160ff0219169083151502179055505b600073ffffffffffffffffffffffffffffffffffffffff168673ffffffffffffffffffffffffffffffffffffffff1614156120a757600080fd5b600073ffffffffffffffffffffffffffffffffffffffff168573ffffffffffffffffffffffffffffffffffffffff1614156120e157600080fd5b60008410156120ef57600080fd5b60008310156120fd57600080fd5b600082101561210b57600080fd5b6040518060400160405280600b81526020017f505552534520546f6b656e00000000000000000000000000000000000000000081525060fb9080519060200190612156929190614e6f565b506040518060400160405280600281526020017f505200000000000000000000000000000000000000000000000000000000000081525060fc90805190602001906121a2929190614e6f565b506bcecb8f27f4200f3a0000000060fd81905550601260fe60006101000a81548160ff021916908360ff16021790555069043c33c193756480000060ff819055508561010160006101000a81548173ffffffffffffffffffffffffffffffffffffffff021916908373ffffffffffffffffffffffffffffffffffffffff1602179055503061010260006101000a81548173ffffffffffffffffffffffffffffffffffffffff021916908373ffffffffffffffffffffffffffffffffffffffff16021790555083610103819055508261010481905550816101058190555060405180602001604052803373ffffffffffffffffffffffffffffffffffffffff1673ffffffffffffffffffffffffffffffffffffffff168152506101009060016122cb929190614ef5565b50603c610106819055506122dd613eb0565b6122e5613f99565b6122ed614082565b60fd5461010e60008973ffffffffffffffffffffffffffffffffffffffff1673ffffffffffffffffffffffffffffffffffffffff1681526020019081526020016000208190555061233e87426136c8565b8673ffffffffffffffffffffffffffffffffffffffff16600073ffffffffffffffffffffffffffffffffffffffff167fab8530f87dc9b59234c4623bf917212bb2536d647574c8e7e5da92c2ede0c9f860fd5460405161239e91906157ac565b60405180910390a380156123c75760008060016101000a81548160ff0219169083151502179055505b50505050505050565b61010160009054906101000a900473ffffffffffffffffffffffffffffffffffffffff1681565b61010c5481565b612406611d6c565b15612446576040517f08c379a000000000000000000000000000000000000000000000000000000000815260040161243d9061570c565b60405180910390fd5b61244e613af0565b73ffffffffffffffffffffffffffffffffffffffff1661246c6124cc565b73ffffffffffffffffffffffffffffffffffffffff16146124c2576040517f08c379a00000000000000000000000000000000000000000000000000000000081526004016124b99061576c565b60405180910390fd5b6124ca61416b565b565b600060c960009054906101000a900473ffffffffffffffffffffffffffffffffffffffff16905090565b60fc805461250390615a78565b80601f016020809104026020016040519081016040528092919081815260200182805461252f90615a78565b801561257c5780601f106125515761010080835404028352916020019161257c565b820191906000526020600020905b81548152906001019060200180831161255f57829003601f168201915b505050505081565b6101095481565b612593611d6c565b156125d3576040517f08c379a00000000000000000000000000000000000000000000000000000000081526004016125ca9061570c565b60405180910390fd5b61011060003373ffffffffffffffffffffffffffffffffffffffff1673ffffffffffffffffffffffffffffffffffffffff16815260200190815260200160002060009054906101000a900460ff1661262a57600080fd5b600073ffffffffffffffffffffffffffffffffffffffff168273ffffffffffffffffffffffffffffffffffffffff16141561266457600080fd5b8061010e60008473ffffffffffffffffffffffffffffffffffffffff1673ffffffffffffffffffffffffffffffffffffffff1681526020019081526020016000205410156126b157600080fd5b6126bb3383613a57565b8061010e60008473ffffffffffffffffffffffffffffffffffffffff1673ffffffffffffffffffffffffffffffffffffffff168152602001908152602001600020600082825461270b91906159ad565b925050819055508060fd600082825461272491906159ad565b92505081905550600073ffffffffffffffffffffffffffffffffffffffff168273ffffffffffffffffffffffffffffffffffffffff167fbac40739b0d4ca32fa2d82fc91630465ba3eddd1598da6fca393b26fb63b94538360405161278991906157ac565b60405180910390a35050565b600061279f611d6c565b156127df576040517f08c379a00000000000000000000000000000000000000000000000000000000081526004016127d69061570c565b60405180910390fd5b60008210156127ed57600080fd5b8161010e60003373ffffffffffffffffffffffffffffffffffffffff1673ffffffffffffffffffffffffffffffffffffffff16815260200190815260200160002054101561283a57600080fd5b61011160008473ffffffffffffffffffffffffffffffffffffffff1673ffffffffffffffffffffffffffffffffffffffff16815260200190815260200160002060009054906101000a900460ff16806128dd575061011260003373ffffffffffffffffffffffffffffffffffffffff1673ffffffffffffffffffffffffffffffffffffffff16815260200190815260200160002060009054906101000a900460ff165b15612a08576128ec3384613a57565b8161010e60003373ffffffffffffffffffffffffffffffffffffffff1673ffffffffffffffffffffffffffffffffffffffff168152602001908152602001600020600082825461293c91906159ad565b925050819055508161010e60008573ffffffffffffffffffffffffffffffffffffffff1673ffffffffffffffffffffffffffffffffffffffff168152602001908152602001600020600082825461299391906158cc565b925050819055508273ffffffffffffffffffffffffffffffffffffffff163373ffffffffffffffffffffffffffffffffffffffff167fddf252ad1be2c89b69c2b068fc378daa952ba7f163c4a11628f55a4df523b3ef846040516129f791906157ac565b60405180910390a360019050612b39565b612a123384613a57565b6000612a1e8333613a6f565b90508061010e60003373ffffffffffffffffffffffffffffffffffffffff1673ffffffffffffffffffffffffffffffffffffffff1681526020019081526020016000206000828254612a7091906159ad565b925050819055508061010e60008673ffffffffffffffffffffffffffffffffffffffff1673ffffffffffffffffffffffffffffffffffffffff1681526020019081526020016000206000828254612ac791906158cc565b925050819055508373ffffffffffffffffffffffffffffffffffffffff163373ffffffffffffffffffffffffffffffffffffffff167fddf252ad1be2c89b69c2b068fc378daa952ba7f163c4a11628f55a4df523b3ef83604051612b2b91906157ac565b60405180910390a360019150505b92915050565b6060612b49613af0565b73ffffffffffffffffffffffffffffffffffffffff16612b676124cc565b73ffffffffffffffffffffffffffffffffffffffff1614612bbd576040517f08c379a0000000000000000000000000000000000000000000000000000000008152600401612bb49061576c565b60405180910390fd5b60006101008381548110612bd457612bd3615be0565b5b9060005260206000200160009054906101000a900473ffffffffffffffffffffffffffffffffffffffff169050610100805490508310612c1357600080fd5b61011060008273ffffffffffffffffffffffffffffffffffffffff1673ffffffffffffffffffffffffffffffffffffffff16815260200190815260200160002060009054906101000a900460ff16612c6a57600080fd5b60008390505b600161010080549050612c8391906159ad565b811015612d4657610100600182612c9a91906158cc565b81548110612cab57612caa615be0565b5b9060005260206000200160009054906101000a900473ffffffffffffffffffffffffffffffffffffffff166101008281548110612ceb57612cea615be0565b5b9060005260206000200160006101000a81548173ffffffffffffffffffffffffffffffffffffffff021916908373ffffffffffffffffffffffffffffffffffffffff1602179055508080612d3e90615adb565b915050612c70565b50610100805480612d5a57612d59615bb1565b5b6001900381819060005260206000200160006101000a81549073ffffffffffffffffffffffffffffffffffffffff02191690559055600061011060008373ffffffffffffffffffffffffffffffffffffffff1673ffffffffffffffffffffffffffffffffffffffff16815260200190815260200160002060006101000a81548160ff021916908315150217905550610100805480602002602001604051908101604052809291908181526020018280548015612e6b57602002820191906000526020600020905b8160009054906101000a900473ffffffffffffffffffffffffffffffffffffffff1673ffffffffffffffffffffffffffffffffffffffff1681526020019060010190808311612e21575b5050505050915050919050565b6101136020528060005260406000206000915090508060000154908060010154905082565b612ea5613af0565b73ffffffffffffffffffffffffffffffffffffffff16612ec36124cc565b73ffffffffffffffffffffffffffffffffffffffff1614612f19576040517f08c379a0000000000000000000000000000000000000000000000000000000008152600401612f109061576c565b60405180910390fd5b61010260009054906101000a900473ffffffffffffffffffffffffffffffffffffffff1673ffffffffffffffffffffffffffffffffffffffff168173ffffffffffffffffffffffffffffffffffffffff161415612f7557600080fd5b8061010260006101000a81548173ffffffffffffffffffffffffffffffffffffffff021916908373ffffffffffffffffffffffffffffffffffffffff16021790555050565b6101085481565b612fc9613af0565b73ffffffffffffffffffffffffffffffffffffffff16612fe76124cc565b73ffffffffffffffffffffffffffffffffffffffff161461303d576040517f08c379a00000000000000000000000000000000000000000000000000000000081526004016130349061576c565b60405180910390fd5b6000831015801561304f575060648311155b801561305c575060008210155b8015613069575060648211155b8015613076575060008110155b8015613083575060648111155b61308c57600080fd5b826101058190555081610104819055508061010381905550505050565b6101055481565b6101126020528060005260406000206000915054906101000a900460ff1681565b6101075481565b6130e0611d6c565b15613120576040517f08c379a00000000000000000000000000000000000000000000000000000000081526004016131179061570c565b60405180910390fd5b613128613af0565b73ffffffffffffffffffffffffffffffffffffffff166131466124cc565b73ffffffffffffffffffffffffffffffffffffffff161461319c576040517f08c379a00000000000000000000000000000000000000000000000000000000081526004016131939061576c565b60405180910390fd5b600073ffffffffffffffffffffffffffffffffffffffff168173ffffffffffffffffffffffffffffffffffffffff1614156131d657600080fd5b3073ffffffffffffffffffffffffffffffffffffffff168373ffffffffffffffffffffffffffffffffffffffff1614156132a7576132143082613a57565b8273ffffffffffffffffffffffffffffffffffffffff1663a9059cbb82846040518363ffffffff1660e01b815260040161324f929190615624565b602060405180830381600087803b15801561326957600080fd5b505af115801561327d573d6000803e3d6000fd5b505050506040513d601f19601f820116820180604052508101906132a19190615287565b50613336565b8273ffffffffffffffffffffffffffffffffffffffff1663a9059cbb82846040518363ffffffff1660e01b81526004016132e2929190615624565b602060405180830381600087803b1580156132fc57600080fd5b505af1158015613310573d6000803e3d6000fd5b505050506040513d601f19601f820116820180604052508101906133349190615287565b505b505050565b61010f602052816000526040600020602052806000526040600020600091509150505481565b613369613af0565b73ffffffffffffffffffffffffffffffffffffffff166133876124cc565b73ffffffffffffffffffffffffffffffffffffffff16146133dd576040517f08c379a00000000000000000000000000000000000000000000000000000000081526004016133d49061576c565b60405180910390fd5b61011160008273ffffffffffffffffffffffffffffffffffffffff1673ffffffffffffffffffffffffffffffffffffffff16815260200190815260200160002060009054906101000a900460ff1661343457600080fd5b600061011160008373ffffffffffffffffffffffffffffffffffffffff1673ffffffffffffffffffffffffffffffffffffffff16815260200190815260200160002060006101000a81548160ff02191690831515021790555050565b613498613af0565b73ffffffffffffffffffffffffffffffffffffffff166134b66124cc565b73ffffffffffffffffffffffffffffffffffffffff161461350c576040517f08c379a00000000000000000000000000000000000000000000000000000000081526004016135039061576c565b60405180910390fd5b600073ffffffffffffffffffffffffffffffffffffffff168173ffffffffffffffffffffffffffffffffffffffff16141561357c576040517f08c379a0000000000000000000000000000000000000000000000000000000008152600401613573906156ec565b60405180910390fd5b61358581613dea565b50565b613590613af0565b73ffffffffffffffffffffffffffffffffffffffff166135ae6124cc565b73ffffffffffffffffffffffffffffffffffffffff1614613604576040517f08c379a00000000000000000000000000000000000000000000000000000000081526004016135fb9061576c565b60405180910390fd5b61011160008273ffffffffffffffffffffffffffffffffffffffff1673ffffffffffffffffffffffffffffffffffffffff16815260200190815260200160002060009054906101000a900460ff161561365c57600080fd5b600161011160008373ffffffffffffffffffffffffffffffffffffffff1673ffffffffffffffffffffffffffffffffffffffff16815260200190815260200160002060006101000a81548160ff02191690831515021790555050565b6136c581610108546136c8565b50565b600061011360008473ffffffffffffffffffffffffffffffffffffffff1673ffffffffffffffffffffffffffffffffffffffff168152602001908152602001600020600101541415613761578061011360008473ffffffffffffffffffffffffffffffffffffffff1673ffffffffffffffffffffffffffffffffffffffff16815260200190815260200160002060010181905550613a53565b61010c5461011360008473ffffffffffffffffffffffffffffffffffffffff1673ffffffffffffffffffffffffffffffffffffffff1681526020019081526020016000206001015410156138b75760006101065461010c54836137c491906159ad565b6137ce9190615922565b905060008161010e60008673ffffffffffffffffffffffffffffffffffffffff1673ffffffffffffffffffffffffffffffffffffffff1681526020019081526020016000205461381e9190615953565b90508261011360008673ffffffffffffffffffffffffffffffffffffffff1673ffffffffffffffffffffffffffffffffffffffff168152602001908152602001600020600101819055508061011360008673ffffffffffffffffffffffffffffffffffffffff1673ffffffffffffffffffffffffffffffffffffffff168152602001908152602001600020600001819055505050613a52565b60006101065461011360008573ffffffffffffffffffffffffffffffffffffffff1673ffffffffffffffffffffffffffffffffffffffff168152602001908152602001600020600101548361390c91906159ad565b6139169190615922565b905060018110613a505760008161010e60008673ffffffffffffffffffffffffffffffffffffffff1673ffffffffffffffffffffffffffffffffffffffff1681526020019081526020016000205461396e9190615953565b90508261011360008673ffffffffffffffffffffffffffffffffffffffff1673ffffffffffffffffffffffffffffffffffffffff168152602001908152602001600020600101819055508061011360008673ffffffffffffffffffffffffffffffffffffffff1673ffffffffffffffffffffffffffffffffffffffff16815260200190815260200160002060000154613a0791906158cc565b61011360008673ffffffffffffffffffffffffffffffffffffffff1673ffffffffffffffffffffffffffffffffffffffff16815260200190815260200160002060000181905550505b505b5b5050565b613a6182426136c8565b613a6b81426136c8565b5050565b600080600090506000806000613a848761420e565b809350819450829550505050600083101580613aa1575060008210155b80613aad575060008110155b15613abf57613abe868484846142af565b5b80828489613acd91906159ad565b613ad791906159ad565b613ae191906159ad565b93508394505050505092915050565b600033905090565b613b00613af0565b73ffffffffffffffffffffffffffffffffffffffff16613b1e6124cc565b73ffffffffffffffffffffffffffffffffffffffff1614613b74576040517f08c379a0000000000000000000000000000000000000000000000000000000008152600401613b6b9061576c565b60405180910390fd5b50565b6000613b81614736565b9050613b8c8461478d565b600083511180613b995750815b15613baa57613ba88484614846565b505b6000613bd87f4910fdfa16fed3260ed0e7147f7cc6da11a60208b5b9406d12a635614ffd914360001b61492a565b90508060000160009054906101000a900460ff16613d415760018160000160006101000a81548160ff021916908315150217905550613ca48583604051602401613c229190615609565b6040516020818303038152906040527f3659cfe6000000000000000000000000000000000000000000000000000000007bffffffffffffffffffffffffffffffffffffffffffffffffffffffff19166020820180517bffffffffffffffffffffffffffffffffffffffffffffffffffffffff8381831617835250505050614846565b5060008160000160006101000a81548160ff021916908315150217905550613cca614736565b73ffffffffffffffffffffffffffffffffffffffff168273ffffffffffffffffffffffffffffffffffffffff1614613d37576040517f08c379a0000000000000000000000000000000000000000000000000000000008152600401613d2e906156cc565b60405180910390fd5b613d4085614934565b5b5050505050565b613d50611d6c565b613d8f576040517f08c379a0000000000000000000000000000000000000000000000000000000008152600401613d86906156ac565b60405180910390fd5b6000609760006101000a81548160ff0219169083151502179055507f5db9ee0a495bf2e6ff9c91a7834c1ba4fdd244a5e8aa4e537bd38aeae4b073aa613dd3613af0565b604051613de09190615609565b60405180910390a1565b600060c960009054906101000a900473ffffffffffffffffffffffffffffffffffffffff1690508160c960006101000a81548173ffffffffffffffffffffffffffffffffffffffff021916908373ffffffffffffffffffffffffffffffffffffffff1602179055508173ffffffffffffffffffffffffffffffffffffffff168173ffffffffffffffffffffffffffffffffffffffff167f8be0079c531659141344cd1fd0a4f28419497f9722a3daafe3b4186f6b6457e060405160405180910390a35050565b600060019054906101000a900460ff1680613ed6575060008054906101000a900460ff16155b613f15576040517f08c379a0000000000000000000000000000000000000000000000000000000008152600401613f0c9061572c565b60405180910390fd5b60008060019054906101000a900460ff161590508015613f65576001600060016101000a81548160ff02191690831515021790555060016000806101000a81548160ff0219169083151502179055505b613f6d614983565b613f75614a5c565b8015613f965760008060016101000a81548160ff0219169083151502179055505b50565b600060019054906101000a900460ff1680613fbf575060008054906101000a900460ff16155b613ffe576040517f08c379a0000000000000000000000000000000000000000000000000000000008152600401613ff59061572c565b60405180910390fd5b60008060019054906101000a900460ff16159050801561404e576001600060016101000a81548160ff02191690831515021790555060016000806101000a81548160ff0219169083151502179055505b614056614983565b61405e614b50565b801561407f5760008060016101000a81548160ff0219169083151502179055505b50565b600060019054906101000a900460ff16806140a8575060008054906101000a900460ff16155b6140e7576040517f08c379a00000000000000000000000000000000000000000000000000000000081526004016140de9061572c565b60405180910390fd5b60008060019054906101000a900460ff161590508015614137576001600060016101000a81548160ff02191690831515021790555060016000806101000a81548160ff0219169083151502179055505b61413f614c39565b614147614d12565b80156141685760008060016101000a81548160ff0219169083151502179055505b50565b614173611d6c565b156141b3576040517f08c379a00000000000000000000000000000000000000000000000000000000081526004016141aa9061570c565b60405180910390fd5b6001609760006101000a81548160ff0219169083151502179055507f62e78cea01bee320cd4e420270b5ea74000d11b0c9f74754ebdbfc544b05a2586141f7613af0565b6040516142049190615609565b60405180910390a1565b60008060008060008060ff5460fd54111561429c57606461010354886142349190615953565b61423e9190615922565b9250606461010454886142519190615953565b61425b9190615922565b91506064610105548861426e9190615953565b6142789190615922565b9050600060ff5460fd5461428c91906159ad565b90508084111561429a578093505b505b8282829550955095505050509193909250565b600073ffffffffffffffffffffffffffffffffffffffff168473ffffffffffffffffffffffffffffffffffffffff1614156142e957600080fd5b600061010e60008673ffffffffffffffffffffffffffffffffffffffff1673ffffffffffffffffffffffffffffffffffffffff168152602001908152602001600020549050600082848661433d91906158cc565b61434791906158cc565b90508082101561435657600080fd5b8461010e60008873ffffffffffffffffffffffffffffffffffffffff1673ffffffffffffffffffffffffffffffffffffffff16815260200190815260200160002060008282546143a691906159ad565b925050819055508361010e60008873ffffffffffffffffffffffffffffffffffffffff1673ffffffffffffffffffffffffffffffffffffffff16815260200190815260200160002060008282546143fd91906159ad565b925050819055508261010e60008873ffffffffffffffffffffffffffffffffffffffff1673ffffffffffffffffffffffffffffffffffffffff168152602001908152602001600020600082825461445491906159ad565b925050819055508460fd600082825461446d91906159ad565b925050819055506144c461010260009054906101000a900473ffffffffffffffffffffffffffffffffffffffff1661010160009054906101000a900473ffffffffffffffffffffffffffffffffffffffff16613a57565b8361010e600061010160009054906101000a900473ffffffffffffffffffffffffffffffffffffffff1673ffffffffffffffffffffffffffffffffffffffff1673ffffffffffffffffffffffffffffffffffffffff168152602001908152602001600020600082825461453791906158cc565b925050819055508261010e600061010260009054906101000a900473ffffffffffffffffffffffffffffffffffffffff1673ffffffffffffffffffffffffffffffffffffffff1673ffffffffffffffffffffffffffffffffffffffff16815260200190815260200160002060008282546145b191906158cc565b92505081905550600073ffffffffffffffffffffffffffffffffffffffff168673ffffffffffffffffffffffffffffffffffffffff167fbac40739b0d4ca32fa2d82fc91630465ba3eddd1598da6fca393b26fb63b94538760405161461691906157ac565b60405180910390a361010160009054906101000a900473ffffffffffffffffffffffffffffffffffffffff1673ffffffffffffffffffffffffffffffffffffffff163373ffffffffffffffffffffffffffffffffffffffff167fddf252ad1be2c89b69c2b068fc378daa952ba7f163c4a11628f55a4df523b3ef8660405161469e91906157ac565b60405180910390a361010260009054906101000a900473ffffffffffffffffffffffffffffffffffffffff1673ffffffffffffffffffffffffffffffffffffffff163373ffffffffffffffffffffffffffffffffffffffff167fddf252ad1be2c89b69c2b068fc378daa952ba7f163c4a11628f55a4df523b3ef8560405161472691906157ac565b60405180910390a3505050505050565b60006147647f360894a13ba1a3210667c828492db98dca3e2076cc3735a920a3ca505d382bbc60001b614deb565b60000160009054906101000a900473ffffffffffffffffffffffffffffffffffffffff16905090565b61479681614df5565b6147d5576040517f08c379a00000000000000000000000000000000000000000000000000000000081526004016147cc9061574c565b60405180910390fd5b806148027f360894a13ba1a3210667c828492db98dca3e2076cc3735a920a3ca505d382bbc60001b614deb565b60000160006101000a81548173ffffffffffffffffffffffffffffffffffffffff021916908373ffffffffffffffffffffffffffffffffffffffff16021790555050565b606061485183614df5565b614890576040517f08c379a00000000000000000000000000000000000000000000000000000000081526004016148879061578c565b60405180910390fd5b6000808473ffffffffffffffffffffffffffffffffffffffff16846040516148b891906155f2565b600060405180830381855af49150503d80600081146148f3576040519150601f19603f3d011682016040523d82523d6000602084013e6148f8565b606091505b50915091506149208282604051806060016040528060278152602001615eaf60279139614e08565b9250505092915050565b6000819050919050565b61493d8161478d565b8073ffffffffffffffffffffffffffffffffffffffff167fbc7cd75a20ee27fd9adebab32041f755214dbc6bffa90cc0225b39da2e5c2d3b60405160405180910390a250565b600060019054906101000a900460ff16806149a9575060008054906101000a900460ff16155b6149e8576040517f08c379a00000000000000000000000000000000000000000000000000000000081526004016149df9061572c565b60405180910390fd5b60008060019054906101000a900460ff161590508015614a38576001600060016101000a81548160ff02191690831515021790555060016000806101000a81548160ff0219169083151502179055505b8015614a595760008060016101000a81548160ff0219169083151502179055505b50565b600060019054906101000a900460ff1680614a82575060008054906101000a900460ff16155b614ac1576040517f08c379a0000000000000000000000000000000000000000000000000000000008152600401614ab89061572c565b60405180910390fd5b60008060019054906101000a900460ff161590508015614b11576001600060016101000a81548160ff02191690831515021790555060016000806101000a81548160ff0219169083151502179055505b6000609760006101000a81548160ff0219169083151502179055508015614b4d5760008060016101000a81548160ff0219169083151502179055505b50565b600060019054906101000a900460ff1680614b76575060008054906101000a900460ff16155b614bb5576040517f08c379a0000000000000000000000000000000000000000000000000000000008152600401614bac9061572c565b60405180910390fd5b60008060019054906101000a900460ff161590508015614c05576001600060016101000a81548160ff02191690831515021790555060016000806101000a81548160ff0219169083151502179055505b614c15614c10613af0565b613dea565b8015614c365760008060016101000a81548160ff0219169083151502179055505b50565b600060019054906101000a900460ff1680614c5f575060008054906101000a900460ff16155b614c9e576040517f08c379a0000000000000000000000000000000000000000000000000000000008152600401614c959061572c565b60405180910390fd5b60008060019054906101000a900460ff161590508015614cee576001600060016101000a81548160ff02191690831515021790555060016000806101000a81548160ff0219169083151502179055505b8015614d0f5760008060016101000a81548160ff0219169083151502179055505b50565b600060019054906101000a900460ff1680614d38575060008054906101000a900460ff16155b614d77576040517f08c379a0000000000000000000000000000000000000000000000000000000008152600401614d6e9061572c565b60405180910390fd5b60008060019054906101000a900460ff161590508015614dc7576001600060016101000a81548160ff02191690831515021790555060016000806101000a81548160ff0219169083151502179055505b8015614de85760008060016101000a81548160ff0219169083151502179055505b50565b6000819050919050565b600080823b905060008111915050919050565b60608315614e1857829050614e68565b600083511115614e2b5782518084602001fd5b816040517f08c379a0000000000000000000000000000000000000000000000000000000008152600401614e5f919061568a565b60405180910390fd5b9392505050565b828054614e7b90615a78565b90600052602060002090601f016020900481019282614e9d5760008555614ee4565b82601f10614eb657805160ff1916838001178555614ee4565b82800160010185558215614ee4579182015b82811115614ee3578251825591602001919060010190614ec8565b5b509050614ef19190614f7f565b5090565b828054828255906000526020600020908101928215614f6e579160200282015b82811115614f6d5782518260006101000a81548173ffffffffffffffffffffffffffffffffffffffff021916908373ffffffffffffffffffffffffffffffffffffffff16021790555091602001919060010190614f15565b5b509050614f7b9190614f7f565b5090565b5b80821115614f98576000816000905550600101614f80565b5090565b6000614faf614faa84615830565b61580b565b905082815260208101848484011115614fcb57614fca615c43565b5b614fd6848285615a36565b509392505050565b600081359050614fed81615e69565b92915050565b60008151905061500281615e80565b92915050565b600082601f83011261501d5761501c615c3e565b5b813561502d848260208601614f9c565b91505092915050565b60008135905061504581615e97565b92915050565b60006020828403121561506157615060615c4d565b5b600061506f84828501614fde565b91505092915050565b6000806040838503121561508f5761508e615c4d565b5b600061509d85828601614fde565b92505060206150ae85828601614fde565b9150509250929050565b60008060008060008060c087890312156150d5576150d4615c4d565b5b60006150e389828a01614fde565b96505060206150f489828a01614fde565b955050604061510589828a01614fde565b945050606061511689828a01615036565b935050608061512789828a01615036565b92505060a061513889828a01615036565b9150509295509295509295565b60008060006060848603121561515e5761515d615c4d565b5b600061516c86828701614fde565b935050602061517d86828701614fde565b925050604061518e86828701615036565b9150509250925092565b600080604083850312156151af576151ae615c4d565b5b60006151bd85828601614fde565b925050602083013567ffffffffffffffff8111156151de576151dd615c48565b5b6151ea85828601615008565b9150509250929050565b6000806040838503121561520b5761520a615c4d565b5b600061521985828601614fde565b925050602061522a85828601615036565b9150509250929050565b60008060006060848603121561524d5761524c615c4d565b5b600061525b86828701614fde565b935050602061526c86828701615036565b925050604061527d86828701614fde565b9150509250925092565b60006020828403121561529d5761529c615c4d565b5b60006152ab84828501614ff3565b91505092915050565b6000602082840312156152ca576152c9615c4d565b5b60006152d884828501615036565b91505092915050565b6000806000606084860312156152fa576152f9615c4d565b5b600061530886828701615036565b935050602061531986828701615036565b925050604061532a86828701615036565b9150509250925092565b600080600080600060a086880312156153505761534f615c4d565b5b600061535e88828901615036565b955050602061536f88828901615036565b945050604061538088828901615036565b935050606061539188828901615036565b92505060806153a288828901615036565b9150509295509295909350565b60006153bb83836153c7565b60208301905092915050565b6153d0816159e1565b82525050565b6153df816159e1565b82525050565b60006153f082615871565b6153fa818561589f565b935061540583615861565b8060005b8381101561543657815161541d88826153af565b975061542883615892565b925050600181019050615409565b5085935050505092915050565b61544c816159f3565b82525050565b600061545d8261587c565b61546781856158b0565b9350615477818560208601615a45565b80840191505092915050565b600061548e82615887565b61549881856158bb565b93506154a8818560208601615a45565b6154b181615c52565b840191505092915050565b60006154c96014836158bb565b91506154d482615c63565b602082019050919050565b60006154ec602f836158bb565b91506154f782615c8c565b604082019050919050565b600061550f6026836158bb565b915061551a82615cdb565b604082019050919050565b60006155326010836158bb565b915061553d82615d2a565b602082019050919050565b6000615555602e836158bb565b915061556082615d53565b604082019050919050565b6000615578602d836158bb565b915061558382615da2565b604082019050919050565b600061559b6020836158bb565b91506155a682615df1565b602082019050919050565b60006155be6026836158bb565b91506155c982615e1a565b604082019050919050565b6155dd81615a1f565b82525050565b6155ec81615a29565b82525050565b60006155fe8284615452565b915081905092915050565b600060208201905061561e60008301846153d6565b92915050565b600060408201905061563960008301856153d6565b61564660208301846155d4565b9392505050565b6000602082019050818103600083015261566781846153e5565b905092915050565b60006020820190506156846000830184615443565b92915050565b600060208201905081810360008301526156a48184615483565b905092915050565b600060208201905081810360008301526156c5816154bc565b9050919050565b600060208201905081810360008301526156e5816154df565b9050919050565b6000602082019050818103600083015261570581615502565b9050919050565b6000602082019050818103600083015261572581615525565b9050919050565b6000602082019050818103600083015261574581615548565b9050919050565b600060208201905081810360008301526157658161556b565b9050919050565b600060208201905081810360008301526157858161558e565b9050919050565b600060208201905081810360008301526157a5816155b1565b9050919050565b60006020820190506157c160008301846155d4565b92915050565b60006040820190506157dc60008301856155d4565b6157e960208301846155d4565b9392505050565b600060208201905061580560008301846155e3565b92915050565b6000615815615826565b90506158218282615aaa565b919050565b6000604051905090565b600067ffffffffffffffff82111561584b5761584a615c0f565b5b61585482615c52565b9050602081019050919050565b6000819050602082019050919050565b600081519050919050565b600081519050919050565b600081519050919050565b6000602082019050919050565b600082825260208201905092915050565b600081905092915050565b600082825260208201905092915050565b60006158d782615a1f565b91506158e283615a1f565b9250827fffffffffffffffffffffffffffffffffffffffffffffffffffffffffffffffff0382111561591757615916615b24565b5b828201905092915050565b600061592d82615a1f565b915061593883615a1f565b92508261594857615947615b53565b5b828204905092915050565b600061595e82615a1f565b915061596983615a1f565b9250817fffffffffffffffffffffffffffffffffffffffffffffffffffffffffffffffff04831182151516156159a2576159a1615b24565b5b828202905092915050565b60006159b882615a1f565b91506159c383615a1f565b9250828210156159d6576159d5615b24565b5b828203905092915050565b60006159ec826159ff565b9050919050565b60008115159050919050565b600073ffffffffffffffffffffffffffffffffffffffff82169050919050565b6000819050919050565b600060ff82169050919050565b82818337600083830152505050565b60005b83811015615a63578082015181840152602081019050615a48565b83811115615a72576000848401525b50505050565b60006002820490506001821680615a9057607f821691505b60208210811415615aa457615aa3615b82565b5b50919050565b615ab382615c52565b810181811067ffffffffffffffff82111715615ad257615ad1615c0f565b5b80604052505050565b6000615ae682615a1f565b91507fffffffffffffffffffffffffffffffffffffffffffffffffffffffffffffffff821415615b1957615b18615b24565b5b600182019050919050565b7f4e487b7100000000000000000000000000000000000000000000000000000000600052601160045260246000fd5b7f4e487b7100000000000000000000000000000000000000000000000000000000600052601260045260246000fd5b7f4e487b7100000000000000000000000000000000000000000000000000000000600052602260045260246000fd5b7f4e487b7100000000000000000000000000000000000000000000000000000000600052603160045260246000fd5b7f4e487b7100000000000000000000000000000000000000000000000000000000600052603260045260246000fd5b7f4e487b7100000000000000000000000000000000000000000000000000000000600052604160045260246000fd5b600080fd5b600080fd5b600080fd5b600080fd5b6000601f19601f8301169050919050565b7f5061757361626c653a206e6f7420706175736564000000000000000000000000600082015250565b7f45524331393637557067726164653a207570677261646520627265616b73206660008201527f7572746865722075706772616465730000000000000000000000000000000000602082015250565b7f4f776e61626c653a206e6577206f776e657220697320746865207a65726f206160008201527f6464726573730000000000000000000000000000000000000000000000000000602082015250565b7f5061757361626c653a2070617573656400000000000000000000000000000000600082015250565b7f496e697469616c697a61626c653a20636f6e747261637420697320616c72656160008201527f647920696e697469616c697a6564000000000000000000000000000000000000602082015250565b7f455243313936373a206e657720696d706c656d656e746174696f6e206973206e60008201527f6f74206120636f6e747261637400000000000000000000000000000000000000602082015250565b7f4f776e61626c653a2063616c6c6572206973206e6f7420746865206f776e6572600082015250565b7f416464726573733a2064656c65676174652063616c6c20746f206e6f6e2d636f60008201527f6e74726163740000000000000000000000000000000000000000000000000000602082015250565b615e72816159e1565b8114615e7d57600080fd5b50565b615e89816159f3565b8114615e9457600080fd5b50565b615ea081615a1f565b8114615eab57600080fd5b5056fe416464726573733a206c6f772d6c6576656c2064656c65676174652063616c6c206661696c6564a26469706673582212203f00313026a684dab6d8bc3e7316504a0c4d8737786f1a26d7dfc92e39f56d0a64736f6c63430008070033",
  "immutableReferences": {},
  "source": "// SPDX-License-Identifier: UNLICENSED\r\n\r\npragma solidity ^0.8.0;\r\n\r\nimport \"@openzeppelin/contracts-upgradeable/proxy/utils/Initializable.sol\";\r\nimport \"@openzeppelin/contracts-upgradeable/proxy/utils/UUPSUpgradeable.sol\";\r\nimport \"@openzeppelin/contracts-upgradeable/security/PausableUpgradeable.sol\";\r\nimport \"@openzeppelin/contracts-upgradeable/access/OwnableUpgradeable.sol\";\r\n\r\nabstract contract ERC20Interface {\r\n\r\n    function transfer(address to, uint tokens) public virtual returns (bool success);\r\n\r\n    function transferFrom(address from, address to, uint tokens) public virtual returns (bool success);\r\n\r\n}\r\n\r\ncontract PurseTokenUpgradable is Initializable, UUPSUpgradeable, PausableUpgradeable, OwnableUpgradeable {\r\n    string public name;\r\n    string public symbol;\r\n    uint256 public totalSupply;\r\n    uint8 public decimals;\r\n    uint256 private minimumSupply;\r\n    address[] public admins;\r\n    address public liqPool;\r\n    address public disPool;\r\n    uint256 public burnPercent;\r\n    uint256 public liqPercent;\r\n    uint256 public disPercent;\r\n    \r\n    uint256 public _averageInterval;\r\n    uint256 public _getRewardEndTime;\r\n    uint256 public _getRewardStartTime;\r\n    uint256 public _numOfDaysPerMth;\r\n    uint256 public _monthlyDistributePr;\r\n    uint256 public _percentageDistribute;\r\n    uint256 public _lastRewardStartTime;\r\n    uint256 public _totalSupply;\r\n    \r\n    event Transfer(address indexed _from, address indexed _to, uint256 _value);\r\n    event Burn(address indexed _from, address indexed _to, uint256 _value);\r\n    event Mint(address indexed _from, address indexed _to, uint256 _value);\r\n    event Approval(address indexed _owner, address indexed _spender, uint256 _value);\r\n\r\n    modifier onlyAdmin() {\r\n        require(isAdmin[msg.sender]);\r\n        _;\r\n    }\r\n\r\n    mapping(address => uint256) public balanceOf;\r\n    mapping(address => mapping(address => uint256)) public allowance;\r\n    mapping(address => bool) public isAdmin;\r\n    mapping(address => bool) public isWhitelistedTo;\r\n    mapping(address => bool) public isWhitelistedFrom;\r\n    mapping(address => AccAmount) public accAmount;\r\n\r\n    struct AccAmount {\r\n        uint256 amount;\r\n        uint256 lastUpdateTime;\r\n    }\r\n\r\n    function setWhitelistedTo(address newWhitelist) public onlyOwner {\r\n        // require(newWhitelist != address(0));\r\n        require(!isWhitelistedTo[newWhitelist]);\r\n\r\n        isWhitelistedTo[newWhitelist] = true;\r\n    }\r\n\r\n    function removeWhitelistedTo(address newWhitelist) public onlyOwner {\r\n        // require(newWhitelist != address(0));\r\n        require(isWhitelistedTo[newWhitelist]);\r\n\r\n        isWhitelistedTo[newWhitelist] = false;\r\n    }\r\n\r\n    function setWhitelistedFrom(address newWhitelist) public onlyOwner {\r\n        // require(newWhitelist != address(0));\r\n        require(!isWhitelistedFrom[newWhitelist]);\r\n\r\n        isWhitelistedFrom[newWhitelist] = true;\r\n    }\r\n\r\n    function removeWhitelistedFrom(address newWhitelist) public onlyOwner {\r\n        // require(newWhitelist != address(0));\r\n        require(isWhitelistedFrom[newWhitelist]);\r\n\r\n        isWhitelistedFrom[newWhitelist] = false;\r\n    }\r\n\r\n    function transfer(address _to, uint256 _value)\r\n        public\r\n        whenNotPaused \r\n        returns (bool success)\r\n    {\r\n        require(_value >= 0);\r\n        require(balanceOf[msg.sender] >= _value);\r\n        if (isWhitelistedTo[_to] || isWhitelistedFrom[msg.sender]) {\r\n            updateAccumlateBalanceTransaction(msg.sender, _to); \r\n            balanceOf[msg.sender] -= _value;\r\n            balanceOf[_to] += _value;\r\n            \r\n           \r\n            emit Transfer(msg.sender, _to, _value);\r\n            return true;\r\n        } else {\r\n            updateAccumlateBalanceTransaction(msg.sender, _to);\r\n            uint256 transferValue = _partialBurn(_value, msg.sender);\r\n            balanceOf[msg.sender] -= transferValue;\r\n            balanceOf[_to] += transferValue;\r\n            \r\n\r\n            emit Transfer(msg.sender, _to, transferValue);\r\n            return true;\r\n        }\r\n    }\r\n    \r\n    function updateAccumulateBalance(address _holder, uint256 _updateTime) private {\r\n        if (accAmount[_holder].lastUpdateTime == 0) {\r\n            accAmount[_holder].lastUpdateTime = _updateTime;\r\n        } \r\n        else if (accAmount[_holder].lastUpdateTime < _lastRewardStartTime) {\r\n            uint256 interval = (_updateTime - _lastRewardStartTime)/ _averageInterval;\r\n            uint256 accumulateAmount = balanceOf[_holder] * interval;\r\n            accAmount[_holder].lastUpdateTime = _updateTime;\r\n            accAmount[_holder].amount = accumulateAmount;            \r\n        } \r\n        else {\r\n            uint256 interval = (_updateTime - accAmount[_holder].lastUpdateTime)/ _averageInterval;\r\n            if (interval >= 1) {\r\n                uint256 accumulateAmount = balanceOf[_holder] * interval;\r\n                accAmount[_holder].lastUpdateTime = _updateTime;\r\n                accAmount[_holder].amount = accAmount[_holder].amount + accumulateAmount;                     \r\n            }\r\n        }\r\n    }\r\n    \r\n    function updateAccumlateBalanceTransaction(address _from, address _to) private {\r\n        updateAccumulateBalance(_from, block.timestamp);\r\n        updateAccumulateBalance(_to, block.timestamp);\r\n    }\r\n    \r\n    function updateAccumulateBalanceClaim(address _holder) private {\r\n        updateAccumulateBalance(_holder, _getRewardStartTime);\r\n    }\r\n\r\n    function claimDistributionPurse() public whenNotPaused returns(bool success) {\r\n        require(block.timestamp < _getRewardEndTime);\r\n        require(block.timestamp > _getRewardStartTime);\r\n        require(accAmount[msg.sender].lastUpdateTime < _getRewardStartTime);\r\n        updateAccumulateBalanceClaim(msg.sender);\r\n        uint256 claimAmount = accAmount[msg.sender].amount * _monthlyDistributePr * _percentageDistribute * 100 / _totalSupply / _numOfDaysPerMth / 10000;\r\n        \r\n        accAmount[msg.sender].lastUpdateTime = _getRewardStartTime;\r\n        accAmount[msg.sender].amount = 0;\r\n        updateAccumulateBalance(msg.sender, block.timestamp);\r\n        ERC20Interface(address(this)).transfer(msg.sender, claimAmount);\r\n        return true;\r\n    }\r\n    \r\n    function activateClaimMonthly(uint256 _rewardStartTime, uint256 _rewardEndTime, uint256 _monthlyDisPr, uint256 _numOfDays, uint256 _percentage) public onlyOwner {\r\n        require(_rewardStartTime > block.timestamp );\r\n        require(_rewardEndTime > _rewardStartTime);\r\n        require(_numOfDays > 0);\r\n        require(_percentage > 0);\r\n        \r\n        _totalSupply = totalSupply;\r\n        _lastRewardStartTime = _getRewardStartTime;\r\n        _numOfDaysPerMth = _numOfDays;\r\n        _getRewardStartTime = _rewardStartTime;\r\n        _getRewardEndTime = _rewardEndTime;\r\n        _percentageDistribute = _percentage;\r\n        _monthlyDistributePr = _monthlyDisPr;\r\n    }\r\n    \r\n    function approve(address _spender, uint256 _value)\r\n        public\r\n        whenNotPaused \r\n        returns (bool success)\r\n    {\r\n        allowance[msg.sender][_spender] = _value;\r\n        emit Approval(msg.sender, _spender, _value);\r\n        return true;\r\n    }\r\n\r\n    function transferFrom(\r\n        address _from,\r\n        address _to,\r\n        uint256 _value\r\n    ) public whenNotPaused returns (bool success) {\r\n        require(_value >= 0);\r\n        require(_value <= balanceOf[_from]);\r\n        require(_value <= allowance[_from][msg.sender]);\r\n        if (isWhitelistedTo[_to] || isWhitelistedFrom[msg.sender]) {\r\n            allowance[_from][msg.sender] -= _value;\r\n            updateAccumlateBalanceTransaction(_from, _to);\r\n            balanceOf[_from] -= _value;\r\n            balanceOf[_to] += _value;\r\n            \r\n            emit Transfer(_from, _to, _value);\r\n            return true;\r\n        } else {\r\n            allowance[_from][msg.sender] -= _value;\r\n            updateAccumlateBalanceTransaction(_from, _to);\r\n            uint256 transferValue = _partialBurn(_value, _from);\r\n            balanceOf[_from] -= transferValue;\r\n            balanceOf[_to] += transferValue;\r\n\r\n            emit Transfer(_from, _to, transferValue);\r\n            return true;\r\n        }\r\n    }\r\n\r\n    function mint(address _account, uint256 _amount) public whenNotPaused onlyAdmin {\r\n        require(_account != address(0));\r\n        updateAccumlateBalanceTransaction(msg.sender, _account); \r\n        balanceOf[_account] += _amount;\r\n\r\n        totalSupply += _amount;\r\n        emit Mint(address(0), _account, _amount);\r\n    }\r\n\r\n    function burn(address _account, uint256 _amount) public whenNotPaused onlyAdmin {\r\n        require(_account != address(0));\r\n        require(balanceOf[_account] >= _amount);\r\n        updateAccumlateBalanceTransaction(msg.sender, _account); \r\n        balanceOf[_account] -= _amount;\r\n        totalSupply -= _amount;\r\n        emit Burn(_account, address(0), _amount);\r\n    }\r\n\r\n    function _partialBurn(uint256 _amount, address _from)\r\n        internal\r\n        returns (uint256)\r\n    {\r\n        uint256 transferAmount = 0;\r\n        uint256 burnAmount;\r\n        uint256 liqAmount;\r\n        uint256 disAmount;\r\n        (\r\n            burnAmount,\r\n            liqAmount,\r\n            disAmount\r\n        ) = _calculateDeductAmount(_amount);\r\n\r\n        if (burnAmount >= 0 || liqAmount >= 0 || disAmount >= 0) {\r\n            burnPrivate(_from, burnAmount, liqAmount, disAmount);\r\n        }\r\n        transferAmount = _amount - burnAmount - liqAmount - disAmount;\r\n\r\n        return transferAmount;\r\n    }\r\n\r\n    function _calculateDeductAmount(uint256 _amount)\r\n        internal\r\n        view\r\n        returns (\r\n            uint256,\r\n            uint256,\r\n            uint256\r\n        )\r\n    {\r\n        uint256 burnAmount;\r\n        uint256 liqAmount;\r\n        uint256 disAmount;\r\n\r\n        if (totalSupply > minimumSupply) {\r\n            burnAmount = (_amount * burnPercent) / 100;\r\n            liqAmount = (_amount * liqPercent) / 100;\r\n            disAmount = (_amount * disPercent) / 100;\r\n            uint256 availableBurn = totalSupply - minimumSupply;\r\n            if (burnAmount > availableBurn) {\r\n                burnAmount = availableBurn;\r\n            }\r\n        }\r\n        return (burnAmount, liqAmount, disAmount);\r\n    }\r\n\r\n    function burnPrivate(\r\n        address _account,\r\n        uint256 _burnAmount,\r\n        uint256 _liqAmount,\r\n        uint256 _disAmount\r\n    ) private {\r\n        require(_account != address(0));\r\n        uint256 accountBalance = balanceOf[_account];\r\n        uint256 deductAmount = _burnAmount + _liqAmount + _disAmount;\r\n        require(accountBalance >= deductAmount);\r\n        balanceOf[_account] -= _burnAmount;\r\n        balanceOf[_account] -= _liqAmount;\r\n        balanceOf[_account] -= _disAmount;\r\n\r\n        totalSupply -= _burnAmount;\r\n        updateAccumlateBalanceTransaction(disPool, liqPool); \r\n        balanceOf[liqPool] += _liqAmount;\r\n        balanceOf[disPool] += _disAmount;\r\n\r\n        emit Burn(_account, address(0), _burnAmount);\r\n        emit Transfer(msg.sender, liqPool, _liqAmount);\r\n        emit Transfer(msg.sender, disPool, _disAmount);\r\n    }\r\n    \r\n    function updateLPoolAdd(address _newLPool) public onlyOwner {\r\n        // require(_newLPool != address(0));\r\n        require(_newLPool != liqPool);\r\n\r\n        liqPool = _newLPool;\r\n    }\r\n\r\n    function updateDPoolAdd(address _newDPool) public onlyOwner {\r\n        // require(_newDPool != address(0));\r\n        require(_newDPool != disPool);\r\n\r\n        disPool = _newDPool;\r\n    }\r\n    \r\n    function updatePercent(uint256 _newDisPercent, uint256 _newLiqPercent, uint256 _newBurnPercent) public onlyOwner {\r\n        require(_newDisPercent >= 0 && _newDisPercent <= 100 && _newLiqPercent >= 0 && _newLiqPercent <= 100 && _newBurnPercent >= 0 && _newBurnPercent <= 100);\r\n        // require(_newLiqPercent >= 0 && _newLiqPercent <= 100);\r\n        // require(_newBurnPercent >= 0 && _newBurnPercent <= 100);\r\n        \r\n        disPercent = _newDisPercent;\r\n        liqPercent = _newLiqPercent;\r\n        burnPercent = _newBurnPercent;\r\n    }\r\n\r\n    function addAdmin(address newAdmin) public onlyOwner{\r\n        // require(newAdmin != address(0));\r\n        require(!isAdmin[newAdmin]);\r\n\r\n        isAdmin[newAdmin] = true;\r\n        admins.push(newAdmin);\r\n    }\r\n\r\n    function removeAdmin(uint index) public onlyOwner returns (address[] memory){\r\n        address removeOwner = admins[index];\r\n        require(index < admins.length);\r\n        require(isAdmin[removeOwner]);\r\n        \r\n        for (uint i = index; i<admins.length-1; i++){\r\n            admins[i] = admins[i+1];\r\n        }\r\n        admins.pop();\r\n\r\n        isAdmin[removeOwner] = false;\r\n        return admins;\r\n    }\r\n\r\n    // function getAdmins() public view returns (address[] memory) {\r\n    //     return admins;\r\n    // }\r\n    \r\n    function transferERCToken(address token, uint256 amount, address _to) public whenNotPaused onlyOwner{\r\n        require(_to != address(0));\r\n        if (token == address(this)) {\r\n            updateAccumlateBalanceTransaction(address(this), _to);\r\n            ERC20Interface(token).transfer(_to, amount);\r\n        } else {\r\n            ERC20Interface(token).transfer(_to, amount);          \r\n        }\r\n    } \r\n\r\n    function pause() public whenNotPaused onlyOwner {\r\n        _pause();\r\n    }\r\n\r\n    function unpause() public whenPaused onlyOwner {\r\n        _unpause();\r\n    }\r\n\r\n    function _authorizeUpgrade(address) internal override onlyOwner {}\r\n\r\n    function initialize(\r\n        address _to,\r\n        address _lPool,\r\n        address _dPool,\r\n        uint256 _burnPercent,\r\n        uint256 _liqPercent,\r\n        uint256 _disPercent\r\n    ) public initializer {\r\n        require(_lPool != address(0));\r\n        require(_dPool != address(0));\r\n        require(_burnPercent >= 0);\r\n        require(_liqPercent >= 0);\r\n        require(_disPercent >= 0);\r\n\r\n        name = \"PURSE Token\";\r\n        symbol = \"PR\";\r\n        totalSupply = 64000000000 * (10**18); // 64 billion tokens\r\n        decimals = 18;\r\n        minimumSupply = 20000 * (10**18);\r\n\r\n        liqPool = _lPool;\r\n        disPool = address(this);\r\n        burnPercent = _burnPercent;\r\n        liqPercent = _liqPercent;\r\n        disPercent = _disPercent;\r\n        admins = [msg.sender];\r\n        _averageInterval = 1 minutes;\r\n        __Pausable_init();\r\n        __Ownable_init();\r\n        __UUPSUpgradeable_init();\r\n        \r\n        balanceOf[_to] = totalSupply;\r\n        updateAccumulateBalance(_to, block.timestamp); \r\n        emit Mint(address(0), _to, totalSupply);\r\n    }\r\n}",
  "sourcePath": "C:\\Users\\cheek\\Desktop\\Developer doc\\Visual Studio Code\\PundiX\\YieldFarm_BridgeEthBsc\\src\\contracts\\PurseTokenUpgradable.sol",
  "compiler": {
    "name": "solc",
    "version": "0.8.7+commit.e28d00a7.Emscripten.clang"
  },
  "schemaVersion": "3.2.3",
  "updatedAt": "2021-09-14T08:34:53.058Z",
  "networkType": "ethereum",
  "devdoc": {
    "kind": "dev",
    "methods": {
      "owner()": {
        "details": "Returns the address of the current owner."
      },
      "paused()": {
        "details": "Returns true if the contract is paused, and false otherwise."
      },
      "renounceOwnership()": {
        "details": "Leaves the contract without owner. It will not be possible to call `onlyOwner` functions anymore. Can only be called by the current owner. NOTE: Renouncing ownership will leave the contract without an owner, thereby removing any functionality that is only available to the owner."
      },
      "transferOwnership(address)": {
        "details": "Transfers ownership of the contract to a new account (`newOwner`). Can only be called by the current owner."
      },
      "upgradeTo(address)": {
        "details": "Upgrade the implementation of the proxy to `newImplementation`. Calls {_authorizeUpgrade}. Emits an {Upgraded} event."
      },
      "upgradeToAndCall(address,bytes)": {
        "details": "Upgrade the implementation of the proxy to `newImplementation`, and subsequently execute the function call encoded in `data`. Calls {_authorizeUpgrade}. Emits an {Upgraded} event."
      }
    },
    "version": 1
  },
  "userdoc": {
    "kind": "user",
    "methods": {},
    "version": 1
  }
}