{
  "contractName": "PurseDistribution",
  "abi": [
    {
      "inputs": [
        {
          "internalType": "contract PurseTokenUpgradable",
          "name": "_purseToken",
          "type": "address"
        }
      ],
      "stateMutability": "nonpayable",
      "type": "constructor"
    },
    {
      "anonymous": false,
      "inputs": [
        {
          "indexed": true,
          "internalType": "address",
          "name": "sender",
          "type": "address"
        },
        {
          "indexed": false,
          "internalType": "uint32",
          "name": "iteration",
          "type": "uint32"
        }
      ],
      "name": "addHolder",
      "type": "event"
    },
    {
      "anonymous": false,
      "inputs": [
        {
          "indexed": true,
          "internalType": "address",
          "name": "owner",
          "type": "address"
        },
        {
          "indexed": false,
          "internalType": "uint256",
          "name": "amount",
          "type": "uint256"
        },
        {
          "indexed": false,
          "internalType": "uint32",
          "name": "Iteration_End",
          "type": "uint32"
        }
      ],
      "name": "claimAllReward",
      "type": "event"
    },
    {
      "anonymous": false,
      "inputs": [
        {
          "indexed": true,
          "internalType": "address",
          "name": "owner",
          "type": "address"
        },
        {
          "indexed": false,
          "internalType": "uint256",
          "name": "amount",
          "type": "uint256"
        },
        {
          "indexed": true,
          "internalType": "uint32",
          "name": "Iteration",
          "type": "uint32"
        }
      ],
      "name": "claimReward",
      "type": "event"
    },
    {
      "anonymous": false,
      "inputs": [
        {
          "indexed": true,
          "internalType": "address",
          "name": "sender",
          "type": "address"
        },
        {
          "indexed": false,
          "internalType": "uint32",
          "name": "iteration",
          "type": "uint32"
        }
      ],
      "name": "updateHolder",
      "type": "event"
    },
    {
      "inputs": [
        {
          "internalType": "address",
          "name": "",
          "type": "address"
        },
        {
          "internalType": "uint32",
          "name": "",
          "type": "uint32"
        }
      ],
      "name": "holder",
      "outputs": [
        {
          "internalType": "uint256",
          "name": "distributeAmount",
          "type": "uint256"
        },
        {
          "internalType": "bool",
          "name": "isRedeem",
          "type": "bool"
        }
      ],
      "stateMutability": "view",
      "type": "function",
      "constant": true
    },
    {
      "inputs": [
        {
          "internalType": "address",
          "name": "",
          "type": "address"
        }
      ],
      "name": "isOwner",
      "outputs": [
        {
          "internalType": "bool",
          "name": "",
          "type": "bool"
        }
      ],
      "stateMutability": "view",
      "type": "function",
      "constant": true
    },
    {
      "inputs": [],
      "name": "name",
      "outputs": [
        {
          "internalType": "string",
          "name": "",
          "type": "string"
        }
      ],
      "stateMutability": "view",
      "type": "function",
      "constant": true
    },
    {
      "inputs": [
        {
          "internalType": "uint32",
          "name": "",
          "type": "uint32"
        }
      ],
      "name": "numOfHolder",
      "outputs": [
        {
          "internalType": "uint256",
          "name": "",
          "type": "uint256"
        }
      ],
      "stateMutability": "view",
      "type": "function",
      "constant": true
    },
    {
      "inputs": [],
      "name": "owner",
      "outputs": [
        {
          "internalType": "address",
          "name": "",
          "type": "address"
        }
      ],
      "stateMutability": "view",
      "type": "function",
      "constant": true
    },
    {
      "inputs": [],
      "name": "purseToken",
      "outputs": [
        {
          "internalType": "contract PurseTokenUpgradable",
          "name": "",
          "type": "address"
        }
      ],
      "stateMutability": "view",
      "type": "function",
      "constant": true
    },
    {
      "inputs": [],
      "name": "validDuration",
      "outputs": [
        {
          "internalType": "uint256",
          "name": "",
          "type": "uint256"
        }
      ],
      "stateMutability": "view",
      "type": "function",
      "constant": true
    },
    {
      "inputs": [
        {
          "internalType": "address[]",
          "name": "_holder",
          "type": "address[]"
        },
        {
          "internalType": "uint256[]",
          "name": "_amount",
          "type": "uint256[]"
        },
        {
          "internalType": "uint32",
          "name": "iteration",
          "type": "uint32"
        }
      ],
      "name": "addHolderInfo",
      "outputs": [],
      "stateMutability": "nonpayable",
      "type": "function"
    },
    {
      "inputs": [
        {
          "internalType": "address[]",
          "name": "_holder",
          "type": "address[]"
        },
        {
          "internalType": "uint256[]",
          "name": "_amount",
          "type": "uint256[]"
        },
        {
          "internalType": "uint32",
          "name": "iteration",
          "type": "uint32"
        }
      ],
      "name": "updateHolderInfo",
      "outputs": [],
      "stateMutability": "nonpayable",
      "type": "function"
    },
    {
      "inputs": [
        {
          "internalType": "uint32",
          "name": "iteration",
          "type": "uint32"
        }
      ],
      "name": "claim",
      "outputs": [],
      "stateMutability": "nonpayable",
      "type": "function"
    },
    {
      "inputs": [
        {
          "internalType": "uint32",
          "name": "iteration_end",
          "type": "uint32"
        }
      ],
      "name": "claimAll",
      "outputs": [],
      "stateMutability": "nonpayable",
      "type": "function"
    },
    {
      "inputs": [
        {
          "internalType": "address",
          "name": "_to",
          "type": "address"
        }
      ],
      "name": "returnPurseToken",
      "outputs": [],
      "stateMutability": "nonpayable",
      "type": "function"
    },
    {
      "inputs": [
        {
          "internalType": "address",
          "name": "token",
          "type": "address"
        },
        {
          "internalType": "uint256",
          "name": "amount",
          "type": "uint256"
        },
        {
          "internalType": "address",
          "name": "_to",
          "type": "address"
        }
      ],
      "name": "returnAnyToken",
      "outputs": [],
      "stateMutability": "nonpayable",
      "type": "function"
    },
    {
      "inputs": [
        {
          "internalType": "address",
          "name": "_owner",
          "type": "address"
        }
      ],
      "name": "updateOwner",
      "outputs": [],
      "stateMutability": "nonpayable",
      "type": "function"
    }
  ],
  "bytecode": "0x60806040526040518060400160405280601281526020017f507572736520446973747269627574696f6e000000000000000000000000000081525060009080519060200190620000519291906200016d565b503480156200005f57600080fd5b506040516200255438038062002554833981810160405281019062000085919062000234565b80600160006101000a81548173ffffffffffffffffffffffffffffffffffffffff021916908373ffffffffffffffffffffffffffffffffffffffff1602179055506001600460003373ffffffffffffffffffffffffffffffffffffffff1673ffffffffffffffffffffffffffffffffffffffff16815260200190815260200160002060006101000a81548160ff02191690831515021790555033600260006101000a81548173ffffffffffffffffffffffffffffffffffffffff021916908373ffffffffffffffffffffffffffffffffffffffff160217905550426003819055505062000332565b8280546200017b90620002ae565b90600052602060002090601f0160209004810192826200019f5760008555620001eb565b82601f10620001ba57805160ff1916838001178555620001eb565b82800160010185558215620001eb579182015b82811115620001ea578251825591602001919060010190620001cd565b5b509050620001fa9190620001fe565b5090565b5b8082111562000219576000816000905550600101620001ff565b5090565b6000815190506200022e8162000318565b92915050565b6000602082840312156200024d576200024c62000313565b5b60006200025d848285016200021d565b91505092915050565b600062000273826200028e565b9050919050565b6000620002878262000266565b9050919050565b600073ffffffffffffffffffffffffffffffffffffffff82169050919050565b60006002820490506001821680620002c757607f821691505b60208210811415620002de57620002dd620002e4565b5b50919050565b7f4e487b7100000000000000000000000000000000000000000000000000000000600052602260045260246000fd5b600080fd5b62000323816200027a565b81146200032f57600080fd5b50565b61221280620003426000396000f3fe608060405234801561001057600080fd5b50600436106100ea5760003560e01c80638da5cb5b1161008c578063c24f2eaa11610066578063c24f2eaa14610223578063f09de43f14610253578063fa2da2441461026f578063ff0e009e1461028b576100ea565b80638da5cb5b146101cd57806393ad9ed2146101eb578063c237e32614610207576100ea565b80632f54bf6e116100c85780632f54bf6e1461014757806351bf16ef1461017757806372da5bcb14610195578063880cdc31146101b1576100ea565b806304951891146100ef57806306fdde031461010b5780632948ff4114610129575b600080fd5b61010960048036038101906101049190611a25565b6102bc565b005b6101136105ad565b6040516101209190611c45565b60405180910390f35b61013161063b565b60405161013e9190611d47565b60405180910390f35b610161600480360381019061015c9190611876565b610642565b60405161016e9190611c0f565b60405180910390f35b61017f610662565b60405161018c9190611c2a565b60405180910390f35b6101af60048036038101906101aa9190611a25565b610688565b005b6101cb60048036038101906101c69190611876565b610a32565b005b6101d5610c5b565b6040516101e29190611bcb565b60405180910390f35b61020560048036038101906102009190611936565b610c81565b005b610221600480360381019061021c91906118a3565b610fac565b005b61023d60048036038101906102389190611a25565b61113b565b60405161024a9190611d47565b60405180910390f35b61026d60048036038101906102689190611876565b611153565b005b61028960048036038101906102849190611936565b6113b2565b005b6102a560048036038101906102a091906118f6565b611723565b6040516102b3929190611d62565b60405180910390f35b60006277f8806003546102cf9190611deb565b905080421115610314576040517f08c379a000000000000000000000000000000000000000000000000000000000815260040161030b90611cc7565b60405180910390fd5b60001515600560003373ffffffffffffffffffffffffffffffffffffffff1673ffffffffffffffffffffffffffffffffffffffff16815260200190815260200160002060008463ffffffff1663ffffffff16815260200190815260200160002060010160009054906101000a900460ff161515146103c7576040517f08c379a00000000000000000000000000000000000000000000000000000000081526004016103be90611ce7565b60405180910390fd5b6001600560003373ffffffffffffffffffffffffffffffffffffffff1673ffffffffffffffffffffffffffffffffffffffff16815260200190815260200160002060008463ffffffff1663ffffffff16815260200190815260200160002060010160006101000a81548160ff0219169083151502179055506000600560003373ffffffffffffffffffffffffffffffffffffffff1673ffffffffffffffffffffffffffffffffffffffff16815260200190815260200160002060008463ffffffff1663ffffffff168152602001908152602001600020600001549050600160009054906101000a900473ffffffffffffffffffffffffffffffffffffffff1673ffffffffffffffffffffffffffffffffffffffff1663a9059cbb33836040518363ffffffff1660e01b8152600401610500929190611be6565b602060405180830381600087803b15801561051a57600080fd5b505af115801561052e573d6000803e3d6000fd5b505050506040513d601f19601f8201168201806040525081019061055291906119cb565b508263ffffffff163373ffffffffffffffffffffffffffffffffffffffff167f46f359e8b618e8dcf8db2845dc89ec1e82a4e3eb8a0dfaa3081351701f8296a5836040516105a09190611d47565b60405180910390a3505050565b600080546105ba90611f02565b80601f01602080910402602001604051908101604052809291908181526020018280546105e690611f02565b80156106335780601f1061060857610100808354040283529160200191610633565b820191906000526020600020905b81548152906001019060200180831161061657829003601f168201915b505050505081565b6277f88081565b60046020528060005260406000206000915054906101000a900460ff1681565b600160009054906101000a900473ffffffffffffffffffffffffffffffffffffffff1681565b60006277f88060035461069b9190611deb565b9050804211156106e0576040517f08c379a00000000000000000000000000000000000000000000000000000000081526004016106d790611cc7565b60405180910390fd5b6000805b8363ffffffff168163ffffffff16116109225760001515600560003373ffffffffffffffffffffffffffffffffffffffff1673ffffffffffffffffffffffffffffffffffffffff16815260200190815260200160002060008363ffffffff1663ffffffff16815260200190815260200160002060010160009054906101000a900460ff161515141561090f5760001515600560003373ffffffffffffffffffffffffffffffffffffffff1673ffffffffffffffffffffffffffffffffffffffff16815260200190815260200160002060008363ffffffff1663ffffffff16815260200190815260200160002060010160009054906101000a900460ff16151514610823576040517f08c379a000000000000000000000000000000000000000000000000000000000815260040161081a90611ce7565b60405180910390fd5b6001600560003373ffffffffffffffffffffffffffffffffffffffff1673ffffffffffffffffffffffffffffffffffffffff16815260200190815260200160002060008363ffffffff1663ffffffff16815260200190815260200160002060010160006101000a81548160ff0219169083151502179055506000600560003373ffffffffffffffffffffffffffffffffffffffff1673ffffffffffffffffffffffffffffffffffffffff16815260200190815260200160002060008363ffffffff1663ffffffff168152602001908152602001600020600001549050808361090b9190611deb565b9250505b808061091a90611f7d565b9150506106e4565b5060008111156109dd57600160009054906101000a900473ffffffffffffffffffffffffffffffffffffffff1673ffffffffffffffffffffffffffffffffffffffff1663a9059cbb33836040518363ffffffff1660e01b8152600401610989929190611be6565b602060405180830381600087803b1580156109a357600080fd5b505af11580156109b7573d6000803e3d6000fd5b505050506040513d601f19601f820116820180604052508101906109db91906119cb565b505b3373ffffffffffffffffffffffffffffffffffffffff167f0cb481c25d2f9182101c224b90fd59b10c3256e430e20bcb065bebd30b91a9f28285604051610a25929190611d8b565b60405180910390a2505050565b600460003373ffffffffffffffffffffffffffffffffffffffff1673ffffffffffffffffffffffffffffffffffffffff16815260200190815260200160002060009054906101000a900460ff16610abe576040517f08c379a0000000000000000000000000000000000000000000000000000000008152600401610ab590611d27565b60405180910390fd5b600073ffffffffffffffffffffffffffffffffffffffff168173ffffffffffffffffffffffffffffffffffffffff161415610b2e576040517f08c379a0000000000000000000000000000000000000000000000000000000008152600401610b2590611ca7565b60405180910390fd5b600260009054906101000a900473ffffffffffffffffffffffffffffffffffffffff1673ffffffffffffffffffffffffffffffffffffffff168173ffffffffffffffffffffffffffffffffffffffff161415610bbf576040517f08c379a0000000000000000000000000000000000000000000000000000000008152600401610bb690611c87565b60405180910390fd5b6001600460008373ffffffffffffffffffffffffffffffffffffffff1673ffffffffffffffffffffffffffffffffffffffff16815260200190815260200160002060006101000a81548160ff02191690831515021790555080600260006101000a81548173ffffffffffffffffffffffffffffffffffffffff021916908373ffffffffffffffffffffffffffffffffffffffff16021790555050565b600260009054906101000a900473ffffffffffffffffffffffffffffffffffffffff1681565b600460003373ffffffffffffffffffffffffffffffffffffffff1673ffffffffffffffffffffffffffffffffffffffff16815260200190815260200160002060009054906101000a900460ff16610d0d576040517f08c379a0000000000000000000000000000000000000000000000000000000008152600401610d0490611d27565b60405180910390fd5b60006277f880600354610d209190611deb565b905080421115610d65576040517f08c379a0000000000000000000000000000000000000000000000000000000008152600401610d5c90611cc7565b60405180910390fd5b6000848490508787905014610daf576040517f08c379a0000000000000000000000000000000000000000000000000000000008152600401610da690611c67565b60405180910390fd5b5b86869050811015610f55576001151560056000898985818110610dd657610dd5612008565b5b9050602002016020810190610deb9190611876565b73ffffffffffffffffffffffffffffffffffffffff1673ffffffffffffffffffffffffffffffffffffffff16815260200190815260200160002060008563ffffffff1663ffffffff16815260200190815260200160002060010160009054906101000a900460ff1615151415610e6057610f42565b6040518060400160405280868684818110610e7e57610e7d612008565b5b9050602002013581526020016000151581525060056000898985818110610ea857610ea7612008565b5b9050602002016020810190610ebd9190611876565b73ffffffffffffffffffffffffffffffffffffffff1673ffffffffffffffffffffffffffffffffffffffff16815260200190815260200160002060008563ffffffff1663ffffffff1681526020019081526020016000206000820151816000015560208201518160010160006101000a81548160ff0219169083151502179055509050505b8080610f4d90611f34565b915050610db0565b3373ffffffffffffffffffffffffffffffffffffffff167fe0de873476573fa673d69e0904f053222c29891dd0be532bde8fdac2a596161184604051610f9b9190611db4565b60405180910390a250505050505050565b600460003373ffffffffffffffffffffffffffffffffffffffff1673ffffffffffffffffffffffffffffffffffffffff16815260200190815260200160002060009054906101000a900460ff16611038576040517f08c379a000000000000000000000000000000000000000000000000000000000815260040161102f90611d27565b60405180910390fd5b600073ffffffffffffffffffffffffffffffffffffffff168173ffffffffffffffffffffffffffffffffffffffff1614156110a8576040517f08c379a000000000000000000000000000000000000000000000000000000000815260040161109f90611d07565b60405180910390fd5b8273ffffffffffffffffffffffffffffffffffffffff1663a9059cbb82846040518363ffffffff1660e01b81526004016110e3929190611be6565b602060405180830381600087803b1580156110fd57600080fd5b505af1158015611111573d6000803e3d6000fd5b505050506040513d601f19601f8201168201806040525081019061113591906119cb565b50505050565b60066020528060005260406000206000915090505481565b600460003373ffffffffffffffffffffffffffffffffffffffff1673ffffffffffffffffffffffffffffffffffffffff16815260200190815260200160002060009054906101000a900460ff166111df576040517f08c379a00000000000000000000000000000000000000000000000000000000081526004016111d690611d27565b60405180910390fd5b600073ffffffffffffffffffffffffffffffffffffffff168173ffffffffffffffffffffffffffffffffffffffff16141561124f576040517f08c379a000000000000000000000000000000000000000000000000000000000815260040161124690611d07565b60405180910390fd5b6000600160009054906101000a900473ffffffffffffffffffffffffffffffffffffffff1673ffffffffffffffffffffffffffffffffffffffff166370a08231306040518263ffffffff1660e01b81526004016112ac9190611bcb565b60206040518083038186803b1580156112c457600080fd5b505afa1580156112d8573d6000803e3d6000fd5b505050506040513d601f19601f820116820180604052508101906112fc91906119f8565b9050600160009054906101000a900473ffffffffffffffffffffffffffffffffffffffff1673ffffffffffffffffffffffffffffffffffffffff1663a9059cbb83836040518363ffffffff1660e01b815260040161135b929190611be6565b602060405180830381600087803b15801561137557600080fd5b505af1158015611389573d6000803e3d6000fd5b505050506040513d601f19601f820116820180604052508101906113ad91906119cb565b505050565b600460003373ffffffffffffffffffffffffffffffffffffffff1673ffffffffffffffffffffffffffffffffffffffff16815260200190815260200160002060009054906101000a900460ff1661143e576040517f08c379a000000000000000000000000000000000000000000000000000000000815260040161143590611d27565b60405180910390fd5b60006277f8806003546114519190611deb565b905080421115611496576040517f08c379a000000000000000000000000000000000000000000000000000000000815260040161148d90611cc7565b60405180910390fd5b60008484905087879050146114e0576040517f08c379a00000000000000000000000000000000000000000000000000000000081526004016114d790611c67565b60405180910390fd5b5b868690508110156116cc57600085858381811061150157611500612008565b5b9050602002013511801561159b575060006005600089898581811061152957611528612008565b5b905060200201602081019061153e9190611876565b73ffffffffffffffffffffffffffffffffffffffff1673ffffffffffffffffffffffffffffffffffffffff16815260200190815260200160002060008563ffffffff1663ffffffff16815260200190815260200160002060000154145b156116b95760405180604001604052808686848181106115be576115bd612008565b5b90506020020135815260200160001515815250600560008989858181106115e8576115e7612008565b5b90506020020160208101906115fd9190611876565b73ffffffffffffffffffffffffffffffffffffffff1673ffffffffffffffffffffffffffffffffffffffff16815260200190815260200160002060008563ffffffff1663ffffffff1681526020019081526020016000206000820151816000015560208201518160010160006101000a81548160ff0219169083151502179055509050506001600660008563ffffffff1663ffffffff16815260200190815260200160002060008282546116b19190611deb565b925050819055505b80806116c490611f34565b9150506114e1565b3373ffffffffffffffffffffffffffffffffffffffff167f21baddd1b7c1e670d8f5c8189b8fad82e3aa5098e7e054bf8e66bd5e28f09643846040516117129190611db4565b60405180910390a250505050505050565b6005602052816000526040600020602052806000526040600020600091509150508060000154908060010160009054906101000a900460ff16905082565b60008135905061177081612180565b92915050565b60008083601f84011261178c5761178b61203c565b5b8235905067ffffffffffffffff8111156117a9576117a8612037565b5b6020830191508360208202830111156117c5576117c4612041565b5b9250929050565b60008083601f8401126117e2576117e161203c565b5b8235905067ffffffffffffffff8111156117ff576117fe612037565b5b60208301915083602082028301111561181b5761181a612041565b5b9250929050565b60008151905061183181612197565b92915050565b600081359050611846816121ae565b92915050565b60008151905061185b816121ae565b92915050565b600081359050611870816121c5565b92915050565b60006020828403121561188c5761188b61204b565b5b600061189a84828501611761565b91505092915050565b6000806000606084860312156118bc576118bb61204b565b5b60006118ca86828701611761565b93505060206118db86828701611837565b92505060406118ec86828701611761565b9150509250925092565b6000806040838503121561190d5761190c61204b565b5b600061191b85828601611761565b925050602061192c85828601611861565b9150509250929050565b6000806000806000606086880312156119525761195161204b565b5b600086013567ffffffffffffffff8111156119705761196f612046565b5b61197c88828901611776565b9550955050602086013567ffffffffffffffff81111561199f5761199e612046565b5b6119ab888289016117cc565b935093505060406119be88828901611861565b9150509295509295909350565b6000602082840312156119e1576119e061204b565b5b60006119ef84828501611822565b91505092915050565b600060208284031215611a0e57611a0d61204b565b5b6000611a1c8482850161184c565b91505092915050565b600060208284031215611a3b57611a3a61204b565b5b6000611a4984828501611861565b91505092915050565b611a5b81611e41565b82525050565b611a6a81611e53565b82525050565b611a7981611e99565b82525050565b6000611a8a82611dcf565b611a948185611dda565b9350611aa4818560208601611ecf565b611aad81612050565b840191505092915050565b6000611ac5601183611dda565b9150611ad082612061565b602082019050919050565b6000611ae8601283611dda565b9150611af38261208a565b602082019050919050565b6000611b0b601183611dda565b9150611b16826120b3565b602082019050919050565b6000611b2e601883611dda565b9150611b39826120dc565b602082019050919050565b6000611b51601083611dda565b9150611b5c82612105565b602082019050919050565b6000611b74601883611dda565b9150611b7f8261212e565b602082019050919050565b6000611b97600983611dda565b9150611ba282612157565b602082019050919050565b611bb681611e7f565b82525050565b611bc581611e89565b82525050565b6000602082019050611be06000830184611a52565b92915050565b6000604082019050611bfb6000830185611a52565b611c086020830184611bad565b9392505050565b6000602082019050611c246000830184611a61565b92915050565b6000602082019050611c3f6000830184611a70565b92915050565b60006020820190508181036000830152611c5f8184611a7f565b905092915050565b60006020820190508181036000830152611c8081611ab8565b9050919050565b60006020820190508181036000830152611ca081611adb565b9050919050565b60006020820190508181036000830152611cc081611afe565b9050919050565b60006020820190508181036000830152611ce081611b21565b9050919050565b60006020820190508181036000830152611d0081611b44565b9050919050565b60006020820190508181036000830152611d2081611b67565b9050919050565b60006020820190508181036000830152611d4081611b8a565b9050919050565b6000602082019050611d5c6000830184611bad565b92915050565b6000604082019050611d776000830185611bad565b611d846020830184611a61565b9392505050565b6000604082019050611da06000830185611bad565b611dad6020830184611bbc565b9392505050565b6000602082019050611dc96000830184611bbc565b92915050565b600081519050919050565b600082825260208201905092915050565b6000611df682611e7f565b9150611e0183611e7f565b9250827fffffffffffffffffffffffffffffffffffffffffffffffffffffffffffffffff03821115611e3657611e35611faa565b5b828201905092915050565b6000611e4c82611e5f565b9050919050565b60008115159050919050565b600073ffffffffffffffffffffffffffffffffffffffff82169050919050565b6000819050919050565b600063ffffffff82169050919050565b6000611ea482611eab565b9050919050565b6000611eb682611ebd565b9050919050565b6000611ec882611e5f565b9050919050565b60005b83811015611eed578082015181840152602081019050611ed2565b83811115611efc576000848401525b50505050565b60006002820490506001821680611f1a57607f821691505b60208210811415611f2e57611f2d611fd9565b5b50919050565b6000611f3f82611e7f565b91507fffffffffffffffffffffffffffffffffffffffffffffffffffffffffffffffff821415611f7257611f71611faa565b5b600182019050919050565b6000611f8882611e89565b915063ffffffff821415611f9f57611f9e611faa565b5b600182019050919050565b7f4e487b7100000000000000000000000000000000000000000000000000000000600052601160045260246000fd5b7f4e487b7100000000000000000000000000000000000000000000000000000000600052602260045260246000fd5b7f4e487b7100000000000000000000000000000000000000000000000000000000600052603260045260246000fd5b600080fd5b600080fd5b600080fd5b600080fd5b600080fd5b6000601f19601f8301169050919050565b7f6c656e67746820646966666572656e6365000000000000000000000000000000600082015250565b7f73616d65206f776e657220616464726573730000000000000000000000000000600082015250565b7f6e6f742076616c69642061646472657373000000000000000000000000000000600082015250565b7f446973747269627574696f6e2077696e646f77206f7665720000000000000000600082015250565b7f68617665206265656e2072656465656d00000000000000000000000000000000600082015250565b7f73656e6420746f20746865207a65726f20616464726573730000000000000000600082015250565b7f6e6f74206f776e65720000000000000000000000000000000000000000000000600082015250565b61218981611e41565b811461219457600080fd5b50565b6121a081611e53565b81146121ab57600080fd5b50565b6121b781611e7f565b81146121c257600080fd5b50565b6121ce81611e89565b81146121d957600080fd5b5056fea2646970667358221220e05cdcafdc1d55127a5dcdcd5cc67b30339ea10fbf165b594e813ba0d799f1f764736f6c63430008070033",
  "immutableReferences": {},
  "source": "// SPDX-License-Identifier: UNLICENSED\r\n\r\npragma solidity ^0.8.0;\r\n\r\nimport \"./PurseTokenUpgradable.sol\";\r\n\r\ncontract PurseDistribution {\r\n    event claimReward(address indexed owner, uint256 amount, uint32 indexed Iteration);\r\n    event claimAllReward(address indexed owner, uint256 amount, uint32 Iteration_End);\r\n    event addHolder(address indexed sender, uint32 iteration);\r\n    event updateHolder(address indexed sender, uint32 iteration);\r\n    \r\n    string public name = \"Purse Distribution\";\r\n    PurseTokenUpgradable public purseToken;\r\n    address public owner;\r\n    uint256 public constant validDuration = 91 days;\r\n    uint256 internal distributionStart;\r\n    mapping(address => bool) public isOwner;\r\n    mapping(address => mapping(uint32 => holderInfo)) public holder;   //address->index   \r\n    mapping(uint32 => uint256) public numOfHolder;\r\n\r\n\r\n    struct holderInfo {\r\n        uint256 distributeAmount;\r\n        bool isRedeem;\r\n    }\r\n    \r\n    modifier onlyOwner() {\r\n        require(isOwner[msg.sender], \"not owner\");\r\n        _;\r\n    }\r\n\r\n    constructor(PurseTokenUpgradable _purseToken) {\r\n        purseToken = _purseToken;\r\n        isOwner[msg.sender] = true;\r\n        owner = msg.sender;\r\n        distributionStart = block.timestamp;\r\n    }\r\n\r\n    function addHolderInfo(address[] calldata _holder, uint256[] calldata _amount , uint32 iteration) public onlyOwner {\r\n        uint256 end = distributionStart + validDuration;\r\n        require(block.timestamp <= end, \"Distribution window over\");\r\n        uint256 i = 0;\r\n        require(_holder.length == _amount.length, \"length difference\");\r\n        for (i; i < _holder.length; i++) {\r\n            if (_amount[i] > 0 && holder[_holder[i]][iteration].distributeAmount == 0) {\r\n                holder[_holder[i]][iteration] = holderInfo(_amount[i], false);\r\n                numOfHolder[iteration] += 1;\r\n            }\r\n        }\r\n        emit addHolder(msg.sender, iteration);\r\n    }\r\n\r\n    function updateHolderInfo(address[] calldata _holder, uint256[] calldata _amount , uint32 iteration) public onlyOwner {\r\n        uint256 end = distributionStart + validDuration;\r\n        require(block.timestamp <= end, \"Distribution window over\");\r\n        uint256 i = 0;\r\n        require(_holder.length == _amount.length, \"length difference\");\r\n        for (i; i < _holder.length; i++) {\r\n            if (holder[_holder[i]][iteration].isRedeem == true) {\r\n                continue;\r\n            }\r\n            holder[_holder[i]][iteration] = holderInfo(_amount[i], false);\r\n        }\r\n        emit updateHolder(msg.sender, iteration);\r\n    }\r\n\r\n    // Notice Transfers tokens held by timelock to beneficiary.\r\n    function claim(uint32 iteration) public {\r\n        uint256 end = distributionStart + validDuration;\r\n        require(block.timestamp <= end, \"Distribution window over\");\r\n        require(holder[msg.sender][iteration].isRedeem == false, 'have been redeem');\r\n\r\n        holder[msg.sender][iteration].isRedeem = true;\r\n        uint256 claimAmount = holder[msg.sender][iteration].distributeAmount;\r\n        purseToken.transfer(msg.sender, claimAmount);\r\n        emit claimReward(msg.sender, claimAmount, iteration);\r\n    }\r\n\r\n    function claimAll(uint32 iteration_end) public {\r\n        uint256 end = distributionStart + validDuration;\r\n        require(block.timestamp <= end, \"Distribution window over\");\r\n        uint256 claimAmount = 0;\r\n        for (uint32 i = 0; i <= iteration_end; i++) {\r\n                if (holder[msg.sender][i].isRedeem == false) {\r\n                    require(holder[msg.sender][i].isRedeem == false, 'have been redeem');\r\n                    holder[msg.sender][i].isRedeem = true;\r\n                    uint256 holderAmount = holder[msg.sender][i].distributeAmount;\r\n                    claimAmount += holderAmount;                    \r\n                }\r\n        }\r\n        if (claimAmount > 0) {\r\n            purseToken.transfer(msg.sender, claimAmount);\r\n        }\r\n        emit claimAllReward(msg.sender, claimAmount, iteration_end);\r\n    }\r\n    \r\n    function returnPurseToken(address _to) public onlyOwner {\r\n        require(_to != address(0), \"send to the zero address\");\r\n        uint256 remainingAmount = purseToken.balanceOf(address(this));\r\n        purseToken.transfer(_to, remainingAmount);\r\n    }\r\n\r\n    function returnAnyToken(address token, uint256 amount, address _to) public onlyOwner{\r\n        require(_to != address(0), \"send to the zero address\");\r\n        ERC20Interface(token).transfer(_to, amount);\r\n    } \r\n\r\n    function updateOwner(address _owner) public onlyOwner{\r\n        require(_owner != address(0), \"not valid address\");\r\n        require(_owner != owner, \"same owner address\");\r\n        isOwner[_owner] = true;\r\n        owner = _owner;\r\n    } \r\n}\r\n",
  "sourcePath": "C:/Users/cheek/Desktop/Developer doc/Visual Studio Code/PundiX/YieldFarm_BridgeEthBsc/src/contracts/PurseDistribution.sol",
  "compiler": {
    "name": "solc",
    "version": "0.8.7+commit.e28d00a7.Emscripten.clang"
  },
  "schemaVersion": "3.2.3",
  "updatedAt": "2021-09-15T11:34:14.132Z",
  "networkType": "ethereum",
  "devdoc": {
    "kind": "dev",
    "methods": {},
    "version": 1
  },
  "userdoc": {
    "kind": "user",
    "methods": {},
    "version": 1
  }
}