{
  "contractName": "WAGMIpetV2",
  "abi": [
    {
      "anonymous": false,
      "inputs": [
        {
          "indexed": true,
          "internalType": "address",
          "name": "caretaker",
          "type": "address"
        },
        {
          "indexed": true,
          "internalType": "string",
          "name": "name",
          "type": "string"
        }
      ],
      "name": "Adopted",
      "type": "event"
    },
    {
      "anonymous": false,
      "inputs": [
        {
          "indexed": true,
          "internalType": "address",
          "name": "owner",
          "type": "address"
        },
        {
          "indexed": true,
          "internalType": "address",
          "name": "approved",
          "type": "address"
        },
        {
          "indexed": true,
          "internalType": "uint256",
          "name": "tokenId",
          "type": "uint256"
        }
      ],
      "name": "Approval",
      "type": "event"
    },
    {
      "anonymous": false,
      "inputs": [
        {
          "indexed": true,
          "internalType": "address",
          "name": "owner",
          "type": "address"
        },
        {
          "indexed": true,
          "internalType": "address",
          "name": "operator",
          "type": "address"
        },
        {
          "indexed": false,
          "internalType": "bool",
          "name": "approved",
          "type": "bool"
        }
      ],
      "name": "ApprovalForAll",
      "type": "event"
    },
    {
      "anonymous": false,
      "inputs": [
        {
          "indexed": true,
          "internalType": "address",
          "name": "caretaker",
          "type": "address"
        },
        {
          "indexed": true,
          "internalType": "uint256",
          "name": "amount",
          "type": "uint256"
        }
      ],
      "name": "CaretakerLoved",
      "type": "event"
    },
    {
      "anonymous": false,
      "inputs": [
        {
          "indexed": true,
          "internalType": "address",
          "name": "previousOwner",
          "type": "address"
        },
        {
          "indexed": true,
          "internalType": "address",
          "name": "newOwner",
          "type": "address"
        }
      ],
      "name": "OwnershipTransferred",
      "type": "event"
    },
    {
      "anonymous": false,
      "inputs": [
        {
          "indexed": true,
          "internalType": "address",
          "name": "from",
          "type": "address"
        },
        {
          "indexed": true,
          "internalType": "address",
          "name": "to",
          "type": "address"
        },
        {
          "indexed": true,
          "internalType": "uint256",
          "name": "tokenId",
          "type": "uint256"
        }
      ],
      "name": "Transfer",
      "type": "event"
    },
    {
      "inputs": [
        {
          "internalType": "address",
          "name": "to",
          "type": "address"
        },
        {
          "internalType": "uint256",
          "name": "tokenId",
          "type": "uint256"
        }
      ],
      "name": "approve",
      "outputs": [],
      "stateMutability": "nonpayable",
      "type": "function"
    },
    {
      "inputs": [
        {
          "internalType": "address",
          "name": "owner",
          "type": "address"
        }
      ],
      "name": "balanceOf",
      "outputs": [
        {
          "internalType": "uint256",
          "name": "",
          "type": "uint256"
        }
      ],
      "stateMutability": "view",
      "type": "function"
    },
    {
      "inputs": [
        {
          "internalType": "uint256",
          "name": "tokenId",
          "type": "uint256"
        }
      ],
      "name": "getApproved",
      "outputs": [
        {
          "internalType": "address",
          "name": "",
          "type": "address"
        }
      ],
      "stateMutability": "view",
      "type": "function"
    },
    {
      "inputs": [
        {
          "internalType": "address",
          "name": "owner",
          "type": "address"
        },
        {
          "internalType": "address",
          "name": "operator",
          "type": "address"
        }
      ],
      "name": "isApprovedForAll",
      "outputs": [
        {
          "internalType": "bool",
          "name": "",
          "type": "bool"
        }
      ],
      "stateMutability": "view",
      "type": "function"
    },
    {
      "inputs": [
        {
          "internalType": "address",
          "name": "forwarder",
          "type": "address"
        }
      ],
      "name": "isTrustedForwarder",
      "outputs": [
        {
          "internalType": "bool",
          "name": "",
          "type": "bool"
        }
      ],
      "stateMutability": "view",
      "type": "function"
    },
    {
      "inputs": [
        {
          "internalType": "address",
          "name": "",
          "type": "address"
        }
      ],
      "name": "love",
      "outputs": [
        {
          "internalType": "uint256",
          "name": "",
          "type": "uint256"
        }
      ],
      "stateMutability": "view",
      "type": "function"
    },
    {
      "inputs": [],
      "name": "name",
      "outputs": [
        {
          "internalType": "string",
          "name": "",
          "type": "string"
        }
      ],
      "stateMutability": "view",
      "type": "function"
    },
    {
      "inputs": [],
      "name": "owner",
      "outputs": [
        {
          "internalType": "address",
          "name": "",
          "type": "address"
        }
      ],
      "stateMutability": "view",
      "type": "function"
    },
    {
      "inputs": [
        {
          "internalType": "uint256",
          "name": "tokenId",
          "type": "uint256"
        }
      ],
      "name": "ownerOf",
      "outputs": [
        {
          "internalType": "address",
          "name": "",
          "type": "address"
        }
      ],
      "stateMutability": "view",
      "type": "function"
    },
    {
      "inputs": [],
      "name": "renounceOwnership",
      "outputs": [],
      "stateMutability": "nonpayable",
      "type": "function"
    },
    {
      "inputs": [
        {
          "internalType": "address",
          "name": "from",
          "type": "address"
        },
        {
          "internalType": "address",
          "name": "to",
          "type": "address"
        },
        {
          "internalType": "uint256",
          "name": "tokenId",
          "type": "uint256"
        }
      ],
      "name": "safeTransferFrom",
      "outputs": [],
      "stateMutability": "nonpayable",
      "type": "function"
    },
    {
      "inputs": [
        {
          "internalType": "address",
          "name": "from",
          "type": "address"
        },
        {
          "internalType": "address",
          "name": "to",
          "type": "address"
        },
        {
          "internalType": "uint256",
          "name": "tokenId",
          "type": "uint256"
        },
        {
          "internalType": "bytes",
          "name": "_data",
          "type": "bytes"
        }
      ],
      "name": "safeTransferFrom",
      "outputs": [],
      "stateMutability": "nonpayable",
      "type": "function"
    },
    {
      "inputs": [
        {
          "internalType": "address",
          "name": "operator",
          "type": "address"
        },
        {
          "internalType": "bool",
          "name": "approved",
          "type": "bool"
        }
      ],
      "name": "setApprovalForAll",
      "outputs": [],
      "stateMutability": "nonpayable",
      "type": "function"
    },
    {
      "inputs": [],
      "name": "symbol",
      "outputs": [
        {
          "internalType": "string",
          "name": "",
          "type": "string"
        }
      ],
      "stateMutability": "view",
      "type": "function"
    },
    {
      "inputs": [
        {
          "internalType": "uint256",
          "name": "index",
          "type": "uint256"
        }
      ],
      "name": "tokenByIndex",
      "outputs": [
        {
          "internalType": "uint256",
          "name": "",
          "type": "uint256"
        }
      ],
      "stateMutability": "view",
      "type": "function"
    },
    {
      "inputs": [
        {
          "internalType": "address",
          "name": "owner",
          "type": "address"
        },
        {
          "internalType": "uint256",
          "name": "index",
          "type": "uint256"
        }
      ],
      "name": "tokenOfOwnerByIndex",
      "outputs": [
        {
          "internalType": "uint256",
          "name": "",
          "type": "uint256"
        }
      ],
      "stateMutability": "view",
      "type": "function"
    },
    {
      "inputs": [],
      "name": "totalSupply",
      "outputs": [
        {
          "internalType": "uint256",
          "name": "",
          "type": "uint256"
        }
      ],
      "stateMutability": "view",
      "type": "function"
    },
    {
      "inputs": [
        {
          "internalType": "address",
          "name": "from",
          "type": "address"
        },
        {
          "internalType": "address",
          "name": "to",
          "type": "address"
        },
        {
          "internalType": "uint256",
          "name": "tokenId",
          "type": "uint256"
        }
      ],
      "name": "transferFrom",
      "outputs": [],
      "stateMutability": "nonpayable",
      "type": "function"
    },
    {
      "inputs": [
        {
          "internalType": "address",
          "name": "newOwner",
          "type": "address"
        }
      ],
      "name": "transferOwnership",
      "outputs": [],
      "stateMutability": "nonpayable",
      "type": "function"
    },
    {
      "inputs": [
        {
          "internalType": "address",
          "name": "trustedForwarder",
          "type": "address"
        }
      ],
      "name": "initialize",
      "outputs": [],
      "stateMutability": "nonpayable",
      "type": "function"
    },
    {
      "inputs": [
        {
          "internalType": "string",
          "name": "name",
          "type": "string"
        }
      ],
      "name": "adopt",
      "outputs": [
        {
          "internalType": "uint256",
          "name": "",
          "type": "uint256"
        }
      ],
      "stateMutability": "nonpayable",
      "type": "function"
    },
    {
      "inputs": [
        {
          "internalType": "uint256",
          "name": "tokenId",
          "type": "uint256"
        }
      ],
      "name": "feed",
      "outputs": [],
      "stateMutability": "nonpayable",
      "type": "function"
    },
    {
      "inputs": [
        {
          "internalType": "uint256",
          "name": "tokenId",
          "type": "uint256"
        }
      ],
      "name": "clean",
      "outputs": [],
      "stateMutability": "nonpayable",
      "type": "function"
    },
    {
      "inputs": [
        {
          "internalType": "uint256",
          "name": "tokenId",
          "type": "uint256"
        }
      ],
      "name": "play",
      "outputs": [],
      "stateMutability": "nonpayable",
      "type": "function"
    },
    {
      "inputs": [
        {
          "internalType": "uint256",
          "name": "tokenId",
          "type": "uint256"
        }
      ],
      "name": "sleep",
      "outputs": [],
      "stateMutability": "nonpayable",
      "type": "function"
    },
    {
      "inputs": [
        {
          "internalType": "uint256",
          "name": "tokenId",
          "type": "uint256"
        }
      ],
      "name": "getName",
      "outputs": [
        {
          "internalType": "string",
          "name": "",
          "type": "string"
        }
      ],
      "stateMutability": "view",
      "type": "function"
    },
    {
      "inputs": [
        {
          "internalType": "uint256",
          "name": "tokenId",
          "type": "uint256"
        },
        {
          "internalType": "string",
          "name": "name",
          "type": "string"
        }
      ],
      "name": "setName",
      "outputs": [],
      "stateMutability": "nonpayable",
      "type": "function"
    },
    {
      "inputs": [
        {
          "internalType": "uint256",
          "name": "tokenId",
          "type": "uint256"
        }
      ],
      "name": "getStatus",
      "outputs": [
        {
          "internalType": "string",
          "name": "",
          "type": "string"
        }
      ],
      "stateMutability": "view",
      "type": "function"
    },
    {
      "inputs": [
        {
          "internalType": "uint256",
          "name": "tokenId",
          "type": "uint256"
        }
      ],
      "name": "getAlive",
      "outputs": [
        {
          "internalType": "bool",
          "name": "",
          "type": "bool"
        }
      ],
      "stateMutability": "view",
      "type": "function"
    },
    {
      "inputs": [
        {
          "internalType": "uint256",
          "name": "tokenId",
          "type": "uint256"
        }
      ],
      "name": "getHunger",
      "outputs": [
        {
          "internalType": "uint256",
          "name": "",
          "type": "uint256"
        }
      ],
      "stateMutability": "view",
      "type": "function"
    },
    {
      "inputs": [
        {
          "internalType": "uint256",
          "name": "tokenId",
          "type": "uint256"
        }
      ],
      "name": "getUncleanliness",
      "outputs": [
        {
          "internalType": "uint256",
          "name": "",
          "type": "uint256"
        }
      ],
      "stateMutability": "view",
      "type": "function"
    },
    {
      "inputs": [
        {
          "internalType": "uint256",
          "name": "tokenId",
          "type": "uint256"
        }
      ],
      "name": "getBoredom",
      "outputs": [
        {
          "internalType": "uint256",
          "name": "",
          "type": "uint256"
        }
      ],
      "stateMutability": "view",
      "type": "function"
    },
    {
      "inputs": [
        {
          "internalType": "uint256",
          "name": "tokenId",
          "type": "uint256"
        }
      ],
      "name": "getSleepiness",
      "outputs": [
        {
          "internalType": "uint256",
          "name": "",
          "type": "uint256"
        }
      ],
      "stateMutability": "view",
      "type": "function"
    },
    {
      "inputs": [
        {
          "internalType": "uint256",
          "name": "tokenId",
          "type": "uint256"
        }
      ],
      "name": "getStats",
      "outputs": [
        {
          "internalType": "uint256[5]",
          "name": "",
          "type": "uint256[5]"
        }
      ],
      "stateMutability": "view",
      "type": "function"
    },
    {
      "inputs": [
        {
          "internalType": "uint256",
          "name": "tokenId",
          "type": "uint256"
        }
      ],
      "name": "tokenURI",
      "outputs": [
        {
          "internalType": "string",
          "name": "",
          "type": "string"
        }
      ],
      "stateMutability": "view",
      "type": "function"
    },
    {
      "inputs": [
        {
          "internalType": "bytes4",
          "name": "interfaceId",
          "type": "bytes4"
        }
      ],
      "name": "supportsInterface",
      "outputs": [
        {
          "internalType": "bool",
          "name": "",
          "type": "bool"
        }
      ],
      "stateMutability": "view",
      "type": "function"
    }
  ],
  "bytecode": "0x608060405234801561001057600080fd5b506135b5806100206000396000f3fe608060405234801561001057600080fd5b506004361061021c5760003560e01c806370a0823111610125578063c87b56dd116100ad578063f2e7dd301161007c578063f2e7dd30146104d9578063f2fde38b146104ec578063f59dfdfb146104ff578063fa9d871314610512578063fe55932a1461052557600080fd5b8063c87b56dd14610464578063c9d4f80014610477578063e5fa19731461048a578063e985e9c51461049d57600080fd5b80638da5cb5b116100f45780638da5cb5b1461041257806395d89b4114610423578063a22cb4651461042b578063b88d4fde1461043e578063c4d66de81461045157600080fd5b806370a08231146103c4578063715018a6146103d75780637b303965146103df5780637c3403cf146103ff57600080fd5b806342842e0e116101a85780635c622a0e116101775780635c622a0e146103655780636352211e14610378578063674ef0fa1461038b5780636898f82b1461039e5780636b8ff574146103b157600080fd5b806342842e0e1461030a5780634f6ccce71461031d578063566fc12314610330578063572b6c051461034357600080fd5b806318160ddd116101ef57806318160ddd1461029e57806323b872dd146102b05780632f745c59146102c3578063344c9c70146102d65780633684b4a6146102e957600080fd5b806301ffc9a71461022157806306fdde0314610249578063081812fc1461025e578063095ea7b314610289575b600080fd5b61023461022f366004612e64565b610538565b60405190151581526020015b60405180910390f35b610251610549565b604051610240919061313b565b61027161026c366004612ed3565b6105db565b6040516001600160a01b039091168152602001610240565b61029c610297366004612e3a565b610668565b005b60cb545b604051908152602001610240565b61029c6102be366004612d46565b610790565b6102a26102d1366004612e3a565b6107c8565b6102346102e4366004612ed3565b61085e565b6102a26102f7366004612cf8565b6101376020526000908152604090205481565b61029c610318366004612d46565b6108d2565b6102a261032b366004612ed3565b6108ed565b6102a261033e366004612e9e565b610980565b610234610351366004612cf8565b60fb546001600160a01b0391821691161490565b610251610373366004612ed3565b610aa2565b610271610386366004612ed3565b610cfa565b61029c610399366004612ed3565b610d71565b61029c6103ac366004612ed3565b610e82565b6102516103bf366004612ed3565b61112e565b6102a26103d2366004612cf8565b6111f4565b61029c61127b565b6103f26103ed366004612ed3565b611300565b604051610240919061310a565b6102a261040d366004612ed3565b61136d565b6033546001600160a01b0316610271565b6102516113d9565b61029c610439366004612dfe565b6113e8565b61029c61044c366004612d82565b6114ea565b61029c61045f366004612cf8565b611529565b610251610472366004612ed3565b6115ec565b6102a2610485366004612ed3565b611700565b6102a2610498366004612ed3565b61176c565b6102346104ab366004612d13565b6001600160a01b039182166000908152609c6020908152604080832093909416825291909152205460ff1690565b6102a26104e7366004612ed3565b6117d8565b61029c6104fa366004612cf8565b611844565b61029c61050d366004612ed3565b61192b565b61029c610520366004612ed3565b611b26565b61029c610533366004612eec565b611c99565b600061054382611d43565b92915050565b6060609780546105589061336f565b80601f01602080910402602001604051908101604052809291908181526020018280546105849061336f565b80156105d15780601f106105a6576101008083540402835291602001916105d1565b820191906000526020600020905b8154815290600101906020018083116105b457829003601f168201915b5050505050905090565b60006105e682611d68565b61064c5760405162461bcd60e51b815260206004820152602c60248201527f4552433732313a20617070726f76656420717565727920666f72206e6f6e657860448201526b34b9ba32b73a103a37b5b2b760a11b60648201526084015b60405180910390fd5b506000908152609b60205260409020546001600160a01b031690565b600061067382610cfa565b9050806001600160a01b0316836001600160a01b031614156106e15760405162461bcd60e51b815260206004820152602160248201527f4552433732313a20617070726f76616c20746f2063757272656e74206f776e656044820152603960f91b6064820152608401610643565b806001600160a01b03166106f3611d85565b6001600160a01b0316148061070f575061070f816104ab611d85565b6107815760405162461bcd60e51b815260206004820152603860248201527f4552433732313a20617070726f76652063616c6c6572206973206e6f74206f7760448201527f6e6572206e6f7220617070726f76656420666f7220616c6c00000000000000006064820152608401610643565b61078b8383611d94565b505050565b6107a161079b611d85565b82611e02565b6107bd5760405162461bcd60e51b815260040161064390613214565b61078b838383611eec565b60006107d3836111f4565b82106108355760405162461bcd60e51b815260206004820152602b60248201527f455243373231456e756d657261626c653a206f776e657220696e646578206f7560448201526a74206f6620626f756e647360a81b6064820152608401610643565b506001600160a01b0391909116600090815260c960209081526040808320938352929052205490565b600061086982611d68565b6108855760405162461bcd60e51b815260040161064390613265565b6065610890836117d8565b1080156108a5575060656108a38361176c565b105b80156108b9575060656108b783611700565b105b8015610543575060656108cb8361136d565b1092915050565b61078b838383604051806020016040528060008152506114ea565b60006108f860cb5490565b821061095b5760405162461bcd60e51b815260206004820152602c60248201527f455243373231456e756d657261626c653a20676c6f62616c20696e646578206f60448201526b7574206f6620626f756e647360a01b6064820152608401610643565b60cb828154811061096e5761096e613400565b90600052602060002001549050919050565b600061099161012d80546001019055565b600061099d61012d5490565b600081815261012e60209081526040808320439081905561012f83528184208190556101308352818420819055610131835281842055610132825290912085519293506109ee929091860190612b61565b50600081815261013360209081526040808320805460ff199081169091556101348352818420805482169055610135835281842080548216905561013690925290912080549091169055610a49610a43611d85565b82612097565b82604051610a579190612f5f565b6040518091039020610a67611d85565b6001600160a01b03167ff75e2108b55c19a9edf09a7031a7c78653628a5c943650decfc0d771d6e290de60405160405180910390a392915050565b6060610aad82611d68565b610ac95760405162461bcd60e51b815260040161064390613265565b6040805160c08101825260026080820190815261676d60f01b60a0830152815281518083018352601081526f1a5b481999595b1a5b99c819dc99585d60821b6020828101919091528083019190915282518084018452600880825267185b1b0819dbdbd960c21b8284015283850191909152835180850190945283526769206c6f7665207560c01b9083015260608101919091526000908181610b6d6004436133aa565b60048110610b7d57610b7d613400565b602002015190506000610b8f866117d8565b90506000610b9c8761176c565b90506000610ba988611700565b90506000610bb68961136d565b9050610bc18961085e565b610bfa5750506040805180820190915260118152706e6f206c6f6e676572207769746820757360781b6020820152979650505050505050565b603284118015610c0957508684115b15610c365783965060405180604001604052806009815260200168696d2068756e67727960b81b81525094505b603283118015610c4557508683115b15610c76578296506040518060400160405280600d81526020016c0d240dccacac840c240c4c2e8d609b1b81525094505b603282118015610c8557508682115b15610cb157819650604051806040016040528060088152602001671a5b48189bdc995960c21b81525094505b603281118015610cc057508681115b15610ced5780965060405180604001604052806009815260200168696d20736c6565707960b81b81525094505b5092979650505050505050565b6000818152609960205260408120546001600160a01b0316806105435760405162461bcd60e51b815260206004820152602960248201527f4552433732313a206f776e657220717565727920666f72206e6f6e657869737460448201526832b73a103a37b5b2b760b91b6064820152608401610643565b610d7a81611d68565b610d965760405162461bcd60e51b815260040161064390613265565b610d9e611d85565b6001600160a01b0316610db082610cfa565b6001600160a01b031614610dd65760405162461bcd60e51b8152600401610643906131a0565b610ddf8161085e565b610dfb5760405162461bcd60e51b815260040161064390613291565b6000610e068261176c565b11610e485760405162461bcd60e51b81526020600482015260126024820152710d240c8dedce840dccacac840c240c4c2e8d60731b6044820152606401610643565b600081815261012f602090815260408083204390556101349091529020805460ff19169055610e7f610e78611d85565b60016121d6565b50565b610e8b81611d68565b610ea75760405162461bcd60e51b815260040161064390613265565b610eaf611d85565b6001600160a01b0316610ec182610cfa565b6001600160a01b031614610ee75760405162461bcd60e51b8152600401610643906131a0565b610ef08161085e565b610f0c5760405162461bcd60e51b815260040161064390613291565b6050610f17826117d8565b10610f5c5760405162461bcd60e51b8152602060048201526015602482015274696d20746f6f2068756e67727920746f20706c617960581b6044820152606401610643565b6050610f678261136d565b10610fac5760405162461bcd60e51b8152602060048201526015602482015274696d20746f6f20736c6565707920746f20706c617960581b6044820152606401610643565b6050610fb78261176c565b106110045760405162461bcd60e51b815260206004820152601c60248201527f696d206665656c696e6720746f6f2067726f737320746f20706c6179000000006044820152606401610643565b600061100f82611700565b116110505760405162461bcd60e51b81526020600482015260116024820152706920646f6e742077616e6e6120706c617960781b6044820152606401610643565b6000818152610130602090815260408083204390556101358252808320805460ff1916905561013390915281208054600a929061109190849060ff166132d4565b82546101009290920a60ff8181021990931691831602179091556000838152610136602052604081208054600a945090926110ce918591166132d4565b82546101009290920a60ff818102199093169183160217909155600083815261013460205260408120805460059450909261110b918591166132d4565b92506101000a81548160ff021916908360ff160217905550610e7f610e78611d85565b606061113982611d68565b6111555760405162461bcd60e51b815260040161064390613265565b600082815261013260205260409020805461116f9061336f565b80601f016020809104026020016040519081016040528092919081815260200182805461119b9061336f565b80156111e85780601f106111bd576101008083540402835291602001916111e8565b820191906000526020600020905b8154815290600101906020018083116111cb57829003601f168201915b50505050509050919050565b60006001600160a01b03821661125f5760405162461bcd60e51b815260206004820152602a60248201527f4552433732313a2062616c616e636520717565727920666f7220746865207a65604482015269726f206164647265737360b01b6064820152608401610643565b506001600160a01b03166000908152609a602052604090205490565b611283611d85565b6001600160a01b031661129e6033546001600160a01b031690565b6001600160a01b0316146112f45760405162461bcd60e51b815260206004820181905260248201527f4f776e61626c653a2063616c6c6572206973206e6f7420746865206f776e65726044820152606401610643565b6112fe600061223e565b565b611308612be5565b6040518060a0016040528061131c8461085e565b61132757600061132a565b60015b60ff16815260200161133b846117d8565b81526020016113498461176c565b815260200161135784611700565b81526020016113658461136d565b905292915050565b600061137882611d68565b6113945760405162461bcd60e51b815260040161064390613265565b60008281526101316020526040902054610190906113b2904361332c565b6113bc91906132f9565b60008381526101366020526040902054610543919060ff166132bc565b6060609880546105589061336f565b6113f0611d85565b6001600160a01b0316826001600160a01b031614156114515760405162461bcd60e51b815260206004820152601960248201527f4552433732313a20617070726f766520746f2063616c6c6572000000000000006044820152606401610643565b80609c600061145e611d85565b6001600160a01b03908116825260208083019390935260409182016000908120918716808252919093529120805460ff1916921515929092179091556114a2611d85565b6001600160a01b03167f17307eab39ab6107e8899845ad3d59bd9653f200f220920489ca2b5937696c31836040516114de911515815260200190565b60405180910390a35050565b6114fb6114f5611d85565b83611e02565b6115175760405162461bcd60e51b815260040161064390613214565b61152384848484612290565b50505050565b600054610100900460ff1680611542575060005460ff16155b61155e5760405162461bcd60e51b8152600401610643906131c6565b600054610100900460ff16158015611580576000805461ffff19166101011790555b6115886122c3565b6115cd6040518060400160405280600881526020016715d859db5a54195d60c21b8152506040518060400160405280600381526020016214115560ea1b81525061233e565b6115d6826123c5565b80156115e8576000805461ff00191690555b5050565b60606115f782611d68565b6116135760405162461bcd60e51b815260040161064390613265565b61161b612c03565b60405180610120016040528060fd815260200161344360fd9139815261164083610aa2565b6020828101918252604080518082018252600d81526c1e17ba32bc3a1f1e17b9bb339f60991b81840152818501819052845193519151600094611687949093929101612f7b565b604051602081830303815290604052905060006116d46116a68661112e565b6116af8461242d565b6040516020016116c0929190612fbe565b60405160208183030381529060405261242d565b9050806040516020016116e79190613088565b60408051601f1981840301815291905295945050505050565b600061170b82611d68565b6117275760405162461bcd60e51b815260040161064390613265565b6000828152610130602052604090205461019090611745904361332c565b61174f91906132f9565b60008381526101356020526040902054610543919060ff166132bc565b600061177782611d68565b6117935760405162461bcd60e51b815260040161064390613265565b600082815261012f6020526040902054610190906117b1904361332c565b6117bb91906132f9565b60008381526101346020526040902054610543919060ff166132bc565b60006117e382611d68565b6117ff5760405162461bcd60e51b815260040161064390613265565b600082815261012e60205260409020546101909061181d904361332c565b61182791906132f9565b60008381526101336020526040902054610543919060ff166132bc565b61184c611d85565b6001600160a01b03166118676033546001600160a01b031690565b6001600160a01b0316146118bd5760405162461bcd60e51b815260206004820181905260248201527f4f776e61626c653a2063616c6c6572206973206e6f7420746865206f776e65726044820152606401610643565b6001600160a01b0381166119225760405162461bcd60e51b815260206004820152602660248201527f4f776e61626c653a206e6577206f776e657220697320746865207a65726f206160448201526564647265737360d01b6064820152608401610643565b610e7f8161223e565b61193481611d68565b6119505760405162461bcd60e51b815260040161064390613265565b611958611d85565b6001600160a01b031661196a82610cfa565b6001600160a01b0316146119905760405162461bcd60e51b8152600401610643906131a0565b600061199b826117d8565b116119dd5760405162461bcd60e51b81526020600482015260126024820152711a48191bdb9d081b995959081d1bc819585d60721b6044820152606401610643565b6119e68161085e565b611a025760405162461bcd60e51b815260040161064390613291565b6050611a0d82611700565b10611a505760405162461bcd60e51b81526020600482015260136024820152721a5b481d1bdbc8189bdc9959081d1bc819585d606a1b6044820152606401610643565b6050611a5b8261176c565b10611aa85760405162461bcd60e51b815260206004820152601b60248201527f696d206665656c696e6720746f6f2067726f737320746f2065617400000000006044820152606401610643565b600081815261012e602090815260408083204390556101338252808320805460ff1916905561013590915281208054600a9290611ae990849060ff166132d4565b82546101009290920a60ff818102199093169183160217909155600083815261013460205260408120805460039450909261110b918591166132d4565b611b2f81611d68565b611b4b5760405162461bcd60e51b815260040161064390613265565b611b53611d85565b6001600160a01b0316611b6582610cfa565b6001600160a01b031614611b8b5760405162461bcd60e51b8152600401610643906131a0565b611b948161085e565b611bb05760405162461bcd60e51b815260040161064390613291565b6050611bbb8261176c565b10611c085760405162461bcd60e51b815260206004820152601d60248201527f696d206665656c696e6720746f6f2067726f737320746f20736c6565700000006044820152606401610643565b6000611c138261136d565b11611c585760405162461bcd60e51b8152602060048201526015602482015274696d206e6f74206665656c696e6720736c6565707960581b6044820152606401610643565b6000818152610131602090815260408083204390556101368252808320805460ff19169055610134909152812080546005929061110b90849060ff166132d4565b611ca282611d68565b611cbe5760405162461bcd60e51b815260040161064390613265565b611cc6611d85565b6001600160a01b0316611cd883610cfa565b6001600160a01b031614611cfe5760405162461bcd60e51b8152600401610643906131a0565b611d078261085e565b611d235760405162461bcd60e51b815260040161064390613291565b600082815261013260209081526040909120825161078b92840190612b61565b60006001600160e01b0319821663780e9d6360e01b1480610543575061054382612595565b6000908152609960205260409020546001600160a01b0316151590565b6000611d8f6125e5565b905090565b6000818152609b6020526040902080546001600160a01b0319166001600160a01b0384169081179091558190611dc982610cfa565b6001600160a01b03167f8c5be1e5ebec7d5bd14f71427d1e84f3dd0314c0f7b2291e5b200ac8c7c3b92560405160405180910390a45050565b6000611e0d82611d68565b611e6e5760405162461bcd60e51b815260206004820152602c60248201527f4552433732313a206f70657261746f7220717565727920666f72206e6f6e657860448201526b34b9ba32b73a103a37b5b2b760a11b6064820152608401610643565b6000611e7983610cfa565b9050806001600160a01b0316846001600160a01b03161480611eb45750836001600160a01b0316611ea9846105db565b6001600160a01b0316145b80611ee457506001600160a01b038082166000908152609c602090815260408083209388168352929052205460ff165b949350505050565b826001600160a01b0316611eff82610cfa565b6001600160a01b031614611f675760405162461bcd60e51b815260206004820152602960248201527f4552433732313a207472616e73666572206f6620746f6b656e2074686174206960448201526839903737ba1037bbb760b91b6064820152608401610643565b6001600160a01b038216611fc95760405162461bcd60e51b8152602060048201526024808201527f4552433732313a207472616e7366657220746f20746865207a65726f206164646044820152637265737360e01b6064820152608401610643565b611fd483838361260d565b611fdf600082611d94565b6001600160a01b0383166000908152609a6020526040812080546001929061200890849061332c565b90915550506001600160a01b0382166000908152609a602052604081208054600192906120369084906132bc565b909155505060008181526099602052604080822080546001600160a01b0319166001600160a01b0386811691821790925591518493918716917fddf252ad1be2c89b69c2b068fc378daa952ba7f163c4a11628f55a4df523b3ef91a4505050565b6001600160a01b0382166120ed5760405162461bcd60e51b815260206004820181905260248201527f4552433732313a206d696e7420746f20746865207a65726f20616464726573736044820152606401610643565b6120f681611d68565b156121435760405162461bcd60e51b815260206004820152601c60248201527f4552433732313a20746f6b656e20616c7265616479206d696e746564000000006044820152606401610643565b61214f6000838361260d565b6001600160a01b0382166000908152609a602052604081208054600192906121789084906132bc565b909155505060008181526099602052604080822080546001600160a01b0319166001600160a01b03861690811790915590518392907fddf252ad1be2c89b69c2b068fc378daa952ba7f163c4a11628f55a4df523b3ef908290a45050565b6001600160a01b03821660009081526101376020526040812080548392906121ff9084906132bc565b909155505060405181906001600160a01b038416907f8e45fcbba81b43f078fbabb59099f303e8bd5709c1b7a173bf2986e0d615131690600090a35050565b603380546001600160a01b038381166001600160a01b0319831681179093556040519116919082907f8be0079c531659141344cd1fd0a4f28419497f9722a3daafe3b4186f6b6457e090600090a35050565b61229b848484611eec565b6122a784848484612618565b6115235760405162461bcd60e51b81526004016106439061314e565b600054610100900460ff16806122dc575060005460ff16155b6122f85760405162461bcd60e51b8152600401610643906131c6565b600054610100900460ff1615801561231a576000805461ffff19166101011790555b61232261272c565b61232a612796565b8015610e7f576000805461ff001916905550565b600054610100900460ff1680612357575060005460ff16155b6123735760405162461bcd60e51b8152600401610643906131c6565b600054610100900460ff16158015612395576000805461ffff19166101011790555b61239d61272c565b6123a561272c565b6123af83836127fd565b801561078b576000805461ff0019169055505050565b600054610100900460ff16806123de575060005460ff16155b6123fa5760405162461bcd60e51b8152600401610643906131c6565b600054610100900460ff1615801561241c576000805461ffff19166101011790555b61242461272c565b6115d682612892565b606081516000141561244d57505060408051602081019091526000815290565b6000604051806060016040528060408152602001613540604091399050600060038451600261247c91906132bc565b61248691906132f9565b61249190600461330d565b905060006124a08260206132bc565b67ffffffffffffffff8111156124b8576124b8613416565b6040519080825280601f01601f1916602001820160405280156124e2576020820181803683370190505b509050818152600183018586518101602084015b818310156125505760039283018051603f601282901c811687015160f890811b8552600c83901c8216880151811b6001860152600683901c8216880151811b60028601529116860151901b938201939093526004016124f6565b60038951066001811461256a576002811461257b57612587565b613d3d60f01b600119830152612587565b603d60f81b6000198301525b509398975050505050505050565b60006001600160e01b031982166380ac58cd60e01b14806125c657506001600160e01b03198216635b5e139f60e01b145b8061054357506301ffc9a760e01b6001600160e01b0319831614610543565b60fb546000906001600160a01b0316331415612608575060131936013560601c90565b503390565b61078b838383612919565b60006001600160a01b0384163b1561272157836001600160a01b031663150b7a02612641611d85565b8786866040518563ffffffff1660e01b815260040161266394939291906130cd565b602060405180830381600087803b15801561267d57600080fd5b505af19250505080156126ad575060408051601f3d908101601f191682019092526126aa91810190612e81565b60015b612707573d8080156126db576040519150601f19603f3d011682016040523d82523d6000602084013e6126e0565b606091505b5080516126ff5760405162461bcd60e51b81526004016106439061314e565b805181602001fd5b6001600160e01b031916630a85bd0160e11b149050611ee4565b506001949350505050565b600054610100900460ff1680612745575060005460ff16155b6127615760405162461bcd60e51b8152600401610643906131c6565b600054610100900460ff1615801561232a576000805461ffff19166101011790558015610e7f576000805461ff001916905550565b600054610100900460ff16806127af575060005460ff16155b6127cb5760405162461bcd60e51b8152600401610643906131c6565b600054610100900460ff161580156127ed576000805461ffff19166101011790555b61232a6127f8611d85565b61223e565b600054610100900460ff1680612816575060005460ff16155b6128325760405162461bcd60e51b8152600401610643906131c6565b600054610100900460ff16158015612854576000805461ffff19166101011790555b8251612867906097906020860190612b61565b50815161287b906098906020850190612b61565b50801561078b576000805461ff0019169055505050565b600054610100900460ff16806128ab575060005460ff16155b6128c75760405162461bcd60e51b8152600401610643906131c6565b600054610100900460ff161580156128e9576000805461ffff19166101011790555b60fb80546001600160a01b0319166001600160a01b03841617905580156115e8576000805461ff00191690555050565b6001600160a01b0383166129745761296f8160cb8054600083815260cc60205260408120829055600182018355919091527fa7ce836d032b2bf62b7e2097a8e0a6d8aeb35405ad15271e96d3b0188a1d06fb0155565b612997565b816001600160a01b0316836001600160a01b0316146129975761299783826129d1565b6001600160a01b0382166129ae5761078b81612a6e565b826001600160a01b0316826001600160a01b03161461078b5761078b8282612b1d565b600060016129de846111f4565b6129e8919061332c565b600083815260ca6020526040902054909150808214612a3b576001600160a01b038416600090815260c960209081526040808320858452825280832054848452818420819055835260ca90915290208190555b50600091825260ca602090815260408084208490556001600160a01b03909416835260c981528383209183525290812055565b60cb54600090612a809060019061332c565b600083815260cc602052604081205460cb8054939450909284908110612aa857612aa8613400565b906000526020600020015490508060cb8381548110612ac957612ac9613400565b600091825260208083209091019290925582815260cc909152604080822084905585825281205560cb805480612b0157612b016133ea565b6001900381819060005260206000200160009055905550505050565b6000612b28836111f4565b6001600160a01b03909316600090815260c960209081526040808320868452825280832085905593825260ca9052919091209190915550565b828054612b6d9061336f565b90600052602060002090601f016020900481019282612b8f5760008555612bd5565b82601f10612ba857805160ff1916838001178555612bd5565b82800160010185558215612bd5579182015b82811115612bd5578251825591602001919060010190612bba565b50612be1929150612c2a565b5090565b6040518060a001604052806005906020820280368337509192915050565b60405180606001604052806003905b6060815260200190600190039081612c125790505090565b5b80821115612be15760008155600101612c2b565b600067ffffffffffffffff80841115612c5a57612c5a613416565b604051601f8501601f19908116603f01168101908282118183101715612c8257612c82613416565b81604052809350858152868686011115612c9b57600080fd5b858560208301376000602087830101525050509392505050565b80356001600160a01b0381168114612ccc57600080fd5b919050565b600082601f830112612ce257600080fd5b612cf183833560208501612c3f565b9392505050565b600060208284031215612d0a57600080fd5b612cf182612cb5565b60008060408385031215612d2657600080fd5b612d2f83612cb5565b9150612d3d60208401612cb5565b90509250929050565b600080600060608486031215612d5b57600080fd5b612d6484612cb5565b9250612d7260208501612cb5565b9150604084013590509250925092565b60008060008060808587031215612d9857600080fd5b612da185612cb5565b9350612daf60208601612cb5565b925060408501359150606085013567ffffffffffffffff811115612dd257600080fd5b8501601f81018713612de357600080fd5b612df287823560208401612c3f565b91505092959194509250565b60008060408385031215612e1157600080fd5b612e1a83612cb5565b915060208301358015158114612e2f57600080fd5b809150509250929050565b60008060408385031215612e4d57600080fd5b612e5683612cb5565b946020939093013593505050565b600060208284031215612e7657600080fd5b8135612cf18161342c565b600060208284031215612e9357600080fd5b8151612cf18161342c565b600060208284031215612eb057600080fd5b813567ffffffffffffffff811115612ec757600080fd5b611ee484828501612cd1565b600060208284031215612ee557600080fd5b5035919050565b60008060408385031215612eff57600080fd5b82359150602083013567ffffffffffffffff811115612f1d57600080fd5b612f2985828601612cd1565b9150509250929050565b60008151808452612f4b816020860160208601613343565b601f01601f19169290920160200192915050565b60008251612f71818460208701613343565b9190910192915050565b60008451612f8d818460208901613343565b845190830190612fa1818360208901613343565b8451910190612fb4818360208801613343565b0195945050505050565b693d913730b6b2911d101160b11b81528251600090612fe481600a850160208801613343565b7f222c20225741474d497065747320617265207669727475616c2070657473206c600a918401918201527f6976696e67206f6e2074686520626c6f636b636861696e2e222c2022696d6167602a8201527f65223a2022646174613a696d6167652f7376672b786d6c3b6261736536342c00604a820152835161306d816069840160208801613343565b61227d60f01b60699290910191820152606b01949350505050565b7f646174613a6170706c69636174696f6e2f6a736f6e3b6261736536342c0000008152600082516130c081601d850160208701613343565b91909101601d0192915050565b6001600160a01b038581168252841660208201526040810183905260806060820181905260009061310090830184612f33565b9695505050505050565b60a08101818360005b6005811015613132578151835260209283019290910190600101613113565b50505092915050565b602081526000612cf16020830184612f33565b60208082526032908201527f4552433732313a207472616e7366657220746f206e6f6e20455243373231526560408201527131b2b4bb32b91034b6b83632b6b2b73a32b960711b606082015260800190565b6020808252600c908201526b1b9bdd081e5bdd5c881c195d60a21b604082015260600190565b6020808252602e908201527f496e697469616c697a61626c653a20636f6e747261637420697320616c72656160408201526d191e481a5b9a5d1a585b1a5e995960921b606082015260800190565b60208082526031908201527f4552433732313a207472616e736665722063616c6c6572206973206e6f74206f6040820152701ddb995c881b9bdc88185c1c1c9bdd9959607a1b606082015260800190565b6020808252601290820152711c195d08191bd95cc81b9bdd08195e1a5cdd60721b604082015260600190565b6020808252601190820152706e6f206c6f6e676572207769746820757360781b604082015260600190565b600082198211156132cf576132cf6133be565b500190565b600060ff821660ff84168060ff038211156132f1576132f16133be565b019392505050565b600082613308576133086133d4565b500490565b6000816000190483118215151615613327576133276133be565b500290565b60008282101561333e5761333e6133be565b500390565b60005b8381101561335e578181015183820152602001613346565b838111156115235750506000910152565b600181811c9082168061338357607f821691505b602082108114156133a457634e487b7160e01b600052602260045260246000fd5b50919050565b6000826133b9576133b96133d4565b500690565b634e487b7160e01b600052601160045260246000fd5b634e487b7160e01b600052601260045260246000fd5b634e487b7160e01b600052603160045260246000fd5b634e487b7160e01b600052603260045260246000fd5b634e487b7160e01b600052604160045260246000fd5b6001600160e01b031981168114610e7f57600080fdfe3c73766720786d6c6e733d22687474703a2f2f7777772e77332e6f72672f323030302f73766722207072657365727665417370656374526174696f3d22784d696e594d696e206d656574222076696577426f783d223020302033353020333530223e3c7374796c653e2e62617365207b2066696c6c3a2077686974653b20666f6e742d66616d696c793a2073657269663b20666f6e742d73697a653a20313470783b207d3c2f7374796c653e3c726563742077696474683d223130302522206865696768743d2231303025222066696c6c3d22626c61636b22202f3e3c7465787420783d2231302220793d2232302220636c6173733d2262617365223e4142434445464748494a4b4c4d4e4f505152535455565758595a6162636465666768696a6b6c6d6e6f707172737475767778797a303132333435363738392b2fa2646970667358221220b0f07b26a0d476756d44837ee9e2e8981f6bce26d9d096ed8c0b74a2b9fe948d64736f6c63430008070033",
  "immutableReferences": {},
  "source": "// SPDX-License-Identifier: Unlicense\r\n\r\n/*\r\n    WAGMIpet NFT, inspired by dhof.eth's wagmipet contract (mainnet:0xecb504d39723b0be0e3a9aa33d646642d1051ee1)\r\n    By m1guelpf.eth\r\n*/\r\n\r\npragma solidity ^0.8.7;\r\n\r\nimport \"base64-sol/base64.sol\";\r\nimport \"@openzeppelin/contracts-upgradeable/access/OwnableUpgradeable.sol\";\r\nimport \"@openzeppelin/contracts-upgradeable/utils/CountersUpgradeable.sol\";\r\nimport \"@openzeppelin/contracts-upgradeable/metatx/ERC2771ContextUpgradeable.sol\";\r\nimport \"@openzeppelin/contracts-upgradeable/token/ERC721/ERC721Upgradeable.sol\";\r\nimport \"@openzeppelin/contracts-upgradeable/token/ERC721/extensions/ERC721EnumerableUpgradeable.sol\";\r\n\r\n\r\ncontract WAGMIpetV2 is OwnableUpgradeable, ERC721Upgradeable, ERC721EnumerableUpgradeable, ERC2771ContextUpgradeable {\r\n    using CountersUpgradeable for CountersUpgradeable.Counter;\r\n    CountersUpgradeable.Counter private _tokenIds;\r\n\r\n    event CaretakerLoved(address indexed caretaker, uint256 indexed amount);\r\n    event Adopted(address indexed caretaker, string indexed name);\r\n\r\n    mapping (uint256 => uint256) internal _lastFeedBlock;\r\n    mapping (uint256 => uint256) internal _lastCleanBlock;\r\n    mapping (uint256 => uint256) internal _lastPlayBlock;\r\n    mapping (uint256 => uint256) internal _lastSleepBlock;\r\n\r\n    mapping (uint256 => string) internal _names;\r\n    mapping (uint256 => uint8) internal _hunger;\r\n    mapping (uint256 => uint8) internal _uncleanliness;\r\n    mapping (uint256 => uint8) internal _boredom;\r\n    mapping (uint256 => uint8) internal _sleepiness;\r\n\r\n    mapping (address => uint256) public love;\r\n\r\n    function initialize(address trustedForwarder) public initializer {\r\n        __Ownable_init();\r\n        __ERC721_init(\"WagmiPet\", \"PET\");\r\n        __ERC2771Context_init(trustedForwarder);\r\n     }\r\n\r\n    function adopt(string memory name) public returns (uint256) {\r\n        _tokenIds.increment();\r\n        uint256 newTokenId = _tokenIds.current();\r\n\r\n        _lastFeedBlock[newTokenId] = block.number;\r\n        _lastCleanBlock[newTokenId] = block.number;\r\n        _lastPlayBlock[newTokenId] = block.number;\r\n        _lastSleepBlock[newTokenId] = block.number;\r\n        _names[newTokenId] = name;\r\n        _hunger[newTokenId] = 0;\r\n        _uncleanliness[newTokenId] = 0;\r\n        _boredom[newTokenId] = 0;\r\n        _sleepiness[newTokenId] = 0;\r\n        _mint(_msgSender(), newTokenId);\r\n\r\n        emit Adopted(_msgSender(), name);\r\n\r\n        return newTokenId;\r\n    }\r\n\r\n    function addLove(address caretaker, uint256 amount) internal {\r\n        love[caretaker] += amount;\r\n        emit CaretakerLoved(caretaker, amount);\r\n    }\r\n\r\n    function feed(uint256 tokenId) public {\r\n        require(_exists(tokenId), \"pet does not exist\");\r\n        require(ownerOf(tokenId) == _msgSender(), \"not your pet\");\r\n        require(getHunger(tokenId) > 0, \"i dont need to eat\");\r\n        require(getAlive(tokenId), \"no longer with us\");\r\n        require(getBoredom(tokenId) < 80, \"im too bored to eat\");\r\n        require(getUncleanliness(tokenId) < 80, \"im feeling too gross to eat\");\r\n\r\n        _lastFeedBlock[tokenId] = block.number;\r\n\r\n        _hunger[tokenId] = 0;\r\n        _boredom[tokenId] += 10;\r\n        _uncleanliness[tokenId] += 3;\r\n\r\n        addLove(_msgSender(), 1);\r\n    }\r\n\r\n    function clean(uint256 tokenId) public {\r\n        require(_exists(tokenId), \"pet does not exist\");\r\n        require(ownerOf(tokenId) == _msgSender(), \"not your pet\");\r\n        require(getAlive(tokenId), \"no longer with us\");\r\n        require(getUncleanliness(tokenId) > 0, \"i dont need a bath\");\r\n\r\n        _lastCleanBlock[tokenId] = block.number;\r\n        _uncleanliness[tokenId] = 0;\r\n\r\n        addLove(_msgSender(), 1);\r\n    }\r\n\r\n    function play(uint256 tokenId) public {\r\n        require(_exists(tokenId), \"pet does not exist\");\r\n        require(ownerOf(tokenId) == _msgSender(), \"not your pet\");\r\n        require(getAlive(tokenId), \"no longer with us\");\r\n        require(getHunger(tokenId) < 80, \"im too hungry to play\");\r\n        require(getSleepiness(tokenId) < 80, \"im too sleepy to play\");\r\n        require(getUncleanliness(tokenId) < 80, \"im feeling too gross to play\");\r\n        require(getBoredom(tokenId) > 0, \"i dont wanna play\");\r\n\r\n        _lastPlayBlock[tokenId] = block.number;\r\n\r\n        _boredom[tokenId] = 0;\r\n        _hunger[tokenId] += 10;\r\n        _sleepiness[tokenId] += 10;\r\n        _uncleanliness[tokenId] += 5;\r\n\r\n        addLove(_msgSender(), 1);\r\n    }\r\n\r\n    function sleep(uint256 tokenId) public {\r\n        require(_exists(tokenId), \"pet does not exist\");\r\n        require(ownerOf(tokenId) == _msgSender(), \"not your pet\");\r\n        require(getAlive(tokenId), \"no longer with us\");\r\n        require(getUncleanliness(tokenId) < 80, \"im feeling too gross to sleep\");\r\n        require(getSleepiness(tokenId) > 0, \"im not feeling sleepy\");\r\n\r\n        _lastSleepBlock[tokenId] = block.number;\r\n\r\n        _sleepiness[tokenId] = 0;\r\n        _uncleanliness[tokenId] += 5;\r\n\r\n        addLove(_msgSender(), 1);\r\n    }\r\n\r\n    function getName(uint256 tokenId) public view returns (string memory) {\r\n        require(_exists(tokenId), \"pet does not exist\");\r\n\r\n        return _names[tokenId];\r\n    }\r\n\r\n    function setName(uint256 tokenId, string memory name) public {\r\n        require(_exists(tokenId), \"pet does not exist\");\r\n        require(ownerOf(tokenId) == _msgSender(), \"not your pet\");\r\n        require(getAlive(tokenId), \"no longer with us\");\r\n\r\n        _names[tokenId] = name;\r\n    }\r\n\r\n    function getStatus(uint256 tokenId) public view returns (string memory) {\r\n        require(_exists(tokenId), \"pet does not exist\");\r\n\r\n        uint256 mostNeeded = 0;\r\n\r\n        string[4] memory goodStatus = [\"gm\", \"im feeling great\", \"all good\", \"i love u\"];\r\n\r\n        string memory status = goodStatus[block.number % 4];\r\n\r\n        uint256 hunger = getHunger(tokenId);\r\n        uint256 uncleanliness = getUncleanliness(tokenId);\r\n        uint256 boredom = getBoredom(tokenId);\r\n        uint256 sleepiness = getSleepiness(tokenId);\r\n\r\n        if (getAlive(tokenId) == false) {\r\n            return \"no longer with us\";\r\n        }\r\n\r\n        if (hunger > 50 && hunger > mostNeeded) {\r\n            mostNeeded = hunger;\r\n            status = \"im hungry\";\r\n        }\r\n\r\n        if (uncleanliness > 50 && uncleanliness > mostNeeded) {\r\n            mostNeeded = uncleanliness;\r\n            status = \"i need a bath\";\r\n        }\r\n\r\n        if (boredom > 50 && boredom > mostNeeded) {\r\n            mostNeeded = boredom;\r\n            status = \"im bored\";\r\n        }\r\n\r\n        if (sleepiness > 50 && sleepiness > mostNeeded) {\r\n            mostNeeded = sleepiness;\r\n            status = \"im sleepy\";\r\n        }\r\n\r\n        return status;\r\n    }\r\n\r\n    function getAlive(uint256 tokenId) public view returns (bool) {\r\n        require(_exists(tokenId), \"pet does not exist\");\r\n\r\n        return getHunger(tokenId) < 101 && getUncleanliness(tokenId) < 101 && getBoredom(tokenId) < 101 && getSleepiness(tokenId) < 101;\r\n    }\r\n\r\n    function getHunger(uint256 tokenId) public view returns (uint256) {\r\n        require(_exists(tokenId), \"pet does not exist\");\r\n\r\n        return _hunger[tokenId] + ((block.number - _lastFeedBlock[tokenId]) / 400);\r\n    }\r\n\r\n    function getUncleanliness(uint256 tokenId) public view returns (uint256) {\r\n        require(_exists(tokenId), \"pet does not exist\");\r\n\r\n        return _uncleanliness[tokenId] + ((block.number - _lastCleanBlock[tokenId]) / 400);\r\n    }\r\n\r\n    function getBoredom(uint256 tokenId) public view returns (uint256) {\r\n        require(_exists(tokenId), \"pet does not exist\");\r\n\r\n        return _boredom[tokenId] + ((block.number - _lastPlayBlock[tokenId]) / 400);\r\n    }\r\n\r\n    function getSleepiness(uint256 tokenId) public view returns (uint256) {\r\n        require(_exists(tokenId), \"pet does not exist\");\r\n\r\n        return _sleepiness[tokenId] + ((block.number - _lastSleepBlock[tokenId]) / 400);\r\n    }\r\n\r\n    function getStats(uint256 tokenId) public view returns (uint256[5] memory) {\r\n        return [getAlive(tokenId) ? 1 : 0, getHunger(tokenId), getUncleanliness(tokenId), getBoredom(tokenId), getSleepiness(tokenId)];\r\n    }\r\n\r\n    function tokenURI(uint256 tokenId) public view override(ERC721Upgradeable) returns (string memory) {\r\n        require(_exists(tokenId), \"pet does not exist\");\r\n\r\n        string[3] memory parts;\r\n        // solhint-disable-next-line quotes\r\n        parts[0] = '<svg xmlns=\"http://www.w3.org/2000/svg\" preserveAspectRatio=\"xMinYMin meet\" viewBox=\"0 0 350 350\"><style>.base { fill: white; font-family: serif; font-size: 14px; }</style><rect width=\"100%\" height=\"100%\" fill=\"black\" /><text x=\"10\" y=\"20\" class=\"base\">';\r\n        parts[1] = getStatus(tokenId);\r\n        parts[2] = \"</text></svg>\";\r\n\r\n        string memory output = string(abi.encodePacked(parts[0], parts[1], parts[2]));\r\n\r\n        // solhint-disable-next-line quotes\r\n        string memory json = Base64.encode(bytes(string(abi.encodePacked('{\"name\": \"', getName(tokenId), '\", \"WAGMIpets are virtual pets living on the blockchain.\", \"image\": \"data:image/svg+xml;base64,', Base64.encode(bytes(output)), '\"}'))));\r\n        output = string(abi.encodePacked(\"data:application/json;base64,\", json));\r\n\r\n        return output;\r\n    }\r\n\r\n    function _beforeTokenTransfer(address from, address to, uint256 tokenId) internal virtual override(ERC721Upgradeable, ERC721EnumerableUpgradeable) {\r\n        ERC721EnumerableUpgradeable._beforeTokenTransfer(from, to, tokenId);\r\n    }\r\n\r\n    function supportsInterface(bytes4 interfaceId) public view virtual override(ERC721Upgradeable, ERC721EnumerableUpgradeable) returns (bool) {\r\n        return ERC721EnumerableUpgradeable.supportsInterface(interfaceId);\r\n    }\r\n\r\n    function _msgSender() internal view virtual override(ContextUpgradeable, ERC2771ContextUpgradeable) returns (address sender) {\r\n        return ERC2771ContextUpgradeable._msgSender();\r\n    }\r\n\r\n    function _msgData() internal view virtual override(ContextUpgradeable, ERC2771ContextUpgradeable) returns (bytes calldata) {\r\n        return ERC2771ContextUpgradeable._msgData();\r\n    }\r\n}",
  "sourcePath": "C:/Users/cheek/Desktop/Developer doc/Visual Studio Code/PundiX/wagmipet/wagmipet-zac/blindgotchi/src/contracts/WAGMIpetV2.sol",
  "compiler": {
    "name": "solc",
    "version": "0.8.7+commit.e28d00a7.Emscripten.clang"
  },
  "schemaVersion": "3.3.4",
  "updatedAt": "2021-09-23T07:55:30.188Z",
  "devdoc": {
    "kind": "dev",
    "methods": {
      "approve(address,uint256)": {
        "details": "See {IERC721-approve}."
      },
      "balanceOf(address)": {
        "details": "See {IERC721-balanceOf}."
      },
      "getApproved(uint256)": {
        "details": "See {IERC721-getApproved}."
      },
      "isApprovedForAll(address,address)": {
        "details": "See {IERC721-isApprovedForAll}."
      },
      "name()": {
        "details": "See {IERC721Metadata-name}."
      },
      "owner()": {
        "details": "Returns the address of the current owner."
      },
      "ownerOf(uint256)": {
        "details": "See {IERC721-ownerOf}."
      },
      "renounceOwnership()": {
        "details": "Leaves the contract without owner. It will not be possible to call `onlyOwner` functions anymore. Can only be called by the current owner. NOTE: Renouncing ownership will leave the contract without an owner, thereby removing any functionality that is only available to the owner."
      },
      "safeTransferFrom(address,address,uint256)": {
        "details": "See {IERC721-safeTransferFrom}."
      },
      "safeTransferFrom(address,address,uint256,bytes)": {
        "details": "See {IERC721-safeTransferFrom}."
      },
      "setApprovalForAll(address,bool)": {
        "details": "See {IERC721-setApprovalForAll}."
      },
      "symbol()": {
        "details": "See {IERC721Metadata-symbol}."
      },
      "tokenByIndex(uint256)": {
        "details": "See {IERC721Enumerable-tokenByIndex}."
      },
      "tokenOfOwnerByIndex(address,uint256)": {
        "details": "See {IERC721Enumerable-tokenOfOwnerByIndex}."
      },
      "tokenURI(uint256)": {
        "details": "See {IERC721Metadata-tokenURI}."
      },
      "totalSupply()": {
        "details": "See {IERC721Enumerable-totalSupply}."
      },
      "transferFrom(address,address,uint256)": {
        "details": "See {IERC721-transferFrom}."
      },
      "transferOwnership(address)": {
        "details": "Transfers ownership of the contract to a new account (`newOwner`). Can only be called by the current owner."
      }
    },
    "version": 1
  },
  "userdoc": {
    "kind": "user",
    "methods": {},
    "version": 1
  }
}