{
  "contractName": "Wagmipet",
  "abi": [
    {
      "inputs": [],
      "stateMutability": "nonpayable",
      "type": "constructor"
    },
    {
      "anonymous": false,
      "inputs": [
        {
          "indexed": true,
          "internalType": "address",
          "name": "caretaker",
          "type": "address"
        },
        {
          "indexed": true,
          "internalType": "uint256",
          "name": "amount",
          "type": "uint256"
        }
      ],
      "name": "CaretakerLoved",
      "type": "event"
    },
    {
      "inputs": [
        {
          "internalType": "address",
          "name": "",
          "type": "address"
        }
      ],
      "name": "love",
      "outputs": [
        {
          "internalType": "uint256",
          "name": "",
          "type": "uint256"
        }
      ],
      "stateMutability": "view",
      "type": "function",
      "constant": true
    },
    {
      "inputs": [],
      "name": "feed",
      "outputs": [],
      "stateMutability": "nonpayable",
      "type": "function"
    },
    {
      "inputs": [],
      "name": "clean",
      "outputs": [],
      "stateMutability": "nonpayable",
      "type": "function"
    },
    {
      "inputs": [],
      "name": "play",
      "outputs": [],
      "stateMutability": "nonpayable",
      "type": "function"
    },
    {
      "inputs": [],
      "name": "sleep",
      "outputs": [],
      "stateMutability": "nonpayable",
      "type": "function"
    },
    {
      "inputs": [],
      "name": "getStatus",
      "outputs": [
        {
          "internalType": "string",
          "name": "",
          "type": "string"
        }
      ],
      "stateMutability": "view",
      "type": "function",
      "constant": true
    },
    {
      "inputs": [],
      "name": "getAlive",
      "outputs": [
        {
          "internalType": "bool",
          "name": "",
          "type": "bool"
        }
      ],
      "stateMutability": "view",
      "type": "function",
      "constant": true
    },
    {
      "inputs": [],
      "name": "getHunger",
      "outputs": [
        {
          "internalType": "uint256",
          "name": "",
          "type": "uint256"
        }
      ],
      "stateMutability": "view",
      "type": "function",
      "constant": true
    },
    {
      "inputs": [],
      "name": "getUncleanliness",
      "outputs": [
        {
          "internalType": "uint256",
          "name": "",
          "type": "uint256"
        }
      ],
      "stateMutability": "view",
      "type": "function",
      "constant": true
    },
    {
      "inputs": [],
      "name": "getBoredom",
      "outputs": [
        {
          "internalType": "uint256",
          "name": "",
          "type": "uint256"
        }
      ],
      "stateMutability": "view",
      "type": "function",
      "constant": true
    },
    {
      "inputs": [],
      "name": "getSleepiness",
      "outputs": [
        {
          "internalType": "uint256",
          "name": "",
          "type": "uint256"
        }
      ],
      "stateMutability": "view",
      "type": "function",
      "constant": true
    }
  ],
  "bytecode": "0x608060405234801561001057600080fd5b50600080546001600160a01b03191633179055436001819055600281905560038190556004556005805463ffffffff19169055610b16806100526000396000f3fe608060405234801561001057600080fd5b50600436106100a95760003560e01c80634e69d560116100715780634e69d560146101135780634fccdfcd1461012857806393e84cd914610130578063a104a64f14610138578063f19d550514610140578063fc4333cd1461014857600080fd5b80630d3b3b5c146100ae578063133a473e146100c957806326581d60146100d35780633684b4a6146100eb57806337a7b7d81461010b575b600080fd5b6100b6610150565b6040519081526020015b60405180910390f35b6100d1610188565b005b6100db6102aa565b60405190151581526020016100c0565b6100b66100f9366004610972565b60066020526000908152604090205481565b6100d16102f4565b61011b61041d565b6040516100c091906109a2565b6100b661064a565b6100d1610676565b6100b6610822565b6100b6610853565b6100d1610885565b60006032600454436101629190610a73565b61016c9190610a5f565b60055461018391906301000000900460ff16610a22565b905090565b6101906102aa565b6101b55760405162461bcd60e51b81526004016101ac906109f7565b60405180910390fd5b60506101bf610822565b1061020c5760405162461bcd60e51b815260206004820152601d60248201527f696d206665656c696e6720746f6f2067726f737320746f20736c65657000000060448201526064016101ac565b6000610216610150565b1161025b5760405162461bcd60e51b8152602060048201526015602482015274696d206e6f74206665656c696e6720736c6565707960581b60448201526064016101ac565b436004556005805463ff00000019168082558190600190610285908390610100900460ff16610a3a565b92506101000a81548160ff021916908360ff1602179055506102a833600161090b565b565b600060656102b661064a565b1080156102ca575060656102c8610822565b105b80156102dd575060656102db610853565b105b8015610183575060656102ee610150565b10905090565b6102fc6102aa565b6103185760405162461bcd60e51b81526004016101ac906109f7565b6050610322610853565b106103655760405162461bcd60e51b81526020600482015260136024820152721a5b481d1bdbc81d1a5c9959081d1bc819585d606a1b60448201526064016101ac565b605061036f610822565b106103bc5760405162461bcd60e51b815260206004820152601b60248201527f696d206665656c696e6720746f6f2067726f737320746f20656174000000000060448201526064016101ac565b436001556005805460ff1916808255600a91906002906103e690849062010000900460ff16610a3a565b92506101000a81548160ff021916908360ff1602179055506003600560018282829054906101000a900460ff166102859190610a3a565b6040805160c08101825260026080820190815261676d60f01b60a0830152815281518083018352601081526f1a5b481999595b1a5b99c819dc99585d60821b6020828101919091528083019190915282518084018452600880825267185b1b0819dbdbd960c21b8284015283850191909152835180850190945283526769206c6f7665207560c01b9083015260608181019290925260009081816104c2600443610a8a565b600481106104d2576104d2610aca565b6020020151905060006104e361064a565b905060006104ef610822565b905060006104fb610853565b90506000610507610150565b90506105116102aa565b61054b57604051806040016040528060118152602001706e6f206c6f6e676572207769746820757360781b81525097505050505050505090565b60328411801561055a57508684115b156105875783965060405180604001604052806009815260200168696d2068756e67727960b81b81525094505b60328311801561059657508683115b156105c7578296506040518060400160405280600d81526020016c0d240dccacac840c240c4c2e8d609b1b81525094505b6032821180156105d657508682115b1561060257819650604051806040016040528060088152602001671a5b48189bdc995960c21b81525094505b60328111801561061157508681115b1561063e5780965060405180604001604052806009815260200168696d20736c6565707960b81b81525094505b50929695505050505050565b600060326001544361065c9190610a73565b6106669190610a5f565b600554610183919060ff16610a22565b61067e6102aa565b61069a5760405162461bcd60e51b81526004016101ac906109f7565b60506106a461064a565b106106e95760405162461bcd60e51b8152602060048201526015602482015274696d20746f6f2068756e67727920746f20706c617960581b60448201526064016101ac565b60506106f3610150565b106107385760405162461bcd60e51b8152602060048201526015602482015274696d20746f6f20736c6565707920746f20706c617960581b60448201526064016101ac565b6050610742610822565b1061078f5760405162461bcd60e51b815260206004820152601c60248201527f696d206665656c696e6720746f6f2067726f737320746f20706c61790000000060448201526064016101ac565b436003556005805462ff00001981168255600a91906000906107b590849060ff16610a3a565b92506101000a81548160ff021916908360ff160217905550600a600560038282829054906101000a900460ff166107ec9190610a3a565b92506101000a81548160ff021916908360ff16021790555060058060018282829054906101000a900460ff166102859190610a3a565b60006032600254436108349190610a73565b61083e9190610a5f565b6005546101839190610100900460ff16610a22565b60006032600354436108659190610a73565b61086f9190610a5f565b600554610183919062010000900460ff16610a22565b61088d6102aa565b6108a95760405162461bcd60e51b81526004016101ac906109f7565b60006108b3610822565b116108f55760405162461bcd60e51b81526020600482015260126024820152710d240c8dedce840dccacac840c240c4c2e8d60731b60448201526064016101ac565b436002556005805461ff00191690556102a83360015b6001600160a01b03821660009081526006602052604081208054839290610933908490610a22565b909155505060405181906001600160a01b038416907f8e45fcbba81b43f078fbabb59099f303e8bd5709c1b7a173bf2986e0d615131690600090a35050565b60006020828403121561098457600080fd5b81356001600160a01b038116811461099b57600080fd5b9392505050565b600060208083528351808285015260005b818110156109cf578581018301518582016040015282016109b3565b818111156109e1576000604083870101525b50601f01601f1916929092016040019392505050565b6020808252601190820152706e6f206c6f6e676572207769746820757360781b604082015260600190565b60008219821115610a3557610a35610a9e565b500190565b600060ff821660ff84168060ff03821115610a5757610a57610a9e565b019392505050565b600082610a6e57610a6e610ab4565b500490565b600082821015610a8557610a85610a9e565b500390565b600082610a9957610a99610ab4565b500690565b634e487b7160e01b600052601160045260246000fd5b634e487b7160e01b600052601260045260246000fd5b634e487b7160e01b600052603260045260246000fdfea2646970667358221220a8515d38119c5951e87be818beb67aef36b34bdb8a6caa817209ca62b2dcc4ff64736f6c63430008070033",
  "immutableReferences": {},
  "source": "/**\r\n *Submitted for verification at Etherscan.io on 2021-09-10\r\n*/\r\n\r\n// SPDX-License-Identifier: Unlicense\r\n\r\n/*\r\n  (w) (a) (g) (m) (i)\r\n  by dom\r\n*/\r\n\r\npragma solidity ^0.8.0;\r\n\r\ncontract Wagmipet {\r\n    address _owner;\r\n    bool _birthed;\r\n    \r\n    event CaretakerLoved(address indexed caretaker, uint256 indexed amount);\r\n    \r\n    uint256 lastFeedBlock;\r\n    uint256 lastCleanBlock;\r\n    uint256 lastPlayBlock;\r\n    uint256 lastSleepBlock;\r\n    \r\n    uint8 internal hunger;\r\n    uint8 internal uncleanliness;\r\n    uint8 internal boredom;\r\n    uint8 internal sleepiness;\r\n    \r\n    mapping (address => uint256) public love;\r\n    \r\n    modifier onlyOwner() {\r\n        require(msg.sender == _owner);\r\n        _;\r\n    }\r\n    \r\n    constructor() {\r\n        _owner = msg.sender;\r\n        lastFeedBlock = block.number;\r\n        lastCleanBlock = block.number;\r\n        lastPlayBlock = block.number;\r\n        lastSleepBlock = block.number;\r\n        \r\n        hunger = 0;\r\n        uncleanliness = 0;\r\n        boredom = 0;\r\n        sleepiness = 0;\r\n    }\r\n    \r\n    function addLove(address caretaker, uint256 amount) internal {\r\n        love[caretaker] += amount;\r\n        emit CaretakerLoved(caretaker, amount);\r\n    }\r\n    \r\n    function feed() public {\r\n        require(getAlive(), \"no longer with us\");\r\n        require(getBoredom() < 80, \"im too tired to eat\");\r\n        require(getUncleanliness() < 80, \"im feeling too gross to eat\");\r\n        // require(getHunger() > 0, \"i dont need to eat\");\r\n        \r\n        lastFeedBlock = block.number;\r\n        \r\n        hunger = 0;\r\n        boredom += 10;\r\n        uncleanliness += 3;\r\n\r\n        addLove(msg.sender, 1);\r\n    }\r\n    \r\n    function clean() public {\r\n        require(getAlive(), \"no longer with us\");\r\n        require(getUncleanliness() > 0, \"i dont need a bath\");\r\n        lastCleanBlock = block.number;\r\n        \r\n        uncleanliness = 0;\r\n        \r\n        addLove(msg.sender, 1);\r\n    }\r\n    \r\n    function play() public {\r\n        require(getAlive(), \"no longer with us\");\r\n        require(getHunger() < 80, \"im too hungry to play\");\r\n        require(getSleepiness() < 80, \"im too sleepy to play\");\r\n        require(getUncleanliness() < 80, \"im feeling too gross to play\");\r\n        // require(getBoredom() > 0, \"i dont wanna play\");\r\n        \r\n        lastPlayBlock = block.number;\r\n        \r\n        boredom = 0;\r\n        hunger += 10;\r\n        sleepiness += 10;\r\n        uncleanliness += 5;\r\n        \r\n        addLove(msg.sender, 1);\r\n    }\r\n    \r\n    function sleep() public {\r\n        require(getAlive(), \"no longer with us\");\r\n        require(getUncleanliness() < 80, \"im feeling too gross to sleep\");\r\n        require(getSleepiness() > 0, \"im not feeling sleepy\");\r\n        \r\n        lastSleepBlock = block.number;\r\n        \r\n        sleepiness = 0;\r\n        uncleanliness += 5;\r\n        \r\n        addLove(msg.sender, 1);\r\n    }\r\n    \r\n    function getStatus() public view returns (string memory) {\r\n        uint256 mostNeeded = 0;\r\n        \r\n        string[4] memory goodStatus = [\r\n            \"gm\",\r\n            \"im feeling great\",\r\n            \"all good\",\r\n            \"i love u\"\r\n        ];\r\n        \r\n        string memory status = goodStatus[block.number % 4];\r\n        \r\n        uint256 _hunger = getHunger();\r\n        uint256 _uncleanliness = getUncleanliness();\r\n        uint256 _boredom = getBoredom();\r\n        uint256 _sleepiness = getSleepiness();\r\n        \r\n        if (getAlive() == false) {\r\n            return \"no longer with us\";\r\n        }\r\n        \r\n        if (_hunger > 50 && _hunger > mostNeeded) {\r\n            mostNeeded = _hunger;\r\n            status = \"im hungry\";\r\n        }\r\n        \r\n        if (_uncleanliness > 50 && _uncleanliness > mostNeeded) {\r\n            mostNeeded = _uncleanliness;\r\n            status = \"i need a bath\";\r\n        }\r\n        \r\n        if (_boredom > 50 && _boredom > mostNeeded) {\r\n            mostNeeded = _boredom;\r\n            status = \"im bored\";\r\n        }\r\n        \r\n        if (_sleepiness > 50 && _sleepiness > mostNeeded) {\r\n            mostNeeded = _sleepiness;\r\n            status = \"im sleepy\";\r\n        }\r\n        \r\n        return status;\r\n    }\r\n    \r\n    function getAlive() public view returns (bool) {\r\n        return getHunger() < 101 && getUncleanliness() < 101 &&\r\n            getBoredom() < 101 && getSleepiness() < 101;\r\n    }\r\n    \r\n    function getHunger() public view returns (uint256) {\r\n        return hunger + ((block.number - lastFeedBlock) / 50);\r\n    }\r\n    \r\n    function getUncleanliness() public view returns (uint256) {\r\n        return uncleanliness + ((block.number - lastCleanBlock) / 50);\r\n    }\r\n    \r\n    function getBoredom() public view returns (uint256) {\r\n        return boredom + ((block.number - lastPlayBlock) / 50);\r\n    }\r\n    \r\n    function getSleepiness() public view returns (uint256) {\r\n        return sleepiness + ((block.number - lastSleepBlock) / 50);\r\n    }\r\n}",
  "sourcePath": "C:/Users/cheek/Desktop/Developer doc/Visual Studio Code/PundiX/wagmipet/wagmipet-react2/src/contracts/Wagmipet.sol",
  "compiler": {
    "name": "solc",
    "version": "0.8.7+commit.e28d00a7.Emscripten.clang"
  },
  "schemaVersion": "3.3.4",
  "updatedAt": "2021-09-22T02:50:55.624Z",
  "networkType": "ethereum",
  "devdoc": {
    "kind": "dev",
    "methods": {},
    "version": 1
  },
  "userdoc": {
    "kind": "user",
    "methods": {},
    "version": 1
  }
}