{
  "contractName": "Wagmipet",
  "abi": [
    {
      "inputs": [],
      "stateMutability": "nonpayable",
      "type": "constructor"
    },
    {
      "anonymous": false,
      "inputs": [
        {
          "indexed": true,
          "internalType": "address",
          "name": "caretaker",
          "type": "address"
        },
        {
          "indexed": true,
          "internalType": "uint256",
          "name": "amount",
          "type": "uint256"
        }
      ],
      "name": "CaretakerLoved",
      "type": "event"
    },
    {
      "inputs": [],
      "name": "caretakerIndex",
      "outputs": [
        {
          "internalType": "uint256",
          "name": "",
          "type": "uint256"
        }
      ],
      "stateMutability": "view",
      "type": "function",
      "constant": true
    },
    {
      "inputs": [
        {
          "internalType": "uint256",
          "name": "",
          "type": "uint256"
        }
      ],
      "name": "caretakers",
      "outputs": [
        {
          "internalType": "address",
          "name": "",
          "type": "address"
        }
      ],
      "stateMutability": "view",
      "type": "function",
      "constant": true
    },
    {
      "inputs": [
        {
          "internalType": "address",
          "name": "",
          "type": "address"
        }
      ],
      "name": "love",
      "outputs": [
        {
          "internalType": "address",
          "name": "careTaker",
          "type": "address"
        },
        {
          "internalType": "uint256",
          "name": "love",
          "type": "uint256"
        }
      ],
      "stateMutability": "view",
      "type": "function",
      "constant": true
    },
    {
      "inputs": [],
      "name": "feed",
      "outputs": [],
      "stateMutability": "nonpayable",
      "type": "function"
    },
    {
      "inputs": [],
      "name": "clean",
      "outputs": [],
      "stateMutability": "nonpayable",
      "type": "function"
    },
    {
      "inputs": [],
      "name": "play",
      "outputs": [],
      "stateMutability": "nonpayable",
      "type": "function"
    },
    {
      "inputs": [],
      "name": "sleep",
      "outputs": [],
      "stateMutability": "nonpayable",
      "type": "function"
    },
    {
      "inputs": [],
      "name": "getStatus",
      "outputs": [
        {
          "internalType": "string",
          "name": "",
          "type": "string"
        }
      ],
      "stateMutability": "view",
      "type": "function",
      "constant": true
    },
    {
      "inputs": [],
      "name": "getAlive",
      "outputs": [
        {
          "internalType": "bool",
          "name": "",
          "type": "bool"
        }
      ],
      "stateMutability": "view",
      "type": "function",
      "constant": true
    },
    {
      "inputs": [],
      "name": "getHunger",
      "outputs": [
        {
          "internalType": "uint256",
          "name": "",
          "type": "uint256"
        }
      ],
      "stateMutability": "view",
      "type": "function",
      "constant": true
    },
    {
      "inputs": [],
      "name": "getUncleanliness",
      "outputs": [
        {
          "internalType": "uint256",
          "name": "",
          "type": "uint256"
        }
      ],
      "stateMutability": "view",
      "type": "function",
      "constant": true
    },
    {
      "inputs": [],
      "name": "getBoredom",
      "outputs": [
        {
          "internalType": "uint256",
          "name": "",
          "type": "uint256"
        }
      ],
      "stateMutability": "view",
      "type": "function",
      "constant": true
    },
    {
      "inputs": [],
      "name": "getSleepiness",
      "outputs": [
        {
          "internalType": "uint256",
          "name": "",
          "type": "uint256"
        }
      ],
      "stateMutability": "view",
      "type": "function",
      "constant": true
    }
  ],
  "bytecode": "0x608060405234801561001057600080fd5b50600080546001600160a01b03191633179055436003819055600481905560058190556006556007805463ffffffff19169055610c8b806100526000396000f3fe608060405234801561001057600080fd5b50600436106100cf5760003560e01c80634fccdfcd1161008c578063a104a64f11610066578063a104a64f146101bb578063b2a24d45146101c3578063f19d5505146101cc578063fc4333cd146101d457600080fd5b80634fccdfcd146101805780637274ff2a1461018857806393e84cd9146101b357600080fd5b80630d3b3b5c146100d4578063133a473e146100ef57806326581d60146100f95780633684b4a61461011157806337a7b7d8146101635780634e69d5601461016b575b600080fd5b6100dc6101dc565b6040519081526020015b60405180910390f35b6100f7610214565b005b610101610339565b60405190151581526020016100e6565b61014461011f366004610ace565b600860205260009081526040902080546001909101546001600160a01b039091169082565b604080516001600160a01b0390931683526020830191909152016100e6565b6100f7610383565b6101736104ad565b6040516100e69190610b17565b6100dc6106de565b61019b610196366004610afe565b61070a565b6040516001600160a01b0390911681526020016100e6565b6100f7610734565b6100dc6108e3565b6100dc60025481565b6100dc610914565b6100f7610946565b60006032600654436101ee9190610be8565b6101f89190610bd4565b60075461020f91906301000000900460ff16610b97565b905090565b61021c610339565b6102415760405162461bcd60e51b815260040161023890610b6c565b60405180910390fd5b60a061024b6108e3565b106102985760405162461bcd60e51b815260206004820152601e60248201527f49276d206665656c696e6720746f6f2067726f737320746f20736c65657000006044820152606401610238565b60006102a26101dc565b116102e85760405162461bcd60e51b815260206004820152601660248201527549276d206e6f74206665656c696e6720736c6565707960501b6044820152606401610238565b436006556007805463ff000000191680825560059190600190610314908490610100900460ff16610baf565b92506101000a81548160ff021916908360ff1602179055506103373360016109cc565b565b600060c96103456106de565b108015610359575060c96103576108e3565b105b801561036c575060c961036a610914565b105b801561020f575060c961037d6101dc565b10905090565b61038b610339565b6103a75760405162461bcd60e51b815260040161023890610b6c565b60a06103b1610914565b106103f55760405162461bcd60e51b81526020600482015260146024820152731249db481d1bdbc81d1a5c9959081d1bc819585d60621b6044820152606401610238565b60a06103ff6108e3565b1061044c5760405162461bcd60e51b815260206004820152601c60248201527f49276d206665656c696e6720746f6f2067726f737320746f20656174000000006044820152606401610238565b436003556007805460ff1916808255600a919060029061047690849062010000900460ff16610baf565b92506101000a81548160ff021916908360ff1602179055506003600760018282829054906101000a900460ff166103149190610baf565b6040805160c08101825260026080820190815261474d60f01b60a083015281528151808301835260118152701249db481999595b1a5b99c819dc99585d607a1b6020828101919091528083019190915282518084018452600880825267105b1b0819dbdbd960c21b8284015283850191909152835180850190945283526749206c6f7665207560c01b908301526060818101929092526000908181610553600443610bff565b6004811061056357610563610c3f565b6020020151905060006105746106de565b905060006105806108e3565b9050600061058c610914565b905060006105986101dc565b90506105a2610339565b6105dc57604051806040016040528060118152602001704e6f206c6f6e676572207769746820757360781b81525097505050505050505090565b6032841180156105eb57508684115b15610619578396506040518060400160405280600a81526020016949276d2068756e67727960b01b81525094505b60328311801561062857508683115b15610659578296506040518060400160405280600d81526020016c09240dccacac840c240c4c2e8d609b1b81525094505b60328211801561066857508682115b1561069557819650604051806040016040528060098152602001681249db48189bdc995960ba1b81525094505b6032811180156106a457508681115b156106d2578096506040518060400160405280600a81526020016949276d20736c6565707960b01b81525094505b50929695505050505050565b60006032600354436106f09190610be8565b6106fa9190610bd4565b60075461020f919060ff16610b97565b6001818154811061071a57600080fd5b6000918252602090912001546001600160a01b0316905081565b61073c610339565b6107585760405162461bcd60e51b815260040161023890610b6c565b60a06107626106de565b106107a85760405162461bcd60e51b815260206004820152601660248201527549276d20746f6f2068756e67727920746f20706c617960501b6044820152606401610238565b60a06107b26101dc565b106107f85760405162461bcd60e51b815260206004820152601660248201527549276d20746f6f20736c6565707920746f20706c617960501b6044820152606401610238565b60a06108026108e3565b1061084f5760405162461bcd60e51b815260206004820152601d60248201527f49276d206665656c696e6720746f6f2067726f737320746f20706c61790000006044820152606401610238565b436005556007805462ff00001981168255600a919060009061087590849060ff16610baf565b92506101000a81548160ff021916908360ff160217905550600a600760038282829054906101000a900460ff166108ac9190610baf565b92506101000a81548160ff021916908360ff1602179055506005600760018282829054906101000a900460ff166103149190610baf565b60006032600454436108f59190610be8565b6108ff9190610bd4565b60075461020f9190610100900460ff16610b97565b60006032600554436109269190610be8565b6109309190610bd4565b60075461020f919062010000900460ff16610b97565b61094e610339565b61096a5760405162461bcd60e51b815260040161023890610b6c565b60006109746108e3565b116109b65760405162461bcd60e51b815260206004820152601260248201527109240c8dedce840dccacac840c240c4c2e8d60731b6044820152606401610238565b436004556007805461ff00191690556103373360015b6001600160a01b038216600090815260086020526040902060010154610a64576001805480820182557fb10e2d527612073b26eecdfd717e6a320cf44b4afac2b0732d9fcbe2b7fa0cf60180546001600160a01b0385166001600160a01b0319918216811790925560008281526008602052604081208054909216909217905560028054909190610a5e908490610b97565b90915550505b6001600160a01b03821660009081526008602052604081206001018054839290610a8f908490610b97565b909155505060405181906001600160a01b038416907f8e45fcbba81b43f078fbabb59099f303e8bd5709c1b7a173bf2986e0d615131690600090a35050565b600060208284031215610ae057600080fd5b81356001600160a01b0381168114610af757600080fd5b9392505050565b600060208284031215610b1057600080fd5b5035919050565b600060208083528351808285015260005b81811015610b4457858101830151858201604001528201610b28565b81811115610b56576000604083870101525b50601f01601f1916929092016040019392505050565b6020808252601190820152704e6f206c6f6e676572207769746820757360781b604082015260600190565b60008219821115610baa57610baa610c13565b500190565b600060ff821660ff84168060ff03821115610bcc57610bcc610c13565b019392505050565b600082610be357610be3610c29565b500490565b600082821015610bfa57610bfa610c13565b500390565b600082610c0e57610c0e610c29565b500690565b634e487b7160e01b600052601160045260246000fd5b634e487b7160e01b600052601260045260246000fd5b634e487b7160e01b600052603260045260246000fdfea264697066735822122066ff01d9d8b60957c5827874ac8922d8d4d723c432ae6618770682b6508d4ad264736f6c63430008070033",
  "immutableReferences": {},
  "source": "/**\r\n *Submitted for verification at Etherscan.io on 2021-09-10\r\n*/\r\n\r\n// SPDX-License-Identifier: Unlicense\r\n\r\n/*\r\n  (w) (a) (g) (m) (i)\r\n  by dom\r\n*/\r\n\r\npragma solidity ^0.8.0;\r\n\r\ncontract Wagmipet {\r\n    address _owner;\r\n    bool _birthed;\r\n    address[] public caretakers;\r\n    uint256 public caretakerIndex;\r\n    \r\n    event CaretakerLoved(address indexed caretaker, uint256 indexed amount);\r\n    \r\n    uint256 lastFeedBlock;\r\n    uint256 lastCleanBlock;\r\n    uint256 lastPlayBlock;\r\n    uint256 lastSleepBlock;\r\n    \r\n    uint8 internal hunger;\r\n    uint8 internal uncleanliness;\r\n    uint8 internal boredom;\r\n    uint8 internal sleepiness;\r\n    \r\n    mapping (address => careTakerInfo) public love;\r\n\r\n    struct careTakerInfo {\r\n        address careTaker;\r\n        uint256 love;\r\n    }\r\n    \r\n    modifier onlyOwner() {\r\n        require(msg.sender == _owner);\r\n        _;\r\n    }\r\n    \r\n    constructor() {\r\n        _owner = msg.sender;\r\n        lastFeedBlock = block.number;\r\n        lastCleanBlock = block.number;\r\n        lastPlayBlock = block.number;\r\n        lastSleepBlock = block.number;\r\n        \r\n        hunger = 0;\r\n        uncleanliness = 0;\r\n        boredom = 0;\r\n        sleepiness = 0;\r\n    }\r\n    \r\n    function addLove(address caretaker, uint256 amount) internal {\r\n        if (love[caretaker].love == 0) {\r\n            caretakers.push(caretaker);\r\n            love[caretaker].careTaker = caretaker;\r\n            caretakerIndex +=1;\r\n        }\r\n        love[caretaker].love += amount;\r\n        emit CaretakerLoved(caretaker, amount);\r\n    }\r\n    \r\n    function feed() public {\r\n        require(getAlive(), \"No longer with us\");\r\n        require(getBoredom() < 160, \"I'm too tired to eat\");\r\n        require(getUncleanliness() < 160, \"I'm feeling too gross to eat\");\r\n        // require(getHunger() > 0, \"i dont need to eat\");\r\n        \r\n        lastFeedBlock = block.number;\r\n        \r\n        hunger = 0;\r\n        boredom += 10;\r\n        uncleanliness += 3;\r\n\r\n        addLove(msg.sender, 1);\r\n    }\r\n    \r\n    function clean() public {\r\n        require(getAlive(), \"No longer with us\");\r\n        require(getUncleanliness() > 0, \"I dont need a bath\");\r\n        lastCleanBlock = block.number;\r\n        \r\n        uncleanliness = 0;\r\n        \r\n        addLove(msg.sender, 1);\r\n    }\r\n    \r\n    function play() public {\r\n        require(getAlive(), \"No longer with us\");\r\n        require(getHunger() < 160, \"I'm too hungry to play\");\r\n        require(getSleepiness() < 160, \"I'm too sleepy to play\");\r\n        require(getUncleanliness() < 160, \"I'm feeling too gross to play\");\r\n        // require(getBoredom() > 0, \"i dont wanna play\");\r\n        \r\n        lastPlayBlock = block.number;\r\n        \r\n        boredom = 0;\r\n        hunger += 10;\r\n        sleepiness += 10;\r\n        uncleanliness += 5;\r\n        \r\n        addLove(msg.sender, 1);\r\n    }\r\n    \r\n    function sleep() public {\r\n        require(getAlive(), \"No longer with us\");\r\n        require(getUncleanliness() < 160, \"I'm feeling too gross to sleep\");\r\n        require(getSleepiness() > 0, \"I'm not feeling sleepy\");\r\n        \r\n        lastSleepBlock = block.number;\r\n        \r\n        sleepiness = 0;\r\n        uncleanliness += 5;\r\n        \r\n        addLove(msg.sender, 1);\r\n    }\r\n    \r\n    function getStatus() public view returns (string memory) {\r\n        uint256 mostNeeded = 0;\r\n        \r\n        string[4] memory goodStatus = [\r\n            \"GM\",\r\n            \"I'm feeling great\",\r\n            \"All good\",\r\n            \"I love u\"\r\n        ];\r\n        \r\n        string memory status = goodStatus[block.number % 4];\r\n        \r\n        uint256 _hunger = getHunger();\r\n        uint256 _uncleanliness = getUncleanliness();\r\n        uint256 _boredom = getBoredom();\r\n        uint256 _sleepiness = getSleepiness();\r\n        \r\n        if (getAlive() == false) {\r\n            return \"No longer with us\";\r\n        }\r\n        \r\n        if (_hunger > 50 && _hunger > mostNeeded) {\r\n            mostNeeded = _hunger;\r\n            status = \"I'm hungry\";\r\n        }\r\n        \r\n        if (_uncleanliness > 50 && _uncleanliness > mostNeeded) {\r\n            mostNeeded = _uncleanliness;\r\n            status = \"I need a bath\";\r\n        }\r\n        \r\n        if (_boredom > 50 && _boredom > mostNeeded) {\r\n            mostNeeded = _boredom;\r\n            status = \"I'm bored\";\r\n        }\r\n        \r\n        if (_sleepiness > 50 && _sleepiness > mostNeeded) {\r\n            mostNeeded = _sleepiness;\r\n            status = \"I'm sleepy\";\r\n        }\r\n        \r\n        return status;\r\n    }\r\n    \r\n    function getAlive() public view returns (bool) {\r\n        return getHunger() < 201 && getUncleanliness() < 201 &&\r\n            getBoredom() < 201 && getSleepiness() < 201;\r\n    }\r\n    \r\n    function getHunger() public view returns (uint256) {\r\n        return hunger + ((block.number - lastFeedBlock) / 50);\r\n    }\r\n    \r\n    function getUncleanliness() public view returns (uint256) {\r\n        return uncleanliness + ((block.number - lastCleanBlock) / 50);\r\n    }\r\n    \r\n    function getBoredom() public view returns (uint256) {\r\n        return boredom + ((block.number - lastPlayBlock) / 50);\r\n    }\r\n    \r\n    function getSleepiness() public view returns (uint256) {\r\n        return sleepiness + ((block.number - lastSleepBlock) / 50);\r\n    }\r\n}",
  "sourcePath": "C:/Users/cheek/Desktop/Developer doc/Visual Studio Code/PundiX/wagmipet/wagmipet-zac/blindgotchi/src/contracts/Wagmipet.sol",
  "compiler": {
    "name": "solc",
    "version": "0.8.7+commit.e28d00a7.Emscripten.clang"
  },
  "schemaVersion": "3.3.4",
  "updatedAt": "2021-10-01T01:52:47.356Z",
  "networkType": "ethereum",
  "devdoc": {
    "kind": "dev",
    "methods": {},
    "version": 1
  },
  "userdoc": {
    "kind": "user",
    "methods": {},
    "version": 1
  }
}